{"src/CoinGenie.sol":{"CoinGenie":{"abi":[{"inputs":[{"internalType":"address","name":"erc20FactoryAddress","type":"address"},{"internalType":"address","name":"airdropClaimableERC20FactoryAddress","type":"address"}],"stateMutability":"nonpayable","type":"constructor"},{"inputs":[{"internalType":"enum CoinGenie.PayoutCategory","name":"category","type":"uint8"}],"name":"InvalidPayoutCategory","type":"error"},{"inputs":[{"internalType":"uint256","name":"share","type":"uint256"},{"internalType":"uint256","name":"maxShare","type":"uint256"}],"name":"ShareToHigh","type":"error"},{"anonymous":false,"inputs":[{"indexed":true,"internalType":"address","name":"airdropAddress","type":"address"},{"indexed":false,"internalType":"address","name":"tokenOwner","type":"address"},{"indexed":true,"internalType":"address","name":"airdropTokenAddress","type":"address"},{"indexed":true,"internalType":"uint256","name":"airdropAmount","type":"uint256"},{"indexed":false,"internalType":"uint256","name":"expirationTimestamp","type":"uint256"},{"indexed":false,"internalType":"uint256","name":"maxWalletClaimCount","type":"uint256"},{"indexed":false,"internalType":"bytes32","name":"merkleRoot","type":"bytes32"}],"name":"ClaimableAirdropCreated","type":"event"},{"anonymous":false,"inputs":[{"indexed":true,"internalType":"address","name":"newTokenAddress","type":"address"}],"name":"ERC20Launched","type":"event"},{"anonymous":false,"inputs":[{"indexed":true,"internalType":"address","name":"previousOwner","type":"address"},{"indexed":true,"internalType":"address","name":"newOwner","type":"address"}],"name":"OwnershipTransferred","type":"event"},{"inputs":[],"name":"UNISWAP_V2_ROUTER","outputs":[{"internalType":"contract IUniswapV2Router02","name":"","type":"address"}],"stateMutability":"view","type":"function"},{"inputs":[{"internalType":"address","name":"user","type":"address"},{"internalType":"uint256","name":"","type":"uint256"}],"name":"claimableAirdropCreatedBy","outputs":[{"internalType":"address","name":"airdropAddress","type":"address"},{"internalType":"address","name":"tokenOwner","type":"address"},{"internalType":"address","name":"airdropTokenAddress","type":"address"},{"internalType":"uint256","name":"airdropAmount","type":"uint256"},{"internalType":"uint256","name":"expirationTimestamp","type":"uint256"},{"internalType":"uint256","name":"maxWalletClaimCount","type":"uint256"},{"internalType":"bytes32","name":"merkleRoot","type":"bytes32"}],"stateMutability":"view","type":"function"},{"inputs":[{"internalType":"address","name":"tokenOwner","type":"address"},{"internalType":"address","name":"airdropTokenAddress","type":"address"},{"internalType":"uint256","name":"airdropAmount","type":"uint256"},{"internalType":"uint256","name":"expirationTimestamp","type":"uint256"},{"internalType":"uint256","name":"maxWalletClaimCount","type":"uint256"},{"internalType":"bytes32","name":"merkleRoot","type":"bytes32"}],"name":"createClaimableAirdrop","outputs":[{"internalType":"address","name":"dropAddress","type":"address"}],"stateMutability":"nonpayable","type":"function"},{"inputs":[{"internalType":"uint256","name":"","type":"uint256"}],"name":"createdClaimableAirdrops","outputs":[{"internalType":"address","name":"","type":"address"}],"stateMutability":"view","type":"function"},{"inputs":[{"internalType":"address","name":"_address","type":"address"}],"name":"getClaimableAirdropsForAddress","outputs":[{"components":[{"internalType":"address","name":"airdropAddress","type":"address"},{"internalType":"address","name":"tokenOwner","type":"address"},{"internalType":"address","name":"airdropTokenAddress","type":"address"},{"internalType":"uint256","name":"airdropAmount","type":"uint256"},{"internalType":"uint256","name":"expirationTimestamp","type":"uint256"},{"internalType":"uint256","name":"maxWalletClaimCount","type":"uint256"},{"internalType":"bytes32","name":"merkleRoot","type":"bytes32"}],"internalType":"struct CoinGenie.ClaimableAirdrop[]","name":"airdrops","type":"tuple[]"}],"stateMutability":"view","type":"function"},{"inputs":[{"internalType":"address","name":"_address","type":"address"}],"name":"getLaunchedTokensForAddress","outputs":[{"components":[{"internalType":"address","name":"tokenAddress","type":"address"},{"internalType":"string","name":"name","type":"string"},{"internalType":"string","name":"symbol","type":"string"},{"internalType":"uint256","name":"initialSupply","type":"uint256"},{"internalType":"bool","name":"isBurnable","type":"bool"},{"internalType":"bool","name":"isDeflationary","type":"bool"},{"internalType":"uint256","name":"maxPerWallet","type":"uint256"},{"internalType":"uint256","name":"autoWithdrawThreshold","type":"uint256"},{"internalType":"uint256","name":"maxTaxSwap","type":"uint256"},{"internalType":"address","name":"affiliateFeeRecipient","type":"address"},{"internalType":"address","name":"feeRecipient","type":"address"},{"internalType":"uint256","name":"feePercentage","type":"uint256"},{"internalType":"uint256","name":"burnPercentage","type":"uint256"}],"internalType":"struct CoinGenie.LaunchedToken[]","name":"tokens","type":"tuple[]"}],"stateMutability":"view","type":"function"},{"inputs":[{"internalType":"enum CoinGenie.PayoutCategory","name":"category","type":"uint8"}],"name":"getPayoutAddress","outputs":[{"internalType":"address payable","name":"","type":"address"}],"stateMutability":"view","type":"function"},{"inputs":[{"internalType":"enum CoinGenie.PayoutCategory","name":"category","type":"uint8"}],"name":"getPayoutShare","outputs":[{"internalType":"uint256","name":"","type":"uint256"}],"stateMutability":"view","type":"function"},{"inputs":[{"internalType":"string","name":"name","type":"string"},{"internalType":"string","name":"symbol","type":"string"},{"internalType":"uint256","name":"initialSupply","type":"uint256"},{"internalType":"address","name":"tokenOwner","type":"address"},{"components":[{"internalType":"bool","name":"isBurnable","type":"bool"},{"internalType":"bool","name":"isPausable","type":"bool"},{"internalType":"bool","name":"isDeflationary","type":"bool"}],"internalType":"struct Common.TokenConfigProperties","name":"customConfigProps","type":"tuple"},{"internalType":"uint256","name":"maxPerWallet","type":"uint256"},{"internalType":"uint256","name":"autoWithdrawThreshold","type":"uint256"},{"internalType":"uint256","name":"maxTaxSwap","type":"uint256"},{"internalType":"address","name":"affiliateFeeRecipient","type":"address"},{"internalType":"address","name":"feeRecipient","type":"address"},{"internalType":"uint256","name":"feePercentage","type":"uint256"},{"internalType":"uint256","name":"burnPercentage","type":"uint256"}],"name":"launchToken","outputs":[{"internalType":"address","name":"","type":"address"}],"stateMutability":"nonpayable","type":"function"},{"inputs":[{"internalType":"uint256","name":"","type":"uint256"}],"name":"launchedTokens","outputs":[{"internalType":"address","name":"","type":"address"}],"stateMutability":"view","type":"function"},{"inputs":[],"name":"owner","outputs":[{"internalType":"address","name":"","type":"address"}],"stateMutability":"view","type":"function"},{"inputs":[],"name":"quoteThreshold","outputs":[{"internalType":"uint256","name":"","type":"uint256"}],"stateMutability":"view","type":"function"},{"inputs":[],"name":"renounceOwnership","outputs":[],"stateMutability":"nonpayable","type":"function"},{"inputs":[{"internalType":"uint256","name":"_quoteThreshold","type":"uint256"}],"name":"setQuoteThreshold","outputs":[],"stateMutability":"nonpayable","type":"function"},{"inputs":[{"internalType":"address","name":"tokenAddress","type":"address"},{"internalType":"address","name":"lpTokenAddress","type":"address"},{"internalType":"uint256","name":"amount","type":"uint256"}],"name":"swapERC20s","outputs":[],"stateMutability":"nonpayable","type":"function"},{"inputs":[{"internalType":"address","name":"user","type":"address"},{"internalType":"uint256","name":"","type":"uint256"}],"name":"tokensLaunchedBy","outputs":[{"internalType":"address","name":"tokenAddress","type":"address"},{"internalType":"string","name":"name","type":"string"},{"internalType":"string","name":"symbol","type":"string"},{"internalType":"uint256","name":"initialSupply","type":"uint256"},{"internalType":"bool","name":"isBurnable","type":"bool"},{"internalType":"bool","name":"isDeflationary","type":"bool"},{"internalType":"uint256","name":"maxPerWallet","type":"uint256"},{"internalType":"uint256","name":"autoWithdrawThreshold","type":"uint256"},{"internalType":"uint256","name":"maxTaxSwap","type":"uint256"},{"internalType":"address","name":"affiliateFeeRecipient","type":"address"},{"internalType":"address","name":"feeRecipient","type":"address"},{"internalType":"uint256","name":"feePercentage","type":"uint256"},{"internalType":"uint256","name":"burnPercentage","type":"uint256"}],"stateMutability":"view","type":"function"},{"inputs":[{"internalType":"address","name":"newOwner","type":"address"}],"name":"transferOwnership","outputs":[],"stateMutability":"nonpayable","type":"function"},{"inputs":[{"internalType":"enum CoinGenie.PayoutCategory","name":"category","type":"uint8"},{"internalType":"address payable","name":"receiver","type":"address"},{"internalType":"uint256","name":"share","type":"uint256"}],"name":"updatePayout","outputs":[],"stateMutability":"nonpayable","type":"function"},{"inputs":[],"name":"withdraw","outputs":[],"stateMutability":"nonpayable","type":"function"},{"stateMutability":"payable","type":"receive"}],"devdoc":{"author":"@neuro_0x","details":"The orchestrator contract for the CoinGenie ecosystem.","kind":"dev","methods":{"constructor":{"params":{"airdropClaimableERC20FactoryAddress":"The address of the AirdropERC20ClaimableFactory contract","erc20FactoryAddress":"The address of the ERC20Factory contract"}},"createClaimableAirdrop(address,address,uint256,uint256,uint256,bytes32)":{"params":{"airdropAmount":"The amount of tokens available for airdrop","airdropTokenAddress":"The address of the airdrop token","expirationTimestamp":"The expiration timestamp of the airdrop","maxWalletClaimCount":"The maximum number of tokens that can be claimed by a wallet if not in the whitelist","merkleRoot":"The merkle root of the whitelist","tokenOwner":"The address of the token owner"},"returns":{"dropAddress":"The address of the newly deployed airdrop contract"}},"getClaimableAirdropsForAddress(address)":{"params":{"_address":"The address to get the airdrops for"}},"getLaunchedTokensForAddress(address)":{"params":{"_address":"The address to get the tokens for"},"returns":{"tokens":"The array of launched tokens"}},"getPayoutAddress(uint8)":{"params":{"category":"The category to get the payout address for"},"returns":{"_0":"receiver The address to receive the payout"}},"getPayoutShare(uint8)":{"params":{"category":"The category to get the payout share for"},"returns":{"_0":"share The share of the payout"}},"launchToken(string,string,uint256,address,(bool,bool,bool),uint256,uint256,uint256,address,address,uint256,uint256)":{"details":"This function deploys a new token contract and initializes it with provided parameters.","params":{"affiliateFeeRecipient":"The address to receive the affiliate fee","autoWithdrawThreshold":"The threshold for the amount of tokens to swap for ETH","burnPercentage":"The percent in basis points to burn on every tx if this token is deflationary","customConfigProps":"A struct of configuration booleans for the token","feePercentage":"The percent in basis points to use as a tax","feeRecipient":"The address to receive the tax fees","initialSupply":"The initial supply of the token","maxPerWallet":"The maximum amount of tokens allowed to be held by one wallet","maxTaxSwap":"The maximum amount of tokens allowed to be swapped at once by manual or autoswap","name":"The name of the token","symbol":"The symbol of the token","tokenOwner":"The address that will be the owner of the token"},"returns":{"_0":"_tokenAddress The address of the newly deployed token contract"}},"owner()":{"details":"Returns the address of the current owner."},"renounceOwnership()":{"details":"Leaves the contract without owner. It will not be possible to call `onlyOwner` functions. Can only be called by the current owner. NOTE: Renouncing ownership will leave the contract without an owner, thereby disabling any functionality that is only available to the owner."},"setQuoteThreshold(uint256)":{"params":{"_quoteThreshold":"The threshold for the amount of tokens to swap for ETH"}},"swapERC20s(address,address,uint256)":{"params":{"amount":"The amount of tokens to swap","tokenAddress":"The address of the token to swap"}},"transferOwnership(address)":{"details":"Transfers ownership of the contract to a new account (`newOwner`). Can only be called by the current owner."},"updatePayout(uint8,address,uint256)":{"params":{"category":"The category to set the payout address for","receiver":"The address to receive the payout","share":"The share of the payout"}}},"stateVariables":{"UNISWAP_V2_ROUTER":{"details":"The address of the Uniswap V2 Router. The contract uses the router for liquidity provision and token swaps"},"_airdropClaimableERC20Factory":{"details":"Stores the address of the AirdropERC20Claimable contract."},"_erc20Factory":{"details":"Stores the address of the ERC20Factory contract."},"_payouts":{"details":"A mapping of payout categories to payouts."},"claimableAirdropCreatedBy":{"details":"A mapping of airdrops launched by a specific owner."},"createdClaimableAirdrops":{"details":"Stores the addresses of all airdrops launched by the contract."},"launchedTokens":{"details":"Stores the addresses of all tokens launched by the contract."},"quoteThreshold":{"details":"The threshold for the amount of tokens to swap for ETH"},"tokensLaunchedBy":{"details":"A mapping of tokens launched by a specific owner."}},"title":"CoinGenie","version":1},"evm":{"bytecode":{"linkReferences":{},"object":"60806040523462000031576200001f62000018620000e5565b9062000251565b604051612597620004bc823961259790f35b600080fd5b634e487b7160e01b600052604160045260246000fd5b90601f01601f191681019081106001600160401b038211176200006e57604052565b62000036565b906200008b6200008360405190565b92836200004c565b565b6001600160a01b031690565b90565b6001600160a01b038116036200003157565b905051906200008b826200009c565b919060408382031262000031576200009990620000db8185620000ae565b93602001620000ae565b6200010862002a5380380380620000fc8162000074565b928339810190620000bd565b9091565b90600019905b9181191691161790565b6200009962000099620000999290565b90620001406200009962000148926200011c565b82546200010c565b9055565b62000099906200008d906001600160a01b031682565b62000099906200014c565b620000999062000162565b906001600160a01b039062000112565b906200019c6200009962000148926200016d565b825462000178565b62000099604062000074565b634e487b7160e01b600052602160045260246000fd5b60041115620001d157565b620001b0565b906200008b82620001c6565b6200009990620001d7565b90620001fa90620001e3565b600052602052604060002090565b6200008b91906200023e9060209060019062000237816200023087516001600160a01b031690565b9062000188565b0192015190565b906200012c565b906200008b9162000208565b6200029891620002826200028862000290936200026d62000417565b6200028267016345785d8a000060026200012c565b6200016d565b600462000188565b600562000188565b6200008b620002bb73be79b43b1505290dfe04294a433963dbeea736bb6200016d565b620002f0620002e96107d0620002e3620002d4620001a4565b6001600160a01b039095168552565b6200011c565b6020830152565b6200030960036200030f600093620003098584620001ee565b62000245565b620003696200033273633bf832dc39c0025a7aeaa165ec91acf02063d56200016d565b6200035c620002e9611388620002e36200034b620001a4565b6001600160a01b0390951689860152565b62000309600184620001ee565b620004046200038c73bb6712a513c2d7f3e17a40d095a773c5d98574b26200016d565b620003bf620003a56105dc620002e36200034b620001a4565b91620003b2836020830152565b62000309600286620001ee565b620003fd620003e273f14a30c09897d2c7481c5907d01ec58ec09555af6200016d565b620003ec620001a4565b968701906001600160a01b03169052565b6020850152565b80620001ee565b6200009960016200011c565b6200042162000437565b6200008b6200042f6200040b565b60016200012c565b6200008b3362000459565b62000099906200008d565b62000099905462000442565b6200046560006200044d565b906200047381600062000188565b620004aa620004a37f8be0079c531659141344cd1fd0a4f28419497f9722a3daafe3b4186f6b6457e0936200016d565b916200016d565b91620004b560405190565b600090a356fe6080604052600436101561001b575b361561001957600080fd5b005b60003560e01c806310f2b1411461014b5780633ccfd60b146101465780633d9cce421461014157806343584bca1461013c57806344ea3a66146101375780634d9429e714610132578063646eedab1461012d578063715018a6146101285780638da5cb5b146101235780639b1de1ff1461011e578063a7bc6a1714610119578063a82ed9ec14610114578063b56111071461010f578063b579772f1461010a578063d0b516c714610105578063dc8ed63614610100578063f14aade1146100fb578063f2fde38b146100f65763fca928b20361000e57610ea2565b610e71565b610e4a565b610cce565b610cb3565b610c6f565b610c01565b6108f5565b610890565b610777565b610702565b6106ea565b6106bf565b61049f565b61045e565b6102c9565b61029e565b61025f565b610229565b805b0361015957565b600080fd5b9050359061016b82610150565b565b90602082820312610159576101819161015e565b90565b634e487b7160e01b600052603260045260246000fd5b80548210156101bd576101b4600191600052602060002090565b91020190600090565b610184565b610181916008021c5b6001600160a01b031690565b9061018191546101c2565b600860006101ee825490565b8310156102095750610181916102039161019a565b906101d7565b80fd5b610215906101cb565b9052565b60208101929161016b919061020c565b346101595761025061024461023f36600461016d565b6101e2565b60405191829182610219565b0390f35b600091031261015957565b346101595761026f366004610254565b610277611b5d565b604051005b610181916008021c81565b90610181915461027c565b61018160006002610287565b34610159576102ae366004610254565b6102506102b9610292565b6040519182918290815260200190565b34610159576102776102dc36600461016d565b61227a565b610152816101cb565b9050359061016b826102e1565b9190604083820312610159576101819061031181856102ea565b9360200161015e565b610181906101cb906001600160a01b031682565b6101819061031a565b6101819061032e565b9061034a90610337565b600052602052604060002090565b80548210156101bd576101b4600791600052602060002090565b610181906101cb565b6101819054610372565b6101819081565b6101819054610385565b91906103a6600793600094610340565b8054821015610411576103ba929350610358565b506103c48161037b565b916103d16001830161037b565b916103de6002820161037b565b916103eb6003830161038c565b916103f86004820161038c565b91610181600661040a6005850161038c565b930161038c565b8380fd5b949290979695939160e08601986000870161042f9161020c565b6020860161043c9161020c565b604085016104499161020c565b6060840152608083015260a082015260c00152565b346101595761025061047a6104743660046102f7565b90610396565b9361048a97959793919360405190565b97889788610415565b600660006101ee825490565b34610159576102506102446104b536600461016d565b610493565b634e487b7160e01b600052604160045260246000fd5b90601f01601f1916810190811067ffffffffffffffff8211176104f257604052565b6104ba565b9061016b61050460405190565b92836104d0565b67ffffffffffffffff81116104f257602090601f01601f19160190565b0190565b90826000939282370152565b9092919261054d6105488261050b565b6104f7565b938185526020850190828401116101595761016b9261052c565b9080601f830112156101595781602061018193359101610538565b801515610152565b9050359061016b82610582565b919091606081840312610159576105de6105b160606104f7565b9360006105be828561058a565b9086015260206105d08282860161058a565b90860152604080930161058a565b90830152565b90916101c08284031261015957813567ffffffffffffffff8111610159578361060e918401610567565b92602083013567ffffffffffffffff8111610159578161062f918501610567565b9261063d826040830161015e565b9261064b83606084016102ea565b926106598160808501610597565b926106678260e0830161015e565b9261067683610100840161015e565b9261068581610120850161015e565b926106948261014083016102ea565b926101816106a68461016085016102ea565b936106b581610180860161015e565b936101a00161015e565b34610159576102506102446106d53660046105e4565b9a999099989198979297969396959495611558565b34610159576106fa366004610254565b610277610efd565b3461015957610712366004610254565b610250610244610ebb565b909160c0828403126101595761073383836102ea565b9261074181602085016102ea565b9261074f826040830161015e565b92610181610760846060850161015e565b9361076e816080860161015e565b9360a00161015e565b346101595761025061024461078d36600461071d565b94939093929192611847565b9060208282031261015957610181916102ea565b9060c08061016b936107c76000820151600086019061020c565b6107d96020820151602086019061020c565b6107eb6040820151604086019061020c565b6107fa60608201516060860152565b61080960808201516080860152565b61081860a082015160a0860152565b0151910152565b906105288160e0936107ad565b9061084c61084561083b845190565b8084529260200190565b9260200190565b9060005b81811061085d5750505090565b909192610877610870600192865161081f565b9460200190565b929101610850565b60208082526101819291019061082c565b34610159576102506108ab6108a6366004610799565b612527565b6040519182918261087f565b610181737a250d5630b4cf539739df2c5dacb4c659f2488d610337565b6101816108b7565b61021590610337565b60208101929161016b91906108dc565b3461015957610905366004610254565b6102506109106108d4565b604051918291826108e5565b80548210156101bd576101b4600c91600052602060002090565b634e487b7160e01b600052602260045260246000fd5b906001600283049216801561096c575b602083101461096757565b610936565b91607f169161095c565b805460009392916109936109898361094c565b8085529360200190565b91600181169081156109e557506001146109ac57505050565b6109bf9192939450600052602060002090565b916000925b8184106109d15750500190565b8054848401526020909301926001016109c4565b92949550505060ff1916825215156020020190565b9061018191610976565b9061016b610a1e92610a1560405190565b938480926109fa565b03836104d0565b610181905b60ff1690565b6101819054610a25565b6101819060081c610a2a565b6101819054610a3a565b9190610a60600993600094610340565b805482101561041157610a7492935061091c565b50610a7e8161037b565b91610a8b60018301610a04565b91610a9860028201610a04565b91610aa56003830161038c565b91610ab260048201610a30565b91610abf60048301610a46565b91610acc6005820161038c565b91610ad96006830161038c565b91610ae66007820161038c565b91610af36008830161037b565b91610b006009820161037b565b91610181600b61040a600a850161038c565b60005b838110610b255750506000910152565b8181015183820152602001610b15565b610b56610b5f60209361052893610b4a815190565b80835293849260200190565b95869101610b12565b601f01601f191690565b9a9896949291909d9c9b999795939d6101a08c019060008d01610b8b9161020c565b8b810360208d0152610b9c91610b35565b8a810360408c0152610bad91610b35565b9b60608a01610bba919052565b15156080890152151560a088015260c087015260e08601526101008501526101208401610be69161020c565b6101408301610bf49161020c565b6101608201526101800152565b3461015957610250610c1d610c173660046102f7565b90610a50565b99610c369d9b9d99919998929897939796949660405190565b9d8e9d8e610b69565b909160608284031261015957610181610c5884846102ea565b93610c6681602086016102ea565b9360400161015e565b3461015957610277610c82366004610c3f565b91611f8e565b6004111561015957565b9050359061016b82610c88565b906020828203126101595761018191610c92565b34610159576102506102b9610cc9366004610c9f565b611a08565b3461015957610250610244610ce4366004610c9f565b6119e9565b906101819061018080610d33610d216101a08501610d0f6000890151600088019061020c565b60208801518682036020880152610b35565b60408701518582036040870152610b35565b94610d4360608201516060860152565b60808181015115159085015260a081810151151590850152610d6a60c082015160c0860152565b610d7960e082015160e0860152565b610d8a610100820151610100860152565b610d9e61012082015161012086019061020c565b610db261014082015161014086019061020c565b610818610160820151610160860152565b9061018191610ce9565b90610de3610dd9835190565b8083529160200190565b9081610df56020830284019460200190565b926000915b838310610e0957505050505090565b90919293946020610e2c610e2583856001950387528951610dc3565b9760200190565b9301930191939290610dfa565b602080825261018192910190610dcd565b3461015957610250610e65610e60366004610799565b612414565b60405191829182610e39565b3461015957610277610e84366004610799565b611011565b909160608284031261015957610181610c588484610c92565b3461015957610277610eb5366004610e89565b91611b47565b610181600061037b565b610ecd610f59565b61016b610eeb565b6101cb6101816101819290565b61018190610ed5565b61016b610ef86000610ee2565b61104a565b61016b610ec5565b15610f0c57565b60405162461bcd60e51b815280610f55600482016020808252818101527f4f776e61626c653a2063616c6c6572206973206e6f7420746865206f776e6572604082015260600190565b0390fd5b61016b610f64610ebb565b610f7b610f75336101cb565b6101cb565b916101cb565b14610f05565b61016b90610f8d610f59565b610fed565b15610f9957565b60405162461bcd60e51b815260206004820152602660248201527f4f776e61626c653a206e6577206f776e657220697320746865207a65726f206160448201526564647265737360d01b6064820152608490fd5b61016b90610ef8611001610f706000610ee2565b61100a836101cb565b1415610f92565b61016b90610f81565b906001600160a01b03905b9181191691161790565b9061103f61018161104692610337565b825461101a565b9055565b611054600061037b565b9061106081600061102f565b61109361108d7f8be0079c531659141344cd1fd0a4f28419497f9722a3daafe3b4186f6b6457e093610337565b91610337565b9161109d60405190565b600090a3565b61015281610372565b9050519061016b826110a3565b9060208282031261015957610181916110ac565b9a989694929d9c9b9997959391906101e08c018c80820390600001526110f291610b35565b8b810360208d015261110391610b35565b9c60408b01611110919052565b60608a0161111d9161020c565b8051151560808a01526020810151151560a08a015260400151151560c089015260e0880152610100870152610120860152610140850161115c9161020c565b610160840161116a9161020c565b6101808301526101a08201526101c00161016b9161020c565b6040513d6000823e3d90fd5b916001600160a01b0360089290920291821b911b611025565b91906111b961018161104693610337565b90835461118f565b90815491600160401b8310156104f257826111e491600161016b9501815561019a565b906111a8565b6101816101a06104f7565b90610215906101cb565b634e487b7160e01b600052600060045260246000fd5b61018190516101cb565b9160001960089290920291821b911b611025565b6101816101816101819290565b919061125161018161104693611233565b90835461121f565b61016b91600091611240565b818110611270575050565b8061127e6000600193611259565b01611265565b9190601f811161129357505050565b6112a561016b93600052602060002090565b906020601f8401819004830193106112c7575b6020601f909101040190611265565b90915081906112b8565b906112da815190565b9067ffffffffffffffff82116104f2576112fe826112f8855461094c565b85611284565b602090601f83116001146113395761104692916000918361132e575b5050600019600883021c1916906002021790565b01519050388061131a565b601f1983169161134e85600052602060002090565b9260005b81811061138c57509160029391856001969410611373575b50505002019055565b01516000196008601f8516021c1916905538808061136a565b91936020600181928787015181550195019201611352565b9061016b916112d1565b9060001990611025565b906113c861018161104692611233565b82546113ae565b9060ff90611025565b906113e861018161104692151590565b82546113cf565b9061ff009060081b611025565b9061140c61018161104692151590565b82546113ef565b61016b91906114729061018090600b906114368161143087611215565b9061102f565b61144e60018201611448602088015190565b906113a4565b61146060028201611448604088015190565b61147860038201611472606088015190565b906113b8565b6114a26004820161149561148f6080890151151590565b826113d8565b60a08701511515906113fc565b6114b46005820161147260c088015190565b6114c66006820161147260e088015190565b6114d96007820161147261010088015190565b6114ed600882016114306101208801611215565b611501600982016114306101408801611215565b611514600a820161147261016088015190565b0192015190565b919061152a5761016b91611413565b6111ff565b90815491600160401b8310156104f2578261155291600161016b9501815561091c565b9061151b565b9099969382878c888c99969f9c889e9b988e8e8e8a948e611577600090565b50611582600461037b565b61158b90610337565b9963d5e71353988d61159c30610337565b986115a660405190565b9e8f9d8e6115b5819f60e01b90565b81526004019c6115c49d6110cd565b03815a602094600091f180156116f6576115e6916000916116c8575b50610337565b6115ef90610337565b9b8c9a6115fd8c60086111c1565b611608906009610340565b9b6116138351151590565b6040909301511515936116246111ea565b9c61162f908e6111f5565b60208d015260408c015260608b0152151560808a0152151560a089015260c088015260e087015261010086015261166a9061012086016111f5565b6116789061014085016111f5565b61016083015261018082015261168d9161152f565b7fda509e6642e963726d34ff4d505f1232025d5a4c3937d868bcad7e3e5950d6e66116b782610337565b906116c160405190565b600090a290565b6116e9915060203d81116116ef575b6116e181836104d0565b8101906110b9565b386115e0565b503d6116d7565b611183565b919461173e6117459298979561173760a09661173061016b9a61172660c08a019e60008b019061020c565b602089019061020c565b6040870152565b6060850152565b6080830152565b0152565b61018160e06104f7565b906113c86101816110469290565b61016b91906117d99060c09060069061177d8161143087611215565b6117906001820161143060208801611215565b6117a36002820161143060408801611215565b6117b560038201611472606088015190565b6117c760048201611472608088015190565b6115146005820161147260a088015190565b90611753565b919061152a5761016b91611761565b90815491600160401b8310156104f2578261181191600161016b95018155610358565b906117df565b61174561016b94611840606094989795611839608086019a600087019061020c565b6020850152565b6040830152565b94909192611853600090565b5061185e600561037b565b61186790610337565b95639b1de1ff9661187760405190565b9760e01b88528780611891868a878b8b89600488016116fb565b03815a602094600091f19687156116f657600097611987575b506118c06118b9600698610337565b80986111c1565b61192e6118cb611749565b6118d589826111f5565b6118e283602083016111f5565b6118ef86604083016111f5565b6118fa876060830152565b611905846080830152565b6119108860a0830152565b61191b8560c0830152565b611929610181336007610340565b6117ee565b6119817fe4a84f0f254e5960c762412e401bbc3ea5b577c07be930ce4ea38862ddc5f6529361196e6119686119628b610337565b97610337565b97611233565b9761197860405190565b94859485611817565b0390a490565b6119a091975060203d81116116ef576116e181836104d0565b95386118aa565b634e487b7160e01b600052602160045260246000fd5b600411156119c757565b6119a7565b9061016b826119bd565b610181906119cc565b9061034a906119d6565b6000611a02610181926119fa600090565b5060036119df565b0161037b565b6001611a19610181926119fa600090565b0161038c565b9061016b9291611a2d610f59565b611a8e565b90815260408101929161016b9160200152565b610215906119d6565b60208101929161016b9190611a45565b61018160406104f7565b61016b9190611472906020906001906115148161143087611215565b9061016b91611a68565b9291600390611aa56101816001611a1988866119df565b8111611b1557611ab4826119cc565b611abd866119cc565b11611af25793611aed91611ae861016b9596611ae1611ada611a5e565b96876111f5565b6020860152565b6119df565b611a84565b610f5585611aff60405190565b63699273b360e01b815291829160048301611a4e565b611b246001611a1987856119df565b90610f55611b3160405190565b63dcaf71db60e01b815292839260048401611a32565b9061016b9291611a1f565b610181612710611233565b611b6630610337565b3160006003611b7582826119df565b600101611b819061038c565b82600180611b8f81866119df565b01611b999061038c565b958260029280611ba985896119df565b01611bb39061038c565b9281611bbf89806119df565b01611bc99061038c565b96611bd49082611cf3565b90611bdd611b52565b80611be9818095611d2d565b9c611bf49084611cf3565b90611bfe91611d2d565b95611c099083611cf3565b90611c1391611d2d565b97611c1d91611cf3565b90611c2791611d2d565b9882611c33818a6119df565b01611c3d9061037b565b611c4690610337565b90611c5091612543565b611c5a90876119df565b01611c649061037b565b611c6d90610337565b90611c7791612543565b611c8190846119df565b01611c8b9061037b565b611c9490610337565b90611c9e91612543565b80611ca8916119df565b01611cb29061037b565b611cbb90610337565b9061016b91612543565b634e487b7160e01b600052601160045260246000fd5b81810292918115918404141715611cee57565b611cc5565b6101819190611cdb565b634e487b7160e01b600052601260045260246000fd5b90611d1d565b9190565b908115611d28570490565b611cfd565b6101819190611d13565b6001600160701b038116610152565b9050519061016b82611d37565b63ffffffff8116610152565b9050519061016b82611d53565b909160608284031261015957610181611d858484611d46565b93611d938160208601611d46565b93604001611d5f565b610181610181610181926001600160701b031690565b9050519061016b82610150565b906020828203126101595761018191611db2565b90815260608101939261016b929091604091611745906020830152565b9050519061016b82610582565b906020828203126101595761018191611df0565b91602061016b9294936117456040820196600083019061020c565b15611e3357565b60405162461bcd60e51b815260206004820152600f60248201526e105c1c1c9bdd985b0819985a5b1959608a1b6044820152606490fd5b67ffffffffffffffff81116104f25760208091020190565b90611e8f61054883611e6a565b918252565b369037565b9061016b611eaf611ea984611e82565b93611e6a565b601f190160208401611e94565b90611ec5825190565b8110156101bd576020809102010190565b9050519061016b826102e1565b906020828203126101595761018191611ed6565b61021590611233565b906105288160209361020c565b90611f1c61084561083b845190565b9060005b818110611f2d5750505090565b909192611f406108706001928651611f00565b929101611f20565b90611f836117459161016b96989795611f76608096611f6c60a08801946000890152565b6020870190611ef7565b8482036040860152611f0d565b96606083019061020c565b916060611fa5611fa0611fbd94610337565b610337565b630902f1ac90611fb460405190565b94859260e01b90565b825260049082905afa9182156116f6576000908193612229575b50611fe4611fea91611d9c565b92611d9c565b916020612019611ffb611fa06108b7565b9461202563ad615dec9161200e60405190565b958694859460e01b90565b84528760048501611dd3565b0381865afa9081156116f6576000916121fb575b5061204a611d19610181600261038c565b101561205557505050565b61207e6020612066611fa086610337565b63095ea7b39061207560405190565b93849260e01b90565b825281600081612092888a60048401611e11565b03925af180156116f6576120ae916000916121cd575b50611e2c565b6120c06120bb6002611233565b611e99565b906120de6000946120d96120d387611233565b85611ebc565b6111f5565b63ad5c46486120f66120ef60405190565b9160e01b90565b8152602081600481875afa80156116f65761212091869161219f575b506120d96120d36001611233565b635c11d7959261212f30610337565b4290823b1561015957869561216761215c93889793889461214f60405190565b9a8b998a98899760e01b90565b875260048701611f48565b03925af180156116f657612179575050565b8161016b92903d10612198575b61219081836104d0565b810190610254565b503d612186565b6121c0915060203d81116121c6575b6121b881836104d0565b810190611ee3565b38612112565b503d6121ae565b6121ee915060203d81116121f4575b6121e681836104d0565b810190611dfd565b386120a8565b503d6121dc565b61221c915060203d8111612222575b61221481836104d0565b810190611dbf565b38612039565b503d61220a565b611fe49350611fea91506122539060603d811161225c575b61224b81836104d0565b810190611d6c565b50935090611fd7565b503d612241565b61016b9061226f610f59565b61016b9060026113b8565b61016b90612263565b9061016b6123a5600b6122946111ea565b946122a76122a18261037b565b876111f5565b6122bd6122b660018301610a04565b6020880152565b6122d36122cc60028301610a04565b6040880152565b6122e96122e26003830161038c565b6060880152565b6123016122f860048301610a30565b15156080880152565b61231961231060048301610a46565b151560a0880152565b61232f6123286005830161038c565b60c0880152565b61234561233e6006830161038c565b60e0880152565b61235c6123546007830161038c565b610100880152565b61237561236b6008830161037b565b61012088016111f5565b61238e6123846009830161037b565b61014088016111f5565b611a1961239d600a830161038c565b610160880152565b610180840152565b61018190612283565b906123bf825490565b6123c881611e82565b926123dc6020850191600052602060002090565b6000915b8383106123ed5750505050565b600c60206001926123fd856123ad565b8152019201920191906123e0565b610181906123b6565b61242b61018191612423606090565b506009610340565b61240b565b9061016b6124b96006612441611749565b9461244e6122a18261037b565b61246661245d6001830161037b565b602088016111f5565b61247e6124756002830161037b565b604088016111f5565b61248d6122e26003830161038c565b6124a361249c6004830161038c565b6080880152565b611a196124b26005830161038c565b60a0880152565b60c0840152565b61018190612430565b906124d2825490565b6124db81611e82565b926124ef6020850191600052602060002090565b6000915b8383106125005750505050565b60076020600192612510856124c0565b8152019201920191906124f3565b610181906124c9565b61253e61018191612536606090565b506007610340565b61251e565b600080809381935af11561255357565b63b12d13eb6000526004601cfdfea2646970667358221220def484b44b5bd0d404b708e28c953764e39b4423d4e632f67ed3988c3a300f9164736f6c63430008140033","opcodes":"PUSH1 0x80 PUSH1 0x40 MSTORE CALLVALUE PUSH3 0x31 JUMPI PUSH3 0x1F PUSH3 0x18 PUSH3 0xE5 JUMP JUMPDEST SWAP1 PUSH3 0x251 JUMP JUMPDEST PUSH1 0x40 MLOAD PUSH2 0x2597 PUSH3 0x4BC DUP3 CODECOPY PUSH2 0x2597 SWAP1 RETURN JUMPDEST PUSH1 0x0 DUP1 REVERT JUMPDEST PUSH4 0x4E487B71 PUSH1 0xE0 SHL PUSH1 0x0 MSTORE PUSH1 0x41 PUSH1 0x4 MSTORE PUSH1 0x24 PUSH1 0x0 REVERT JUMPDEST SWAP1 PUSH1 0x1F ADD PUSH1 0x1F NOT AND DUP2 ADD SWAP1 DUP2 LT PUSH1 0x1 PUSH1 0x1 PUSH1 0x40 SHL SUB DUP3 GT OR PUSH3 0x6E JUMPI PUSH1 0x40 MSTORE JUMP JUMPDEST PUSH3 0x36 JUMP JUMPDEST SWAP1 PUSH3 0x8B PUSH3 0x83 PUSH1 0x40 MLOAD SWAP1 JUMP JUMPDEST SWAP3 DUP4 PUSH3 0x4C JUMP JUMPDEST JUMP JUMPDEST PUSH1 0x1 PUSH1 0x1 PUSH1 0xA0 SHL SUB AND SWAP1 JUMP JUMPDEST SWAP1 JUMP JUMPDEST PUSH1 0x1 PUSH1 0x1 PUSH1 0xA0 SHL SUB DUP2 AND SUB PUSH3 0x31 JUMPI JUMP JUMPDEST SWAP1 POP MLOAD SWAP1 PUSH3 0x8B DUP3 PUSH3 0x9C JUMP JUMPDEST SWAP2 SWAP1 PUSH1 0x40 DUP4 DUP3 SUB SLT PUSH3 0x31 JUMPI PUSH3 0x99 SWAP1 PUSH3 0xDB DUP2 DUP6 PUSH3 0xAE JUMP JUMPDEST SWAP4 PUSH1 0x20 ADD PUSH3 0xAE JUMP JUMPDEST PUSH3 0x108 PUSH3 0x2A53 DUP1 CODESIZE SUB DUP1 PUSH3 0xFC DUP2 PUSH3 0x74 JUMP JUMPDEST SWAP3 DUP4 CODECOPY DUP2 ADD SWAP1 PUSH3 0xBD JUMP JUMPDEST SWAP1 SWAP2 JUMP JUMPDEST SWAP1 PUSH1 0x0 NOT SWAP1 JUMPDEST SWAP2 DUP2 NOT AND SWAP2 AND OR SWAP1 JUMP JUMPDEST PUSH3 0x99 PUSH3 0x99 PUSH3 0x99 SWAP3 SWAP1 JUMP JUMPDEST SWAP1 PUSH3 0x140 PUSH3 0x99 PUSH3 0x148 SWAP3 PUSH3 0x11C JUMP JUMPDEST DUP3 SLOAD PUSH3 0x10C JUMP JUMPDEST SWAP1 SSTORE JUMP JUMPDEST PUSH3 0x99 SWAP1 PUSH3 0x8D SWAP1 PUSH1 0x1 PUSH1 0x1 PUSH1 0xA0 SHL SUB AND DUP3 JUMP JUMPDEST PUSH3 0x99 SWAP1 PUSH3 0x14C JUMP JUMPDEST PUSH3 0x99 SWAP1 PUSH3 0x162 JUMP JUMPDEST SWAP1 PUSH1 0x1 PUSH1 0x1 PUSH1 0xA0 SHL SUB SWAP1 PUSH3 0x112 JUMP JUMPDEST SWAP1 PUSH3 0x19C PUSH3 0x99 PUSH3 0x148 SWAP3 PUSH3 0x16D JUMP JUMPDEST DUP3 SLOAD PUSH3 0x178 JUMP JUMPDEST PUSH3 0x99 PUSH1 0x40 PUSH3 0x74 JUMP JUMPDEST PUSH4 0x4E487B71 PUSH1 0xE0 SHL PUSH1 0x0 MSTORE PUSH1 0x21 PUSH1 0x4 MSTORE PUSH1 0x24 PUSH1 0x0 REVERT JUMPDEST PUSH1 0x4 GT ISZERO PUSH3 0x1D1 JUMPI JUMP JUMPDEST PUSH3 0x1B0 JUMP JUMPDEST SWAP1 PUSH3 0x8B DUP3 PUSH3 0x1C6 JUMP JUMPDEST PUSH3 0x99 SWAP1 PUSH3 0x1D7 JUMP JUMPDEST SWAP1 PUSH3 0x1FA SWAP1 PUSH3 0x1E3 JUMP JUMPDEST PUSH1 0x0 MSTORE PUSH1 0x20 MSTORE PUSH1 0x40 PUSH1 0x0 KECCAK256 SWAP1 JUMP JUMPDEST PUSH3 0x8B SWAP2 SWAP1 PUSH3 0x23E SWAP1 PUSH1 0x20 SWAP1 PUSH1 0x1 SWAP1 PUSH3 0x237 DUP2 PUSH3 0x230 DUP8 MLOAD PUSH1 0x1 PUSH1 0x1 PUSH1 0xA0 SHL SUB AND SWAP1 JUMP JUMPDEST SWAP1 PUSH3 0x188 JUMP JUMPDEST ADD SWAP3 ADD MLOAD SWAP1 JUMP JUMPDEST SWAP1 PUSH3 0x12C JUMP JUMPDEST SWAP1 PUSH3 0x8B SWAP2 PUSH3 0x208 JUMP JUMPDEST PUSH3 0x298 SWAP2 PUSH3 0x282 PUSH3 0x288 PUSH3 0x290 SWAP4 PUSH3 0x26D PUSH3 0x417 JUMP JUMPDEST PUSH3 0x282 PUSH8 0x16345785D8A0000 PUSH1 0x2 PUSH3 0x12C JUMP JUMPDEST PUSH3 0x16D JUMP JUMPDEST PUSH1 0x4 PUSH3 0x188 JUMP JUMPDEST PUSH1 0x5 PUSH3 0x188 JUMP JUMPDEST PUSH3 0x8B PUSH3 0x2BB PUSH20 0xBE79B43B1505290DFE04294A433963DBEEA736BB PUSH3 0x16D JUMP JUMPDEST PUSH3 0x2F0 PUSH3 0x2E9 PUSH2 0x7D0 PUSH3 0x2E3 PUSH3 0x2D4 PUSH3 0x1A4 JUMP JUMPDEST PUSH1 0x1 PUSH1 0x1 PUSH1 0xA0 SHL SUB SWAP1 SWAP6 AND DUP6 MSTORE JUMP JUMPDEST PUSH3 0x11C JUMP JUMPDEST PUSH1 0x20 DUP4 ADD MSTORE JUMP JUMPDEST PUSH3 0x309 PUSH1 0x3 PUSH3 0x30F PUSH1 0x0 SWAP4 PUSH3 0x309 DUP6 DUP5 PUSH3 0x1EE JUMP JUMPDEST PUSH3 0x245 JUMP JUMPDEST PUSH3 0x369 PUSH3 0x332 PUSH20 0x633BF832DC39C0025A7AEAA165EC91ACF02063D5 PUSH3 0x16D JUMP JUMPDEST PUSH3 0x35C PUSH3 0x2E9 PUSH2 0x1388 PUSH3 0x2E3 PUSH3 0x34B PUSH3 0x1A4 JUMP JUMPDEST PUSH1 0x1 PUSH1 0x1 PUSH1 0xA0 SHL SUB SWAP1 SWAP6 AND DUP10 DUP7 ADD MSTORE JUMP JUMPDEST PUSH3 0x309 PUSH1 0x1 DUP5 PUSH3 0x1EE JUMP JUMPDEST PUSH3 0x404 PUSH3 0x38C PUSH20 0xBB6712A513C2D7F3E17A40D095A773C5D98574B2 PUSH3 0x16D JUMP JUMPDEST PUSH3 0x3BF PUSH3 0x3A5 PUSH2 0x5DC PUSH3 0x2E3 PUSH3 0x34B PUSH3 0x1A4 JUMP JUMPDEST SWAP2 PUSH3 0x3B2 DUP4 PUSH1 0x20 DUP4 ADD MSTORE JUMP JUMPDEST PUSH3 0x309 PUSH1 0x2 DUP7 PUSH3 0x1EE JUMP JUMPDEST PUSH3 0x3FD PUSH3 0x3E2 PUSH20 0xF14A30C09897D2C7481C5907D01EC58EC09555AF PUSH3 0x16D JUMP JUMPDEST PUSH3 0x3EC PUSH3 0x1A4 JUMP JUMPDEST SWAP7 DUP8 ADD SWAP1 PUSH1 0x1 PUSH1 0x1 PUSH1 0xA0 SHL SUB AND SWAP1 MSTORE JUMP JUMPDEST PUSH1 0x20 DUP6 ADD MSTORE JUMP JUMPDEST DUP1 PUSH3 0x1EE JUMP JUMPDEST PUSH3 0x99 PUSH1 0x1 PUSH3 0x11C JUMP JUMPDEST PUSH3 0x421 PUSH3 0x437 JUMP JUMPDEST PUSH3 0x8B PUSH3 0x42F PUSH3 0x40B JUMP JUMPDEST PUSH1 0x1 PUSH3 0x12C JUMP JUMPDEST PUSH3 0x8B CALLER PUSH3 0x459 JUMP JUMPDEST PUSH3 0x99 SWAP1 PUSH3 0x8D JUMP JUMPDEST PUSH3 0x99 SWAP1 SLOAD PUSH3 0x442 JUMP JUMPDEST PUSH3 0x465 PUSH1 0x0 PUSH3 0x44D JUMP JUMPDEST SWAP1 PUSH3 0x473 DUP2 PUSH1 0x0 PUSH3 0x188 JUMP JUMPDEST PUSH3 0x4AA PUSH3 0x4A3 PUSH32 0x8BE0079C531659141344CD1FD0A4F28419497F9722A3DAAFE3B4186F6B6457E0 SWAP4 PUSH3 0x16D JUMP JUMPDEST SWAP2 PUSH3 0x16D JUMP JUMPDEST SWAP2 PUSH3 0x4B5 PUSH1 0x40 MLOAD SWAP1 JUMP JUMPDEST PUSH1 0x0 SWAP1 LOG3 JUMP INVALID PUSH1 0x80 PUSH1 0x40 MSTORE PUSH1 0x4 CALLDATASIZE LT ISZERO PUSH2 0x1B JUMPI JUMPDEST CALLDATASIZE ISZERO PUSH2 0x19 JUMPI PUSH1 0x0 DUP1 REVERT JUMPDEST STOP JUMPDEST PUSH1 0x0 CALLDATALOAD PUSH1 0xE0 SHR DUP1 PUSH4 0x10F2B141 EQ PUSH2 0x14B JUMPI DUP1 PUSH4 0x3CCFD60B EQ PUSH2 0x146 JUMPI DUP1 PUSH4 0x3D9CCE42 EQ PUSH2 0x141 JUMPI DUP1 PUSH4 0x43584BCA EQ PUSH2 0x13C JUMPI DUP1 PUSH4 0x44EA3A66 EQ PUSH2 0x137 JUMPI DUP1 PUSH4 0x4D9429E7 EQ PUSH2 0x132 JUMPI DUP1 PUSH4 0x646EEDAB EQ PUSH2 0x12D JUMPI DUP1 PUSH4 0x715018A6 EQ PUSH2 0x128 JUMPI DUP1 PUSH4 0x8DA5CB5B EQ PUSH2 0x123 JUMPI DUP1 PUSH4 0x9B1DE1FF EQ PUSH2 0x11E JUMPI DUP1 PUSH4 0xA7BC6A17 EQ PUSH2 0x119 JUMPI DUP1 PUSH4 0xA82ED9EC EQ PUSH2 0x114 JUMPI DUP1 PUSH4 0xB5611107 EQ PUSH2 0x10F JUMPI DUP1 PUSH4 0xB579772F EQ PUSH2 0x10A JUMPI DUP1 PUSH4 0xD0B516C7 EQ PUSH2 0x105 JUMPI DUP1 PUSH4 0xDC8ED636 EQ PUSH2 0x100 JUMPI DUP1 PUSH4 0xF14AADE1 EQ PUSH2 0xFB JUMPI DUP1 PUSH4 0xF2FDE38B EQ PUSH2 0xF6 JUMPI PUSH4 0xFCA928B2 SUB PUSH2 0xE JUMPI PUSH2 0xEA2 JUMP JUMPDEST PUSH2 0xE71 JUMP JUMPDEST PUSH2 0xE4A JUMP JUMPDEST PUSH2 0xCCE JUMP JUMPDEST PUSH2 0xCB3 JUMP JUMPDEST PUSH2 0xC6F JUMP JUMPDEST PUSH2 0xC01 JUMP JUMPDEST PUSH2 0x8F5 JUMP JUMPDEST PUSH2 0x890 JUMP JUMPDEST PUSH2 0x777 JUMP JUMPDEST PUSH2 0x702 JUMP JUMPDEST PUSH2 0x6EA JUMP JUMPDEST PUSH2 0x6BF JUMP JUMPDEST PUSH2 0x49F JUMP JUMPDEST PUSH2 0x45E JUMP JUMPDEST PUSH2 0x2C9 JUMP JUMPDEST PUSH2 0x29E JUMP JUMPDEST PUSH2 0x25F JUMP JUMPDEST PUSH2 0x229 JUMP JUMPDEST DUP1 JUMPDEST SUB PUSH2 0x159 JUMPI JUMP JUMPDEST PUSH1 0x0 DUP1 REVERT JUMPDEST SWAP1 POP CALLDATALOAD SWAP1 PUSH2 0x16B DUP3 PUSH2 0x150 JUMP JUMPDEST JUMP JUMPDEST SWAP1 PUSH1 0x20 DUP3 DUP3 SUB SLT PUSH2 0x159 JUMPI PUSH2 0x181 SWAP2 PUSH2 0x15E JUMP JUMPDEST SWAP1 JUMP JUMPDEST PUSH4 0x4E487B71 PUSH1 0xE0 SHL PUSH1 0x0 MSTORE PUSH1 0x32 PUSH1 0x4 MSTORE PUSH1 0x24 PUSH1 0x0 REVERT JUMPDEST DUP1 SLOAD DUP3 LT ISZERO PUSH2 0x1BD JUMPI PUSH2 0x1B4 PUSH1 0x1 SWAP2 PUSH1 0x0 MSTORE PUSH1 0x20 PUSH1 0x0 KECCAK256 SWAP1 JUMP JUMPDEST SWAP2 MUL ADD SWAP1 PUSH1 0x0 SWAP1 JUMP JUMPDEST PUSH2 0x184 JUMP JUMPDEST PUSH2 0x181 SWAP2 PUSH1 0x8 MUL SHR JUMPDEST PUSH1 0x1 PUSH1 0x1 PUSH1 0xA0 SHL SUB AND SWAP1 JUMP JUMPDEST SWAP1 PUSH2 0x181 SWAP2 SLOAD PUSH2 0x1C2 JUMP JUMPDEST PUSH1 0x8 PUSH1 0x0 PUSH2 0x1EE DUP3 SLOAD SWAP1 JUMP JUMPDEST DUP4 LT ISZERO PUSH2 0x209 JUMPI POP PUSH2 0x181 SWAP2 PUSH2 0x203 SWAP2 PUSH2 0x19A JUMP JUMPDEST SWAP1 PUSH2 0x1D7 JUMP JUMPDEST DUP1 REVERT JUMPDEST PUSH2 0x215 SWAP1 PUSH2 0x1CB JUMP JUMPDEST SWAP1 MSTORE JUMP JUMPDEST PUSH1 0x20 DUP2 ADD SWAP3 SWAP2 PUSH2 0x16B SWAP2 SWAP1 PUSH2 0x20C JUMP JUMPDEST CALLVALUE PUSH2 0x159 JUMPI PUSH2 0x250 PUSH2 0x244 PUSH2 0x23F CALLDATASIZE PUSH1 0x4 PUSH2 0x16D JUMP JUMPDEST PUSH2 0x1E2 JUMP JUMPDEST PUSH1 0x40 MLOAD SWAP2 DUP3 SWAP2 DUP3 PUSH2 0x219 JUMP JUMPDEST SUB SWAP1 RETURN JUMPDEST PUSH1 0x0 SWAP2 SUB SLT PUSH2 0x159 JUMPI JUMP JUMPDEST CALLVALUE PUSH2 0x159 JUMPI PUSH2 0x26F CALLDATASIZE PUSH1 0x4 PUSH2 0x254 JUMP JUMPDEST PUSH2 0x277 PUSH2 0x1B5D JUMP JUMPDEST PUSH1 0x40 MLOAD STOP JUMPDEST PUSH2 0x181 SWAP2 PUSH1 0x8 MUL SHR DUP2 JUMP JUMPDEST SWAP1 PUSH2 0x181 SWAP2 SLOAD PUSH2 0x27C JUMP JUMPDEST PUSH2 0x181 PUSH1 0x0 PUSH1 0x2 PUSH2 0x287 JUMP JUMPDEST CALLVALUE PUSH2 0x159 JUMPI PUSH2 0x2AE CALLDATASIZE PUSH1 0x4 PUSH2 0x254 JUMP JUMPDEST PUSH2 0x250 PUSH2 0x2B9 PUSH2 0x292 JUMP JUMPDEST PUSH1 0x40 MLOAD SWAP2 DUP3 SWAP2 DUP3 SWAP1 DUP2 MSTORE PUSH1 0x20 ADD SWAP1 JUMP JUMPDEST CALLVALUE PUSH2 0x159 JUMPI PUSH2 0x277 PUSH2 0x2DC CALLDATASIZE PUSH1 0x4 PUSH2 0x16D JUMP JUMPDEST PUSH2 0x227A JUMP JUMPDEST PUSH2 0x152 DUP2 PUSH2 0x1CB JUMP JUMPDEST SWAP1 POP CALLDATALOAD SWAP1 PUSH2 0x16B DUP3 PUSH2 0x2E1 JUMP JUMPDEST SWAP2 SWAP1 PUSH1 0x40 DUP4 DUP3 SUB SLT PUSH2 0x159 JUMPI PUSH2 0x181 SWAP1 PUSH2 0x311 DUP2 DUP6 PUSH2 0x2EA JUMP JUMPDEST SWAP4 PUSH1 0x20 ADD PUSH2 0x15E JUMP JUMPDEST PUSH2 0x181 SWAP1 PUSH2 0x1CB SWAP1 PUSH1 0x1 PUSH1 0x1 PUSH1 0xA0 SHL SUB AND DUP3 JUMP JUMPDEST PUSH2 0x181 SWAP1 PUSH2 0x31A JUMP JUMPDEST PUSH2 0x181 SWAP1 PUSH2 0x32E JUMP JUMPDEST SWAP1 PUSH2 0x34A SWAP1 PUSH2 0x337 JUMP JUMPDEST PUSH1 0x0 MSTORE PUSH1 0x20 MSTORE PUSH1 0x40 PUSH1 0x0 KECCAK256 SWAP1 JUMP JUMPDEST DUP1 SLOAD DUP3 LT ISZERO PUSH2 0x1BD JUMPI PUSH2 0x1B4 PUSH1 0x7 SWAP2 PUSH1 0x0 MSTORE PUSH1 0x20 PUSH1 0x0 KECCAK256 SWAP1 JUMP JUMPDEST PUSH2 0x181 SWAP1 PUSH2 0x1CB JUMP JUMPDEST PUSH2 0x181 SWAP1 SLOAD PUSH2 0x372 JUMP JUMPDEST PUSH2 0x181 SWAP1 DUP2 JUMP JUMPDEST PUSH2 0x181 SWAP1 SLOAD PUSH2 0x385 JUMP JUMPDEST SWAP2 SWAP1 PUSH2 0x3A6 PUSH1 0x7 SWAP4 PUSH1 0x0 SWAP5 PUSH2 0x340 JUMP JUMPDEST DUP1 SLOAD DUP3 LT ISZERO PUSH2 0x411 JUMPI PUSH2 0x3BA SWAP3 SWAP4 POP PUSH2 0x358 JUMP JUMPDEST POP PUSH2 0x3C4 DUP2 PUSH2 0x37B JUMP JUMPDEST SWAP2 PUSH2 0x3D1 PUSH1 0x1 DUP4 ADD PUSH2 0x37B JUMP JUMPDEST SWAP2 PUSH2 0x3DE PUSH1 0x2 DUP3 ADD PUSH2 0x37B JUMP JUMPDEST SWAP2 PUSH2 0x3EB PUSH1 0x3 DUP4 ADD PUSH2 0x38C JUMP JUMPDEST SWAP2 PUSH2 0x3F8 PUSH1 0x4 DUP3 ADD PUSH2 0x38C JUMP JUMPDEST SWAP2 PUSH2 0x181 PUSH1 0x6 PUSH2 0x40A PUSH1 0x5 DUP6 ADD PUSH2 0x38C JUMP JUMPDEST SWAP4 ADD PUSH2 0x38C JUMP JUMPDEST DUP4 DUP1 REVERT JUMPDEST SWAP5 SWAP3 SWAP1 SWAP8 SWAP7 SWAP6 SWAP4 SWAP2 PUSH1 0xE0 DUP7 ADD SWAP9 PUSH1 0x0 DUP8 ADD PUSH2 0x42F SWAP2 PUSH2 0x20C JUMP JUMPDEST PUSH1 0x20 DUP7 ADD PUSH2 0x43C SWAP2 PUSH2 0x20C JUMP JUMPDEST PUSH1 0x40 DUP6 ADD PUSH2 0x449 SWAP2 PUSH2 0x20C JUMP JUMPDEST PUSH1 0x60 DUP5 ADD MSTORE PUSH1 0x80 DUP4 ADD MSTORE PUSH1 0xA0 DUP3 ADD MSTORE PUSH1 0xC0 ADD MSTORE JUMP JUMPDEST CALLVALUE PUSH2 0x159 JUMPI PUSH2 0x250 PUSH2 0x47A PUSH2 0x474 CALLDATASIZE PUSH1 0x4 PUSH2 0x2F7 JUMP JUMPDEST SWAP1 PUSH2 0x396 JUMP JUMPDEST SWAP4 PUSH2 0x48A SWAP8 SWAP6 SWAP8 SWAP4 SWAP2 SWAP4 PUSH1 0x40 MLOAD SWAP1 JUMP JUMPDEST SWAP8 DUP9 SWAP8 DUP9 PUSH2 0x415 JUMP JUMPDEST PUSH1 0x6 PUSH1 0x0 PUSH2 0x1EE DUP3 SLOAD SWAP1 JUMP JUMPDEST CALLVALUE PUSH2 0x159 JUMPI PUSH2 0x250 PUSH2 0x244 PUSH2 0x4B5 CALLDATASIZE PUSH1 0x4 PUSH2 0x16D JUMP JUMPDEST PUSH2 0x493 JUMP JUMPDEST PUSH4 0x4E487B71 PUSH1 0xE0 SHL PUSH1 0x0 MSTORE PUSH1 0x41 PUSH1 0x4 MSTORE PUSH1 0x24 PUSH1 0x0 REVERT JUMPDEST SWAP1 PUSH1 0x1F ADD PUSH1 0x1F NOT AND DUP2 ADD SWAP1 DUP2 LT PUSH8 0xFFFFFFFFFFFFFFFF DUP3 GT OR PUSH2 0x4F2 JUMPI PUSH1 0x40 MSTORE JUMP JUMPDEST PUSH2 0x4BA JUMP JUMPDEST SWAP1 PUSH2 0x16B PUSH2 0x504 PUSH1 0x40 MLOAD SWAP1 JUMP JUMPDEST SWAP3 DUP4 PUSH2 0x4D0 JUMP JUMPDEST PUSH8 0xFFFFFFFFFFFFFFFF DUP2 GT PUSH2 0x4F2 JUMPI PUSH1 0x20 SWAP1 PUSH1 0x1F ADD PUSH1 0x1F NOT AND ADD SWAP1 JUMP JUMPDEST ADD SWAP1 JUMP JUMPDEST SWAP1 DUP3 PUSH1 0x0 SWAP4 SWAP3 DUP3 CALLDATACOPY ADD MSTORE JUMP JUMPDEST SWAP1 SWAP3 SWAP2 SWAP3 PUSH2 0x54D PUSH2 0x548 DUP3 PUSH2 0x50B JUMP JUMPDEST PUSH2 0x4F7 JUMP JUMPDEST SWAP4 DUP2 DUP6 MSTORE PUSH1 0x20 DUP6 ADD SWAP1 DUP3 DUP5 ADD GT PUSH2 0x159 JUMPI PUSH2 0x16B SWAP3 PUSH2 0x52C JUMP JUMPDEST SWAP1 DUP1 PUSH1 0x1F DUP4 ADD SLT ISZERO PUSH2 0x159 JUMPI DUP2 PUSH1 0x20 PUSH2 0x181 SWAP4 CALLDATALOAD SWAP2 ADD PUSH2 0x538 JUMP JUMPDEST DUP1 ISZERO ISZERO PUSH2 0x152 JUMP JUMPDEST SWAP1 POP CALLDATALOAD SWAP1 PUSH2 0x16B DUP3 PUSH2 0x582 JUMP JUMPDEST SWAP2 SWAP1 SWAP2 PUSH1 0x60 DUP2 DUP5 SUB SLT PUSH2 0x159 JUMPI PUSH2 0x5DE PUSH2 0x5B1 PUSH1 0x60 PUSH2 0x4F7 JUMP JUMPDEST SWAP4 PUSH1 0x0 PUSH2 0x5BE DUP3 DUP6 PUSH2 0x58A JUMP JUMPDEST SWAP1 DUP7 ADD MSTORE PUSH1 0x20 PUSH2 0x5D0 DUP3 DUP3 DUP7 ADD PUSH2 0x58A JUMP JUMPDEST SWAP1 DUP7 ADD MSTORE PUSH1 0x40 DUP1 SWAP4 ADD PUSH2 0x58A JUMP JUMPDEST SWAP1 DUP4 ADD MSTORE JUMP JUMPDEST SWAP1 SWAP2 PUSH2 0x1C0 DUP3 DUP5 SUB SLT PUSH2 0x159 JUMPI DUP2 CALLDATALOAD PUSH8 0xFFFFFFFFFFFFFFFF DUP2 GT PUSH2 0x159 JUMPI DUP4 PUSH2 0x60E SWAP2 DUP5 ADD PUSH2 0x567 JUMP JUMPDEST SWAP3 PUSH1 0x20 DUP4 ADD CALLDATALOAD PUSH8 0xFFFFFFFFFFFFFFFF DUP2 GT PUSH2 0x159 JUMPI DUP2 PUSH2 0x62F SWAP2 DUP6 ADD PUSH2 0x567 JUMP JUMPDEST SWAP3 PUSH2 0x63D DUP3 PUSH1 0x40 DUP4 ADD PUSH2 0x15E JUMP JUMPDEST SWAP3 PUSH2 0x64B DUP4 PUSH1 0x60 DUP5 ADD PUSH2 0x2EA JUMP JUMPDEST SWAP3 PUSH2 0x659 DUP2 PUSH1 0x80 DUP6 ADD PUSH2 0x597 JUMP JUMPDEST SWAP3 PUSH2 0x667 DUP3 PUSH1 0xE0 DUP4 ADD PUSH2 0x15E JUMP JUMPDEST SWAP3 PUSH2 0x676 DUP4 PUSH2 0x100 DUP5 ADD PUSH2 0x15E JUMP JUMPDEST SWAP3 PUSH2 0x685 DUP2 PUSH2 0x120 DUP6 ADD PUSH2 0x15E JUMP JUMPDEST SWAP3 PUSH2 0x694 DUP3 PUSH2 0x140 DUP4 ADD PUSH2 0x2EA JUMP JUMPDEST SWAP3 PUSH2 0x181 PUSH2 0x6A6 DUP5 PUSH2 0x160 DUP6 ADD PUSH2 0x2EA JUMP JUMPDEST SWAP4 PUSH2 0x6B5 DUP2 PUSH2 0x180 DUP7 ADD PUSH2 0x15E JUMP JUMPDEST SWAP4 PUSH2 0x1A0 ADD PUSH2 0x15E JUMP JUMPDEST CALLVALUE PUSH2 0x159 JUMPI PUSH2 0x250 PUSH2 0x244 PUSH2 0x6D5 CALLDATASIZE PUSH1 0x4 PUSH2 0x5E4 JUMP JUMPDEST SWAP11 SWAP10 SWAP1 SWAP10 SWAP9 SWAP2 SWAP9 SWAP8 SWAP3 SWAP8 SWAP7 SWAP4 SWAP7 SWAP6 SWAP5 SWAP6 PUSH2 0x1558 JUMP JUMPDEST CALLVALUE PUSH2 0x159 JUMPI PUSH2 0x6FA CALLDATASIZE PUSH1 0x4 PUSH2 0x254 JUMP JUMPDEST PUSH2 0x277 PUSH2 0xEFD JUMP JUMPDEST CALLVALUE PUSH2 0x159 JUMPI PUSH2 0x712 CALLDATASIZE PUSH1 0x4 PUSH2 0x254 JUMP JUMPDEST PUSH2 0x250 PUSH2 0x244 PUSH2 0xEBB JUMP JUMPDEST SWAP1 SWAP2 PUSH1 0xC0 DUP3 DUP5 SUB SLT PUSH2 0x159 JUMPI PUSH2 0x733 DUP4 DUP4 PUSH2 0x2EA JUMP JUMPDEST SWAP3 PUSH2 0x741 DUP2 PUSH1 0x20 DUP6 ADD PUSH2 0x2EA JUMP JUMPDEST SWAP3 PUSH2 0x74F DUP3 PUSH1 0x40 DUP4 ADD PUSH2 0x15E JUMP JUMPDEST SWAP3 PUSH2 0x181 PUSH2 0x760 DUP5 PUSH1 0x60 DUP6 ADD PUSH2 0x15E JUMP JUMPDEST SWAP4 PUSH2 0x76E DUP2 PUSH1 0x80 DUP7 ADD PUSH2 0x15E JUMP JUMPDEST SWAP4 PUSH1 0xA0 ADD PUSH2 0x15E JUMP JUMPDEST CALLVALUE PUSH2 0x159 JUMPI PUSH2 0x250 PUSH2 0x244 PUSH2 0x78D CALLDATASIZE PUSH1 0x4 PUSH2 0x71D JUMP JUMPDEST SWAP5 SWAP4 SWAP1 SWAP4 SWAP3 SWAP2 SWAP3 PUSH2 0x1847 JUMP JUMPDEST SWAP1 PUSH1 0x20 DUP3 DUP3 SUB SLT PUSH2 0x159 JUMPI PUSH2 0x181 SWAP2 PUSH2 0x2EA JUMP JUMPDEST SWAP1 PUSH1 0xC0 DUP1 PUSH2 0x16B SWAP4 PUSH2 0x7C7 PUSH1 0x0 DUP3 ADD MLOAD PUSH1 0x0 DUP7 ADD SWAP1 PUSH2 0x20C JUMP JUMPDEST PUSH2 0x7D9 PUSH1 0x20 DUP3 ADD MLOAD PUSH1 0x20 DUP7 ADD SWAP1 PUSH2 0x20C JUMP JUMPDEST PUSH2 0x7EB PUSH1 0x40 DUP3 ADD MLOAD PUSH1 0x40 DUP7 ADD SWAP1 PUSH2 0x20C JUMP JUMPDEST PUSH2 0x7FA PUSH1 0x60 DUP3 ADD MLOAD PUSH1 0x60 DUP7 ADD MSTORE JUMP JUMPDEST PUSH2 0x809 PUSH1 0x80 DUP3 ADD MLOAD PUSH1 0x80 DUP7 ADD MSTORE JUMP JUMPDEST PUSH2 0x818 PUSH1 0xA0 DUP3 ADD MLOAD PUSH1 0xA0 DUP7 ADD MSTORE JUMP JUMPDEST ADD MLOAD SWAP2 ADD MSTORE JUMP JUMPDEST SWAP1 PUSH2 0x528 DUP2 PUSH1 0xE0 SWAP4 PUSH2 0x7AD JUMP JUMPDEST SWAP1 PUSH2 0x84C PUSH2 0x845 PUSH2 0x83B DUP5 MLOAD SWAP1 JUMP JUMPDEST DUP1 DUP5 MSTORE SWAP3 PUSH1 0x20 ADD SWAP1 JUMP JUMPDEST SWAP3 PUSH1 0x20 ADD SWAP1 JUMP JUMPDEST SWAP1 PUSH1 0x0 JUMPDEST DUP2 DUP2 LT PUSH2 0x85D JUMPI POP POP POP SWAP1 JUMP JUMPDEST SWAP1 SWAP2 SWAP3 PUSH2 0x877 PUSH2 0x870 PUSH1 0x1 SWAP3 DUP7 MLOAD PUSH2 0x81F JUMP JUMPDEST SWAP5 PUSH1 0x20 ADD SWAP1 JUMP JUMPDEST SWAP3 SWAP2 ADD PUSH2 0x850 JUMP JUMPDEST PUSH1 0x20 DUP1 DUP3 MSTORE PUSH2 0x181 SWAP3 SWAP2 ADD SWAP1 PUSH2 0x82C JUMP JUMPDEST CALLVALUE PUSH2 0x159 JUMPI PUSH2 0x250 PUSH2 0x8AB PUSH2 0x8A6 CALLDATASIZE PUSH1 0x4 PUSH2 0x799 JUMP JUMPDEST PUSH2 0x2527 JUMP JUMPDEST PUSH1 0x40 MLOAD SWAP2 DUP3 SWAP2 DUP3 PUSH2 0x87F JUMP JUMPDEST PUSH2 0x181 PUSH20 0x7A250D5630B4CF539739DF2C5DACB4C659F2488D PUSH2 0x337 JUMP JUMPDEST PUSH2 0x181 PUSH2 0x8B7 JUMP JUMPDEST PUSH2 0x215 SWAP1 PUSH2 0x337 JUMP JUMPDEST PUSH1 0x20 DUP2 ADD SWAP3 SWAP2 PUSH2 0x16B SWAP2 SWAP1 PUSH2 0x8DC JUMP JUMPDEST CALLVALUE PUSH2 0x159 JUMPI PUSH2 0x905 CALLDATASIZE PUSH1 0x4 PUSH2 0x254 JUMP JUMPDEST PUSH2 0x250 PUSH2 0x910 PUSH2 0x8D4 JUMP JUMPDEST PUSH1 0x40 MLOAD SWAP2 DUP3 SWAP2 DUP3 PUSH2 0x8E5 JUMP JUMPDEST DUP1 SLOAD DUP3 LT ISZERO PUSH2 0x1BD JUMPI PUSH2 0x1B4 PUSH1 0xC SWAP2 PUSH1 0x0 MSTORE PUSH1 0x20 PUSH1 0x0 KECCAK256 SWAP1 JUMP JUMPDEST PUSH4 0x4E487B71 PUSH1 0xE0 SHL PUSH1 0x0 MSTORE PUSH1 0x22 PUSH1 0x4 MSTORE PUSH1 0x24 PUSH1 0x0 REVERT JUMPDEST SWAP1 PUSH1 0x1 PUSH1 0x2 DUP4 DIV SWAP3 AND DUP1 ISZERO PUSH2 0x96C JUMPI JUMPDEST PUSH1 0x20 DUP4 LT EQ PUSH2 0x967 JUMPI JUMP JUMPDEST PUSH2 0x936 JUMP JUMPDEST SWAP2 PUSH1 0x7F AND SWAP2 PUSH2 0x95C JUMP JUMPDEST DUP1 SLOAD PUSH1 0x0 SWAP4 SWAP3 SWAP2 PUSH2 0x993 PUSH2 0x989 DUP4 PUSH2 0x94C JUMP JUMPDEST DUP1 DUP6 MSTORE SWAP4 PUSH1 0x20 ADD SWAP1 JUMP JUMPDEST SWAP2 PUSH1 0x1 DUP2 AND SWAP1 DUP2 ISZERO PUSH2 0x9E5 JUMPI POP PUSH1 0x1 EQ PUSH2 0x9AC JUMPI POP POP POP JUMP JUMPDEST PUSH2 0x9BF SWAP2 SWAP3 SWAP4 SWAP5 POP PUSH1 0x0 MSTORE PUSH1 0x20 PUSH1 0x0 KECCAK256 SWAP1 JUMP JUMPDEST SWAP2 PUSH1 0x0 SWAP3 JUMPDEST DUP2 DUP5 LT PUSH2 0x9D1 JUMPI POP POP ADD SWAP1 JUMP JUMPDEST DUP1 SLOAD DUP5 DUP5 ADD MSTORE PUSH1 0x20 SWAP1 SWAP4 ADD SWAP3 PUSH1 0x1 ADD PUSH2 0x9C4 JUMP JUMPDEST SWAP3 SWAP5 SWAP6 POP POP POP PUSH1 0xFF NOT AND DUP3 MSTORE ISZERO ISZERO PUSH1 0x20 MUL ADD SWAP1 JUMP JUMPDEST SWAP1 PUSH2 0x181 SWAP2 PUSH2 0x976 JUMP JUMPDEST SWAP1 PUSH2 0x16B PUSH2 0xA1E SWAP3 PUSH2 0xA15 PUSH1 0x40 MLOAD SWAP1 JUMP JUMPDEST SWAP4 DUP5 DUP1 SWAP3 PUSH2 0x9FA JUMP JUMPDEST SUB DUP4 PUSH2 0x4D0 JUMP JUMPDEST PUSH2 0x181 SWAP1 JUMPDEST PUSH1 0xFF AND SWAP1 JUMP JUMPDEST PUSH2 0x181 SWAP1 SLOAD PUSH2 0xA25 JUMP JUMPDEST PUSH2 0x181 SWAP1 PUSH1 0x8 SHR PUSH2 0xA2A JUMP JUMPDEST PUSH2 0x181 SWAP1 SLOAD PUSH2 0xA3A JUMP JUMPDEST SWAP2 SWAP1 PUSH2 0xA60 PUSH1 0x9 SWAP4 PUSH1 0x0 SWAP5 PUSH2 0x340 JUMP JUMPDEST DUP1 SLOAD DUP3 LT ISZERO PUSH2 0x411 JUMPI PUSH2 0xA74 SWAP3 SWAP4 POP PUSH2 0x91C JUMP JUMPDEST POP PUSH2 0xA7E DUP2 PUSH2 0x37B JUMP JUMPDEST SWAP2 PUSH2 0xA8B PUSH1 0x1 DUP4 ADD PUSH2 0xA04 JUMP JUMPDEST SWAP2 PUSH2 0xA98 PUSH1 0x2 DUP3 ADD PUSH2 0xA04 JUMP JUMPDEST SWAP2 PUSH2 0xAA5 PUSH1 0x3 DUP4 ADD PUSH2 0x38C JUMP JUMPDEST SWAP2 PUSH2 0xAB2 PUSH1 0x4 DUP3 ADD PUSH2 0xA30 JUMP JUMPDEST SWAP2 PUSH2 0xABF PUSH1 0x4 DUP4 ADD PUSH2 0xA46 JUMP JUMPDEST SWAP2 PUSH2 0xACC PUSH1 0x5 DUP3 ADD PUSH2 0x38C JUMP JUMPDEST SWAP2 PUSH2 0xAD9 PUSH1 0x6 DUP4 ADD PUSH2 0x38C JUMP JUMPDEST SWAP2 PUSH2 0xAE6 PUSH1 0x7 DUP3 ADD PUSH2 0x38C JUMP JUMPDEST SWAP2 PUSH2 0xAF3 PUSH1 0x8 DUP4 ADD PUSH2 0x37B JUMP JUMPDEST SWAP2 PUSH2 0xB00 PUSH1 0x9 DUP3 ADD PUSH2 0x37B JUMP JUMPDEST SWAP2 PUSH2 0x181 PUSH1 0xB PUSH2 0x40A PUSH1 0xA DUP6 ADD PUSH2 0x38C JUMP JUMPDEST PUSH1 0x0 JUMPDEST DUP4 DUP2 LT PUSH2 0xB25 JUMPI POP POP PUSH1 0x0 SWAP2 ADD MSTORE JUMP JUMPDEST DUP2 DUP2 ADD MLOAD DUP4 DUP3 ADD MSTORE PUSH1 0x20 ADD PUSH2 0xB15 JUMP JUMPDEST PUSH2 0xB56 PUSH2 0xB5F PUSH1 0x20 SWAP4 PUSH2 0x528 SWAP4 PUSH2 0xB4A DUP2 MLOAD SWAP1 JUMP JUMPDEST DUP1 DUP4 MSTORE SWAP4 DUP5 SWAP3 PUSH1 0x20 ADD SWAP1 JUMP JUMPDEST SWAP6 DUP7 SWAP2 ADD PUSH2 0xB12 JUMP JUMPDEST PUSH1 0x1F ADD PUSH1 0x1F NOT AND SWAP1 JUMP JUMPDEST SWAP11 SWAP9 SWAP7 SWAP5 SWAP3 SWAP2 SWAP1 SWAP14 SWAP13 SWAP12 SWAP10 SWAP8 SWAP6 SWAP4 SWAP14 PUSH2 0x1A0 DUP13 ADD SWAP1 PUSH1 0x0 DUP14 ADD PUSH2 0xB8B SWAP2 PUSH2 0x20C JUMP JUMPDEST DUP12 DUP2 SUB PUSH1 0x20 DUP14 ADD MSTORE PUSH2 0xB9C SWAP2 PUSH2 0xB35 JUMP JUMPDEST DUP11 DUP2 SUB PUSH1 0x40 DUP13 ADD MSTORE PUSH2 0xBAD SWAP2 PUSH2 0xB35 JUMP JUMPDEST SWAP12 PUSH1 0x60 DUP11 ADD PUSH2 0xBBA SWAP2 SWAP1 MSTORE JUMP JUMPDEST ISZERO ISZERO PUSH1 0x80 DUP10 ADD MSTORE ISZERO ISZERO PUSH1 0xA0 DUP9 ADD MSTORE PUSH1 0xC0 DUP8 ADD MSTORE PUSH1 0xE0 DUP7 ADD MSTORE PUSH2 0x100 DUP6 ADD MSTORE PUSH2 0x120 DUP5 ADD PUSH2 0xBE6 SWAP2 PUSH2 0x20C JUMP JUMPDEST PUSH2 0x140 DUP4 ADD PUSH2 0xBF4 SWAP2 PUSH2 0x20C JUMP JUMPDEST PUSH2 0x160 DUP3 ADD MSTORE PUSH2 0x180 ADD MSTORE JUMP JUMPDEST CALLVALUE PUSH2 0x159 JUMPI PUSH2 0x250 PUSH2 0xC1D PUSH2 0xC17 CALLDATASIZE PUSH1 0x4 PUSH2 0x2F7 JUMP JUMPDEST SWAP1 PUSH2 0xA50 JUMP JUMPDEST SWAP10 PUSH2 0xC36 SWAP14 SWAP12 SWAP14 SWAP10 SWAP2 SWAP10 SWAP9 SWAP3 SWAP9 SWAP8 SWAP4 SWAP8 SWAP7 SWAP5 SWAP7 PUSH1 0x40 MLOAD SWAP1 JUMP JUMPDEST SWAP14 DUP15 SWAP14 DUP15 PUSH2 0xB69 JUMP JUMPDEST SWAP1 SWAP2 PUSH1 0x60 DUP3 DUP5 SUB SLT PUSH2 0x159 JUMPI PUSH2 0x181 PUSH2 0xC58 DUP5 DUP5 PUSH2 0x2EA JUMP JUMPDEST SWAP4 PUSH2 0xC66 DUP2 PUSH1 0x20 DUP7 ADD PUSH2 0x2EA JUMP JUMPDEST SWAP4 PUSH1 0x40 ADD PUSH2 0x15E JUMP JUMPDEST CALLVALUE PUSH2 0x159 JUMPI PUSH2 0x277 PUSH2 0xC82 CALLDATASIZE PUSH1 0x4 PUSH2 0xC3F JUMP JUMPDEST SWAP2 PUSH2 0x1F8E JUMP JUMPDEST PUSH1 0x4 GT ISZERO PUSH2 0x159 JUMPI JUMP JUMPDEST SWAP1 POP CALLDATALOAD SWAP1 PUSH2 0x16B DUP3 PUSH2 0xC88 JUMP JUMPDEST SWAP1 PUSH1 0x20 DUP3 DUP3 SUB SLT PUSH2 0x159 JUMPI PUSH2 0x181 SWAP2 PUSH2 0xC92 JUMP JUMPDEST CALLVALUE PUSH2 0x159 JUMPI PUSH2 0x250 PUSH2 0x2B9 PUSH2 0xCC9 CALLDATASIZE PUSH1 0x4 PUSH2 0xC9F JUMP JUMPDEST PUSH2 0x1A08 JUMP JUMPDEST CALLVALUE PUSH2 0x159 JUMPI PUSH2 0x250 PUSH2 0x244 PUSH2 0xCE4 CALLDATASIZE PUSH1 0x4 PUSH2 0xC9F JUMP JUMPDEST PUSH2 0x19E9 JUMP JUMPDEST SWAP1 PUSH2 0x181 SWAP1 PUSH2 0x180 DUP1 PUSH2 0xD33 PUSH2 0xD21 PUSH2 0x1A0 DUP6 ADD PUSH2 0xD0F PUSH1 0x0 DUP10 ADD MLOAD PUSH1 0x0 DUP9 ADD SWAP1 PUSH2 0x20C JUMP JUMPDEST PUSH1 0x20 DUP9 ADD MLOAD DUP7 DUP3 SUB PUSH1 0x20 DUP9 ADD MSTORE PUSH2 0xB35 JUMP JUMPDEST PUSH1 0x40 DUP8 ADD MLOAD DUP6 DUP3 SUB PUSH1 0x40 DUP8 ADD MSTORE PUSH2 0xB35 JUMP JUMPDEST SWAP5 PUSH2 0xD43 PUSH1 0x60 DUP3 ADD MLOAD PUSH1 0x60 DUP7 ADD MSTORE JUMP JUMPDEST PUSH1 0x80 DUP2 DUP2 ADD MLOAD ISZERO ISZERO SWAP1 DUP6 ADD MSTORE PUSH1 0xA0 DUP2 DUP2 ADD MLOAD ISZERO ISZERO SWAP1 DUP6 ADD MSTORE PUSH2 0xD6A PUSH1 0xC0 DUP3 ADD MLOAD PUSH1 0xC0 DUP7 ADD MSTORE JUMP JUMPDEST PUSH2 0xD79 PUSH1 0xE0 DUP3 ADD MLOAD PUSH1 0xE0 DUP7 ADD MSTORE JUMP JUMPDEST PUSH2 0xD8A PUSH2 0x100 DUP3 ADD MLOAD PUSH2 0x100 DUP7 ADD MSTORE JUMP JUMPDEST PUSH2 0xD9E PUSH2 0x120 DUP3 ADD MLOAD PUSH2 0x120 DUP7 ADD SWAP1 PUSH2 0x20C JUMP JUMPDEST PUSH2 0xDB2 PUSH2 0x140 DUP3 ADD MLOAD PUSH2 0x140 DUP7 ADD SWAP1 PUSH2 0x20C JUMP JUMPDEST PUSH2 0x818 PUSH2 0x160 DUP3 ADD MLOAD PUSH2 0x160 DUP7 ADD MSTORE JUMP JUMPDEST SWAP1 PUSH2 0x181 SWAP2 PUSH2 0xCE9 JUMP JUMPDEST SWAP1 PUSH2 0xDE3 PUSH2 0xDD9 DUP4 MLOAD SWAP1 JUMP JUMPDEST DUP1 DUP4 MSTORE SWAP2 PUSH1 0x20 ADD SWAP1 JUMP JUMPDEST SWAP1 DUP2 PUSH2 0xDF5 PUSH1 0x20 DUP4 MUL DUP5 ADD SWAP5 PUSH1 0x20 ADD SWAP1 JUMP JUMPDEST SWAP3 PUSH1 0x0 SWAP2 JUMPDEST DUP4 DUP4 LT PUSH2 0xE09 JUMPI POP POP POP POP POP SWAP1 JUMP JUMPDEST SWAP1 SWAP2 SWAP3 SWAP4 SWAP5 PUSH1 0x20 PUSH2 0xE2C PUSH2 0xE25 DUP4 DUP6 PUSH1 0x1 SWAP6 SUB DUP8 MSTORE DUP10 MLOAD PUSH2 0xDC3 JUMP JUMPDEST SWAP8 PUSH1 0x20 ADD SWAP1 JUMP JUMPDEST SWAP4 ADD SWAP4 ADD SWAP2 SWAP4 SWAP3 SWAP1 PUSH2 0xDFA JUMP JUMPDEST PUSH1 0x20 DUP1 DUP3 MSTORE PUSH2 0x181 SWAP3 SWAP2 ADD SWAP1 PUSH2 0xDCD JUMP JUMPDEST CALLVALUE PUSH2 0x159 JUMPI PUSH2 0x250 PUSH2 0xE65 PUSH2 0xE60 CALLDATASIZE PUSH1 0x4 PUSH2 0x799 JUMP JUMPDEST PUSH2 0x2414 JUMP JUMPDEST PUSH1 0x40 MLOAD SWAP2 DUP3 SWAP2 DUP3 PUSH2 0xE39 JUMP JUMPDEST CALLVALUE PUSH2 0x159 JUMPI PUSH2 0x277 PUSH2 0xE84 CALLDATASIZE PUSH1 0x4 PUSH2 0x799 JUMP JUMPDEST PUSH2 0x1011 JUMP JUMPDEST SWAP1 SWAP2 PUSH1 0x60 DUP3 DUP5 SUB SLT PUSH2 0x159 JUMPI PUSH2 0x181 PUSH2 0xC58 DUP5 DUP5 PUSH2 0xC92 JUMP JUMPDEST CALLVALUE PUSH2 0x159 JUMPI PUSH2 0x277 PUSH2 0xEB5 CALLDATASIZE PUSH1 0x4 PUSH2 0xE89 JUMP JUMPDEST SWAP2 PUSH2 0x1B47 JUMP JUMPDEST PUSH2 0x181 PUSH1 0x0 PUSH2 0x37B JUMP JUMPDEST PUSH2 0xECD PUSH2 0xF59 JUMP JUMPDEST PUSH2 0x16B PUSH2 0xEEB JUMP JUMPDEST PUSH2 0x1CB PUSH2 0x181 PUSH2 0x181 SWAP3 SWAP1 JUMP JUMPDEST PUSH2 0x181 SWAP1 PUSH2 0xED5 JUMP JUMPDEST PUSH2 0x16B PUSH2 0xEF8 PUSH1 0x0 PUSH2 0xEE2 JUMP JUMPDEST PUSH2 0x104A JUMP JUMPDEST PUSH2 0x16B PUSH2 0xEC5 JUMP JUMPDEST ISZERO PUSH2 0xF0C JUMPI JUMP JUMPDEST PUSH1 0x40 MLOAD PUSH3 0x461BCD PUSH1 0xE5 SHL DUP2 MSTORE DUP1 PUSH2 0xF55 PUSH1 0x4 DUP3 ADD PUSH1 0x20 DUP1 DUP3 MSTORE DUP2 DUP2 ADD MSTORE PUSH32 0x4F776E61626C653A2063616C6C6572206973206E6F7420746865206F776E6572 PUSH1 0x40 DUP3 ADD MSTORE PUSH1 0x60 ADD SWAP1 JUMP JUMPDEST SUB SWAP1 REVERT JUMPDEST PUSH2 0x16B PUSH2 0xF64 PUSH2 0xEBB JUMP JUMPDEST PUSH2 0xF7B PUSH2 0xF75 CALLER PUSH2 0x1CB JUMP JUMPDEST PUSH2 0x1CB JUMP JUMPDEST SWAP2 PUSH2 0x1CB JUMP JUMPDEST EQ PUSH2 0xF05 JUMP JUMPDEST PUSH2 0x16B SWAP1 PUSH2 0xF8D PUSH2 0xF59 JUMP JUMPDEST PUSH2 0xFED JUMP JUMPDEST ISZERO PUSH2 0xF99 JUMPI JUMP JUMPDEST PUSH1 0x40 MLOAD PUSH3 0x461BCD PUSH1 0xE5 SHL DUP2 MSTORE PUSH1 0x20 PUSH1 0x4 DUP3 ADD MSTORE PUSH1 0x26 PUSH1 0x24 DUP3 ADD MSTORE PUSH32 0x4F776E61626C653A206E6577206F776E657220697320746865207A65726F2061 PUSH1 0x44 DUP3 ADD MSTORE PUSH6 0x646472657373 PUSH1 0xD0 SHL PUSH1 0x64 DUP3 ADD MSTORE PUSH1 0x84 SWAP1 REVERT JUMPDEST PUSH2 0x16B SWAP1 PUSH2 0xEF8 PUSH2 0x1001 PUSH2 0xF70 PUSH1 0x0 PUSH2 0xEE2 JUMP JUMPDEST PUSH2 0x100A DUP4 PUSH2 0x1CB JUMP JUMPDEST EQ ISZERO PUSH2 0xF92 JUMP JUMPDEST PUSH2 0x16B SWAP1 PUSH2 0xF81 JUMP JUMPDEST SWAP1 PUSH1 0x1 PUSH1 0x1 PUSH1 0xA0 SHL SUB SWAP1 JUMPDEST SWAP2 DUP2 NOT AND SWAP2 AND OR SWAP1 JUMP JUMPDEST SWAP1 PUSH2 0x103F PUSH2 0x181 PUSH2 0x1046 SWAP3 PUSH2 0x337 JUMP JUMPDEST DUP3 SLOAD PUSH2 0x101A JUMP JUMPDEST SWAP1 SSTORE JUMP JUMPDEST PUSH2 0x1054 PUSH1 0x0 PUSH2 0x37B JUMP JUMPDEST SWAP1 PUSH2 0x1060 DUP2 PUSH1 0x0 PUSH2 0x102F JUMP JUMPDEST PUSH2 0x1093 PUSH2 0x108D PUSH32 0x8BE0079C531659141344CD1FD0A4F28419497F9722A3DAAFE3B4186F6B6457E0 SWAP4 PUSH2 0x337 JUMP JUMPDEST SWAP2 PUSH2 0x337 JUMP JUMPDEST SWAP2 PUSH2 0x109D PUSH1 0x40 MLOAD SWAP1 JUMP JUMPDEST PUSH1 0x0 SWAP1 LOG3 JUMP JUMPDEST PUSH2 0x152 DUP2 PUSH2 0x372 JUMP JUMPDEST SWAP1 POP MLOAD SWAP1 PUSH2 0x16B DUP3 PUSH2 0x10A3 JUMP JUMPDEST SWAP1 PUSH1 0x20 DUP3 DUP3 SUB SLT PUSH2 0x159 JUMPI PUSH2 0x181 SWAP2 PUSH2 0x10AC JUMP JUMPDEST SWAP11 SWAP9 SWAP7 SWAP5 SWAP3 SWAP14 SWAP13 SWAP12 SWAP10 SWAP8 SWAP6 SWAP4 SWAP2 SWAP1 PUSH2 0x1E0 DUP13 ADD DUP13 DUP1 DUP3 SUB SWAP1 PUSH1 0x0 ADD MSTORE PUSH2 0x10F2 SWAP2 PUSH2 0xB35 JUMP JUMPDEST DUP12 DUP2 SUB PUSH1 0x20 DUP14 ADD MSTORE PUSH2 0x1103 SWAP2 PUSH2 0xB35 JUMP JUMPDEST SWAP13 PUSH1 0x40 DUP12 ADD PUSH2 0x1110 SWAP2 SWAP1 MSTORE JUMP JUMPDEST PUSH1 0x60 DUP11 ADD PUSH2 0x111D SWAP2 PUSH2 0x20C JUMP JUMPDEST DUP1 MLOAD ISZERO ISZERO PUSH1 0x80 DUP11 ADD MSTORE PUSH1 0x20 DUP2 ADD MLOAD ISZERO ISZERO PUSH1 0xA0 DUP11 ADD MSTORE PUSH1 0x40 ADD MLOAD ISZERO ISZERO PUSH1 0xC0 DUP10 ADD MSTORE PUSH1 0xE0 DUP9 ADD MSTORE PUSH2 0x100 DUP8 ADD MSTORE PUSH2 0x120 DUP7 ADD MSTORE PUSH2 0x140 DUP6 ADD PUSH2 0x115C SWAP2 PUSH2 0x20C JUMP JUMPDEST PUSH2 0x160 DUP5 ADD PUSH2 0x116A SWAP2 PUSH2 0x20C JUMP JUMPDEST PUSH2 0x180 DUP4 ADD MSTORE PUSH2 0x1A0 DUP3 ADD MSTORE PUSH2 0x1C0 ADD PUSH2 0x16B SWAP2 PUSH2 0x20C JUMP JUMPDEST PUSH1 0x40 MLOAD RETURNDATASIZE PUSH1 0x0 DUP3 RETURNDATACOPY RETURNDATASIZE SWAP1 REVERT JUMPDEST SWAP2 PUSH1 0x1 PUSH1 0x1 PUSH1 0xA0 SHL SUB PUSH1 0x8 SWAP3 SWAP1 SWAP3 MUL SWAP2 DUP3 SHL SWAP2 SHL PUSH2 0x1025 JUMP JUMPDEST SWAP2 SWAP1 PUSH2 0x11B9 PUSH2 0x181 PUSH2 0x1046 SWAP4 PUSH2 0x337 JUMP JUMPDEST SWAP1 DUP4 SLOAD PUSH2 0x118F JUMP JUMPDEST SWAP1 DUP2 SLOAD SWAP2 PUSH1 0x1 PUSH1 0x40 SHL DUP4 LT ISZERO PUSH2 0x4F2 JUMPI DUP3 PUSH2 0x11E4 SWAP2 PUSH1 0x1 PUSH2 0x16B SWAP6 ADD DUP2 SSTORE PUSH2 0x19A JUMP JUMPDEST SWAP1 PUSH2 0x11A8 JUMP JUMPDEST PUSH2 0x181 PUSH2 0x1A0 PUSH2 0x4F7 JUMP JUMPDEST SWAP1 PUSH2 0x215 SWAP1 PUSH2 0x1CB JUMP JUMPDEST PUSH4 0x4E487B71 PUSH1 0xE0 SHL PUSH1 0x0 MSTORE PUSH1 0x0 PUSH1 0x4 MSTORE PUSH1 0x24 PUSH1 0x0 REVERT JUMPDEST PUSH2 0x181 SWAP1 MLOAD PUSH2 0x1CB JUMP JUMPDEST SWAP2 PUSH1 0x0 NOT PUSH1 0x8 SWAP3 SWAP1 SWAP3 MUL SWAP2 DUP3 SHL SWAP2 SHL PUSH2 0x1025 JUMP JUMPDEST PUSH2 0x181 PUSH2 0x181 PUSH2 0x181 SWAP3 SWAP1 JUMP JUMPDEST SWAP2 SWAP1 PUSH2 0x1251 PUSH2 0x181 PUSH2 0x1046 SWAP4 PUSH2 0x1233 JUMP JUMPDEST SWAP1 DUP4 SLOAD PUSH2 0x121F JUMP JUMPDEST PUSH2 0x16B SWAP2 PUSH1 0x0 SWAP2 PUSH2 0x1240 JUMP JUMPDEST DUP2 DUP2 LT PUSH2 0x1270 JUMPI POP POP JUMP JUMPDEST DUP1 PUSH2 0x127E PUSH1 0x0 PUSH1 0x1 SWAP4 PUSH2 0x1259 JUMP JUMPDEST ADD PUSH2 0x1265 JUMP JUMPDEST SWAP2 SWAP1 PUSH1 0x1F DUP2 GT PUSH2 0x1293 JUMPI POP POP POP JUMP JUMPDEST PUSH2 0x12A5 PUSH2 0x16B SWAP4 PUSH1 0x0 MSTORE PUSH1 0x20 PUSH1 0x0 KECCAK256 SWAP1 JUMP JUMPDEST SWAP1 PUSH1 0x20 PUSH1 0x1F DUP5 ADD DUP2 SWAP1 DIV DUP4 ADD SWAP4 LT PUSH2 0x12C7 JUMPI JUMPDEST PUSH1 0x20 PUSH1 0x1F SWAP1 SWAP2 ADD DIV ADD SWAP1 PUSH2 0x1265 JUMP JUMPDEST SWAP1 SWAP2 POP DUP2 SWAP1 PUSH2 0x12B8 JUMP JUMPDEST SWAP1 PUSH2 0x12DA DUP2 MLOAD SWAP1 JUMP JUMPDEST SWAP1 PUSH8 0xFFFFFFFFFFFFFFFF DUP3 GT PUSH2 0x4F2 JUMPI PUSH2 0x12FE DUP3 PUSH2 0x12F8 DUP6 SLOAD PUSH2 0x94C JUMP JUMPDEST DUP6 PUSH2 0x1284 JUMP JUMPDEST PUSH1 0x20 SWAP1 PUSH1 0x1F DUP4 GT PUSH1 0x1 EQ PUSH2 0x1339 JUMPI PUSH2 0x1046 SWAP3 SWAP2 PUSH1 0x0 SWAP2 DUP4 PUSH2 0x132E JUMPI JUMPDEST POP POP PUSH1 0x0 NOT PUSH1 0x8 DUP4 MUL SHR NOT AND SWAP1 PUSH1 0x2 MUL OR SWAP1 JUMP JUMPDEST ADD MLOAD SWAP1 POP CODESIZE DUP1 PUSH2 0x131A JUMP JUMPDEST PUSH1 0x1F NOT DUP4 AND SWAP2 PUSH2 0x134E DUP6 PUSH1 0x0 MSTORE PUSH1 0x20 PUSH1 0x0 KECCAK256 SWAP1 JUMP JUMPDEST SWAP3 PUSH1 0x0 JUMPDEST DUP2 DUP2 LT PUSH2 0x138C JUMPI POP SWAP2 PUSH1 0x2 SWAP4 SWAP2 DUP6 PUSH1 0x1 SWAP7 SWAP5 LT PUSH2 0x1373 JUMPI JUMPDEST POP POP POP MUL ADD SWAP1 SSTORE JUMP JUMPDEST ADD MLOAD PUSH1 0x0 NOT PUSH1 0x8 PUSH1 0x1F DUP6 AND MUL SHR NOT AND SWAP1 SSTORE CODESIZE DUP1 DUP1 PUSH2 0x136A JUMP JUMPDEST SWAP2 SWAP4 PUSH1 0x20 PUSH1 0x1 DUP2 SWAP3 DUP8 DUP8 ADD MLOAD DUP2 SSTORE ADD SWAP6 ADD SWAP3 ADD PUSH2 0x1352 JUMP JUMPDEST SWAP1 PUSH2 0x16B SWAP2 PUSH2 0x12D1 JUMP JUMPDEST SWAP1 PUSH1 0x0 NOT SWAP1 PUSH2 0x1025 JUMP JUMPDEST SWAP1 PUSH2 0x13C8 PUSH2 0x181 PUSH2 0x1046 SWAP3 PUSH2 0x1233 JUMP JUMPDEST DUP3 SLOAD PUSH2 0x13AE JUMP JUMPDEST SWAP1 PUSH1 0xFF SWAP1 PUSH2 0x1025 JUMP JUMPDEST SWAP1 PUSH2 0x13E8 PUSH2 0x181 PUSH2 0x1046 SWAP3 ISZERO ISZERO SWAP1 JUMP JUMPDEST DUP3 SLOAD PUSH2 0x13CF JUMP JUMPDEST SWAP1 PUSH2 0xFF00 SWAP1 PUSH1 0x8 SHL PUSH2 0x1025 JUMP JUMPDEST SWAP1 PUSH2 0x140C PUSH2 0x181 PUSH2 0x1046 SWAP3 ISZERO ISZERO SWAP1 JUMP JUMPDEST DUP3 SLOAD PUSH2 0x13EF JUMP JUMPDEST PUSH2 0x16B SWAP2 SWAP1 PUSH2 0x1472 SWAP1 PUSH2 0x180 SWAP1 PUSH1 0xB SWAP1 PUSH2 0x1436 DUP2 PUSH2 0x1430 DUP8 PUSH2 0x1215 JUMP JUMPDEST SWAP1 PUSH2 0x102F JUMP JUMPDEST PUSH2 0x144E PUSH1 0x1 DUP3 ADD PUSH2 0x1448 PUSH1 0x20 DUP9 ADD MLOAD SWAP1 JUMP JUMPDEST SWAP1 PUSH2 0x13A4 JUMP JUMPDEST PUSH2 0x1460 PUSH1 0x2 DUP3 ADD PUSH2 0x1448 PUSH1 0x40 DUP9 ADD MLOAD SWAP1 JUMP JUMPDEST PUSH2 0x1478 PUSH1 0x3 DUP3 ADD PUSH2 0x1472 PUSH1 0x60 DUP9 ADD MLOAD SWAP1 JUMP JUMPDEST SWAP1 PUSH2 0x13B8 JUMP JUMPDEST PUSH2 0x14A2 PUSH1 0x4 DUP3 ADD PUSH2 0x1495 PUSH2 0x148F PUSH1 0x80 DUP10 ADD MLOAD ISZERO ISZERO SWAP1 JUMP JUMPDEST DUP3 PUSH2 0x13D8 JUMP JUMPDEST PUSH1 0xA0 DUP8 ADD MLOAD ISZERO ISZERO SWAP1 PUSH2 0x13FC JUMP JUMPDEST PUSH2 0x14B4 PUSH1 0x5 DUP3 ADD PUSH2 0x1472 PUSH1 0xC0 DUP9 ADD MLOAD SWAP1 JUMP JUMPDEST PUSH2 0x14C6 PUSH1 0x6 DUP3 ADD PUSH2 0x1472 PUSH1 0xE0 DUP9 ADD MLOAD SWAP1 JUMP JUMPDEST PUSH2 0x14D9 PUSH1 0x7 DUP3 ADD PUSH2 0x1472 PUSH2 0x100 DUP9 ADD MLOAD SWAP1 JUMP JUMPDEST PUSH2 0x14ED PUSH1 0x8 DUP3 ADD PUSH2 0x1430 PUSH2 0x120 DUP9 ADD PUSH2 0x1215 JUMP JUMPDEST PUSH2 0x1501 PUSH1 0x9 DUP3 ADD PUSH2 0x1430 PUSH2 0x140 DUP9 ADD PUSH2 0x1215 JUMP JUMPDEST PUSH2 0x1514 PUSH1 0xA DUP3 ADD PUSH2 0x1472 PUSH2 0x160 DUP9 ADD MLOAD SWAP1 JUMP JUMPDEST ADD SWAP3 ADD MLOAD SWAP1 JUMP JUMPDEST SWAP2 SWAP1 PUSH2 0x152A JUMPI PUSH2 0x16B SWAP2 PUSH2 0x1413 JUMP JUMPDEST PUSH2 0x11FF JUMP JUMPDEST SWAP1 DUP2 SLOAD SWAP2 PUSH1 0x1 PUSH1 0x40 SHL DUP4 LT ISZERO PUSH2 0x4F2 JUMPI DUP3 PUSH2 0x1552 SWAP2 PUSH1 0x1 PUSH2 0x16B SWAP6 ADD DUP2 SSTORE PUSH2 0x91C JUMP JUMPDEST SWAP1 PUSH2 0x151B JUMP JUMPDEST SWAP1 SWAP10 SWAP7 SWAP4 DUP3 DUP8 DUP13 DUP9 DUP13 SWAP10 SWAP7 SWAP16 SWAP13 DUP9 SWAP15 SWAP12 SWAP9 DUP15 DUP15 DUP15 DUP11 SWAP5 DUP15 PUSH2 0x1577 PUSH1 0x0 SWAP1 JUMP JUMPDEST POP PUSH2 0x1582 PUSH1 0x4 PUSH2 0x37B JUMP JUMPDEST PUSH2 0x158B SWAP1 PUSH2 0x337 JUMP JUMPDEST SWAP10 PUSH4 0xD5E71353 SWAP9 DUP14 PUSH2 0x159C ADDRESS PUSH2 0x337 JUMP JUMPDEST SWAP9 PUSH2 0x15A6 PUSH1 0x40 MLOAD SWAP1 JUMP JUMPDEST SWAP15 DUP16 SWAP14 DUP15 PUSH2 0x15B5 DUP2 SWAP16 PUSH1 0xE0 SHL SWAP1 JUMP JUMPDEST DUP2 MSTORE PUSH1 0x4 ADD SWAP13 PUSH2 0x15C4 SWAP14 PUSH2 0x10CD JUMP JUMPDEST SUB DUP2 GAS PUSH1 0x20 SWAP5 PUSH1 0x0 SWAP2 CALL DUP1 ISZERO PUSH2 0x16F6 JUMPI PUSH2 0x15E6 SWAP2 PUSH1 0x0 SWAP2 PUSH2 0x16C8 JUMPI JUMPDEST POP PUSH2 0x337 JUMP JUMPDEST PUSH2 0x15EF SWAP1 PUSH2 0x337 JUMP JUMPDEST SWAP12 DUP13 SWAP11 PUSH2 0x15FD DUP13 PUSH1 0x8 PUSH2 0x11C1 JUMP JUMPDEST PUSH2 0x1608 SWAP1 PUSH1 0x9 PUSH2 0x340 JUMP JUMPDEST SWAP12 PUSH2 0x1613 DUP4 MLOAD ISZERO ISZERO SWAP1 JUMP JUMPDEST PUSH1 0x40 SWAP1 SWAP4 ADD MLOAD ISZERO ISZERO SWAP4 PUSH2 0x1624 PUSH2 0x11EA JUMP JUMPDEST SWAP13 PUSH2 0x162F SWAP1 DUP15 PUSH2 0x11F5 JUMP JUMPDEST PUSH1 0x20 DUP14 ADD MSTORE PUSH1 0x40 DUP13 ADD MSTORE PUSH1 0x60 DUP12 ADD MSTORE ISZERO ISZERO PUSH1 0x80 DUP11 ADD MSTORE ISZERO ISZERO PUSH1 0xA0 DUP10 ADD MSTORE PUSH1 0xC0 DUP9 ADD MSTORE PUSH1 0xE0 DUP8 ADD MSTORE PUSH2 0x100 DUP7 ADD MSTORE PUSH2 0x166A SWAP1 PUSH2 0x120 DUP7 ADD PUSH2 0x11F5 JUMP JUMPDEST PUSH2 0x1678 SWAP1 PUSH2 0x140 DUP6 ADD PUSH2 0x11F5 JUMP JUMPDEST PUSH2 0x160 DUP4 ADD MSTORE PUSH2 0x180 DUP3 ADD MSTORE PUSH2 0x168D SWAP2 PUSH2 0x152F JUMP JUMPDEST PUSH32 0xDA509E6642E963726D34FF4D505F1232025D5A4C3937D868BCAD7E3E5950D6E6 PUSH2 0x16B7 DUP3 PUSH2 0x337 JUMP JUMPDEST SWAP1 PUSH2 0x16C1 PUSH1 0x40 MLOAD SWAP1 JUMP JUMPDEST PUSH1 0x0 SWAP1 LOG2 SWAP1 JUMP JUMPDEST PUSH2 0x16E9 SWAP2 POP PUSH1 0x20 RETURNDATASIZE DUP2 GT PUSH2 0x16EF JUMPI JUMPDEST PUSH2 0x16E1 DUP2 DUP4 PUSH2 0x4D0 JUMP JUMPDEST DUP2 ADD SWAP1 PUSH2 0x10B9 JUMP JUMPDEST CODESIZE PUSH2 0x15E0 JUMP JUMPDEST POP RETURNDATASIZE PUSH2 0x16D7 JUMP JUMPDEST PUSH2 0x1183 JUMP JUMPDEST SWAP2 SWAP5 PUSH2 0x173E PUSH2 0x1745 SWAP3 SWAP9 SWAP8 SWAP6 PUSH2 0x1737 PUSH1 0xA0 SWAP7 PUSH2 0x1730 PUSH2 0x16B SWAP11 PUSH2 0x1726 PUSH1 0xC0 DUP11 ADD SWAP15 PUSH1 0x0 DUP12 ADD SWAP1 PUSH2 0x20C JUMP JUMPDEST PUSH1 0x20 DUP10 ADD SWAP1 PUSH2 0x20C JUMP JUMPDEST PUSH1 0x40 DUP8 ADD MSTORE JUMP JUMPDEST PUSH1 0x60 DUP6 ADD MSTORE JUMP JUMPDEST PUSH1 0x80 DUP4 ADD MSTORE JUMP JUMPDEST ADD MSTORE JUMP JUMPDEST PUSH2 0x181 PUSH1 0xE0 PUSH2 0x4F7 JUMP JUMPDEST SWAP1 PUSH2 0x13C8 PUSH2 0x181 PUSH2 0x1046 SWAP3 SWAP1 JUMP JUMPDEST PUSH2 0x16B SWAP2 SWAP1 PUSH2 0x17D9 SWAP1 PUSH1 0xC0 SWAP1 PUSH1 0x6 SWAP1 PUSH2 0x177D DUP2 PUSH2 0x1430 DUP8 PUSH2 0x1215 JUMP JUMPDEST PUSH2 0x1790 PUSH1 0x1 DUP3 ADD PUSH2 0x1430 PUSH1 0x20 DUP9 ADD PUSH2 0x1215 JUMP JUMPDEST PUSH2 0x17A3 PUSH1 0x2 DUP3 ADD PUSH2 0x1430 PUSH1 0x40 DUP9 ADD PUSH2 0x1215 JUMP JUMPDEST PUSH2 0x17B5 PUSH1 0x3 DUP3 ADD PUSH2 0x1472 PUSH1 0x60 DUP9 ADD MLOAD SWAP1 JUMP JUMPDEST PUSH2 0x17C7 PUSH1 0x4 DUP3 ADD PUSH2 0x1472 PUSH1 0x80 DUP9 ADD MLOAD SWAP1 JUMP JUMPDEST PUSH2 0x1514 PUSH1 0x5 DUP3 ADD PUSH2 0x1472 PUSH1 0xA0 DUP9 ADD MLOAD SWAP1 JUMP JUMPDEST SWAP1 PUSH2 0x1753 JUMP JUMPDEST SWAP2 SWAP1 PUSH2 0x152A JUMPI PUSH2 0x16B SWAP2 PUSH2 0x1761 JUMP JUMPDEST SWAP1 DUP2 SLOAD SWAP2 PUSH1 0x1 PUSH1 0x40 SHL DUP4 LT ISZERO PUSH2 0x4F2 JUMPI DUP3 PUSH2 0x1811 SWAP2 PUSH1 0x1 PUSH2 0x16B SWAP6 ADD DUP2 SSTORE PUSH2 0x358 JUMP JUMPDEST SWAP1 PUSH2 0x17DF JUMP JUMPDEST PUSH2 0x1745 PUSH2 0x16B SWAP5 PUSH2 0x1840 PUSH1 0x60 SWAP5 SWAP9 SWAP8 SWAP6 PUSH2 0x1839 PUSH1 0x80 DUP7 ADD SWAP11 PUSH1 0x0 DUP8 ADD SWAP1 PUSH2 0x20C JUMP JUMPDEST PUSH1 0x20 DUP6 ADD MSTORE JUMP JUMPDEST PUSH1 0x40 DUP4 ADD MSTORE JUMP JUMPDEST SWAP5 SWAP1 SWAP2 SWAP3 PUSH2 0x1853 PUSH1 0x0 SWAP1 JUMP JUMPDEST POP PUSH2 0x185E PUSH1 0x5 PUSH2 0x37B JUMP JUMPDEST PUSH2 0x1867 SWAP1 PUSH2 0x337 JUMP JUMPDEST SWAP6 PUSH4 0x9B1DE1FF SWAP7 PUSH2 0x1877 PUSH1 0x40 MLOAD SWAP1 JUMP JUMPDEST SWAP8 PUSH1 0xE0 SHL DUP9 MSTORE DUP8 DUP1 PUSH2 0x1891 DUP7 DUP11 DUP8 DUP12 DUP12 DUP10 PUSH1 0x4 DUP9 ADD PUSH2 0x16FB JUMP JUMPDEST SUB DUP2 GAS PUSH1 0x20 SWAP5 PUSH1 0x0 SWAP2 CALL SWAP7 DUP8 ISZERO PUSH2 0x16F6 JUMPI PUSH1 0x0 SWAP8 PUSH2 0x1987 JUMPI JUMPDEST POP PUSH2 0x18C0 PUSH2 0x18B9 PUSH1 0x6 SWAP9 PUSH2 0x337 JUMP JUMPDEST DUP1 SWAP9 PUSH2 0x11C1 JUMP JUMPDEST PUSH2 0x192E PUSH2 0x18CB PUSH2 0x1749 JUMP JUMPDEST PUSH2 0x18D5 DUP10 DUP3 PUSH2 0x11F5 JUMP JUMPDEST PUSH2 0x18E2 DUP4 PUSH1 0x20 DUP4 ADD PUSH2 0x11F5 JUMP JUMPDEST PUSH2 0x18EF DUP7 PUSH1 0x40 DUP4 ADD PUSH2 0x11F5 JUMP JUMPDEST PUSH2 0x18FA DUP8 PUSH1 0x60 DUP4 ADD MSTORE JUMP JUMPDEST PUSH2 0x1905 DUP5 PUSH1 0x80 DUP4 ADD MSTORE JUMP JUMPDEST PUSH2 0x1910 DUP9 PUSH1 0xA0 DUP4 ADD MSTORE JUMP JUMPDEST PUSH2 0x191B DUP6 PUSH1 0xC0 DUP4 ADD MSTORE JUMP JUMPDEST PUSH2 0x1929 PUSH2 0x181 CALLER PUSH1 0x7 PUSH2 0x340 JUMP JUMPDEST PUSH2 0x17EE JUMP JUMPDEST PUSH2 0x1981 PUSH32 0xE4A84F0F254E5960C762412E401BBC3EA5B577C07BE930CE4EA38862DDC5F652 SWAP4 PUSH2 0x196E PUSH2 0x1968 PUSH2 0x1962 DUP12 PUSH2 0x337 JUMP JUMPDEST SWAP8 PUSH2 0x337 JUMP JUMPDEST SWAP8 PUSH2 0x1233 JUMP JUMPDEST SWAP8 PUSH2 0x1978 PUSH1 0x40 MLOAD SWAP1 JUMP JUMPDEST SWAP5 DUP6 SWAP5 DUP6 PUSH2 0x1817 JUMP JUMPDEST SUB SWAP1 LOG4 SWAP1 JUMP JUMPDEST PUSH2 0x19A0 SWAP2 SWAP8 POP PUSH1 0x20 RETURNDATASIZE DUP2 GT PUSH2 0x16EF JUMPI PUSH2 0x16E1 DUP2 DUP4 PUSH2 0x4D0 JUMP JUMPDEST SWAP6 CODESIZE PUSH2 0x18AA JUMP JUMPDEST PUSH4 0x4E487B71 PUSH1 0xE0 SHL PUSH1 0x0 MSTORE PUSH1 0x21 PUSH1 0x4 MSTORE PUSH1 0x24 PUSH1 0x0 REVERT JUMPDEST PUSH1 0x4 GT ISZERO PUSH2 0x19C7 JUMPI JUMP JUMPDEST PUSH2 0x19A7 JUMP JUMPDEST SWAP1 PUSH2 0x16B DUP3 PUSH2 0x19BD JUMP JUMPDEST PUSH2 0x181 SWAP1 PUSH2 0x19CC JUMP JUMPDEST SWAP1 PUSH2 0x34A SWAP1 PUSH2 0x19D6 JUMP JUMPDEST PUSH1 0x0 PUSH2 0x1A02 PUSH2 0x181 SWAP3 PUSH2 0x19FA PUSH1 0x0 SWAP1 JUMP JUMPDEST POP PUSH1 0x3 PUSH2 0x19DF JUMP JUMPDEST ADD PUSH2 0x37B JUMP JUMPDEST PUSH1 0x1 PUSH2 0x1A19 PUSH2 0x181 SWAP3 PUSH2 0x19FA PUSH1 0x0 SWAP1 JUMP JUMPDEST ADD PUSH2 0x38C JUMP JUMPDEST SWAP1 PUSH2 0x16B SWAP3 SWAP2 PUSH2 0x1A2D PUSH2 0xF59 JUMP JUMPDEST PUSH2 0x1A8E JUMP JUMPDEST SWAP1 DUP2 MSTORE PUSH1 0x40 DUP2 ADD SWAP3 SWAP2 PUSH2 0x16B SWAP2 PUSH1 0x20 ADD MSTORE JUMP JUMPDEST PUSH2 0x215 SWAP1 PUSH2 0x19D6 JUMP JUMPDEST PUSH1 0x20 DUP2 ADD SWAP3 SWAP2 PUSH2 0x16B SWAP2 SWAP1 PUSH2 0x1A45 JUMP JUMPDEST PUSH2 0x181 PUSH1 0x40 PUSH2 0x4F7 JUMP JUMPDEST PUSH2 0x16B SWAP2 SWAP1 PUSH2 0x1472 SWAP1 PUSH1 0x20 SWAP1 PUSH1 0x1 SWAP1 PUSH2 0x1514 DUP2 PUSH2 0x1430 DUP8 PUSH2 0x1215 JUMP JUMPDEST SWAP1 PUSH2 0x16B SWAP2 PUSH2 0x1A68 JUMP JUMPDEST SWAP3 SWAP2 PUSH1 0x3 SWAP1 PUSH2 0x1AA5 PUSH2 0x181 PUSH1 0x1 PUSH2 0x1A19 DUP9 DUP7 PUSH2 0x19DF JUMP JUMPDEST DUP2 GT PUSH2 0x1B15 JUMPI PUSH2 0x1AB4 DUP3 PUSH2 0x19CC JUMP JUMPDEST PUSH2 0x1ABD DUP7 PUSH2 0x19CC JUMP JUMPDEST GT PUSH2 0x1AF2 JUMPI SWAP4 PUSH2 0x1AED SWAP2 PUSH2 0x1AE8 PUSH2 0x16B SWAP6 SWAP7 PUSH2 0x1AE1 PUSH2 0x1ADA PUSH2 0x1A5E JUMP JUMPDEST SWAP7 DUP8 PUSH2 0x11F5 JUMP JUMPDEST PUSH1 0x20 DUP7 ADD MSTORE JUMP JUMPDEST PUSH2 0x19DF JUMP JUMPDEST PUSH2 0x1A84 JUMP JUMPDEST PUSH2 0xF55 DUP6 PUSH2 0x1AFF PUSH1 0x40 MLOAD SWAP1 JUMP JUMPDEST PUSH4 0x699273B3 PUSH1 0xE0 SHL DUP2 MSTORE SWAP2 DUP3 SWAP2 PUSH1 0x4 DUP4 ADD PUSH2 0x1A4E JUMP JUMPDEST PUSH2 0x1B24 PUSH1 0x1 PUSH2 0x1A19 DUP8 DUP6 PUSH2 0x19DF JUMP JUMPDEST SWAP1 PUSH2 0xF55 PUSH2 0x1B31 PUSH1 0x40 MLOAD SWAP1 JUMP JUMPDEST PUSH4 0xDCAF71DB PUSH1 0xE0 SHL DUP2 MSTORE SWAP3 DUP4 SWAP3 PUSH1 0x4 DUP5 ADD PUSH2 0x1A32 JUMP JUMPDEST SWAP1 PUSH2 0x16B SWAP3 SWAP2 PUSH2 0x1A1F JUMP JUMPDEST PUSH2 0x181 PUSH2 0x2710 PUSH2 0x1233 JUMP JUMPDEST PUSH2 0x1B66 ADDRESS PUSH2 0x337 JUMP JUMPDEST BALANCE PUSH1 0x0 PUSH1 0x3 PUSH2 0x1B75 DUP3 DUP3 PUSH2 0x19DF JUMP JUMPDEST PUSH1 0x1 ADD PUSH2 0x1B81 SWAP1 PUSH2 0x38C JUMP JUMPDEST DUP3 PUSH1 0x1 DUP1 PUSH2 0x1B8F DUP2 DUP7 PUSH2 0x19DF JUMP JUMPDEST ADD PUSH2 0x1B99 SWAP1 PUSH2 0x38C JUMP JUMPDEST SWAP6 DUP3 PUSH1 0x2 SWAP3 DUP1 PUSH2 0x1BA9 DUP6 DUP10 PUSH2 0x19DF JUMP JUMPDEST ADD PUSH2 0x1BB3 SWAP1 PUSH2 0x38C JUMP JUMPDEST SWAP3 DUP2 PUSH2 0x1BBF DUP10 DUP1 PUSH2 0x19DF JUMP JUMPDEST ADD PUSH2 0x1BC9 SWAP1 PUSH2 0x38C JUMP JUMPDEST SWAP7 PUSH2 0x1BD4 SWAP1 DUP3 PUSH2 0x1CF3 JUMP JUMPDEST SWAP1 PUSH2 0x1BDD PUSH2 0x1B52 JUMP JUMPDEST DUP1 PUSH2 0x1BE9 DUP2 DUP1 SWAP6 PUSH2 0x1D2D JUMP JUMPDEST SWAP13 PUSH2 0x1BF4 SWAP1 DUP5 PUSH2 0x1CF3 JUMP JUMPDEST SWAP1 PUSH2 0x1BFE SWAP2 PUSH2 0x1D2D JUMP JUMPDEST SWAP6 PUSH2 0x1C09 SWAP1 DUP4 PUSH2 0x1CF3 JUMP JUMPDEST SWAP1 PUSH2 0x1C13 SWAP2 PUSH2 0x1D2D JUMP JUMPDEST SWAP8 PUSH2 0x1C1D SWAP2 PUSH2 0x1CF3 JUMP JUMPDEST SWAP1 PUSH2 0x1C27 SWAP2 PUSH2 0x1D2D JUMP JUMPDEST SWAP9 DUP3 PUSH2 0x1C33 DUP2 DUP11 PUSH2 0x19DF JUMP JUMPDEST ADD PUSH2 0x1C3D SWAP1 PUSH2 0x37B JUMP JUMPDEST PUSH2 0x1C46 SWAP1 PUSH2 0x337 JUMP JUMPDEST SWAP1 PUSH2 0x1C50 SWAP2 PUSH2 0x2543 JUMP JUMPDEST PUSH2 0x1C5A SWAP1 DUP8 PUSH2 0x19DF JUMP JUMPDEST ADD PUSH2 0x1C64 SWAP1 PUSH2 0x37B JUMP JUMPDEST PUSH2 0x1C6D SWAP1 PUSH2 0x337 JUMP JUMPDEST SWAP1 PUSH2 0x1C77 SWAP2 PUSH2 0x2543 JUMP JUMPDEST PUSH2 0x1C81 SWAP1 DUP5 PUSH2 0x19DF JUMP JUMPDEST ADD PUSH2 0x1C8B SWAP1 PUSH2 0x37B JUMP JUMPDEST PUSH2 0x1C94 SWAP1 PUSH2 0x337 JUMP JUMPDEST SWAP1 PUSH2 0x1C9E SWAP2 PUSH2 0x2543 JUMP JUMPDEST DUP1 PUSH2 0x1CA8 SWAP2 PUSH2 0x19DF JUMP JUMPDEST ADD PUSH2 0x1CB2 SWAP1 PUSH2 0x37B JUMP JUMPDEST PUSH2 0x1CBB SWAP1 PUSH2 0x337 JUMP JUMPDEST SWAP1 PUSH2 0x16B SWAP2 PUSH2 0x2543 JUMP JUMPDEST PUSH4 0x4E487B71 PUSH1 0xE0 SHL PUSH1 0x0 MSTORE PUSH1 0x11 PUSH1 0x4 MSTORE PUSH1 0x24 PUSH1 0x0 REVERT JUMPDEST DUP2 DUP2 MUL SWAP3 SWAP2 DUP2 ISZERO SWAP2 DUP5 DIV EQ OR ISZERO PUSH2 0x1CEE JUMPI JUMP JUMPDEST PUSH2 0x1CC5 JUMP JUMPDEST PUSH2 0x181 SWAP2 SWAP1 PUSH2 0x1CDB JUMP JUMPDEST PUSH4 0x4E487B71 PUSH1 0xE0 SHL PUSH1 0x0 MSTORE PUSH1 0x12 PUSH1 0x4 MSTORE PUSH1 0x24 PUSH1 0x0 REVERT JUMPDEST SWAP1 PUSH2 0x1D1D JUMP JUMPDEST SWAP2 SWAP1 JUMP JUMPDEST SWAP1 DUP2 ISZERO PUSH2 0x1D28 JUMPI DIV SWAP1 JUMP JUMPDEST PUSH2 0x1CFD JUMP JUMPDEST PUSH2 0x181 SWAP2 SWAP1 PUSH2 0x1D13 JUMP JUMPDEST PUSH1 0x1 PUSH1 0x1 PUSH1 0x70 SHL SUB DUP2 AND PUSH2 0x152 JUMP JUMPDEST SWAP1 POP MLOAD SWAP1 PUSH2 0x16B DUP3 PUSH2 0x1D37 JUMP JUMPDEST PUSH4 0xFFFFFFFF DUP2 AND PUSH2 0x152 JUMP JUMPDEST SWAP1 POP MLOAD SWAP1 PUSH2 0x16B DUP3 PUSH2 0x1D53 JUMP JUMPDEST SWAP1 SWAP2 PUSH1 0x60 DUP3 DUP5 SUB SLT PUSH2 0x159 JUMPI PUSH2 0x181 PUSH2 0x1D85 DUP5 DUP5 PUSH2 0x1D46 JUMP JUMPDEST SWAP4 PUSH2 0x1D93 DUP2 PUSH1 0x20 DUP7 ADD PUSH2 0x1D46 JUMP JUMPDEST SWAP4 PUSH1 0x40 ADD PUSH2 0x1D5F JUMP JUMPDEST PUSH2 0x181 PUSH2 0x181 PUSH2 0x181 SWAP3 PUSH1 0x1 PUSH1 0x1 PUSH1 0x70 SHL SUB AND SWAP1 JUMP JUMPDEST SWAP1 POP MLOAD SWAP1 PUSH2 0x16B DUP3 PUSH2 0x150 JUMP JUMPDEST SWAP1 PUSH1 0x20 DUP3 DUP3 SUB SLT PUSH2 0x159 JUMPI PUSH2 0x181 SWAP2 PUSH2 0x1DB2 JUMP JUMPDEST SWAP1 DUP2 MSTORE PUSH1 0x60 DUP2 ADD SWAP4 SWAP3 PUSH2 0x16B SWAP3 SWAP1 SWAP2 PUSH1 0x40 SWAP2 PUSH2 0x1745 SWAP1 PUSH1 0x20 DUP4 ADD MSTORE JUMP JUMPDEST SWAP1 POP MLOAD SWAP1 PUSH2 0x16B DUP3 PUSH2 0x582 JUMP JUMPDEST SWAP1 PUSH1 0x20 DUP3 DUP3 SUB SLT PUSH2 0x159 JUMPI PUSH2 0x181 SWAP2 PUSH2 0x1DF0 JUMP JUMPDEST SWAP2 PUSH1 0x20 PUSH2 0x16B SWAP3 SWAP5 SWAP4 PUSH2 0x1745 PUSH1 0x40 DUP3 ADD SWAP7 PUSH1 0x0 DUP4 ADD SWAP1 PUSH2 0x20C JUMP JUMPDEST ISZERO PUSH2 0x1E33 JUMPI JUMP JUMPDEST PUSH1 0x40 MLOAD PUSH3 0x461BCD PUSH1 0xE5 SHL DUP2 MSTORE PUSH1 0x20 PUSH1 0x4 DUP3 ADD MSTORE PUSH1 0xF PUSH1 0x24 DUP3 ADD MSTORE PUSH15 0x105C1C1C9BDD985B0819985A5B1959 PUSH1 0x8A SHL PUSH1 0x44 DUP3 ADD MSTORE PUSH1 0x64 SWAP1 REVERT JUMPDEST PUSH8 0xFFFFFFFFFFFFFFFF DUP2 GT PUSH2 0x4F2 JUMPI PUSH1 0x20 DUP1 SWAP2 MUL ADD SWAP1 JUMP JUMPDEST SWAP1 PUSH2 0x1E8F PUSH2 0x548 DUP4 PUSH2 0x1E6A JUMP JUMPDEST SWAP2 DUP3 MSTORE JUMP JUMPDEST CALLDATASIZE SWAP1 CALLDATACOPY JUMP JUMPDEST SWAP1 PUSH2 0x16B PUSH2 0x1EAF PUSH2 0x1EA9 DUP5 PUSH2 0x1E82 JUMP JUMPDEST SWAP4 PUSH2 0x1E6A JUMP JUMPDEST PUSH1 0x1F NOT ADD PUSH1 0x20 DUP5 ADD PUSH2 0x1E94 JUMP JUMPDEST SWAP1 PUSH2 0x1EC5 DUP3 MLOAD SWAP1 JUMP JUMPDEST DUP2 LT ISZERO PUSH2 0x1BD JUMPI PUSH1 0x20 DUP1 SWAP2 MUL ADD ADD SWAP1 JUMP JUMPDEST SWAP1 POP MLOAD SWAP1 PUSH2 0x16B DUP3 PUSH2 0x2E1 JUMP JUMPDEST SWAP1 PUSH1 0x20 DUP3 DUP3 SUB SLT PUSH2 0x159 JUMPI PUSH2 0x181 SWAP2 PUSH2 0x1ED6 JUMP JUMPDEST PUSH2 0x215 SWAP1 PUSH2 0x1233 JUMP JUMPDEST SWAP1 PUSH2 0x528 DUP2 PUSH1 0x20 SWAP4 PUSH2 0x20C JUMP JUMPDEST SWAP1 PUSH2 0x1F1C PUSH2 0x845 PUSH2 0x83B DUP5 MLOAD SWAP1 JUMP JUMPDEST SWAP1 PUSH1 0x0 JUMPDEST DUP2 DUP2 LT PUSH2 0x1F2D JUMPI POP POP POP SWAP1 JUMP JUMPDEST SWAP1 SWAP2 SWAP3 PUSH2 0x1F40 PUSH2 0x870 PUSH1 0x1 SWAP3 DUP7 MLOAD PUSH2 0x1F00 JUMP JUMPDEST SWAP3 SWAP2 ADD PUSH2 0x1F20 JUMP JUMPDEST SWAP1 PUSH2 0x1F83 PUSH2 0x1745 SWAP2 PUSH2 0x16B SWAP7 SWAP9 SWAP8 SWAP6 PUSH2 0x1F76 PUSH1 0x80 SWAP7 PUSH2 0x1F6C PUSH1 0xA0 DUP9 ADD SWAP5 PUSH1 0x0 DUP10 ADD MSTORE JUMP JUMPDEST PUSH1 0x20 DUP8 ADD SWAP1 PUSH2 0x1EF7 JUMP JUMPDEST DUP5 DUP3 SUB PUSH1 0x40 DUP7 ADD MSTORE PUSH2 0x1F0D JUMP JUMPDEST SWAP7 PUSH1 0x60 DUP4 ADD SWAP1 PUSH2 0x20C JUMP JUMPDEST SWAP2 PUSH1 0x60 PUSH2 0x1FA5 PUSH2 0x1FA0 PUSH2 0x1FBD SWAP5 PUSH2 0x337 JUMP JUMPDEST PUSH2 0x337 JUMP JUMPDEST PUSH4 0x902F1AC SWAP1 PUSH2 0x1FB4 PUSH1 0x40 MLOAD SWAP1 JUMP JUMPDEST SWAP5 DUP6 SWAP3 PUSH1 0xE0 SHL SWAP1 JUMP JUMPDEST DUP3 MSTORE PUSH1 0x4 SWAP1 DUP3 SWAP1 GAS STATICCALL SWAP2 DUP3 ISZERO PUSH2 0x16F6 JUMPI PUSH1 0x0 SWAP1 DUP2 SWAP4 PUSH2 0x2229 JUMPI JUMPDEST POP PUSH2 0x1FE4 PUSH2 0x1FEA SWAP2 PUSH2 0x1D9C JUMP JUMPDEST SWAP3 PUSH2 0x1D9C JUMP JUMPDEST SWAP2 PUSH1 0x20 PUSH2 0x2019 PUSH2 0x1FFB PUSH2 0x1FA0 PUSH2 0x8B7 JUMP JUMPDEST SWAP5 PUSH2 0x2025 PUSH4 0xAD615DEC SWAP2 PUSH2 0x200E PUSH1 0x40 MLOAD SWAP1 JUMP JUMPDEST SWAP6 DUP7 SWAP5 DUP6 SWAP5 PUSH1 0xE0 SHL SWAP1 JUMP JUMPDEST DUP5 MSTORE DUP8 PUSH1 0x4 DUP6 ADD PUSH2 0x1DD3 JUMP JUMPDEST SUB DUP2 DUP7 GAS STATICCALL SWAP1 DUP2 ISZERO PUSH2 0x16F6 JUMPI PUSH1 0x0 SWAP2 PUSH2 0x21FB JUMPI JUMPDEST POP PUSH2 0x204A PUSH2 0x1D19 PUSH2 0x181 PUSH1 0x2 PUSH2 0x38C JUMP JUMPDEST LT ISZERO PUSH2 0x2055 JUMPI POP POP POP JUMP JUMPDEST PUSH2 0x207E PUSH1 0x20 PUSH2 0x2066 PUSH2 0x1FA0 DUP7 PUSH2 0x337 JUMP JUMPDEST PUSH4 0x95EA7B3 SWAP1 PUSH2 0x2075 PUSH1 0x40 MLOAD SWAP1 JUMP JUMPDEST SWAP4 DUP5 SWAP3 PUSH1 0xE0 SHL SWAP1 JUMP JUMPDEST DUP3 MSTORE DUP2 PUSH1 0x0 DUP2 PUSH2 0x2092 DUP9 DUP11 PUSH1 0x4 DUP5 ADD PUSH2 0x1E11 JUMP JUMPDEST SUB SWAP3 GAS CALL DUP1 ISZERO PUSH2 0x16F6 JUMPI PUSH2 0x20AE SWAP2 PUSH1 0x0 SWAP2 PUSH2 0x21CD JUMPI JUMPDEST POP PUSH2 0x1E2C JUMP JUMPDEST PUSH2 0x20C0 PUSH2 0x20BB PUSH1 0x2 PUSH2 0x1233 JUMP JUMPDEST PUSH2 0x1E99 JUMP JUMPDEST SWAP1 PUSH2 0x20DE PUSH1 0x0 SWAP5 PUSH2 0x20D9 PUSH2 0x20D3 DUP8 PUSH2 0x1233 JUMP JUMPDEST DUP6 PUSH2 0x1EBC JUMP JUMPDEST PUSH2 0x11F5 JUMP JUMPDEST PUSH4 0xAD5C4648 PUSH2 0x20F6 PUSH2 0x20EF PUSH1 0x40 MLOAD SWAP1 JUMP JUMPDEST SWAP2 PUSH1 0xE0 SHL SWAP1 JUMP JUMPDEST DUP2 MSTORE PUSH1 0x20 DUP2 PUSH1 0x4 DUP2 DUP8 GAS STATICCALL DUP1 ISZERO PUSH2 0x16F6 JUMPI PUSH2 0x2120 SWAP2 DUP7 SWAP2 PUSH2 0x219F JUMPI JUMPDEST POP PUSH2 0x20D9 PUSH2 0x20D3 PUSH1 0x1 PUSH2 0x1233 JUMP JUMPDEST PUSH4 0x5C11D795 SWAP3 PUSH2 0x212F ADDRESS PUSH2 0x337 JUMP JUMPDEST TIMESTAMP SWAP1 DUP3 EXTCODESIZE ISZERO PUSH2 0x159 JUMPI DUP7 SWAP6 PUSH2 0x2167 PUSH2 0x215C SWAP4 DUP9 SWAP8 SWAP4 DUP9 SWAP5 PUSH2 0x214F PUSH1 0x40 MLOAD SWAP1 JUMP JUMPDEST SWAP11 DUP12 SWAP10 DUP11 SWAP9 DUP10 SWAP8 PUSH1 0xE0 SHL SWAP1 JUMP JUMPDEST DUP8 MSTORE PUSH1 0x4 DUP8 ADD PUSH2 0x1F48 JUMP JUMPDEST SUB SWAP3 GAS CALL DUP1 ISZERO PUSH2 0x16F6 JUMPI PUSH2 0x2179 JUMPI POP POP JUMP JUMPDEST DUP2 PUSH2 0x16B SWAP3 SWAP1 RETURNDATASIZE LT PUSH2 0x2198 JUMPI JUMPDEST PUSH2 0x2190 DUP2 DUP4 PUSH2 0x4D0 JUMP JUMPDEST DUP2 ADD SWAP1 PUSH2 0x254 JUMP JUMPDEST POP RETURNDATASIZE PUSH2 0x2186 JUMP JUMPDEST PUSH2 0x21C0 SWAP2 POP PUSH1 0x20 RETURNDATASIZE DUP2 GT PUSH2 0x21C6 JUMPI JUMPDEST PUSH2 0x21B8 DUP2 DUP4 PUSH2 0x4D0 JUMP JUMPDEST DUP2 ADD SWAP1 PUSH2 0x1EE3 JUMP JUMPDEST CODESIZE PUSH2 0x2112 JUMP JUMPDEST POP RETURNDATASIZE PUSH2 0x21AE JUMP JUMPDEST PUSH2 0x21EE SWAP2 POP PUSH1 0x20 RETURNDATASIZE DUP2 GT PUSH2 0x21F4 JUMPI JUMPDEST PUSH2 0x21E6 DUP2 DUP4 PUSH2 0x4D0 JUMP JUMPDEST DUP2 ADD SWAP1 PUSH2 0x1DFD JUMP JUMPDEST CODESIZE PUSH2 0x20A8 JUMP JUMPDEST POP RETURNDATASIZE PUSH2 0x21DC JUMP JUMPDEST PUSH2 0x221C SWAP2 POP PUSH1 0x20 RETURNDATASIZE DUP2 GT PUSH2 0x2222 JUMPI JUMPDEST PUSH2 0x2214 DUP2 DUP4 PUSH2 0x4D0 JUMP JUMPDEST DUP2 ADD SWAP1 PUSH2 0x1DBF JUMP JUMPDEST CODESIZE PUSH2 0x2039 JUMP JUMPDEST POP RETURNDATASIZE PUSH2 0x220A JUMP JUMPDEST PUSH2 0x1FE4 SWAP4 POP PUSH2 0x1FEA SWAP2 POP PUSH2 0x2253 SWAP1 PUSH1 0x60 RETURNDATASIZE DUP2 GT PUSH2 0x225C JUMPI JUMPDEST PUSH2 0x224B DUP2 DUP4 PUSH2 0x4D0 JUMP JUMPDEST DUP2 ADD SWAP1 PUSH2 0x1D6C JUMP JUMPDEST POP SWAP4 POP SWAP1 PUSH2 0x1FD7 JUMP JUMPDEST POP RETURNDATASIZE PUSH2 0x2241 JUMP JUMPDEST PUSH2 0x16B SWAP1 PUSH2 0x226F PUSH2 0xF59 JUMP JUMPDEST PUSH2 0x16B SWAP1 PUSH1 0x2 PUSH2 0x13B8 JUMP JUMPDEST PUSH2 0x16B SWAP1 PUSH2 0x2263 JUMP JUMPDEST SWAP1 PUSH2 0x16B PUSH2 0x23A5 PUSH1 0xB PUSH2 0x2294 PUSH2 0x11EA JUMP JUMPDEST SWAP5 PUSH2 0x22A7 PUSH2 0x22A1 DUP3 PUSH2 0x37B JUMP JUMPDEST DUP8 PUSH2 0x11F5 JUMP JUMPDEST PUSH2 0x22BD PUSH2 0x22B6 PUSH1 0x1 DUP4 ADD PUSH2 0xA04 JUMP JUMPDEST PUSH1 0x20 DUP9 ADD MSTORE JUMP JUMPDEST PUSH2 0x22D3 PUSH2 0x22CC PUSH1 0x2 DUP4 ADD PUSH2 0xA04 JUMP JUMPDEST PUSH1 0x40 DUP9 ADD MSTORE JUMP JUMPDEST PUSH2 0x22E9 PUSH2 0x22E2 PUSH1 0x3 DUP4 ADD PUSH2 0x38C JUMP JUMPDEST PUSH1 0x60 DUP9 ADD MSTORE JUMP JUMPDEST PUSH2 0x2301 PUSH2 0x22F8 PUSH1 0x4 DUP4 ADD PUSH2 0xA30 JUMP JUMPDEST ISZERO ISZERO PUSH1 0x80 DUP9 ADD MSTORE JUMP JUMPDEST PUSH2 0x2319 PUSH2 0x2310 PUSH1 0x4 DUP4 ADD PUSH2 0xA46 JUMP JUMPDEST ISZERO ISZERO PUSH1 0xA0 DUP9 ADD MSTORE JUMP JUMPDEST PUSH2 0x232F PUSH2 0x2328 PUSH1 0x5 DUP4 ADD PUSH2 0x38C JUMP JUMPDEST PUSH1 0xC0 DUP9 ADD MSTORE JUMP JUMPDEST PUSH2 0x2345 PUSH2 0x233E PUSH1 0x6 DUP4 ADD PUSH2 0x38C JUMP JUMPDEST PUSH1 0xE0 DUP9 ADD MSTORE JUMP JUMPDEST PUSH2 0x235C PUSH2 0x2354 PUSH1 0x7 DUP4 ADD PUSH2 0x38C JUMP JUMPDEST PUSH2 0x100 DUP9 ADD MSTORE JUMP JUMPDEST PUSH2 0x2375 PUSH2 0x236B PUSH1 0x8 DUP4 ADD PUSH2 0x37B JUMP JUMPDEST PUSH2 0x120 DUP9 ADD PUSH2 0x11F5 JUMP JUMPDEST PUSH2 0x238E PUSH2 0x2384 PUSH1 0x9 DUP4 ADD PUSH2 0x37B JUMP JUMPDEST PUSH2 0x140 DUP9 ADD PUSH2 0x11F5 JUMP JUMPDEST PUSH2 0x1A19 PUSH2 0x239D PUSH1 0xA DUP4 ADD PUSH2 0x38C JUMP JUMPDEST PUSH2 0x160 DUP9 ADD MSTORE JUMP JUMPDEST PUSH2 0x180 DUP5 ADD MSTORE JUMP JUMPDEST PUSH2 0x181 SWAP1 PUSH2 0x2283 JUMP JUMPDEST SWAP1 PUSH2 0x23BF DUP3 SLOAD SWAP1 JUMP JUMPDEST PUSH2 0x23C8 DUP2 PUSH2 0x1E82 JUMP JUMPDEST SWAP3 PUSH2 0x23DC PUSH1 0x20 DUP6 ADD SWAP2 PUSH1 0x0 MSTORE PUSH1 0x20 PUSH1 0x0 KECCAK256 SWAP1 JUMP JUMPDEST PUSH1 0x0 SWAP2 JUMPDEST DUP4 DUP4 LT PUSH2 0x23ED JUMPI POP POP POP POP JUMP JUMPDEST PUSH1 0xC PUSH1 0x20 PUSH1 0x1 SWAP3 PUSH2 0x23FD DUP6 PUSH2 0x23AD JUMP JUMPDEST DUP2 MSTORE ADD SWAP3 ADD SWAP3 ADD SWAP2 SWAP1 PUSH2 0x23E0 JUMP JUMPDEST PUSH2 0x181 SWAP1 PUSH2 0x23B6 JUMP JUMPDEST PUSH2 0x242B PUSH2 0x181 SWAP2 PUSH2 0x2423 PUSH1 0x60 SWAP1 JUMP JUMPDEST POP PUSH1 0x9 PUSH2 0x340 JUMP JUMPDEST PUSH2 0x240B JUMP JUMPDEST SWAP1 PUSH2 0x16B PUSH2 0x24B9 PUSH1 0x6 PUSH2 0x2441 PUSH2 0x1749 JUMP JUMPDEST SWAP5 PUSH2 0x244E PUSH2 0x22A1 DUP3 PUSH2 0x37B JUMP JUMPDEST PUSH2 0x2466 PUSH2 0x245D PUSH1 0x1 DUP4 ADD PUSH2 0x37B JUMP JUMPDEST PUSH1 0x20 DUP9 ADD PUSH2 0x11F5 JUMP JUMPDEST PUSH2 0x247E PUSH2 0x2475 PUSH1 0x2 DUP4 ADD PUSH2 0x37B JUMP JUMPDEST PUSH1 0x40 DUP9 ADD PUSH2 0x11F5 JUMP JUMPDEST PUSH2 0x248D PUSH2 0x22E2 PUSH1 0x3 DUP4 ADD PUSH2 0x38C JUMP JUMPDEST PUSH2 0x24A3 PUSH2 0x249C PUSH1 0x4 DUP4 ADD PUSH2 0x38C JUMP JUMPDEST PUSH1 0x80 DUP9 ADD MSTORE JUMP JUMPDEST PUSH2 0x1A19 PUSH2 0x24B2 PUSH1 0x5 DUP4 ADD PUSH2 0x38C JUMP JUMPDEST PUSH1 0xA0 DUP9 ADD MSTORE JUMP JUMPDEST PUSH1 0xC0 DUP5 ADD MSTORE JUMP JUMPDEST PUSH2 0x181 SWAP1 PUSH2 0x2430 JUMP JUMPDEST SWAP1 PUSH2 0x24D2 DUP3 SLOAD SWAP1 JUMP JUMPDEST PUSH2 0x24DB DUP2 PUSH2 0x1E82 JUMP JUMPDEST SWAP3 PUSH2 0x24EF PUSH1 0x20 DUP6 ADD SWAP2 PUSH1 0x0 MSTORE PUSH1 0x20 PUSH1 0x0 KECCAK256 SWAP1 JUMP JUMPDEST PUSH1 0x0 SWAP2 JUMPDEST DUP4 DUP4 LT PUSH2 0x2500 JUMPI POP POP POP POP JUMP JUMPDEST PUSH1 0x7 PUSH1 0x20 PUSH1 0x1 SWAP3 PUSH2 0x2510 DUP6 PUSH2 0x24C0 JUMP JUMPDEST DUP2 MSTORE ADD SWAP3 ADD SWAP3 ADD SWAP2 SWAP1 PUSH2 0x24F3 JUMP JUMPDEST PUSH2 0x181 SWAP1 PUSH2 0x24C9 JUMP JUMPDEST PUSH2 0x253E PUSH2 0x181 SWAP2 PUSH2 0x2536 PUSH1 0x60 SWAP1 JUMP JUMPDEST POP PUSH1 0x7 PUSH2 0x340 JUMP JUMPDEST PUSH2 0x251E JUMP JUMPDEST PUSH1 0x0 DUP1 DUP1 SWAP4 DUP2 SWAP4 GAS CALL ISZERO PUSH2 0x2553 JUMPI JUMP JUMPDEST PUSH4 0xB12D13EB PUSH1 0x0 MSTORE PUSH1 0x4 PUSH1 0x1C REVERT INVALID LOG2 PUSH5 0x6970667358 0x22 SLT KECCAK256 0xDE DELEGATECALL DUP5 0xB4 0x4B JUMPDEST 0xD0 0xD4 DIV 0xB7 ADDMOD 0xE2 DUP13 SWAP6 CALLDATACOPY PUSH5 0xE39B4423D4 0xE6 ORIGIN 0xF6 PUSH31 0xD3988C3A300F9164736F6C6343000814003300000000000000000000000000 "},"gasEstimates":{"creation":{"codeDepositCost":"1924600","executionCost":"infinite","totalCost":"infinite"},"external":{"UNISWAP_V2_ROUTER()":"infinite","claimableAirdropCreatedBy(address,uint256)":"infinite","createClaimableAirdrop(address,address,uint256,uint256,uint256,bytes32)":"infinite","createdClaimableAirdrops(uint256)":"infinite","getClaimableAirdropsForAddress(address)":"infinite","getLaunchedTokensForAddress(address)":"infinite","getPayoutAddress(uint8)":"infinite","getPayoutShare(uint8)":"infinite","launchToken(string,string,uint256,address,(bool,bool,bool),uint256,uint256,uint256,address,address,uint256,uint256)":"infinite","launchedTokens(uint256)":"infinite","owner()":"infinite","quoteThreshold()":"infinite","renounceOwnership()":"infinite","setQuoteThreshold(uint256)":"infinite","swapERC20s(address,address,uint256)":"infinite","tokensLaunchedBy(address,uint256)":"infinite","transferOwnership(address)":"infinite","updatePayout(uint8,address,uint256)":"infinite","withdraw()":"infinite"}},"methodIdentifiers":{"UNISWAP_V2_ROUTER()":"a82ed9ec","claimableAirdropCreatedBy(address,uint256)":"44ea3a66","createClaimableAirdrop(address,address,uint256,uint256,uint256,bytes32)":"9b1de1ff","createdClaimableAirdrops(uint256)":"4d9429e7","getClaimableAirdropsForAddress(address)":"a7bc6a17","getLaunchedTokensForAddress(address)":"f14aade1","getPayoutAddress(uint8)":"dc8ed636","getPayoutShare(uint8)":"d0b516c7","launchToken(string,string,uint256,address,(bool,bool,bool),uint256,uint256,uint256,address,address,uint256,uint256)":"646eedab","launchedTokens(uint256)":"10f2b141","owner()":"8da5cb5b","quoteThreshold()":"3d9cce42","renounceOwnership()":"715018a6","setQuoteThreshold(uint256)":"43584bca","swapERC20s(address,address,uint256)":"b579772f","tokensLaunchedBy(address,uint256)":"b5611107","transferOwnership(address)":"f2fde38b","updatePayout(uint8,address,uint256)":"fca928b2","withdraw()":"3ccfd60b"}},"storageLayout":{"storage":[{"astId":7,"contract":"src/CoinGenie.sol:CoinGenie","label":"_owner","offset":0,"slot":"0","type":"t_address"},{"astId":231,"contract":"src/CoinGenie.sol:CoinGenie","label":"_status","offset":0,"slot":"1","type":"t_uint256"},{"astId":4009,"contract":"src/CoinGenie.sol:CoinGenie","label":"quoteThreshold","offset":0,"slot":"2","type":"t_uint256"},{"astId":4016,"contract":"src/CoinGenie.sol:CoinGenie","label":"_payouts","offset":0,"slot":"3","type":"t_mapping(t_enum(PayoutCategory)3980,t_struct(Payout)3985_storage)"},{"astId":4020,"contract":"src/CoinGenie.sol:CoinGenie","label":"_erc20Factory","offset":0,"slot":"4","type":"t_contract(ERC20Factory)6324"},{"astId":4024,"contract":"src/CoinGenie.sol:CoinGenie","label":"_airdropClaimableERC20Factory","offset":0,"slot":"5","type":"t_contract(AirdropERC20ClaimableFactory)3880"},{"astId":4028,"contract":"src/CoinGenie.sol:CoinGenie","label":"createdClaimableAirdrops","offset":0,"slot":"6","type":"t_array(t_address)dyn_storage"},{"astId":4035,"contract":"src/CoinGenie.sol:CoinGenie","label":"claimableAirdropCreatedBy","offset":0,"slot":"7","type":"t_mapping(t_address,t_array(t_struct(ClaimableAirdrop)3975_storage)dyn_storage)"},{"astId":4039,"contract":"src/CoinGenie.sol:CoinGenie","label":"launchedTokens","offset":0,"slot":"8","type":"t_array(t_address)dyn_storage"},{"astId":4046,"contract":"src/CoinGenie.sol:CoinGenie","label":"tokensLaunchedBy","offset":0,"slot":"9","type":"t_mapping(t_address,t_array(t_struct(LaunchedToken)3960_storage)dyn_storage)"}],"types":{"t_address":{"encoding":"inplace","label":"address","numberOfBytes":"20"},"t_address_payable":{"encoding":"inplace","label":"address payable","numberOfBytes":"20"},"t_array(t_address)dyn_storage":{"base":"t_address","encoding":"dynamic_array","label":"address[]","numberOfBytes":"32"},"t_array(t_struct(ClaimableAirdrop)3975_storage)dyn_storage":{"base":"t_struct(ClaimableAirdrop)3975_storage","encoding":"dynamic_array","label":"struct CoinGenie.ClaimableAirdrop[]","numberOfBytes":"32"},"t_array(t_struct(LaunchedToken)3960_storage)dyn_storage":{"base":"t_struct(LaunchedToken)3960_storage","encoding":"dynamic_array","label":"struct CoinGenie.LaunchedToken[]","numberOfBytes":"32"},"t_bool":{"encoding":"inplace","label":"bool","numberOfBytes":"1"},"t_bytes32":{"encoding":"inplace","label":"bytes32","numberOfBytes":"32"},"t_contract(AirdropERC20ClaimableFactory)3880":{"encoding":"inplace","label":"contract AirdropERC20ClaimableFactory","numberOfBytes":"20"},"t_contract(ERC20Factory)6324":{"encoding":"inplace","label":"contract ERC20Factory","numberOfBytes":"20"},"t_enum(PayoutCategory)3980":{"encoding":"inplace","label":"enum CoinGenie.PayoutCategory","numberOfBytes":"1"},"t_mapping(t_address,t_array(t_struct(ClaimableAirdrop)3975_storage)dyn_storage)":{"encoding":"mapping","key":"t_address","label":"mapping(address => struct CoinGenie.ClaimableAirdrop[])","numberOfBytes":"32","value":"t_array(t_struct(ClaimableAirdrop)3975_storage)dyn_storage"},"t_mapping(t_address,t_array(t_struct(LaunchedToken)3960_storage)dyn_storage)":{"encoding":"mapping","key":"t_address","label":"mapping(address => struct CoinGenie.LaunchedToken[])","numberOfBytes":"32","value":"t_array(t_struct(LaunchedToken)3960_storage)dyn_storage"},"t_mapping(t_enum(PayoutCategory)3980,t_struct(Payout)3985_storage)":{"encoding":"mapping","key":"t_enum(PayoutCategory)3980","label":"mapping(enum CoinGenie.PayoutCategory => struct CoinGenie.Payout)","numberOfBytes":"32","value":"t_struct(Payout)3985_storage"},"t_string_storage":{"encoding":"bytes","label":"string","numberOfBytes":"32"},"t_struct(ClaimableAirdrop)3975_storage":{"encoding":"inplace","label":"struct CoinGenie.ClaimableAirdrop","members":[{"astId":3962,"contract":"src/CoinGenie.sol:CoinGenie","label":"airdropAddress","offset":0,"slot":"0","type":"t_address"},{"astId":3964,"contract":"src/CoinGenie.sol:CoinGenie","label":"tokenOwner","offset":0,"slot":"1","type":"t_address"},{"astId":3966,"contract":"src/CoinGenie.sol:CoinGenie","label":"airdropTokenAddress","offset":0,"slot":"2","type":"t_address"},{"astId":3968,"contract":"src/CoinGenie.sol:CoinGenie","label":"airdropAmount","offset":0,"slot":"3","type":"t_uint256"},{"astId":3970,"contract":"src/CoinGenie.sol:CoinGenie","label":"expirationTimestamp","offset":0,"slot":"4","type":"t_uint256"},{"astId":3972,"contract":"src/CoinGenie.sol:CoinGenie","label":"maxWalletClaimCount","offset":0,"slot":"5","type":"t_uint256"},{"astId":3974,"contract":"src/CoinGenie.sol:CoinGenie","label":"merkleRoot","offset":0,"slot":"6","type":"t_bytes32"}],"numberOfBytes":"224"},"t_struct(LaunchedToken)3960_storage":{"encoding":"inplace","label":"struct CoinGenie.LaunchedToken","members":[{"astId":3935,"contract":"src/CoinGenie.sol:CoinGenie","label":"tokenAddress","offset":0,"slot":"0","type":"t_address"},{"astId":3937,"contract":"src/CoinGenie.sol:CoinGenie","label":"name","offset":0,"slot":"1","type":"t_string_storage"},{"astId":3939,"contract":"src/CoinGenie.sol:CoinGenie","label":"symbol","offset":0,"slot":"2","type":"t_string_storage"},{"astId":3941,"contract":"src/CoinGenie.sol:CoinGenie","label":"initialSupply","offset":0,"slot":"3","type":"t_uint256"},{"astId":3943,"contract":"src/CoinGenie.sol:CoinGenie","label":"isBurnable","offset":0,"slot":"4","type":"t_bool"},{"astId":3945,"contract":"src/CoinGenie.sol:CoinGenie","label":"isDeflationary","offset":1,"slot":"4","type":"t_bool"},{"astId":3947,"contract":"src/CoinGenie.sol:CoinGenie","label":"maxPerWallet","offset":0,"slot":"5","type":"t_uint256"},{"astId":3949,"contract":"src/CoinGenie.sol:CoinGenie","label":"autoWithdrawThreshold","offset":0,"slot":"6","type":"t_uint256"},{"astId":3951,"contract":"src/CoinGenie.sol:CoinGenie","label":"maxTaxSwap","offset":0,"slot":"7","type":"t_uint256"},{"astId":3953,"contract":"src/CoinGenie.sol:CoinGenie","label":"affiliateFeeRecipient","offset":0,"slot":"8","type":"t_address"},{"astId":3955,"contract":"src/CoinGenie.sol:CoinGenie","label":"feeRecipient","offset":0,"slot":"9","type":"t_address"},{"astId":3957,"contract":"src/CoinGenie.sol:CoinGenie","label":"feePercentage","offset":0,"slot":"10","type":"t_uint256"},{"astId":3959,"contract":"src/CoinGenie.sol:CoinGenie","label":"burnPercentage","offset":0,"slot":"11","type":"t_uint256"}],"numberOfBytes":"384"},"t_struct(Payout)3985_storage":{"encoding":"inplace","label":"struct CoinGenie.Payout","members":[{"astId":3982,"contract":"src/CoinGenie.sol:CoinGenie","label":"receiver","offset":0,"slot":"0","type":"t_address_payable"},{"astId":3984,"contract":"src/CoinGenie.sol:CoinGenie","label":"share","offset":0,"slot":"1","type":"t_uint256"}],"numberOfBytes":"64"},"t_uint256":{"encoding":"inplace","label":"uint256","numberOfBytes":"32"}}},"userdoc":{"kind":"user","methods":{"constructor":{"notice":"Construct the CoinGenie contract."},"createClaimableAirdrop(address,address,uint256,uint256,uint256,bytes32)":{"notice":"Launch a new instance of the CoinGenieAirdropClaimable Contract."},"getClaimableAirdropsForAddress(address)":{"notice":"Get the airdrops created by a specific address."},"getLaunchedTokensForAddress(address)":{"notice":"Get the launched tokens."},"getPayoutAddress(uint8)":{"notice":"Get the payout address for a specific category."},"getPayoutShare(uint8)":{"notice":"Get the payout share for a specific category."},"launchToken(string,string,uint256,address,(bool,bool,bool),uint256,uint256,uint256,address,address,uint256,uint256)":{"notice":"Launch a new instance of the ERC20."},"setQuoteThreshold(uint256)":{"notice":"Set the threshold for the amount of tokens to swap for ETH."},"swapERC20s(address,address,uint256)":{"notice":"Swap ERC20 tokens for ETH."},"updatePayout(uint8,address,uint256)":{"notice":"Set the payout address for a specific category."},"withdraw()":{"notice":"Withdraw the contract balance to the payout addresses."}},"version":1}}}}