{"src/CoinGenieERC20.sol":{"CoinGenieERC20":{"abi":[{"inputs":[{"internalType":"string","name":"name_","type":"string"},{"internalType":"string","name":"symbol_","type":"string"},{"internalType":"uint256","name":"initialSupplyToSet","type":"uint256"},{"internalType":"address","name":"tokenOwner","type":"address"},{"components":[{"internalType":"bool","name":"isBurnable","type":"bool"},{"internalType":"bool","name":"isPausable","type":"bool"},{"internalType":"bool","name":"isDeflationary","type":"bool"}],"internalType":"struct Common.TokenConfigProperties","name":"customConfigProps","type":"tuple"},{"internalType":"uint256","name":"maxPerWallet","type":"uint256"},{"internalType":"uint256","name":"maxToSwapForTax","type":"uint256"},{"internalType":"uint256","name":"_autoWithdrawThreshold","type":"uint256"},{"internalType":"address","name":"_affilateFeeRecipient","type":"address"},{"internalType":"address","name":"_feeRecipient","type":"address"},{"internalType":"uint256","name":"_feePercentage","type":"uint256"},{"internalType":"uint256","name":"_burnPercentage","type":"uint256"}],"stateMutability":"nonpayable","type":"constructor"},{"inputs":[],"name":"BurningNotEnabled","type":"error"},{"inputs":[{"internalType":"address","name":"addr","type":"address"}],"name":"DestBalanceExceedsMaxAllowed","type":"error"},{"inputs":[],"name":"GenieAlreadySet","type":"error"},{"inputs":[{"internalType":"uint256","name":"amount","type":"uint256"},{"internalType":"uint256","name":"minAmount","type":"uint256"}],"name":"InsufficientETH","type":"error"},{"inputs":[{"internalType":"uint256","name":"amount","type":"uint256"},{"internalType":"uint256","name":"minAmount","type":"uint256"}],"name":"InsufficientTokens","type":"error"},{"inputs":[{"internalType":"uint256","name":"bps","type":"uint256"}],"name":"InvalidDeflationBPS","type":"error"},{"inputs":[{"internalType":"uint256","name":"maxPerWallet","type":"uint256"}],"name":"InvalidMaxTokenAmount","type":"error"},{"inputs":[{"internalType":"uint256","name":"bps","type":"uint256"}],"name":"InvalidTaxBPS","type":"error"},{"inputs":[],"name":"MaxTokenAmountPerAddrLtPrevious","type":"error"},{"inputs":[],"name":"PausingNotEnabled","type":"error"},{"inputs":[],"name":"TokenIsNotDeflationary","type":"error"},{"inputs":[],"name":"TradingAlreadyOpen","type":"error"},{"anonymous":false,"inputs":[{"indexed":true,"internalType":"address","name":"owner","type":"address"},{"indexed":true,"internalType":"address","name":"spender","type":"address"},{"indexed":false,"internalType":"uint256","name":"value","type":"uint256"}],"name":"Approval","type":"event"},{"anonymous":false,"inputs":[{"indexed":true,"internalType":"uint256","name":"_burnPercentage","type":"uint256"}],"name":"BurnConfigUpdated","type":"event"},{"anonymous":false,"inputs":[{"indexed":true,"internalType":"address","name":"_feeRecipient","type":"address"},{"indexed":true,"internalType":"uint256","name":"_feePercentage","type":"uint256"}],"name":"FeeConfigUpdated","type":"event"},{"anonymous":false,"inputs":[{"indexed":true,"internalType":"uint256","name":"newMaxTokenAmount","type":"uint256"}],"name":"MaxTokensPerWalletSet","type":"event"},{"anonymous":false,"inputs":[{"indexed":true,"internalType":"address","name":"previousOwner","type":"address"},{"indexed":true,"internalType":"address","name":"newOwner","type":"address"}],"name":"OwnershipTransferred","type":"event"},{"anonymous":false,"inputs":[{"indexed":false,"internalType":"address","name":"account","type":"address"}],"name":"Paused","type":"event"},{"anonymous":false,"inputs":[{"indexed":true,"internalType":"address","name":"pair","type":"address"}],"name":"TradingOpened","type":"event"},{"anonymous":false,"inputs":[{"indexed":true,"internalType":"address","name":"from","type":"address"},{"indexed":true,"internalType":"address","name":"to","type":"address"},{"indexed":false,"internalType":"uint256","name":"value","type":"uint256"}],"name":"Transfer","type":"event"},{"anonymous":false,"inputs":[{"indexed":false,"internalType":"address","name":"account","type":"address"}],"name":"Unpaused","type":"event"},{"inputs":[],"name":"UNISWAP_V2_ROUTER","outputs":[{"internalType":"contract IUniswapV2Router02","name":"","type":"address"}],"stateMutability":"view","type":"function"},{"inputs":[],"name":"affiliateFeePercentage","outputs":[{"internalType":"uint256","name":"","type":"uint256"}],"stateMutability":"view","type":"function"},{"inputs":[],"name":"affiliateFeeRecipient","outputs":[{"internalType":"address","name":"","type":"address"}],"stateMutability":"view","type":"function"},{"inputs":[{"internalType":"address","name":"owner","type":"address"},{"internalType":"address","name":"spender","type":"address"}],"name":"allowance","outputs":[{"internalType":"uint256","name":"","type":"uint256"}],"stateMutability":"view","type":"function"},{"inputs":[{"internalType":"address","name":"spender","type":"address"},{"internalType":"uint256","name":"amount","type":"uint256"}],"name":"approve","outputs":[{"internalType":"bool","name":"","type":"bool"}],"stateMutability":"nonpayable","type":"function"},{"inputs":[],"name":"autoWithdrawThreshold","outputs":[{"internalType":"uint256","name":"","type":"uint256"}],"stateMutability":"view","type":"function"},{"inputs":[{"internalType":"address","name":"account","type":"address"}],"name":"balanceOf","outputs":[{"internalType":"uint256","name":"","type":"uint256"}],"stateMutability":"view","type":"function"},{"inputs":[{"internalType":"uint256","name":"amount","type":"uint256"}],"name":"burn","outputs":[],"stateMutability":"nonpayable","type":"function"},{"inputs":[{"internalType":"address","name":"from","type":"address"},{"internalType":"uint256","name":"amount","type":"uint256"}],"name":"burnFrom","outputs":[],"stateMutability":"nonpayable","type":"function"},{"inputs":[],"name":"burnPercentage","outputs":[{"internalType":"uint256","name":"","type":"uint256"}],"stateMutability":"view","type":"function"},{"inputs":[],"name":"coinGenieTreasury","outputs":[{"internalType":"address","name":"","type":"address"}],"stateMutability":"view","type":"function"},{"inputs":[],"name":"decimals","outputs":[{"internalType":"uint8","name":"","type":"uint8"}],"stateMutability":"view","type":"function"},{"inputs":[{"internalType":"address","name":"spender","type":"address"},{"internalType":"uint256","name":"subtractedValue","type":"uint256"}],"name":"decreaseAllowance","outputs":[{"internalType":"bool","name":"","type":"bool"}],"stateMutability":"nonpayable","type":"function"},{"inputs":[],"name":"discountFeeRequiredAmount","outputs":[{"internalType":"uint256","name":"","type":"uint256"}],"stateMutability":"view","type":"function"},{"inputs":[],"name":"feePercentage","outputs":[{"internalType":"uint256","name":"","type":"uint256"}],"stateMutability":"view","type":"function"},{"inputs":[],"name":"feeRecipient","outputs":[{"internalType":"address","name":"","type":"address"}],"stateMutability":"view","type":"function"},{"inputs":[],"name":"genieToken","outputs":[{"internalType":"address","name":"","type":"address"}],"stateMutability":"view","type":"function"},{"inputs":[{"internalType":"address","name":"spender","type":"address"},{"internalType":"uint256","name":"addedValue","type":"uint256"}],"name":"increaseAllowance","outputs":[{"internalType":"bool","name":"","type":"bool"}],"stateMutability":"nonpayable","type":"function"},{"inputs":[],"name":"initialSupply","outputs":[{"internalType":"uint256","name":"","type":"uint256"}],"stateMutability":"view","type":"function"},{"inputs":[],"name":"isBurnable","outputs":[{"internalType":"bool","name":"","type":"bool"}],"stateMutability":"view","type":"function"},{"inputs":[],"name":"isDeflationary","outputs":[{"internalType":"bool","name":"","type":"bool"}],"stateMutability":"view","type":"function"},{"inputs":[],"name":"isPausable","outputs":[{"internalType":"bool","name":"","type":"bool"}],"stateMutability":"view","type":"function"},{"inputs":[],"name":"isSwapEnabled","outputs":[{"internalType":"bool","name":"","type":"bool"}],"stateMutability":"view","type":"function"},{"inputs":[],"name":"lpEthFeePercentage","outputs":[{"internalType":"uint256","name":"","type":"uint256"}],"stateMutability":"view","type":"function"},{"inputs":[],"name":"manualSwap","outputs":[],"stateMutability":"nonpayable","type":"function"},{"inputs":[],"name":"maxTaxSwap","outputs":[{"internalType":"uint256","name":"","type":"uint256"}],"stateMutability":"view","type":"function"},{"inputs":[],"name":"maxTokenAmountPerAddress","outputs":[{"internalType":"uint256","name":"","type":"uint256"}],"stateMutability":"view","type":"function"},{"inputs":[],"name":"name","outputs":[{"internalType":"string","name":"","type":"string"}],"stateMutability":"view","type":"function"},{"inputs":[{"internalType":"uint256","name":"amountToLP","type":"uint256"}],"name":"openTrading","outputs":[{"internalType":"contract IUniswapV2Pair","name":"","type":"address"}],"stateMutability":"payable","type":"function"},{"inputs":[],"name":"owner","outputs":[{"internalType":"address","name":"","type":"address"}],"stateMutability":"view","type":"function"},{"inputs":[],"name":"pause","outputs":[],"stateMutability":"nonpayable","type":"function"},{"inputs":[],"name":"paused","outputs":[{"internalType":"bool","name":"","type":"bool"}],"stateMutability":"view","type":"function"},{"inputs":[],"name":"renounceOwnership","outputs":[],"stateMutability":"nonpayable","type":"function"},{"inputs":[{"internalType":"uint256","name":"threshold","type":"uint256"}],"name":"setAutoWithdrawThreshold","outputs":[],"stateMutability":"nonpayable","type":"function"},{"inputs":[{"internalType":"address","name":"coinGenieAddress","type":"address"}],"name":"setCoinGenieTreasury","outputs":[],"stateMutability":"nonpayable","type":"function"},{"inputs":[{"internalType":"uint256","name":"_burnPercentage","type":"uint256"}],"name":"setDeflationConfig","outputs":[],"stateMutability":"nonpayable","type":"function"},{"inputs":[{"internalType":"uint256","name":"amount","type":"uint256"}],"name":"setDiscountFeeRequiredAmount","outputs":[],"stateMutability":"nonpayable","type":"function"},{"inputs":[{"internalType":"address","name":"genie","type":"address"}],"name":"setGenie","outputs":[],"stateMutability":"nonpayable","type":"function"},{"inputs":[{"internalType":"uint256","name":"maxTax","type":"uint256"}],"name":"setMaxTaxSwap","outputs":[],"stateMutability":"nonpayable","type":"function"},{"inputs":[{"internalType":"uint256","name":"newMaxTokenAmount","type":"uint256"}],"name":"setMaxTokenAmountPerAddress","outputs":[],"stateMutability":"nonpayable","type":"function"},{"inputs":[{"internalType":"address","name":"_feeRecipient","type":"address"},{"internalType":"uint256","name":"_feePercentage","type":"uint256"}],"name":"setTaxConfig","outputs":[],"stateMutability":"nonpayable","type":"function"},{"inputs":[],"name":"symbol","outputs":[{"internalType":"string","name":"","type":"string"}],"stateMutability":"view","type":"function"},{"inputs":[],"name":"tokenConfig","outputs":[{"internalType":"bool","name":"isBurnable","type":"bool"},{"internalType":"bool","name":"isPausable","type":"bool"},{"internalType":"bool","name":"isDeflationary","type":"bool"}],"stateMutability":"view","type":"function"},{"inputs":[],"name":"totalSupply","outputs":[{"internalType":"uint256","name":"","type":"uint256"}],"stateMutability":"view","type":"function"},{"inputs":[{"internalType":"address","name":"to","type":"address"},{"internalType":"uint256","name":"amount","type":"uint256"}],"name":"transfer","outputs":[{"internalType":"bool","name":"","type":"bool"}],"stateMutability":"nonpayable","type":"function"},{"inputs":[{"internalType":"address","name":"from","type":"address"},{"internalType":"address","name":"to","type":"address"},{"internalType":"uint256","name":"amount","type":"uint256"}],"name":"transferFrom","outputs":[{"internalType":"bool","name":"","type":"bool"}],"stateMutability":"nonpayable","type":"function"},{"inputs":[{"internalType":"address","name":"newOwner","type":"address"}],"name":"transferOwnership","outputs":[],"stateMutability":"nonpayable","type":"function"},{"inputs":[],"name":"treasuryFeePercentage","outputs":[{"internalType":"uint256","name":"","type":"uint256"}],"stateMutability":"view","type":"function"},{"inputs":[],"name":"uniswapV2Pair","outputs":[{"internalType":"address","name":"","type":"address"}],"stateMutability":"view","type":"function"},{"inputs":[],"name":"unpause","outputs":[],"stateMutability":"nonpayable","type":"function"}],"devdoc":{"author":"@neuro_0x","errors":{"DestBalanceExceedsMaxAllowed(address)":[{"params":{"addr":"The address whose balance would exceed the limit."}}],"InsufficientETH(uint256,uint256)":[{"params":{"amount":"The provided ETH amount.","minAmount":"The minimum required ETH amount."}}],"InsufficientTokens(uint256,uint256)":[{"params":{"amount":"The provided token amount.","minAmount":"The minimum required token amount."}}],"InvalidDeflationBPS(uint256)":[{"params":{"bps":"The invalid basis points for deflation."}}],"InvalidTaxBPS(uint256)":[{"params":{"bps":"The invalid basis points for tax."}}]},"events":{"Approval(address,address,uint256)":{"details":"Emitted when the allowance of a `spender` for an `owner` is set by a call to {approve}. `value` is the new allowance."},"BurnConfigUpdated(uint256)":{"params":{"_burnPercentage":"The updated burn percentage."}},"FeeConfigUpdated(address,uint256)":{"params":{"_feePercentage":"The updated fee percentage.","_feeRecipient":"The updated fee recipient address."}},"MaxTokensPerWalletSet(uint256)":{"params":{"newMaxTokenAmount":"The new maximum token amount per wallet."}},"Paused(address)":{"details":"Emitted when the pause is triggered by `account`."},"TradingOpened(address)":{"params":{"pair":"The address of the LP token."}},"Transfer(address,address,uint256)":{"details":"Emitted when `value` tokens are moved from one account (`from`) to another (`to`). Note that `value` may be zero."},"Unpaused(address)":{"details":"Emitted when the pause is lifted by `account`."}},"kind":"dev","methods":{"allowance(address,address)":{"details":"See {IERC20-allowance}."},"approve(address,uint256)":{"details":"See {IERC20-approve}. NOTE: If `amount` is the maximum `uint256`, the allowance is not updated on `transferFrom`. This is semantically equivalent to an infinite approval. Requirements: - `spender` cannot be the zero address."},"balanceOf(address)":{"details":"See {IERC20-balanceOf}."},"burn(uint256)":{"details":"Allows to burn a predefined amount of tokens","params":{"amount":"- the amount of tokens to burn"}},"burnFrom(address,uint256)":{"details":"Allows to burn a predefined amount of tokens from a predefined address","params":{"amount":"- the amount of tokens to burn","from":"- the address to burn the tokens from"}},"constructor":{"details":"Initializes the contract with the provided parameters","params":{"_affilateFeeRecipient":"The address of the affiliate fee recipient","_burnPercentage":"The burn percentage in basis points","_feePercentage":"The fee percentage in basis points","_feeRecipient":"The address of the fee recipient","customConfigProps":"Represents the features of the token","initialSupplyToSet":"The initial supply of the token","maxPerWallet":"The max amount of tokens per wallet","maxToSwapForTax":"The max amount of tokens to swap for tax","name_":"The name of the token","symbol_":"The symbol of the token","tokenOwner":"The owner of the token"}},"decimals()":{"returns":{"_0":"number of decimals for the token"}},"decreaseAllowance(address,uint256)":{"details":"Atomically decreases the allowance granted to `spender` by the caller. This is an alternative to {approve} that can be used as a mitigation for problems described in {IERC20-approve}. Emits an {Approval} event indicating the updated allowance. Requirements: - `spender` cannot be the zero address. - `spender` must have allowance for the caller of at least `subtractedValue`."},"increaseAllowance(address,uint256)":{"details":"Atomically increases the allowance granted to `spender` by the caller. This is an alternative to {approve} that can be used as a mitigation for problems described in {IERC20-approve}. Emits an {Approval} event indicating the updated allowance. Requirements: - `spender` cannot be the zero address."},"isBurnable()":{"returns":{"_0":"true if the token is burnable"}},"isDeflationary()":{"returns":{"_0":"true if the token supports deflation"}},"isPausable()":{"returns":{"_0":"true if the token is pausable"}},"manualSwap()":{"details":"Swaps tokens for ETH if the contract balance is greater than the max amount to swap for tax. Then sends the ETH to the tax wallet."},"name()":{"details":"Returns the name of the token."},"openTrading(uint256)":{"details":"Opens trading for the token by adding liquidity to Uniswap.","params":{"amountToLP":"The amount of tokens to add to Uniswap Emits a {TradingOpened} event. Preconditions: Requirements: `isSwapEnabled` must be false. `amountToLP >= _MIN_LIQUIDITY_TOKEN` `msg.value >= _MIN_LIQUIDITY_ETH`"}},"owner()":{"details":"Returns the address of the current owner."},"pause()":{"details":"Allows to pause the token"},"paused()":{"details":"Returns true if the contract is paused, and false otherwise."},"renounceOwnership()":{"details":"Leaves the contract without owner. It will not be possible to call `onlyOwner` functions. Can only be called by the current owner. NOTE: Renouncing ownership will leave the contract without an owner, thereby disabling any functionality that is only available to the owner."},"setAutoWithdrawThreshold(uint256)":{"details":"Allows the owner to set the max amount of tokens the contract can accrue before swapping them for ETH","params":{"threshold":"- the new max amount of tokens to swap for tax"}},"setCoinGenieTreasury(address)":{"details":"Allows the owner to set the address of the coingenie","params":{"coinGenieAddress":"- the address of the coinGenie"}},"setDeflationConfig(uint256)":{"details":"Allows the owner to set the deflation config","params":{"_burnPercentage":"- the new burnPercentage"}},"setDiscountFeeRequiredAmount(uint256)":{"details":"Sets the amount of tokens needed to get the discount","params":{"amount":"- the amount of tokens required to hold to get the discount"}},"setGenie(address)":{"details":"Sets the address of the genie token","params":{"genie":"- the address of the genie token"}},"setMaxTaxSwap(uint256)":{"details":"Allows the owner to set the max amount of tokens the contract can accrue before swapping them for ETH","params":{"maxTax":"- the new max amount of tokens to swap for tax"}},"setMaxTokenAmountPerAddress(uint256)":{"details":"Allows the owner to set a max amount of tokens per wallet","params":{"newMaxTokenAmount":"- the new max amount of tokens per wallet"}},"setTaxConfig(address,uint256)":{"details":"Allows the owner to set the tax config","params":{"_feePercentage":"- the new feePercentage","_feeRecipient":"- the new feeRecipient"}},"symbol()":{"details":"Returns the symbol of the token, usually a shorter version of the name."},"totalSupply()":{"details":"See {IERC20-totalSupply}."},"transfer(address,uint256)":{"details":"Allows to transfer a predefined amount of tokens to a predefined address","params":{"amount":"- the amount of tokens to transfer","to":"- the address to transfer the tokens to"},"returns":{"_0":"true if the transfer was successful"}},"transferFrom(address,address,uint256)":{"details":"Allows to transfer a predefined amount of tokens from a predefined address to a predefined address","params":{"amount":"- the amount of tokens to transfer","from":"- the address to transfer the tokens from","to":"- the address to transfer the tokens to"},"returns":{"_0":"true if the transfer was successful"}},"transferOwnership(address)":{"details":"Transfers ownership of the contract to a new account (`newOwner`). Can only be called by the current owner."},"unpause()":{"details":"Allows to unpause the token"}},"stateVariables":{"UNISWAP_V2_ROUTER":{"details":"The address of the Uniswap V2 Router. The contract uses the router for liquidity provision and token swaps"},"_MAX_BPS":{"details":"The max basis points representing 100%"},"_MAX_TAX":{"details":"The max tax that can be applied to a transaction. The value is in ether but is handled as 5%."},"_MIN_LIQUIDITY_ETH":{"details":"The minimum amount of eth that must be added to Uniswap when trading is opened."},"_MIN_LIQUIDITY_TOKEN":{"details":"The minimum amount of erc20 token that must be added to Uniswap when trading is opened."},"_inSwap":{"details":"Are we currently swapping tokens for ETH?"},"_tokenDecimals":{"details":"number of decimals of the token"},"affiliateFeePercentage":{"details":"the affiliate fee percentage taken on transfers"},"affiliateFeeRecipient":{"details":"address of the affiliate fee recipient"},"autoWithdrawThreshold":{"details":"max amount of ETH the contract can accrue before withdrawing them to the fee recipient"},"burnPercentage":{"details":"the affiliate fee percentage in basis points"},"coinGenieTreasury":{"details":"address of the royalty fee recipient (Coin Genie)"},"discountFeeRequiredAmount":{"details":"The amount of $GENIE a person has to hold to get the discount"},"feePercentage":{"details":"the fee percentage in basis points"},"feeRecipient":{"details":"the address of the fee recipient"},"genieToken":{"details":"The address of the genie token"},"initialSupply":{"details":"initial number of tokens which will be minted during initialization"},"isSwapEnabled":{"details":"The flag for whether swapping is enabled and trading open"},"lpEthFeePercentage":{"details":"the percent of eth taken when liquidity is open"},"maxTaxSwap":{"details":"max amount of tokens the contract can accrue before swapping them for ETH"},"maxTokenAmountPerAddress":{"details":"max amount of tokens allowed per wallet"},"tokenConfig":{"details":"features of the token"},"treasuryFeePercentage":{"details":"the royalty fee percentage taken on transfers"},"uniswapV2Pair":{"details":"The address of the LP token. The contract uses the LP token to determine if a transfer is a buy or sell"}},"title":"CoinGenieERC20","version":1},"evm":{"bytecode":{"linkReferences":{},"object":"60e0604052346200005b576200002e62000018620002f7565b9a999099989198979297969396959495620004b1565b604051612e1462000bdb823960805181610595015260a0518161063f015260c05181610a980152612e1490f35b600080fd5b634e487b7160e01b600052604160045260246000fd5b90601f01601f191681019081106001600160401b038211176200009857604052565b62000060565b90620000b5620000ad60405190565b928362000076565b565b6001600160401b0381116200009857602090601f01601f19160190565b60005b838110620000e85750506000910152565b8181015183820152602001620000d7565b90929192620001126200010c82620000b7565b6200009e565b938185526020850190828401116200005b57620000b592620000d4565b9080601f830112156200005b5781516200014c92602001620000f9565b90565b805b036200005b57565b90505190620000b5826200014f565b6001600160a01b031690565b6001600160a01b03811662000151565b90505190620000b58262000174565b80151562000151565b90505190620000b58262000193565b9190916060818403126200005b57620001fb620001c960606200009e565b936000620001d882856200019c565b908601526020620001ec828286016200019c565b9086015260408093016200019c565b90830152565b90916101c0828403126200005b5781516001600160401b0381116200005b57836200022e9184016200012f565b60208301519093906001600160401b0381116200005b5781620002539185016200012f565b9262000263826040830162000159565b9262000273836060840162000184565b92620002838160808501620001ab565b92620002938260e0830162000159565b92620002a483610100840162000159565b92620002b581610120850162000159565b92620002c682610140830162000184565b926200014c620002db84610160850162000184565b93620002ec81610180860162000159565b936101a00162000159565b6200031a620039ef803803806200030e816200009e565b92833981019062000201565b909192939495969798999a9b565b90600019905b9181191691161790565b6200014c6200014c6200014c9290565b906200035c6200014c620003649262000338565b825462000328565b9055565b620003786200014c6200014c9290565b60ff1690565b6200014c6107d062000338565b9060ff906200032e565b90620003a86200014c6200036492151590565b82546200038b565b9061ff009060081b6200032e565b90620003d16200014c6200036492151590565b8254620003b0565b9062ff00009060101b6200032e565b90620003fb6200014c6200036492151590565b8254620003d9565b620000b5916200044690604090620004266200041f8251151590565b8562000395565b6200043f620004386020830151151590565b85620003be565b0151151590565b90620003e8565b90620000b59162000403565b906001600160a01b03906200032e565b6200014c9062000168906001600160a01b031682565b6200014c9062000469565b6200014c906200047f565b90620004a96200014c62000364926200048a565b825462000459565b90620004c5919b939b9a9998929a62000664565b620004dc690a968163f0a57b400000600762000348565b620004ea6019601062000348565b620005056032620004fd81601262000348565b601362000348565b620005108a62000bc1565b8860a05262000520601262000368565b60805260c052620005306200037e565b8088116200062f576040830151620005c0575b5050926200057b6200059e9695936200057362000583946200056b6200059698600c6200044d565b600962000348565b600a62000348565b600b62000348565b6200058e8162000bc1565b600d62000495565b600f62000348565b620005aa600062000338565b8103620005b5575050565b620000b59162000a37565b811162000602576200059e9695936200057362000583946200056b620005969895620005f26200057b96601162000348565b9598505094505093959662000543565b6200062b906200061160405190565b6305dba32960e51b81529182916004830190815260200190565b0390fd5b6200062b886200063e60405190565b6365a0074b60e11b81529182916004830190815260200190565b6200014c600162000338565b90620006709162000686565b620000b56200067e62000658565b600662000348565b9062000692916200069d565b620000b53362000913565b620000b591620006ad91620006bb565b620000b56000600562000395565b90620000b591620008af565b634e487b7160e01b600052602260045260246000fd5b906001600283049216801562000700575b6020831014620006fa57565b620006c7565b91607f1691620006ee565b9160001960089290920291821b911b6200032e565b9190620007356200014c620003649362000338565b9083546200070b565b620000b59160009162000720565b81811062000758575050565b806200076860006001936200073e565b016200074c565b9190601f81116200077f57505050565b62000793620000b593600052602060002090565b906020601f840181900483019310620007b7575b6020601f9091010401906200074c565b9091508190620007a7565b90620007cc815190565b906001600160401b0382116200009857620007f482620007ed8554620006dd565b856200076f565b602090601f831160011462000833576200036492916000918362000827575b5050600019600883021c1916906002021790565b01519050388062000813565b601f198316916200084985600052602060002090565b9260005b8181106200088a5750916002939185600196941062000870575b50505002019055565b01516000196008601f8516021c1916905538808062000867565b919360206001819287870151815501950192016200084d565b90620000b591620007c2565b90620008c1620000b5926003620008a3565b6004620008a3565b6200014c9060081c62000168565b6200014c9054620008c9565b90610100600160a81b039060081b6200032e565b906200090b6200014c62000364926200048a565b8254620008e3565b6200091f6005620008d7565b906200092d816005620008f7565b620009646200095d7f8be0079c531659141344cd1fd0a4f28419497f9722a3daafe3b4186f6b6457e0936200048a565b916200048a565b916200096f60405190565b80805b0390a3565b620001686200014c6200014c9290565b6200014c9062000977565b156200099a57565b60405162461bcd60e51b815260206004820152601f60248201527f45524332303a206d696e7420746f20746865207a65726f2061646472657373006044820152606490fd5b6200014c9081565b6200014c9054620009df565b634e487b7160e01b600052601160045260246000fd5b9190820180921162000a1757565b620009f3565b9062000a29906200048a565b600052602052604060002090565b600062000abf62000aa48362000a4d8462000987565b9362000a6e6001600160a01b0386166001600160a01b038416141562000992565b62000a7b87838762000b12565b62000a9e62000a968862000a906002620009e7565b62000a09565b600262000348565b62000a1d565b62000ab88562000ab483620009e7565b0190565b9062000348565b6200097262000afa62000af37fddf252ad1be2c89b69c2b068fc378daa952ba7f163c4a11628f55a4df523b3ef936200048a565b936200048a565b9362000b0560405190565b9182918290815260200190565b90620000b5929162000b7f565b1562000b2757565b60405162461bcd60e51b815260206004820152602a60248201527f45524332305061757361626c653a20746f6b656e207472616e736665722077686044820152691a5b19481c185d5cd95960b21b6064820152608490fd5b505050620000b562000b9862000b9462000bb5565b1590565b62000b1f565b6200014c9062000378565b6200014c905462000b9e565b6200014c600562000ba9565b60601b1562000bcc57565b63d92e233d6000526004601cfdfe6080604052600436101561001257600080fd5b60003560e01c806302252c4d1461033257806306fdde031461032d578063095ea7b31461032857806312d75f131461032357806318160ddd1461031e57806323b872dd14610319578063313ce567146103145780633381e7e21461030f578063351a964d1461030a578063378dc3dc1461030557806339509351146103005780633f4ba83a146102fb57806342966c68146102f657806346904840146102f157806349bd5a5e146102ec5780634c09f37c146102e757806351bc3c85146102e25780635c975abb146102dd57806362997f8c146102d85780636e2759f3146102d357806370a08231146102ce578063715018a6146102c957806379cc6790146102c45780638456cb59146102bf57806384c5dd01146102ba578063883356d9146102b55780638da5cb5b146102b05780638e8c10a2146102ab57806395d89b41146102a657806399735fd8146102a1578063a001ecdd1461029c578063a09a160114610297578063a457c2d714610292578063a82ed9ec1461028d578063a9059cbb14610288578063b9d0f1af14610283578063ba9341c01461027e578063c68ff0fe14610279578063d163364914610274578063d1ed0a0f1461026f578063d48e41271461026a578063d8f6785114610265578063dcc79cc814610260578063dd62ed3e1461025b578063e08973ce14610256578063ec57459c14610251578063f01f20df1461024c578063f19c4e3b14610247578063f2fde38b146102425763f69cf7830361033757610c35565b610c1d565b610c04565b610be9565b610bc2565b610b9b565b610b73565b610b38565b610b20565b610b05565b610ade565b610abc565b610a83565b610a47565b6109cf565b6109b3565b61098c565b61090c565b6108f1565b6108d6565b6108af565b610888565b61086d565b610852565b610837565b61081c565b6107f8565b6107df565b6107c7565b6107ac565b610794565b610779565b610752565b61073a565b61071f565b6106e2565b6106bb565b610697565b61067f565b610663565b61062a565b61060f565b6105d2565b610580565b610564565b610508565b6104d2565b610479565b610403565b61036b565b600080fd5b805b0361033757565b905035906103528261033c565b565b906020828203126103375761036891610345565b90565b346103375761038361037e366004610354565b6113b5565b604051005b0390f35b600091031261033757565b60005b8381106103aa5750506000910152565b818101518382015260200161039a565b6103db6103e46020936103ee936103cf815190565b80835293849260200190565b95869101610397565b601f01601f191690565b0190565b6020808252610368929101906103ba565b346103375761041336600461038c565b61038861041e610f93565b604051918291826103f2565b6001600160a01b031690565b6001600160a01b03811661033e565b9050359061035282610436565b9190604083820312610337576103689061046c8185610445565b93602001610345565b9052565b346103375761038861049561048f366004610452565b90611016565b60405191829182901515815260200190565b610368916008021c6001600160a01b031690565b9061036891546104a7565b610368600060086104bb565b34610337576104e236600461038c565b6103886104ed6104c6565b6040515b918291826001600160a01b03909116815260200190565b346103375761051836600461038c565b610388610523610fb8565b6040515b9182918290815260200190565b90916060828403126103375761036861054d8484610445565b9361055b8160208601610445565b93604001610345565b346103375761038861049561057a366004610534565b91611e91565b346103375761059036600461038c565b6040517f000000000000000000000000000000000000000000000000000000000000000060ff168152602090f35b906020828203126103375761036891610445565b34610337576103836105e53660046105be565b6112b6565b610368916008021c5b60ff1690565b9061036891546105ea565b6103686014806105f9565b346103375761061f36600461038c565b610388610495610604565b346103375761063a36600461038c565b6103887f0000000000000000000000000000000000000000000000000000000000000000610523565b3461033757610388610495610679366004610452565b9061104e565b346103375761068f36600461038c565b6103836120b0565b34610337576103836106aa366004610354565b611f76565b6103686000600d6104bb565b34610337576106cb36600461038c565b6103886104ed6106af565b610368600060146104bb565b34610337576106f236600461038c565b6103886104ed6106d6565b610368916008021c81565b9061036891546106fd565b61036860006012610708565b346103375761072f36600461038c565b610388610523610713565b346103375761074a36600461038c565b610383612993565b346103375761076236600461038c565b610388610495610e54565b6103686000600a610708565b346103375761078936600461038c565b61038861052361076d565b34610337576103836107a7366004610354565b6128eb565b34610337576103886105236107c23660046105be565b610fda565b34610337576107d736600461038c565b610383610ca5565b34610337576103836107f2366004610452565b90611fc1565b346103375761080836600461038c565b61038361200e565b6103686000600b610708565b346103375761082c36600461038c565b610388610523610810565b346103375761084736600461038c565b610388610495611269565b346103375761086236600461038c565b6103886104ed610c63565b346103375761087d36600461038c565b610388610495611273565b346103375761089836600461038c565b61038861041e610f9d565b6103686000600e6104bb565b34610337576108bf36600461038c565b6103886104ed6108a3565b6103686000600f610708565b34610337576108e636600461038c565b6103886105236108ca565b346103375761090136600461038c565b61038861049561125f565b3461033757610388610495610922366004610452565b906110c7565b6103689061042a906001600160a01b031682565b61036890610928565b6103689061093c565b610368737a250d5630b4cf539739df2c5dacb4c659f2488d610945565b61036861094e565b61047590610945565b6020810192916103529190610973565b346103375761099c36600461038c565b6103886109a761096b565b6040519182918261097c565b34610337576103886104956109c9366004610452565b9061188d565b34610337576103836109e2366004610354565b611309565b610368906105f3565b61036890546109e7565b6103689060081c6105f3565b61036890546109fa565b6103689060101c6105f3565b6103689054610a10565b600c610a31816109f0565b916103686000610a4084610a06565b9301610a1c565b3461033757610a5736600461038c565b610388610a62610a26565b60408051931515845291151560208401521515908201529081906060820190565b3461033757610a9336600461038c565b6103887f00000000000000000000000000000000000000000000000000000000000000006104ed565b6103886109a7610acd366004610354565b6127a1565b61036860006010610708565b3461033757610aee36600461038c565b610388610523610ad2565b61036860006009610708565b3461033757610b1536600461038c565b610388610523610af9565b3461033757610383610b33366004610354565b611579565b3461033757610383610b4b3660046105be565b6128cb565b91906040838203126103375761036890610b6a8185610445565b93602001610445565b3461033757610388610523610b89366004610b50565b90610ff6565b61036860006013610708565b3461033757610bab36600461038c565b610388610523610b8f565b61036860006007610708565b3461033757610bd236600461038c565b610388610523610bb6565b61036860006011610708565b3461033757610bf936600461038c565b610388610523610bdd565b3461033757610383610c17366004610452565b906114c9565b3461033757610383610c303660046105be565b610dbc565b3461033757610383610c48366004610354565b611329565b6103689060081c61042a565b6103689054610c4d565b6103686005610c59565b610c75610d01565b610352610c93565b61042a6103686103689290565b61036890610c7d565b610352610ca06000610c8a565b610df9565b610352610c6d565b15610cb457565b60405162461bcd60e51b815280610cfd600482016020808252818101527f4f776e61626c653a2063616c6c6572206973206e6f7420746865206f776e6572604082015260600190565b0390fd5b610352610d0c610c63565b610d25610d183361042a565b916001600160a01b031690565b14610cad565b61035290610d37610d01565b610d97565b15610d4357565b60405162461bcd60e51b815260206004820152602660248201527f4f776e61626c653a206e6577206f776e657220697320746865207a65726f206160448201526564647265737360d01b6064820152608490fd5b61035290610ca0610dab61042a6000610c8a565b6001600160a01b0383161415610d3c565b61035290610d2b565b90610100600160a81b039060081b5b9181191691161790565b90610dee610368610df592610945565b8254610dc5565b9055565b610e036005610c59565b90610e0f816005610dde565b610e42610e3c7f8be0079c531659141344cd1fd0a4f28419497f9722a3daafe3b4186f6b6457e093610945565b91610945565b91610e4c60405190565b80805b0390a3565b61036860056109f0565b634e487b7160e01b600052602260045260246000fd5b9060016002830492168015610e94575b6020831014610e8f57565b610e5e565b91607f1691610e84565b80546000939291610ebb610eb183610e74565b8085529360200190565b9160018116908115610f0d5750600114610ed457505050565b610ee79192939450600052602060002090565b916000925b818410610ef95750500190565b805484840152602090930192600101610eec565b92949550505060ff1916825215156020020190565b9061036891610e9e565b634e487b7160e01b600052604160045260246000fd5b90601f01601f1916810190811067ffffffffffffffff821117610f6457604052565b610f2c565b90610352610f8392610f7a60405190565b93848092610f22565b0383610f42565b61036890610f69565b6103686003610f8a565b6103686004610f8a565b6103689081565b6103689054610fa7565b6103686002610fae565b90610fcc90610945565b600052602052604060002090565b610ff161036891610fe9600090565b506000610fc2565b610fae565b61036891611011610ff192611009600090565b506001610fc2565b610fc2565b6110219190336111c8565b600190565b634e487b7160e01b600052601160045260246000fd5b9190820180921161104957565b611026565b611021919061106733926110628385610ff6565b61103c565b916111c8565b1561107457565b60405162461bcd60e51b815260206004820152602560248201527f45524332303a2064656372656173656420616c6c6f77616e63652062656c6f77604482015264207a65726f60d81b6064820152608490fd5b611021919061106733926110db8385610ff6565b6110e78282101561106d565b0390565b156110f257565b60405162461bcd60e51b8152602060048201526024808201527f45524332303a20617070726f76652066726f6d20746865207a65726f206164646044820152637265737360e01b6064820152608490fd5b1561114a57565b60405162461bcd60e51b815260206004820152602260248201527f45524332303a20617070726f766520746f20746865207a65726f206164647265604482015261737360f01b6064820152608490fd5b9060001990610dd4565b6103686103686103689290565b906111c1610368610df5926111a4565b825461119a565b6112076111f66111d86000610c8a565b61042a6001600160a01b0382166001600160a01b03861614156110eb565b6001600160a01b0384161415611143565b61121f8361121a84611011856001610fc2565b6111b1565b610e4f61125561124f7f8c5be1e5ebec7d5bd14f71427d1e84f3dd0314c0f7b2291e5b200ac8c7c3b92593610945565b93610945565b9361052760405190565b610368600c610a06565b610368600c6109f0565b610368600c610a1c565b6103689061042a565b610368905461127d565b906001600160a01b0390610dd4565b906112af610368610df592610945565b8254611290565b6112c0600e611286565b6112d0610d1861042a6000610c8a565b036112e05761035290600e61129f565b60405163131d002d60e01b8152600490fd5b610352906112fe610d01565b61035290600a6111b1565b610352906112f2565b6103529061131e610d01565b61035290600b6111b1565b61035290611312565b6103529061133e610d01565b6103529061134a6113fd565b6113576103686009610fae565b8111156113a3576113698160096111b1565b6113937faab136b9dbe20468ab36dcd11abd26b3dcea2b259f018136905bf827f37f5514916111a4565b9061139d60405190565b600090a2565b60405163521e96bb60e11b8152600490fd5b61035290611332565b156113c557565b60405162461bcd60e51b815260206004820152601060248201526f14185d5cd8589b194e881c185d5cd95960821b6044820152606490fd5b61035261140f61140b610e54565b1590565b6113be565b9061035291611421610d01565b906103529161142e6113fd565b61143e565b6103686107d06111a4565b9061144a610368611433565b81116114a25761145982612dc6565b61146482600d61129f565b61146f81600f6111b1565b610e4261149c7fe42708d93b95810922305119a3271ca42233da9ebe1e1e503f0e887817a32c7a93610945565b916111a4565b610cfd906114af60405190565b6365a0074b60e11b81529182916004830190815260200190565b9061035291611414565b610352906114df610d01565b610352906114eb6113fd565b6114f661140b611273565b61156757611505610368611433565b8111611540576115168160116111b1565b6113937f8c3208fa4fab043d09d9517339346757a58804a46f954585ba21465677820817916111a4565b610cfd9061154d60405190565b6305dba32960e51b81529182916004830190815260200190565b6040516319b3ca5360e31b8152600490fd5b610352906114d3565b9061036892916115906113fd565b6115da565b6103689060a01c6105f3565b6103689054611595565b9190820391821161104957565b6103689060a81c6105f3565b61036890546115b8565b6040513d6000823e3d90fd5b509033816115e88183612a2f565b916115f3828261299b565b916115fd81612aa3565b9261160730610945565b946001600160a01b0386166001600160a01b038516148015611871575b8015611856575b8015611835575b155b611735575b505050505061164781610fda565b61165160146115a1565b80611722575b80611704575b806116ef575b611673575b505061036891611899565b61169261168c61169792611687600a610fae565b612db4565b84612db4565b612dab565b316116a5610368600b610fae565b81116116b2575b80611668565b6000808080936116cd6116c86116c8600d611286565b610945565b8282156116e6575bf1156116e157386116ac565b6115ce565b506108fc6116d5565b506116fd610368600a610fae565b8111611663565b5061171261042a6014611286565b6001600160a01b0385161461165d565b5061173061140b60146115c4565b611657565b611742836110628a610fda565b6117566117526103686009610fae565b9190565b116118045761176560146115a1565b1561163957600092611776846111a4565b82036117e8575b5050611788826111a4565b81036117c4575b50611799906111a4565b82036117a8575b808080611639565b926117b7826117bc9495611b22565b6115ab565b9038806117a0565b8061179992966117b76117e1936117db600d611286565b876119b6565b949061178f565b6117fc9297506117b7826117db600e611286565b94388061177d565b610cfd8861181160405190565b63f6202a8f60e01b8152918291600483016001600160a01b03909116815260200190565b5061163461184461042a610c63565b6001600160a01b038a16149050611632565b506001600160a01b0386166001600160a01b0389161461162b565b5061187d61042a610c63565b6001600160a01b03851614611624565b61036891906000611582565b6110219190336119b6565b6119b6565b156118b057565b60405162461bcd60e51b815260206004820152602560248201527f45524332303a207472616e736665722066726f6d20746865207a65726f206164604482015264647265737360d81b6064820152608490fd5b1561190a57565b60405162461bcd60e51b815260206004820152602360248201527f45524332303a207472616e7366657220746f20746865207a65726f206164647260448201526265737360e81b6064820152608490fd5b1561196257565b60405162461bcd60e51b815260206004820152602660248201527f45524332303a207472616e7366657220616d6f756e7420657863656564732062604482015265616c616e636560d01b6064820152608490fd5b611a45611a328360006119fd6119ec6119ce83610c8a565b61042a6001600160a01b0382166001600160a01b038a1614156118a9565b6001600160a01b0384161415611903565b611a08878387611b9a565b611011611a2888611a1c610ff18986610fc2565b6110e78282101561195b565b61121a8784610fc2565b611a3f856103ee83610fae565b906111b1565b610e4f61125561124f7fddf252ad1be2c89b69c2b068fc378daa952ba7f163c4a11628f55a4df523b3ef93610945565b15611a7c57565b60405162461bcd60e51b815260206004820152602160248201527f45524332303a206275726e2066726f6d20746865207a65726f206164647265736044820152607360f81b6064820152608490fd5b15611ad257565b60405162461bcd60e51b815260206004820152602260248201527f45524332303a206275726e20616d6f756e7420657863656564732062616c616e604482015261636560f01b6064820152608490fd5b600090611b82611b3183610c8a565b92611b506001600160a01b0385166001600160a01b0385161415611a75565b611b5b858585611b9a565b61121a83611b7c87611b70610ff18487610fc2565b6110e782821015611acb565b92610fc2565b611a45611b93846110e76002610fae565b60026111b1565b906103529291611c04565b15611bac57565b60405162461bcd60e51b815260206004820152602a60248201527f45524332305061757361626c653a20746f6b656e207472616e736665722077686044820152691a5b19481c185d5cd95960b21b6064820152608490fd5b505050610352611c1561140b610e54565b611ba5565b90610368939291611c296113fd565b50919081611c378185612a2f565b90611c42818661299b565b90611c4c81612aa3565b91611c5630610945565b936001600160a01b0385166001600160a01b038916148015611e75575b8015611e5a575b8015611e39575b155b80611e09575b611d75575b50505050611c9b81610fda565b611ca560146115a1565b80611d62575b80611d44575b80611d2f575b611cc7575b505061036892611e9e565b611692611cdb611ce192611687600a610fae565b85612db4565b31611cef610368600b610fae565b8111611cfc575b80611cbc565b600080808093611d126116c86116c8600d611286565b828215611d26575bf1156116e15738611cf6565b506108fc611d1a565b50611d3d610368600a610fae565b8111611cb7565b50611d5261042a6014611286565b6001600160a01b03841614611cb1565b50611d7061140b60146115c4565b611cab565b600092611d81846111a4565b8203611ded575b5050611d93826111a4565b8103611dc9575b50611da4906111a4565b8103611db3575b808080611c8e565b611dc291936117b78287611b22565b9138611dab565b80611da492966117b7611de693611de0600d611286565b8b6119b6565b9490611d9a565b611e019297506117b782611de0600e611286565b943880611d88565b611e168461106289610fda565b611e266117526103686009610fae565b1115611c8957610cfd8761181160405190565b50611c83611e4861042a610c63565b6001600160a01b038816149050611c81565b506001600160a01b0385166001600160a01b03871614611c7a565b50611e8161042a610c63565b6001600160a01b03891614611c73565b6103689291906000611c1a565b6110219291906118a483335b83611efc565b15611eb757565b60405162461bcd60e51b815260206004820152601d60248201527f45524332303a20696e73756666696369656e7420616c6c6f77616e63650000006044820152606490fd5b90611f078183610ff6565b6000198103611f17575b50505050565b611f2b93611067916110e782821015611eb0565b38808080611f11565b61035290611f40610d01565b61035290611f4c6113fd565b611f5761140b611269565b611f645761035290611f7f565b604051636cb5913960e01b8152600490fd5b61035290611f34565b6103529033611b22565b611b22565b9061035291611f9b610d01565b9061035291611fa86113fd565b90611fb461140b611269565b611f645761035291611fcb565b9061035291611f8e565b6103529190611f898233611eaa565b611fe2610d01565b610352611ff061140b61125f565b611ffc57610352612086565b60405163f00085b960e01b8152600490fd5b610352611fda565b61201e6113fd565b610352612046565b9060ff90610dd4565b9061203f610368610df592151590565b8254612026565b6120526001600561202f565b336120817f62e78cea01bee320cd4e420270b5ea74000d11b0c9f74754ebdbfc544b05a258916104f160405190565b0390a1565b610352612016565b612096610d01565b6103526120a461140b61125f565b611ffc576103526120fe565b61035261208e565b6120c0612149565b6103526120cf6000600561202f565b336120817f5db9ee0a495bf2e6ff9c91a7834c1ba4fdd244a5e8aa4e537bd38aeae4b073aa916104f160405190565b6103526120b8565b1561210d57565b60405162461bcd60e51b815260206004820152601460248201527314185d5cd8589b194e881b9bdd081c185d5cd95960621b6044820152606490fd5b610352612154610e54565b612106565b9061036891612166610d01565b9061217891612173612802565b61230a565b90610352612834565b610368670de0b6b3a76400006111a4565b9081526040810192916103529160200152565b0152565b6103686706f05b59d3b200006111a4565b905051906103528261033c565b9060208282031261033757610368916121ba565b6103686127106111a4565b9050519061035282610436565b9060208282031261033757610368916121e6565b80151561033e565b9050519061035282612207565b90602082820312610337576103689161220f565b6001600160a01b0390911681526040810192916103529160200152565b90916060828403126103375761036861226684846121ba565b9361227481602086016121ba565b936040016121ba565b610475906111a4565b91946122d46121a5929897956122ca60a0966122c06103529a6122b960c08a019e60008b01906001600160a01b03169052565b6020890152565b604087019061227d565b606085019061227d565b6001600160a01b03166080830152565b9060ff60a01b9060a01b610dd4565b90612303610368610df592151590565b82546122e4565b503461231660146115a1565b61278f57612322612181565b808310801561277c575b61275957506123396121a9565b808210612737575061235461234d30610945565b928361188d565b50612382602061236a6116c86116c86008611286565b6370a082319061237960405190565b93849260e01b90565b82526001600160a01b038616600483015260249082905afa9081156116e157600091612709575b506123d86123d16123c36123bd6013610fae565b8561285c565b6123cb6121db565b9061288b565b809361283f565b906123e96117526103686007610fae565b116126f7575b6123fa6116c861094e565b9261240d612406610fb8565b85836111c8565b63c45a015561242561241e60405190565b9160e01b90565b8152602081600481885afa9081156116e15761244d916116c8916000916126d9575b50610945565b9063c9c653969163ad5c46489061246d61246660405190565b9260e01b90565b82526020826004818a5afa9081156116e1576124ca946020936000936126b3575b5060006124ab9161249e60405190565b9788958694859360e01b90565b83526001600160a01b03808a1660048501521660248301526044820190565b03925af19182156116e157612522926124ed91600091612685575b50601461129f565b60206124ff6116c86116c86014611286565b63095ea7b390612516600080199361249e60405190565b83528c60048401612230565b03925af19182156116e157606092612659575b5063f305d7199461257161254883610fda565b9460009761257c612557610c63565b42908b8061256460405190565b9b8c9a8b998a9860e01b90565b885260048801612286565b03925af180156116e15761262b575b50612598600160146122f3565b6125a1826111a4565b81116125f9575b50506125b46014611286565b6125de7f57a9f98b233034883786b9c47f1f6fabcf1655e39d3213b7287b926ca387136e91610945565b906125e860405190565b600090a26103686116c86014611286565b8180809261260d6116c86116c8600e611286565b828215612622575bf1156116e15738806125a8565b506108fc612615565b61264b9060603d8111612652575b6126438183610f42565b81019061224d565b505061258b565b503d612639565b6126799060203d811161267e575b6126718183610f42565b81019061221c565b612535565b503d612667565b6126a6915060203d81116126ac575b61269e8183610f42565b8101906121f3565b386124e5565b503d612694565b6124ab9193506126d1600091863d81116126ac5761269e8183610f42565b93915061248e565b6126f1915060203d81116126ac5761269e8183610f42565b38612447565b905061270360006111a4565b906123ef565b61272a915060203d8111612730575b6127228183610f42565b8101906121c7565b386123a9565b503d612718565b90610cfd61274460405190565b62fdf57560e51b815292839260048401612192565b82610cfd61276660405190565b63c7bcc1b960e01b815292839260048401612192565b506127886107c2610c63565b831161232c565b60405163250856ab60e21b8152600490fd5b610368906000612159565b61036860026111a4565b156127bd57565b60405162461bcd60e51b815260206004820152601f60248201527f5265656e7472616e637947756172643a207265656e7472616e742063616c6c006044820152606490fd5b61035261280f6006610fae565b61282361281a6127ac565b918214156127b6565b60066111b1565b61036860016111a4565b61035261282361282a565b61036891906115ab565b8181029291811591840414171561104957565b6103689190612849565b634e487b7160e01b600052601260045260246000fd5b8115612886570490565b612866565b610368919061287c565b610352906128a1610d01565b6128ab6008611286565b6128bb610d1861042a6000610c8a565b036112e05761035290600861129f565b61035290612895565b610352906128e0610d01565b6103529060076111b1565b610352906128d4565b6128fc612802565b61290461290c565b610352612834565b61291530610945565b61291e81610fda565b9060009161292b836111a4565b8111612976575b5031612941610368600b610fae565b811161294b575050565b8180809261295d6116c86116c8610c63565b82821561296d575bf1156116e157565b506108fc612965565b61169261298d91612987600a610fae565b90612db4565b38612932565b6103526128f4565b91906000926129a9846111a4565b80946129c4610d1861042a6129be600d611286565b93610c8a565b14612a29576129d6610368600f610fae565b14159081612a0f575b506129e75750565b610368919250612a01906129fb600f610fae565b90612849565b612a096121db565b9061287c565b9050612a21610d1861042a600d611286565b1415386129df565b93505050565b9190600092612a3d846111a4565b8094612a52610d1861042a6129be600e611286565b14612a2957612a646103686012610fae565b14159081612a89575b50612a755750565b610368919250612a01906129fb6012610fae565b9050612a9b610d1861042a600e611286565b141538612a6d565b90612aae60006111a4565b9182612abd6103686011610fae565b03612ac55750565b610368919250612a01906129fb6011610fae565b61290490612ae5612802565b612b10565b9060ff60a81b9060a81b610dd4565b90612b09610368610df592151590565b8254612aea565b612b2590612b2060016014612af9565b612c7d565b61035260006014612af9565b90610352612b3e60405190565b9283610f42565b67ffffffffffffffff8111610f645760208091020190565b90612b6f612b6a83612b45565b612b31565b918252565b369037565b90610352612b8f612b8984612b5d565b93612b45565b601f190160208401612b74565b634e487b7160e01b600052603260045260246000fd5b90612bbb825190565b811015612bcc576020809102010190565b612b9c565b90612bf1612bea612be0845190565b8084529260200190565b9260200190565b9060005b818110612c025750505090565b909192612c28612c2160019286516001600160a01b0316815260200190565b9460200190565b929101612bf5565b90612c6b6121a59161035296989795612c5e608096612c5460a08801946000890152565b602087019061227d565b8482036040860152612bd1565b6001600160a01b039097166060830152565b612c8f612c8a60026111a4565b612b79565b612c9830610945565b90600092612cc083612cb2612cac876111a4565b85612bb2565b906001600160a01b03169052565b612ccb6116c861094e565b63ad5c4648612cdc61241e60405190565b8152602081600481855afa80156116e157612d0c918791612d8d575b50612cb2612d0660016111a4565b86612bb2565b612d178282866111c8565b63791ac947934290823b15610337578695612d55612d4a938897938894612d3d60405190565b9a8b998a98899760e01b90565b875260048701612c30565b03925af180156116e157612d67575050565b8161035292903d10612d86575b612d7e8183610f42565b81019061038c565b503d612d74565b612da5915060203d81116126ac5761269e8183610f42565b38612cf8565b61035290612ad9565b9080821015612dc1575090565b905090565b60601b15612dd057565b63d92e233d6000526004601cfdfea26469706673582212209ea9c73e7477989c6e5b6ca471078b304b8dd810e0a026a61e03ffd2f1887ad564736f6c63430008140033","opcodes":"PUSH1 0xE0 PUSH1 0x40 MSTORE CALLVALUE PUSH3 0x5B JUMPI PUSH3 0x2E PUSH3 0x18 PUSH3 0x2F7 JUMP JUMPDEST SWAP11 SWAP10 SWAP1 SWAP10 SWAP9 SWAP2 SWAP9 SWAP8 SWAP3 SWAP8 SWAP7 SWAP4 SWAP7 SWAP6 SWAP5 SWAP6 PUSH3 0x4B1 JUMP JUMPDEST PUSH1 0x40 MLOAD PUSH2 0x2E14 PUSH3 0xBDB DUP3 CODECOPY PUSH1 0x80 MLOAD DUP2 PUSH2 0x595 ADD MSTORE PUSH1 0xA0 MLOAD DUP2 PUSH2 0x63F ADD MSTORE PUSH1 0xC0 MLOAD DUP2 PUSH2 0xA98 ADD MSTORE PUSH2 0x2E14 SWAP1 RETURN JUMPDEST PUSH1 0x0 DUP1 REVERT JUMPDEST PUSH4 0x4E487B71 PUSH1 0xE0 SHL PUSH1 0x0 MSTORE PUSH1 0x41 PUSH1 0x4 MSTORE PUSH1 0x24 PUSH1 0x0 REVERT JUMPDEST SWAP1 PUSH1 0x1F ADD PUSH1 0x1F NOT AND DUP2 ADD SWAP1 DUP2 LT PUSH1 0x1 PUSH1 0x1 PUSH1 0x40 SHL SUB DUP3 GT OR PUSH3 0x98 JUMPI PUSH1 0x40 MSTORE JUMP JUMPDEST PUSH3 0x60 JUMP JUMPDEST SWAP1 PUSH3 0xB5 PUSH3 0xAD PUSH1 0x40 MLOAD SWAP1 JUMP JUMPDEST SWAP3 DUP4 PUSH3 0x76 JUMP JUMPDEST JUMP JUMPDEST PUSH1 0x1 PUSH1 0x1 PUSH1 0x40 SHL SUB DUP2 GT PUSH3 0x98 JUMPI PUSH1 0x20 SWAP1 PUSH1 0x1F ADD PUSH1 0x1F NOT AND ADD SWAP1 JUMP JUMPDEST PUSH1 0x0 JUMPDEST DUP4 DUP2 LT PUSH3 0xE8 JUMPI POP POP PUSH1 0x0 SWAP2 ADD MSTORE JUMP JUMPDEST DUP2 DUP2 ADD MLOAD DUP4 DUP3 ADD MSTORE PUSH1 0x20 ADD PUSH3 0xD7 JUMP JUMPDEST SWAP1 SWAP3 SWAP2 SWAP3 PUSH3 0x112 PUSH3 0x10C DUP3 PUSH3 0xB7 JUMP JUMPDEST PUSH3 0x9E JUMP JUMPDEST SWAP4 DUP2 DUP6 MSTORE PUSH1 0x20 DUP6 ADD SWAP1 DUP3 DUP5 ADD GT PUSH3 0x5B JUMPI PUSH3 0xB5 SWAP3 PUSH3 0xD4 JUMP JUMPDEST SWAP1 DUP1 PUSH1 0x1F DUP4 ADD SLT ISZERO PUSH3 0x5B JUMPI DUP2 MLOAD PUSH3 0x14C SWAP3 PUSH1 0x20 ADD PUSH3 0xF9 JUMP JUMPDEST SWAP1 JUMP JUMPDEST DUP1 JUMPDEST SUB PUSH3 0x5B JUMPI JUMP JUMPDEST SWAP1 POP MLOAD SWAP1 PUSH3 0xB5 DUP3 PUSH3 0x14F JUMP JUMPDEST PUSH1 0x1 PUSH1 0x1 PUSH1 0xA0 SHL SUB AND SWAP1 JUMP JUMPDEST PUSH1 0x1 PUSH1 0x1 PUSH1 0xA0 SHL SUB DUP2 AND PUSH3 0x151 JUMP JUMPDEST SWAP1 POP MLOAD SWAP1 PUSH3 0xB5 DUP3 PUSH3 0x174 JUMP JUMPDEST DUP1 ISZERO ISZERO PUSH3 0x151 JUMP JUMPDEST SWAP1 POP MLOAD SWAP1 PUSH3 0xB5 DUP3 PUSH3 0x193 JUMP JUMPDEST SWAP2 SWAP1 SWAP2 PUSH1 0x60 DUP2 DUP5 SUB SLT PUSH3 0x5B JUMPI PUSH3 0x1FB PUSH3 0x1C9 PUSH1 0x60 PUSH3 0x9E JUMP JUMPDEST SWAP4 PUSH1 0x0 PUSH3 0x1D8 DUP3 DUP6 PUSH3 0x19C JUMP JUMPDEST SWAP1 DUP7 ADD MSTORE PUSH1 0x20 PUSH3 0x1EC DUP3 DUP3 DUP7 ADD PUSH3 0x19C JUMP JUMPDEST SWAP1 DUP7 ADD MSTORE PUSH1 0x40 DUP1 SWAP4 ADD PUSH3 0x19C JUMP JUMPDEST SWAP1 DUP4 ADD MSTORE JUMP JUMPDEST SWAP1 SWAP2 PUSH2 0x1C0 DUP3 DUP5 SUB SLT PUSH3 0x5B JUMPI DUP2 MLOAD PUSH1 0x1 PUSH1 0x1 PUSH1 0x40 SHL SUB DUP2 GT PUSH3 0x5B JUMPI DUP4 PUSH3 0x22E SWAP2 DUP5 ADD PUSH3 0x12F JUMP JUMPDEST PUSH1 0x20 DUP4 ADD MLOAD SWAP1 SWAP4 SWAP1 PUSH1 0x1 PUSH1 0x1 PUSH1 0x40 SHL SUB DUP2 GT PUSH3 0x5B JUMPI DUP2 PUSH3 0x253 SWAP2 DUP6 ADD PUSH3 0x12F JUMP JUMPDEST SWAP3 PUSH3 0x263 DUP3 PUSH1 0x40 DUP4 ADD PUSH3 0x159 JUMP JUMPDEST SWAP3 PUSH3 0x273 DUP4 PUSH1 0x60 DUP5 ADD PUSH3 0x184 JUMP JUMPDEST SWAP3 PUSH3 0x283 DUP2 PUSH1 0x80 DUP6 ADD PUSH3 0x1AB JUMP JUMPDEST SWAP3 PUSH3 0x293 DUP3 PUSH1 0xE0 DUP4 ADD PUSH3 0x159 JUMP JUMPDEST SWAP3 PUSH3 0x2A4 DUP4 PUSH2 0x100 DUP5 ADD PUSH3 0x159 JUMP JUMPDEST SWAP3 PUSH3 0x2B5 DUP2 PUSH2 0x120 DUP6 ADD PUSH3 0x159 JUMP JUMPDEST SWAP3 PUSH3 0x2C6 DUP3 PUSH2 0x140 DUP4 ADD PUSH3 0x184 JUMP JUMPDEST SWAP3 PUSH3 0x14C PUSH3 0x2DB DUP5 PUSH2 0x160 DUP6 ADD PUSH3 0x184 JUMP JUMPDEST SWAP4 PUSH3 0x2EC DUP2 PUSH2 0x180 DUP7 ADD PUSH3 0x159 JUMP JUMPDEST SWAP4 PUSH2 0x1A0 ADD PUSH3 0x159 JUMP JUMPDEST PUSH3 0x31A PUSH3 0x39EF DUP1 CODESIZE SUB DUP1 PUSH3 0x30E DUP2 PUSH3 0x9E JUMP JUMPDEST SWAP3 DUP4 CODECOPY DUP2 ADD SWAP1 PUSH3 0x201 JUMP JUMPDEST SWAP1 SWAP2 SWAP3 SWAP4 SWAP5 SWAP6 SWAP7 SWAP8 SWAP9 SWAP10 SWAP11 SWAP12 JUMP JUMPDEST SWAP1 PUSH1 0x0 NOT SWAP1 JUMPDEST SWAP2 DUP2 NOT AND SWAP2 AND OR SWAP1 JUMP JUMPDEST PUSH3 0x14C PUSH3 0x14C PUSH3 0x14C SWAP3 SWAP1 JUMP JUMPDEST SWAP1 PUSH3 0x35C PUSH3 0x14C PUSH3 0x364 SWAP3 PUSH3 0x338 JUMP JUMPDEST DUP3 SLOAD PUSH3 0x328 JUMP JUMPDEST SWAP1 SSTORE JUMP JUMPDEST PUSH3 0x378 PUSH3 0x14C PUSH3 0x14C SWAP3 SWAP1 JUMP JUMPDEST PUSH1 0xFF AND SWAP1 JUMP JUMPDEST PUSH3 0x14C PUSH2 0x7D0 PUSH3 0x338 JUMP JUMPDEST SWAP1 PUSH1 0xFF SWAP1 PUSH3 0x32E JUMP JUMPDEST SWAP1 PUSH3 0x3A8 PUSH3 0x14C PUSH3 0x364 SWAP3 ISZERO ISZERO SWAP1 JUMP JUMPDEST DUP3 SLOAD PUSH3 0x38B JUMP JUMPDEST SWAP1 PUSH2 0xFF00 SWAP1 PUSH1 0x8 SHL PUSH3 0x32E JUMP JUMPDEST SWAP1 PUSH3 0x3D1 PUSH3 0x14C PUSH3 0x364 SWAP3 ISZERO ISZERO SWAP1 JUMP JUMPDEST DUP3 SLOAD PUSH3 0x3B0 JUMP JUMPDEST SWAP1 PUSH3 0xFF0000 SWAP1 PUSH1 0x10 SHL PUSH3 0x32E JUMP JUMPDEST SWAP1 PUSH3 0x3FB PUSH3 0x14C PUSH3 0x364 SWAP3 ISZERO ISZERO SWAP1 JUMP JUMPDEST DUP3 SLOAD PUSH3 0x3D9 JUMP JUMPDEST PUSH3 0xB5 SWAP2 PUSH3 0x446 SWAP1 PUSH1 0x40 SWAP1 PUSH3 0x426 PUSH3 0x41F DUP3 MLOAD ISZERO ISZERO SWAP1 JUMP JUMPDEST DUP6 PUSH3 0x395 JUMP JUMPDEST PUSH3 0x43F PUSH3 0x438 PUSH1 0x20 DUP4 ADD MLOAD ISZERO ISZERO SWAP1 JUMP JUMPDEST DUP6 PUSH3 0x3BE JUMP JUMPDEST ADD MLOAD ISZERO ISZERO SWAP1 JUMP JUMPDEST SWAP1 PUSH3 0x3E8 JUMP JUMPDEST SWAP1 PUSH3 0xB5 SWAP2 PUSH3 0x403 JUMP JUMPDEST SWAP1 PUSH1 0x1 PUSH1 0x1 PUSH1 0xA0 SHL SUB SWAP1 PUSH3 0x32E JUMP JUMPDEST PUSH3 0x14C SWAP1 PUSH3 0x168 SWAP1 PUSH1 0x1 PUSH1 0x1 PUSH1 0xA0 SHL SUB AND DUP3 JUMP JUMPDEST PUSH3 0x14C SWAP1 PUSH3 0x469 JUMP JUMPDEST PUSH3 0x14C SWAP1 PUSH3 0x47F JUMP JUMPDEST SWAP1 PUSH3 0x4A9 PUSH3 0x14C PUSH3 0x364 SWAP3 PUSH3 0x48A JUMP JUMPDEST DUP3 SLOAD PUSH3 0x459 JUMP JUMPDEST SWAP1 PUSH3 0x4C5 SWAP2 SWAP12 SWAP4 SWAP12 SWAP11 SWAP10 SWAP9 SWAP3 SWAP11 PUSH3 0x664 JUMP JUMPDEST PUSH3 0x4DC PUSH10 0xA968163F0A57B400000 PUSH1 0x7 PUSH3 0x348 JUMP JUMPDEST PUSH3 0x4EA PUSH1 0x19 PUSH1 0x10 PUSH3 0x348 JUMP JUMPDEST PUSH3 0x505 PUSH1 0x32 PUSH3 0x4FD DUP2 PUSH1 0x12 PUSH3 0x348 JUMP JUMPDEST PUSH1 0x13 PUSH3 0x348 JUMP JUMPDEST PUSH3 0x510 DUP11 PUSH3 0xBC1 JUMP JUMPDEST DUP9 PUSH1 0xA0 MSTORE PUSH3 0x520 PUSH1 0x12 PUSH3 0x368 JUMP JUMPDEST PUSH1 0x80 MSTORE PUSH1 0xC0 MSTORE PUSH3 0x530 PUSH3 0x37E JUMP JUMPDEST DUP1 DUP9 GT PUSH3 0x62F JUMPI PUSH1 0x40 DUP4 ADD MLOAD PUSH3 0x5C0 JUMPI JUMPDEST POP POP SWAP3 PUSH3 0x57B PUSH3 0x59E SWAP7 SWAP6 SWAP4 PUSH3 0x573 PUSH3 0x583 SWAP5 PUSH3 0x56B PUSH3 0x596 SWAP9 PUSH1 0xC PUSH3 0x44D JUMP JUMPDEST PUSH1 0x9 PUSH3 0x348 JUMP JUMPDEST PUSH1 0xA PUSH3 0x348 JUMP JUMPDEST PUSH1 0xB PUSH3 0x348 JUMP JUMPDEST PUSH3 0x58E DUP2 PUSH3 0xBC1 JUMP JUMPDEST PUSH1 0xD PUSH3 0x495 JUMP JUMPDEST PUSH1 0xF PUSH3 0x348 JUMP JUMPDEST PUSH3 0x5AA PUSH1 0x0 PUSH3 0x338 JUMP JUMPDEST DUP2 SUB PUSH3 0x5B5 JUMPI POP POP JUMP JUMPDEST PUSH3 0xB5 SWAP2 PUSH3 0xA37 JUMP JUMPDEST DUP2 GT PUSH3 0x602 JUMPI PUSH3 0x59E SWAP7 SWAP6 SWAP4 PUSH3 0x573 PUSH3 0x583 SWAP5 PUSH3 0x56B PUSH3 0x596 SWAP9 SWAP6 PUSH3 0x5F2 PUSH3 0x57B SWAP7 PUSH1 0x11 PUSH3 0x348 JUMP JUMPDEST SWAP6 SWAP9 POP POP SWAP5 POP POP SWAP4 SWAP6 SWAP7 PUSH3 0x543 JUMP JUMPDEST PUSH3 0x62B SWAP1 PUSH3 0x611 PUSH1 0x40 MLOAD SWAP1 JUMP JUMPDEST PUSH4 0x5DBA329 PUSH1 0xE5 SHL DUP2 MSTORE SWAP2 DUP3 SWAP2 PUSH1 0x4 DUP4 ADD SWAP1 DUP2 MSTORE PUSH1 0x20 ADD SWAP1 JUMP JUMPDEST SUB SWAP1 REVERT JUMPDEST PUSH3 0x62B DUP9 PUSH3 0x63E PUSH1 0x40 MLOAD SWAP1 JUMP JUMPDEST PUSH4 0x65A0074B PUSH1 0xE1 SHL DUP2 MSTORE SWAP2 DUP3 SWAP2 PUSH1 0x4 DUP4 ADD SWAP1 DUP2 MSTORE PUSH1 0x20 ADD SWAP1 JUMP JUMPDEST PUSH3 0x14C PUSH1 0x1 PUSH3 0x338 JUMP JUMPDEST SWAP1 PUSH3 0x670 SWAP2 PUSH3 0x686 JUMP JUMPDEST PUSH3 0xB5 PUSH3 0x67E PUSH3 0x658 JUMP JUMPDEST PUSH1 0x6 PUSH3 0x348 JUMP JUMPDEST SWAP1 PUSH3 0x692 SWAP2 PUSH3 0x69D JUMP JUMPDEST PUSH3 0xB5 CALLER PUSH3 0x913 JUMP JUMPDEST PUSH3 0xB5 SWAP2 PUSH3 0x6AD SWAP2 PUSH3 0x6BB JUMP JUMPDEST PUSH3 0xB5 PUSH1 0x0 PUSH1 0x5 PUSH3 0x395 JUMP JUMPDEST SWAP1 PUSH3 0xB5 SWAP2 PUSH3 0x8AF JUMP JUMPDEST PUSH4 0x4E487B71 PUSH1 0xE0 SHL PUSH1 0x0 MSTORE PUSH1 0x22 PUSH1 0x4 MSTORE PUSH1 0x24 PUSH1 0x0 REVERT JUMPDEST SWAP1 PUSH1 0x1 PUSH1 0x2 DUP4 DIV SWAP3 AND DUP1 ISZERO PUSH3 0x700 JUMPI JUMPDEST PUSH1 0x20 DUP4 LT EQ PUSH3 0x6FA JUMPI JUMP JUMPDEST PUSH3 0x6C7 JUMP JUMPDEST SWAP2 PUSH1 0x7F AND SWAP2 PUSH3 0x6EE JUMP JUMPDEST SWAP2 PUSH1 0x0 NOT PUSH1 0x8 SWAP3 SWAP1 SWAP3 MUL SWAP2 DUP3 SHL SWAP2 SHL PUSH3 0x32E JUMP JUMPDEST SWAP2 SWAP1 PUSH3 0x735 PUSH3 0x14C PUSH3 0x364 SWAP4 PUSH3 0x338 JUMP JUMPDEST SWAP1 DUP4 SLOAD PUSH3 0x70B JUMP JUMPDEST PUSH3 0xB5 SWAP2 PUSH1 0x0 SWAP2 PUSH3 0x720 JUMP JUMPDEST DUP2 DUP2 LT PUSH3 0x758 JUMPI POP POP JUMP JUMPDEST DUP1 PUSH3 0x768 PUSH1 0x0 PUSH1 0x1 SWAP4 PUSH3 0x73E JUMP JUMPDEST ADD PUSH3 0x74C JUMP JUMPDEST SWAP2 SWAP1 PUSH1 0x1F DUP2 GT PUSH3 0x77F JUMPI POP POP POP JUMP JUMPDEST PUSH3 0x793 PUSH3 0xB5 SWAP4 PUSH1 0x0 MSTORE PUSH1 0x20 PUSH1 0x0 KECCAK256 SWAP1 JUMP JUMPDEST SWAP1 PUSH1 0x20 PUSH1 0x1F DUP5 ADD DUP2 SWAP1 DIV DUP4 ADD SWAP4 LT PUSH3 0x7B7 JUMPI JUMPDEST PUSH1 0x20 PUSH1 0x1F SWAP1 SWAP2 ADD DIV ADD SWAP1 PUSH3 0x74C JUMP JUMPDEST SWAP1 SWAP2 POP DUP2 SWAP1 PUSH3 0x7A7 JUMP JUMPDEST SWAP1 PUSH3 0x7CC DUP2 MLOAD SWAP1 JUMP JUMPDEST SWAP1 PUSH1 0x1 PUSH1 0x1 PUSH1 0x40 SHL SUB DUP3 GT PUSH3 0x98 JUMPI PUSH3 0x7F4 DUP3 PUSH3 0x7ED DUP6 SLOAD PUSH3 0x6DD JUMP JUMPDEST DUP6 PUSH3 0x76F JUMP JUMPDEST PUSH1 0x20 SWAP1 PUSH1 0x1F DUP4 GT PUSH1 0x1 EQ PUSH3 0x833 JUMPI PUSH3 0x364 SWAP3 SWAP2 PUSH1 0x0 SWAP2 DUP4 PUSH3 0x827 JUMPI JUMPDEST POP POP PUSH1 0x0 NOT PUSH1 0x8 DUP4 MUL SHR NOT AND SWAP1 PUSH1 0x2 MUL OR SWAP1 JUMP JUMPDEST ADD MLOAD SWAP1 POP CODESIZE DUP1 PUSH3 0x813 JUMP JUMPDEST PUSH1 0x1F NOT DUP4 AND SWAP2 PUSH3 0x849 DUP6 PUSH1 0x0 MSTORE PUSH1 0x20 PUSH1 0x0 KECCAK256 SWAP1 JUMP JUMPDEST SWAP3 PUSH1 0x0 JUMPDEST DUP2 DUP2 LT PUSH3 0x88A JUMPI POP SWAP2 PUSH1 0x2 SWAP4 SWAP2 DUP6 PUSH1 0x1 SWAP7 SWAP5 LT PUSH3 0x870 JUMPI JUMPDEST POP POP POP MUL ADD SWAP1 SSTORE JUMP JUMPDEST ADD MLOAD PUSH1 0x0 NOT PUSH1 0x8 PUSH1 0x1F DUP6 AND MUL SHR NOT AND SWAP1 SSTORE CODESIZE DUP1 DUP1 PUSH3 0x867 JUMP JUMPDEST SWAP2 SWAP4 PUSH1 0x20 PUSH1 0x1 DUP2 SWAP3 DUP8 DUP8 ADD MLOAD DUP2 SSTORE ADD SWAP6 ADD SWAP3 ADD PUSH3 0x84D JUMP JUMPDEST SWAP1 PUSH3 0xB5 SWAP2 PUSH3 0x7C2 JUMP JUMPDEST SWAP1 PUSH3 0x8C1 PUSH3 0xB5 SWAP3 PUSH1 0x3 PUSH3 0x8A3 JUMP JUMPDEST PUSH1 0x4 PUSH3 0x8A3 JUMP JUMPDEST PUSH3 0x14C SWAP1 PUSH1 0x8 SHR PUSH3 0x168 JUMP JUMPDEST PUSH3 0x14C SWAP1 SLOAD PUSH3 0x8C9 JUMP JUMPDEST SWAP1 PUSH2 0x100 PUSH1 0x1 PUSH1 0xA8 SHL SUB SWAP1 PUSH1 0x8 SHL PUSH3 0x32E JUMP JUMPDEST SWAP1 PUSH3 0x90B PUSH3 0x14C PUSH3 0x364 SWAP3 PUSH3 0x48A JUMP JUMPDEST DUP3 SLOAD PUSH3 0x8E3 JUMP JUMPDEST PUSH3 0x91F PUSH1 0x5 PUSH3 0x8D7 JUMP JUMPDEST SWAP1 PUSH3 0x92D DUP2 PUSH1 0x5 PUSH3 0x8F7 JUMP JUMPDEST PUSH3 0x964 PUSH3 0x95D PUSH32 0x8BE0079C531659141344CD1FD0A4F28419497F9722A3DAAFE3B4186F6B6457E0 SWAP4 PUSH3 0x48A JUMP JUMPDEST SWAP2 PUSH3 0x48A JUMP JUMPDEST SWAP2 PUSH3 0x96F PUSH1 0x40 MLOAD SWAP1 JUMP JUMPDEST DUP1 DUP1 JUMPDEST SUB SWAP1 LOG3 JUMP JUMPDEST PUSH3 0x168 PUSH3 0x14C PUSH3 0x14C SWAP3 SWAP1 JUMP JUMPDEST PUSH3 0x14C SWAP1 PUSH3 0x977 JUMP JUMPDEST ISZERO PUSH3 0x99A JUMPI JUMP JUMPDEST PUSH1 0x40 MLOAD PUSH3 0x461BCD PUSH1 0xE5 SHL DUP2 MSTORE PUSH1 0x20 PUSH1 0x4 DUP3 ADD MSTORE PUSH1 0x1F PUSH1 0x24 DUP3 ADD MSTORE PUSH32 0x45524332303A206D696E7420746F20746865207A65726F206164647265737300 PUSH1 0x44 DUP3 ADD MSTORE PUSH1 0x64 SWAP1 REVERT JUMPDEST PUSH3 0x14C SWAP1 DUP2 JUMP JUMPDEST PUSH3 0x14C SWAP1 SLOAD PUSH3 0x9DF JUMP JUMPDEST PUSH4 0x4E487B71 PUSH1 0xE0 SHL PUSH1 0x0 MSTORE PUSH1 0x11 PUSH1 0x4 MSTORE PUSH1 0x24 PUSH1 0x0 REVERT JUMPDEST SWAP2 SWAP1 DUP3 ADD DUP1 SWAP3 GT PUSH3 0xA17 JUMPI JUMP JUMPDEST PUSH3 0x9F3 JUMP JUMPDEST SWAP1 PUSH3 0xA29 SWAP1 PUSH3 0x48A JUMP JUMPDEST PUSH1 0x0 MSTORE PUSH1 0x20 MSTORE PUSH1 0x40 PUSH1 0x0 KECCAK256 SWAP1 JUMP JUMPDEST PUSH1 0x0 PUSH3 0xABF PUSH3 0xAA4 DUP4 PUSH3 0xA4D DUP5 PUSH3 0x987 JUMP JUMPDEST SWAP4 PUSH3 0xA6E PUSH1 0x1 PUSH1 0x1 PUSH1 0xA0 SHL SUB DUP7 AND PUSH1 0x1 PUSH1 0x1 PUSH1 0xA0 SHL SUB DUP5 AND EQ ISZERO PUSH3 0x992 JUMP JUMPDEST PUSH3 0xA7B DUP8 DUP4 DUP8 PUSH3 0xB12 JUMP JUMPDEST PUSH3 0xA9E PUSH3 0xA96 DUP9 PUSH3 0xA90 PUSH1 0x2 PUSH3 0x9E7 JUMP JUMPDEST PUSH3 0xA09 JUMP JUMPDEST PUSH1 0x2 PUSH3 0x348 JUMP JUMPDEST PUSH3 0xA1D JUMP JUMPDEST PUSH3 0xAB8 DUP6 PUSH3 0xAB4 DUP4 PUSH3 0x9E7 JUMP JUMPDEST ADD SWAP1 JUMP JUMPDEST SWAP1 PUSH3 0x348 JUMP JUMPDEST PUSH3 0x972 PUSH3 0xAFA PUSH3 0xAF3 PUSH32 0xDDF252AD1BE2C89B69C2B068FC378DAA952BA7F163C4A11628F55A4DF523B3EF SWAP4 PUSH3 0x48A JUMP JUMPDEST SWAP4 PUSH3 0x48A JUMP JUMPDEST SWAP4 PUSH3 0xB05 PUSH1 0x40 MLOAD SWAP1 JUMP JUMPDEST SWAP2 DUP3 SWAP2 DUP3 SWAP1 DUP2 MSTORE PUSH1 0x20 ADD SWAP1 JUMP JUMPDEST SWAP1 PUSH3 0xB5 SWAP3 SWAP2 PUSH3 0xB7F JUMP JUMPDEST ISZERO PUSH3 0xB27 JUMPI JUMP JUMPDEST PUSH1 0x40 MLOAD PUSH3 0x461BCD PUSH1 0xE5 SHL DUP2 MSTORE PUSH1 0x20 PUSH1 0x4 DUP3 ADD MSTORE PUSH1 0x2A PUSH1 0x24 DUP3 ADD MSTORE PUSH32 0x45524332305061757361626C653A20746F6B656E207472616E73666572207768 PUSH1 0x44 DUP3 ADD MSTORE PUSH10 0x1A5B19481C185D5CD959 PUSH1 0xB2 SHL PUSH1 0x64 DUP3 ADD MSTORE PUSH1 0x84 SWAP1 REVERT JUMPDEST POP POP POP PUSH3 0xB5 PUSH3 0xB98 PUSH3 0xB94 PUSH3 0xBB5 JUMP JUMPDEST ISZERO SWAP1 JUMP JUMPDEST PUSH3 0xB1F JUMP JUMPDEST PUSH3 0x14C SWAP1 PUSH3 0x378 JUMP JUMPDEST PUSH3 0x14C SWAP1 SLOAD PUSH3 0xB9E JUMP JUMPDEST PUSH3 0x14C PUSH1 0x5 PUSH3 0xBA9 JUMP JUMPDEST PUSH1 0x60 SHL ISZERO PUSH3 0xBCC JUMPI JUMP JUMPDEST PUSH4 0xD92E233D PUSH1 0x0 MSTORE PUSH1 0x4 PUSH1 0x1C REVERT INVALID PUSH1 0x80 PUSH1 0x40 MSTORE PUSH1 0x4 CALLDATASIZE LT ISZERO PUSH2 0x12 JUMPI PUSH1 0x0 DUP1 REVERT JUMPDEST PUSH1 0x0 CALLDATALOAD PUSH1 0xE0 SHR DUP1 PUSH4 0x2252C4D EQ PUSH2 0x332 JUMPI DUP1 PUSH4 0x6FDDE03 EQ PUSH2 0x32D JUMPI DUP1 PUSH4 0x95EA7B3 EQ PUSH2 0x328 JUMPI DUP1 PUSH4 0x12D75F13 EQ PUSH2 0x323 JUMPI DUP1 PUSH4 0x18160DDD EQ PUSH2 0x31E JUMPI DUP1 PUSH4 0x23B872DD EQ PUSH2 0x319 JUMPI DUP1 PUSH4 0x313CE567 EQ PUSH2 0x314 JUMPI DUP1 PUSH4 0x3381E7E2 EQ PUSH2 0x30F JUMPI DUP1 PUSH4 0x351A964D EQ PUSH2 0x30A JUMPI DUP1 PUSH4 0x378DC3DC EQ PUSH2 0x305 JUMPI DUP1 PUSH4 0x39509351 EQ PUSH2 0x300 JUMPI DUP1 PUSH4 0x3F4BA83A EQ PUSH2 0x2FB JUMPI DUP1 PUSH4 0x42966C68 EQ PUSH2 0x2F6 JUMPI DUP1 PUSH4 0x46904840 EQ PUSH2 0x2F1 JUMPI DUP1 PUSH4 0x49BD5A5E EQ PUSH2 0x2EC JUMPI DUP1 PUSH4 0x4C09F37C EQ PUSH2 0x2E7 JUMPI DUP1 PUSH4 0x51BC3C85 EQ PUSH2 0x2E2 JUMPI DUP1 PUSH4 0x5C975ABB EQ PUSH2 0x2DD JUMPI DUP1 PUSH4 0x62997F8C EQ PUSH2 0x2D8 JUMPI DUP1 PUSH4 0x6E2759F3 EQ PUSH2 0x2D3 JUMPI DUP1 PUSH4 0x70A08231 EQ PUSH2 0x2CE JUMPI DUP1 PUSH4 0x715018A6 EQ PUSH2 0x2C9 JUMPI DUP1 PUSH4 0x79CC6790 EQ PUSH2 0x2C4 JUMPI DUP1 PUSH4 0x8456CB59 EQ PUSH2 0x2BF JUMPI DUP1 PUSH4 0x84C5DD01 EQ PUSH2 0x2BA JUMPI DUP1 PUSH4 0x883356D9 EQ PUSH2 0x2B5 JUMPI DUP1 PUSH4 0x8DA5CB5B EQ PUSH2 0x2B0 JUMPI DUP1 PUSH4 0x8E8C10A2 EQ PUSH2 0x2AB JUMPI DUP1 PUSH4 0x95D89B41 EQ PUSH2 0x2A6 JUMPI DUP1 PUSH4 0x99735FD8 EQ PUSH2 0x2A1 JUMPI DUP1 PUSH4 0xA001ECDD EQ PUSH2 0x29C JUMPI DUP1 PUSH4 0xA09A1601 EQ PUSH2 0x297 JUMPI DUP1 PUSH4 0xA457C2D7 EQ PUSH2 0x292 JUMPI DUP1 PUSH4 0xA82ED9EC EQ PUSH2 0x28D JUMPI DUP1 PUSH4 0xA9059CBB EQ PUSH2 0x288 JUMPI DUP1 PUSH4 0xB9D0F1AF EQ PUSH2 0x283 JUMPI DUP1 PUSH4 0xBA9341C0 EQ PUSH2 0x27E JUMPI DUP1 PUSH4 0xC68FF0FE EQ PUSH2 0x279 JUMPI DUP1 PUSH4 0xD1633649 EQ PUSH2 0x274 JUMPI DUP1 PUSH4 0xD1ED0A0F EQ PUSH2 0x26F JUMPI DUP1 PUSH4 0xD48E4127 EQ PUSH2 0x26A JUMPI DUP1 PUSH4 0xD8F67851 EQ PUSH2 0x265 JUMPI DUP1 PUSH4 0xDCC79CC8 EQ PUSH2 0x260 JUMPI DUP1 PUSH4 0xDD62ED3E EQ PUSH2 0x25B JUMPI DUP1 PUSH4 0xE08973CE EQ PUSH2 0x256 JUMPI DUP1 PUSH4 0xEC57459C EQ PUSH2 0x251 JUMPI DUP1 PUSH4 0xF01F20DF EQ PUSH2 0x24C JUMPI DUP1 PUSH4 0xF19C4E3B EQ PUSH2 0x247 JUMPI DUP1 PUSH4 0xF2FDE38B EQ PUSH2 0x242 JUMPI PUSH4 0xF69CF783 SUB PUSH2 0x337 JUMPI PUSH2 0xC35 JUMP JUMPDEST PUSH2 0xC1D JUMP JUMPDEST PUSH2 0xC04 JUMP JUMPDEST PUSH2 0xBE9 JUMP JUMPDEST PUSH2 0xBC2 JUMP JUMPDEST PUSH2 0xB9B JUMP JUMPDEST PUSH2 0xB73 JUMP JUMPDEST PUSH2 0xB38 JUMP JUMPDEST PUSH2 0xB20 JUMP JUMPDEST PUSH2 0xB05 JUMP JUMPDEST PUSH2 0xADE JUMP JUMPDEST PUSH2 0xABC JUMP JUMPDEST PUSH2 0xA83 JUMP JUMPDEST PUSH2 0xA47 JUMP JUMPDEST PUSH2 0x9CF JUMP JUMPDEST PUSH2 0x9B3 JUMP JUMPDEST PUSH2 0x98C JUMP JUMPDEST PUSH2 0x90C JUMP JUMPDEST PUSH2 0x8F1 JUMP JUMPDEST PUSH2 0x8D6 JUMP JUMPDEST PUSH2 0x8AF JUMP JUMPDEST PUSH2 0x888 JUMP JUMPDEST PUSH2 0x86D JUMP JUMPDEST PUSH2 0x852 JUMP JUMPDEST PUSH2 0x837 JUMP JUMPDEST PUSH2 0x81C JUMP JUMPDEST PUSH2 0x7F8 JUMP JUMPDEST PUSH2 0x7DF JUMP JUMPDEST PUSH2 0x7C7 JUMP JUMPDEST PUSH2 0x7AC JUMP JUMPDEST PUSH2 0x794 JUMP JUMPDEST PUSH2 0x779 JUMP JUMPDEST PUSH2 0x752 JUMP JUMPDEST PUSH2 0x73A JUMP JUMPDEST PUSH2 0x71F JUMP JUMPDEST PUSH2 0x6E2 JUMP JUMPDEST PUSH2 0x6BB JUMP JUMPDEST PUSH2 0x697 JUMP JUMPDEST PUSH2 0x67F JUMP JUMPDEST PUSH2 0x663 JUMP JUMPDEST PUSH2 0x62A JUMP JUMPDEST PUSH2 0x60F JUMP JUMPDEST PUSH2 0x5D2 JUMP JUMPDEST PUSH2 0x580 JUMP JUMPDEST PUSH2 0x564 JUMP JUMPDEST PUSH2 0x508 JUMP JUMPDEST PUSH2 0x4D2 JUMP JUMPDEST PUSH2 0x479 JUMP JUMPDEST PUSH2 0x403 JUMP JUMPDEST PUSH2 0x36B JUMP JUMPDEST PUSH1 0x0 DUP1 REVERT JUMPDEST DUP1 JUMPDEST SUB PUSH2 0x337 JUMPI JUMP JUMPDEST SWAP1 POP CALLDATALOAD SWAP1 PUSH2 0x352 DUP3 PUSH2 0x33C JUMP JUMPDEST JUMP JUMPDEST SWAP1 PUSH1 0x20 DUP3 DUP3 SUB SLT PUSH2 0x337 JUMPI PUSH2 0x368 SWAP2 PUSH2 0x345 JUMP JUMPDEST SWAP1 JUMP JUMPDEST CALLVALUE PUSH2 0x337 JUMPI PUSH2 0x383 PUSH2 0x37E CALLDATASIZE PUSH1 0x4 PUSH2 0x354 JUMP JUMPDEST PUSH2 0x13B5 JUMP JUMPDEST PUSH1 0x40 MLOAD STOP JUMPDEST SUB SWAP1 RETURN JUMPDEST PUSH1 0x0 SWAP2 SUB SLT PUSH2 0x337 JUMPI JUMP JUMPDEST PUSH1 0x0 JUMPDEST DUP4 DUP2 LT PUSH2 0x3AA JUMPI POP POP PUSH1 0x0 SWAP2 ADD MSTORE JUMP JUMPDEST DUP2 DUP2 ADD MLOAD DUP4 DUP3 ADD MSTORE PUSH1 0x20 ADD PUSH2 0x39A JUMP JUMPDEST PUSH2 0x3DB PUSH2 0x3E4 PUSH1 0x20 SWAP4 PUSH2 0x3EE SWAP4 PUSH2 0x3CF DUP2 MLOAD SWAP1 JUMP JUMPDEST DUP1 DUP4 MSTORE SWAP4 DUP5 SWAP3 PUSH1 0x20 ADD SWAP1 JUMP JUMPDEST SWAP6 DUP7 SWAP2 ADD PUSH2 0x397 JUMP JUMPDEST PUSH1 0x1F ADD PUSH1 0x1F NOT AND SWAP1 JUMP JUMPDEST ADD SWAP1 JUMP JUMPDEST PUSH1 0x20 DUP1 DUP3 MSTORE PUSH2 0x368 SWAP3 SWAP2 ADD SWAP1 PUSH2 0x3BA JUMP JUMPDEST CALLVALUE PUSH2 0x337 JUMPI PUSH2 0x413 CALLDATASIZE PUSH1 0x4 PUSH2 0x38C JUMP JUMPDEST PUSH2 0x388 PUSH2 0x41E PUSH2 0xF93 JUMP JUMPDEST PUSH1 0x40 MLOAD SWAP2 DUP3 SWAP2 DUP3 PUSH2 0x3F2 JUMP JUMPDEST PUSH1 0x1 PUSH1 0x1 PUSH1 0xA0 SHL SUB AND SWAP1 JUMP JUMPDEST PUSH1 0x1 PUSH1 0x1 PUSH1 0xA0 SHL SUB DUP2 AND PUSH2 0x33E JUMP JUMPDEST SWAP1 POP CALLDATALOAD SWAP1 PUSH2 0x352 DUP3 PUSH2 0x436 JUMP JUMPDEST SWAP2 SWAP1 PUSH1 0x40 DUP4 DUP3 SUB SLT PUSH2 0x337 JUMPI PUSH2 0x368 SWAP1 PUSH2 0x46C DUP2 DUP6 PUSH2 0x445 JUMP JUMPDEST SWAP4 PUSH1 0x20 ADD PUSH2 0x345 JUMP JUMPDEST SWAP1 MSTORE JUMP JUMPDEST CALLVALUE PUSH2 0x337 JUMPI PUSH2 0x388 PUSH2 0x495 PUSH2 0x48F CALLDATASIZE PUSH1 0x4 PUSH2 0x452 JUMP JUMPDEST SWAP1 PUSH2 0x1016 JUMP JUMPDEST PUSH1 0x40 MLOAD SWAP2 DUP3 SWAP2 DUP3 SWAP1 ISZERO ISZERO DUP2 MSTORE PUSH1 0x20 ADD SWAP1 JUMP JUMPDEST PUSH2 0x368 SWAP2 PUSH1 0x8 MUL SHR PUSH1 0x1 PUSH1 0x1 PUSH1 0xA0 SHL SUB AND SWAP1 JUMP JUMPDEST SWAP1 PUSH2 0x368 SWAP2 SLOAD PUSH2 0x4A7 JUMP JUMPDEST PUSH2 0x368 PUSH1 0x0 PUSH1 0x8 PUSH2 0x4BB JUMP JUMPDEST CALLVALUE PUSH2 0x337 JUMPI PUSH2 0x4E2 CALLDATASIZE PUSH1 0x4 PUSH2 0x38C JUMP JUMPDEST PUSH2 0x388 PUSH2 0x4ED PUSH2 0x4C6 JUMP JUMPDEST PUSH1 0x40 MLOAD JUMPDEST SWAP2 DUP3 SWAP2 DUP3 PUSH1 0x1 PUSH1 0x1 PUSH1 0xA0 SHL SUB SWAP1 SWAP2 AND DUP2 MSTORE PUSH1 0x20 ADD SWAP1 JUMP JUMPDEST CALLVALUE PUSH2 0x337 JUMPI PUSH2 0x518 CALLDATASIZE PUSH1 0x4 PUSH2 0x38C JUMP JUMPDEST PUSH2 0x388 PUSH2 0x523 PUSH2 0xFB8 JUMP JUMPDEST PUSH1 0x40 MLOAD JUMPDEST SWAP2 DUP3 SWAP2 DUP3 SWAP1 DUP2 MSTORE PUSH1 0x20 ADD SWAP1 JUMP JUMPDEST SWAP1 SWAP2 PUSH1 0x60 DUP3 DUP5 SUB SLT PUSH2 0x337 JUMPI PUSH2 0x368 PUSH2 0x54D DUP5 DUP5 PUSH2 0x445 JUMP JUMPDEST SWAP4 PUSH2 0x55B DUP2 PUSH1 0x20 DUP7 ADD PUSH2 0x445 JUMP JUMPDEST SWAP4 PUSH1 0x40 ADD PUSH2 0x345 JUMP JUMPDEST CALLVALUE PUSH2 0x337 JUMPI PUSH2 0x388 PUSH2 0x495 PUSH2 0x57A CALLDATASIZE PUSH1 0x4 PUSH2 0x534 JUMP JUMPDEST SWAP2 PUSH2 0x1E91 JUMP JUMPDEST CALLVALUE PUSH2 0x337 JUMPI PUSH2 0x590 CALLDATASIZE PUSH1 0x4 PUSH2 0x38C JUMP JUMPDEST PUSH1 0x40 MLOAD PUSH32 0x0 PUSH1 0xFF AND DUP2 MSTORE PUSH1 0x20 SWAP1 RETURN JUMPDEST SWAP1 PUSH1 0x20 DUP3 DUP3 SUB SLT PUSH2 0x337 JUMPI PUSH2 0x368 SWAP2 PUSH2 0x445 JUMP JUMPDEST CALLVALUE PUSH2 0x337 JUMPI PUSH2 0x383 PUSH2 0x5E5 CALLDATASIZE PUSH1 0x4 PUSH2 0x5BE JUMP JUMPDEST PUSH2 0x12B6 JUMP JUMPDEST PUSH2 0x368 SWAP2 PUSH1 0x8 MUL SHR JUMPDEST PUSH1 0xFF AND SWAP1 JUMP JUMPDEST SWAP1 PUSH2 0x368 SWAP2 SLOAD PUSH2 0x5EA JUMP JUMPDEST PUSH2 0x368 PUSH1 0x14 DUP1 PUSH2 0x5F9 JUMP JUMPDEST CALLVALUE PUSH2 0x337 JUMPI PUSH2 0x61F CALLDATASIZE PUSH1 0x4 PUSH2 0x38C JUMP JUMPDEST PUSH2 0x388 PUSH2 0x495 PUSH2 0x604 JUMP JUMPDEST CALLVALUE PUSH2 0x337 JUMPI PUSH2 0x63A CALLDATASIZE PUSH1 0x4 PUSH2 0x38C JUMP JUMPDEST PUSH2 0x388 PUSH32 0x0 PUSH2 0x523 JUMP JUMPDEST CALLVALUE PUSH2 0x337 JUMPI PUSH2 0x388 PUSH2 0x495 PUSH2 0x679 CALLDATASIZE PUSH1 0x4 PUSH2 0x452 JUMP JUMPDEST SWAP1 PUSH2 0x104E JUMP JUMPDEST CALLVALUE PUSH2 0x337 JUMPI PUSH2 0x68F CALLDATASIZE PUSH1 0x4 PUSH2 0x38C JUMP JUMPDEST PUSH2 0x383 PUSH2 0x20B0 JUMP JUMPDEST CALLVALUE PUSH2 0x337 JUMPI PUSH2 0x383 PUSH2 0x6AA CALLDATASIZE PUSH1 0x4 PUSH2 0x354 JUMP JUMPDEST PUSH2 0x1F76 JUMP JUMPDEST PUSH2 0x368 PUSH1 0x0 PUSH1 0xD PUSH2 0x4BB JUMP JUMPDEST CALLVALUE PUSH2 0x337 JUMPI PUSH2 0x6CB CALLDATASIZE PUSH1 0x4 PUSH2 0x38C JUMP JUMPDEST PUSH2 0x388 PUSH2 0x4ED PUSH2 0x6AF JUMP JUMPDEST PUSH2 0x368 PUSH1 0x0 PUSH1 0x14 PUSH2 0x4BB JUMP JUMPDEST CALLVALUE PUSH2 0x337 JUMPI PUSH2 0x6F2 CALLDATASIZE PUSH1 0x4 PUSH2 0x38C JUMP JUMPDEST PUSH2 0x388 PUSH2 0x4ED PUSH2 0x6D6 JUMP JUMPDEST PUSH2 0x368 SWAP2 PUSH1 0x8 MUL SHR DUP2 JUMP JUMPDEST SWAP1 PUSH2 0x368 SWAP2 SLOAD PUSH2 0x6FD JUMP JUMPDEST PUSH2 0x368 PUSH1 0x0 PUSH1 0x12 PUSH2 0x708 JUMP JUMPDEST CALLVALUE PUSH2 0x337 JUMPI PUSH2 0x72F CALLDATASIZE PUSH1 0x4 PUSH2 0x38C JUMP JUMPDEST PUSH2 0x388 PUSH2 0x523 PUSH2 0x713 JUMP JUMPDEST CALLVALUE PUSH2 0x337 JUMPI PUSH2 0x74A CALLDATASIZE PUSH1 0x4 PUSH2 0x38C JUMP JUMPDEST PUSH2 0x383 PUSH2 0x2993 JUMP JUMPDEST CALLVALUE PUSH2 0x337 JUMPI PUSH2 0x762 CALLDATASIZE PUSH1 0x4 PUSH2 0x38C JUMP JUMPDEST PUSH2 0x388 PUSH2 0x495 PUSH2 0xE54 JUMP JUMPDEST PUSH2 0x368 PUSH1 0x0 PUSH1 0xA PUSH2 0x708 JUMP JUMPDEST CALLVALUE PUSH2 0x337 JUMPI PUSH2 0x789 CALLDATASIZE PUSH1 0x4 PUSH2 0x38C JUMP JUMPDEST PUSH2 0x388 PUSH2 0x523 PUSH2 0x76D JUMP JUMPDEST CALLVALUE PUSH2 0x337 JUMPI PUSH2 0x383 PUSH2 0x7A7 CALLDATASIZE PUSH1 0x4 PUSH2 0x354 JUMP JUMPDEST PUSH2 0x28EB JUMP JUMPDEST CALLVALUE PUSH2 0x337 JUMPI PUSH2 0x388 PUSH2 0x523 PUSH2 0x7C2 CALLDATASIZE PUSH1 0x4 PUSH2 0x5BE JUMP JUMPDEST PUSH2 0xFDA JUMP JUMPDEST CALLVALUE PUSH2 0x337 JUMPI PUSH2 0x7D7 CALLDATASIZE PUSH1 0x4 PUSH2 0x38C JUMP JUMPDEST PUSH2 0x383 PUSH2 0xCA5 JUMP JUMPDEST CALLVALUE PUSH2 0x337 JUMPI PUSH2 0x383 PUSH2 0x7F2 CALLDATASIZE PUSH1 0x4 PUSH2 0x452 JUMP JUMPDEST SWAP1 PUSH2 0x1FC1 JUMP JUMPDEST CALLVALUE PUSH2 0x337 JUMPI PUSH2 0x808 CALLDATASIZE PUSH1 0x4 PUSH2 0x38C JUMP JUMPDEST PUSH2 0x383 PUSH2 0x200E JUMP JUMPDEST PUSH2 0x368 PUSH1 0x0 PUSH1 0xB PUSH2 0x708 JUMP JUMPDEST CALLVALUE PUSH2 0x337 JUMPI PUSH2 0x82C CALLDATASIZE PUSH1 0x4 PUSH2 0x38C JUMP JUMPDEST PUSH2 0x388 PUSH2 0x523 PUSH2 0x810 JUMP JUMPDEST CALLVALUE PUSH2 0x337 JUMPI PUSH2 0x847 CALLDATASIZE PUSH1 0x4 PUSH2 0x38C JUMP JUMPDEST PUSH2 0x388 PUSH2 0x495 PUSH2 0x1269 JUMP JUMPDEST CALLVALUE PUSH2 0x337 JUMPI PUSH2 0x862 CALLDATASIZE PUSH1 0x4 PUSH2 0x38C JUMP JUMPDEST PUSH2 0x388 PUSH2 0x4ED PUSH2 0xC63 JUMP JUMPDEST CALLVALUE PUSH2 0x337 JUMPI PUSH2 0x87D CALLDATASIZE PUSH1 0x4 PUSH2 0x38C JUMP JUMPDEST PUSH2 0x388 PUSH2 0x495 PUSH2 0x1273 JUMP JUMPDEST CALLVALUE PUSH2 0x337 JUMPI PUSH2 0x898 CALLDATASIZE PUSH1 0x4 PUSH2 0x38C JUMP JUMPDEST PUSH2 0x388 PUSH2 0x41E PUSH2 0xF9D JUMP JUMPDEST PUSH2 0x368 PUSH1 0x0 PUSH1 0xE PUSH2 0x4BB JUMP JUMPDEST CALLVALUE PUSH2 0x337 JUMPI PUSH2 0x8BF CALLDATASIZE PUSH1 0x4 PUSH2 0x38C JUMP JUMPDEST PUSH2 0x388 PUSH2 0x4ED PUSH2 0x8A3 JUMP JUMPDEST PUSH2 0x368 PUSH1 0x0 PUSH1 0xF PUSH2 0x708 JUMP JUMPDEST CALLVALUE PUSH2 0x337 JUMPI PUSH2 0x8E6 CALLDATASIZE PUSH1 0x4 PUSH2 0x38C JUMP JUMPDEST PUSH2 0x388 PUSH2 0x523 PUSH2 0x8CA JUMP JUMPDEST CALLVALUE PUSH2 0x337 JUMPI PUSH2 0x901 CALLDATASIZE PUSH1 0x4 PUSH2 0x38C JUMP JUMPDEST PUSH2 0x388 PUSH2 0x495 PUSH2 0x125F JUMP JUMPDEST CALLVALUE PUSH2 0x337 JUMPI PUSH2 0x388 PUSH2 0x495 PUSH2 0x922 CALLDATASIZE PUSH1 0x4 PUSH2 0x452 JUMP JUMPDEST SWAP1 PUSH2 0x10C7 JUMP JUMPDEST PUSH2 0x368 SWAP1 PUSH2 0x42A SWAP1 PUSH1 0x1 PUSH1 0x1 PUSH1 0xA0 SHL SUB AND DUP3 JUMP JUMPDEST PUSH2 0x368 SWAP1 PUSH2 0x928 JUMP JUMPDEST PUSH2 0x368 SWAP1 PUSH2 0x93C JUMP JUMPDEST PUSH2 0x368 PUSH20 0x7A250D5630B4CF539739DF2C5DACB4C659F2488D PUSH2 0x945 JUMP JUMPDEST PUSH2 0x368 PUSH2 0x94E JUMP JUMPDEST PUSH2 0x475 SWAP1 PUSH2 0x945 JUMP JUMPDEST PUSH1 0x20 DUP2 ADD SWAP3 SWAP2 PUSH2 0x352 SWAP2 SWAP1 PUSH2 0x973 JUMP JUMPDEST CALLVALUE PUSH2 0x337 JUMPI PUSH2 0x99C CALLDATASIZE PUSH1 0x4 PUSH2 0x38C JUMP JUMPDEST PUSH2 0x388 PUSH2 0x9A7 PUSH2 0x96B JUMP JUMPDEST PUSH1 0x40 MLOAD SWAP2 DUP3 SWAP2 DUP3 PUSH2 0x97C JUMP JUMPDEST CALLVALUE PUSH2 0x337 JUMPI PUSH2 0x388 PUSH2 0x495 PUSH2 0x9C9 CALLDATASIZE PUSH1 0x4 PUSH2 0x452 JUMP JUMPDEST SWAP1 PUSH2 0x188D JUMP JUMPDEST CALLVALUE PUSH2 0x337 JUMPI PUSH2 0x383 PUSH2 0x9E2 CALLDATASIZE PUSH1 0x4 PUSH2 0x354 JUMP JUMPDEST PUSH2 0x1309 JUMP JUMPDEST PUSH2 0x368 SWAP1 PUSH2 0x5F3 JUMP JUMPDEST PUSH2 0x368 SWAP1 SLOAD PUSH2 0x9E7 JUMP JUMPDEST PUSH2 0x368 SWAP1 PUSH1 0x8 SHR PUSH2 0x5F3 JUMP JUMPDEST PUSH2 0x368 SWAP1 SLOAD PUSH2 0x9FA JUMP JUMPDEST PUSH2 0x368 SWAP1 PUSH1 0x10 SHR PUSH2 0x5F3 JUMP JUMPDEST PUSH2 0x368 SWAP1 SLOAD PUSH2 0xA10 JUMP JUMPDEST PUSH1 0xC PUSH2 0xA31 DUP2 PUSH2 0x9F0 JUMP JUMPDEST SWAP2 PUSH2 0x368 PUSH1 0x0 PUSH2 0xA40 DUP5 PUSH2 0xA06 JUMP JUMPDEST SWAP4 ADD PUSH2 0xA1C JUMP JUMPDEST CALLVALUE PUSH2 0x337 JUMPI PUSH2 0xA57 CALLDATASIZE PUSH1 0x4 PUSH2 0x38C JUMP JUMPDEST PUSH2 0x388 PUSH2 0xA62 PUSH2 0xA26 JUMP JUMPDEST PUSH1 0x40 DUP1 MLOAD SWAP4 ISZERO ISZERO DUP5 MSTORE SWAP2 ISZERO ISZERO PUSH1 0x20 DUP5 ADD MSTORE ISZERO ISZERO SWAP1 DUP3 ADD MSTORE SWAP1 DUP2 SWAP1 PUSH1 0x60 DUP3 ADD SWAP1 JUMP JUMPDEST CALLVALUE PUSH2 0x337 JUMPI PUSH2 0xA93 CALLDATASIZE PUSH1 0x4 PUSH2 0x38C JUMP JUMPDEST PUSH2 0x388 PUSH32 0x0 PUSH2 0x4ED JUMP JUMPDEST PUSH2 0x388 PUSH2 0x9A7 PUSH2 0xACD CALLDATASIZE PUSH1 0x4 PUSH2 0x354 JUMP JUMPDEST PUSH2 0x27A1 JUMP JUMPDEST PUSH2 0x368 PUSH1 0x0 PUSH1 0x10 PUSH2 0x708 JUMP JUMPDEST CALLVALUE PUSH2 0x337 JUMPI PUSH2 0xAEE CALLDATASIZE PUSH1 0x4 PUSH2 0x38C JUMP JUMPDEST PUSH2 0x388 PUSH2 0x523 PUSH2 0xAD2 JUMP JUMPDEST PUSH2 0x368 PUSH1 0x0 PUSH1 0x9 PUSH2 0x708 JUMP JUMPDEST CALLVALUE PUSH2 0x337 JUMPI PUSH2 0xB15 CALLDATASIZE PUSH1 0x4 PUSH2 0x38C JUMP JUMPDEST PUSH2 0x388 PUSH2 0x523 PUSH2 0xAF9 JUMP JUMPDEST CALLVALUE PUSH2 0x337 JUMPI PUSH2 0x383 PUSH2 0xB33 CALLDATASIZE PUSH1 0x4 PUSH2 0x354 JUMP JUMPDEST PUSH2 0x1579 JUMP JUMPDEST CALLVALUE PUSH2 0x337 JUMPI PUSH2 0x383 PUSH2 0xB4B CALLDATASIZE PUSH1 0x4 PUSH2 0x5BE JUMP JUMPDEST PUSH2 0x28CB JUMP JUMPDEST SWAP2 SWAP1 PUSH1 0x40 DUP4 DUP3 SUB SLT PUSH2 0x337 JUMPI PUSH2 0x368 SWAP1 PUSH2 0xB6A DUP2 DUP6 PUSH2 0x445 JUMP JUMPDEST SWAP4 PUSH1 0x20 ADD PUSH2 0x445 JUMP JUMPDEST CALLVALUE PUSH2 0x337 JUMPI PUSH2 0x388 PUSH2 0x523 PUSH2 0xB89 CALLDATASIZE PUSH1 0x4 PUSH2 0xB50 JUMP JUMPDEST SWAP1 PUSH2 0xFF6 JUMP JUMPDEST PUSH2 0x368 PUSH1 0x0 PUSH1 0x13 PUSH2 0x708 JUMP JUMPDEST CALLVALUE PUSH2 0x337 JUMPI PUSH2 0xBAB CALLDATASIZE PUSH1 0x4 PUSH2 0x38C JUMP JUMPDEST PUSH2 0x388 PUSH2 0x523 PUSH2 0xB8F JUMP JUMPDEST PUSH2 0x368 PUSH1 0x0 PUSH1 0x7 PUSH2 0x708 JUMP JUMPDEST CALLVALUE PUSH2 0x337 JUMPI PUSH2 0xBD2 CALLDATASIZE PUSH1 0x4 PUSH2 0x38C JUMP JUMPDEST PUSH2 0x388 PUSH2 0x523 PUSH2 0xBB6 JUMP JUMPDEST PUSH2 0x368 PUSH1 0x0 PUSH1 0x11 PUSH2 0x708 JUMP JUMPDEST CALLVALUE PUSH2 0x337 JUMPI PUSH2 0xBF9 CALLDATASIZE PUSH1 0x4 PUSH2 0x38C JUMP JUMPDEST PUSH2 0x388 PUSH2 0x523 PUSH2 0xBDD JUMP JUMPDEST CALLVALUE PUSH2 0x337 JUMPI PUSH2 0x383 PUSH2 0xC17 CALLDATASIZE PUSH1 0x4 PUSH2 0x452 JUMP JUMPDEST SWAP1 PUSH2 0x14C9 JUMP JUMPDEST CALLVALUE PUSH2 0x337 JUMPI PUSH2 0x383 PUSH2 0xC30 CALLDATASIZE PUSH1 0x4 PUSH2 0x5BE JUMP JUMPDEST PUSH2 0xDBC JUMP JUMPDEST CALLVALUE PUSH2 0x337 JUMPI PUSH2 0x383 PUSH2 0xC48 CALLDATASIZE PUSH1 0x4 PUSH2 0x354 JUMP JUMPDEST PUSH2 0x1329 JUMP JUMPDEST PUSH2 0x368 SWAP1 PUSH1 0x8 SHR PUSH2 0x42A JUMP JUMPDEST PUSH2 0x368 SWAP1 SLOAD PUSH2 0xC4D JUMP JUMPDEST PUSH2 0x368 PUSH1 0x5 PUSH2 0xC59 JUMP JUMPDEST PUSH2 0xC75 PUSH2 0xD01 JUMP JUMPDEST PUSH2 0x352 PUSH2 0xC93 JUMP JUMPDEST PUSH2 0x42A PUSH2 0x368 PUSH2 0x368 SWAP3 SWAP1 JUMP JUMPDEST PUSH2 0x368 SWAP1 PUSH2 0xC7D JUMP JUMPDEST PUSH2 0x352 PUSH2 0xCA0 PUSH1 0x0 PUSH2 0xC8A JUMP JUMPDEST PUSH2 0xDF9 JUMP JUMPDEST PUSH2 0x352 PUSH2 0xC6D JUMP JUMPDEST ISZERO PUSH2 0xCB4 JUMPI JUMP JUMPDEST PUSH1 0x40 MLOAD PUSH3 0x461BCD PUSH1 0xE5 SHL DUP2 MSTORE DUP1 PUSH2 0xCFD PUSH1 0x4 DUP3 ADD PUSH1 0x20 DUP1 DUP3 MSTORE DUP2 DUP2 ADD MSTORE PUSH32 0x4F776E61626C653A2063616C6C6572206973206E6F7420746865206F776E6572 PUSH1 0x40 DUP3 ADD MSTORE PUSH1 0x60 ADD SWAP1 JUMP JUMPDEST SUB SWAP1 REVERT JUMPDEST PUSH2 0x352 PUSH2 0xD0C PUSH2 0xC63 JUMP JUMPDEST PUSH2 0xD25 PUSH2 0xD18 CALLER PUSH2 0x42A JUMP JUMPDEST SWAP2 PUSH1 0x1 PUSH1 0x1 PUSH1 0xA0 SHL SUB AND SWAP1 JUMP JUMPDEST EQ PUSH2 0xCAD JUMP JUMPDEST PUSH2 0x352 SWAP1 PUSH2 0xD37 PUSH2 0xD01 JUMP JUMPDEST PUSH2 0xD97 JUMP JUMPDEST ISZERO PUSH2 0xD43 JUMPI JUMP JUMPDEST PUSH1 0x40 MLOAD PUSH3 0x461BCD PUSH1 0xE5 SHL DUP2 MSTORE PUSH1 0x20 PUSH1 0x4 DUP3 ADD MSTORE PUSH1 0x26 PUSH1 0x24 DUP3 ADD MSTORE PUSH32 0x4F776E61626C653A206E6577206F776E657220697320746865207A65726F2061 PUSH1 0x44 DUP3 ADD MSTORE PUSH6 0x646472657373 PUSH1 0xD0 SHL PUSH1 0x64 DUP3 ADD MSTORE PUSH1 0x84 SWAP1 REVERT JUMPDEST PUSH2 0x352 SWAP1 PUSH2 0xCA0 PUSH2 0xDAB PUSH2 0x42A PUSH1 0x0 PUSH2 0xC8A JUMP JUMPDEST PUSH1 0x1 PUSH1 0x1 PUSH1 0xA0 SHL SUB DUP4 AND EQ ISZERO PUSH2 0xD3C JUMP JUMPDEST PUSH2 0x352 SWAP1 PUSH2 0xD2B JUMP JUMPDEST SWAP1 PUSH2 0x100 PUSH1 0x1 PUSH1 0xA8 SHL SUB SWAP1 PUSH1 0x8 SHL JUMPDEST SWAP2 DUP2 NOT AND SWAP2 AND OR SWAP1 JUMP JUMPDEST SWAP1 PUSH2 0xDEE PUSH2 0x368 PUSH2 0xDF5 SWAP3 PUSH2 0x945 JUMP JUMPDEST DUP3 SLOAD PUSH2 0xDC5 JUMP JUMPDEST SWAP1 SSTORE JUMP JUMPDEST PUSH2 0xE03 PUSH1 0x5 PUSH2 0xC59 JUMP JUMPDEST SWAP1 PUSH2 0xE0F DUP2 PUSH1 0x5 PUSH2 0xDDE JUMP JUMPDEST PUSH2 0xE42 PUSH2 0xE3C PUSH32 0x8BE0079C531659141344CD1FD0A4F28419497F9722A3DAAFE3B4186F6B6457E0 SWAP4 PUSH2 0x945 JUMP JUMPDEST SWAP2 PUSH2 0x945 JUMP JUMPDEST SWAP2 PUSH2 0xE4C PUSH1 0x40 MLOAD SWAP1 JUMP JUMPDEST DUP1 DUP1 JUMPDEST SUB SWAP1 LOG3 JUMP JUMPDEST PUSH2 0x368 PUSH1 0x5 PUSH2 0x9F0 JUMP JUMPDEST PUSH4 0x4E487B71 PUSH1 0xE0 SHL PUSH1 0x0 MSTORE PUSH1 0x22 PUSH1 0x4 MSTORE PUSH1 0x24 PUSH1 0x0 REVERT JUMPDEST SWAP1 PUSH1 0x1 PUSH1 0x2 DUP4 DIV SWAP3 AND DUP1 ISZERO PUSH2 0xE94 JUMPI JUMPDEST PUSH1 0x20 DUP4 LT EQ PUSH2 0xE8F JUMPI JUMP JUMPDEST PUSH2 0xE5E JUMP JUMPDEST SWAP2 PUSH1 0x7F AND SWAP2 PUSH2 0xE84 JUMP JUMPDEST DUP1 SLOAD PUSH1 0x0 SWAP4 SWAP3 SWAP2 PUSH2 0xEBB PUSH2 0xEB1 DUP4 PUSH2 0xE74 JUMP JUMPDEST DUP1 DUP6 MSTORE SWAP4 PUSH1 0x20 ADD SWAP1 JUMP JUMPDEST SWAP2 PUSH1 0x1 DUP2 AND SWAP1 DUP2 ISZERO PUSH2 0xF0D JUMPI POP PUSH1 0x1 EQ PUSH2 0xED4 JUMPI POP POP POP JUMP JUMPDEST PUSH2 0xEE7 SWAP2 SWAP3 SWAP4 SWAP5 POP PUSH1 0x0 MSTORE PUSH1 0x20 PUSH1 0x0 KECCAK256 SWAP1 JUMP JUMPDEST SWAP2 PUSH1 0x0 SWAP3 JUMPDEST DUP2 DUP5 LT PUSH2 0xEF9 JUMPI POP POP ADD SWAP1 JUMP JUMPDEST DUP1 SLOAD DUP5 DUP5 ADD MSTORE PUSH1 0x20 SWAP1 SWAP4 ADD SWAP3 PUSH1 0x1 ADD PUSH2 0xEEC JUMP JUMPDEST SWAP3 SWAP5 SWAP6 POP POP POP PUSH1 0xFF NOT AND DUP3 MSTORE ISZERO ISZERO PUSH1 0x20 MUL ADD SWAP1 JUMP JUMPDEST SWAP1 PUSH2 0x368 SWAP2 PUSH2 0xE9E JUMP JUMPDEST PUSH4 0x4E487B71 PUSH1 0xE0 SHL PUSH1 0x0 MSTORE PUSH1 0x41 PUSH1 0x4 MSTORE PUSH1 0x24 PUSH1 0x0 REVERT JUMPDEST SWAP1 PUSH1 0x1F ADD PUSH1 0x1F NOT AND DUP2 ADD SWAP1 DUP2 LT PUSH8 0xFFFFFFFFFFFFFFFF DUP3 GT OR PUSH2 0xF64 JUMPI PUSH1 0x40 MSTORE JUMP JUMPDEST PUSH2 0xF2C JUMP JUMPDEST SWAP1 PUSH2 0x352 PUSH2 0xF83 SWAP3 PUSH2 0xF7A PUSH1 0x40 MLOAD SWAP1 JUMP JUMPDEST SWAP4 DUP5 DUP1 SWAP3 PUSH2 0xF22 JUMP JUMPDEST SUB DUP4 PUSH2 0xF42 JUMP JUMPDEST PUSH2 0x368 SWAP1 PUSH2 0xF69 JUMP JUMPDEST PUSH2 0x368 PUSH1 0x3 PUSH2 0xF8A JUMP JUMPDEST PUSH2 0x368 PUSH1 0x4 PUSH2 0xF8A JUMP JUMPDEST PUSH2 0x368 SWAP1 DUP2 JUMP JUMPDEST PUSH2 0x368 SWAP1 SLOAD PUSH2 0xFA7 JUMP JUMPDEST PUSH2 0x368 PUSH1 0x2 PUSH2 0xFAE JUMP JUMPDEST SWAP1 PUSH2 0xFCC SWAP1 PUSH2 0x945 JUMP JUMPDEST PUSH1 0x0 MSTORE PUSH1 0x20 MSTORE PUSH1 0x40 PUSH1 0x0 KECCAK256 SWAP1 JUMP JUMPDEST PUSH2 0xFF1 PUSH2 0x368 SWAP2 PUSH2 0xFE9 PUSH1 0x0 SWAP1 JUMP JUMPDEST POP PUSH1 0x0 PUSH2 0xFC2 JUMP JUMPDEST PUSH2 0xFAE JUMP JUMPDEST PUSH2 0x368 SWAP2 PUSH2 0x1011 PUSH2 0xFF1 SWAP3 PUSH2 0x1009 PUSH1 0x0 SWAP1 JUMP JUMPDEST POP PUSH1 0x1 PUSH2 0xFC2 JUMP JUMPDEST PUSH2 0xFC2 JUMP JUMPDEST PUSH2 0x1021 SWAP2 SWAP1 CALLER PUSH2 0x11C8 JUMP JUMPDEST PUSH1 0x1 SWAP1 JUMP JUMPDEST PUSH4 0x4E487B71 PUSH1 0xE0 SHL PUSH1 0x0 MSTORE PUSH1 0x11 PUSH1 0x4 MSTORE PUSH1 0x24 PUSH1 0x0 REVERT JUMPDEST SWAP2 SWAP1 DUP3 ADD DUP1 SWAP3 GT PUSH2 0x1049 JUMPI JUMP JUMPDEST PUSH2 0x1026 JUMP JUMPDEST PUSH2 0x1021 SWAP2 SWAP1 PUSH2 0x1067 CALLER SWAP3 PUSH2 0x1062 DUP4 DUP6 PUSH2 0xFF6 JUMP JUMPDEST PUSH2 0x103C JUMP JUMPDEST SWAP2 PUSH2 0x11C8 JUMP JUMPDEST ISZERO PUSH2 0x1074 JUMPI JUMP JUMPDEST PUSH1 0x40 MLOAD PUSH3 0x461BCD PUSH1 0xE5 SHL DUP2 MSTORE PUSH1 0x20 PUSH1 0x4 DUP3 ADD MSTORE PUSH1 0x25 PUSH1 0x24 DUP3 ADD MSTORE PUSH32 0x45524332303A2064656372656173656420616C6C6F77616E63652062656C6F77 PUSH1 0x44 DUP3 ADD MSTORE PUSH5 0x207A65726F PUSH1 0xD8 SHL PUSH1 0x64 DUP3 ADD MSTORE PUSH1 0x84 SWAP1 REVERT JUMPDEST PUSH2 0x1021 SWAP2 SWAP1 PUSH2 0x1067 CALLER SWAP3 PUSH2 0x10DB DUP4 DUP6 PUSH2 0xFF6 JUMP JUMPDEST PUSH2 0x10E7 DUP3 DUP3 LT ISZERO PUSH2 0x106D JUMP JUMPDEST SUB SWAP1 JUMP JUMPDEST ISZERO PUSH2 0x10F2 JUMPI JUMP JUMPDEST PUSH1 0x40 MLOAD PUSH3 0x461BCD PUSH1 0xE5 SHL DUP2 MSTORE PUSH1 0x20 PUSH1 0x4 DUP3 ADD MSTORE PUSH1 0x24 DUP1 DUP3 ADD MSTORE PUSH32 0x45524332303A20617070726F76652066726F6D20746865207A65726F20616464 PUSH1 0x44 DUP3 ADD MSTORE PUSH4 0x72657373 PUSH1 0xE0 SHL PUSH1 0x64 DUP3 ADD MSTORE PUSH1 0x84 SWAP1 REVERT JUMPDEST ISZERO PUSH2 0x114A JUMPI JUMP JUMPDEST PUSH1 0x40 MLOAD PUSH3 0x461BCD PUSH1 0xE5 SHL DUP2 MSTORE PUSH1 0x20 PUSH1 0x4 DUP3 ADD MSTORE PUSH1 0x22 PUSH1 0x24 DUP3 ADD MSTORE PUSH32 0x45524332303A20617070726F766520746F20746865207A65726F206164647265 PUSH1 0x44 DUP3 ADD MSTORE PUSH2 0x7373 PUSH1 0xF0 SHL PUSH1 0x64 DUP3 ADD MSTORE PUSH1 0x84 SWAP1 REVERT JUMPDEST SWAP1 PUSH1 0x0 NOT SWAP1 PUSH2 0xDD4 JUMP JUMPDEST PUSH2 0x368 PUSH2 0x368 PUSH2 0x368 SWAP3 SWAP1 JUMP JUMPDEST SWAP1 PUSH2 0x11C1 PUSH2 0x368 PUSH2 0xDF5 SWAP3 PUSH2 0x11A4 JUMP JUMPDEST DUP3 SLOAD PUSH2 0x119A JUMP JUMPDEST PUSH2 0x1207 PUSH2 0x11F6 PUSH2 0x11D8 PUSH1 0x0 PUSH2 0xC8A JUMP JUMPDEST PUSH2 0x42A PUSH1 0x1 PUSH1 0x1 PUSH1 0xA0 SHL SUB DUP3 AND PUSH1 0x1 PUSH1 0x1 PUSH1 0xA0 SHL SUB DUP7 AND EQ ISZERO PUSH2 0x10EB JUMP JUMPDEST PUSH1 0x1 PUSH1 0x1 PUSH1 0xA0 SHL SUB DUP5 AND EQ ISZERO PUSH2 0x1143 JUMP JUMPDEST PUSH2 0x121F DUP4 PUSH2 0x121A DUP5 PUSH2 0x1011 DUP6 PUSH1 0x1 PUSH2 0xFC2 JUMP JUMPDEST PUSH2 0x11B1 JUMP JUMPDEST PUSH2 0xE4F PUSH2 0x1255 PUSH2 0x124F PUSH32 0x8C5BE1E5EBEC7D5BD14F71427D1E84F3DD0314C0F7B2291E5B200AC8C7C3B925 SWAP4 PUSH2 0x945 JUMP JUMPDEST SWAP4 PUSH2 0x945 JUMP JUMPDEST SWAP4 PUSH2 0x527 PUSH1 0x40 MLOAD SWAP1 JUMP JUMPDEST PUSH2 0x368 PUSH1 0xC PUSH2 0xA06 JUMP JUMPDEST PUSH2 0x368 PUSH1 0xC PUSH2 0x9F0 JUMP JUMPDEST PUSH2 0x368 PUSH1 0xC PUSH2 0xA1C JUMP JUMPDEST PUSH2 0x368 SWAP1 PUSH2 0x42A JUMP JUMPDEST PUSH2 0x368 SWAP1 SLOAD PUSH2 0x127D JUMP JUMPDEST SWAP1 PUSH1 0x1 PUSH1 0x1 PUSH1 0xA0 SHL SUB SWAP1 PUSH2 0xDD4 JUMP JUMPDEST SWAP1 PUSH2 0x12AF PUSH2 0x368 PUSH2 0xDF5 SWAP3 PUSH2 0x945 JUMP JUMPDEST DUP3 SLOAD PUSH2 0x1290 JUMP JUMPDEST PUSH2 0x12C0 PUSH1 0xE PUSH2 0x1286 JUMP JUMPDEST PUSH2 0x12D0 PUSH2 0xD18 PUSH2 0x42A PUSH1 0x0 PUSH2 0xC8A JUMP JUMPDEST SUB PUSH2 0x12E0 JUMPI PUSH2 0x352 SWAP1 PUSH1 0xE PUSH2 0x129F JUMP JUMPDEST PUSH1 0x40 MLOAD PUSH4 0x131D002D PUSH1 0xE0 SHL DUP2 MSTORE PUSH1 0x4 SWAP1 REVERT JUMPDEST PUSH2 0x352 SWAP1 PUSH2 0x12FE PUSH2 0xD01 JUMP JUMPDEST PUSH2 0x352 SWAP1 PUSH1 0xA PUSH2 0x11B1 JUMP JUMPDEST PUSH2 0x352 SWAP1 PUSH2 0x12F2 JUMP JUMPDEST PUSH2 0x352 SWAP1 PUSH2 0x131E PUSH2 0xD01 JUMP JUMPDEST PUSH2 0x352 SWAP1 PUSH1 0xB PUSH2 0x11B1 JUMP JUMPDEST PUSH2 0x352 SWAP1 PUSH2 0x1312 JUMP JUMPDEST PUSH2 0x352 SWAP1 PUSH2 0x133E PUSH2 0xD01 JUMP JUMPDEST PUSH2 0x352 SWAP1 PUSH2 0x134A PUSH2 0x13FD JUMP JUMPDEST PUSH2 0x1357 PUSH2 0x368 PUSH1 0x9 PUSH2 0xFAE JUMP JUMPDEST DUP2 GT ISZERO PUSH2 0x13A3 JUMPI PUSH2 0x1369 DUP2 PUSH1 0x9 PUSH2 0x11B1 JUMP JUMPDEST PUSH2 0x1393 PUSH32 0xAAB136B9DBE20468AB36DCD11ABD26B3DCEA2B259F018136905BF827F37F5514 SWAP2 PUSH2 0x11A4 JUMP JUMPDEST SWAP1 PUSH2 0x139D PUSH1 0x40 MLOAD SWAP1 JUMP JUMPDEST PUSH1 0x0 SWAP1 LOG2 JUMP JUMPDEST PUSH1 0x40 MLOAD PUSH4 0x521E96BB PUSH1 0xE1 SHL DUP2 MSTORE PUSH1 0x4 SWAP1 REVERT JUMPDEST PUSH2 0x352 SWAP1 PUSH2 0x1332 JUMP JUMPDEST ISZERO PUSH2 0x13C5 JUMPI JUMP JUMPDEST PUSH1 0x40 MLOAD PUSH3 0x461BCD PUSH1 0xE5 SHL DUP2 MSTORE PUSH1 0x20 PUSH1 0x4 DUP3 ADD MSTORE PUSH1 0x10 PUSH1 0x24 DUP3 ADD MSTORE PUSH16 0x14185D5CD8589B194E881C185D5CD959 PUSH1 0x82 SHL PUSH1 0x44 DUP3 ADD MSTORE PUSH1 0x64 SWAP1 REVERT JUMPDEST PUSH2 0x352 PUSH2 0x140F PUSH2 0x140B PUSH2 0xE54 JUMP JUMPDEST ISZERO SWAP1 JUMP JUMPDEST PUSH2 0x13BE JUMP JUMPDEST SWAP1 PUSH2 0x352 SWAP2 PUSH2 0x1421 PUSH2 0xD01 JUMP JUMPDEST SWAP1 PUSH2 0x352 SWAP2 PUSH2 0x142E PUSH2 0x13FD JUMP JUMPDEST PUSH2 0x143E JUMP JUMPDEST PUSH2 0x368 PUSH2 0x7D0 PUSH2 0x11A4 JUMP JUMPDEST SWAP1 PUSH2 0x144A PUSH2 0x368 PUSH2 0x1433 JUMP JUMPDEST DUP2 GT PUSH2 0x14A2 JUMPI PUSH2 0x1459 DUP3 PUSH2 0x2DC6 JUMP JUMPDEST PUSH2 0x1464 DUP3 PUSH1 0xD PUSH2 0x129F JUMP JUMPDEST PUSH2 0x146F DUP2 PUSH1 0xF PUSH2 0x11B1 JUMP JUMPDEST PUSH2 0xE42 PUSH2 0x149C PUSH32 0xE42708D93B95810922305119A3271CA42233DA9EBE1E1E503F0E887817A32C7A SWAP4 PUSH2 0x945 JUMP JUMPDEST SWAP2 PUSH2 0x11A4 JUMP JUMPDEST PUSH2 0xCFD SWAP1 PUSH2 0x14AF PUSH1 0x40 MLOAD SWAP1 JUMP JUMPDEST PUSH4 0x65A0074B PUSH1 0xE1 SHL DUP2 MSTORE SWAP2 DUP3 SWAP2 PUSH1 0x4 DUP4 ADD SWAP1 DUP2 MSTORE PUSH1 0x20 ADD SWAP1 JUMP JUMPDEST SWAP1 PUSH2 0x352 SWAP2 PUSH2 0x1414 JUMP JUMPDEST PUSH2 0x352 SWAP1 PUSH2 0x14DF PUSH2 0xD01 JUMP JUMPDEST PUSH2 0x352 SWAP1 PUSH2 0x14EB PUSH2 0x13FD JUMP JUMPDEST PUSH2 0x14F6 PUSH2 0x140B PUSH2 0x1273 JUMP JUMPDEST PUSH2 0x1567 JUMPI PUSH2 0x1505 PUSH2 0x368 PUSH2 0x1433 JUMP JUMPDEST DUP2 GT PUSH2 0x1540 JUMPI PUSH2 0x1516 DUP2 PUSH1 0x11 PUSH2 0x11B1 JUMP JUMPDEST PUSH2 0x1393 PUSH32 0x8C3208FA4FAB043D09D9517339346757A58804A46F954585BA21465677820817 SWAP2 PUSH2 0x11A4 JUMP JUMPDEST PUSH2 0xCFD SWAP1 PUSH2 0x154D PUSH1 0x40 MLOAD SWAP1 JUMP JUMPDEST PUSH4 0x5DBA329 PUSH1 0xE5 SHL DUP2 MSTORE SWAP2 DUP3 SWAP2 PUSH1 0x4 DUP4 ADD SWAP1 DUP2 MSTORE PUSH1 0x20 ADD SWAP1 JUMP JUMPDEST PUSH1 0x40 MLOAD PUSH4 0x19B3CA53 PUSH1 0xE3 SHL DUP2 MSTORE PUSH1 0x4 SWAP1 REVERT JUMPDEST PUSH2 0x352 SWAP1 PUSH2 0x14D3 JUMP JUMPDEST SWAP1 PUSH2 0x368 SWAP3 SWAP2 PUSH2 0x1590 PUSH2 0x13FD JUMP JUMPDEST PUSH2 0x15DA JUMP JUMPDEST PUSH2 0x368 SWAP1 PUSH1 0xA0 SHR PUSH2 0x5F3 JUMP JUMPDEST PUSH2 0x368 SWAP1 SLOAD PUSH2 0x1595 JUMP JUMPDEST SWAP2 SWAP1 DUP3 SUB SWAP2 DUP3 GT PUSH2 0x1049 JUMPI JUMP JUMPDEST PUSH2 0x368 SWAP1 PUSH1 0xA8 SHR PUSH2 0x5F3 JUMP JUMPDEST PUSH2 0x368 SWAP1 SLOAD PUSH2 0x15B8 JUMP JUMPDEST PUSH1 0x40 MLOAD RETURNDATASIZE PUSH1 0x0 DUP3 RETURNDATACOPY RETURNDATASIZE SWAP1 REVERT JUMPDEST POP SWAP1 CALLER DUP2 PUSH2 0x15E8 DUP2 DUP4 PUSH2 0x2A2F JUMP JUMPDEST SWAP2 PUSH2 0x15F3 DUP3 DUP3 PUSH2 0x299B JUMP JUMPDEST SWAP2 PUSH2 0x15FD DUP2 PUSH2 0x2AA3 JUMP JUMPDEST SWAP3 PUSH2 0x1607 ADDRESS PUSH2 0x945 JUMP JUMPDEST SWAP5 PUSH1 0x1 PUSH1 0x1 PUSH1 0xA0 SHL SUB DUP7 AND PUSH1 0x1 PUSH1 0x1 PUSH1 0xA0 SHL SUB DUP6 AND EQ DUP1 ISZERO PUSH2 0x1871 JUMPI JUMPDEST DUP1 ISZERO PUSH2 0x1856 JUMPI JUMPDEST DUP1 ISZERO PUSH2 0x1835 JUMPI JUMPDEST ISZERO JUMPDEST PUSH2 0x1735 JUMPI JUMPDEST POP POP POP POP POP PUSH2 0x1647 DUP2 PUSH2 0xFDA JUMP JUMPDEST PUSH2 0x1651 PUSH1 0x14 PUSH2 0x15A1 JUMP JUMPDEST DUP1 PUSH2 0x1722 JUMPI JUMPDEST DUP1 PUSH2 0x1704 JUMPI JUMPDEST DUP1 PUSH2 0x16EF JUMPI JUMPDEST PUSH2 0x1673 JUMPI JUMPDEST POP POP PUSH2 0x368 SWAP2 PUSH2 0x1899 JUMP JUMPDEST PUSH2 0x1692 PUSH2 0x168C PUSH2 0x1697 SWAP3 PUSH2 0x1687 PUSH1 0xA PUSH2 0xFAE JUMP JUMPDEST PUSH2 0x2DB4 JUMP JUMPDEST DUP5 PUSH2 0x2DB4 JUMP JUMPDEST PUSH2 0x2DAB JUMP JUMPDEST BALANCE PUSH2 0x16A5 PUSH2 0x368 PUSH1 0xB PUSH2 0xFAE JUMP JUMPDEST DUP2 GT PUSH2 0x16B2 JUMPI JUMPDEST DUP1 PUSH2 0x1668 JUMP JUMPDEST PUSH1 0x0 DUP1 DUP1 DUP1 SWAP4 PUSH2 0x16CD PUSH2 0x16C8 PUSH2 0x16C8 PUSH1 0xD PUSH2 0x1286 JUMP JUMPDEST PUSH2 0x945 JUMP JUMPDEST DUP3 DUP3 ISZERO PUSH2 0x16E6 JUMPI JUMPDEST CALL ISZERO PUSH2 0x16E1 JUMPI CODESIZE PUSH2 0x16AC JUMP JUMPDEST PUSH2 0x15CE JUMP JUMPDEST POP PUSH2 0x8FC PUSH2 0x16D5 JUMP JUMPDEST POP PUSH2 0x16FD PUSH2 0x368 PUSH1 0xA PUSH2 0xFAE JUMP JUMPDEST DUP2 GT PUSH2 0x1663 JUMP JUMPDEST POP PUSH2 0x1712 PUSH2 0x42A PUSH1 0x14 PUSH2 0x1286 JUMP JUMPDEST PUSH1 0x1 PUSH1 0x1 PUSH1 0xA0 SHL SUB DUP6 AND EQ PUSH2 0x165D JUMP JUMPDEST POP PUSH2 0x1730 PUSH2 0x140B PUSH1 0x14 PUSH2 0x15C4 JUMP JUMPDEST PUSH2 0x1657 JUMP JUMPDEST PUSH2 0x1742 DUP4 PUSH2 0x1062 DUP11 PUSH2 0xFDA JUMP JUMPDEST PUSH2 0x1756 PUSH2 0x1752 PUSH2 0x368 PUSH1 0x9 PUSH2 0xFAE JUMP JUMPDEST SWAP2 SWAP1 JUMP JUMPDEST GT PUSH2 0x1804 JUMPI PUSH2 0x1765 PUSH1 0x14 PUSH2 0x15A1 JUMP JUMPDEST ISZERO PUSH2 0x1639 JUMPI PUSH1 0x0 SWAP3 PUSH2 0x1776 DUP5 PUSH2 0x11A4 JUMP JUMPDEST DUP3 SUB PUSH2 0x17E8 JUMPI JUMPDEST POP POP PUSH2 0x1788 DUP3 PUSH2 0x11A4 JUMP JUMPDEST DUP2 SUB PUSH2 0x17C4 JUMPI JUMPDEST POP PUSH2 0x1799 SWAP1 PUSH2 0x11A4 JUMP JUMPDEST DUP3 SUB PUSH2 0x17A8 JUMPI JUMPDEST DUP1 DUP1 DUP1 PUSH2 0x1639 JUMP JUMPDEST SWAP3 PUSH2 0x17B7 DUP3 PUSH2 0x17BC SWAP5 SWAP6 PUSH2 0x1B22 JUMP JUMPDEST PUSH2 0x15AB JUMP JUMPDEST SWAP1 CODESIZE DUP1 PUSH2 0x17A0 JUMP JUMPDEST DUP1 PUSH2 0x1799 SWAP3 SWAP7 PUSH2 0x17B7 PUSH2 0x17E1 SWAP4 PUSH2 0x17DB PUSH1 0xD PUSH2 0x1286 JUMP JUMPDEST DUP8 PUSH2 0x19B6 JUMP JUMPDEST SWAP5 SWAP1 PUSH2 0x178F JUMP JUMPDEST PUSH2 0x17FC SWAP3 SWAP8 POP PUSH2 0x17B7 DUP3 PUSH2 0x17DB PUSH1 0xE PUSH2 0x1286 JUMP JUMPDEST SWAP5 CODESIZE DUP1 PUSH2 0x177D JUMP JUMPDEST PUSH2 0xCFD DUP9 PUSH2 0x1811 PUSH1 0x40 MLOAD SWAP1 JUMP JUMPDEST PUSH4 0xF6202A8F PUSH1 0xE0 SHL DUP2 MSTORE SWAP2 DUP3 SWAP2 PUSH1 0x4 DUP4 ADD PUSH1 0x1 PUSH1 0x1 PUSH1 0xA0 SHL SUB SWAP1 SWAP2 AND DUP2 MSTORE PUSH1 0x20 ADD SWAP1 JUMP JUMPDEST POP PUSH2 0x1634 PUSH2 0x1844 PUSH2 0x42A PUSH2 0xC63 JUMP JUMPDEST PUSH1 0x1 PUSH1 0x1 PUSH1 0xA0 SHL SUB DUP11 AND EQ SWAP1 POP PUSH2 0x1632 JUMP JUMPDEST POP PUSH1 0x1 PUSH1 0x1 PUSH1 0xA0 SHL SUB DUP7 AND PUSH1 0x1 PUSH1 0x1 PUSH1 0xA0 SHL SUB DUP10 AND EQ PUSH2 0x162B JUMP JUMPDEST POP PUSH2 0x187D PUSH2 0x42A PUSH2 0xC63 JUMP JUMPDEST PUSH1 0x1 PUSH1 0x1 PUSH1 0xA0 SHL SUB DUP6 AND EQ PUSH2 0x1624 JUMP JUMPDEST PUSH2 0x368 SWAP2 SWAP1 PUSH1 0x0 PUSH2 0x1582 JUMP JUMPDEST PUSH2 0x1021 SWAP2 SWAP1 CALLER PUSH2 0x19B6 JUMP JUMPDEST PUSH2 0x19B6 JUMP JUMPDEST ISZERO PUSH2 0x18B0 JUMPI JUMP JUMPDEST PUSH1 0x40 MLOAD PUSH3 0x461BCD PUSH1 0xE5 SHL DUP2 MSTORE PUSH1 0x20 PUSH1 0x4 DUP3 ADD MSTORE PUSH1 0x25 PUSH1 0x24 DUP3 ADD MSTORE PUSH32 0x45524332303A207472616E736665722066726F6D20746865207A65726F206164 PUSH1 0x44 DUP3 ADD MSTORE PUSH5 0x6472657373 PUSH1 0xD8 SHL PUSH1 0x64 DUP3 ADD MSTORE PUSH1 0x84 SWAP1 REVERT JUMPDEST ISZERO PUSH2 0x190A JUMPI JUMP JUMPDEST PUSH1 0x40 MLOAD PUSH3 0x461BCD PUSH1 0xE5 SHL DUP2 MSTORE PUSH1 0x20 PUSH1 0x4 DUP3 ADD MSTORE PUSH1 0x23 PUSH1 0x24 DUP3 ADD MSTORE PUSH32 0x45524332303A207472616E7366657220746F20746865207A65726F2061646472 PUSH1 0x44 DUP3 ADD MSTORE PUSH3 0x657373 PUSH1 0xE8 SHL PUSH1 0x64 DUP3 ADD MSTORE PUSH1 0x84 SWAP1 REVERT JUMPDEST ISZERO PUSH2 0x1962 JUMPI JUMP JUMPDEST PUSH1 0x40 MLOAD PUSH3 0x461BCD PUSH1 0xE5 SHL DUP2 MSTORE PUSH1 0x20 PUSH1 0x4 DUP3 ADD MSTORE PUSH1 0x26 PUSH1 0x24 DUP3 ADD MSTORE PUSH32 0x45524332303A207472616E7366657220616D6F756E7420657863656564732062 PUSH1 0x44 DUP3 ADD MSTORE PUSH6 0x616C616E6365 PUSH1 0xD0 SHL PUSH1 0x64 DUP3 ADD MSTORE PUSH1 0x84 SWAP1 REVERT JUMPDEST PUSH2 0x1A45 PUSH2 0x1A32 DUP4 PUSH1 0x0 PUSH2 0x19FD PUSH2 0x19EC PUSH2 0x19CE DUP4 PUSH2 0xC8A JUMP JUMPDEST PUSH2 0x42A PUSH1 0x1 PUSH1 0x1 PUSH1 0xA0 SHL SUB DUP3 AND PUSH1 0x1 PUSH1 0x1 PUSH1 0xA0 SHL SUB DUP11 AND EQ ISZERO PUSH2 0x18A9 JUMP JUMPDEST PUSH1 0x1 PUSH1 0x1 PUSH1 0xA0 SHL SUB DUP5 AND EQ ISZERO PUSH2 0x1903 JUMP JUMPDEST PUSH2 0x1A08 DUP8 DUP4 DUP8 PUSH2 0x1B9A JUMP JUMPDEST PUSH2 0x1011 PUSH2 0x1A28 DUP9 PUSH2 0x1A1C PUSH2 0xFF1 DUP10 DUP7 PUSH2 0xFC2 JUMP JUMPDEST PUSH2 0x10E7 DUP3 DUP3 LT ISZERO PUSH2 0x195B JUMP JUMPDEST PUSH2 0x121A DUP8 DUP5 PUSH2 0xFC2 JUMP JUMPDEST PUSH2 0x1A3F DUP6 PUSH2 0x3EE DUP4 PUSH2 0xFAE JUMP JUMPDEST SWAP1 PUSH2 0x11B1 JUMP JUMPDEST PUSH2 0xE4F PUSH2 0x1255 PUSH2 0x124F PUSH32 0xDDF252AD1BE2C89B69C2B068FC378DAA952BA7F163C4A11628F55A4DF523B3EF SWAP4 PUSH2 0x945 JUMP JUMPDEST ISZERO PUSH2 0x1A7C JUMPI JUMP JUMPDEST PUSH1 0x40 MLOAD PUSH3 0x461BCD PUSH1 0xE5 SHL DUP2 MSTORE PUSH1 0x20 PUSH1 0x4 DUP3 ADD MSTORE PUSH1 0x21 PUSH1 0x24 DUP3 ADD MSTORE PUSH32 0x45524332303A206275726E2066726F6D20746865207A65726F20616464726573 PUSH1 0x44 DUP3 ADD MSTORE PUSH1 0x73 PUSH1 0xF8 SHL PUSH1 0x64 DUP3 ADD MSTORE PUSH1 0x84 SWAP1 REVERT JUMPDEST ISZERO PUSH2 0x1AD2 JUMPI JUMP JUMPDEST PUSH1 0x40 MLOAD PUSH3 0x461BCD PUSH1 0xE5 SHL DUP2 MSTORE PUSH1 0x20 PUSH1 0x4 DUP3 ADD MSTORE PUSH1 0x22 PUSH1 0x24 DUP3 ADD MSTORE PUSH32 0x45524332303A206275726E20616D6F756E7420657863656564732062616C616E PUSH1 0x44 DUP3 ADD MSTORE PUSH2 0x6365 PUSH1 0xF0 SHL PUSH1 0x64 DUP3 ADD MSTORE PUSH1 0x84 SWAP1 REVERT JUMPDEST PUSH1 0x0 SWAP1 PUSH2 0x1B82 PUSH2 0x1B31 DUP4 PUSH2 0xC8A JUMP JUMPDEST SWAP3 PUSH2 0x1B50 PUSH1 0x1 PUSH1 0x1 PUSH1 0xA0 SHL SUB DUP6 AND PUSH1 0x1 PUSH1 0x1 PUSH1 0xA0 SHL SUB DUP6 AND EQ ISZERO PUSH2 0x1A75 JUMP JUMPDEST PUSH2 0x1B5B DUP6 DUP6 DUP6 PUSH2 0x1B9A JUMP JUMPDEST PUSH2 0x121A DUP4 PUSH2 0x1B7C DUP8 PUSH2 0x1B70 PUSH2 0xFF1 DUP5 DUP8 PUSH2 0xFC2 JUMP JUMPDEST PUSH2 0x10E7 DUP3 DUP3 LT ISZERO PUSH2 0x1ACB JUMP JUMPDEST SWAP3 PUSH2 0xFC2 JUMP JUMPDEST PUSH2 0x1A45 PUSH2 0x1B93 DUP5 PUSH2 0x10E7 PUSH1 0x2 PUSH2 0xFAE JUMP JUMPDEST PUSH1 0x2 PUSH2 0x11B1 JUMP JUMPDEST SWAP1 PUSH2 0x352 SWAP3 SWAP2 PUSH2 0x1C04 JUMP JUMPDEST ISZERO PUSH2 0x1BAC JUMPI JUMP JUMPDEST PUSH1 0x40 MLOAD PUSH3 0x461BCD PUSH1 0xE5 SHL DUP2 MSTORE PUSH1 0x20 PUSH1 0x4 DUP3 ADD MSTORE PUSH1 0x2A PUSH1 0x24 DUP3 ADD MSTORE PUSH32 0x45524332305061757361626C653A20746F6B656E207472616E73666572207768 PUSH1 0x44 DUP3 ADD MSTORE PUSH10 0x1A5B19481C185D5CD959 PUSH1 0xB2 SHL PUSH1 0x64 DUP3 ADD MSTORE PUSH1 0x84 SWAP1 REVERT JUMPDEST POP POP POP PUSH2 0x352 PUSH2 0x1C15 PUSH2 0x140B PUSH2 0xE54 JUMP JUMPDEST PUSH2 0x1BA5 JUMP JUMPDEST SWAP1 PUSH2 0x368 SWAP4 SWAP3 SWAP2 PUSH2 0x1C29 PUSH2 0x13FD JUMP JUMPDEST POP SWAP2 SWAP1 DUP2 PUSH2 0x1C37 DUP2 DUP6 PUSH2 0x2A2F JUMP JUMPDEST SWAP1 PUSH2 0x1C42 DUP2 DUP7 PUSH2 0x299B JUMP JUMPDEST SWAP1 PUSH2 0x1C4C DUP2 PUSH2 0x2AA3 JUMP JUMPDEST SWAP2 PUSH2 0x1C56 ADDRESS PUSH2 0x945 JUMP JUMPDEST SWAP4 PUSH1 0x1 PUSH1 0x1 PUSH1 0xA0 SHL SUB DUP6 AND PUSH1 0x1 PUSH1 0x1 PUSH1 0xA0 SHL SUB DUP10 AND EQ DUP1 ISZERO PUSH2 0x1E75 JUMPI JUMPDEST DUP1 ISZERO PUSH2 0x1E5A JUMPI JUMPDEST DUP1 ISZERO PUSH2 0x1E39 JUMPI JUMPDEST ISZERO JUMPDEST DUP1 PUSH2 0x1E09 JUMPI JUMPDEST PUSH2 0x1D75 JUMPI JUMPDEST POP POP POP POP PUSH2 0x1C9B DUP2 PUSH2 0xFDA JUMP JUMPDEST PUSH2 0x1CA5 PUSH1 0x14 PUSH2 0x15A1 JUMP JUMPDEST DUP1 PUSH2 0x1D62 JUMPI JUMPDEST DUP1 PUSH2 0x1D44 JUMPI JUMPDEST DUP1 PUSH2 0x1D2F JUMPI JUMPDEST PUSH2 0x1CC7 JUMPI JUMPDEST POP POP PUSH2 0x368 SWAP3 PUSH2 0x1E9E JUMP JUMPDEST PUSH2 0x1692 PUSH2 0x1CDB PUSH2 0x1CE1 SWAP3 PUSH2 0x1687 PUSH1 0xA PUSH2 0xFAE JUMP JUMPDEST DUP6 PUSH2 0x2DB4 JUMP JUMPDEST BALANCE PUSH2 0x1CEF PUSH2 0x368 PUSH1 0xB PUSH2 0xFAE JUMP JUMPDEST DUP2 GT PUSH2 0x1CFC JUMPI JUMPDEST DUP1 PUSH2 0x1CBC JUMP JUMPDEST PUSH1 0x0 DUP1 DUP1 DUP1 SWAP4 PUSH2 0x1D12 PUSH2 0x16C8 PUSH2 0x16C8 PUSH1 0xD PUSH2 0x1286 JUMP JUMPDEST DUP3 DUP3 ISZERO PUSH2 0x1D26 JUMPI JUMPDEST CALL ISZERO PUSH2 0x16E1 JUMPI CODESIZE PUSH2 0x1CF6 JUMP JUMPDEST POP PUSH2 0x8FC PUSH2 0x1D1A JUMP JUMPDEST POP PUSH2 0x1D3D PUSH2 0x368 PUSH1 0xA PUSH2 0xFAE JUMP JUMPDEST DUP2 GT PUSH2 0x1CB7 JUMP JUMPDEST POP PUSH2 0x1D52 PUSH2 0x42A PUSH1 0x14 PUSH2 0x1286 JUMP JUMPDEST PUSH1 0x1 PUSH1 0x1 PUSH1 0xA0 SHL SUB DUP5 AND EQ PUSH2 0x1CB1 JUMP JUMPDEST POP PUSH2 0x1D70 PUSH2 0x140B PUSH1 0x14 PUSH2 0x15C4 JUMP JUMPDEST PUSH2 0x1CAB JUMP JUMPDEST PUSH1 0x0 SWAP3 PUSH2 0x1D81 DUP5 PUSH2 0x11A4 JUMP JUMPDEST DUP3 SUB PUSH2 0x1DED JUMPI JUMPDEST POP POP PUSH2 0x1D93 DUP3 PUSH2 0x11A4 JUMP JUMPDEST DUP2 SUB PUSH2 0x1DC9 JUMPI JUMPDEST POP PUSH2 0x1DA4 SWAP1 PUSH2 0x11A4 JUMP JUMPDEST DUP2 SUB PUSH2 0x1DB3 JUMPI JUMPDEST DUP1 DUP1 DUP1 PUSH2 0x1C8E JUMP JUMPDEST PUSH2 0x1DC2 SWAP2 SWAP4 PUSH2 0x17B7 DUP3 DUP8 PUSH2 0x1B22 JUMP JUMPDEST SWAP2 CODESIZE PUSH2 0x1DAB JUMP JUMPDEST DUP1 PUSH2 0x1DA4 SWAP3 SWAP7 PUSH2 0x17B7 PUSH2 0x1DE6 SWAP4 PUSH2 0x1DE0 PUSH1 0xD PUSH2 0x1286 JUMP JUMPDEST DUP12 PUSH2 0x19B6 JUMP JUMPDEST SWAP5 SWAP1 PUSH2 0x1D9A JUMP JUMPDEST PUSH2 0x1E01 SWAP3 SWAP8 POP PUSH2 0x17B7 DUP3 PUSH2 0x1DE0 PUSH1 0xE PUSH2 0x1286 JUMP JUMPDEST SWAP5 CODESIZE DUP1 PUSH2 0x1D88 JUMP JUMPDEST PUSH2 0x1E16 DUP5 PUSH2 0x1062 DUP10 PUSH2 0xFDA JUMP JUMPDEST PUSH2 0x1E26 PUSH2 0x1752 PUSH2 0x368 PUSH1 0x9 PUSH2 0xFAE JUMP JUMPDEST GT ISZERO PUSH2 0x1C89 JUMPI PUSH2 0xCFD DUP8 PUSH2 0x1811 PUSH1 0x40 MLOAD SWAP1 JUMP JUMPDEST POP PUSH2 0x1C83 PUSH2 0x1E48 PUSH2 0x42A PUSH2 0xC63 JUMP JUMPDEST PUSH1 0x1 PUSH1 0x1 PUSH1 0xA0 SHL SUB DUP9 AND EQ SWAP1 POP PUSH2 0x1C81 JUMP JUMPDEST POP PUSH1 0x1 PUSH1 0x1 PUSH1 0xA0 SHL SUB DUP6 AND PUSH1 0x1 PUSH1 0x1 PUSH1 0xA0 SHL SUB DUP8 AND EQ PUSH2 0x1C7A JUMP JUMPDEST POP PUSH2 0x1E81 PUSH2 0x42A PUSH2 0xC63 JUMP JUMPDEST PUSH1 0x1 PUSH1 0x1 PUSH1 0xA0 SHL SUB DUP10 AND EQ PUSH2 0x1C73 JUMP JUMPDEST PUSH2 0x368 SWAP3 SWAP2 SWAP1 PUSH1 0x0 PUSH2 0x1C1A JUMP JUMPDEST PUSH2 0x1021 SWAP3 SWAP2 SWAP1 PUSH2 0x18A4 DUP4 CALLER JUMPDEST DUP4 PUSH2 0x1EFC JUMP JUMPDEST ISZERO PUSH2 0x1EB7 JUMPI JUMP JUMPDEST PUSH1 0x40 MLOAD PUSH3 0x461BCD PUSH1 0xE5 SHL DUP2 MSTORE PUSH1 0x20 PUSH1 0x4 DUP3 ADD MSTORE PUSH1 0x1D PUSH1 0x24 DUP3 ADD MSTORE PUSH32 0x45524332303A20696E73756666696369656E7420616C6C6F77616E6365000000 PUSH1 0x44 DUP3 ADD MSTORE PUSH1 0x64 SWAP1 REVERT JUMPDEST SWAP1 PUSH2 0x1F07 DUP2 DUP4 PUSH2 0xFF6 JUMP JUMPDEST PUSH1 0x0 NOT DUP2 SUB PUSH2 0x1F17 JUMPI JUMPDEST POP POP POP POP JUMP JUMPDEST PUSH2 0x1F2B SWAP4 PUSH2 0x1067 SWAP2 PUSH2 0x10E7 DUP3 DUP3 LT ISZERO PUSH2 0x1EB0 JUMP JUMPDEST CODESIZE DUP1 DUP1 DUP1 PUSH2 0x1F11 JUMP JUMPDEST PUSH2 0x352 SWAP1 PUSH2 0x1F40 PUSH2 0xD01 JUMP JUMPDEST PUSH2 0x352 SWAP1 PUSH2 0x1F4C PUSH2 0x13FD JUMP JUMPDEST PUSH2 0x1F57 PUSH2 0x140B PUSH2 0x1269 JUMP JUMPDEST PUSH2 0x1F64 JUMPI PUSH2 0x352 SWAP1 PUSH2 0x1F7F JUMP JUMPDEST PUSH1 0x40 MLOAD PUSH4 0x6CB59139 PUSH1 0xE0 SHL DUP2 MSTORE PUSH1 0x4 SWAP1 REVERT JUMPDEST PUSH2 0x352 SWAP1 PUSH2 0x1F34 JUMP JUMPDEST PUSH2 0x352 SWAP1 CALLER PUSH2 0x1B22 JUMP JUMPDEST PUSH2 0x1B22 JUMP JUMPDEST SWAP1 PUSH2 0x352 SWAP2 PUSH2 0x1F9B PUSH2 0xD01 JUMP JUMPDEST SWAP1 PUSH2 0x352 SWAP2 PUSH2 0x1FA8 PUSH2 0x13FD JUMP JUMPDEST SWAP1 PUSH2 0x1FB4 PUSH2 0x140B PUSH2 0x1269 JUMP JUMPDEST PUSH2 0x1F64 JUMPI PUSH2 0x352 SWAP2 PUSH2 0x1FCB JUMP JUMPDEST SWAP1 PUSH2 0x352 SWAP2 PUSH2 0x1F8E JUMP JUMPDEST PUSH2 0x352 SWAP2 SWAP1 PUSH2 0x1F89 DUP3 CALLER PUSH2 0x1EAA JUMP JUMPDEST PUSH2 0x1FE2 PUSH2 0xD01 JUMP JUMPDEST PUSH2 0x352 PUSH2 0x1FF0 PUSH2 0x140B PUSH2 0x125F JUMP JUMPDEST PUSH2 0x1FFC JUMPI PUSH2 0x352 PUSH2 0x2086 JUMP JUMPDEST PUSH1 0x40 MLOAD PUSH4 0xF00085B9 PUSH1 0xE0 SHL DUP2 MSTORE PUSH1 0x4 SWAP1 REVERT JUMPDEST PUSH2 0x352 PUSH2 0x1FDA JUMP JUMPDEST PUSH2 0x201E PUSH2 0x13FD JUMP JUMPDEST PUSH2 0x352 PUSH2 0x2046 JUMP JUMPDEST SWAP1 PUSH1 0xFF SWAP1 PUSH2 0xDD4 JUMP JUMPDEST SWAP1 PUSH2 0x203F PUSH2 0x368 PUSH2 0xDF5 SWAP3 ISZERO ISZERO SWAP1 JUMP JUMPDEST DUP3 SLOAD PUSH2 0x2026 JUMP JUMPDEST PUSH2 0x2052 PUSH1 0x1 PUSH1 0x5 PUSH2 0x202F JUMP JUMPDEST CALLER PUSH2 0x2081 PUSH32 0x62E78CEA01BEE320CD4E420270B5EA74000D11B0C9F74754EBDBFC544B05A258 SWAP2 PUSH2 0x4F1 PUSH1 0x40 MLOAD SWAP1 JUMP JUMPDEST SUB SWAP1 LOG1 JUMP JUMPDEST PUSH2 0x352 PUSH2 0x2016 JUMP JUMPDEST PUSH2 0x2096 PUSH2 0xD01 JUMP JUMPDEST PUSH2 0x352 PUSH2 0x20A4 PUSH2 0x140B PUSH2 0x125F JUMP JUMPDEST PUSH2 0x1FFC JUMPI PUSH2 0x352 PUSH2 0x20FE JUMP JUMPDEST PUSH2 0x352 PUSH2 0x208E JUMP JUMPDEST PUSH2 0x20C0 PUSH2 0x2149 JUMP JUMPDEST PUSH2 0x352 PUSH2 0x20CF PUSH1 0x0 PUSH1 0x5 PUSH2 0x202F JUMP JUMPDEST CALLER PUSH2 0x2081 PUSH32 0x5DB9EE0A495BF2E6FF9C91A7834C1BA4FDD244A5E8AA4E537BD38AEAE4B073AA SWAP2 PUSH2 0x4F1 PUSH1 0x40 MLOAD SWAP1 JUMP JUMPDEST PUSH2 0x352 PUSH2 0x20B8 JUMP JUMPDEST ISZERO PUSH2 0x210D JUMPI JUMP JUMPDEST PUSH1 0x40 MLOAD PUSH3 0x461BCD PUSH1 0xE5 SHL DUP2 MSTORE PUSH1 0x20 PUSH1 0x4 DUP3 ADD MSTORE PUSH1 0x14 PUSH1 0x24 DUP3 ADD MSTORE PUSH20 0x14185D5CD8589B194E881B9BDD081C185D5CD959 PUSH1 0x62 SHL PUSH1 0x44 DUP3 ADD MSTORE PUSH1 0x64 SWAP1 REVERT JUMPDEST PUSH2 0x352 PUSH2 0x2154 PUSH2 0xE54 JUMP JUMPDEST PUSH2 0x2106 JUMP JUMPDEST SWAP1 PUSH2 0x368 SWAP2 PUSH2 0x2166 PUSH2 0xD01 JUMP JUMPDEST SWAP1 PUSH2 0x2178 SWAP2 PUSH2 0x2173 PUSH2 0x2802 JUMP JUMPDEST PUSH2 0x230A JUMP JUMPDEST SWAP1 PUSH2 0x352 PUSH2 0x2834 JUMP JUMPDEST PUSH2 0x368 PUSH8 0xDE0B6B3A7640000 PUSH2 0x11A4 JUMP JUMPDEST SWAP1 DUP2 MSTORE PUSH1 0x40 DUP2 ADD SWAP3 SWAP2 PUSH2 0x352 SWAP2 PUSH1 0x20 ADD MSTORE JUMP JUMPDEST ADD MSTORE JUMP JUMPDEST PUSH2 0x368 PUSH8 0x6F05B59D3B20000 PUSH2 0x11A4 JUMP JUMPDEST SWAP1 POP MLOAD SWAP1 PUSH2 0x352 DUP3 PUSH2 0x33C JUMP JUMPDEST SWAP1 PUSH1 0x20 DUP3 DUP3 SUB SLT PUSH2 0x337 JUMPI PUSH2 0x368 SWAP2 PUSH2 0x21BA JUMP JUMPDEST PUSH2 0x368 PUSH2 0x2710 PUSH2 0x11A4 JUMP JUMPDEST SWAP1 POP MLOAD SWAP1 PUSH2 0x352 DUP3 PUSH2 0x436 JUMP JUMPDEST SWAP1 PUSH1 0x20 DUP3 DUP3 SUB SLT PUSH2 0x337 JUMPI PUSH2 0x368 SWAP2 PUSH2 0x21E6 JUMP JUMPDEST DUP1 ISZERO ISZERO PUSH2 0x33E JUMP JUMPDEST SWAP1 POP MLOAD SWAP1 PUSH2 0x352 DUP3 PUSH2 0x2207 JUMP JUMPDEST SWAP1 PUSH1 0x20 DUP3 DUP3 SUB SLT PUSH2 0x337 JUMPI PUSH2 0x368 SWAP2 PUSH2 0x220F JUMP JUMPDEST PUSH1 0x1 PUSH1 0x1 PUSH1 0xA0 SHL SUB SWAP1 SWAP2 AND DUP2 MSTORE PUSH1 0x40 DUP2 ADD SWAP3 SWAP2 PUSH2 0x352 SWAP2 PUSH1 0x20 ADD MSTORE JUMP JUMPDEST SWAP1 SWAP2 PUSH1 0x60 DUP3 DUP5 SUB SLT PUSH2 0x337 JUMPI PUSH2 0x368 PUSH2 0x2266 DUP5 DUP5 PUSH2 0x21BA JUMP JUMPDEST SWAP4 PUSH2 0x2274 DUP2 PUSH1 0x20 DUP7 ADD PUSH2 0x21BA JUMP JUMPDEST SWAP4 PUSH1 0x40 ADD PUSH2 0x21BA JUMP JUMPDEST PUSH2 0x475 SWAP1 PUSH2 0x11A4 JUMP JUMPDEST SWAP2 SWAP5 PUSH2 0x22D4 PUSH2 0x21A5 SWAP3 SWAP9 SWAP8 SWAP6 PUSH2 0x22CA PUSH1 0xA0 SWAP7 PUSH2 0x22C0 PUSH2 0x352 SWAP11 PUSH2 0x22B9 PUSH1 0xC0 DUP11 ADD SWAP15 PUSH1 0x0 DUP12 ADD SWAP1 PUSH1 0x1 PUSH1 0x1 PUSH1 0xA0 SHL SUB AND SWAP1 MSTORE JUMP JUMPDEST PUSH1 0x20 DUP10 ADD MSTORE JUMP JUMPDEST PUSH1 0x40 DUP8 ADD SWAP1 PUSH2 0x227D JUMP JUMPDEST PUSH1 0x60 DUP6 ADD SWAP1 PUSH2 0x227D JUMP JUMPDEST PUSH1 0x1 PUSH1 0x1 PUSH1 0xA0 SHL SUB AND PUSH1 0x80 DUP4 ADD MSTORE JUMP JUMPDEST SWAP1 PUSH1 0xFF PUSH1 0xA0 SHL SWAP1 PUSH1 0xA0 SHL PUSH2 0xDD4 JUMP JUMPDEST SWAP1 PUSH2 0x2303 PUSH2 0x368 PUSH2 0xDF5 SWAP3 ISZERO ISZERO SWAP1 JUMP JUMPDEST DUP3 SLOAD PUSH2 0x22E4 JUMP JUMPDEST POP CALLVALUE PUSH2 0x2316 PUSH1 0x14 PUSH2 0x15A1 JUMP JUMPDEST PUSH2 0x278F JUMPI PUSH2 0x2322 PUSH2 0x2181 JUMP JUMPDEST DUP1 DUP4 LT DUP1 ISZERO PUSH2 0x277C JUMPI JUMPDEST PUSH2 0x2759 JUMPI POP PUSH2 0x2339 PUSH2 0x21A9 JUMP JUMPDEST DUP1 DUP3 LT PUSH2 0x2737 JUMPI POP PUSH2 0x2354 PUSH2 0x234D ADDRESS PUSH2 0x945 JUMP JUMPDEST SWAP3 DUP4 PUSH2 0x188D JUMP JUMPDEST POP PUSH2 0x2382 PUSH1 0x20 PUSH2 0x236A PUSH2 0x16C8 PUSH2 0x16C8 PUSH1 0x8 PUSH2 0x1286 JUMP JUMPDEST PUSH4 0x70A08231 SWAP1 PUSH2 0x2379 PUSH1 0x40 MLOAD SWAP1 JUMP JUMPDEST SWAP4 DUP5 SWAP3 PUSH1 0xE0 SHL SWAP1 JUMP JUMPDEST DUP3 MSTORE PUSH1 0x1 PUSH1 0x1 PUSH1 0xA0 SHL SUB DUP7 AND PUSH1 0x4 DUP4 ADD MSTORE PUSH1 0x24 SWAP1 DUP3 SWAP1 GAS STATICCALL SWAP1 DUP2 ISZERO PUSH2 0x16E1 JUMPI PUSH1 0x0 SWAP2 PUSH2 0x2709 JUMPI JUMPDEST POP PUSH2 0x23D8 PUSH2 0x23D1 PUSH2 0x23C3 PUSH2 0x23BD PUSH1 0x13 PUSH2 0xFAE JUMP JUMPDEST DUP6 PUSH2 0x285C JUMP JUMPDEST PUSH2 0x23CB PUSH2 0x21DB JUMP JUMPDEST SWAP1 PUSH2 0x288B JUMP JUMPDEST DUP1 SWAP4 PUSH2 0x283F JUMP JUMPDEST SWAP1 PUSH2 0x23E9 PUSH2 0x1752 PUSH2 0x368 PUSH1 0x7 PUSH2 0xFAE JUMP JUMPDEST GT PUSH2 0x26F7 JUMPI JUMPDEST PUSH2 0x23FA PUSH2 0x16C8 PUSH2 0x94E JUMP JUMPDEST SWAP3 PUSH2 0x240D PUSH2 0x2406 PUSH2 0xFB8 JUMP JUMPDEST DUP6 DUP4 PUSH2 0x11C8 JUMP JUMPDEST PUSH4 0xC45A0155 PUSH2 0x2425 PUSH2 0x241E PUSH1 0x40 MLOAD SWAP1 JUMP JUMPDEST SWAP2 PUSH1 0xE0 SHL SWAP1 JUMP JUMPDEST DUP2 MSTORE PUSH1 0x20 DUP2 PUSH1 0x4 DUP2 DUP9 GAS STATICCALL SWAP1 DUP2 ISZERO PUSH2 0x16E1 JUMPI PUSH2 0x244D SWAP2 PUSH2 0x16C8 SWAP2 PUSH1 0x0 SWAP2 PUSH2 0x26D9 JUMPI JUMPDEST POP PUSH2 0x945 JUMP JUMPDEST SWAP1 PUSH4 0xC9C65396 SWAP2 PUSH4 0xAD5C4648 SWAP1 PUSH2 0x246D PUSH2 0x2466 PUSH1 0x40 MLOAD SWAP1 JUMP JUMPDEST SWAP3 PUSH1 0xE0 SHL SWAP1 JUMP JUMPDEST DUP3 MSTORE PUSH1 0x20 DUP3 PUSH1 0x4 DUP2 DUP11 GAS STATICCALL SWAP1 DUP2 ISZERO PUSH2 0x16E1 JUMPI PUSH2 0x24CA SWAP5 PUSH1 0x20 SWAP4 PUSH1 0x0 SWAP4 PUSH2 0x26B3 JUMPI JUMPDEST POP PUSH1 0x0 PUSH2 0x24AB SWAP2 PUSH2 0x249E PUSH1 0x40 MLOAD SWAP1 JUMP JUMPDEST SWAP8 DUP9 SWAP6 DUP7 SWAP5 DUP6 SWAP4 PUSH1 0xE0 SHL SWAP1 JUMP JUMPDEST DUP4 MSTORE PUSH1 0x1 PUSH1 0x1 PUSH1 0xA0 SHL SUB DUP1 DUP11 AND PUSH1 0x4 DUP6 ADD MSTORE AND PUSH1 0x24 DUP4 ADD MSTORE PUSH1 0x44 DUP3 ADD SWAP1 JUMP JUMPDEST SUB SWAP3 GAS CALL SWAP2 DUP3 ISZERO PUSH2 0x16E1 JUMPI PUSH2 0x2522 SWAP3 PUSH2 0x24ED SWAP2 PUSH1 0x0 SWAP2 PUSH2 0x2685 JUMPI JUMPDEST POP PUSH1 0x14 PUSH2 0x129F JUMP JUMPDEST PUSH1 0x20 PUSH2 0x24FF PUSH2 0x16C8 PUSH2 0x16C8 PUSH1 0x14 PUSH2 0x1286 JUMP JUMPDEST PUSH4 0x95EA7B3 SWAP1 PUSH2 0x2516 PUSH1 0x0 DUP1 NOT SWAP4 PUSH2 0x249E PUSH1 0x40 MLOAD SWAP1 JUMP JUMPDEST DUP4 MSTORE DUP13 PUSH1 0x4 DUP5 ADD PUSH2 0x2230 JUMP JUMPDEST SUB SWAP3 GAS CALL SWAP2 DUP3 ISZERO PUSH2 0x16E1 JUMPI PUSH1 0x60 SWAP3 PUSH2 0x2659 JUMPI JUMPDEST POP PUSH4 0xF305D719 SWAP5 PUSH2 0x2571 PUSH2 0x2548 DUP4 PUSH2 0xFDA JUMP JUMPDEST SWAP5 PUSH1 0x0 SWAP8 PUSH2 0x257C PUSH2 0x2557 PUSH2 0xC63 JUMP JUMPDEST TIMESTAMP SWAP1 DUP12 DUP1 PUSH2 0x2564 PUSH1 0x40 MLOAD SWAP1 JUMP JUMPDEST SWAP12 DUP13 SWAP11 DUP12 SWAP10 DUP11 SWAP9 PUSH1 0xE0 SHL SWAP1 JUMP JUMPDEST DUP9 MSTORE PUSH1 0x4 DUP9 ADD PUSH2 0x2286 JUMP JUMPDEST SUB SWAP3 GAS CALL DUP1 ISZERO PUSH2 0x16E1 JUMPI PUSH2 0x262B JUMPI JUMPDEST POP PUSH2 0x2598 PUSH1 0x1 PUSH1 0x14 PUSH2 0x22F3 JUMP JUMPDEST PUSH2 0x25A1 DUP3 PUSH2 0x11A4 JUMP JUMPDEST DUP2 GT PUSH2 0x25F9 JUMPI JUMPDEST POP POP PUSH2 0x25B4 PUSH1 0x14 PUSH2 0x1286 JUMP JUMPDEST PUSH2 0x25DE PUSH32 0x57A9F98B233034883786B9C47F1F6FABCF1655E39D3213B7287B926CA387136E SWAP2 PUSH2 0x945 JUMP JUMPDEST SWAP1 PUSH2 0x25E8 PUSH1 0x40 MLOAD SWAP1 JUMP JUMPDEST PUSH1 0x0 SWAP1 LOG2 PUSH2 0x368 PUSH2 0x16C8 PUSH1 0x14 PUSH2 0x1286 JUMP JUMPDEST DUP2 DUP1 DUP1 SWAP3 PUSH2 0x260D PUSH2 0x16C8 PUSH2 0x16C8 PUSH1 0xE PUSH2 0x1286 JUMP JUMPDEST DUP3 DUP3 ISZERO PUSH2 0x2622 JUMPI JUMPDEST CALL ISZERO PUSH2 0x16E1 JUMPI CODESIZE DUP1 PUSH2 0x25A8 JUMP JUMPDEST POP PUSH2 0x8FC PUSH2 0x2615 JUMP JUMPDEST PUSH2 0x264B SWAP1 PUSH1 0x60 RETURNDATASIZE DUP2 GT PUSH2 0x2652 JUMPI JUMPDEST PUSH2 0x2643 DUP2 DUP4 PUSH2 0xF42 JUMP JUMPDEST DUP2 ADD SWAP1 PUSH2 0x224D JUMP JUMPDEST POP POP PUSH2 0x258B JUMP JUMPDEST POP RETURNDATASIZE PUSH2 0x2639 JUMP JUMPDEST PUSH2 0x2679 SWAP1 PUSH1 0x20 RETURNDATASIZE DUP2 GT PUSH2 0x267E JUMPI JUMPDEST PUSH2 0x2671 DUP2 DUP4 PUSH2 0xF42 JUMP JUMPDEST DUP2 ADD SWAP1 PUSH2 0x221C JUMP JUMPDEST PUSH2 0x2535 JUMP JUMPDEST POP RETURNDATASIZE PUSH2 0x2667 JUMP JUMPDEST PUSH2 0x26A6 SWAP2 POP PUSH1 0x20 RETURNDATASIZE DUP2 GT PUSH2 0x26AC JUMPI JUMPDEST PUSH2 0x269E DUP2 DUP4 PUSH2 0xF42 JUMP JUMPDEST DUP2 ADD SWAP1 PUSH2 0x21F3 JUMP JUMPDEST CODESIZE PUSH2 0x24E5 JUMP JUMPDEST POP RETURNDATASIZE PUSH2 0x2694 JUMP JUMPDEST PUSH2 0x24AB SWAP2 SWAP4 POP PUSH2 0x26D1 PUSH1 0x0 SWAP2 DUP7 RETURNDATASIZE DUP2 GT PUSH2 0x26AC JUMPI PUSH2 0x269E DUP2 DUP4 PUSH2 0xF42 JUMP JUMPDEST SWAP4 SWAP2 POP PUSH2 0x248E JUMP JUMPDEST PUSH2 0x26F1 SWAP2 POP PUSH1 0x20 RETURNDATASIZE DUP2 GT PUSH2 0x26AC JUMPI PUSH2 0x269E DUP2 DUP4 PUSH2 0xF42 JUMP JUMPDEST CODESIZE PUSH2 0x2447 JUMP JUMPDEST SWAP1 POP PUSH2 0x2703 PUSH1 0x0 PUSH2 0x11A4 JUMP JUMPDEST SWAP1 PUSH2 0x23EF JUMP JUMPDEST PUSH2 0x272A SWAP2 POP PUSH1 0x20 RETURNDATASIZE DUP2 GT PUSH2 0x2730 JUMPI JUMPDEST PUSH2 0x2722 DUP2 DUP4 PUSH2 0xF42 JUMP JUMPDEST DUP2 ADD SWAP1 PUSH2 0x21C7 JUMP JUMPDEST CODESIZE PUSH2 0x23A9 JUMP JUMPDEST POP RETURNDATASIZE PUSH2 0x2718 JUMP JUMPDEST SWAP1 PUSH2 0xCFD PUSH2 0x2744 PUSH1 0x40 MLOAD SWAP1 JUMP JUMPDEST PUSH3 0xFDF575 PUSH1 0xE5 SHL DUP2 MSTORE SWAP3 DUP4 SWAP3 PUSH1 0x4 DUP5 ADD PUSH2 0x2192 JUMP JUMPDEST DUP3 PUSH2 0xCFD PUSH2 0x2766 PUSH1 0x40 MLOAD SWAP1 JUMP JUMPDEST PUSH4 0xC7BCC1B9 PUSH1 0xE0 SHL DUP2 MSTORE SWAP3 DUP4 SWAP3 PUSH1 0x4 DUP5 ADD PUSH2 0x2192 JUMP JUMPDEST POP PUSH2 0x2788 PUSH2 0x7C2 PUSH2 0xC63 JUMP JUMPDEST DUP4 GT PUSH2 0x232C JUMP JUMPDEST PUSH1 0x40 MLOAD PUSH4 0x250856AB PUSH1 0xE2 SHL DUP2 MSTORE PUSH1 0x4 SWAP1 REVERT JUMPDEST PUSH2 0x368 SWAP1 PUSH1 0x0 PUSH2 0x2159 JUMP JUMPDEST PUSH2 0x368 PUSH1 0x2 PUSH2 0x11A4 JUMP JUMPDEST ISZERO PUSH2 0x27BD JUMPI JUMP JUMPDEST PUSH1 0x40 MLOAD PUSH3 0x461BCD PUSH1 0xE5 SHL DUP2 MSTORE PUSH1 0x20 PUSH1 0x4 DUP3 ADD MSTORE PUSH1 0x1F PUSH1 0x24 DUP3 ADD MSTORE PUSH32 0x5265656E7472616E637947756172643A207265656E7472616E742063616C6C00 PUSH1 0x44 DUP3 ADD MSTORE PUSH1 0x64 SWAP1 REVERT JUMPDEST PUSH2 0x352 PUSH2 0x280F PUSH1 0x6 PUSH2 0xFAE JUMP JUMPDEST PUSH2 0x2823 PUSH2 0x281A PUSH2 0x27AC JUMP JUMPDEST SWAP2 DUP3 EQ ISZERO PUSH2 0x27B6 JUMP JUMPDEST PUSH1 0x6 PUSH2 0x11B1 JUMP JUMPDEST PUSH2 0x368 PUSH1 0x1 PUSH2 0x11A4 JUMP JUMPDEST PUSH2 0x352 PUSH2 0x2823 PUSH2 0x282A JUMP JUMPDEST PUSH2 0x368 SWAP2 SWAP1 PUSH2 0x15AB JUMP JUMPDEST DUP2 DUP2 MUL SWAP3 SWAP2 DUP2 ISZERO SWAP2 DUP5 DIV EQ OR ISZERO PUSH2 0x1049 JUMPI JUMP JUMPDEST PUSH2 0x368 SWAP2 SWAP1 PUSH2 0x2849 JUMP JUMPDEST PUSH4 0x4E487B71 PUSH1 0xE0 SHL PUSH1 0x0 MSTORE PUSH1 0x12 PUSH1 0x4 MSTORE PUSH1 0x24 PUSH1 0x0 REVERT JUMPDEST DUP2 ISZERO PUSH2 0x2886 JUMPI DIV SWAP1 JUMP JUMPDEST PUSH2 0x2866 JUMP JUMPDEST PUSH2 0x368 SWAP2 SWAP1 PUSH2 0x287C JUMP JUMPDEST PUSH2 0x352 SWAP1 PUSH2 0x28A1 PUSH2 0xD01 JUMP JUMPDEST PUSH2 0x28AB PUSH1 0x8 PUSH2 0x1286 JUMP JUMPDEST PUSH2 0x28BB PUSH2 0xD18 PUSH2 0x42A PUSH1 0x0 PUSH2 0xC8A JUMP JUMPDEST SUB PUSH2 0x12E0 JUMPI PUSH2 0x352 SWAP1 PUSH1 0x8 PUSH2 0x129F JUMP JUMPDEST PUSH2 0x352 SWAP1 PUSH2 0x2895 JUMP JUMPDEST PUSH2 0x352 SWAP1 PUSH2 0x28E0 PUSH2 0xD01 JUMP JUMPDEST PUSH2 0x352 SWAP1 PUSH1 0x7 PUSH2 0x11B1 JUMP JUMPDEST PUSH2 0x352 SWAP1 PUSH2 0x28D4 JUMP JUMPDEST PUSH2 0x28FC PUSH2 0x2802 JUMP JUMPDEST PUSH2 0x2904 PUSH2 0x290C JUMP JUMPDEST PUSH2 0x352 PUSH2 0x2834 JUMP JUMPDEST PUSH2 0x2915 ADDRESS PUSH2 0x945 JUMP JUMPDEST PUSH2 0x291E DUP2 PUSH2 0xFDA JUMP JUMPDEST SWAP1 PUSH1 0x0 SWAP2 PUSH2 0x292B DUP4 PUSH2 0x11A4 JUMP JUMPDEST DUP2 GT PUSH2 0x2976 JUMPI JUMPDEST POP BALANCE PUSH2 0x2941 PUSH2 0x368 PUSH1 0xB PUSH2 0xFAE JUMP JUMPDEST DUP2 GT PUSH2 0x294B JUMPI POP POP JUMP JUMPDEST DUP2 DUP1 DUP1 SWAP3 PUSH2 0x295D PUSH2 0x16C8 PUSH2 0x16C8 PUSH2 0xC63 JUMP JUMPDEST DUP3 DUP3 ISZERO PUSH2 0x296D JUMPI JUMPDEST CALL ISZERO PUSH2 0x16E1 JUMPI JUMP JUMPDEST POP PUSH2 0x8FC PUSH2 0x2965 JUMP JUMPDEST PUSH2 0x1692 PUSH2 0x298D SWAP2 PUSH2 0x2987 PUSH1 0xA PUSH2 0xFAE JUMP JUMPDEST SWAP1 PUSH2 0x2DB4 JUMP JUMPDEST CODESIZE PUSH2 0x2932 JUMP JUMPDEST PUSH2 0x352 PUSH2 0x28F4 JUMP JUMPDEST SWAP2 SWAP1 PUSH1 0x0 SWAP3 PUSH2 0x29A9 DUP5 PUSH2 0x11A4 JUMP JUMPDEST DUP1 SWAP5 PUSH2 0x29C4 PUSH2 0xD18 PUSH2 0x42A PUSH2 0x29BE PUSH1 0xD PUSH2 0x1286 JUMP JUMPDEST SWAP4 PUSH2 0xC8A JUMP JUMPDEST EQ PUSH2 0x2A29 JUMPI PUSH2 0x29D6 PUSH2 0x368 PUSH1 0xF PUSH2 0xFAE JUMP JUMPDEST EQ ISZERO SWAP1 DUP2 PUSH2 0x2A0F JUMPI JUMPDEST POP PUSH2 0x29E7 JUMPI POP JUMP JUMPDEST PUSH2 0x368 SWAP2 SWAP3 POP PUSH2 0x2A01 SWAP1 PUSH2 0x29FB PUSH1 0xF PUSH2 0xFAE JUMP JUMPDEST SWAP1 PUSH2 0x2849 JUMP JUMPDEST PUSH2 0x2A09 PUSH2 0x21DB JUMP JUMPDEST SWAP1 PUSH2 0x287C JUMP JUMPDEST SWAP1 POP PUSH2 0x2A21 PUSH2 0xD18 PUSH2 0x42A PUSH1 0xD PUSH2 0x1286 JUMP JUMPDEST EQ ISZERO CODESIZE PUSH2 0x29DF JUMP JUMPDEST SWAP4 POP POP POP JUMP JUMPDEST SWAP2 SWAP1 PUSH1 0x0 SWAP3 PUSH2 0x2A3D DUP5 PUSH2 0x11A4 JUMP JUMPDEST DUP1 SWAP5 PUSH2 0x2A52 PUSH2 0xD18 PUSH2 0x42A PUSH2 0x29BE PUSH1 0xE PUSH2 0x1286 JUMP JUMPDEST EQ PUSH2 0x2A29 JUMPI PUSH2 0x2A64 PUSH2 0x368 PUSH1 0x12 PUSH2 0xFAE JUMP JUMPDEST EQ ISZERO SWAP1 DUP2 PUSH2 0x2A89 JUMPI JUMPDEST POP PUSH2 0x2A75 JUMPI POP JUMP JUMPDEST PUSH2 0x368 SWAP2 SWAP3 POP PUSH2 0x2A01 SWAP1 PUSH2 0x29FB PUSH1 0x12 PUSH2 0xFAE JUMP JUMPDEST SWAP1 POP PUSH2 0x2A9B PUSH2 0xD18 PUSH2 0x42A PUSH1 0xE PUSH2 0x1286 JUMP JUMPDEST EQ ISZERO CODESIZE PUSH2 0x2A6D JUMP JUMPDEST SWAP1 PUSH2 0x2AAE PUSH1 0x0 PUSH2 0x11A4 JUMP JUMPDEST SWAP2 DUP3 PUSH2 0x2ABD PUSH2 0x368 PUSH1 0x11 PUSH2 0xFAE JUMP JUMPDEST SUB PUSH2 0x2AC5 JUMPI POP JUMP JUMPDEST PUSH2 0x368 SWAP2 SWAP3 POP PUSH2 0x2A01 SWAP1 PUSH2 0x29FB PUSH1 0x11 PUSH2 0xFAE JUMP JUMPDEST PUSH2 0x2904 SWAP1 PUSH2 0x2AE5 PUSH2 0x2802 JUMP JUMPDEST PUSH2 0x2B10 JUMP JUMPDEST SWAP1 PUSH1 0xFF PUSH1 0xA8 SHL SWAP1 PUSH1 0xA8 SHL PUSH2 0xDD4 JUMP JUMPDEST SWAP1 PUSH2 0x2B09 PUSH2 0x368 PUSH2 0xDF5 SWAP3 ISZERO ISZERO SWAP1 JUMP JUMPDEST DUP3 SLOAD PUSH2 0x2AEA JUMP JUMPDEST PUSH2 0x2B25 SWAP1 PUSH2 0x2B20 PUSH1 0x1 PUSH1 0x14 PUSH2 0x2AF9 JUMP JUMPDEST PUSH2 0x2C7D JUMP JUMPDEST PUSH2 0x352 PUSH1 0x0 PUSH1 0x14 PUSH2 0x2AF9 JUMP JUMPDEST SWAP1 PUSH2 0x352 PUSH2 0x2B3E PUSH1 0x40 MLOAD SWAP1 JUMP JUMPDEST SWAP3 DUP4 PUSH2 0xF42 JUMP JUMPDEST PUSH8 0xFFFFFFFFFFFFFFFF DUP2 GT PUSH2 0xF64 JUMPI PUSH1 0x20 DUP1 SWAP2 MUL ADD SWAP1 JUMP JUMPDEST SWAP1 PUSH2 0x2B6F PUSH2 0x2B6A DUP4 PUSH2 0x2B45 JUMP JUMPDEST PUSH2 0x2B31 JUMP JUMPDEST SWAP2 DUP3 MSTORE JUMP JUMPDEST CALLDATASIZE SWAP1 CALLDATACOPY JUMP JUMPDEST SWAP1 PUSH2 0x352 PUSH2 0x2B8F PUSH2 0x2B89 DUP5 PUSH2 0x2B5D JUMP JUMPDEST SWAP4 PUSH2 0x2B45 JUMP JUMPDEST PUSH1 0x1F NOT ADD PUSH1 0x20 DUP5 ADD PUSH2 0x2B74 JUMP JUMPDEST PUSH4 0x4E487B71 PUSH1 0xE0 SHL PUSH1 0x0 MSTORE PUSH1 0x32 PUSH1 0x4 MSTORE PUSH1 0x24 PUSH1 0x0 REVERT JUMPDEST SWAP1 PUSH2 0x2BBB DUP3 MLOAD SWAP1 JUMP JUMPDEST DUP2 LT ISZERO PUSH2 0x2BCC JUMPI PUSH1 0x20 DUP1 SWAP2 MUL ADD ADD SWAP1 JUMP JUMPDEST PUSH2 0x2B9C JUMP JUMPDEST SWAP1 PUSH2 0x2BF1 PUSH2 0x2BEA PUSH2 0x2BE0 DUP5 MLOAD SWAP1 JUMP JUMPDEST DUP1 DUP5 MSTORE SWAP3 PUSH1 0x20 ADD SWAP1 JUMP JUMPDEST SWAP3 PUSH1 0x20 ADD SWAP1 JUMP JUMPDEST SWAP1 PUSH1 0x0 JUMPDEST DUP2 DUP2 LT PUSH2 0x2C02 JUMPI POP POP POP SWAP1 JUMP JUMPDEST SWAP1 SWAP2 SWAP3 PUSH2 0x2C28 PUSH2 0x2C21 PUSH1 0x1 SWAP3 DUP7 MLOAD PUSH1 0x1 PUSH1 0x1 PUSH1 0xA0 SHL SUB AND DUP2 MSTORE PUSH1 0x20 ADD SWAP1 JUMP JUMPDEST SWAP5 PUSH1 0x20 ADD SWAP1 JUMP JUMPDEST SWAP3 SWAP2 ADD PUSH2 0x2BF5 JUMP JUMPDEST SWAP1 PUSH2 0x2C6B PUSH2 0x21A5 SWAP2 PUSH2 0x352 SWAP7 SWAP9 SWAP8 SWAP6 PUSH2 0x2C5E PUSH1 0x80 SWAP7 PUSH2 0x2C54 PUSH1 0xA0 DUP9 ADD SWAP5 PUSH1 0x0 DUP10 ADD MSTORE JUMP JUMPDEST PUSH1 0x20 DUP8 ADD SWAP1 PUSH2 0x227D JUMP JUMPDEST DUP5 DUP3 SUB PUSH1 0x40 DUP7 ADD MSTORE PUSH2 0x2BD1 JUMP JUMPDEST PUSH1 0x1 PUSH1 0x1 PUSH1 0xA0 SHL SUB SWAP1 SWAP8 AND PUSH1 0x60 DUP4 ADD MSTORE JUMP JUMPDEST PUSH2 0x2C8F PUSH2 0x2C8A PUSH1 0x2 PUSH2 0x11A4 JUMP JUMPDEST PUSH2 0x2B79 JUMP JUMPDEST PUSH2 0x2C98 ADDRESS PUSH2 0x945 JUMP JUMPDEST SWAP1 PUSH1 0x0 SWAP3 PUSH2 0x2CC0 DUP4 PUSH2 0x2CB2 PUSH2 0x2CAC DUP8 PUSH2 0x11A4 JUMP JUMPDEST DUP6 PUSH2 0x2BB2 JUMP JUMPDEST SWAP1 PUSH1 0x1 PUSH1 0x1 PUSH1 0xA0 SHL SUB AND SWAP1 MSTORE JUMP JUMPDEST PUSH2 0x2CCB PUSH2 0x16C8 PUSH2 0x94E JUMP JUMPDEST PUSH4 0xAD5C4648 PUSH2 0x2CDC PUSH2 0x241E PUSH1 0x40 MLOAD SWAP1 JUMP JUMPDEST DUP2 MSTORE PUSH1 0x20 DUP2 PUSH1 0x4 DUP2 DUP6 GAS STATICCALL DUP1 ISZERO PUSH2 0x16E1 JUMPI PUSH2 0x2D0C SWAP2 DUP8 SWAP2 PUSH2 0x2D8D JUMPI JUMPDEST POP PUSH2 0x2CB2 PUSH2 0x2D06 PUSH1 0x1 PUSH2 0x11A4 JUMP JUMPDEST DUP7 PUSH2 0x2BB2 JUMP JUMPDEST PUSH2 0x2D17 DUP3 DUP3 DUP7 PUSH2 0x11C8 JUMP JUMPDEST PUSH4 0x791AC947 SWAP4 TIMESTAMP SWAP1 DUP3 EXTCODESIZE ISZERO PUSH2 0x337 JUMPI DUP7 SWAP6 PUSH2 0x2D55 PUSH2 0x2D4A SWAP4 DUP9 SWAP8 SWAP4 DUP9 SWAP5 PUSH2 0x2D3D PUSH1 0x40 MLOAD SWAP1 JUMP JUMPDEST SWAP11 DUP12 SWAP10 DUP11 SWAP9 DUP10 SWAP8 PUSH1 0xE0 SHL SWAP1 JUMP JUMPDEST DUP8 MSTORE PUSH1 0x4 DUP8 ADD PUSH2 0x2C30 JUMP JUMPDEST SUB SWAP3 GAS CALL DUP1 ISZERO PUSH2 0x16E1 JUMPI PUSH2 0x2D67 JUMPI POP POP JUMP JUMPDEST DUP2 PUSH2 0x352 SWAP3 SWAP1 RETURNDATASIZE LT PUSH2 0x2D86 JUMPI JUMPDEST PUSH2 0x2D7E DUP2 DUP4 PUSH2 0xF42 JUMP JUMPDEST DUP2 ADD SWAP1 PUSH2 0x38C JUMP JUMPDEST POP RETURNDATASIZE PUSH2 0x2D74 JUMP JUMPDEST PUSH2 0x2DA5 SWAP2 POP PUSH1 0x20 RETURNDATASIZE DUP2 GT PUSH2 0x26AC JUMPI PUSH2 0x269E DUP2 DUP4 PUSH2 0xF42 JUMP JUMPDEST CODESIZE PUSH2 0x2CF8 JUMP JUMPDEST PUSH2 0x352 SWAP1 PUSH2 0x2AD9 JUMP JUMPDEST SWAP1 DUP1 DUP3 LT ISZERO PUSH2 0x2DC1 JUMPI POP SWAP1 JUMP JUMPDEST SWAP1 POP SWAP1 JUMP JUMPDEST PUSH1 0x60 SHL ISZERO PUSH2 0x2DD0 JUMPI JUMP JUMPDEST PUSH4 0xD92E233D PUSH1 0x0 MSTORE PUSH1 0x4 PUSH1 0x1C REVERT INVALID LOG2 PUSH5 0x6970667358 0x22 SLT KECCAK256 SWAP15 0xA9 0xC7 RETURNDATACOPY PUSH21 0x77989C6E5B6CA471078B304B8DD810E0A026A61E03 SELFDESTRUCT 0xD2 CALL DUP9 PUSH27 0xD564736F6C63430008140033000000000000000000000000000000 "},"gasEstimates":{"creation":{"codeDepositCost":"2359200","executionCost":"infinite","totalCost":"infinite"},"external":{"UNISWAP_V2_ROUTER()":"infinite","affiliateFeePercentage()":"infinite","affiliateFeeRecipient()":"infinite","allowance(address,address)":"infinite","approve(address,uint256)":"infinite","autoWithdrawThreshold()":"infinite","balanceOf(address)":"infinite","burn(uint256)":"infinite","burnFrom(address,uint256)":"infinite","burnPercentage()":"infinite","coinGenieTreasury()":"infinite","decimals()":"infinite","decreaseAllowance(address,uint256)":"infinite","discountFeeRequiredAmount()":"infinite","feePercentage()":"infinite","feeRecipient()":"infinite","genieToken()":"infinite","increaseAllowance(address,uint256)":"infinite","initialSupply()":"infinite","isBurnable()":"infinite","isDeflationary()":"infinite","isPausable()":"infinite","isSwapEnabled()":"infinite","lpEthFeePercentage()":"infinite","manualSwap()":"infinite","maxTaxSwap()":"infinite","maxTokenAmountPerAddress()":"infinite","name()":"infinite","openTrading(uint256)":"infinite","owner()":"infinite","pause()":"infinite","paused()":"infinite","renounceOwnership()":"infinite","setAutoWithdrawThreshold(uint256)":"infinite","setCoinGenieTreasury(address)":"infinite","setDeflationConfig(uint256)":"infinite","setDiscountFeeRequiredAmount(uint256)":"infinite","setGenie(address)":"infinite","setMaxTaxSwap(uint256)":"infinite","setMaxTokenAmountPerAddress(uint256)":"infinite","setTaxConfig(address,uint256)":"infinite","symbol()":"infinite","tokenConfig()":"infinite","totalSupply()":"infinite","transfer(address,uint256)":"infinite","transferFrom(address,address,uint256)":"infinite","transferOwnership(address)":"infinite","treasuryFeePercentage()":"infinite","uniswapV2Pair()":"infinite","unpause()":"infinite"},"internal":{"_beforeTokenTransfer(address,address,uint256)":"infinite","_calculateAffiliateAmount(address,uint256)":"infinite","_calculateBurnAmount(uint256)":"infinite","_calculateRoyaltyAmount(address,uint256)":"infinite","_calculateTaxAmount(address,uint256)":"infinite","_min(uint256,uint256)":"46","_swapTokensForEth(uint256)":"infinite"}},"methodIdentifiers":{"UNISWAP_V2_ROUTER()":"a82ed9ec","affiliateFeePercentage()":"d1ed0a0f","affiliateFeeRecipient()":"c68ff0fe","allowance(address,address)":"dd62ed3e","approve(address,uint256)":"095ea7b3","autoWithdrawThreshold()":"84c5dd01","balanceOf(address)":"70a08231","burn(uint256)":"42966c68","burnFrom(address,uint256)":"79cc6790","burnPercentage()":"f01f20df","coinGenieTreasury()":"99735fd8","decimals()":"313ce567","decreaseAllowance(address,uint256)":"a457c2d7","discountFeeRequiredAmount()":"ec57459c","feePercentage()":"a001ecdd","feeRecipient()":"46904840","genieToken()":"12d75f13","increaseAllowance(address,uint256)":"39509351","initialSupply()":"378dc3dc","isBurnable()":"883356d9","isDeflationary()":"8e8c10a2","isPausable()":"a09a1601","isSwapEnabled()":"351a964d","lpEthFeePercentage()":"e08973ce","manualSwap()":"51bc3c85","maxTaxSwap()":"62997f8c","maxTokenAmountPerAddress()":"d48e4127","name()":"06fdde03","openTrading(uint256)":"d1633649","owner()":"8da5cb5b","pause()":"8456cb59","paused()":"5c975abb","renounceOwnership()":"715018a6","setAutoWithdrawThreshold(uint256)":"f69cf783","setCoinGenieTreasury(address)":"3381e7e2","setDeflationConfig(uint256)":"d8f67851","setDiscountFeeRequiredAmount(uint256)":"6e2759f3","setGenie(address)":"dcc79cc8","setMaxTaxSwap(uint256)":"b9d0f1af","setMaxTokenAmountPerAddress(uint256)":"02252c4d","setTaxConfig(address,uint256)":"f19c4e3b","symbol()":"95d89b41","tokenConfig()":"ba9341c0","totalSupply()":"18160ddd","transfer(address,uint256)":"a9059cbb","transferFrom(address,address,uint256)":"23b872dd","transferOwnership(address)":"f2fde38b","treasuryFeePercentage()":"4c09f37c","uniswapV2Pair()":"49bd5a5e","unpause()":"3f4ba83a"}},"storageLayout":{"storage":[{"astId":301,"contract":"src/CoinGenieERC20.sol:CoinGenieERC20","label":"_balances","offset":0,"slot":"0","type":"t_mapping(t_address,t_uint256)"},{"astId":307,"contract":"src/CoinGenieERC20.sol:CoinGenieERC20","label":"_allowances","offset":0,"slot":"1","type":"t_mapping(t_address,t_mapping(t_address,t_uint256))"},{"astId":309,"contract":"src/CoinGenieERC20.sol:CoinGenieERC20","label":"_totalSupply","offset":0,"slot":"2","type":"t_uint256"},{"astId":311,"contract":"src/CoinGenieERC20.sol:CoinGenieERC20","label":"_name","offset":0,"slot":"3","type":"t_string_storage"},{"astId":313,"contract":"src/CoinGenieERC20.sol:CoinGenieERC20","label":"_symbol","offset":0,"slot":"4","type":"t_string_storage"},{"astId":130,"contract":"src/CoinGenieERC20.sol:CoinGenieERC20","label":"_paused","offset":0,"slot":"5","type":"t_bool"},{"astId":7,"contract":"src/CoinGenieERC20.sol:CoinGenieERC20","label":"_owner","offset":1,"slot":"5","type":"t_address"},{"astId":231,"contract":"src/CoinGenieERC20.sol:CoinGenieERC20","label":"_status","offset":0,"slot":"6","type":"t_uint256"},{"astId":4703,"contract":"src/CoinGenieERC20.sol:CoinGenieERC20","label":"discountFeeRequiredAmount","offset":0,"slot":"7","type":"t_uint256"},{"astId":4706,"contract":"src/CoinGenieERC20.sol:CoinGenieERC20","label":"genieToken","offset":0,"slot":"8","type":"t_address"},{"astId":4715,"contract":"src/CoinGenieERC20.sol:CoinGenieERC20","label":"maxTokenAmountPerAddress","offset":0,"slot":"9","type":"t_uint256"},{"astId":4718,"contract":"src/CoinGenieERC20.sol:CoinGenieERC20","label":"maxTaxSwap","offset":0,"slot":"10","type":"t_uint256"},{"astId":4721,"contract":"src/CoinGenieERC20.sol:CoinGenieERC20","label":"autoWithdrawThreshold","offset":0,"slot":"11","type":"t_uint256"},{"astId":4725,"contract":"src/CoinGenieERC20.sol:CoinGenieERC20","label":"tokenConfig","offset":0,"slot":"12","type":"t_struct(TokenConfigProperties)7494_storage"},{"astId":4728,"contract":"src/CoinGenieERC20.sol:CoinGenieERC20","label":"feeRecipient","offset":0,"slot":"13","type":"t_address"},{"astId":4734,"contract":"src/CoinGenieERC20.sol:CoinGenieERC20","label":"coinGenieTreasury","offset":0,"slot":"14","type":"t_address"},{"astId":4737,"contract":"src/CoinGenieERC20.sol:CoinGenieERC20","label":"feePercentage","offset":0,"slot":"15","type":"t_uint256"},{"astId":4741,"contract":"src/CoinGenieERC20.sol:CoinGenieERC20","label":"affiliateFeePercentage","offset":0,"slot":"16","type":"t_uint256"},{"astId":4744,"contract":"src/CoinGenieERC20.sol:CoinGenieERC20","label":"burnPercentage","offset":0,"slot":"17","type":"t_uint256"},{"astId":4748,"contract":"src/CoinGenieERC20.sol:CoinGenieERC20","label":"treasuryFeePercentage","offset":0,"slot":"18","type":"t_uint256"},{"astId":4752,"contract":"src/CoinGenieERC20.sol:CoinGenieERC20","label":"lpEthFeePercentage","offset":0,"slot":"19","type":"t_uint256"},{"astId":4762,"contract":"src/CoinGenieERC20.sol:CoinGenieERC20","label":"uniswapV2Pair","offset":0,"slot":"20","type":"t_address"},{"astId":4765,"contract":"src/CoinGenieERC20.sol:CoinGenieERC20","label":"isSwapEnabled","offset":20,"slot":"20","type":"t_bool"},{"astId":4768,"contract":"src/CoinGenieERC20.sol:CoinGenieERC20","label":"_inSwap","offset":21,"slot":"20","type":"t_bool"}],"types":{"t_address":{"encoding":"inplace","label":"address","numberOfBytes":"20"},"t_bool":{"encoding":"inplace","label":"bool","numberOfBytes":"1"},"t_mapping(t_address,t_mapping(t_address,t_uint256))":{"encoding":"mapping","key":"t_address","label":"mapping(address => mapping(address => uint256))","numberOfBytes":"32","value":"t_mapping(t_address,t_uint256)"},"t_mapping(t_address,t_uint256)":{"encoding":"mapping","key":"t_address","label":"mapping(address => uint256)","numberOfBytes":"32","value":"t_uint256"},"t_string_storage":{"encoding":"bytes","label":"string","numberOfBytes":"32"},"t_struct(TokenConfigProperties)7494_storage":{"encoding":"inplace","label":"struct Common.TokenConfigProperties","members":[{"astId":7489,"contract":"src/CoinGenieERC20.sol:CoinGenieERC20","label":"isBurnable","offset":0,"slot":"0","type":"t_bool"},{"astId":7491,"contract":"src/CoinGenieERC20.sol:CoinGenieERC20","label":"isPausable","offset":1,"slot":"0","type":"t_bool"},{"astId":7493,"contract":"src/CoinGenieERC20.sol:CoinGenieERC20","label":"isDeflationary","offset":2,"slot":"0","type":"t_bool"}],"numberOfBytes":"32"},"t_uint256":{"encoding":"inplace","label":"uint256","numberOfBytes":"32"}}},"userdoc":{"errors":{"BurningNotEnabled()":[{"notice":"Error thrown when burning is not enabled."}],"DestBalanceExceedsMaxAllowed(address)":[{"notice":"Error thrown when the destination balance exceeds the maximum allowed amount."}],"GenieAlreadySet()":[{"notice":"Error thrown when the genie is already set."}],"InsufficientETH(uint256,uint256)":[{"notice":"Error thrown when the provided ETH amount is insufficient."}],"InsufficientTokens(uint256,uint256)":[{"notice":"Error thrown when the provided token amount is insufficient."}],"InvalidDeflationBPS(uint256)":[{"notice":"Error thrown when an invalid deflation basis point is provided."}],"InvalidMaxTokenAmount(uint256)":[{"notice":"Error thrown when the provided maximum token amount is invalid."}],"InvalidTaxBPS(uint256)":[{"notice":"Error thrown when an invalid tax basis point is provided."}],"MaxTokenAmountPerAddrLtPrevious()":[{"notice":"Error thrown when the new maximum token amount per address is less than or equal to the previous value."}],"PausingNotEnabled()":[{"notice":"Error thrown when pausing is not enabled."}],"TokenIsNotDeflationary()":[{"notice":"Error thrown when the token is not deflationary."}],"TradingAlreadyOpen()":[{"notice":"Error thrown when trading is already open."}]},"events":{"BurnConfigUpdated(uint256)":{"notice":"This event is emitted when the burn configuration of the token has been updated."},"FeeConfigUpdated(address,uint256)":{"notice":"This event is emitted when the fee configuration of the token has been updated."},"MaxTokensPerWalletSet(uint256)":{"notice":"This event is emitted when the maximum number of tokens allowed per wallet has been updated."},"TradingOpened(address)":{"notice":"This event is emitted when the trading is opened."}},"kind":"user","methods":{"burn(uint256)":{"notice":"only callable by the owneronly callable if the token is not pausedonly callable if the token supports burning"},"burnFrom(address,uint256)":{"notice":"only callable by the owneronly callable if the token is not pausedonly callable if the token supports burningneeds Approval"},"pause()":{"notice":"only callable by the owner"},"setDeflationConfig(uint256)":{"notice":"only callable by the owneronly callable if the token is not pausedonly callable if the token supports deflationonly callable if the burnPercentage is not greater than the max allowed bps"},"setMaxTokenAmountPerAddress(uint256)":{"notice":"only callable by the owneronly callable if the token is not pausedonly callable if the token supports max amount of tokens per wallet"},"setTaxConfig(address,uint256)":{"notice":"only callable by the owneronly callable if the token is not pausedonly callable if the feePercentage is not greater than the max tax"},"transfer(address,uint256)":{"notice":"only callable if the token is not pausedonly callable if the balance of the receiver is lower than the max amount of tokens per walletchecks if blacklisting is enabled and if the sender and receiver are not blacklistedchecks if whitelisting is enabled and if the sender and receiver are whitelistedcaptures the tax during the transfer if tax is enabvledburns the deflationary amount during the transfer if deflation is enabled"},"transferFrom(address,address,uint256)":{"notice":"only callable if the token is not pausedonly callable if the balance of the receiver is lower than the max amount of tokens per walletchecks if blacklisting is enabled and if the sender and receiver are not blacklistedchecks if whitelisting is enabled and if the sender and receiver are whitelistedcaptures the tax during the transfer if tax is enabvledburns the deflationary amount during the transfer if deflation is enabled"},"unpause()":{"notice":"only callable by the owner"}},"notice":"A robust and secure ERC20 token for the Coin Genie ecosystem","version":1}}}}