{"src/CoinGenieERC20.sol":{"CoinGenieERC20":{"abi":[{"inputs":[{"internalType":"string","name":"name_","type":"string"},{"internalType":"string","name":"symbol_","type":"string"},{"internalType":"uint256","name":"initialSupplyToSet","type":"uint256"},{"internalType":"address","name":"tokenOwner","type":"address"},{"components":[{"internalType":"bool","name":"isBurnable","type":"bool"},{"internalType":"bool","name":"isPausable","type":"bool"},{"internalType":"bool","name":"isDeflationary","type":"bool"}],"internalType":"struct Common.TokenConfigProperties","name":"customConfigProps","type":"tuple"},{"internalType":"uint256","name":"maxPerWallet","type":"uint256"},{"internalType":"uint256","name":"maxToSwapForTax","type":"uint256"},{"internalType":"uint256","name":"_autoWithdrawThreshold","type":"uint256"},{"internalType":"address","name":"_affilateFeeRecipient","type":"address"},{"internalType":"address","name":"_feeRecipient","type":"address"},{"internalType":"uint256","name":"_feePercentage","type":"uint256"},{"internalType":"uint256","name":"_burnPercentage","type":"uint256"}],"stateMutability":"nonpayable","type":"constructor"},{"inputs":[],"name":"BurningNotEnabled","type":"error"},{"inputs":[{"internalType":"address","name":"addr","type":"address"}],"name":"DestBalanceExceedsMaxAllowed","type":"error"},{"inputs":[],"name":"GenieAlreadySet","type":"error"},{"inputs":[{"internalType":"uint256","name":"amount","type":"uint256"},{"internalType":"uint256","name":"minAmount","type":"uint256"}],"name":"InsufficientETH","type":"error"},{"inputs":[{"internalType":"uint256","name":"amount","type":"uint256"},{"internalType":"uint256","name":"minAmount","type":"uint256"}],"name":"InsufficientTokens","type":"error"},{"inputs":[{"internalType":"uint256","name":"bps","type":"uint256"}],"name":"InvalidDeflationBPS","type":"error"},{"inputs":[{"internalType":"uint256","name":"maxPerWallet","type":"uint256"}],"name":"InvalidMaxTokenAmount","type":"error"},{"inputs":[{"internalType":"uint256","name":"bps","type":"uint256"}],"name":"InvalidTaxBPS","type":"error"},{"inputs":[],"name":"MaxTokenAmountPerAddrLtPrevious","type":"error"},{"inputs":[],"name":"PausingNotEnabled","type":"error"},{"inputs":[],"name":"TokenIsNotDeflationary","type":"error"},{"inputs":[],"name":"TradingAlreadyOpen","type":"error"},{"anonymous":false,"inputs":[{"indexed":true,"internalType":"address","name":"owner","type":"address"},{"indexed":true,"internalType":"address","name":"spender","type":"address"},{"indexed":false,"internalType":"uint256","name":"value","type":"uint256"}],"name":"Approval","type":"event"},{"anonymous":false,"inputs":[{"indexed":true,"internalType":"uint256","name":"_burnPercentage","type":"uint256"}],"name":"BurnConfigUpdated","type":"event"},{"anonymous":false,"inputs":[{"indexed":true,"internalType":"address","name":"_feeRecipient","type":"address"},{"indexed":true,"internalType":"uint256","name":"_feePercentage","type":"uint256"}],"name":"FeeConfigUpdated","type":"event"},{"anonymous":false,"inputs":[{"indexed":true,"internalType":"uint256","name":"newMaxTokenAmount","type":"uint256"}],"name":"MaxTokensPerWalletSet","type":"event"},{"anonymous":false,"inputs":[{"indexed":true,"internalType":"address","name":"previousOwner","type":"address"},{"indexed":true,"internalType":"address","name":"newOwner","type":"address"}],"name":"OwnershipTransferred","type":"event"},{"anonymous":false,"inputs":[{"indexed":false,"internalType":"address","name":"account","type":"address"}],"name":"Paused","type":"event"},{"anonymous":false,"inputs":[{"indexed":true,"internalType":"address","name":"pair","type":"address"}],"name":"TradingOpened","type":"event"},{"anonymous":false,"inputs":[{"indexed":true,"internalType":"address","name":"from","type":"address"},{"indexed":true,"internalType":"address","name":"to","type":"address"},{"indexed":false,"internalType":"uint256","name":"value","type":"uint256"}],"name":"Transfer","type":"event"},{"anonymous":false,"inputs":[{"indexed":false,"internalType":"address","name":"account","type":"address"}],"name":"Unpaused","type":"event"},{"inputs":[],"name":"UNISWAP_V2_ROUTER","outputs":[{"internalType":"contract IUniswapV2Router02","name":"","type":"address"}],"stateMutability":"view","type":"function"},{"inputs":[],"name":"affiliateFeePercentage","outputs":[{"internalType":"uint256","name":"","type":"uint256"}],"stateMutability":"view","type":"function"},{"inputs":[],"name":"affiliateFeeRecipient","outputs":[{"internalType":"address","name":"","type":"address"}],"stateMutability":"view","type":"function"},{"inputs":[{"internalType":"address","name":"owner","type":"address"},{"internalType":"address","name":"spender","type":"address"}],"name":"allowance","outputs":[{"internalType":"uint256","name":"","type":"uint256"}],"stateMutability":"view","type":"function"},{"inputs":[{"internalType":"address","name":"spender","type":"address"},{"internalType":"uint256","name":"amount","type":"uint256"}],"name":"approve","outputs":[{"internalType":"bool","name":"","type":"bool"}],"stateMutability":"nonpayable","type":"function"},{"inputs":[],"name":"autoWithdrawThreshold","outputs":[{"internalType":"uint256","name":"","type":"uint256"}],"stateMutability":"view","type":"function"},{"inputs":[{"internalType":"address","name":"account","type":"address"}],"name":"balanceOf","outputs":[{"internalType":"uint256","name":"","type":"uint256"}],"stateMutability":"view","type":"function"},{"inputs":[{"internalType":"uint256","name":"amount","type":"uint256"}],"name":"burn","outputs":[],"stateMutability":"nonpayable","type":"function"},{"inputs":[{"internalType":"address","name":"from","type":"address"},{"internalType":"uint256","name":"amount","type":"uint256"}],"name":"burnFrom","outputs":[],"stateMutability":"nonpayable","type":"function"},{"inputs":[],"name":"burnPercentage","outputs":[{"internalType":"uint256","name":"","type":"uint256"}],"stateMutability":"view","type":"function"},{"inputs":[],"name":"coinGenieTreasury","outputs":[{"internalType":"address","name":"","type":"address"}],"stateMutability":"view","type":"function"},{"inputs":[],"name":"decimals","outputs":[{"internalType":"uint8","name":"","type":"uint8"}],"stateMutability":"view","type":"function"},{"inputs":[{"internalType":"address","name":"spender","type":"address"},{"internalType":"uint256","name":"subtractedValue","type":"uint256"}],"name":"decreaseAllowance","outputs":[{"internalType":"bool","name":"","type":"bool"}],"stateMutability":"nonpayable","type":"function"},{"inputs":[],"name":"discountFeeRequiredAmount","outputs":[{"internalType":"uint256","name":"","type":"uint256"}],"stateMutability":"view","type":"function"},{"inputs":[],"name":"feePercentage","outputs":[{"internalType":"uint256","name":"","type":"uint256"}],"stateMutability":"view","type":"function"},{"inputs":[],"name":"feeRecipient","outputs":[{"internalType":"address","name":"","type":"address"}],"stateMutability":"view","type":"function"},{"inputs":[],"name":"genieToken","outputs":[{"internalType":"address","name":"","type":"address"}],"stateMutability":"view","type":"function"},{"inputs":[{"internalType":"address","name":"spender","type":"address"},{"internalType":"uint256","name":"addedValue","type":"uint256"}],"name":"increaseAllowance","outputs":[{"internalType":"bool","name":"","type":"bool"}],"stateMutability":"nonpayable","type":"function"},{"inputs":[],"name":"initialSupply","outputs":[{"internalType":"uint256","name":"","type":"uint256"}],"stateMutability":"view","type":"function"},{"inputs":[],"name":"isBurnable","outputs":[{"internalType":"bool","name":"","type":"bool"}],"stateMutability":"view","type":"function"},{"inputs":[],"name":"isDeflationary","outputs":[{"internalType":"bool","name":"","type":"bool"}],"stateMutability":"view","type":"function"},{"inputs":[],"name":"isPausable","outputs":[{"internalType":"bool","name":"","type":"bool"}],"stateMutability":"view","type":"function"},{"inputs":[],"name":"isSwapEnabled","outputs":[{"internalType":"bool","name":"","type":"bool"}],"stateMutability":"view","type":"function"},{"inputs":[{"internalType":"address","name":"feePayer","type":"address"}],"name":"isWhitelisted","outputs":[{"internalType":"bool","name":"","type":"bool"}],"stateMutability":"view","type":"function"},{"inputs":[],"name":"lpEthFeePercentage","outputs":[{"internalType":"uint256","name":"","type":"uint256"}],"stateMutability":"view","type":"function"},{"inputs":[],"name":"manualSwap","outputs":[],"stateMutability":"nonpayable","type":"function"},{"inputs":[],"name":"maxTaxSwap","outputs":[{"internalType":"uint256","name":"","type":"uint256"}],"stateMutability":"view","type":"function"},{"inputs":[],"name":"maxTokenAmountPerAddress","outputs":[{"internalType":"uint256","name":"","type":"uint256"}],"stateMutability":"view","type":"function"},{"inputs":[],"name":"name","outputs":[{"internalType":"string","name":"","type":"string"}],"stateMutability":"view","type":"function"},{"inputs":[{"internalType":"uint256","name":"amountToLP","type":"uint256"}],"name":"openTrading","outputs":[{"internalType":"contract IUniswapV2Pair","name":"","type":"address"}],"stateMutability":"payable","type":"function"},{"inputs":[],"name":"owner","outputs":[{"internalType":"address","name":"","type":"address"}],"stateMutability":"view","type":"function"},{"inputs":[],"name":"pause","outputs":[],"stateMutability":"nonpayable","type":"function"},{"inputs":[],"name":"paused","outputs":[{"internalType":"bool","name":"","type":"bool"}],"stateMutability":"view","type":"function"},{"inputs":[],"name":"renounceOwnership","outputs":[],"stateMutability":"nonpayable","type":"function"},{"inputs":[{"internalType":"uint256","name":"threshold","type":"uint256"}],"name":"setAutoWithdrawThreshold","outputs":[],"stateMutability":"nonpayable","type":"function"},{"inputs":[{"internalType":"address","name":"coinGenieAddress","type":"address"}],"name":"setCoinGenieTreasury","outputs":[],"stateMutability":"nonpayable","type":"function"},{"inputs":[{"internalType":"uint256","name":"_burnPercentage","type":"uint256"}],"name":"setDeflationConfig","outputs":[],"stateMutability":"nonpayable","type":"function"},{"inputs":[{"internalType":"address","name":"genie","type":"address"}],"name":"setGenie","outputs":[],"stateMutability":"nonpayable","type":"function"},{"inputs":[{"internalType":"uint256","name":"maxTax","type":"uint256"}],"name":"setMaxTaxSwap","outputs":[],"stateMutability":"nonpayable","type":"function"},{"inputs":[{"internalType":"uint256","name":"newMaxTokenAmount","type":"uint256"}],"name":"setMaxTokenAmountPerAddress","outputs":[],"stateMutability":"nonpayable","type":"function"},{"inputs":[{"internalType":"address","name":"_feeRecipient","type":"address"},{"internalType":"uint256","name":"_feePercentage","type":"uint256"}],"name":"setTaxConfig","outputs":[],"stateMutability":"nonpayable","type":"function"},{"inputs":[],"name":"symbol","outputs":[{"internalType":"string","name":"","type":"string"}],"stateMutability":"view","type":"function"},{"inputs":[],"name":"tokenConfig","outputs":[{"internalType":"bool","name":"isBurnable","type":"bool"},{"internalType":"bool","name":"isPausable","type":"bool"},{"internalType":"bool","name":"isDeflationary","type":"bool"}],"stateMutability":"view","type":"function"},{"inputs":[],"name":"totalSupply","outputs":[{"internalType":"uint256","name":"","type":"uint256"}],"stateMutability":"view","type":"function"},{"inputs":[{"internalType":"address","name":"to","type":"address"},{"internalType":"uint256","name":"amount","type":"uint256"}],"name":"transfer","outputs":[{"internalType":"bool","name":"","type":"bool"}],"stateMutability":"nonpayable","type":"function"},{"inputs":[{"internalType":"address","name":"from","type":"address"},{"internalType":"address","name":"to","type":"address"},{"internalType":"uint256","name":"amount","type":"uint256"}],"name":"transferFrom","outputs":[{"internalType":"bool","name":"","type":"bool"}],"stateMutability":"nonpayable","type":"function"},{"inputs":[{"internalType":"address","name":"newOwner","type":"address"}],"name":"transferOwnership","outputs":[],"stateMutability":"nonpayable","type":"function"},{"inputs":[],"name":"treasuryFeePercentage","outputs":[{"internalType":"uint256","name":"","type":"uint256"}],"stateMutability":"view","type":"function"},{"inputs":[],"name":"uniswapV2Pair","outputs":[{"internalType":"address","name":"","type":"address"}],"stateMutability":"view","type":"function"},{"inputs":[],"name":"unpause","outputs":[],"stateMutability":"nonpayable","type":"function"}],"devdoc":{"author":"@neuro_0x","errors":{"DestBalanceExceedsMaxAllowed(address)":[{"params":{"addr":"The address whose balance would exceed the limit."}}],"InsufficientETH(uint256,uint256)":[{"params":{"amount":"The provided ETH amount.","minAmount":"The minimum required ETH amount."}}],"InsufficientTokens(uint256,uint256)":[{"params":{"amount":"The provided token amount.","minAmount":"The minimum required token amount."}}],"InvalidDeflationBPS(uint256)":[{"params":{"bps":"The invalid basis points for deflation."}}],"InvalidTaxBPS(uint256)":[{"params":{"bps":"The invalid basis points for tax."}}]},"events":{"Approval(address,address,uint256)":{"details":"Emitted when the allowance of a `spender` for an `owner` is set by a call to {approve}. `value` is the new allowance."},"BurnConfigUpdated(uint256)":{"params":{"_burnPercentage":"The updated burn percentage."}},"FeeConfigUpdated(address,uint256)":{"params":{"_feePercentage":"The updated fee percentage.","_feeRecipient":"The updated fee recipient address."}},"MaxTokensPerWalletSet(uint256)":{"params":{"newMaxTokenAmount":"The new maximum token amount per wallet."}},"Paused(address)":{"details":"Emitted when the pause is triggered by `account`."},"TradingOpened(address)":{"params":{"pair":"The address of the LP token."}},"Transfer(address,address,uint256)":{"details":"Emitted when `value` tokens are moved from one account (`from`) to another (`to`). Note that `value` may be zero."},"Unpaused(address)":{"details":"Emitted when the pause is lifted by `account`."}},"kind":"dev","methods":{"allowance(address,address)":{"details":"See {IERC20-allowance}."},"approve(address,uint256)":{"details":"See {IERC20-approve}. NOTE: If `amount` is the maximum `uint256`, the allowance is not updated on `transferFrom`. This is semantically equivalent to an infinite approval. Requirements: - `spender` cannot be the zero address."},"balanceOf(address)":{"details":"See {IERC20-balanceOf}."},"burn(uint256)":{"details":"Allows to burn a predefined amount of tokens","params":{"amount":"- the amount of tokens to burn"}},"burnFrom(address,uint256)":{"details":"Allows to burn a predefined amount of tokens from a predefined address","params":{"amount":"- the amount of tokens to burn","from":"- the address to burn the tokens from"}},"constructor":{"details":"Initializes the contract with the provided parameters","params":{"_affilateFeeRecipient":"The address of the affiliate fee recipient","_burnPercentage":"The burn percentage in basis points","_feePercentage":"The fee percentage in basis points","_feeRecipient":"The address of the fee recipient","customConfigProps":"Represents the features of the token","initialSupplyToSet":"The initial supply of the token","maxPerWallet":"The max amount of tokens per wallet","maxToSwapForTax":"The max amount of tokens to swap for tax","name_":"The name of the token","symbol_":"The symbol of the token","tokenOwner":"The owner of the token"}},"decimals()":{"returns":{"_0":"number of decimals for the token"}},"decreaseAllowance(address,uint256)":{"details":"Atomically decreases the allowance granted to `spender` by the caller. This is an alternative to {approve} that can be used as a mitigation for problems described in {IERC20-approve}. Emits an {Approval} event indicating the updated allowance. Requirements: - `spender` cannot be the zero address. - `spender` must have allowance for the caller of at least `subtractedValue`."},"increaseAllowance(address,uint256)":{"details":"Atomically increases the allowance granted to `spender` by the caller. This is an alternative to {approve} that can be used as a mitigation for problems described in {IERC20-approve}. Emits an {Approval} event indicating the updated allowance. Requirements: - `spender` cannot be the zero address."},"isBurnable()":{"returns":{"_0":"true if the token is burnable"}},"isDeflationary()":{"returns":{"_0":"true if the token supports deflation"}},"isPausable()":{"returns":{"_0":"true if the token is pausable"}},"isWhitelisted(address)":{"returns":{"_0":"true if the feePayer is whitelisted"}},"manualSwap()":{"details":"Swaps tokens for ETH if the contract balance is greater than the max amount to swap for tax. Then sends the ETH to the tax wallet."},"name()":{"details":"Returns the name of the token."},"openTrading(uint256)":{"details":"Opens trading for the token by adding liquidity to Uniswap.","params":{"amountToLP":"The amount of tokens to add to Uniswap Emits a {TradingOpened} event. Preconditions: Requirements: `isSwapEnabled` must be false. `amountToLP >= _MIN_LIQUIDITY_TOKEN` `msg.value >= _MIN_LIQUIDITY_ETH`"}},"owner()":{"details":"Returns the address of the current owner."},"pause()":{"details":"Allows to pause the token"},"paused()":{"details":"Returns true if the contract is paused, and false otherwise."},"renounceOwnership()":{"details":"Leaves the contract without owner. It will not be possible to call `onlyOwner` functions. Can only be called by the current owner. NOTE: Renouncing ownership will leave the contract without an owner, thereby disabling any functionality that is only available to the owner."},"setAutoWithdrawThreshold(uint256)":{"details":"Allows the owner to set the max amount of tokens the contract can accrue before swapping them for ETH","params":{"threshold":"- the new max amount of tokens to swap for tax"}},"setCoinGenieTreasury(address)":{"details":"Allows the owner to set the address of the coingenie","params":{"coinGenieAddress":"- the address of the coinGenie"}},"setDeflationConfig(uint256)":{"details":"Allows the owner to set the deflation config","params":{"_burnPercentage":"- the new burnPercentage"}},"setGenie(address)":{"details":"Sets the address of the genie token","params":{"genie":"- the address of the genie token"}},"setMaxTaxSwap(uint256)":{"details":"Allows the owner to set the max amount of tokens the contract can accrue before swapping them for ETH","params":{"maxTax":"- the new max amount of tokens to swap for tax"}},"setMaxTokenAmountPerAddress(uint256)":{"details":"Allows the owner to set a max amount of tokens per wallet","params":{"newMaxTokenAmount":"- the new max amount of tokens per wallet"}},"setTaxConfig(address,uint256)":{"details":"Allows the owner to set the tax config","params":{"_feePercentage":"- the new feePercentage","_feeRecipient":"- the new feeRecipient"}},"symbol()":{"details":"Returns the symbol of the token, usually a shorter version of the name."},"totalSupply()":{"details":"See {IERC20-totalSupply}."},"transfer(address,uint256)":{"details":"Allows to transfer a predefined amount of tokens to a predefined address","params":{"amount":"- the amount of tokens to transfer","to":"- the address to transfer the tokens to"},"returns":{"_0":"true if the transfer was successful"}},"transferFrom(address,address,uint256)":{"details":"Allows to transfer a predefined amount of tokens from a predefined address to a predefined address","params":{"amount":"- the amount of tokens to transfer","from":"- the address to transfer the tokens from","to":"- the address to transfer the tokens to"},"returns":{"_0":"true if the transfer was successful"}},"transferOwnership(address)":{"details":"Transfers ownership of the contract to a new account (`newOwner`). Can only be called by the current owner."},"unpause()":{"details":"Allows to unpause the token"}},"stateVariables":{"UNISWAP_V2_ROUTER":{"details":"The address of the Uniswap V2 Router. The contract uses the router for liquidity provision and token swaps"},"_MAX_BPS":{"details":"The max basis points representing 100%"},"_MAX_TAX":{"details":"The max tax that can be applied to a transaction. The value is in ether but is handled as 5%."},"_MIN_LIQUIDITY_ETH":{"details":"The minimum amount of eth that must be added to Uniswap when trading is opened."},"_MIN_LIQUIDITY_TOKEN":{"details":"The minimum amount of erc20 token that must be added to Uniswap when trading is opened."},"_inSwap":{"details":"Are we currently swapping tokens for ETH?"},"_tokenDecimals":{"details":"number of decimals of the token"},"affiliateFeePercentage":{"details":"the affiliate fee percentage taken on transfers"},"affiliateFeeRecipient":{"details":"address of the affiliate fee recipient"},"autoWithdrawThreshold":{"details":"max amount of ETH the contract can accrue before withdrawing them to the fee recipient"},"burnPercentage":{"details":"the affiliate fee percentage in basis points"},"coinGenieTreasury":{"details":"address of the royalty fee recipient (Coin Genie)"},"discountFeeRequiredAmount":{"details":"The amount of $GENIE a person has to hold to get the discount"},"feePercentage":{"details":"the fee percentage in basis points"},"feeRecipient":{"details":"the address of the fee recipient"},"genieToken":{"details":"The address of the genie token"},"initialSupply":{"details":"initial number of tokens which will be minted during initialization"},"isSwapEnabled":{"details":"The flag for whether swapping is enabled and trading open"},"lpEthFeePercentage":{"details":"the percent of eth taken when liquidity is open"},"maxTaxSwap":{"details":"max amount of tokens the contract can accrue before swapping them for ETH"},"maxTokenAmountPerAddress":{"details":"max amount of tokens allowed per wallet"},"tokenConfig":{"details":"features of the token"},"treasuryFeePercentage":{"details":"the royalty fee percentage taken on transfers"},"uniswapV2Pair":{"details":"The address of the LP token. The contract uses the LP token to determine if a transfer is a buy or sell"}},"title":"CoinGenieERC20","version":1},"evm":{"bytecode":{"linkReferences":{},"object":"60e06040523462000062576200002e62000018620002fe565b9a999099989198979297969396959495620004e9565b604051612b8b62000c5b823960805181610595015260a0518161063f015260c051818181610a9b015261270d0152612b8b90f35b600080fd5b634e487b7160e01b600052604160045260246000fd5b90601f01601f191681019081106001600160401b038211176200009f57604052565b62000067565b90620000bc620000b460405190565b92836200007d565b565b6001600160401b0381116200009f57602090601f01601f19160190565b60005b838110620000ef5750506000910152565b8181015183820152602001620000de565b90929192620001196200011382620000be565b620000a5565b938185526020850190828401116200006257620000bc92620000db565b9080601f8301121562000062578151620001539260200162000100565b90565b805b036200006257565b90505190620000bc8262000156565b6001600160a01b031690565b6001600160a01b03811662000158565b90505190620000bc826200017b565b80151562000158565b90505190620000bc826200019a565b919091606081840312620000625762000202620001d06060620000a5565b936000620001df8285620001a3565b908601526020620001f382828601620001a3565b908601526040809301620001a3565b90830152565b90916101c082840312620000625781516001600160401b0381116200006257836200023591840162000136565b60208301519093906001600160401b0381116200006257816200025a91850162000136565b926200026a826040830162000160565b926200027a83606084016200018b565b926200028a8160808501620001b2565b926200029a8260e0830162000160565b92620002ab83610100840162000160565b92620002bc81610120850162000160565b92620002cd8261014083016200018b565b9262000153620002e28461016085016200018b565b93620002f381610180860162000160565b936101a00162000160565b62000321620037e6803803806200031581620000a5565b92833981019062000208565b909192939495969798999a9b565b90600019905b9181191691161790565b6200015362000153620001539290565b9062000363620001536200036b926200033f565b82546200032f565b9055565b6200037f62000153620001539290565b60ff1690565b620001536107d06200033f565b9060ff9062000335565b90620003af620001536200036b92151590565b825462000392565b9061ff009060081b62000335565b90620003d8620001536200036b92151590565b8254620003b7565b9062ff00009060101b62000335565b9062000402620001536200036b92151590565b8254620003e0565b620000bc916200044d906040906200042d620004268251151590565b856200039c565b620004466200043f6020830151151590565b85620003c5565b0151151590565b90620003ef565b90620000bc916200040a565b906001600160a01b039062000335565b62000153906200016f906001600160a01b031682565b620001539062000470565b620001539062000486565b90620004b0620001536200036b9262000491565b825462000460565b90620004c49062000491565b600052602052604060002090565b62000153906200016f565b620001539054620004d2565b90620004fd919c9b939a9892999c620006fe565b6200051469d3c21bcecceda100000060076200034f565b62000522601960106200034f565b6200053d6032620005358160126200034f565b60136200034f565b620005488962000c41565b8760a0526200055860126200036f565b60805260c0526200056862000385565b808711620006c957604083015162000651575b5050620005db9493620005b8620005d394620005b0620000bc9b9c95620005a8620005c096600c62000454565b60096200034f565b600a6200034f565b600b6200034f565b620005cb8162000c41565b600d6200049c565b600f6200034f565b620005e760006200033f565b81036200063e575b506200061e6001916200062b836200061e60159362000624836200061e620006173062000491565b88620004b8565b6200039c565b84620004b8565b62000637600d620004dd565b90620004b8565b6200064a908262000ab7565b38620005ef565b81116200069c5793620005b8620005d394620005b0620000bc9b9c95620005a8620005c09662000688620005db9c9b60116200034f565b965050959c9b50509450819596506200057b565b620006c590620006ab60405190565b6305dba32960e51b81529182916004830190815260200190565b0390fd5b620006c587620006d860405190565b6365a0074b60e11b81529182916004830190815260200190565b6200015360016200033f565b906200070a9162000720565b620000bc62000718620006f2565b60066200034f565b906200072c9162000737565b620000bc33620009ad565b620000bc91620007479162000755565b620000bc600060056200039c565b90620000bc9162000949565b634e487b7160e01b600052602260045260246000fd5b90600160028304921680156200079a575b60208310146200079457565b62000761565b91607f169162000788565b9160001960089290920291821b911b62000335565b9190620007cf620001536200036b936200033f565b908354620007a5565b620000bc91600091620007ba565b818110620007f2575050565b80620008026000600193620007d8565b01620007e6565b9190601f81116200081957505050565b6200082d620000bc93600052602060002090565b906020601f84018190048301931062000851575b6020601f909101040190620007e6565b909150819062000841565b9062000866815190565b906001600160401b0382116200009f576200088e8262000887855462000777565b8562000809565b602090601f8311600114620008cd576200036b929160009183620008c1575b5050600019600883021c1916906002021790565b015190503880620008ad565b601f19831691620008e385600052602060002090565b9260005b81811062000924575091600293918560019694106200090a575b50505002019055565b01516000196008601f8516021c1916905538808062000901565b91936020600181928787015181550195019201620008e7565b90620000bc916200085c565b906200095b620000bc9260036200093d565b60046200093d565b620001539060081c6200016f565b62000153905462000963565b90610100600160a81b039060081b62000335565b90620009a5620001536200036b9262000491565b82546200097d565b620009b9600562000971565b90620009c781600562000991565b620009fe620009f77f8be0079c531659141344cd1fd0a4f28419497f9722a3daafe3b4186f6b6457e09362000491565b9162000491565b9162000a0960405190565b80805b0390a3565b6200016f62000153620001539290565b620001539062000a11565b1562000a3457565b60405162461bcd60e51b815260206004820152601f60248201527f45524332303a206d696e7420746f20746865207a65726f2061646472657373006044820152606490fd5b620001539081565b62000153905462000a79565b634e487b7160e01b600052601160045260246000fd5b9190820180921162000ab157565b62000a8d565b600062000b3f62000b248362000acd8462000a21565b9362000aee6001600160a01b0386166001600160a01b038416141562000a2c565b62000afb87838762000b92565b62000b1e62000b168862000b10600262000a81565b62000aa3565b60026200034f565b620004b8565b62000b388562000b348362000a81565b0190565b906200034f565b62000a0c62000b7a62000b737fddf252ad1be2c89b69c2b068fc378daa952ba7f163c4a11628f55a4df523b3ef9362000491565b9362000491565b9362000b8560405190565b9182918290815260200190565b90620000bc929162000bff565b1562000ba757565b60405162461bcd60e51b815260206004820152602a60248201527f45524332305061757361626c653a20746f6b656e207472616e736665722077686044820152691a5b19481c185d5cd95960b21b6064820152608490fd5b505050620000bc62000c1862000c1462000c35565b1590565b62000b9f565b62000153906200037f565b62000153905462000c1e565b62000153600562000c29565b60601b1562000c4c57565b63d92e233d6000526004601cfdfe6080604052600436101561001257600080fd5b60003560e01c806302252c4d1461033257806306fdde031461032d578063095ea7b31461032857806312d75f131461032357806318160ddd1461031e57806323b872dd14610319578063313ce567146103145780633381e7e21461030f578063351a964d1461030a578063378dc3dc1461030557806339509351146103005780633af32abf146102fb5780633f4ba83a146102f657806342966c68146102f157806346904840146102ec57806349bd5a5e146102e75780634c09f37c146102e257806351bc3c85146102dd5780635c975abb146102d857806362997f8c146102d357806370a08231146102ce578063715018a6146102c957806379cc6790146102c45780638456cb59146102bf57806384c5dd01146102ba578063883356d9146102b55780638da5cb5b146102b05780638e8c10a2146102ab57806395d89b41146102a657806399735fd8146102a1578063a001ecdd1461029c578063a09a160114610297578063a457c2d714610292578063a82ed9ec1461028d578063a9059cbb14610288578063b9d0f1af14610283578063ba9341c01461027e578063c68ff0fe14610279578063d163364914610274578063d1ed0a0f1461026f578063d48e41271461026a578063d8f6785114610265578063dcc79cc814610260578063dd62ed3e1461025b578063e08973ce14610256578063ec57459c14610251578063f01f20df1461024c578063f19c4e3b14610247578063f2fde38b146102425763f69cf7830361033757610c38565b610c20565b610c07565b610bec565b610bc5565b610b9e565b610b76565b610b3b565b610b23565b610b08565b610ae1565b610abf565b610a86565b610a4a565b6109d2565b6109b6565b61098f565b61090f565b6108f4565b6108d9565b6108b2565b61088b565b610870565b610855565b61083a565b61081f565b6107fb565b6107e2565b6107ca565b6107af565b610794565b61076d565b610755565b61073a565b6106fd565b6106d6565b6106b2565b61069a565b61067f565b610663565b61062a565b61060f565b6105d2565b610580565b610564565b610508565b6104d2565b610479565b610403565b61036b565b600080fd5b805b0361033757565b905035906103528261033c565b565b906020828203126103375761036891610345565b90565b346103375761038361037e366004610354565b6113d4565b604051005b0390f35b600091031261033757565b60005b8381106103aa5750506000910152565b818101518382015260200161039a565b6103db6103e46020936103ee936103cf815190565b80835293849260200190565b95869101610397565b601f01601f191690565b0190565b6020808252610368929101906103ba565b346103375761041336600461038c565b61038861041e610f96565b604051918291826103f2565b6001600160a01b031690565b6001600160a01b03811661033e565b9050359061035282610436565b9190604083820312610337576103689061046c8185610445565b93602001610345565b9052565b346103375761038861049561048f366004610452565b90611019565b60405191829182901515815260200190565b610368916008021c6001600160a01b031690565b9061036891546104a7565b610368600060086104bb565b34610337576104e236600461038c565b6103886104ed6104c6565b6040515b918291826001600160a01b03909116815260200190565b346103375761051836600461038c565b610388610523610fbb565b6040515b9182918290815260200190565b90916060828403126103375761036861054d8484610445565b9361055b8160208601610445565b93604001610345565b346103375761038861049561057a366004610534565b91611913565b346103375761059036600461038c565b6040517f000000000000000000000000000000000000000000000000000000000000000060ff168152602090f35b906020828203126103375761036891610445565b34610337576103836105e53660046105be565b6112d5565b610368916008021c5b60ff1690565b9061036891546105ea565b6103686014806105f9565b346103375761061f36600461038c565b610388610495610604565b346103375761063a36600461038c565b6103887f0000000000000000000000000000000000000000000000000000000000000000610523565b3461033757610388610495610679366004610452565b90611051565b34610337576103886104956106953660046105be565b611276565b34610337576106aa36600461038c565b610383611c57565b34610337576103836106c5366004610354565b6119f8565b6103686000600d6104bb565b34610337576106e636600461038c565b6103886104ed6106ca565b610368600060146104bb565b346103375761070d36600461038c565b6103886104ed6106f1565b610368916008021c81565b906103689154610718565b61036860006012610723565b346103375761074a36600461038c565b61038861052361072e565b346103375761076536600461038c565b61038361254e565b346103375761077d36600461038c565b610388610495610e57565b6103686000600a610723565b34610337576107a436600461038c565b610388610523610788565b34610337576103886105236107c53660046105be565b610fdd565b34610337576107da36600461038c565b610383610ca8565b34610337576103836107f5366004610452565b90611b68565b346103375761080b36600461038c565b610383611bb5565b6103686000600b610723565b346103375761082f36600461038c565b610388610523610813565b346103375761084a36600461038c565b61038861049561126c565b346103375761086536600461038c565b6103886104ed610c66565b346103375761088036600461038c565b610388610495611292565b346103375761089b36600461038c565b61038861041e610fa0565b6103686000600e6104bb565b34610337576108c236600461038c565b6103886104ed6108a6565b6103686000600f610723565b34610337576108e936600461038c565b6103886105236108cd565b346103375761090436600461038c565b610388610495611262565b3461033757610388610495610925366004610452565b906110ca565b6103689061042a906001600160a01b031682565b6103689061092b565b6103689061093f565b610368737a250d5630b4cf539739df2c5dacb4c659f2488d610948565b610368610951565b61047590610948565b6020810192916103529190610976565b346103375761099f36600461038c565b6103886109aa61096e565b6040519182918261097f565b34610337576103886104956109cc366004610452565b90611633565b34610337576103836109e5366004610354565b611328565b610368906105f3565b61036890546109ea565b6103689060081c6105f3565b61036890546109fd565b6103689060101c6105f3565b6103689054610a13565b600c610a34816109f3565b916103686000610a4384610a09565b9301610a1f565b3461033757610a5a36600461038c565b610388610a65610a29565b60408051931515845291151560208401521515908201529081906060820190565b3461033757610a9636600461038c565b6103887f00000000000000000000000000000000000000000000000000000000000000006104ed565b6103886109aa610ad0366004610354565b61236a565b61036860006010610723565b3461033757610af136600461038c565b610388610523610ad5565b61036860006009610723565b3461033757610b1836600461038c565b610388610523610afc565b3461033757610383610b36366004610354565b611598565b3461033757610383610b4e3660046105be565b6124a1565b91906040838203126103375761036890610b6d8185610445565b93602001610445565b3461033757610388610523610b8c366004610b53565b90610ff9565b61036860006013610723565b3461033757610bae36600461038c565b610388610523610b92565b61036860006007610723565b3461033757610bd536600461038c565b610388610523610bb9565b61036860006011610723565b3461033757610bfc36600461038c565b610388610523610be0565b3461033757610383610c1a366004610452565b906114e8565b3461033757610383610c333660046105be565b610dbf565b3461033757610383610c4b366004610354565b611348565b6103689060081c61042a565b6103689054610c50565b6103686005610c5c565b610c78610d04565b610352610c96565b61042a6103686103689290565b61036890610c80565b610352610ca36000610c8d565b610dfc565b610352610c70565b15610cb757565b60405162461bcd60e51b815280610d00600482016020808252818101527f4f776e61626c653a2063616c6c6572206973206e6f7420746865206f776e6572604082015260600190565b0390fd5b610352610d0f610c66565b610d28610d1b3361042a565b916001600160a01b031690565b14610cb0565b61035290610d3a610d04565b610d9a565b15610d4657565b60405162461bcd60e51b815260206004820152602660248201527f4f776e61626c653a206e6577206f776e657220697320746865207a65726f206160448201526564647265737360d01b6064820152608490fd5b61035290610ca3610dae61042a6000610c8d565b6001600160a01b0383161415610d3f565b61035290610d2e565b90610100600160a81b039060081b5b9181191691161790565b90610df1610368610df892610948565b8254610dc8565b9055565b610e066005610c5c565b90610e12816005610de1565b610e45610e3f7f8be0079c531659141344cd1fd0a4f28419497f9722a3daafe3b4186f6b6457e093610948565b91610948565b91610e4f60405190565b80805b0390a3565b61036860056109f3565b634e487b7160e01b600052602260045260246000fd5b9060016002830492168015610e97575b6020831014610e9257565b610e61565b91607f1691610e87565b80546000939291610ebe610eb483610e77565b8085529360200190565b9160018116908115610f105750600114610ed757505050565b610eea9192939450600052602060002090565b916000925b818410610efc5750500190565b805484840152602090930192600101610eef565b92949550505060ff1916825215156020020190565b9061036891610ea1565b634e487b7160e01b600052604160045260246000fd5b90601f01601f1916810190811067ffffffffffffffff821117610f6757604052565b610f2f565b90610352610f8692610f7d60405190565b93848092610f25565b0383610f45565b61036890610f6c565b6103686003610f8d565b6103686004610f8d565b6103689081565b6103689054610faa565b6103686002610fb1565b90610fcf90610948565b600052602052604060002090565b610ff461036891610fec600090565b506000610fc5565b610fb1565b61036891611014610ff49261100c600090565b506001610fc5565b610fc5565b6110249190336111cb565b600190565b634e487b7160e01b600052601160045260246000fd5b9190820180921161104c57565b611029565b611024919061106a33926110658385610ff9565b61103f565b916111cb565b1561107757565b60405162461bcd60e51b815260206004820152602560248201527f45524332303a2064656372656173656420616c6c6f77616e63652062656c6f77604482015264207a65726f60d81b6064820152608490fd5b611024919061106a33926110de8385610ff9565b6110ea82821015611070565b0390565b156110f557565b60405162461bcd60e51b8152602060048201526024808201527f45524332303a20617070726f76652066726f6d20746865207a65726f206164646044820152637265737360e01b6064820152608490fd5b1561114d57565b60405162461bcd60e51b815260206004820152602260248201527f45524332303a20617070726f766520746f20746865207a65726f206164647265604482015261737360f01b6064820152608490fd5b9060001990610dd7565b6103686103686103689290565b906111c4610368610df8926111a7565b825461119d565b61120a6111f96111db6000610c8d565b61042a6001600160a01b0382166001600160a01b03861614156110ee565b6001600160a01b0384161415611146565b6112228361121d84611014856001610fc5565b6111b4565b610e526112586112527f8c5be1e5ebec7d5bd14f71427d1e84f3dd0314c0f7b2291e5b200ac8c7c3b92593610948565b93610948565b9361052760405190565b610368600c610a09565b610368600c6109f3565b61128d61036891611285600090565b506015610fc5565b6109f3565b610368600c610a1f565b6103689061042a565b610368905461129c565b906001600160a01b0390610dd7565b906112ce610368610df892610948565b82546112af565b6112df600e6112a5565b6112ef610d1b61042a6000610c8d565b036112ff5761035290600e6112be565b60405163131d002d60e01b8152600490fd5b6103529061131d610d04565b61035290600a6111b4565b61035290611311565b6103529061133d610d04565b61035290600b6111b4565b61035290611331565b6103529061135d610d04565b6103529061136961141c565b6113766103686009610fb1565b8111156113c2576113888160096111b4565b6113b27faab136b9dbe20468ab36dcd11abd26b3dcea2b259f018136905bf827f37f5514916111a7565b906113bc60405190565b600090a2565b60405163521e96bb60e11b8152600490fd5b61035290611351565b156113e457565b60405162461bcd60e51b815260206004820152601060248201526f14185d5cd8589b194e881c185d5cd95960821b6044820152606490fd5b61035261142e61142a610e57565b1590565b6113dd565b9061035291611440610d04565b906103529161144d61141c565b61145d565b6103686107d06111a7565b90611469610368611452565b81116114c15761147882612b3d565b61148382600d6112be565b61148e81600f6111b4565b610e456114bb7fe42708d93b95810922305119a3271ca42233da9ebe1e1e503f0e887817a32c7a93610948565b916111a7565b610d00906114ce60405190565b6365a0074b60e11b81529182916004830190815260200190565b9061035291611433565b610352906114fe610d04565b6103529061150a61141c565b61151561142a611292565b61158657611524610368611452565b811161155f576115358160116111b4565b6113b27f8c3208fa4fab043d09d9517339346757a58804a46f954585ba21465677820817916111a7565b610d009061156c60405190565b6305dba32960e51b81529182916004830190815260200190565b6040516319b3ca5360e31b8152600490fd5b610352906114f2565b9061036892916115af61141c565b6115ca565b6103689060a01c6105f3565b61036890546115b4565b50336115d660146115c0565b8061161c575b80611605575b6115f15750906103689161163f565b61036892826115ff9261256c565b9061163f565b5061161761142a61128d846015610fc5565b6115e2565b5061162e61142a61128d836015610fc5565b6115dc565b610368919060006115a1565b61102491903361175c565b61175c565b1561165657565b60405162461bcd60e51b815260206004820152602560248201527f45524332303a207472616e736665722066726f6d20746865207a65726f206164604482015264647265737360d81b6064820152608490fd5b156116b057565b60405162461bcd60e51b815260206004820152602360248201527f45524332303a207472616e7366657220746f20746865207a65726f206164647260448201526265737360e81b6064820152608490fd5b1561170857565b60405162461bcd60e51b815260206004820152602660248201527f45524332303a207472616e7366657220616d6f756e7420657863656564732062604482015265616c616e636560d01b6064820152608490fd5b6117eb6117d88360006117a361179261177483610c8d565b61042a6001600160a01b0382166001600160a01b038a16141561164f565b6001600160a01b03841614156116a9565b6117ae87838761181b565b6110146117ce886117c2610ff48986610fc5565b6110ea82821015611701565b61121d8784610fc5565b6117e5856103ee83610fb1565b906111b4565b610e526112586112527fddf252ad1be2c89b69c2b068fc378daa952ba7f163c4a11628f55a4df523b3ef93610948565b906103529291611885565b1561182d57565b60405162461bcd60e51b815260206004820152602a60248201527f45524332305061757361626c653a20746f6b656e207472616e736665722077686044820152691a5b19481c185d5cd95960b21b6064820152608490fd5b50505061035261189661142a610e57565b611826565b906103689392916118aa61141c565b5091906118b760146115c0565b806118fc575b806118e5575b6118d05761036892611920565b6118df8392826103689561256c565b91611920565b506118f761142a61128d836015610fc5565b6118c3565b5061190e61142a61128d856015610fc5565b6118bd565b610368929190600061189b565b61102492919061164a83335b8361197e565b1561193957565b60405162461bcd60e51b815260206004820152601d60248201527f45524332303a20696e73756666696369656e7420616c6c6f77616e63650000006044820152606490fd5b906119898183610ff9565b6000198103611999575b50505050565b6119ad9361106a916110ea82821015611932565b38808080611993565b610352906119c2610d04565b610352906119ce61141c565b6119d961142a61126c565b6119e65761035290611a01565b604051636cb5913960e01b8152600490fd5b610352906119b6565b6103529033611abd565b611abd565b15611a1757565b60405162461bcd60e51b815260206004820152602160248201527f45524332303a206275726e2066726f6d20746865207a65726f206164647265736044820152607360f81b6064820152608490fd5b15611a6d57565b60405162461bcd60e51b815260206004820152602260248201527f45524332303a206275726e20616d6f756e7420657863656564732062616c616e604482015261636560f01b6064820152608490fd5b600090611b1d611acc83610c8d565b92611aeb6001600160a01b0385166001600160a01b0385161415611a10565b611af685858561181b565b61121d83611b1787611b0b610ff48487610fc5565b6110ea82821015611a66565b92610fc5565b6117eb611b2e846110ea6002610fb1565b60026111b4565b9061035291611b42610d04565b9061035291611b4f61141c565b90611b5b61142a61126c565b6119e65761035291611b72565b9061035291611b35565b6103529190611a0b823361192c565b611b89610d04565b610352611b9761142a611262565b611ba357610352611c2d565b60405163f00085b960e01b8152600490fd5b610352611b81565b611bc561141c565b610352611bed565b9060ff90610dd7565b90611be6610368610df892151590565b8254611bcd565b611bf960016005611bd6565b33611c287f62e78cea01bee320cd4e420270b5ea74000d11b0c9f74754ebdbfc544b05a258916104f160405190565b0390a1565b610352611bbd565b611c3d610d04565b610352611c4b61142a611262565b611ba357610352611ca5565b610352611c35565b611c67611cf0565b610352611c7660006005611bd6565b33611c287f5db9ee0a495bf2e6ff9c91a7834c1ba4fdd244a5e8aa4e537bd38aeae4b073aa916104f160405190565b610352611c5f565b15611cb457565b60405162461bcd60e51b815260206004820152601460248201527314185d5cd8589b194e881b9bdd081c185d5cd95960621b6044820152606490fd5b610352611cfb610e57565b611cad565b9061036891611d0d610d04565b90611d1f91611d1a6123cb565b611ebd565b906103526123fd565b610368670de0b6b3a76400006111a7565b9081526040810192916103529160200152565b0152565b6103686706f05b59d3b200006111a7565b905051906103528261033c565b906020828203126103375761036891611d61565b6040513d6000823e3d90fd5b6103686127106111a7565b9050519061035282610436565b906020828203126103375761036891611d99565b80151561033e565b9050519061035282611dba565b906020828203126103375761036891611dc2565b6001600160a01b0390911681526040810192916103529160200152565b909160608284031261033757610368611e198484611d61565b93611e278160208601611d61565b93604001611d61565b610475906111a7565b9194611e87611d4c92989795611e7d60a096611e736103529a611e6c60c08a019e60008b01906001600160a01b03169052565b6020890152565b6040870190611e30565b6060850190611e30565b6001600160a01b03166080830152565b9060ff60a01b9060a01b610dd7565b90611eb6610368610df892151590565b8254611e97565b5034611ec960146115c0565b61235857611ed5611d28565b8083108015612345575b6123225750611eec611d50565b8082106123005750611f3b90611f0b611f0430610948565b9384611633565b506020611f23611f1e611f1e60086112a5565b610948565b6370a0823190611f3260405190565b94859260e01b90565b82526001600160a01b038616600483015260249082905afa9182156121df576000926122d0575b50611f87611f79611f736013610fb1565b83612432565b611f81611d8e565b90612461565b91611f9c611f986103686007610fb1565b9190565b116122b9575b81611fac91612415565b611fb7611f1e610951565b92611fca611fc3610fbb565b85836111cb565b63c45a0155611fe2611fdb60405190565b9160e01b90565b8152602081600481885afa9081156121df5761200a91611f1e9160009161229b575b50610948565b9063c9c653969163ad5c46489061202a61202360405190565b9260e01b90565b82526020826004818a5afa9081156121df5761208794602093600093612275575b5060006120689161205b60405190565b9788958694859360e01b90565b83526001600160a01b03808a1660048501521660248301526044820190565b03925af19182156121df576120df926120aa91600091612247575b5060146112be565b60206120bc611f1e611f1e60146112a5565b63095ea7b3906120d3600080199361205b60405190565b83528c60048401611de3565b03925af19182156121df5760609261221b575b5063f305d7199461212e61210583610fdd565b94600097612139612114610c66565b42908b8061212160405190565b9b8c9a8b998a9860e01b90565b885260048801611e39565b03925af180156121df576121ed575b5061215560016014611ea6565b61215e826111a7565b81116121b6575b505061217160146112a5565b61219b7f57a9f98b233034883786b9c47f1f6fabcf1655e39d3213b7287b926ca387136e91610948565b906121a560405190565b600090a2610368611f1e60146112a5565b818080926121ca611f1e611f1e600e6112a5565b8282156121e4575bf1156121df573880612165565b611d82565b506108fc6121d2565b61220d9060603d8111612214575b6122058183610f45565b810190611e00565b5050612148565b503d6121fb565b61223b9060203d8111612240575b6122338183610f45565b810190611dcf565b6120f2565b503d612229565b612268915060203d811161226e575b6122608183610f45565b810190611da6565b386120a2565b503d612256565b612068919350612293600091863d811161226e576122608183610f45565b93915061204b565b6122b3915060203d811161226e576122608183610f45565b38612004565b9050611fac6122c860006111a7565b919050611fa2565b6122f291925060203d81116122f9575b6122ea8183610f45565b810190611d6e565b9038611f62565b503d6122e0565b90610d0061230d60405190565b62fdf57560e51b815292839260048401611d39565b82610d0061232f60405190565b63c7bcc1b960e01b815292839260048401611d39565b506123516107c5610c66565b8311611edf565b60405163250856ab60e21b8152600490fd5b610368906000611d00565b61036860026111a7565b1561238657565b60405162461bcd60e51b815260206004820152601f60248201527f5265656e7472616e637947756172643a207265656e7472616e742063616c6c006044820152606490fd5b6103526123d86006610fb1565b6123ec6123e3612375565b9182141561237f565b60066111b4565b61036860016111a7565b6103526123ec6123f3565b9190820391821161104c57565b6103689190612408565b8181029291811591840414171561104c57565b610368919061241f565b634e487b7160e01b600052601260045260246000fd5b811561245c570490565b61243c565b6103689190612452565b61035290612477610d04565b61248160086112a5565b612491610d1b61042a6000610c8d565b036112ff576103529060086112be565b6103529061246b565b6124b26123cb565b6124ba6124c2565b6103526123fd565b6124cb30610948565b6124d481610fdd565b906000916124e1836111a7565b811161252c575b50316124f7610368600b610fb1565b8111612501575050565b81808092612513611f1e611f1e610c66565b828215612523575bf1156121df57565b506108fc61251b565b6125436125489161253d600a610fb1565b90612b2b565b612b22565b386124e8565b6103526124aa565b6103689060a81c6105f3565b6103689054612556565b6125929392918491612592612597612583866127c7565b9482829c8588969b959c612408565b612408565b9485976125a761042a60146112a5565b6001600160a01b03851614806127a7575b80612783575b612752576000956125ce876111a7565b8103612738575b506125df866111a7565b8103612707575b506125f0856111a7565b81036126ed575b50612601846111a7565b81036126dd575b505061261330610948565b9061261d82610fdd565b9061262b61142a6014612562565b90816126c4575b50806126af575b6126435750505050565b6126689192939495506126626125439161265d600a610fb1565b612b2b565b85612b2b565b31612676610368600b610fb1565b811161268157505090565b81808092612695611f1e611f1e600d6112a5565b8282156126a6575bf1156121df5790565b506108fc61269d565b506126bd610368600a610fb1565b8111612639565b90506126d6610d1b61042a60146112a5565b1438612632565b6126e691611abd565b3880612608565b612701906126fb600d6112a5565b8461175c565b386125f7565b612732907f00000000000000000000000000000000000000000000000000000000000000008561175c565b386125e6565b61274c90612746600e6112a5565b8661175c565b386125d5565b610d008561275f60405190565b63f6202a8f60e01b8152918291600483016001600160a01b03909116815260200190565b506127918761106587610fdd565b6127a1611f986103686009610fb1565b116125be565b506127b661042a611f1e610951565b6001600160a01b03861614156125b8565b6000906127dd6127d76012610fb1565b8261241f565b916127f06127e9611d8e565b8094612452565b9361280d84612808612802600f610fb1565b8661241f565b612452565b936128258161280861281f6010610fb1565b8761241f565b9361282e611292565b612836575050565b6103689293506128089061284a6011610fb1565b9061241f565b6124ba9061285c6123cb565b612887565b9060ff60a81b9060a81b610dd7565b90612880610368610df892151590565b8254612861565b61289c9061289760016014612870565b6129f4565b61035260006014612870565b906103526128b560405190565b9283610f45565b67ffffffffffffffff8111610f675760208091020190565b906128e66128e1836128bc565b6128a8565b918252565b369037565b90610352612906612900846128d4565b936128bc565b601f1901602084016128eb565b634e487b7160e01b600052603260045260246000fd5b90612932825190565b811015612943576020809102010190565b612913565b90612968612961612957845190565b8084529260200190565b9260200190565b9060005b8181106129795750505090565b90919261299f61299860019286516001600160a01b0316815260200190565b9460200190565b92910161296c565b906129e2611d4c91610352969897956129d56080966129cb60a08801946000890152565b6020870190611e30565b8482036040860152612948565b6001600160a01b039097166060830152565b612a06612a0160026111a7565b6128f0565b612a0f30610948565b90600092612a3783612a29612a23876111a7565b85612929565b906001600160a01b03169052565b612a42611f1e610951565b63ad5c4648612a53611fdb60405190565b8152602081600481855afa80156121df57612a83918791612b04575b50612a29612a7d60016111a7565b86612929565b612a8e8282866111cb565b63791ac947934290823b15610337578695612acc612ac1938897938894612ab460405190565b9a8b998a98899760e01b90565b8752600487016129a7565b03925af180156121df57612ade575050565b8161035292903d10612afd575b612af58183610f45565b81019061038c565b503d612aeb565b612b1c915060203d811161226e576122608183610f45565b38612a6f565b61035290612850565b9080821015612b38575090565b905090565b60601b15612b4757565b63d92e233d6000526004601cfdfea264697066735822122000f7c3f5e88eef6b6a202c331cbfe0872536155bfbb28517d245c5e1a27e130364736f6c63430008140033","opcodes":"PUSH1 0xE0 PUSH1 0x40 MSTORE CALLVALUE PUSH3 0x62 JUMPI PUSH3 0x2E PUSH3 0x18 PUSH3 0x2FE JUMP JUMPDEST SWAP11 SWAP10 SWAP1 SWAP10 SWAP9 SWAP2 SWAP9 SWAP8 SWAP3 SWAP8 SWAP7 SWAP4 SWAP7 SWAP6 SWAP5 SWAP6 PUSH3 0x4E9 JUMP JUMPDEST PUSH1 0x40 MLOAD PUSH2 0x2B8B PUSH3 0xC5B DUP3 CODECOPY PUSH1 0x80 MLOAD DUP2 PUSH2 0x595 ADD MSTORE PUSH1 0xA0 MLOAD DUP2 PUSH2 0x63F ADD MSTORE PUSH1 0xC0 MLOAD DUP2 DUP2 DUP2 PUSH2 0xA9B ADD MSTORE PUSH2 0x270D ADD MSTORE PUSH2 0x2B8B SWAP1 RETURN JUMPDEST PUSH1 0x0 DUP1 REVERT JUMPDEST PUSH4 0x4E487B71 PUSH1 0xE0 SHL PUSH1 0x0 MSTORE PUSH1 0x41 PUSH1 0x4 MSTORE PUSH1 0x24 PUSH1 0x0 REVERT JUMPDEST SWAP1 PUSH1 0x1F ADD PUSH1 0x1F NOT AND DUP2 ADD SWAP1 DUP2 LT PUSH1 0x1 PUSH1 0x1 PUSH1 0x40 SHL SUB DUP3 GT OR PUSH3 0x9F JUMPI PUSH1 0x40 MSTORE JUMP JUMPDEST PUSH3 0x67 JUMP JUMPDEST SWAP1 PUSH3 0xBC PUSH3 0xB4 PUSH1 0x40 MLOAD SWAP1 JUMP JUMPDEST SWAP3 DUP4 PUSH3 0x7D JUMP JUMPDEST JUMP JUMPDEST PUSH1 0x1 PUSH1 0x1 PUSH1 0x40 SHL SUB DUP2 GT PUSH3 0x9F JUMPI PUSH1 0x20 SWAP1 PUSH1 0x1F ADD PUSH1 0x1F NOT AND ADD SWAP1 JUMP JUMPDEST PUSH1 0x0 JUMPDEST DUP4 DUP2 LT PUSH3 0xEF JUMPI POP POP PUSH1 0x0 SWAP2 ADD MSTORE JUMP JUMPDEST DUP2 DUP2 ADD MLOAD DUP4 DUP3 ADD MSTORE PUSH1 0x20 ADD PUSH3 0xDE JUMP JUMPDEST SWAP1 SWAP3 SWAP2 SWAP3 PUSH3 0x119 PUSH3 0x113 DUP3 PUSH3 0xBE JUMP JUMPDEST PUSH3 0xA5 JUMP JUMPDEST SWAP4 DUP2 DUP6 MSTORE PUSH1 0x20 DUP6 ADD SWAP1 DUP3 DUP5 ADD GT PUSH3 0x62 JUMPI PUSH3 0xBC SWAP3 PUSH3 0xDB JUMP JUMPDEST SWAP1 DUP1 PUSH1 0x1F DUP4 ADD SLT ISZERO PUSH3 0x62 JUMPI DUP2 MLOAD PUSH3 0x153 SWAP3 PUSH1 0x20 ADD PUSH3 0x100 JUMP JUMPDEST SWAP1 JUMP JUMPDEST DUP1 JUMPDEST SUB PUSH3 0x62 JUMPI JUMP JUMPDEST SWAP1 POP MLOAD SWAP1 PUSH3 0xBC DUP3 PUSH3 0x156 JUMP JUMPDEST PUSH1 0x1 PUSH1 0x1 PUSH1 0xA0 SHL SUB AND SWAP1 JUMP JUMPDEST PUSH1 0x1 PUSH1 0x1 PUSH1 0xA0 SHL SUB DUP2 AND PUSH3 0x158 JUMP JUMPDEST SWAP1 POP MLOAD SWAP1 PUSH3 0xBC DUP3 PUSH3 0x17B JUMP JUMPDEST DUP1 ISZERO ISZERO PUSH3 0x158 JUMP JUMPDEST SWAP1 POP MLOAD SWAP1 PUSH3 0xBC DUP3 PUSH3 0x19A JUMP JUMPDEST SWAP2 SWAP1 SWAP2 PUSH1 0x60 DUP2 DUP5 SUB SLT PUSH3 0x62 JUMPI PUSH3 0x202 PUSH3 0x1D0 PUSH1 0x60 PUSH3 0xA5 JUMP JUMPDEST SWAP4 PUSH1 0x0 PUSH3 0x1DF DUP3 DUP6 PUSH3 0x1A3 JUMP JUMPDEST SWAP1 DUP7 ADD MSTORE PUSH1 0x20 PUSH3 0x1F3 DUP3 DUP3 DUP7 ADD PUSH3 0x1A3 JUMP JUMPDEST SWAP1 DUP7 ADD MSTORE PUSH1 0x40 DUP1 SWAP4 ADD PUSH3 0x1A3 JUMP JUMPDEST SWAP1 DUP4 ADD MSTORE JUMP JUMPDEST SWAP1 SWAP2 PUSH2 0x1C0 DUP3 DUP5 SUB SLT PUSH3 0x62 JUMPI DUP2 MLOAD PUSH1 0x1 PUSH1 0x1 PUSH1 0x40 SHL SUB DUP2 GT PUSH3 0x62 JUMPI DUP4 PUSH3 0x235 SWAP2 DUP5 ADD PUSH3 0x136 JUMP JUMPDEST PUSH1 0x20 DUP4 ADD MLOAD SWAP1 SWAP4 SWAP1 PUSH1 0x1 PUSH1 0x1 PUSH1 0x40 SHL SUB DUP2 GT PUSH3 0x62 JUMPI DUP2 PUSH3 0x25A SWAP2 DUP6 ADD PUSH3 0x136 JUMP JUMPDEST SWAP3 PUSH3 0x26A DUP3 PUSH1 0x40 DUP4 ADD PUSH3 0x160 JUMP JUMPDEST SWAP3 PUSH3 0x27A DUP4 PUSH1 0x60 DUP5 ADD PUSH3 0x18B JUMP JUMPDEST SWAP3 PUSH3 0x28A DUP2 PUSH1 0x80 DUP6 ADD PUSH3 0x1B2 JUMP JUMPDEST SWAP3 PUSH3 0x29A DUP3 PUSH1 0xE0 DUP4 ADD PUSH3 0x160 JUMP JUMPDEST SWAP3 PUSH3 0x2AB DUP4 PUSH2 0x100 DUP5 ADD PUSH3 0x160 JUMP JUMPDEST SWAP3 PUSH3 0x2BC DUP2 PUSH2 0x120 DUP6 ADD PUSH3 0x160 JUMP JUMPDEST SWAP3 PUSH3 0x2CD DUP3 PUSH2 0x140 DUP4 ADD PUSH3 0x18B JUMP JUMPDEST SWAP3 PUSH3 0x153 PUSH3 0x2E2 DUP5 PUSH2 0x160 DUP6 ADD PUSH3 0x18B JUMP JUMPDEST SWAP4 PUSH3 0x2F3 DUP2 PUSH2 0x180 DUP7 ADD PUSH3 0x160 JUMP JUMPDEST SWAP4 PUSH2 0x1A0 ADD PUSH3 0x160 JUMP JUMPDEST PUSH3 0x321 PUSH3 0x37E6 DUP1 CODESIZE SUB DUP1 PUSH3 0x315 DUP2 PUSH3 0xA5 JUMP JUMPDEST SWAP3 DUP4 CODECOPY DUP2 ADD SWAP1 PUSH3 0x208 JUMP JUMPDEST SWAP1 SWAP2 SWAP3 SWAP4 SWAP5 SWAP6 SWAP7 SWAP8 SWAP9 SWAP10 SWAP11 SWAP12 JUMP JUMPDEST SWAP1 PUSH1 0x0 NOT SWAP1 JUMPDEST SWAP2 DUP2 NOT AND SWAP2 AND OR SWAP1 JUMP JUMPDEST PUSH3 0x153 PUSH3 0x153 PUSH3 0x153 SWAP3 SWAP1 JUMP JUMPDEST SWAP1 PUSH3 0x363 PUSH3 0x153 PUSH3 0x36B SWAP3 PUSH3 0x33F JUMP JUMPDEST DUP3 SLOAD PUSH3 0x32F JUMP JUMPDEST SWAP1 SSTORE JUMP JUMPDEST PUSH3 0x37F PUSH3 0x153 PUSH3 0x153 SWAP3 SWAP1 JUMP JUMPDEST PUSH1 0xFF AND SWAP1 JUMP JUMPDEST PUSH3 0x153 PUSH2 0x7D0 PUSH3 0x33F JUMP JUMPDEST SWAP1 PUSH1 0xFF SWAP1 PUSH3 0x335 JUMP JUMPDEST SWAP1 PUSH3 0x3AF PUSH3 0x153 PUSH3 0x36B SWAP3 ISZERO ISZERO SWAP1 JUMP JUMPDEST DUP3 SLOAD PUSH3 0x392 JUMP JUMPDEST SWAP1 PUSH2 0xFF00 SWAP1 PUSH1 0x8 SHL PUSH3 0x335 JUMP JUMPDEST SWAP1 PUSH3 0x3D8 PUSH3 0x153 PUSH3 0x36B SWAP3 ISZERO ISZERO SWAP1 JUMP JUMPDEST DUP3 SLOAD PUSH3 0x3B7 JUMP JUMPDEST SWAP1 PUSH3 0xFF0000 SWAP1 PUSH1 0x10 SHL PUSH3 0x335 JUMP JUMPDEST SWAP1 PUSH3 0x402 PUSH3 0x153 PUSH3 0x36B SWAP3 ISZERO ISZERO SWAP1 JUMP JUMPDEST DUP3 SLOAD PUSH3 0x3E0 JUMP JUMPDEST PUSH3 0xBC SWAP2 PUSH3 0x44D SWAP1 PUSH1 0x40 SWAP1 PUSH3 0x42D PUSH3 0x426 DUP3 MLOAD ISZERO ISZERO SWAP1 JUMP JUMPDEST DUP6 PUSH3 0x39C JUMP JUMPDEST PUSH3 0x446 PUSH3 0x43F PUSH1 0x20 DUP4 ADD MLOAD ISZERO ISZERO SWAP1 JUMP JUMPDEST DUP6 PUSH3 0x3C5 JUMP JUMPDEST ADD MLOAD ISZERO ISZERO SWAP1 JUMP JUMPDEST SWAP1 PUSH3 0x3EF JUMP JUMPDEST SWAP1 PUSH3 0xBC SWAP2 PUSH3 0x40A JUMP JUMPDEST SWAP1 PUSH1 0x1 PUSH1 0x1 PUSH1 0xA0 SHL SUB SWAP1 PUSH3 0x335 JUMP JUMPDEST PUSH3 0x153 SWAP1 PUSH3 0x16F SWAP1 PUSH1 0x1 PUSH1 0x1 PUSH1 0xA0 SHL SUB AND DUP3 JUMP JUMPDEST PUSH3 0x153 SWAP1 PUSH3 0x470 JUMP JUMPDEST PUSH3 0x153 SWAP1 PUSH3 0x486 JUMP JUMPDEST SWAP1 PUSH3 0x4B0 PUSH3 0x153 PUSH3 0x36B SWAP3 PUSH3 0x491 JUMP JUMPDEST DUP3 SLOAD PUSH3 0x460 JUMP JUMPDEST SWAP1 PUSH3 0x4C4 SWAP1 PUSH3 0x491 JUMP JUMPDEST PUSH1 0x0 MSTORE PUSH1 0x20 MSTORE PUSH1 0x40 PUSH1 0x0 KECCAK256 SWAP1 JUMP JUMPDEST PUSH3 0x153 SWAP1 PUSH3 0x16F JUMP JUMPDEST PUSH3 0x153 SWAP1 SLOAD PUSH3 0x4D2 JUMP JUMPDEST SWAP1 PUSH3 0x4FD SWAP2 SWAP13 SWAP12 SWAP4 SWAP11 SWAP9 SWAP3 SWAP10 SWAP13 PUSH3 0x6FE JUMP JUMPDEST PUSH3 0x514 PUSH10 0xD3C21BCECCEDA1000000 PUSH1 0x7 PUSH3 0x34F JUMP JUMPDEST PUSH3 0x522 PUSH1 0x19 PUSH1 0x10 PUSH3 0x34F JUMP JUMPDEST PUSH3 0x53D PUSH1 0x32 PUSH3 0x535 DUP2 PUSH1 0x12 PUSH3 0x34F JUMP JUMPDEST PUSH1 0x13 PUSH3 0x34F JUMP JUMPDEST PUSH3 0x548 DUP10 PUSH3 0xC41 JUMP JUMPDEST DUP8 PUSH1 0xA0 MSTORE PUSH3 0x558 PUSH1 0x12 PUSH3 0x36F JUMP JUMPDEST PUSH1 0x80 MSTORE PUSH1 0xC0 MSTORE PUSH3 0x568 PUSH3 0x385 JUMP JUMPDEST DUP1 DUP8 GT PUSH3 0x6C9 JUMPI PUSH1 0x40 DUP4 ADD MLOAD PUSH3 0x651 JUMPI JUMPDEST POP POP PUSH3 0x5DB SWAP5 SWAP4 PUSH3 0x5B8 PUSH3 0x5D3 SWAP5 PUSH3 0x5B0 PUSH3 0xBC SWAP12 SWAP13 SWAP6 PUSH3 0x5A8 PUSH3 0x5C0 SWAP7 PUSH1 0xC PUSH3 0x454 JUMP JUMPDEST PUSH1 0x9 PUSH3 0x34F JUMP JUMPDEST PUSH1 0xA PUSH3 0x34F JUMP JUMPDEST PUSH1 0xB PUSH3 0x34F JUMP JUMPDEST PUSH3 0x5CB DUP2 PUSH3 0xC41 JUMP JUMPDEST PUSH1 0xD PUSH3 0x49C JUMP JUMPDEST PUSH1 0xF PUSH3 0x34F JUMP JUMPDEST PUSH3 0x5E7 PUSH1 0x0 PUSH3 0x33F JUMP JUMPDEST DUP2 SUB PUSH3 0x63E JUMPI JUMPDEST POP PUSH3 0x61E PUSH1 0x1 SWAP2 PUSH3 0x62B DUP4 PUSH3 0x61E PUSH1 0x15 SWAP4 PUSH3 0x624 DUP4 PUSH3 0x61E PUSH3 0x617 ADDRESS PUSH3 0x491 JUMP JUMPDEST DUP9 PUSH3 0x4B8 JUMP JUMPDEST PUSH3 0x39C JUMP JUMPDEST DUP5 PUSH3 0x4B8 JUMP JUMPDEST PUSH3 0x637 PUSH1 0xD PUSH3 0x4DD JUMP JUMPDEST SWAP1 PUSH3 0x4B8 JUMP JUMPDEST PUSH3 0x64A SWAP1 DUP3 PUSH3 0xAB7 JUMP JUMPDEST CODESIZE PUSH3 0x5EF JUMP JUMPDEST DUP2 GT PUSH3 0x69C JUMPI SWAP4 PUSH3 0x5B8 PUSH3 0x5D3 SWAP5 PUSH3 0x5B0 PUSH3 0xBC SWAP12 SWAP13 SWAP6 PUSH3 0x5A8 PUSH3 0x5C0 SWAP7 PUSH3 0x688 PUSH3 0x5DB SWAP13 SWAP12 PUSH1 0x11 PUSH3 0x34F JUMP JUMPDEST SWAP7 POP POP SWAP6 SWAP13 SWAP12 POP POP SWAP5 POP DUP2 SWAP6 SWAP7 POP PUSH3 0x57B JUMP JUMPDEST PUSH3 0x6C5 SWAP1 PUSH3 0x6AB PUSH1 0x40 MLOAD SWAP1 JUMP JUMPDEST PUSH4 0x5DBA329 PUSH1 0xE5 SHL DUP2 MSTORE SWAP2 DUP3 SWAP2 PUSH1 0x4 DUP4 ADD SWAP1 DUP2 MSTORE PUSH1 0x20 ADD SWAP1 JUMP JUMPDEST SUB SWAP1 REVERT JUMPDEST PUSH3 0x6C5 DUP8 PUSH3 0x6D8 PUSH1 0x40 MLOAD SWAP1 JUMP JUMPDEST PUSH4 0x65A0074B PUSH1 0xE1 SHL DUP2 MSTORE SWAP2 DUP3 SWAP2 PUSH1 0x4 DUP4 ADD SWAP1 DUP2 MSTORE PUSH1 0x20 ADD SWAP1 JUMP JUMPDEST PUSH3 0x153 PUSH1 0x1 PUSH3 0x33F JUMP JUMPDEST SWAP1 PUSH3 0x70A SWAP2 PUSH3 0x720 JUMP JUMPDEST PUSH3 0xBC PUSH3 0x718 PUSH3 0x6F2 JUMP JUMPDEST PUSH1 0x6 PUSH3 0x34F JUMP JUMPDEST SWAP1 PUSH3 0x72C SWAP2 PUSH3 0x737 JUMP JUMPDEST PUSH3 0xBC CALLER PUSH3 0x9AD JUMP JUMPDEST PUSH3 0xBC SWAP2 PUSH3 0x747 SWAP2 PUSH3 0x755 JUMP JUMPDEST PUSH3 0xBC PUSH1 0x0 PUSH1 0x5 PUSH3 0x39C JUMP JUMPDEST SWAP1 PUSH3 0xBC SWAP2 PUSH3 0x949 JUMP JUMPDEST PUSH4 0x4E487B71 PUSH1 0xE0 SHL PUSH1 0x0 MSTORE PUSH1 0x22 PUSH1 0x4 MSTORE PUSH1 0x24 PUSH1 0x0 REVERT JUMPDEST SWAP1 PUSH1 0x1 PUSH1 0x2 DUP4 DIV SWAP3 AND DUP1 ISZERO PUSH3 0x79A JUMPI JUMPDEST PUSH1 0x20 DUP4 LT EQ PUSH3 0x794 JUMPI JUMP JUMPDEST PUSH3 0x761 JUMP JUMPDEST SWAP2 PUSH1 0x7F AND SWAP2 PUSH3 0x788 JUMP JUMPDEST SWAP2 PUSH1 0x0 NOT PUSH1 0x8 SWAP3 SWAP1 SWAP3 MUL SWAP2 DUP3 SHL SWAP2 SHL PUSH3 0x335 JUMP JUMPDEST SWAP2 SWAP1 PUSH3 0x7CF PUSH3 0x153 PUSH3 0x36B SWAP4 PUSH3 0x33F JUMP JUMPDEST SWAP1 DUP4 SLOAD PUSH3 0x7A5 JUMP JUMPDEST PUSH3 0xBC SWAP2 PUSH1 0x0 SWAP2 PUSH3 0x7BA JUMP JUMPDEST DUP2 DUP2 LT PUSH3 0x7F2 JUMPI POP POP JUMP JUMPDEST DUP1 PUSH3 0x802 PUSH1 0x0 PUSH1 0x1 SWAP4 PUSH3 0x7D8 JUMP JUMPDEST ADD PUSH3 0x7E6 JUMP JUMPDEST SWAP2 SWAP1 PUSH1 0x1F DUP2 GT PUSH3 0x819 JUMPI POP POP POP JUMP JUMPDEST PUSH3 0x82D PUSH3 0xBC SWAP4 PUSH1 0x0 MSTORE PUSH1 0x20 PUSH1 0x0 KECCAK256 SWAP1 JUMP JUMPDEST SWAP1 PUSH1 0x20 PUSH1 0x1F DUP5 ADD DUP2 SWAP1 DIV DUP4 ADD SWAP4 LT PUSH3 0x851 JUMPI JUMPDEST PUSH1 0x20 PUSH1 0x1F SWAP1 SWAP2 ADD DIV ADD SWAP1 PUSH3 0x7E6 JUMP JUMPDEST SWAP1 SWAP2 POP DUP2 SWAP1 PUSH3 0x841 JUMP JUMPDEST SWAP1 PUSH3 0x866 DUP2 MLOAD SWAP1 JUMP JUMPDEST SWAP1 PUSH1 0x1 PUSH1 0x1 PUSH1 0x40 SHL SUB DUP3 GT PUSH3 0x9F JUMPI PUSH3 0x88E DUP3 PUSH3 0x887 DUP6 SLOAD PUSH3 0x777 JUMP JUMPDEST DUP6 PUSH3 0x809 JUMP JUMPDEST PUSH1 0x20 SWAP1 PUSH1 0x1F DUP4 GT PUSH1 0x1 EQ PUSH3 0x8CD JUMPI PUSH3 0x36B SWAP3 SWAP2 PUSH1 0x0 SWAP2 DUP4 PUSH3 0x8C1 JUMPI JUMPDEST POP POP PUSH1 0x0 NOT PUSH1 0x8 DUP4 MUL SHR NOT AND SWAP1 PUSH1 0x2 MUL OR SWAP1 JUMP JUMPDEST ADD MLOAD SWAP1 POP CODESIZE DUP1 PUSH3 0x8AD JUMP JUMPDEST PUSH1 0x1F NOT DUP4 AND SWAP2 PUSH3 0x8E3 DUP6 PUSH1 0x0 MSTORE PUSH1 0x20 PUSH1 0x0 KECCAK256 SWAP1 JUMP JUMPDEST SWAP3 PUSH1 0x0 JUMPDEST DUP2 DUP2 LT PUSH3 0x924 JUMPI POP SWAP2 PUSH1 0x2 SWAP4 SWAP2 DUP6 PUSH1 0x1 SWAP7 SWAP5 LT PUSH3 0x90A JUMPI JUMPDEST POP POP POP MUL ADD SWAP1 SSTORE JUMP JUMPDEST ADD MLOAD PUSH1 0x0 NOT PUSH1 0x8 PUSH1 0x1F DUP6 AND MUL SHR NOT AND SWAP1 SSTORE CODESIZE DUP1 DUP1 PUSH3 0x901 JUMP JUMPDEST SWAP2 SWAP4 PUSH1 0x20 PUSH1 0x1 DUP2 SWAP3 DUP8 DUP8 ADD MLOAD DUP2 SSTORE ADD SWAP6 ADD SWAP3 ADD PUSH3 0x8E7 JUMP JUMPDEST SWAP1 PUSH3 0xBC SWAP2 PUSH3 0x85C JUMP JUMPDEST SWAP1 PUSH3 0x95B PUSH3 0xBC SWAP3 PUSH1 0x3 PUSH3 0x93D JUMP JUMPDEST PUSH1 0x4 PUSH3 0x93D JUMP JUMPDEST PUSH3 0x153 SWAP1 PUSH1 0x8 SHR PUSH3 0x16F JUMP JUMPDEST PUSH3 0x153 SWAP1 SLOAD PUSH3 0x963 JUMP JUMPDEST SWAP1 PUSH2 0x100 PUSH1 0x1 PUSH1 0xA8 SHL SUB SWAP1 PUSH1 0x8 SHL PUSH3 0x335 JUMP JUMPDEST SWAP1 PUSH3 0x9A5 PUSH3 0x153 PUSH3 0x36B SWAP3 PUSH3 0x491 JUMP JUMPDEST DUP3 SLOAD PUSH3 0x97D JUMP JUMPDEST PUSH3 0x9B9 PUSH1 0x5 PUSH3 0x971 JUMP JUMPDEST SWAP1 PUSH3 0x9C7 DUP2 PUSH1 0x5 PUSH3 0x991 JUMP JUMPDEST PUSH3 0x9FE PUSH3 0x9F7 PUSH32 0x8BE0079C531659141344CD1FD0A4F28419497F9722A3DAAFE3B4186F6B6457E0 SWAP4 PUSH3 0x491 JUMP JUMPDEST SWAP2 PUSH3 0x491 JUMP JUMPDEST SWAP2 PUSH3 0xA09 PUSH1 0x40 MLOAD SWAP1 JUMP JUMPDEST DUP1 DUP1 JUMPDEST SUB SWAP1 LOG3 JUMP JUMPDEST PUSH3 0x16F PUSH3 0x153 PUSH3 0x153 SWAP3 SWAP1 JUMP JUMPDEST PUSH3 0x153 SWAP1 PUSH3 0xA11 JUMP JUMPDEST ISZERO PUSH3 0xA34 JUMPI JUMP JUMPDEST PUSH1 0x40 MLOAD PUSH3 0x461BCD PUSH1 0xE5 SHL DUP2 MSTORE PUSH1 0x20 PUSH1 0x4 DUP3 ADD MSTORE PUSH1 0x1F PUSH1 0x24 DUP3 ADD MSTORE PUSH32 0x45524332303A206D696E7420746F20746865207A65726F206164647265737300 PUSH1 0x44 DUP3 ADD MSTORE PUSH1 0x64 SWAP1 REVERT JUMPDEST PUSH3 0x153 SWAP1 DUP2 JUMP JUMPDEST PUSH3 0x153 SWAP1 SLOAD PUSH3 0xA79 JUMP JUMPDEST PUSH4 0x4E487B71 PUSH1 0xE0 SHL PUSH1 0x0 MSTORE PUSH1 0x11 PUSH1 0x4 MSTORE PUSH1 0x24 PUSH1 0x0 REVERT JUMPDEST SWAP2 SWAP1 DUP3 ADD DUP1 SWAP3 GT PUSH3 0xAB1 JUMPI JUMP JUMPDEST PUSH3 0xA8D JUMP JUMPDEST PUSH1 0x0 PUSH3 0xB3F PUSH3 0xB24 DUP4 PUSH3 0xACD DUP5 PUSH3 0xA21 JUMP JUMPDEST SWAP4 PUSH3 0xAEE PUSH1 0x1 PUSH1 0x1 PUSH1 0xA0 SHL SUB DUP7 AND PUSH1 0x1 PUSH1 0x1 PUSH1 0xA0 SHL SUB DUP5 AND EQ ISZERO PUSH3 0xA2C JUMP JUMPDEST PUSH3 0xAFB DUP8 DUP4 DUP8 PUSH3 0xB92 JUMP JUMPDEST PUSH3 0xB1E PUSH3 0xB16 DUP9 PUSH3 0xB10 PUSH1 0x2 PUSH3 0xA81 JUMP JUMPDEST PUSH3 0xAA3 JUMP JUMPDEST PUSH1 0x2 PUSH3 0x34F JUMP JUMPDEST PUSH3 0x4B8 JUMP JUMPDEST PUSH3 0xB38 DUP6 PUSH3 0xB34 DUP4 PUSH3 0xA81 JUMP JUMPDEST ADD SWAP1 JUMP JUMPDEST SWAP1 PUSH3 0x34F JUMP JUMPDEST PUSH3 0xA0C PUSH3 0xB7A PUSH3 0xB73 PUSH32 0xDDF252AD1BE2C89B69C2B068FC378DAA952BA7F163C4A11628F55A4DF523B3EF SWAP4 PUSH3 0x491 JUMP JUMPDEST SWAP4 PUSH3 0x491 JUMP JUMPDEST SWAP4 PUSH3 0xB85 PUSH1 0x40 MLOAD SWAP1 JUMP JUMPDEST SWAP2 DUP3 SWAP2 DUP3 SWAP1 DUP2 MSTORE PUSH1 0x20 ADD SWAP1 JUMP JUMPDEST SWAP1 PUSH3 0xBC SWAP3 SWAP2 PUSH3 0xBFF JUMP JUMPDEST ISZERO PUSH3 0xBA7 JUMPI JUMP JUMPDEST PUSH1 0x40 MLOAD PUSH3 0x461BCD PUSH1 0xE5 SHL DUP2 MSTORE PUSH1 0x20 PUSH1 0x4 DUP3 ADD MSTORE PUSH1 0x2A PUSH1 0x24 DUP3 ADD MSTORE PUSH32 0x45524332305061757361626C653A20746F6B656E207472616E73666572207768 PUSH1 0x44 DUP3 ADD MSTORE PUSH10 0x1A5B19481C185D5CD959 PUSH1 0xB2 SHL PUSH1 0x64 DUP3 ADD MSTORE PUSH1 0x84 SWAP1 REVERT JUMPDEST POP POP POP PUSH3 0xBC PUSH3 0xC18 PUSH3 0xC14 PUSH3 0xC35 JUMP JUMPDEST ISZERO SWAP1 JUMP JUMPDEST PUSH3 0xB9F JUMP JUMPDEST PUSH3 0x153 SWAP1 PUSH3 0x37F JUMP JUMPDEST PUSH3 0x153 SWAP1 SLOAD PUSH3 0xC1E JUMP JUMPDEST PUSH3 0x153 PUSH1 0x5 PUSH3 0xC29 JUMP JUMPDEST PUSH1 0x60 SHL ISZERO PUSH3 0xC4C JUMPI JUMP JUMPDEST PUSH4 0xD92E233D PUSH1 0x0 MSTORE PUSH1 0x4 PUSH1 0x1C REVERT INVALID PUSH1 0x80 PUSH1 0x40 MSTORE PUSH1 0x4 CALLDATASIZE LT ISZERO PUSH2 0x12 JUMPI PUSH1 0x0 DUP1 REVERT JUMPDEST PUSH1 0x0 CALLDATALOAD PUSH1 0xE0 SHR DUP1 PUSH4 0x2252C4D EQ PUSH2 0x332 JUMPI DUP1 PUSH4 0x6FDDE03 EQ PUSH2 0x32D JUMPI DUP1 PUSH4 0x95EA7B3 EQ PUSH2 0x328 JUMPI DUP1 PUSH4 0x12D75F13 EQ PUSH2 0x323 JUMPI DUP1 PUSH4 0x18160DDD EQ PUSH2 0x31E JUMPI DUP1 PUSH4 0x23B872DD EQ PUSH2 0x319 JUMPI DUP1 PUSH4 0x313CE567 EQ PUSH2 0x314 JUMPI DUP1 PUSH4 0x3381E7E2 EQ PUSH2 0x30F JUMPI DUP1 PUSH4 0x351A964D EQ PUSH2 0x30A JUMPI DUP1 PUSH4 0x378DC3DC EQ PUSH2 0x305 JUMPI DUP1 PUSH4 0x39509351 EQ PUSH2 0x300 JUMPI DUP1 PUSH4 0x3AF32ABF EQ PUSH2 0x2FB JUMPI DUP1 PUSH4 0x3F4BA83A EQ PUSH2 0x2F6 JUMPI DUP1 PUSH4 0x42966C68 EQ PUSH2 0x2F1 JUMPI DUP1 PUSH4 0x46904840 EQ PUSH2 0x2EC JUMPI DUP1 PUSH4 0x49BD5A5E EQ PUSH2 0x2E7 JUMPI DUP1 PUSH4 0x4C09F37C EQ PUSH2 0x2E2 JUMPI DUP1 PUSH4 0x51BC3C85 EQ PUSH2 0x2DD JUMPI DUP1 PUSH4 0x5C975ABB EQ PUSH2 0x2D8 JUMPI DUP1 PUSH4 0x62997F8C EQ PUSH2 0x2D3 JUMPI DUP1 PUSH4 0x70A08231 EQ PUSH2 0x2CE JUMPI DUP1 PUSH4 0x715018A6 EQ PUSH2 0x2C9 JUMPI DUP1 PUSH4 0x79CC6790 EQ PUSH2 0x2C4 JUMPI DUP1 PUSH4 0x8456CB59 EQ PUSH2 0x2BF JUMPI DUP1 PUSH4 0x84C5DD01 EQ PUSH2 0x2BA JUMPI DUP1 PUSH4 0x883356D9 EQ PUSH2 0x2B5 JUMPI DUP1 PUSH4 0x8DA5CB5B EQ PUSH2 0x2B0 JUMPI DUP1 PUSH4 0x8E8C10A2 EQ PUSH2 0x2AB JUMPI DUP1 PUSH4 0x95D89B41 EQ PUSH2 0x2A6 JUMPI DUP1 PUSH4 0x99735FD8 EQ PUSH2 0x2A1 JUMPI DUP1 PUSH4 0xA001ECDD EQ PUSH2 0x29C JUMPI DUP1 PUSH4 0xA09A1601 EQ PUSH2 0x297 JUMPI DUP1 PUSH4 0xA457C2D7 EQ PUSH2 0x292 JUMPI DUP1 PUSH4 0xA82ED9EC EQ PUSH2 0x28D JUMPI DUP1 PUSH4 0xA9059CBB EQ PUSH2 0x288 JUMPI DUP1 PUSH4 0xB9D0F1AF EQ PUSH2 0x283 JUMPI DUP1 PUSH4 0xBA9341C0 EQ PUSH2 0x27E JUMPI DUP1 PUSH4 0xC68FF0FE EQ PUSH2 0x279 JUMPI DUP1 PUSH4 0xD1633649 EQ PUSH2 0x274 JUMPI DUP1 PUSH4 0xD1ED0A0F EQ PUSH2 0x26F JUMPI DUP1 PUSH4 0xD48E4127 EQ PUSH2 0x26A JUMPI DUP1 PUSH4 0xD8F67851 EQ PUSH2 0x265 JUMPI DUP1 PUSH4 0xDCC79CC8 EQ PUSH2 0x260 JUMPI DUP1 PUSH4 0xDD62ED3E EQ PUSH2 0x25B JUMPI DUP1 PUSH4 0xE08973CE EQ PUSH2 0x256 JUMPI DUP1 PUSH4 0xEC57459C EQ PUSH2 0x251 JUMPI DUP1 PUSH4 0xF01F20DF EQ PUSH2 0x24C JUMPI DUP1 PUSH4 0xF19C4E3B EQ PUSH2 0x247 JUMPI DUP1 PUSH4 0xF2FDE38B EQ PUSH2 0x242 JUMPI PUSH4 0xF69CF783 SUB PUSH2 0x337 JUMPI PUSH2 0xC38 JUMP JUMPDEST PUSH2 0xC20 JUMP JUMPDEST PUSH2 0xC07 JUMP JUMPDEST PUSH2 0xBEC JUMP JUMPDEST PUSH2 0xBC5 JUMP JUMPDEST PUSH2 0xB9E JUMP JUMPDEST PUSH2 0xB76 JUMP JUMPDEST PUSH2 0xB3B JUMP JUMPDEST PUSH2 0xB23 JUMP JUMPDEST PUSH2 0xB08 JUMP JUMPDEST PUSH2 0xAE1 JUMP JUMPDEST PUSH2 0xABF JUMP JUMPDEST PUSH2 0xA86 JUMP JUMPDEST PUSH2 0xA4A JUMP JUMPDEST PUSH2 0x9D2 JUMP JUMPDEST PUSH2 0x9B6 JUMP JUMPDEST PUSH2 0x98F JUMP JUMPDEST PUSH2 0x90F JUMP JUMPDEST PUSH2 0x8F4 JUMP JUMPDEST PUSH2 0x8D9 JUMP JUMPDEST PUSH2 0x8B2 JUMP JUMPDEST PUSH2 0x88B JUMP JUMPDEST PUSH2 0x870 JUMP JUMPDEST PUSH2 0x855 JUMP JUMPDEST PUSH2 0x83A JUMP JUMPDEST PUSH2 0x81F JUMP JUMPDEST PUSH2 0x7FB JUMP JUMPDEST PUSH2 0x7E2 JUMP JUMPDEST PUSH2 0x7CA JUMP JUMPDEST PUSH2 0x7AF JUMP JUMPDEST PUSH2 0x794 JUMP JUMPDEST PUSH2 0x76D JUMP JUMPDEST PUSH2 0x755 JUMP JUMPDEST PUSH2 0x73A JUMP JUMPDEST PUSH2 0x6FD JUMP JUMPDEST PUSH2 0x6D6 JUMP JUMPDEST PUSH2 0x6B2 JUMP JUMPDEST PUSH2 0x69A JUMP JUMPDEST PUSH2 0x67F JUMP JUMPDEST PUSH2 0x663 JUMP JUMPDEST PUSH2 0x62A JUMP JUMPDEST PUSH2 0x60F JUMP JUMPDEST PUSH2 0x5D2 JUMP JUMPDEST PUSH2 0x580 JUMP JUMPDEST PUSH2 0x564 JUMP JUMPDEST PUSH2 0x508 JUMP JUMPDEST PUSH2 0x4D2 JUMP JUMPDEST PUSH2 0x479 JUMP JUMPDEST PUSH2 0x403 JUMP JUMPDEST PUSH2 0x36B JUMP JUMPDEST PUSH1 0x0 DUP1 REVERT JUMPDEST DUP1 JUMPDEST SUB PUSH2 0x337 JUMPI JUMP JUMPDEST SWAP1 POP CALLDATALOAD SWAP1 PUSH2 0x352 DUP3 PUSH2 0x33C JUMP JUMPDEST JUMP JUMPDEST SWAP1 PUSH1 0x20 DUP3 DUP3 SUB SLT PUSH2 0x337 JUMPI PUSH2 0x368 SWAP2 PUSH2 0x345 JUMP JUMPDEST SWAP1 JUMP JUMPDEST CALLVALUE PUSH2 0x337 JUMPI PUSH2 0x383 PUSH2 0x37E CALLDATASIZE PUSH1 0x4 PUSH2 0x354 JUMP JUMPDEST PUSH2 0x13D4 JUMP JUMPDEST PUSH1 0x40 MLOAD STOP JUMPDEST SUB SWAP1 RETURN JUMPDEST PUSH1 0x0 SWAP2 SUB SLT PUSH2 0x337 JUMPI JUMP JUMPDEST PUSH1 0x0 JUMPDEST DUP4 DUP2 LT PUSH2 0x3AA JUMPI POP POP PUSH1 0x0 SWAP2 ADD MSTORE JUMP JUMPDEST DUP2 DUP2 ADD MLOAD DUP4 DUP3 ADD MSTORE PUSH1 0x20 ADD PUSH2 0x39A JUMP JUMPDEST PUSH2 0x3DB PUSH2 0x3E4 PUSH1 0x20 SWAP4 PUSH2 0x3EE SWAP4 PUSH2 0x3CF DUP2 MLOAD SWAP1 JUMP JUMPDEST DUP1 DUP4 MSTORE SWAP4 DUP5 SWAP3 PUSH1 0x20 ADD SWAP1 JUMP JUMPDEST SWAP6 DUP7 SWAP2 ADD PUSH2 0x397 JUMP JUMPDEST PUSH1 0x1F ADD PUSH1 0x1F NOT AND SWAP1 JUMP JUMPDEST ADD SWAP1 JUMP JUMPDEST PUSH1 0x20 DUP1 DUP3 MSTORE PUSH2 0x368 SWAP3 SWAP2 ADD SWAP1 PUSH2 0x3BA JUMP JUMPDEST CALLVALUE PUSH2 0x337 JUMPI PUSH2 0x413 CALLDATASIZE PUSH1 0x4 PUSH2 0x38C JUMP JUMPDEST PUSH2 0x388 PUSH2 0x41E PUSH2 0xF96 JUMP JUMPDEST PUSH1 0x40 MLOAD SWAP2 DUP3 SWAP2 DUP3 PUSH2 0x3F2 JUMP JUMPDEST PUSH1 0x1 PUSH1 0x1 PUSH1 0xA0 SHL SUB AND SWAP1 JUMP JUMPDEST PUSH1 0x1 PUSH1 0x1 PUSH1 0xA0 SHL SUB DUP2 AND PUSH2 0x33E JUMP JUMPDEST SWAP1 POP CALLDATALOAD SWAP1 PUSH2 0x352 DUP3 PUSH2 0x436 JUMP JUMPDEST SWAP2 SWAP1 PUSH1 0x40 DUP4 DUP3 SUB SLT PUSH2 0x337 JUMPI PUSH2 0x368 SWAP1 PUSH2 0x46C DUP2 DUP6 PUSH2 0x445 JUMP JUMPDEST SWAP4 PUSH1 0x20 ADD PUSH2 0x345 JUMP JUMPDEST SWAP1 MSTORE JUMP JUMPDEST CALLVALUE PUSH2 0x337 JUMPI PUSH2 0x388 PUSH2 0x495 PUSH2 0x48F CALLDATASIZE PUSH1 0x4 PUSH2 0x452 JUMP JUMPDEST SWAP1 PUSH2 0x1019 JUMP JUMPDEST PUSH1 0x40 MLOAD SWAP2 DUP3 SWAP2 DUP3 SWAP1 ISZERO ISZERO DUP2 MSTORE PUSH1 0x20 ADD SWAP1 JUMP JUMPDEST PUSH2 0x368 SWAP2 PUSH1 0x8 MUL SHR PUSH1 0x1 PUSH1 0x1 PUSH1 0xA0 SHL SUB AND SWAP1 JUMP JUMPDEST SWAP1 PUSH2 0x368 SWAP2 SLOAD PUSH2 0x4A7 JUMP JUMPDEST PUSH2 0x368 PUSH1 0x0 PUSH1 0x8 PUSH2 0x4BB JUMP JUMPDEST CALLVALUE PUSH2 0x337 JUMPI PUSH2 0x4E2 CALLDATASIZE PUSH1 0x4 PUSH2 0x38C JUMP JUMPDEST PUSH2 0x388 PUSH2 0x4ED PUSH2 0x4C6 JUMP JUMPDEST PUSH1 0x40 MLOAD JUMPDEST SWAP2 DUP3 SWAP2 DUP3 PUSH1 0x1 PUSH1 0x1 PUSH1 0xA0 SHL SUB SWAP1 SWAP2 AND DUP2 MSTORE PUSH1 0x20 ADD SWAP1 JUMP JUMPDEST CALLVALUE PUSH2 0x337 JUMPI PUSH2 0x518 CALLDATASIZE PUSH1 0x4 PUSH2 0x38C JUMP JUMPDEST PUSH2 0x388 PUSH2 0x523 PUSH2 0xFBB JUMP JUMPDEST PUSH1 0x40 MLOAD JUMPDEST SWAP2 DUP3 SWAP2 DUP3 SWAP1 DUP2 MSTORE PUSH1 0x20 ADD SWAP1 JUMP JUMPDEST SWAP1 SWAP2 PUSH1 0x60 DUP3 DUP5 SUB SLT PUSH2 0x337 JUMPI PUSH2 0x368 PUSH2 0x54D DUP5 DUP5 PUSH2 0x445 JUMP JUMPDEST SWAP4 PUSH2 0x55B DUP2 PUSH1 0x20 DUP7 ADD PUSH2 0x445 JUMP JUMPDEST SWAP4 PUSH1 0x40 ADD PUSH2 0x345 JUMP JUMPDEST CALLVALUE PUSH2 0x337 JUMPI PUSH2 0x388 PUSH2 0x495 PUSH2 0x57A CALLDATASIZE PUSH1 0x4 PUSH2 0x534 JUMP JUMPDEST SWAP2 PUSH2 0x1913 JUMP JUMPDEST CALLVALUE PUSH2 0x337 JUMPI PUSH2 0x590 CALLDATASIZE PUSH1 0x4 PUSH2 0x38C JUMP JUMPDEST PUSH1 0x40 MLOAD PUSH32 0x0 PUSH1 0xFF AND DUP2 MSTORE PUSH1 0x20 SWAP1 RETURN JUMPDEST SWAP1 PUSH1 0x20 DUP3 DUP3 SUB SLT PUSH2 0x337 JUMPI PUSH2 0x368 SWAP2 PUSH2 0x445 JUMP JUMPDEST CALLVALUE PUSH2 0x337 JUMPI PUSH2 0x383 PUSH2 0x5E5 CALLDATASIZE PUSH1 0x4 PUSH2 0x5BE JUMP JUMPDEST PUSH2 0x12D5 JUMP JUMPDEST PUSH2 0x368 SWAP2 PUSH1 0x8 MUL SHR JUMPDEST PUSH1 0xFF AND SWAP1 JUMP JUMPDEST SWAP1 PUSH2 0x368 SWAP2 SLOAD PUSH2 0x5EA JUMP JUMPDEST PUSH2 0x368 PUSH1 0x14 DUP1 PUSH2 0x5F9 JUMP JUMPDEST CALLVALUE PUSH2 0x337 JUMPI PUSH2 0x61F CALLDATASIZE PUSH1 0x4 PUSH2 0x38C JUMP JUMPDEST PUSH2 0x388 PUSH2 0x495 PUSH2 0x604 JUMP JUMPDEST CALLVALUE PUSH2 0x337 JUMPI PUSH2 0x63A CALLDATASIZE PUSH1 0x4 PUSH2 0x38C JUMP JUMPDEST PUSH2 0x388 PUSH32 0x0 PUSH2 0x523 JUMP JUMPDEST CALLVALUE PUSH2 0x337 JUMPI PUSH2 0x388 PUSH2 0x495 PUSH2 0x679 CALLDATASIZE PUSH1 0x4 PUSH2 0x452 JUMP JUMPDEST SWAP1 PUSH2 0x1051 JUMP JUMPDEST CALLVALUE PUSH2 0x337 JUMPI PUSH2 0x388 PUSH2 0x495 PUSH2 0x695 CALLDATASIZE PUSH1 0x4 PUSH2 0x5BE JUMP JUMPDEST PUSH2 0x1276 JUMP JUMPDEST CALLVALUE PUSH2 0x337 JUMPI PUSH2 0x6AA CALLDATASIZE PUSH1 0x4 PUSH2 0x38C JUMP JUMPDEST PUSH2 0x383 PUSH2 0x1C57 JUMP JUMPDEST CALLVALUE PUSH2 0x337 JUMPI PUSH2 0x383 PUSH2 0x6C5 CALLDATASIZE PUSH1 0x4 PUSH2 0x354 JUMP JUMPDEST PUSH2 0x19F8 JUMP JUMPDEST PUSH2 0x368 PUSH1 0x0 PUSH1 0xD PUSH2 0x4BB JUMP JUMPDEST CALLVALUE PUSH2 0x337 JUMPI PUSH2 0x6E6 CALLDATASIZE PUSH1 0x4 PUSH2 0x38C JUMP JUMPDEST PUSH2 0x388 PUSH2 0x4ED PUSH2 0x6CA JUMP JUMPDEST PUSH2 0x368 PUSH1 0x0 PUSH1 0x14 PUSH2 0x4BB JUMP JUMPDEST CALLVALUE PUSH2 0x337 JUMPI PUSH2 0x70D CALLDATASIZE PUSH1 0x4 PUSH2 0x38C JUMP JUMPDEST PUSH2 0x388 PUSH2 0x4ED PUSH2 0x6F1 JUMP JUMPDEST PUSH2 0x368 SWAP2 PUSH1 0x8 MUL SHR DUP2 JUMP JUMPDEST SWAP1 PUSH2 0x368 SWAP2 SLOAD PUSH2 0x718 JUMP JUMPDEST PUSH2 0x368 PUSH1 0x0 PUSH1 0x12 PUSH2 0x723 JUMP JUMPDEST CALLVALUE PUSH2 0x337 JUMPI PUSH2 0x74A CALLDATASIZE PUSH1 0x4 PUSH2 0x38C JUMP JUMPDEST PUSH2 0x388 PUSH2 0x523 PUSH2 0x72E JUMP JUMPDEST CALLVALUE PUSH2 0x337 JUMPI PUSH2 0x765 CALLDATASIZE PUSH1 0x4 PUSH2 0x38C JUMP JUMPDEST PUSH2 0x383 PUSH2 0x254E JUMP JUMPDEST CALLVALUE PUSH2 0x337 JUMPI PUSH2 0x77D CALLDATASIZE PUSH1 0x4 PUSH2 0x38C JUMP JUMPDEST PUSH2 0x388 PUSH2 0x495 PUSH2 0xE57 JUMP JUMPDEST PUSH2 0x368 PUSH1 0x0 PUSH1 0xA PUSH2 0x723 JUMP JUMPDEST CALLVALUE PUSH2 0x337 JUMPI PUSH2 0x7A4 CALLDATASIZE PUSH1 0x4 PUSH2 0x38C JUMP JUMPDEST PUSH2 0x388 PUSH2 0x523 PUSH2 0x788 JUMP JUMPDEST CALLVALUE PUSH2 0x337 JUMPI PUSH2 0x388 PUSH2 0x523 PUSH2 0x7C5 CALLDATASIZE PUSH1 0x4 PUSH2 0x5BE JUMP JUMPDEST PUSH2 0xFDD JUMP JUMPDEST CALLVALUE PUSH2 0x337 JUMPI PUSH2 0x7DA CALLDATASIZE PUSH1 0x4 PUSH2 0x38C JUMP JUMPDEST PUSH2 0x383 PUSH2 0xCA8 JUMP JUMPDEST CALLVALUE PUSH2 0x337 JUMPI PUSH2 0x383 PUSH2 0x7F5 CALLDATASIZE PUSH1 0x4 PUSH2 0x452 JUMP JUMPDEST SWAP1 PUSH2 0x1B68 JUMP JUMPDEST CALLVALUE PUSH2 0x337 JUMPI PUSH2 0x80B CALLDATASIZE PUSH1 0x4 PUSH2 0x38C JUMP JUMPDEST PUSH2 0x383 PUSH2 0x1BB5 JUMP JUMPDEST PUSH2 0x368 PUSH1 0x0 PUSH1 0xB PUSH2 0x723 JUMP JUMPDEST CALLVALUE PUSH2 0x337 JUMPI PUSH2 0x82F CALLDATASIZE PUSH1 0x4 PUSH2 0x38C JUMP JUMPDEST PUSH2 0x388 PUSH2 0x523 PUSH2 0x813 JUMP JUMPDEST CALLVALUE PUSH2 0x337 JUMPI PUSH2 0x84A CALLDATASIZE PUSH1 0x4 PUSH2 0x38C JUMP JUMPDEST PUSH2 0x388 PUSH2 0x495 PUSH2 0x126C JUMP JUMPDEST CALLVALUE PUSH2 0x337 JUMPI PUSH2 0x865 CALLDATASIZE PUSH1 0x4 PUSH2 0x38C JUMP JUMPDEST PUSH2 0x388 PUSH2 0x4ED PUSH2 0xC66 JUMP JUMPDEST CALLVALUE PUSH2 0x337 JUMPI PUSH2 0x880 CALLDATASIZE PUSH1 0x4 PUSH2 0x38C JUMP JUMPDEST PUSH2 0x388 PUSH2 0x495 PUSH2 0x1292 JUMP JUMPDEST CALLVALUE PUSH2 0x337 JUMPI PUSH2 0x89B CALLDATASIZE PUSH1 0x4 PUSH2 0x38C JUMP JUMPDEST PUSH2 0x388 PUSH2 0x41E PUSH2 0xFA0 JUMP JUMPDEST PUSH2 0x368 PUSH1 0x0 PUSH1 0xE PUSH2 0x4BB JUMP JUMPDEST CALLVALUE PUSH2 0x337 JUMPI PUSH2 0x8C2 CALLDATASIZE PUSH1 0x4 PUSH2 0x38C JUMP JUMPDEST PUSH2 0x388 PUSH2 0x4ED PUSH2 0x8A6 JUMP JUMPDEST PUSH2 0x368 PUSH1 0x0 PUSH1 0xF PUSH2 0x723 JUMP JUMPDEST CALLVALUE PUSH2 0x337 JUMPI PUSH2 0x8E9 CALLDATASIZE PUSH1 0x4 PUSH2 0x38C JUMP JUMPDEST PUSH2 0x388 PUSH2 0x523 PUSH2 0x8CD JUMP JUMPDEST CALLVALUE PUSH2 0x337 JUMPI PUSH2 0x904 CALLDATASIZE PUSH1 0x4 PUSH2 0x38C JUMP JUMPDEST PUSH2 0x388 PUSH2 0x495 PUSH2 0x1262 JUMP JUMPDEST CALLVALUE PUSH2 0x337 JUMPI PUSH2 0x388 PUSH2 0x495 PUSH2 0x925 CALLDATASIZE PUSH1 0x4 PUSH2 0x452 JUMP JUMPDEST SWAP1 PUSH2 0x10CA JUMP JUMPDEST PUSH2 0x368 SWAP1 PUSH2 0x42A SWAP1 PUSH1 0x1 PUSH1 0x1 PUSH1 0xA0 SHL SUB AND DUP3 JUMP JUMPDEST PUSH2 0x368 SWAP1 PUSH2 0x92B JUMP JUMPDEST PUSH2 0x368 SWAP1 PUSH2 0x93F JUMP JUMPDEST PUSH2 0x368 PUSH20 0x7A250D5630B4CF539739DF2C5DACB4C659F2488D PUSH2 0x948 JUMP JUMPDEST PUSH2 0x368 PUSH2 0x951 JUMP JUMPDEST PUSH2 0x475 SWAP1 PUSH2 0x948 JUMP JUMPDEST PUSH1 0x20 DUP2 ADD SWAP3 SWAP2 PUSH2 0x352 SWAP2 SWAP1 PUSH2 0x976 JUMP JUMPDEST CALLVALUE PUSH2 0x337 JUMPI PUSH2 0x99F CALLDATASIZE PUSH1 0x4 PUSH2 0x38C JUMP JUMPDEST PUSH2 0x388 PUSH2 0x9AA PUSH2 0x96E JUMP JUMPDEST PUSH1 0x40 MLOAD SWAP2 DUP3 SWAP2 DUP3 PUSH2 0x97F JUMP JUMPDEST CALLVALUE PUSH2 0x337 JUMPI PUSH2 0x388 PUSH2 0x495 PUSH2 0x9CC CALLDATASIZE PUSH1 0x4 PUSH2 0x452 JUMP JUMPDEST SWAP1 PUSH2 0x1633 JUMP JUMPDEST CALLVALUE PUSH2 0x337 JUMPI PUSH2 0x383 PUSH2 0x9E5 CALLDATASIZE PUSH1 0x4 PUSH2 0x354 JUMP JUMPDEST PUSH2 0x1328 JUMP JUMPDEST PUSH2 0x368 SWAP1 PUSH2 0x5F3 JUMP JUMPDEST PUSH2 0x368 SWAP1 SLOAD PUSH2 0x9EA JUMP JUMPDEST PUSH2 0x368 SWAP1 PUSH1 0x8 SHR PUSH2 0x5F3 JUMP JUMPDEST PUSH2 0x368 SWAP1 SLOAD PUSH2 0x9FD JUMP JUMPDEST PUSH2 0x368 SWAP1 PUSH1 0x10 SHR PUSH2 0x5F3 JUMP JUMPDEST PUSH2 0x368 SWAP1 SLOAD PUSH2 0xA13 JUMP JUMPDEST PUSH1 0xC PUSH2 0xA34 DUP2 PUSH2 0x9F3 JUMP JUMPDEST SWAP2 PUSH2 0x368 PUSH1 0x0 PUSH2 0xA43 DUP5 PUSH2 0xA09 JUMP JUMPDEST SWAP4 ADD PUSH2 0xA1F JUMP JUMPDEST CALLVALUE PUSH2 0x337 JUMPI PUSH2 0xA5A CALLDATASIZE PUSH1 0x4 PUSH2 0x38C JUMP JUMPDEST PUSH2 0x388 PUSH2 0xA65 PUSH2 0xA29 JUMP JUMPDEST PUSH1 0x40 DUP1 MLOAD SWAP4 ISZERO ISZERO DUP5 MSTORE SWAP2 ISZERO ISZERO PUSH1 0x20 DUP5 ADD MSTORE ISZERO ISZERO SWAP1 DUP3 ADD MSTORE SWAP1 DUP2 SWAP1 PUSH1 0x60 DUP3 ADD SWAP1 JUMP JUMPDEST CALLVALUE PUSH2 0x337 JUMPI PUSH2 0xA96 CALLDATASIZE PUSH1 0x4 PUSH2 0x38C JUMP JUMPDEST PUSH2 0x388 PUSH32 0x0 PUSH2 0x4ED JUMP JUMPDEST PUSH2 0x388 PUSH2 0x9AA PUSH2 0xAD0 CALLDATASIZE PUSH1 0x4 PUSH2 0x354 JUMP JUMPDEST PUSH2 0x236A JUMP JUMPDEST PUSH2 0x368 PUSH1 0x0 PUSH1 0x10 PUSH2 0x723 JUMP JUMPDEST CALLVALUE PUSH2 0x337 JUMPI PUSH2 0xAF1 CALLDATASIZE PUSH1 0x4 PUSH2 0x38C JUMP JUMPDEST PUSH2 0x388 PUSH2 0x523 PUSH2 0xAD5 JUMP JUMPDEST PUSH2 0x368 PUSH1 0x0 PUSH1 0x9 PUSH2 0x723 JUMP JUMPDEST CALLVALUE PUSH2 0x337 JUMPI PUSH2 0xB18 CALLDATASIZE PUSH1 0x4 PUSH2 0x38C JUMP JUMPDEST PUSH2 0x388 PUSH2 0x523 PUSH2 0xAFC JUMP JUMPDEST CALLVALUE PUSH2 0x337 JUMPI PUSH2 0x383 PUSH2 0xB36 CALLDATASIZE PUSH1 0x4 PUSH2 0x354 JUMP JUMPDEST PUSH2 0x1598 JUMP JUMPDEST CALLVALUE PUSH2 0x337 JUMPI PUSH2 0x383 PUSH2 0xB4E CALLDATASIZE PUSH1 0x4 PUSH2 0x5BE JUMP JUMPDEST PUSH2 0x24A1 JUMP JUMPDEST SWAP2 SWAP1 PUSH1 0x40 DUP4 DUP3 SUB SLT PUSH2 0x337 JUMPI PUSH2 0x368 SWAP1 PUSH2 0xB6D DUP2 DUP6 PUSH2 0x445 JUMP JUMPDEST SWAP4 PUSH1 0x20 ADD PUSH2 0x445 JUMP JUMPDEST CALLVALUE PUSH2 0x337 JUMPI PUSH2 0x388 PUSH2 0x523 PUSH2 0xB8C CALLDATASIZE PUSH1 0x4 PUSH2 0xB53 JUMP JUMPDEST SWAP1 PUSH2 0xFF9 JUMP JUMPDEST PUSH2 0x368 PUSH1 0x0 PUSH1 0x13 PUSH2 0x723 JUMP JUMPDEST CALLVALUE PUSH2 0x337 JUMPI PUSH2 0xBAE CALLDATASIZE PUSH1 0x4 PUSH2 0x38C JUMP JUMPDEST PUSH2 0x388 PUSH2 0x523 PUSH2 0xB92 JUMP JUMPDEST PUSH2 0x368 PUSH1 0x0 PUSH1 0x7 PUSH2 0x723 JUMP JUMPDEST CALLVALUE PUSH2 0x337 JUMPI PUSH2 0xBD5 CALLDATASIZE PUSH1 0x4 PUSH2 0x38C JUMP JUMPDEST PUSH2 0x388 PUSH2 0x523 PUSH2 0xBB9 JUMP JUMPDEST PUSH2 0x368 PUSH1 0x0 PUSH1 0x11 PUSH2 0x723 JUMP JUMPDEST CALLVALUE PUSH2 0x337 JUMPI PUSH2 0xBFC CALLDATASIZE PUSH1 0x4 PUSH2 0x38C JUMP JUMPDEST PUSH2 0x388 PUSH2 0x523 PUSH2 0xBE0 JUMP JUMPDEST CALLVALUE PUSH2 0x337 JUMPI PUSH2 0x383 PUSH2 0xC1A CALLDATASIZE PUSH1 0x4 PUSH2 0x452 JUMP JUMPDEST SWAP1 PUSH2 0x14E8 JUMP JUMPDEST CALLVALUE PUSH2 0x337 JUMPI PUSH2 0x383 PUSH2 0xC33 CALLDATASIZE PUSH1 0x4 PUSH2 0x5BE JUMP JUMPDEST PUSH2 0xDBF JUMP JUMPDEST CALLVALUE PUSH2 0x337 JUMPI PUSH2 0x383 PUSH2 0xC4B CALLDATASIZE PUSH1 0x4 PUSH2 0x354 JUMP JUMPDEST PUSH2 0x1348 JUMP JUMPDEST PUSH2 0x368 SWAP1 PUSH1 0x8 SHR PUSH2 0x42A JUMP JUMPDEST PUSH2 0x368 SWAP1 SLOAD PUSH2 0xC50 JUMP JUMPDEST PUSH2 0x368 PUSH1 0x5 PUSH2 0xC5C JUMP JUMPDEST PUSH2 0xC78 PUSH2 0xD04 JUMP JUMPDEST PUSH2 0x352 PUSH2 0xC96 JUMP JUMPDEST PUSH2 0x42A PUSH2 0x368 PUSH2 0x368 SWAP3 SWAP1 JUMP JUMPDEST PUSH2 0x368 SWAP1 PUSH2 0xC80 JUMP JUMPDEST PUSH2 0x352 PUSH2 0xCA3 PUSH1 0x0 PUSH2 0xC8D JUMP JUMPDEST PUSH2 0xDFC JUMP JUMPDEST PUSH2 0x352 PUSH2 0xC70 JUMP JUMPDEST ISZERO PUSH2 0xCB7 JUMPI JUMP JUMPDEST PUSH1 0x40 MLOAD PUSH3 0x461BCD PUSH1 0xE5 SHL DUP2 MSTORE DUP1 PUSH2 0xD00 PUSH1 0x4 DUP3 ADD PUSH1 0x20 DUP1 DUP3 MSTORE DUP2 DUP2 ADD MSTORE PUSH32 0x4F776E61626C653A2063616C6C6572206973206E6F7420746865206F776E6572 PUSH1 0x40 DUP3 ADD MSTORE PUSH1 0x60 ADD SWAP1 JUMP JUMPDEST SUB SWAP1 REVERT JUMPDEST PUSH2 0x352 PUSH2 0xD0F PUSH2 0xC66 JUMP JUMPDEST PUSH2 0xD28 PUSH2 0xD1B CALLER PUSH2 0x42A JUMP JUMPDEST SWAP2 PUSH1 0x1 PUSH1 0x1 PUSH1 0xA0 SHL SUB AND SWAP1 JUMP JUMPDEST EQ PUSH2 0xCB0 JUMP JUMPDEST PUSH2 0x352 SWAP1 PUSH2 0xD3A PUSH2 0xD04 JUMP JUMPDEST PUSH2 0xD9A JUMP JUMPDEST ISZERO PUSH2 0xD46 JUMPI JUMP JUMPDEST PUSH1 0x40 MLOAD PUSH3 0x461BCD PUSH1 0xE5 SHL DUP2 MSTORE PUSH1 0x20 PUSH1 0x4 DUP3 ADD MSTORE PUSH1 0x26 PUSH1 0x24 DUP3 ADD MSTORE PUSH32 0x4F776E61626C653A206E6577206F776E657220697320746865207A65726F2061 PUSH1 0x44 DUP3 ADD MSTORE PUSH6 0x646472657373 PUSH1 0xD0 SHL PUSH1 0x64 DUP3 ADD MSTORE PUSH1 0x84 SWAP1 REVERT JUMPDEST PUSH2 0x352 SWAP1 PUSH2 0xCA3 PUSH2 0xDAE PUSH2 0x42A PUSH1 0x0 PUSH2 0xC8D JUMP JUMPDEST PUSH1 0x1 PUSH1 0x1 PUSH1 0xA0 SHL SUB DUP4 AND EQ ISZERO PUSH2 0xD3F JUMP JUMPDEST PUSH2 0x352 SWAP1 PUSH2 0xD2E JUMP JUMPDEST SWAP1 PUSH2 0x100 PUSH1 0x1 PUSH1 0xA8 SHL SUB SWAP1 PUSH1 0x8 SHL JUMPDEST SWAP2 DUP2 NOT AND SWAP2 AND OR SWAP1 JUMP JUMPDEST SWAP1 PUSH2 0xDF1 PUSH2 0x368 PUSH2 0xDF8 SWAP3 PUSH2 0x948 JUMP JUMPDEST DUP3 SLOAD PUSH2 0xDC8 JUMP JUMPDEST SWAP1 SSTORE JUMP JUMPDEST PUSH2 0xE06 PUSH1 0x5 PUSH2 0xC5C JUMP JUMPDEST SWAP1 PUSH2 0xE12 DUP2 PUSH1 0x5 PUSH2 0xDE1 JUMP JUMPDEST PUSH2 0xE45 PUSH2 0xE3F PUSH32 0x8BE0079C531659141344CD1FD0A4F28419497F9722A3DAAFE3B4186F6B6457E0 SWAP4 PUSH2 0x948 JUMP JUMPDEST SWAP2 PUSH2 0x948 JUMP JUMPDEST SWAP2 PUSH2 0xE4F PUSH1 0x40 MLOAD SWAP1 JUMP JUMPDEST DUP1 DUP1 JUMPDEST SUB SWAP1 LOG3 JUMP JUMPDEST PUSH2 0x368 PUSH1 0x5 PUSH2 0x9F3 JUMP JUMPDEST PUSH4 0x4E487B71 PUSH1 0xE0 SHL PUSH1 0x0 MSTORE PUSH1 0x22 PUSH1 0x4 MSTORE PUSH1 0x24 PUSH1 0x0 REVERT JUMPDEST SWAP1 PUSH1 0x1 PUSH1 0x2 DUP4 DIV SWAP3 AND DUP1 ISZERO PUSH2 0xE97 JUMPI JUMPDEST PUSH1 0x20 DUP4 LT EQ PUSH2 0xE92 JUMPI JUMP JUMPDEST PUSH2 0xE61 JUMP JUMPDEST SWAP2 PUSH1 0x7F AND SWAP2 PUSH2 0xE87 JUMP JUMPDEST DUP1 SLOAD PUSH1 0x0 SWAP4 SWAP3 SWAP2 PUSH2 0xEBE PUSH2 0xEB4 DUP4 PUSH2 0xE77 JUMP JUMPDEST DUP1 DUP6 MSTORE SWAP4 PUSH1 0x20 ADD SWAP1 JUMP JUMPDEST SWAP2 PUSH1 0x1 DUP2 AND SWAP1 DUP2 ISZERO PUSH2 0xF10 JUMPI POP PUSH1 0x1 EQ PUSH2 0xED7 JUMPI POP POP POP JUMP JUMPDEST PUSH2 0xEEA SWAP2 SWAP3 SWAP4 SWAP5 POP PUSH1 0x0 MSTORE PUSH1 0x20 PUSH1 0x0 KECCAK256 SWAP1 JUMP JUMPDEST SWAP2 PUSH1 0x0 SWAP3 JUMPDEST DUP2 DUP5 LT PUSH2 0xEFC JUMPI POP POP ADD SWAP1 JUMP JUMPDEST DUP1 SLOAD DUP5 DUP5 ADD MSTORE PUSH1 0x20 SWAP1 SWAP4 ADD SWAP3 PUSH1 0x1 ADD PUSH2 0xEEF JUMP JUMPDEST SWAP3 SWAP5 SWAP6 POP POP POP PUSH1 0xFF NOT AND DUP3 MSTORE ISZERO ISZERO PUSH1 0x20 MUL ADD SWAP1 JUMP JUMPDEST SWAP1 PUSH2 0x368 SWAP2 PUSH2 0xEA1 JUMP JUMPDEST PUSH4 0x4E487B71 PUSH1 0xE0 SHL PUSH1 0x0 MSTORE PUSH1 0x41 PUSH1 0x4 MSTORE PUSH1 0x24 PUSH1 0x0 REVERT JUMPDEST SWAP1 PUSH1 0x1F ADD PUSH1 0x1F NOT AND DUP2 ADD SWAP1 DUP2 LT PUSH8 0xFFFFFFFFFFFFFFFF DUP3 GT OR PUSH2 0xF67 JUMPI PUSH1 0x40 MSTORE JUMP JUMPDEST PUSH2 0xF2F JUMP JUMPDEST SWAP1 PUSH2 0x352 PUSH2 0xF86 SWAP3 PUSH2 0xF7D PUSH1 0x40 MLOAD SWAP1 JUMP JUMPDEST SWAP4 DUP5 DUP1 SWAP3 PUSH2 0xF25 JUMP JUMPDEST SUB DUP4 PUSH2 0xF45 JUMP JUMPDEST PUSH2 0x368 SWAP1 PUSH2 0xF6C JUMP JUMPDEST PUSH2 0x368 PUSH1 0x3 PUSH2 0xF8D JUMP JUMPDEST PUSH2 0x368 PUSH1 0x4 PUSH2 0xF8D JUMP JUMPDEST PUSH2 0x368 SWAP1 DUP2 JUMP JUMPDEST PUSH2 0x368 SWAP1 SLOAD PUSH2 0xFAA JUMP JUMPDEST PUSH2 0x368 PUSH1 0x2 PUSH2 0xFB1 JUMP JUMPDEST SWAP1 PUSH2 0xFCF SWAP1 PUSH2 0x948 JUMP JUMPDEST PUSH1 0x0 MSTORE PUSH1 0x20 MSTORE PUSH1 0x40 PUSH1 0x0 KECCAK256 SWAP1 JUMP JUMPDEST PUSH2 0xFF4 PUSH2 0x368 SWAP2 PUSH2 0xFEC PUSH1 0x0 SWAP1 JUMP JUMPDEST POP PUSH1 0x0 PUSH2 0xFC5 JUMP JUMPDEST PUSH2 0xFB1 JUMP JUMPDEST PUSH2 0x368 SWAP2 PUSH2 0x1014 PUSH2 0xFF4 SWAP3 PUSH2 0x100C PUSH1 0x0 SWAP1 JUMP JUMPDEST POP PUSH1 0x1 PUSH2 0xFC5 JUMP JUMPDEST PUSH2 0xFC5 JUMP JUMPDEST PUSH2 0x1024 SWAP2 SWAP1 CALLER PUSH2 0x11CB JUMP JUMPDEST PUSH1 0x1 SWAP1 JUMP JUMPDEST PUSH4 0x4E487B71 PUSH1 0xE0 SHL PUSH1 0x0 MSTORE PUSH1 0x11 PUSH1 0x4 MSTORE PUSH1 0x24 PUSH1 0x0 REVERT JUMPDEST SWAP2 SWAP1 DUP3 ADD DUP1 SWAP3 GT PUSH2 0x104C JUMPI JUMP JUMPDEST PUSH2 0x1029 JUMP JUMPDEST PUSH2 0x1024 SWAP2 SWAP1 PUSH2 0x106A CALLER SWAP3 PUSH2 0x1065 DUP4 DUP6 PUSH2 0xFF9 JUMP JUMPDEST PUSH2 0x103F JUMP JUMPDEST SWAP2 PUSH2 0x11CB JUMP JUMPDEST ISZERO PUSH2 0x1077 JUMPI JUMP JUMPDEST PUSH1 0x40 MLOAD PUSH3 0x461BCD PUSH1 0xE5 SHL DUP2 MSTORE PUSH1 0x20 PUSH1 0x4 DUP3 ADD MSTORE PUSH1 0x25 PUSH1 0x24 DUP3 ADD MSTORE PUSH32 0x45524332303A2064656372656173656420616C6C6F77616E63652062656C6F77 PUSH1 0x44 DUP3 ADD MSTORE PUSH5 0x207A65726F PUSH1 0xD8 SHL PUSH1 0x64 DUP3 ADD MSTORE PUSH1 0x84 SWAP1 REVERT JUMPDEST PUSH2 0x1024 SWAP2 SWAP1 PUSH2 0x106A CALLER SWAP3 PUSH2 0x10DE DUP4 DUP6 PUSH2 0xFF9 JUMP JUMPDEST PUSH2 0x10EA DUP3 DUP3 LT ISZERO PUSH2 0x1070 JUMP JUMPDEST SUB SWAP1 JUMP JUMPDEST ISZERO PUSH2 0x10F5 JUMPI JUMP JUMPDEST PUSH1 0x40 MLOAD PUSH3 0x461BCD PUSH1 0xE5 SHL DUP2 MSTORE PUSH1 0x20 PUSH1 0x4 DUP3 ADD MSTORE PUSH1 0x24 DUP1 DUP3 ADD MSTORE PUSH32 0x45524332303A20617070726F76652066726F6D20746865207A65726F20616464 PUSH1 0x44 DUP3 ADD MSTORE PUSH4 0x72657373 PUSH1 0xE0 SHL PUSH1 0x64 DUP3 ADD MSTORE PUSH1 0x84 SWAP1 REVERT JUMPDEST ISZERO PUSH2 0x114D JUMPI JUMP JUMPDEST PUSH1 0x40 MLOAD PUSH3 0x461BCD PUSH1 0xE5 SHL DUP2 MSTORE PUSH1 0x20 PUSH1 0x4 DUP3 ADD MSTORE PUSH1 0x22 PUSH1 0x24 DUP3 ADD MSTORE PUSH32 0x45524332303A20617070726F766520746F20746865207A65726F206164647265 PUSH1 0x44 DUP3 ADD MSTORE PUSH2 0x7373 PUSH1 0xF0 SHL PUSH1 0x64 DUP3 ADD MSTORE PUSH1 0x84 SWAP1 REVERT JUMPDEST SWAP1 PUSH1 0x0 NOT SWAP1 PUSH2 0xDD7 JUMP JUMPDEST PUSH2 0x368 PUSH2 0x368 PUSH2 0x368 SWAP3 SWAP1 JUMP JUMPDEST SWAP1 PUSH2 0x11C4 PUSH2 0x368 PUSH2 0xDF8 SWAP3 PUSH2 0x11A7 JUMP JUMPDEST DUP3 SLOAD PUSH2 0x119D JUMP JUMPDEST PUSH2 0x120A PUSH2 0x11F9 PUSH2 0x11DB PUSH1 0x0 PUSH2 0xC8D JUMP JUMPDEST PUSH2 0x42A PUSH1 0x1 PUSH1 0x1 PUSH1 0xA0 SHL SUB DUP3 AND PUSH1 0x1 PUSH1 0x1 PUSH1 0xA0 SHL SUB DUP7 AND EQ ISZERO PUSH2 0x10EE JUMP JUMPDEST PUSH1 0x1 PUSH1 0x1 PUSH1 0xA0 SHL SUB DUP5 AND EQ ISZERO PUSH2 0x1146 JUMP JUMPDEST PUSH2 0x1222 DUP4 PUSH2 0x121D DUP5 PUSH2 0x1014 DUP6 PUSH1 0x1 PUSH2 0xFC5 JUMP JUMPDEST PUSH2 0x11B4 JUMP JUMPDEST PUSH2 0xE52 PUSH2 0x1258 PUSH2 0x1252 PUSH32 0x8C5BE1E5EBEC7D5BD14F71427D1E84F3DD0314C0F7B2291E5B200AC8C7C3B925 SWAP4 PUSH2 0x948 JUMP JUMPDEST SWAP4 PUSH2 0x948 JUMP JUMPDEST SWAP4 PUSH2 0x527 PUSH1 0x40 MLOAD SWAP1 JUMP JUMPDEST PUSH2 0x368 PUSH1 0xC PUSH2 0xA09 JUMP JUMPDEST PUSH2 0x368 PUSH1 0xC PUSH2 0x9F3 JUMP JUMPDEST PUSH2 0x128D PUSH2 0x368 SWAP2 PUSH2 0x1285 PUSH1 0x0 SWAP1 JUMP JUMPDEST POP PUSH1 0x15 PUSH2 0xFC5 JUMP JUMPDEST PUSH2 0x9F3 JUMP JUMPDEST PUSH2 0x368 PUSH1 0xC PUSH2 0xA1F JUMP JUMPDEST PUSH2 0x368 SWAP1 PUSH2 0x42A JUMP JUMPDEST PUSH2 0x368 SWAP1 SLOAD PUSH2 0x129C JUMP JUMPDEST SWAP1 PUSH1 0x1 PUSH1 0x1 PUSH1 0xA0 SHL SUB SWAP1 PUSH2 0xDD7 JUMP JUMPDEST SWAP1 PUSH2 0x12CE PUSH2 0x368 PUSH2 0xDF8 SWAP3 PUSH2 0x948 JUMP JUMPDEST DUP3 SLOAD PUSH2 0x12AF JUMP JUMPDEST PUSH2 0x12DF PUSH1 0xE PUSH2 0x12A5 JUMP JUMPDEST PUSH2 0x12EF PUSH2 0xD1B PUSH2 0x42A PUSH1 0x0 PUSH2 0xC8D JUMP JUMPDEST SUB PUSH2 0x12FF JUMPI PUSH2 0x352 SWAP1 PUSH1 0xE PUSH2 0x12BE JUMP JUMPDEST PUSH1 0x40 MLOAD PUSH4 0x131D002D PUSH1 0xE0 SHL DUP2 MSTORE PUSH1 0x4 SWAP1 REVERT JUMPDEST PUSH2 0x352 SWAP1 PUSH2 0x131D PUSH2 0xD04 JUMP JUMPDEST PUSH2 0x352 SWAP1 PUSH1 0xA PUSH2 0x11B4 JUMP JUMPDEST PUSH2 0x352 SWAP1 PUSH2 0x1311 JUMP JUMPDEST PUSH2 0x352 SWAP1 PUSH2 0x133D PUSH2 0xD04 JUMP JUMPDEST PUSH2 0x352 SWAP1 PUSH1 0xB PUSH2 0x11B4 JUMP JUMPDEST PUSH2 0x352 SWAP1 PUSH2 0x1331 JUMP JUMPDEST PUSH2 0x352 SWAP1 PUSH2 0x135D PUSH2 0xD04 JUMP JUMPDEST PUSH2 0x352 SWAP1 PUSH2 0x1369 PUSH2 0x141C JUMP JUMPDEST PUSH2 0x1376 PUSH2 0x368 PUSH1 0x9 PUSH2 0xFB1 JUMP JUMPDEST DUP2 GT ISZERO PUSH2 0x13C2 JUMPI PUSH2 0x1388 DUP2 PUSH1 0x9 PUSH2 0x11B4 JUMP JUMPDEST PUSH2 0x13B2 PUSH32 0xAAB136B9DBE20468AB36DCD11ABD26B3DCEA2B259F018136905BF827F37F5514 SWAP2 PUSH2 0x11A7 JUMP JUMPDEST SWAP1 PUSH2 0x13BC PUSH1 0x40 MLOAD SWAP1 JUMP JUMPDEST PUSH1 0x0 SWAP1 LOG2 JUMP JUMPDEST PUSH1 0x40 MLOAD PUSH4 0x521E96BB PUSH1 0xE1 SHL DUP2 MSTORE PUSH1 0x4 SWAP1 REVERT JUMPDEST PUSH2 0x352 SWAP1 PUSH2 0x1351 JUMP JUMPDEST ISZERO PUSH2 0x13E4 JUMPI JUMP JUMPDEST PUSH1 0x40 MLOAD PUSH3 0x461BCD PUSH1 0xE5 SHL DUP2 MSTORE PUSH1 0x20 PUSH1 0x4 DUP3 ADD MSTORE PUSH1 0x10 PUSH1 0x24 DUP3 ADD MSTORE PUSH16 0x14185D5CD8589B194E881C185D5CD959 PUSH1 0x82 SHL PUSH1 0x44 DUP3 ADD MSTORE PUSH1 0x64 SWAP1 REVERT JUMPDEST PUSH2 0x352 PUSH2 0x142E PUSH2 0x142A PUSH2 0xE57 JUMP JUMPDEST ISZERO SWAP1 JUMP JUMPDEST PUSH2 0x13DD JUMP JUMPDEST SWAP1 PUSH2 0x352 SWAP2 PUSH2 0x1440 PUSH2 0xD04 JUMP JUMPDEST SWAP1 PUSH2 0x352 SWAP2 PUSH2 0x144D PUSH2 0x141C JUMP JUMPDEST PUSH2 0x145D JUMP JUMPDEST PUSH2 0x368 PUSH2 0x7D0 PUSH2 0x11A7 JUMP JUMPDEST SWAP1 PUSH2 0x1469 PUSH2 0x368 PUSH2 0x1452 JUMP JUMPDEST DUP2 GT PUSH2 0x14C1 JUMPI PUSH2 0x1478 DUP3 PUSH2 0x2B3D JUMP JUMPDEST PUSH2 0x1483 DUP3 PUSH1 0xD PUSH2 0x12BE JUMP JUMPDEST PUSH2 0x148E DUP2 PUSH1 0xF PUSH2 0x11B4 JUMP JUMPDEST PUSH2 0xE45 PUSH2 0x14BB PUSH32 0xE42708D93B95810922305119A3271CA42233DA9EBE1E1E503F0E887817A32C7A SWAP4 PUSH2 0x948 JUMP JUMPDEST SWAP2 PUSH2 0x11A7 JUMP JUMPDEST PUSH2 0xD00 SWAP1 PUSH2 0x14CE PUSH1 0x40 MLOAD SWAP1 JUMP JUMPDEST PUSH4 0x65A0074B PUSH1 0xE1 SHL DUP2 MSTORE SWAP2 DUP3 SWAP2 PUSH1 0x4 DUP4 ADD SWAP1 DUP2 MSTORE PUSH1 0x20 ADD SWAP1 JUMP JUMPDEST SWAP1 PUSH2 0x352 SWAP2 PUSH2 0x1433 JUMP JUMPDEST PUSH2 0x352 SWAP1 PUSH2 0x14FE PUSH2 0xD04 JUMP JUMPDEST PUSH2 0x352 SWAP1 PUSH2 0x150A PUSH2 0x141C JUMP JUMPDEST PUSH2 0x1515 PUSH2 0x142A PUSH2 0x1292 JUMP JUMPDEST PUSH2 0x1586 JUMPI PUSH2 0x1524 PUSH2 0x368 PUSH2 0x1452 JUMP JUMPDEST DUP2 GT PUSH2 0x155F JUMPI PUSH2 0x1535 DUP2 PUSH1 0x11 PUSH2 0x11B4 JUMP JUMPDEST PUSH2 0x13B2 PUSH32 0x8C3208FA4FAB043D09D9517339346757A58804A46F954585BA21465677820817 SWAP2 PUSH2 0x11A7 JUMP JUMPDEST PUSH2 0xD00 SWAP1 PUSH2 0x156C PUSH1 0x40 MLOAD SWAP1 JUMP JUMPDEST PUSH4 0x5DBA329 PUSH1 0xE5 SHL DUP2 MSTORE SWAP2 DUP3 SWAP2 PUSH1 0x4 DUP4 ADD SWAP1 DUP2 MSTORE PUSH1 0x20 ADD SWAP1 JUMP JUMPDEST PUSH1 0x40 MLOAD PUSH4 0x19B3CA53 PUSH1 0xE3 SHL DUP2 MSTORE PUSH1 0x4 SWAP1 REVERT JUMPDEST PUSH2 0x352 SWAP1 PUSH2 0x14F2 JUMP JUMPDEST SWAP1 PUSH2 0x368 SWAP3 SWAP2 PUSH2 0x15AF PUSH2 0x141C JUMP JUMPDEST PUSH2 0x15CA JUMP JUMPDEST PUSH2 0x368 SWAP1 PUSH1 0xA0 SHR PUSH2 0x5F3 JUMP JUMPDEST PUSH2 0x368 SWAP1 SLOAD PUSH2 0x15B4 JUMP JUMPDEST POP CALLER PUSH2 0x15D6 PUSH1 0x14 PUSH2 0x15C0 JUMP JUMPDEST DUP1 PUSH2 0x161C JUMPI JUMPDEST DUP1 PUSH2 0x1605 JUMPI JUMPDEST PUSH2 0x15F1 JUMPI POP SWAP1 PUSH2 0x368 SWAP2 PUSH2 0x163F JUMP JUMPDEST PUSH2 0x368 SWAP3 DUP3 PUSH2 0x15FF SWAP3 PUSH2 0x256C JUMP JUMPDEST SWAP1 PUSH2 0x163F JUMP JUMPDEST POP PUSH2 0x1617 PUSH2 0x142A PUSH2 0x128D DUP5 PUSH1 0x15 PUSH2 0xFC5 JUMP JUMPDEST PUSH2 0x15E2 JUMP JUMPDEST POP PUSH2 0x162E PUSH2 0x142A PUSH2 0x128D DUP4 PUSH1 0x15 PUSH2 0xFC5 JUMP JUMPDEST PUSH2 0x15DC JUMP JUMPDEST PUSH2 0x368 SWAP2 SWAP1 PUSH1 0x0 PUSH2 0x15A1 JUMP JUMPDEST PUSH2 0x1024 SWAP2 SWAP1 CALLER PUSH2 0x175C JUMP JUMPDEST PUSH2 0x175C JUMP JUMPDEST ISZERO PUSH2 0x1656 JUMPI JUMP JUMPDEST PUSH1 0x40 MLOAD PUSH3 0x461BCD PUSH1 0xE5 SHL DUP2 MSTORE PUSH1 0x20 PUSH1 0x4 DUP3 ADD MSTORE PUSH1 0x25 PUSH1 0x24 DUP3 ADD MSTORE PUSH32 0x45524332303A207472616E736665722066726F6D20746865207A65726F206164 PUSH1 0x44 DUP3 ADD MSTORE PUSH5 0x6472657373 PUSH1 0xD8 SHL PUSH1 0x64 DUP3 ADD MSTORE PUSH1 0x84 SWAP1 REVERT JUMPDEST ISZERO PUSH2 0x16B0 JUMPI JUMP JUMPDEST PUSH1 0x40 MLOAD PUSH3 0x461BCD PUSH1 0xE5 SHL DUP2 MSTORE PUSH1 0x20 PUSH1 0x4 DUP3 ADD MSTORE PUSH1 0x23 PUSH1 0x24 DUP3 ADD MSTORE PUSH32 0x45524332303A207472616E7366657220746F20746865207A65726F2061646472 PUSH1 0x44 DUP3 ADD MSTORE PUSH3 0x657373 PUSH1 0xE8 SHL PUSH1 0x64 DUP3 ADD MSTORE PUSH1 0x84 SWAP1 REVERT JUMPDEST ISZERO PUSH2 0x1708 JUMPI JUMP JUMPDEST PUSH1 0x40 MLOAD PUSH3 0x461BCD PUSH1 0xE5 SHL DUP2 MSTORE PUSH1 0x20 PUSH1 0x4 DUP3 ADD MSTORE PUSH1 0x26 PUSH1 0x24 DUP3 ADD MSTORE PUSH32 0x45524332303A207472616E7366657220616D6F756E7420657863656564732062 PUSH1 0x44 DUP3 ADD MSTORE PUSH6 0x616C616E6365 PUSH1 0xD0 SHL PUSH1 0x64 DUP3 ADD MSTORE PUSH1 0x84 SWAP1 REVERT JUMPDEST PUSH2 0x17EB PUSH2 0x17D8 DUP4 PUSH1 0x0 PUSH2 0x17A3 PUSH2 0x1792 PUSH2 0x1774 DUP4 PUSH2 0xC8D JUMP JUMPDEST PUSH2 0x42A PUSH1 0x1 PUSH1 0x1 PUSH1 0xA0 SHL SUB DUP3 AND PUSH1 0x1 PUSH1 0x1 PUSH1 0xA0 SHL SUB DUP11 AND EQ ISZERO PUSH2 0x164F JUMP JUMPDEST PUSH1 0x1 PUSH1 0x1 PUSH1 0xA0 SHL SUB DUP5 AND EQ ISZERO PUSH2 0x16A9 JUMP JUMPDEST PUSH2 0x17AE DUP8 DUP4 DUP8 PUSH2 0x181B JUMP JUMPDEST PUSH2 0x1014 PUSH2 0x17CE DUP9 PUSH2 0x17C2 PUSH2 0xFF4 DUP10 DUP7 PUSH2 0xFC5 JUMP JUMPDEST PUSH2 0x10EA DUP3 DUP3 LT ISZERO PUSH2 0x1701 JUMP JUMPDEST PUSH2 0x121D DUP8 DUP5 PUSH2 0xFC5 JUMP JUMPDEST PUSH2 0x17E5 DUP6 PUSH2 0x3EE DUP4 PUSH2 0xFB1 JUMP JUMPDEST SWAP1 PUSH2 0x11B4 JUMP JUMPDEST PUSH2 0xE52 PUSH2 0x1258 PUSH2 0x1252 PUSH32 0xDDF252AD1BE2C89B69C2B068FC378DAA952BA7F163C4A11628F55A4DF523B3EF SWAP4 PUSH2 0x948 JUMP JUMPDEST SWAP1 PUSH2 0x352 SWAP3 SWAP2 PUSH2 0x1885 JUMP JUMPDEST ISZERO PUSH2 0x182D JUMPI JUMP JUMPDEST PUSH1 0x40 MLOAD PUSH3 0x461BCD PUSH1 0xE5 SHL DUP2 MSTORE PUSH1 0x20 PUSH1 0x4 DUP3 ADD MSTORE PUSH1 0x2A PUSH1 0x24 DUP3 ADD MSTORE PUSH32 0x45524332305061757361626C653A20746F6B656E207472616E73666572207768 PUSH1 0x44 DUP3 ADD MSTORE PUSH10 0x1A5B19481C185D5CD959 PUSH1 0xB2 SHL PUSH1 0x64 DUP3 ADD MSTORE PUSH1 0x84 SWAP1 REVERT JUMPDEST POP POP POP PUSH2 0x352 PUSH2 0x1896 PUSH2 0x142A PUSH2 0xE57 JUMP JUMPDEST PUSH2 0x1826 JUMP JUMPDEST SWAP1 PUSH2 0x368 SWAP4 SWAP3 SWAP2 PUSH2 0x18AA PUSH2 0x141C JUMP JUMPDEST POP SWAP2 SWAP1 PUSH2 0x18B7 PUSH1 0x14 PUSH2 0x15C0 JUMP JUMPDEST DUP1 PUSH2 0x18FC JUMPI JUMPDEST DUP1 PUSH2 0x18E5 JUMPI JUMPDEST PUSH2 0x18D0 JUMPI PUSH2 0x368 SWAP3 PUSH2 0x1920 JUMP JUMPDEST PUSH2 0x18DF DUP4 SWAP3 DUP3 PUSH2 0x368 SWAP6 PUSH2 0x256C JUMP JUMPDEST SWAP2 PUSH2 0x1920 JUMP JUMPDEST POP PUSH2 0x18F7 PUSH2 0x142A PUSH2 0x128D DUP4 PUSH1 0x15 PUSH2 0xFC5 JUMP JUMPDEST PUSH2 0x18C3 JUMP JUMPDEST POP PUSH2 0x190E PUSH2 0x142A PUSH2 0x128D DUP6 PUSH1 0x15 PUSH2 0xFC5 JUMP JUMPDEST PUSH2 0x18BD JUMP JUMPDEST PUSH2 0x368 SWAP3 SWAP2 SWAP1 PUSH1 0x0 PUSH2 0x189B JUMP JUMPDEST PUSH2 0x1024 SWAP3 SWAP2 SWAP1 PUSH2 0x164A DUP4 CALLER JUMPDEST DUP4 PUSH2 0x197E JUMP JUMPDEST ISZERO PUSH2 0x1939 JUMPI JUMP JUMPDEST PUSH1 0x40 MLOAD PUSH3 0x461BCD PUSH1 0xE5 SHL DUP2 MSTORE PUSH1 0x20 PUSH1 0x4 DUP3 ADD MSTORE PUSH1 0x1D PUSH1 0x24 DUP3 ADD MSTORE PUSH32 0x45524332303A20696E73756666696369656E7420616C6C6F77616E6365000000 PUSH1 0x44 DUP3 ADD MSTORE PUSH1 0x64 SWAP1 REVERT JUMPDEST SWAP1 PUSH2 0x1989 DUP2 DUP4 PUSH2 0xFF9 JUMP JUMPDEST PUSH1 0x0 NOT DUP2 SUB PUSH2 0x1999 JUMPI JUMPDEST POP POP POP POP JUMP JUMPDEST PUSH2 0x19AD SWAP4 PUSH2 0x106A SWAP2 PUSH2 0x10EA DUP3 DUP3 LT ISZERO PUSH2 0x1932 JUMP JUMPDEST CODESIZE DUP1 DUP1 DUP1 PUSH2 0x1993 JUMP JUMPDEST PUSH2 0x352 SWAP1 PUSH2 0x19C2 PUSH2 0xD04 JUMP JUMPDEST PUSH2 0x352 SWAP1 PUSH2 0x19CE PUSH2 0x141C JUMP JUMPDEST PUSH2 0x19D9 PUSH2 0x142A PUSH2 0x126C JUMP JUMPDEST PUSH2 0x19E6 JUMPI PUSH2 0x352 SWAP1 PUSH2 0x1A01 JUMP JUMPDEST PUSH1 0x40 MLOAD PUSH4 0x6CB59139 PUSH1 0xE0 SHL DUP2 MSTORE PUSH1 0x4 SWAP1 REVERT JUMPDEST PUSH2 0x352 SWAP1 PUSH2 0x19B6 JUMP JUMPDEST PUSH2 0x352 SWAP1 CALLER PUSH2 0x1ABD JUMP JUMPDEST PUSH2 0x1ABD JUMP JUMPDEST ISZERO PUSH2 0x1A17 JUMPI JUMP JUMPDEST PUSH1 0x40 MLOAD PUSH3 0x461BCD PUSH1 0xE5 SHL DUP2 MSTORE PUSH1 0x20 PUSH1 0x4 DUP3 ADD MSTORE PUSH1 0x21 PUSH1 0x24 DUP3 ADD MSTORE PUSH32 0x45524332303A206275726E2066726F6D20746865207A65726F20616464726573 PUSH1 0x44 DUP3 ADD MSTORE PUSH1 0x73 PUSH1 0xF8 SHL PUSH1 0x64 DUP3 ADD MSTORE PUSH1 0x84 SWAP1 REVERT JUMPDEST ISZERO PUSH2 0x1A6D JUMPI JUMP JUMPDEST PUSH1 0x40 MLOAD PUSH3 0x461BCD PUSH1 0xE5 SHL DUP2 MSTORE PUSH1 0x20 PUSH1 0x4 DUP3 ADD MSTORE PUSH1 0x22 PUSH1 0x24 DUP3 ADD MSTORE PUSH32 0x45524332303A206275726E20616D6F756E7420657863656564732062616C616E PUSH1 0x44 DUP3 ADD MSTORE PUSH2 0x6365 PUSH1 0xF0 SHL PUSH1 0x64 DUP3 ADD MSTORE PUSH1 0x84 SWAP1 REVERT JUMPDEST PUSH1 0x0 SWAP1 PUSH2 0x1B1D PUSH2 0x1ACC DUP4 PUSH2 0xC8D JUMP JUMPDEST SWAP3 PUSH2 0x1AEB PUSH1 0x1 PUSH1 0x1 PUSH1 0xA0 SHL SUB DUP6 AND PUSH1 0x1 PUSH1 0x1 PUSH1 0xA0 SHL SUB DUP6 AND EQ ISZERO PUSH2 0x1A10 JUMP JUMPDEST PUSH2 0x1AF6 DUP6 DUP6 DUP6 PUSH2 0x181B JUMP JUMPDEST PUSH2 0x121D DUP4 PUSH2 0x1B17 DUP8 PUSH2 0x1B0B PUSH2 0xFF4 DUP5 DUP8 PUSH2 0xFC5 JUMP JUMPDEST PUSH2 0x10EA DUP3 DUP3 LT ISZERO PUSH2 0x1A66 JUMP JUMPDEST SWAP3 PUSH2 0xFC5 JUMP JUMPDEST PUSH2 0x17EB PUSH2 0x1B2E DUP5 PUSH2 0x10EA PUSH1 0x2 PUSH2 0xFB1 JUMP JUMPDEST PUSH1 0x2 PUSH2 0x11B4 JUMP JUMPDEST SWAP1 PUSH2 0x352 SWAP2 PUSH2 0x1B42 PUSH2 0xD04 JUMP JUMPDEST SWAP1 PUSH2 0x352 SWAP2 PUSH2 0x1B4F PUSH2 0x141C JUMP JUMPDEST SWAP1 PUSH2 0x1B5B PUSH2 0x142A PUSH2 0x126C JUMP JUMPDEST PUSH2 0x19E6 JUMPI PUSH2 0x352 SWAP2 PUSH2 0x1B72 JUMP JUMPDEST SWAP1 PUSH2 0x352 SWAP2 PUSH2 0x1B35 JUMP JUMPDEST PUSH2 0x352 SWAP2 SWAP1 PUSH2 0x1A0B DUP3 CALLER PUSH2 0x192C JUMP JUMPDEST PUSH2 0x1B89 PUSH2 0xD04 JUMP JUMPDEST PUSH2 0x352 PUSH2 0x1B97 PUSH2 0x142A PUSH2 0x1262 JUMP JUMPDEST PUSH2 0x1BA3 JUMPI PUSH2 0x352 PUSH2 0x1C2D JUMP JUMPDEST PUSH1 0x40 MLOAD PUSH4 0xF00085B9 PUSH1 0xE0 SHL DUP2 MSTORE PUSH1 0x4 SWAP1 REVERT JUMPDEST PUSH2 0x352 PUSH2 0x1B81 JUMP JUMPDEST PUSH2 0x1BC5 PUSH2 0x141C JUMP JUMPDEST PUSH2 0x352 PUSH2 0x1BED JUMP JUMPDEST SWAP1 PUSH1 0xFF SWAP1 PUSH2 0xDD7 JUMP JUMPDEST SWAP1 PUSH2 0x1BE6 PUSH2 0x368 PUSH2 0xDF8 SWAP3 ISZERO ISZERO SWAP1 JUMP JUMPDEST DUP3 SLOAD PUSH2 0x1BCD JUMP JUMPDEST PUSH2 0x1BF9 PUSH1 0x1 PUSH1 0x5 PUSH2 0x1BD6 JUMP JUMPDEST CALLER PUSH2 0x1C28 PUSH32 0x62E78CEA01BEE320CD4E420270B5EA74000D11B0C9F74754EBDBFC544B05A258 SWAP2 PUSH2 0x4F1 PUSH1 0x40 MLOAD SWAP1 JUMP JUMPDEST SUB SWAP1 LOG1 JUMP JUMPDEST PUSH2 0x352 PUSH2 0x1BBD JUMP JUMPDEST PUSH2 0x1C3D PUSH2 0xD04 JUMP JUMPDEST PUSH2 0x352 PUSH2 0x1C4B PUSH2 0x142A PUSH2 0x1262 JUMP JUMPDEST PUSH2 0x1BA3 JUMPI PUSH2 0x352 PUSH2 0x1CA5 JUMP JUMPDEST PUSH2 0x352 PUSH2 0x1C35 JUMP JUMPDEST PUSH2 0x1C67 PUSH2 0x1CF0 JUMP JUMPDEST PUSH2 0x352 PUSH2 0x1C76 PUSH1 0x0 PUSH1 0x5 PUSH2 0x1BD6 JUMP JUMPDEST CALLER PUSH2 0x1C28 PUSH32 0x5DB9EE0A495BF2E6FF9C91A7834C1BA4FDD244A5E8AA4E537BD38AEAE4B073AA SWAP2 PUSH2 0x4F1 PUSH1 0x40 MLOAD SWAP1 JUMP JUMPDEST PUSH2 0x352 PUSH2 0x1C5F JUMP JUMPDEST ISZERO PUSH2 0x1CB4 JUMPI JUMP JUMPDEST PUSH1 0x40 MLOAD PUSH3 0x461BCD PUSH1 0xE5 SHL DUP2 MSTORE PUSH1 0x20 PUSH1 0x4 DUP3 ADD MSTORE PUSH1 0x14 PUSH1 0x24 DUP3 ADD MSTORE PUSH20 0x14185D5CD8589B194E881B9BDD081C185D5CD959 PUSH1 0x62 SHL PUSH1 0x44 DUP3 ADD MSTORE PUSH1 0x64 SWAP1 REVERT JUMPDEST PUSH2 0x352 PUSH2 0x1CFB PUSH2 0xE57 JUMP JUMPDEST PUSH2 0x1CAD JUMP JUMPDEST SWAP1 PUSH2 0x368 SWAP2 PUSH2 0x1D0D PUSH2 0xD04 JUMP JUMPDEST SWAP1 PUSH2 0x1D1F SWAP2 PUSH2 0x1D1A PUSH2 0x23CB JUMP JUMPDEST PUSH2 0x1EBD JUMP JUMPDEST SWAP1 PUSH2 0x352 PUSH2 0x23FD JUMP JUMPDEST PUSH2 0x368 PUSH8 0xDE0B6B3A7640000 PUSH2 0x11A7 JUMP JUMPDEST SWAP1 DUP2 MSTORE PUSH1 0x40 DUP2 ADD SWAP3 SWAP2 PUSH2 0x352 SWAP2 PUSH1 0x20 ADD MSTORE JUMP JUMPDEST ADD MSTORE JUMP JUMPDEST PUSH2 0x368 PUSH8 0x6F05B59D3B20000 PUSH2 0x11A7 JUMP JUMPDEST SWAP1 POP MLOAD SWAP1 PUSH2 0x352 DUP3 PUSH2 0x33C JUMP JUMPDEST SWAP1 PUSH1 0x20 DUP3 DUP3 SUB SLT PUSH2 0x337 JUMPI PUSH2 0x368 SWAP2 PUSH2 0x1D61 JUMP JUMPDEST PUSH1 0x40 MLOAD RETURNDATASIZE PUSH1 0x0 DUP3 RETURNDATACOPY RETURNDATASIZE SWAP1 REVERT JUMPDEST PUSH2 0x368 PUSH2 0x2710 PUSH2 0x11A7 JUMP JUMPDEST SWAP1 POP MLOAD SWAP1 PUSH2 0x352 DUP3 PUSH2 0x436 JUMP JUMPDEST SWAP1 PUSH1 0x20 DUP3 DUP3 SUB SLT PUSH2 0x337 JUMPI PUSH2 0x368 SWAP2 PUSH2 0x1D99 JUMP JUMPDEST DUP1 ISZERO ISZERO PUSH2 0x33E JUMP JUMPDEST SWAP1 POP MLOAD SWAP1 PUSH2 0x352 DUP3 PUSH2 0x1DBA JUMP JUMPDEST SWAP1 PUSH1 0x20 DUP3 DUP3 SUB SLT PUSH2 0x337 JUMPI PUSH2 0x368 SWAP2 PUSH2 0x1DC2 JUMP JUMPDEST PUSH1 0x1 PUSH1 0x1 PUSH1 0xA0 SHL SUB SWAP1 SWAP2 AND DUP2 MSTORE PUSH1 0x40 DUP2 ADD SWAP3 SWAP2 PUSH2 0x352 SWAP2 PUSH1 0x20 ADD MSTORE JUMP JUMPDEST SWAP1 SWAP2 PUSH1 0x60 DUP3 DUP5 SUB SLT PUSH2 0x337 JUMPI PUSH2 0x368 PUSH2 0x1E19 DUP5 DUP5 PUSH2 0x1D61 JUMP JUMPDEST SWAP4 PUSH2 0x1E27 DUP2 PUSH1 0x20 DUP7 ADD PUSH2 0x1D61 JUMP JUMPDEST SWAP4 PUSH1 0x40 ADD PUSH2 0x1D61 JUMP JUMPDEST PUSH2 0x475 SWAP1 PUSH2 0x11A7 JUMP JUMPDEST SWAP2 SWAP5 PUSH2 0x1E87 PUSH2 0x1D4C SWAP3 SWAP9 SWAP8 SWAP6 PUSH2 0x1E7D PUSH1 0xA0 SWAP7 PUSH2 0x1E73 PUSH2 0x352 SWAP11 PUSH2 0x1E6C PUSH1 0xC0 DUP11 ADD SWAP15 PUSH1 0x0 DUP12 ADD SWAP1 PUSH1 0x1 PUSH1 0x1 PUSH1 0xA0 SHL SUB AND SWAP1 MSTORE JUMP JUMPDEST PUSH1 0x20 DUP10 ADD MSTORE JUMP JUMPDEST PUSH1 0x40 DUP8 ADD SWAP1 PUSH2 0x1E30 JUMP JUMPDEST PUSH1 0x60 DUP6 ADD SWAP1 PUSH2 0x1E30 JUMP JUMPDEST PUSH1 0x1 PUSH1 0x1 PUSH1 0xA0 SHL SUB AND PUSH1 0x80 DUP4 ADD MSTORE JUMP JUMPDEST SWAP1 PUSH1 0xFF PUSH1 0xA0 SHL SWAP1 PUSH1 0xA0 SHL PUSH2 0xDD7 JUMP JUMPDEST SWAP1 PUSH2 0x1EB6 PUSH2 0x368 PUSH2 0xDF8 SWAP3 ISZERO ISZERO SWAP1 JUMP JUMPDEST DUP3 SLOAD PUSH2 0x1E97 JUMP JUMPDEST POP CALLVALUE PUSH2 0x1EC9 PUSH1 0x14 PUSH2 0x15C0 JUMP JUMPDEST PUSH2 0x2358 JUMPI PUSH2 0x1ED5 PUSH2 0x1D28 JUMP JUMPDEST DUP1 DUP4 LT DUP1 ISZERO PUSH2 0x2345 JUMPI JUMPDEST PUSH2 0x2322 JUMPI POP PUSH2 0x1EEC PUSH2 0x1D50 JUMP JUMPDEST DUP1 DUP3 LT PUSH2 0x2300 JUMPI POP PUSH2 0x1F3B SWAP1 PUSH2 0x1F0B PUSH2 0x1F04 ADDRESS PUSH2 0x948 JUMP JUMPDEST SWAP4 DUP5 PUSH2 0x1633 JUMP JUMPDEST POP PUSH1 0x20 PUSH2 0x1F23 PUSH2 0x1F1E PUSH2 0x1F1E PUSH1 0x8 PUSH2 0x12A5 JUMP JUMPDEST PUSH2 0x948 JUMP JUMPDEST PUSH4 0x70A08231 SWAP1 PUSH2 0x1F32 PUSH1 0x40 MLOAD SWAP1 JUMP JUMPDEST SWAP5 DUP6 SWAP3 PUSH1 0xE0 SHL SWAP1 JUMP JUMPDEST DUP3 MSTORE PUSH1 0x1 PUSH1 0x1 PUSH1 0xA0 SHL SUB DUP7 AND PUSH1 0x4 DUP4 ADD MSTORE PUSH1 0x24 SWAP1 DUP3 SWAP1 GAS STATICCALL SWAP2 DUP3 ISZERO PUSH2 0x21DF JUMPI PUSH1 0x0 SWAP3 PUSH2 0x22D0 JUMPI JUMPDEST POP PUSH2 0x1F87 PUSH2 0x1F79 PUSH2 0x1F73 PUSH1 0x13 PUSH2 0xFB1 JUMP JUMPDEST DUP4 PUSH2 0x2432 JUMP JUMPDEST PUSH2 0x1F81 PUSH2 0x1D8E JUMP JUMPDEST SWAP1 PUSH2 0x2461 JUMP JUMPDEST SWAP2 PUSH2 0x1F9C PUSH2 0x1F98 PUSH2 0x368 PUSH1 0x7 PUSH2 0xFB1 JUMP JUMPDEST SWAP2 SWAP1 JUMP JUMPDEST GT PUSH2 0x22B9 JUMPI JUMPDEST DUP2 PUSH2 0x1FAC SWAP2 PUSH2 0x2415 JUMP JUMPDEST PUSH2 0x1FB7 PUSH2 0x1F1E PUSH2 0x951 JUMP JUMPDEST SWAP3 PUSH2 0x1FCA PUSH2 0x1FC3 PUSH2 0xFBB JUMP JUMPDEST DUP6 DUP4 PUSH2 0x11CB JUMP JUMPDEST PUSH4 0xC45A0155 PUSH2 0x1FE2 PUSH2 0x1FDB PUSH1 0x40 MLOAD SWAP1 JUMP JUMPDEST SWAP2 PUSH1 0xE0 SHL SWAP1 JUMP JUMPDEST DUP2 MSTORE PUSH1 0x20 DUP2 PUSH1 0x4 DUP2 DUP9 GAS STATICCALL SWAP1 DUP2 ISZERO PUSH2 0x21DF JUMPI PUSH2 0x200A SWAP2 PUSH2 0x1F1E SWAP2 PUSH1 0x0 SWAP2 PUSH2 0x229B JUMPI JUMPDEST POP PUSH2 0x948 JUMP JUMPDEST SWAP1 PUSH4 0xC9C65396 SWAP2 PUSH4 0xAD5C4648 SWAP1 PUSH2 0x202A PUSH2 0x2023 PUSH1 0x40 MLOAD SWAP1 JUMP JUMPDEST SWAP3 PUSH1 0xE0 SHL SWAP1 JUMP JUMPDEST DUP3 MSTORE PUSH1 0x20 DUP3 PUSH1 0x4 DUP2 DUP11 GAS STATICCALL SWAP1 DUP2 ISZERO PUSH2 0x21DF JUMPI PUSH2 0x2087 SWAP5 PUSH1 0x20 SWAP4 PUSH1 0x0 SWAP4 PUSH2 0x2275 JUMPI JUMPDEST POP PUSH1 0x0 PUSH2 0x2068 SWAP2 PUSH2 0x205B PUSH1 0x40 MLOAD SWAP1 JUMP JUMPDEST SWAP8 DUP9 SWAP6 DUP7 SWAP5 DUP6 SWAP4 PUSH1 0xE0 SHL SWAP1 JUMP JUMPDEST DUP4 MSTORE PUSH1 0x1 PUSH1 0x1 PUSH1 0xA0 SHL SUB DUP1 DUP11 AND PUSH1 0x4 DUP6 ADD MSTORE AND PUSH1 0x24 DUP4 ADD MSTORE PUSH1 0x44 DUP3 ADD SWAP1 JUMP JUMPDEST SUB SWAP3 GAS CALL SWAP2 DUP3 ISZERO PUSH2 0x21DF JUMPI PUSH2 0x20DF SWAP3 PUSH2 0x20AA SWAP2 PUSH1 0x0 SWAP2 PUSH2 0x2247 JUMPI JUMPDEST POP PUSH1 0x14 PUSH2 0x12BE JUMP JUMPDEST PUSH1 0x20 PUSH2 0x20BC PUSH2 0x1F1E PUSH2 0x1F1E PUSH1 0x14 PUSH2 0x12A5 JUMP JUMPDEST PUSH4 0x95EA7B3 SWAP1 PUSH2 0x20D3 PUSH1 0x0 DUP1 NOT SWAP4 PUSH2 0x205B PUSH1 0x40 MLOAD SWAP1 JUMP JUMPDEST DUP4 MSTORE DUP13 PUSH1 0x4 DUP5 ADD PUSH2 0x1DE3 JUMP JUMPDEST SUB SWAP3 GAS CALL SWAP2 DUP3 ISZERO PUSH2 0x21DF JUMPI PUSH1 0x60 SWAP3 PUSH2 0x221B JUMPI JUMPDEST POP PUSH4 0xF305D719 SWAP5 PUSH2 0x212E PUSH2 0x2105 DUP4 PUSH2 0xFDD JUMP JUMPDEST SWAP5 PUSH1 0x0 SWAP8 PUSH2 0x2139 PUSH2 0x2114 PUSH2 0xC66 JUMP JUMPDEST TIMESTAMP SWAP1 DUP12 DUP1 PUSH2 0x2121 PUSH1 0x40 MLOAD SWAP1 JUMP JUMPDEST SWAP12 DUP13 SWAP11 DUP12 SWAP10 DUP11 SWAP9 PUSH1 0xE0 SHL SWAP1 JUMP JUMPDEST DUP9 MSTORE PUSH1 0x4 DUP9 ADD PUSH2 0x1E39 JUMP JUMPDEST SUB SWAP3 GAS CALL DUP1 ISZERO PUSH2 0x21DF JUMPI PUSH2 0x21ED JUMPI JUMPDEST POP PUSH2 0x2155 PUSH1 0x1 PUSH1 0x14 PUSH2 0x1EA6 JUMP JUMPDEST PUSH2 0x215E DUP3 PUSH2 0x11A7 JUMP JUMPDEST DUP2 GT PUSH2 0x21B6 JUMPI JUMPDEST POP POP PUSH2 0x2171 PUSH1 0x14 PUSH2 0x12A5 JUMP JUMPDEST PUSH2 0x219B PUSH32 0x57A9F98B233034883786B9C47F1F6FABCF1655E39D3213B7287B926CA387136E SWAP2 PUSH2 0x948 JUMP JUMPDEST SWAP1 PUSH2 0x21A5 PUSH1 0x40 MLOAD SWAP1 JUMP JUMPDEST PUSH1 0x0 SWAP1 LOG2 PUSH2 0x368 PUSH2 0x1F1E PUSH1 0x14 PUSH2 0x12A5 JUMP JUMPDEST DUP2 DUP1 DUP1 SWAP3 PUSH2 0x21CA PUSH2 0x1F1E PUSH2 0x1F1E PUSH1 0xE PUSH2 0x12A5 JUMP JUMPDEST DUP3 DUP3 ISZERO PUSH2 0x21E4 JUMPI JUMPDEST CALL ISZERO PUSH2 0x21DF JUMPI CODESIZE DUP1 PUSH2 0x2165 JUMP JUMPDEST PUSH2 0x1D82 JUMP JUMPDEST POP PUSH2 0x8FC PUSH2 0x21D2 JUMP JUMPDEST PUSH2 0x220D SWAP1 PUSH1 0x60 RETURNDATASIZE DUP2 GT PUSH2 0x2214 JUMPI JUMPDEST PUSH2 0x2205 DUP2 DUP4 PUSH2 0xF45 JUMP JUMPDEST DUP2 ADD SWAP1 PUSH2 0x1E00 JUMP JUMPDEST POP POP PUSH2 0x2148 JUMP JUMPDEST POP RETURNDATASIZE PUSH2 0x21FB JUMP JUMPDEST PUSH2 0x223B SWAP1 PUSH1 0x20 RETURNDATASIZE DUP2 GT PUSH2 0x2240 JUMPI JUMPDEST PUSH2 0x2233 DUP2 DUP4 PUSH2 0xF45 JUMP JUMPDEST DUP2 ADD SWAP1 PUSH2 0x1DCF JUMP JUMPDEST PUSH2 0x20F2 JUMP JUMPDEST POP RETURNDATASIZE PUSH2 0x2229 JUMP JUMPDEST PUSH2 0x2268 SWAP2 POP PUSH1 0x20 RETURNDATASIZE DUP2 GT PUSH2 0x226E JUMPI JUMPDEST PUSH2 0x2260 DUP2 DUP4 PUSH2 0xF45 JUMP JUMPDEST DUP2 ADD SWAP1 PUSH2 0x1DA6 JUMP JUMPDEST CODESIZE PUSH2 0x20A2 JUMP JUMPDEST POP RETURNDATASIZE PUSH2 0x2256 JUMP JUMPDEST PUSH2 0x2068 SWAP2 SWAP4 POP PUSH2 0x2293 PUSH1 0x0 SWAP2 DUP7 RETURNDATASIZE DUP2 GT PUSH2 0x226E JUMPI PUSH2 0x2260 DUP2 DUP4 PUSH2 0xF45 JUMP JUMPDEST SWAP4 SWAP2 POP PUSH2 0x204B JUMP JUMPDEST PUSH2 0x22B3 SWAP2 POP PUSH1 0x20 RETURNDATASIZE DUP2 GT PUSH2 0x226E JUMPI PUSH2 0x2260 DUP2 DUP4 PUSH2 0xF45 JUMP JUMPDEST CODESIZE PUSH2 0x2004 JUMP JUMPDEST SWAP1 POP PUSH2 0x1FAC PUSH2 0x22C8 PUSH1 0x0 PUSH2 0x11A7 JUMP JUMPDEST SWAP2 SWAP1 POP PUSH2 0x1FA2 JUMP JUMPDEST PUSH2 0x22F2 SWAP2 SWAP3 POP PUSH1 0x20 RETURNDATASIZE DUP2 GT PUSH2 0x22F9 JUMPI JUMPDEST PUSH2 0x22EA DUP2 DUP4 PUSH2 0xF45 JUMP JUMPDEST DUP2 ADD SWAP1 PUSH2 0x1D6E JUMP JUMPDEST SWAP1 CODESIZE PUSH2 0x1F62 JUMP JUMPDEST POP RETURNDATASIZE PUSH2 0x22E0 JUMP JUMPDEST SWAP1 PUSH2 0xD00 PUSH2 0x230D PUSH1 0x40 MLOAD SWAP1 JUMP JUMPDEST PUSH3 0xFDF575 PUSH1 0xE5 SHL DUP2 MSTORE SWAP3 DUP4 SWAP3 PUSH1 0x4 DUP5 ADD PUSH2 0x1D39 JUMP JUMPDEST DUP3 PUSH2 0xD00 PUSH2 0x232F PUSH1 0x40 MLOAD SWAP1 JUMP JUMPDEST PUSH4 0xC7BCC1B9 PUSH1 0xE0 SHL DUP2 MSTORE SWAP3 DUP4 SWAP3 PUSH1 0x4 DUP5 ADD PUSH2 0x1D39 JUMP JUMPDEST POP PUSH2 0x2351 PUSH2 0x7C5 PUSH2 0xC66 JUMP JUMPDEST DUP4 GT PUSH2 0x1EDF JUMP JUMPDEST PUSH1 0x40 MLOAD PUSH4 0x250856AB PUSH1 0xE2 SHL DUP2 MSTORE PUSH1 0x4 SWAP1 REVERT JUMPDEST PUSH2 0x368 SWAP1 PUSH1 0x0 PUSH2 0x1D00 JUMP JUMPDEST PUSH2 0x368 PUSH1 0x2 PUSH2 0x11A7 JUMP JUMPDEST ISZERO PUSH2 0x2386 JUMPI JUMP JUMPDEST PUSH1 0x40 MLOAD PUSH3 0x461BCD PUSH1 0xE5 SHL DUP2 MSTORE PUSH1 0x20 PUSH1 0x4 DUP3 ADD MSTORE PUSH1 0x1F PUSH1 0x24 DUP3 ADD MSTORE PUSH32 0x5265656E7472616E637947756172643A207265656E7472616E742063616C6C00 PUSH1 0x44 DUP3 ADD MSTORE PUSH1 0x64 SWAP1 REVERT JUMPDEST PUSH2 0x352 PUSH2 0x23D8 PUSH1 0x6 PUSH2 0xFB1 JUMP JUMPDEST PUSH2 0x23EC PUSH2 0x23E3 PUSH2 0x2375 JUMP JUMPDEST SWAP2 DUP3 EQ ISZERO PUSH2 0x237F JUMP JUMPDEST PUSH1 0x6 PUSH2 0x11B4 JUMP JUMPDEST PUSH2 0x368 PUSH1 0x1 PUSH2 0x11A7 JUMP JUMPDEST PUSH2 0x352 PUSH2 0x23EC PUSH2 0x23F3 JUMP JUMPDEST SWAP2 SWAP1 DUP3 SUB SWAP2 DUP3 GT PUSH2 0x104C JUMPI JUMP JUMPDEST PUSH2 0x368 SWAP2 SWAP1 PUSH2 0x2408 JUMP JUMPDEST DUP2 DUP2 MUL SWAP3 SWAP2 DUP2 ISZERO SWAP2 DUP5 DIV EQ OR ISZERO PUSH2 0x104C JUMPI JUMP JUMPDEST PUSH2 0x368 SWAP2 SWAP1 PUSH2 0x241F JUMP JUMPDEST PUSH4 0x4E487B71 PUSH1 0xE0 SHL PUSH1 0x0 MSTORE PUSH1 0x12 PUSH1 0x4 MSTORE PUSH1 0x24 PUSH1 0x0 REVERT JUMPDEST DUP2 ISZERO PUSH2 0x245C JUMPI DIV SWAP1 JUMP JUMPDEST PUSH2 0x243C JUMP JUMPDEST PUSH2 0x368 SWAP2 SWAP1 PUSH2 0x2452 JUMP JUMPDEST PUSH2 0x352 SWAP1 PUSH2 0x2477 PUSH2 0xD04 JUMP JUMPDEST PUSH2 0x2481 PUSH1 0x8 PUSH2 0x12A5 JUMP JUMPDEST PUSH2 0x2491 PUSH2 0xD1B PUSH2 0x42A PUSH1 0x0 PUSH2 0xC8D JUMP JUMPDEST SUB PUSH2 0x12FF JUMPI PUSH2 0x352 SWAP1 PUSH1 0x8 PUSH2 0x12BE JUMP JUMPDEST PUSH2 0x352 SWAP1 PUSH2 0x246B JUMP JUMPDEST PUSH2 0x24B2 PUSH2 0x23CB JUMP JUMPDEST PUSH2 0x24BA PUSH2 0x24C2 JUMP JUMPDEST PUSH2 0x352 PUSH2 0x23FD JUMP JUMPDEST PUSH2 0x24CB ADDRESS PUSH2 0x948 JUMP JUMPDEST PUSH2 0x24D4 DUP2 PUSH2 0xFDD JUMP JUMPDEST SWAP1 PUSH1 0x0 SWAP2 PUSH2 0x24E1 DUP4 PUSH2 0x11A7 JUMP JUMPDEST DUP2 GT PUSH2 0x252C JUMPI JUMPDEST POP BALANCE PUSH2 0x24F7 PUSH2 0x368 PUSH1 0xB PUSH2 0xFB1 JUMP JUMPDEST DUP2 GT PUSH2 0x2501 JUMPI POP POP JUMP JUMPDEST DUP2 DUP1 DUP1 SWAP3 PUSH2 0x2513 PUSH2 0x1F1E PUSH2 0x1F1E PUSH2 0xC66 JUMP JUMPDEST DUP3 DUP3 ISZERO PUSH2 0x2523 JUMPI JUMPDEST CALL ISZERO PUSH2 0x21DF JUMPI JUMP JUMPDEST POP PUSH2 0x8FC PUSH2 0x251B JUMP JUMPDEST PUSH2 0x2543 PUSH2 0x2548 SWAP2 PUSH2 0x253D PUSH1 0xA PUSH2 0xFB1 JUMP JUMPDEST SWAP1 PUSH2 0x2B2B JUMP JUMPDEST PUSH2 0x2B22 JUMP JUMPDEST CODESIZE PUSH2 0x24E8 JUMP JUMPDEST PUSH2 0x352 PUSH2 0x24AA JUMP JUMPDEST PUSH2 0x368 SWAP1 PUSH1 0xA8 SHR PUSH2 0x5F3 JUMP JUMPDEST PUSH2 0x368 SWAP1 SLOAD PUSH2 0x2556 JUMP JUMPDEST PUSH2 0x2592 SWAP4 SWAP3 SWAP2 DUP5 SWAP2 PUSH2 0x2592 PUSH2 0x2597 PUSH2 0x2583 DUP7 PUSH2 0x27C7 JUMP JUMPDEST SWAP5 DUP3 DUP3 SWAP13 DUP6 DUP9 SWAP7 SWAP12 SWAP6 SWAP13 PUSH2 0x2408 JUMP JUMPDEST PUSH2 0x2408 JUMP JUMPDEST SWAP5 DUP6 SWAP8 PUSH2 0x25A7 PUSH2 0x42A PUSH1 0x14 PUSH2 0x12A5 JUMP JUMPDEST PUSH1 0x1 PUSH1 0x1 PUSH1 0xA0 SHL SUB DUP6 AND EQ DUP1 PUSH2 0x27A7 JUMPI JUMPDEST DUP1 PUSH2 0x2783 JUMPI JUMPDEST PUSH2 0x2752 JUMPI PUSH1 0x0 SWAP6 PUSH2 0x25CE DUP8 PUSH2 0x11A7 JUMP JUMPDEST DUP2 SUB PUSH2 0x2738 JUMPI JUMPDEST POP PUSH2 0x25DF DUP7 PUSH2 0x11A7 JUMP JUMPDEST DUP2 SUB PUSH2 0x2707 JUMPI JUMPDEST POP PUSH2 0x25F0 DUP6 PUSH2 0x11A7 JUMP JUMPDEST DUP2 SUB PUSH2 0x26ED JUMPI JUMPDEST POP PUSH2 0x2601 DUP5 PUSH2 0x11A7 JUMP JUMPDEST DUP2 SUB PUSH2 0x26DD JUMPI JUMPDEST POP POP PUSH2 0x2613 ADDRESS PUSH2 0x948 JUMP JUMPDEST SWAP1 PUSH2 0x261D DUP3 PUSH2 0xFDD JUMP JUMPDEST SWAP1 PUSH2 0x262B PUSH2 0x142A PUSH1 0x14 PUSH2 0x2562 JUMP JUMPDEST SWAP1 DUP2 PUSH2 0x26C4 JUMPI JUMPDEST POP DUP1 PUSH2 0x26AF JUMPI JUMPDEST PUSH2 0x2643 JUMPI POP POP POP POP JUMP JUMPDEST PUSH2 0x2668 SWAP2 SWAP3 SWAP4 SWAP5 SWAP6 POP PUSH2 0x2662 PUSH2 0x2543 SWAP2 PUSH2 0x265D PUSH1 0xA PUSH2 0xFB1 JUMP JUMPDEST PUSH2 0x2B2B JUMP JUMPDEST DUP6 PUSH2 0x2B2B JUMP JUMPDEST BALANCE PUSH2 0x2676 PUSH2 0x368 PUSH1 0xB PUSH2 0xFB1 JUMP JUMPDEST DUP2 GT PUSH2 0x2681 JUMPI POP POP SWAP1 JUMP JUMPDEST DUP2 DUP1 DUP1 SWAP3 PUSH2 0x2695 PUSH2 0x1F1E PUSH2 0x1F1E PUSH1 0xD PUSH2 0x12A5 JUMP JUMPDEST DUP3 DUP3 ISZERO PUSH2 0x26A6 JUMPI JUMPDEST CALL ISZERO PUSH2 0x21DF JUMPI SWAP1 JUMP JUMPDEST POP PUSH2 0x8FC PUSH2 0x269D JUMP JUMPDEST POP PUSH2 0x26BD PUSH2 0x368 PUSH1 0xA PUSH2 0xFB1 JUMP JUMPDEST DUP2 GT PUSH2 0x2639 JUMP JUMPDEST SWAP1 POP PUSH2 0x26D6 PUSH2 0xD1B PUSH2 0x42A PUSH1 0x14 PUSH2 0x12A5 JUMP JUMPDEST EQ CODESIZE PUSH2 0x2632 JUMP JUMPDEST PUSH2 0x26E6 SWAP2 PUSH2 0x1ABD JUMP JUMPDEST CODESIZE DUP1 PUSH2 0x2608 JUMP JUMPDEST PUSH2 0x2701 SWAP1 PUSH2 0x26FB PUSH1 0xD PUSH2 0x12A5 JUMP JUMPDEST DUP5 PUSH2 0x175C JUMP JUMPDEST CODESIZE PUSH2 0x25F7 JUMP JUMPDEST PUSH2 0x2732 SWAP1 PUSH32 0x0 DUP6 PUSH2 0x175C JUMP JUMPDEST CODESIZE PUSH2 0x25E6 JUMP JUMPDEST PUSH2 0x274C SWAP1 PUSH2 0x2746 PUSH1 0xE PUSH2 0x12A5 JUMP JUMPDEST DUP7 PUSH2 0x175C JUMP JUMPDEST CODESIZE PUSH2 0x25D5 JUMP JUMPDEST PUSH2 0xD00 DUP6 PUSH2 0x275F PUSH1 0x40 MLOAD SWAP1 JUMP JUMPDEST PUSH4 0xF6202A8F PUSH1 0xE0 SHL DUP2 MSTORE SWAP2 DUP3 SWAP2 PUSH1 0x4 DUP4 ADD PUSH1 0x1 PUSH1 0x1 PUSH1 0xA0 SHL SUB SWAP1 SWAP2 AND DUP2 MSTORE PUSH1 0x20 ADD SWAP1 JUMP JUMPDEST POP PUSH2 0x2791 DUP8 PUSH2 0x1065 DUP8 PUSH2 0xFDD JUMP JUMPDEST PUSH2 0x27A1 PUSH2 0x1F98 PUSH2 0x368 PUSH1 0x9 PUSH2 0xFB1 JUMP JUMPDEST GT PUSH2 0x25BE JUMP JUMPDEST POP PUSH2 0x27B6 PUSH2 0x42A PUSH2 0x1F1E PUSH2 0x951 JUMP JUMPDEST PUSH1 0x1 PUSH1 0x1 PUSH1 0xA0 SHL SUB DUP7 AND EQ ISZERO PUSH2 0x25B8 JUMP JUMPDEST PUSH1 0x0 SWAP1 PUSH2 0x27DD PUSH2 0x27D7 PUSH1 0x12 PUSH2 0xFB1 JUMP JUMPDEST DUP3 PUSH2 0x241F JUMP JUMPDEST SWAP2 PUSH2 0x27F0 PUSH2 0x27E9 PUSH2 0x1D8E JUMP JUMPDEST DUP1 SWAP5 PUSH2 0x2452 JUMP JUMPDEST SWAP4 PUSH2 0x280D DUP5 PUSH2 0x2808 PUSH2 0x2802 PUSH1 0xF PUSH2 0xFB1 JUMP JUMPDEST DUP7 PUSH2 0x241F JUMP JUMPDEST PUSH2 0x2452 JUMP JUMPDEST SWAP4 PUSH2 0x2825 DUP2 PUSH2 0x2808 PUSH2 0x281F PUSH1 0x10 PUSH2 0xFB1 JUMP JUMPDEST DUP8 PUSH2 0x241F JUMP JUMPDEST SWAP4 PUSH2 0x282E PUSH2 0x1292 JUMP JUMPDEST PUSH2 0x2836 JUMPI POP POP JUMP JUMPDEST PUSH2 0x368 SWAP3 SWAP4 POP PUSH2 0x2808 SWAP1 PUSH2 0x284A PUSH1 0x11 PUSH2 0xFB1 JUMP JUMPDEST SWAP1 PUSH2 0x241F JUMP JUMPDEST PUSH2 0x24BA SWAP1 PUSH2 0x285C PUSH2 0x23CB JUMP JUMPDEST PUSH2 0x2887 JUMP JUMPDEST SWAP1 PUSH1 0xFF PUSH1 0xA8 SHL SWAP1 PUSH1 0xA8 SHL PUSH2 0xDD7 JUMP JUMPDEST SWAP1 PUSH2 0x2880 PUSH2 0x368 PUSH2 0xDF8 SWAP3 ISZERO ISZERO SWAP1 JUMP JUMPDEST DUP3 SLOAD PUSH2 0x2861 JUMP JUMPDEST PUSH2 0x289C SWAP1 PUSH2 0x2897 PUSH1 0x1 PUSH1 0x14 PUSH2 0x2870 JUMP JUMPDEST PUSH2 0x29F4 JUMP JUMPDEST PUSH2 0x352 PUSH1 0x0 PUSH1 0x14 PUSH2 0x2870 JUMP JUMPDEST SWAP1 PUSH2 0x352 PUSH2 0x28B5 PUSH1 0x40 MLOAD SWAP1 JUMP JUMPDEST SWAP3 DUP4 PUSH2 0xF45 JUMP JUMPDEST PUSH8 0xFFFFFFFFFFFFFFFF DUP2 GT PUSH2 0xF67 JUMPI PUSH1 0x20 DUP1 SWAP2 MUL ADD SWAP1 JUMP JUMPDEST SWAP1 PUSH2 0x28E6 PUSH2 0x28E1 DUP4 PUSH2 0x28BC JUMP JUMPDEST PUSH2 0x28A8 JUMP JUMPDEST SWAP2 DUP3 MSTORE JUMP JUMPDEST CALLDATASIZE SWAP1 CALLDATACOPY JUMP JUMPDEST SWAP1 PUSH2 0x352 PUSH2 0x2906 PUSH2 0x2900 DUP5 PUSH2 0x28D4 JUMP JUMPDEST SWAP4 PUSH2 0x28BC JUMP JUMPDEST PUSH1 0x1F NOT ADD PUSH1 0x20 DUP5 ADD PUSH2 0x28EB JUMP JUMPDEST PUSH4 0x4E487B71 PUSH1 0xE0 SHL PUSH1 0x0 MSTORE PUSH1 0x32 PUSH1 0x4 MSTORE PUSH1 0x24 PUSH1 0x0 REVERT JUMPDEST SWAP1 PUSH2 0x2932 DUP3 MLOAD SWAP1 JUMP JUMPDEST DUP2 LT ISZERO PUSH2 0x2943 JUMPI PUSH1 0x20 DUP1 SWAP2 MUL ADD ADD SWAP1 JUMP JUMPDEST PUSH2 0x2913 JUMP JUMPDEST SWAP1 PUSH2 0x2968 PUSH2 0x2961 PUSH2 0x2957 DUP5 MLOAD SWAP1 JUMP JUMPDEST DUP1 DUP5 MSTORE SWAP3 PUSH1 0x20 ADD SWAP1 JUMP JUMPDEST SWAP3 PUSH1 0x20 ADD SWAP1 JUMP JUMPDEST SWAP1 PUSH1 0x0 JUMPDEST DUP2 DUP2 LT PUSH2 0x2979 JUMPI POP POP POP SWAP1 JUMP JUMPDEST SWAP1 SWAP2 SWAP3 PUSH2 0x299F PUSH2 0x2998 PUSH1 0x1 SWAP3 DUP7 MLOAD PUSH1 0x1 PUSH1 0x1 PUSH1 0xA0 SHL SUB AND DUP2 MSTORE PUSH1 0x20 ADD SWAP1 JUMP JUMPDEST SWAP5 PUSH1 0x20 ADD SWAP1 JUMP JUMPDEST SWAP3 SWAP2 ADD PUSH2 0x296C JUMP JUMPDEST SWAP1 PUSH2 0x29E2 PUSH2 0x1D4C SWAP2 PUSH2 0x352 SWAP7 SWAP9 SWAP8 SWAP6 PUSH2 0x29D5 PUSH1 0x80 SWAP7 PUSH2 0x29CB PUSH1 0xA0 DUP9 ADD SWAP5 PUSH1 0x0 DUP10 ADD MSTORE JUMP JUMPDEST PUSH1 0x20 DUP8 ADD SWAP1 PUSH2 0x1E30 JUMP JUMPDEST DUP5 DUP3 SUB PUSH1 0x40 DUP7 ADD MSTORE PUSH2 0x2948 JUMP JUMPDEST PUSH1 0x1 PUSH1 0x1 PUSH1 0xA0 SHL SUB SWAP1 SWAP8 AND PUSH1 0x60 DUP4 ADD MSTORE JUMP JUMPDEST PUSH2 0x2A06 PUSH2 0x2A01 PUSH1 0x2 PUSH2 0x11A7 JUMP JUMPDEST PUSH2 0x28F0 JUMP JUMPDEST PUSH2 0x2A0F ADDRESS PUSH2 0x948 JUMP JUMPDEST SWAP1 PUSH1 0x0 SWAP3 PUSH2 0x2A37 DUP4 PUSH2 0x2A29 PUSH2 0x2A23 DUP8 PUSH2 0x11A7 JUMP JUMPDEST DUP6 PUSH2 0x2929 JUMP JUMPDEST SWAP1 PUSH1 0x1 PUSH1 0x1 PUSH1 0xA0 SHL SUB AND SWAP1 MSTORE JUMP JUMPDEST PUSH2 0x2A42 PUSH2 0x1F1E PUSH2 0x951 JUMP JUMPDEST PUSH4 0xAD5C4648 PUSH2 0x2A53 PUSH2 0x1FDB PUSH1 0x40 MLOAD SWAP1 JUMP JUMPDEST DUP2 MSTORE PUSH1 0x20 DUP2 PUSH1 0x4 DUP2 DUP6 GAS STATICCALL DUP1 ISZERO PUSH2 0x21DF JUMPI PUSH2 0x2A83 SWAP2 DUP8 SWAP2 PUSH2 0x2B04 JUMPI JUMPDEST POP PUSH2 0x2A29 PUSH2 0x2A7D PUSH1 0x1 PUSH2 0x11A7 JUMP JUMPDEST DUP7 PUSH2 0x2929 JUMP JUMPDEST PUSH2 0x2A8E DUP3 DUP3 DUP7 PUSH2 0x11CB JUMP JUMPDEST PUSH4 0x791AC947 SWAP4 TIMESTAMP SWAP1 DUP3 EXTCODESIZE ISZERO PUSH2 0x337 JUMPI DUP7 SWAP6 PUSH2 0x2ACC PUSH2 0x2AC1 SWAP4 DUP9 SWAP8 SWAP4 DUP9 SWAP5 PUSH2 0x2AB4 PUSH1 0x40 MLOAD SWAP1 JUMP JUMPDEST SWAP11 DUP12 SWAP10 DUP11 SWAP9 DUP10 SWAP8 PUSH1 0xE0 SHL SWAP1 JUMP JUMPDEST DUP8 MSTORE PUSH1 0x4 DUP8 ADD PUSH2 0x29A7 JUMP JUMPDEST SUB SWAP3 GAS CALL DUP1 ISZERO PUSH2 0x21DF JUMPI PUSH2 0x2ADE JUMPI POP POP JUMP JUMPDEST DUP2 PUSH2 0x352 SWAP3 SWAP1 RETURNDATASIZE LT PUSH2 0x2AFD JUMPI JUMPDEST PUSH2 0x2AF5 DUP2 DUP4 PUSH2 0xF45 JUMP JUMPDEST DUP2 ADD SWAP1 PUSH2 0x38C JUMP JUMPDEST POP RETURNDATASIZE PUSH2 0x2AEB JUMP JUMPDEST PUSH2 0x2B1C SWAP2 POP PUSH1 0x20 RETURNDATASIZE DUP2 GT PUSH2 0x226E JUMPI PUSH2 0x2260 DUP2 DUP4 PUSH2 0xF45 JUMP JUMPDEST CODESIZE PUSH2 0x2A6F JUMP JUMPDEST PUSH2 0x352 SWAP1 PUSH2 0x2850 JUMP JUMPDEST SWAP1 DUP1 DUP3 LT ISZERO PUSH2 0x2B38 JUMPI POP SWAP1 JUMP JUMPDEST SWAP1 POP SWAP1 JUMP JUMPDEST PUSH1 0x60 SHL ISZERO PUSH2 0x2B47 JUMPI JUMP JUMPDEST PUSH4 0xD92E233D PUSH1 0x0 MSTORE PUSH1 0x4 PUSH1 0x1C REVERT INVALID LOG2 PUSH5 0x6970667358 0x22 SLT KECCAK256 STOP 0xF7 0xC3 CREATE2 0xE8 DUP15 0xEF PUSH12 0x6A202C331CBFE0872536155B 0xFB 0xB2 DUP6 OR 0xD2 GASLIMIT 0xC5 0xE1 LOG2 PUSH31 0x130364736F6C63430008140033000000000000000000000000000000000000 "},"gasEstimates":{"creation":{"codeDepositCost":"2229400","executionCost":"infinite","totalCost":"infinite"},"external":{"UNISWAP_V2_ROUTER()":"infinite","affiliateFeePercentage()":"infinite","affiliateFeeRecipient()":"infinite","allowance(address,address)":"infinite","approve(address,uint256)":"infinite","autoWithdrawThreshold()":"infinite","balanceOf(address)":"infinite","burn(uint256)":"infinite","burnFrom(address,uint256)":"infinite","burnPercentage()":"infinite","coinGenieTreasury()":"infinite","decimals()":"infinite","decreaseAllowance(address,uint256)":"infinite","discountFeeRequiredAmount()":"infinite","feePercentage()":"infinite","feeRecipient()":"infinite","genieToken()":"infinite","increaseAllowance(address,uint256)":"infinite","initialSupply()":"infinite","isBurnable()":"infinite","isDeflationary()":"infinite","isPausable()":"infinite","isSwapEnabled()":"infinite","isWhitelisted(address)":"infinite","lpEthFeePercentage()":"infinite","manualSwap()":"infinite","maxTaxSwap()":"infinite","maxTokenAmountPerAddress()":"infinite","name()":"infinite","openTrading(uint256)":"infinite","owner()":"infinite","pause()":"infinite","paused()":"infinite","renounceOwnership()":"infinite","setAutoWithdrawThreshold(uint256)":"infinite","setCoinGenieTreasury(address)":"infinite","setDeflationConfig(uint256)":"infinite","setGenie(address)":"infinite","setMaxTaxSwap(uint256)":"infinite","setMaxTokenAmountPerAddress(uint256)":"infinite","setTaxConfig(address,uint256)":"infinite","symbol()":"infinite","tokenConfig()":"infinite","totalSupply()":"infinite","transfer(address,uint256)":"infinite","transferFrom(address,address,uint256)":"infinite","transferOwnership(address)":"infinite","treasuryFeePercentage()":"infinite","uniswapV2Pair()":"infinite","unpause()":"infinite"},"internal":{"_beforeTokenTransfer(address,address,uint256)":"infinite","_getTransferAmounts(uint256)":"infinite","_min(uint256,uint256)":"46","_swapTokensForEth(uint256)":"infinite","_takeFees(address,address,uint256)":"infinite"}},"methodIdentifiers":{"UNISWAP_V2_ROUTER()":"a82ed9ec","affiliateFeePercentage()":"d1ed0a0f","affiliateFeeRecipient()":"c68ff0fe","allowance(address,address)":"dd62ed3e","approve(address,uint256)":"095ea7b3","autoWithdrawThreshold()":"84c5dd01","balanceOf(address)":"70a08231","burn(uint256)":"42966c68","burnFrom(address,uint256)":"79cc6790","burnPercentage()":"f01f20df","coinGenieTreasury()":"99735fd8","decimals()":"313ce567","decreaseAllowance(address,uint256)":"a457c2d7","discountFeeRequiredAmount()":"ec57459c","feePercentage()":"a001ecdd","feeRecipient()":"46904840","genieToken()":"12d75f13","increaseAllowance(address,uint256)":"39509351","initialSupply()":"378dc3dc","isBurnable()":"883356d9","isDeflationary()":"8e8c10a2","isPausable()":"a09a1601","isSwapEnabled()":"351a964d","isWhitelisted(address)":"3af32abf","lpEthFeePercentage()":"e08973ce","manualSwap()":"51bc3c85","maxTaxSwap()":"62997f8c","maxTokenAmountPerAddress()":"d48e4127","name()":"06fdde03","openTrading(uint256)":"d1633649","owner()":"8da5cb5b","pause()":"8456cb59","paused()":"5c975abb","renounceOwnership()":"715018a6","setAutoWithdrawThreshold(uint256)":"f69cf783","setCoinGenieTreasury(address)":"3381e7e2","setDeflationConfig(uint256)":"d8f67851","setGenie(address)":"dcc79cc8","setMaxTaxSwap(uint256)":"b9d0f1af","setMaxTokenAmountPerAddress(uint256)":"02252c4d","setTaxConfig(address,uint256)":"f19c4e3b","symbol()":"95d89b41","tokenConfig()":"ba9341c0","totalSupply()":"18160ddd","transfer(address,uint256)":"a9059cbb","transferFrom(address,address,uint256)":"23b872dd","transferOwnership(address)":"f2fde38b","treasuryFeePercentage()":"4c09f37c","uniswapV2Pair()":"49bd5a5e","unpause()":"3f4ba83a"}},"storageLayout":{"storage":[{"astId":301,"contract":"src/CoinGenieERC20.sol:CoinGenieERC20","label":"_balances","offset":0,"slot":"0","type":"t_mapping(t_address,t_uint256)"},{"astId":307,"contract":"src/CoinGenieERC20.sol:CoinGenieERC20","label":"_allowances","offset":0,"slot":"1","type":"t_mapping(t_address,t_mapping(t_address,t_uint256))"},{"astId":309,"contract":"src/CoinGenieERC20.sol:CoinGenieERC20","label":"_totalSupply","offset":0,"slot":"2","type":"t_uint256"},{"astId":311,"contract":"src/CoinGenieERC20.sol:CoinGenieERC20","label":"_name","offset":0,"slot":"3","type":"t_string_storage"},{"astId":313,"contract":"src/CoinGenieERC20.sol:CoinGenieERC20","label":"_symbol","offset":0,"slot":"4","type":"t_string_storage"},{"astId":130,"contract":"src/CoinGenieERC20.sol:CoinGenieERC20","label":"_paused","offset":0,"slot":"5","type":"t_bool"},{"astId":7,"contract":"src/CoinGenieERC20.sol:CoinGenieERC20","label":"_owner","offset":1,"slot":"5","type":"t_address"},{"astId":231,"contract":"src/CoinGenieERC20.sol:CoinGenieERC20","label":"_status","offset":0,"slot":"6","type":"t_uint256"},{"astId":4703,"contract":"src/CoinGenieERC20.sol:CoinGenieERC20","label":"discountFeeRequiredAmount","offset":0,"slot":"7","type":"t_uint256"},{"astId":4706,"contract":"src/CoinGenieERC20.sol:CoinGenieERC20","label":"genieToken","offset":0,"slot":"8","type":"t_address"},{"astId":4715,"contract":"src/CoinGenieERC20.sol:CoinGenieERC20","label":"maxTokenAmountPerAddress","offset":0,"slot":"9","type":"t_uint256"},{"astId":4718,"contract":"src/CoinGenieERC20.sol:CoinGenieERC20","label":"maxTaxSwap","offset":0,"slot":"10","type":"t_uint256"},{"astId":4721,"contract":"src/CoinGenieERC20.sol:CoinGenieERC20","label":"autoWithdrawThreshold","offset":0,"slot":"11","type":"t_uint256"},{"astId":4725,"contract":"src/CoinGenieERC20.sol:CoinGenieERC20","label":"tokenConfig","offset":0,"slot":"12","type":"t_struct(TokenConfigProperties)7281_storage"},{"astId":4728,"contract":"src/CoinGenieERC20.sol:CoinGenieERC20","label":"feeRecipient","offset":0,"slot":"13","type":"t_address"},{"astId":4734,"contract":"src/CoinGenieERC20.sol:CoinGenieERC20","label":"coinGenieTreasury","offset":0,"slot":"14","type":"t_address"},{"astId":4737,"contract":"src/CoinGenieERC20.sol:CoinGenieERC20","label":"feePercentage","offset":0,"slot":"15","type":"t_uint256"},{"astId":4741,"contract":"src/CoinGenieERC20.sol:CoinGenieERC20","label":"affiliateFeePercentage","offset":0,"slot":"16","type":"t_uint256"},{"astId":4744,"contract":"src/CoinGenieERC20.sol:CoinGenieERC20","label":"burnPercentage","offset":0,"slot":"17","type":"t_uint256"},{"astId":4748,"contract":"src/CoinGenieERC20.sol:CoinGenieERC20","label":"treasuryFeePercentage","offset":0,"slot":"18","type":"t_uint256"},{"astId":4752,"contract":"src/CoinGenieERC20.sol:CoinGenieERC20","label":"lpEthFeePercentage","offset":0,"slot":"19","type":"t_uint256"},{"astId":4762,"contract":"src/CoinGenieERC20.sol:CoinGenieERC20","label":"uniswapV2Pair","offset":0,"slot":"20","type":"t_address"},{"astId":4765,"contract":"src/CoinGenieERC20.sol:CoinGenieERC20","label":"isSwapEnabled","offset":20,"slot":"20","type":"t_bool"},{"astId":4768,"contract":"src/CoinGenieERC20.sol:CoinGenieERC20","label":"_inSwap","offset":21,"slot":"20","type":"t_bool"},{"astId":4772,"contract":"src/CoinGenieERC20.sol:CoinGenieERC20","label":"_feeWhitelist","offset":0,"slot":"21","type":"t_mapping(t_address,t_bool)"}],"types":{"t_address":{"encoding":"inplace","label":"address","numberOfBytes":"20"},"t_bool":{"encoding":"inplace","label":"bool","numberOfBytes":"1"},"t_mapping(t_address,t_bool)":{"encoding":"mapping","key":"t_address","label":"mapping(address => bool)","numberOfBytes":"32","value":"t_bool"},"t_mapping(t_address,t_mapping(t_address,t_uint256))":{"encoding":"mapping","key":"t_address","label":"mapping(address => mapping(address => uint256))","numberOfBytes":"32","value":"t_mapping(t_address,t_uint256)"},"t_mapping(t_address,t_uint256)":{"encoding":"mapping","key":"t_address","label":"mapping(address => uint256)","numberOfBytes":"32","value":"t_uint256"},"t_string_storage":{"encoding":"bytes","label":"string","numberOfBytes":"32"},"t_struct(TokenConfigProperties)7281_storage":{"encoding":"inplace","label":"struct Common.TokenConfigProperties","members":[{"astId":7276,"contract":"src/CoinGenieERC20.sol:CoinGenieERC20","label":"isBurnable","offset":0,"slot":"0","type":"t_bool"},{"astId":7278,"contract":"src/CoinGenieERC20.sol:CoinGenieERC20","label":"isPausable","offset":1,"slot":"0","type":"t_bool"},{"astId":7280,"contract":"src/CoinGenieERC20.sol:CoinGenieERC20","label":"isDeflationary","offset":2,"slot":"0","type":"t_bool"}],"numberOfBytes":"32"},"t_uint256":{"encoding":"inplace","label":"uint256","numberOfBytes":"32"}}},"userdoc":{"errors":{"BurningNotEnabled()":[{"notice":"Error thrown when burning is not enabled."}],"DestBalanceExceedsMaxAllowed(address)":[{"notice":"Error thrown when the destination balance exceeds the maximum allowed amount."}],"GenieAlreadySet()":[{"notice":"Error thrown when the genie is already set."}],"InsufficientETH(uint256,uint256)":[{"notice":"Error thrown when the provided ETH amount is insufficient."}],"InsufficientTokens(uint256,uint256)":[{"notice":"Error thrown when the provided token amount is insufficient."}],"InvalidDeflationBPS(uint256)":[{"notice":"Error thrown when an invalid deflation basis point is provided."}],"InvalidMaxTokenAmount(uint256)":[{"notice":"Error thrown when the provided maximum token amount is invalid."}],"InvalidTaxBPS(uint256)":[{"notice":"Error thrown when an invalid tax basis point is provided."}],"MaxTokenAmountPerAddrLtPrevious()":[{"notice":"Error thrown when the new maximum token amount per address is less than or equal to the previous value."}],"PausingNotEnabled()":[{"notice":"Error thrown when pausing is not enabled."}],"TokenIsNotDeflationary()":[{"notice":"Error thrown when the token is not deflationary."}],"TradingAlreadyOpen()":[{"notice":"Error thrown when trading is already open."}]},"events":{"BurnConfigUpdated(uint256)":{"notice":"This event is emitted when the burn configuration of the token has been updated."},"FeeConfigUpdated(address,uint256)":{"notice":"This event is emitted when the fee configuration of the token has been updated."},"MaxTokensPerWalletSet(uint256)":{"notice":"This event is emitted when the maximum number of tokens allowed per wallet has been updated."},"TradingOpened(address)":{"notice":"This event is emitted when the trading is opened."}},"kind":"user","methods":{"burn(uint256)":{"notice":"only callable by the owneronly callable if the token is not pausedonly callable if the token supports burning"},"burnFrom(address,uint256)":{"notice":"only callable by the owneronly callable if the token is not pausedonly callable if the token supports burningneeds Approval"},"pause()":{"notice":"only callable by the owner"},"setDeflationConfig(uint256)":{"notice":"only callable by the owneronly callable if the token is not pausedonly callable if the token supports deflationonly callable if the burnPercentage is not greater than the max allowed bps"},"setMaxTokenAmountPerAddress(uint256)":{"notice":"only callable by the owneronly callable if the token is not pausedonly callable if the token supports max amount of tokens per wallet"},"setTaxConfig(address,uint256)":{"notice":"only callable by the owneronly callable if the token is not pausedonly callable if the feePercentage is not greater than the max tax"},"transfer(address,uint256)":{"notice":"only callable if the token is not pausedonly callable if the balance of the receiver is lower than the max amount of tokens per walletchecks if blacklisting is enabled and if the sender and receiver are not blacklistedchecks if whitelisting is enabled and if the sender and receiver are whitelistedcaptures the tax during the transfer if tax is enabvledburns the deflationary amount during the transfer if deflation is enabled"},"transferFrom(address,address,uint256)":{"notice":"only callable if the token is not pausedonly callable if the balance of the receiver is lower than the max amount of tokens per walletchecks if blacklisting is enabled and if the sender and receiver are not blacklistedchecks if whitelisting is enabled and if the sender and receiver are whitelistedcaptures the tax during the transfer if tax is enabvledburns the deflationary amount during the transfer if deflation is enabled"},"unpause()":{"notice":"only callable by the owner"}},"notice":"A robust and secure ERC20 token for the Coin Genie ecosystemTHIS ERC20 SHOULD ONLY BE DEPLOYED FROM THE COINGENIE ERC20 FACTORY","version":1}}}}