{"src/AirdropERC20.sol":{"AirdropERC20":{"abi":[{"inputs":[],"name":"InsufficientAllowance","type":"error"},{"inputs":[],"name":"InsufficientBalance","type":"error"},{"inputs":[],"name":"NoRecipients","type":"error"},{"inputs":[],"name":"NotERC20","type":"error"},{"inputs":[],"name":"TokenAddressZero","type":"error"},{"anonymous":false,"inputs":[{"indexed":true,"internalType":"address","name":"tokenAddress","type":"address"},{"indexed":true,"internalType":"address","name":"tokenOwner","type":"address"},{"indexed":true,"internalType":"address","name":"recipient","type":"address"},{"indexed":false,"internalType":"uint256","name":"amount","type":"uint256"}],"name":"AirdropFailed","type":"event"},{"inputs":[],"name":"NATIVE_TOKEN","outputs":[{"internalType":"address","name":"","type":"address"}],"stateMutability":"view","type":"function"},{"inputs":[{"internalType":"address","name":"tokenAddress","type":"address"},{"internalType":"address","name":"tokenOwner","type":"address"},{"components":[{"internalType":"address","name":"recipient","type":"address"},{"internalType":"uint256","name":"amount","type":"uint256"}],"internalType":"struct AirdropERC20.AirdropContent[]","name":"contents","type":"tuple[]"}],"name":"airdrop","outputs":[],"stateMutability":"payable","type":"function"}],"devdoc":{"author":"@neuro_0x","details":"A contract for distributing ERC20 tokens to a list of recipients.","events":{"AirdropFailed(address,address,address,uint256)":{"details":"Emitted when an failed airdrop occurs."}},"kind":"dev","methods":{"airdrop(address,address,(address,uint256)[])":{"details":"needs Approval","params":{"contents":"A list of recipients and amounts for the airdrop.","tokenAddress":"The address of the token to be airdropped.","tokenOwner":"The address of the token owner initiating the airdrop."}}},"stateVariables":{"NATIVE_TOKEN":{"details":"The address of the native token (ETH)."}},"title":"AirdropERC20","version":1},"evm":{"bytecode":{"linkReferences":{},"object":"60806040523461002257610011610027565b604051610804610072823961080490f35b600080fd5b61002f61005f565b565b61003e61003e61003e9290565b90565b61003e6001610031565b9061003e61003e61005b92610031565b9055565b61002f61006a610041565b600061004b56fe6080604052600436101561001257600080fd5b60003560e01c806331f7d964146100325763da26dbf1036100375761011c565b610058565b600080fd5b600091031261003757565b90565b6001600160a01b031690565b565b346100375761006836600461003c565b60405173eeeeeeeeeeeeeeeeeeeeeeeeeeeeeeeeeeeeeeee8152602090f35b6001600160a01b0381165b0361003757565b9050359061005682610087565b909182601f830112156100375781359167ffffffffffffffff831161003757602001926040830284011161003757565b91606083830312610037576100eb8284610099565b926100f98360208301610099565b92604082013567ffffffffffffffff81116100375761011892016100a6565b9091565b61013361012a3660046100d6565b92919091610375565b604051005b9061014c9392916101476103fc565b6101e2565b610056610438565b6100476100476100479290565b61004a6100476100479290565b61004790610161565b634e487b7160e01b600052603260045260246000fd5b919081101561019d576040020190565b610177565b3561004781610087565b80610092565b35610047816101ac565b6100479061004a906001600160a01b031682565b610047906101bc565b610047906101d0565b929392919084936000906101f582610154565b86146103635761020761004a8361016e565b6001600160a01b038616146103515773eeeeeeeeeeeeeeeeeeeeeeeeeeeeeeeeeeeeeeee6001600160a01b0386161461033f5761024382610154565b865b811015610335576102ab81898188876102946102908d6102738461026d6102459c8a8961018d565b016101a2565b8d61028a60206102848a8c8b61018d565b016101b2565b92610561565b1590565b6102b2575b505050506102a76001610154565b0190565b9050610243565b826102ca6102849261026d6102d1968860209761018d565b948c61018d565b907f35be58330abb60221820bfd214bb857a6ea979dbf24009982022925a7fc137ff6102fc8b6101d9565b9061032961031261030c8c6101d9565b946101d9565b9461031c60405190565b9182918290815260200190565b0390a489818887610299565b5095505050505050565b604051635e81097b60e01b8152600490fd5b6040516381c609f760e01b8152600490fd5b6040516348e0555160e11b8152600490fd5b90610056939291610138565b6100479081565b6100479054610381565b6100476002610154565b156103a357565b60405162461bcd60e51b815260206004820152601f60248201527f5265656e7472616e637947756172643a207265656e7472616e742063616c6c006044820152606490fd5b906100476100476103f892610154565b9055565b6100566104096000610388565b610427610414610392565b918290610420565b9190565b141561039c565b60006103e8565b6100476001610154565b61005661042761042e565b6001600160a01b039182168152911660208201526060810192916100569160400152565b634e487b7160e01b600052604160045260246000fd5b90601f01601f1916810190811067ffffffffffffffff82111761049f57604052565b610467565b906100566104b160405190565b928361047d565b67ffffffffffffffff811161049f57602090601f01601f19160190565b906104e76104e2836104b8565b6104a4565b918252565b3d15610506576104fb3d6104d5565b903d6000602084013e565b606090565b801515610092565b905051906100568261050b565b906020828203126100375761004791610513565b90505190610056826101ac565b906020828203126100375761004791610534565b6040513d6000823e3d90fd5b9190939261056d600090565b5060009261057a84610154565b82146107c45773eeeeeeeeeeeeeeeeeeeeeeeeeeeeeeeeeeeeeeee6001600160a01b038216036105c55750829394506105b260405190565b90818003925af16105c16104ec565b5090565b9280600461060482956105f5866323b872dd60e01b928c6105e560405190565b9687956020870190815201610443565b6020820181038252038261047d565b80519060200182875af1946106176104ec565b861590811561077b575b5061062d575b50505050565b909192945061064461063f84966101d9565b6101d9565b906370a0823161065d61065660405190565b9160e01b90565b81526001600160a01b0382166004820152602081602481865afa90811561074657859161075d575b50831161074b5760209063dd62ed3e926106bb6106a1306101d9565b946106da6106ae60405190565b9687958694859460e01b90565b84526001600160a01b0390811660048501521660248301526044820190565b03915afa928315610746579261070e575b50905b106106fc5738808080610627565b6040516313be252b60e01b8152600490fd5b6106ee91925061073761041c9160203d811161073f575b61072f818361047d565b810190610541565b9291506106eb565b503d610725565b610555565b604051631e9acf1760e31b8152600490fd5b610775915060203d811161073f5761072f818361047d565b38610685565b9050610785815190565b61079161041c86610154565b1190816107a0575b5038610621565b6107be91508060206107b3610290935190565b818301019101610520565b38610799565b506001945050505056fea2646970667358221220c268be60640235073d5a0bb2fd424b124be1dbbf4d6e885a9ec3b904eb635daf64736f6c63430008140033","opcodes":"PUSH1 0x80 PUSH1 0x40 MSTORE CALLVALUE PUSH2 0x22 JUMPI PUSH2 0x11 PUSH2 0x27 JUMP JUMPDEST PUSH1 0x40 MLOAD PUSH2 0x804 PUSH2 0x72 DUP3 CODECOPY PUSH2 0x804 SWAP1 RETURN JUMPDEST PUSH1 0x0 DUP1 REVERT JUMPDEST PUSH2 0x2F PUSH2 0x5F JUMP JUMPDEST JUMP JUMPDEST PUSH2 0x3E PUSH2 0x3E PUSH2 0x3E SWAP3 SWAP1 JUMP JUMPDEST SWAP1 JUMP JUMPDEST PUSH2 0x3E PUSH1 0x1 PUSH2 0x31 JUMP JUMPDEST SWAP1 PUSH2 0x3E PUSH2 0x3E PUSH2 0x5B SWAP3 PUSH2 0x31 JUMP JUMPDEST SWAP1 SSTORE JUMP JUMPDEST PUSH2 0x2F PUSH2 0x6A PUSH2 0x41 JUMP JUMPDEST PUSH1 0x0 PUSH2 0x4B JUMP INVALID PUSH1 0x80 PUSH1 0x40 MSTORE PUSH1 0x4 CALLDATASIZE LT ISZERO PUSH2 0x12 JUMPI PUSH1 0x0 DUP1 REVERT JUMPDEST PUSH1 0x0 CALLDATALOAD PUSH1 0xE0 SHR DUP1 PUSH4 0x31F7D964 EQ PUSH2 0x32 JUMPI PUSH4 0xDA26DBF1 SUB PUSH2 0x37 JUMPI PUSH2 0x11C JUMP JUMPDEST PUSH2 0x58 JUMP JUMPDEST PUSH1 0x0 DUP1 REVERT JUMPDEST PUSH1 0x0 SWAP2 SUB SLT PUSH2 0x37 JUMPI JUMP JUMPDEST SWAP1 JUMP JUMPDEST PUSH1 0x1 PUSH1 0x1 PUSH1 0xA0 SHL SUB AND SWAP1 JUMP JUMPDEST JUMP JUMPDEST CALLVALUE PUSH2 0x37 JUMPI PUSH2 0x68 CALLDATASIZE PUSH1 0x4 PUSH2 0x3C JUMP JUMPDEST PUSH1 0x40 MLOAD PUSH20 0xEEEEEEEEEEEEEEEEEEEEEEEEEEEEEEEEEEEEEEEE DUP2 MSTORE PUSH1 0x20 SWAP1 RETURN JUMPDEST PUSH1 0x1 PUSH1 0x1 PUSH1 0xA0 SHL SUB DUP2 AND JUMPDEST SUB PUSH2 0x37 JUMPI JUMP JUMPDEST SWAP1 POP CALLDATALOAD SWAP1 PUSH2 0x56 DUP3 PUSH2 0x87 JUMP JUMPDEST SWAP1 SWAP2 DUP3 PUSH1 0x1F DUP4 ADD SLT ISZERO PUSH2 0x37 JUMPI DUP2 CALLDATALOAD SWAP2 PUSH8 0xFFFFFFFFFFFFFFFF DUP4 GT PUSH2 0x37 JUMPI PUSH1 0x20 ADD SWAP3 PUSH1 0x40 DUP4 MUL DUP5 ADD GT PUSH2 0x37 JUMPI JUMP JUMPDEST SWAP2 PUSH1 0x60 DUP4 DUP4 SUB SLT PUSH2 0x37 JUMPI PUSH2 0xEB DUP3 DUP5 PUSH2 0x99 JUMP JUMPDEST SWAP3 PUSH2 0xF9 DUP4 PUSH1 0x20 DUP4 ADD PUSH2 0x99 JUMP JUMPDEST SWAP3 PUSH1 0x40 DUP3 ADD CALLDATALOAD PUSH8 0xFFFFFFFFFFFFFFFF DUP2 GT PUSH2 0x37 JUMPI PUSH2 0x118 SWAP3 ADD PUSH2 0xA6 JUMP JUMPDEST SWAP1 SWAP2 JUMP JUMPDEST PUSH2 0x133 PUSH2 0x12A CALLDATASIZE PUSH1 0x4 PUSH2 0xD6 JUMP JUMPDEST SWAP3 SWAP2 SWAP1 SWAP2 PUSH2 0x375 JUMP JUMPDEST PUSH1 0x40 MLOAD STOP JUMPDEST SWAP1 PUSH2 0x14C SWAP4 SWAP3 SWAP2 PUSH2 0x147 PUSH2 0x3FC JUMP JUMPDEST PUSH2 0x1E2 JUMP JUMPDEST PUSH2 0x56 PUSH2 0x438 JUMP JUMPDEST PUSH2 0x47 PUSH2 0x47 PUSH2 0x47 SWAP3 SWAP1 JUMP JUMPDEST PUSH2 0x4A PUSH2 0x47 PUSH2 0x47 SWAP3 SWAP1 JUMP JUMPDEST PUSH2 0x47 SWAP1 PUSH2 0x161 JUMP JUMPDEST PUSH4 0x4E487B71 PUSH1 0xE0 SHL PUSH1 0x0 MSTORE PUSH1 0x32 PUSH1 0x4 MSTORE PUSH1 0x24 PUSH1 0x0 REVERT JUMPDEST SWAP2 SWAP1 DUP2 LT ISZERO PUSH2 0x19D JUMPI PUSH1 0x40 MUL ADD SWAP1 JUMP JUMPDEST PUSH2 0x177 JUMP JUMPDEST CALLDATALOAD PUSH2 0x47 DUP2 PUSH2 0x87 JUMP JUMPDEST DUP1 PUSH2 0x92 JUMP JUMPDEST CALLDATALOAD PUSH2 0x47 DUP2 PUSH2 0x1AC JUMP JUMPDEST PUSH2 0x47 SWAP1 PUSH2 0x4A SWAP1 PUSH1 0x1 PUSH1 0x1 PUSH1 0xA0 SHL SUB AND DUP3 JUMP JUMPDEST PUSH2 0x47 SWAP1 PUSH2 0x1BC JUMP JUMPDEST PUSH2 0x47 SWAP1 PUSH2 0x1D0 JUMP JUMPDEST SWAP3 SWAP4 SWAP3 SWAP2 SWAP1 DUP5 SWAP4 PUSH1 0x0 SWAP1 PUSH2 0x1F5 DUP3 PUSH2 0x154 JUMP JUMPDEST DUP7 EQ PUSH2 0x363 JUMPI PUSH2 0x207 PUSH2 0x4A DUP4 PUSH2 0x16E JUMP JUMPDEST PUSH1 0x1 PUSH1 0x1 PUSH1 0xA0 SHL SUB DUP7 AND EQ PUSH2 0x351 JUMPI PUSH20 0xEEEEEEEEEEEEEEEEEEEEEEEEEEEEEEEEEEEEEEEE PUSH1 0x1 PUSH1 0x1 PUSH1 0xA0 SHL SUB DUP7 AND EQ PUSH2 0x33F JUMPI PUSH2 0x243 DUP3 PUSH2 0x154 JUMP JUMPDEST DUP7 JUMPDEST DUP2 LT ISZERO PUSH2 0x335 JUMPI PUSH2 0x2AB DUP2 DUP10 DUP2 DUP9 DUP8 PUSH2 0x294 PUSH2 0x290 DUP14 PUSH2 0x273 DUP5 PUSH2 0x26D PUSH2 0x245 SWAP13 DUP11 DUP10 PUSH2 0x18D JUMP JUMPDEST ADD PUSH2 0x1A2 JUMP JUMPDEST DUP14 PUSH2 0x28A PUSH1 0x20 PUSH2 0x284 DUP11 DUP13 DUP12 PUSH2 0x18D JUMP JUMPDEST ADD PUSH2 0x1B2 JUMP JUMPDEST SWAP3 PUSH2 0x561 JUMP JUMPDEST ISZERO SWAP1 JUMP JUMPDEST PUSH2 0x2B2 JUMPI JUMPDEST POP POP POP POP PUSH2 0x2A7 PUSH1 0x1 PUSH2 0x154 JUMP JUMPDEST ADD SWAP1 JUMP JUMPDEST SWAP1 POP PUSH2 0x243 JUMP JUMPDEST DUP3 PUSH2 0x2CA PUSH2 0x284 SWAP3 PUSH2 0x26D PUSH2 0x2D1 SWAP7 DUP9 PUSH1 0x20 SWAP8 PUSH2 0x18D JUMP JUMPDEST SWAP5 DUP13 PUSH2 0x18D JUMP JUMPDEST SWAP1 PUSH32 0x35BE58330ABB60221820BFD214BB857A6EA979DBF24009982022925A7FC137FF PUSH2 0x2FC DUP12 PUSH2 0x1D9 JUMP JUMPDEST SWAP1 PUSH2 0x329 PUSH2 0x312 PUSH2 0x30C DUP13 PUSH2 0x1D9 JUMP JUMPDEST SWAP5 PUSH2 0x1D9 JUMP JUMPDEST SWAP5 PUSH2 0x31C PUSH1 0x40 MLOAD SWAP1 JUMP JUMPDEST SWAP2 DUP3 SWAP2 DUP3 SWAP1 DUP2 MSTORE PUSH1 0x20 ADD SWAP1 JUMP JUMPDEST SUB SWAP1 LOG4 DUP10 DUP2 DUP9 DUP8 PUSH2 0x299 JUMP JUMPDEST POP SWAP6 POP POP POP POP POP POP JUMP JUMPDEST PUSH1 0x40 MLOAD PUSH4 0x5E81097B PUSH1 0xE0 SHL DUP2 MSTORE PUSH1 0x4 SWAP1 REVERT JUMPDEST PUSH1 0x40 MLOAD PUSH4 0x81C609F7 PUSH1 0xE0 SHL DUP2 MSTORE PUSH1 0x4 SWAP1 REVERT JUMPDEST PUSH1 0x40 MLOAD PUSH4 0x48E05551 PUSH1 0xE1 SHL DUP2 MSTORE PUSH1 0x4 SWAP1 REVERT JUMPDEST SWAP1 PUSH2 0x56 SWAP4 SWAP3 SWAP2 PUSH2 0x138 JUMP JUMPDEST PUSH2 0x47 SWAP1 DUP2 JUMP JUMPDEST PUSH2 0x47 SWAP1 SLOAD PUSH2 0x381 JUMP JUMPDEST PUSH2 0x47 PUSH1 0x2 PUSH2 0x154 JUMP JUMPDEST ISZERO PUSH2 0x3A3 JUMPI JUMP JUMPDEST PUSH1 0x40 MLOAD PUSH3 0x461BCD PUSH1 0xE5 SHL DUP2 MSTORE PUSH1 0x20 PUSH1 0x4 DUP3 ADD MSTORE PUSH1 0x1F PUSH1 0x24 DUP3 ADD MSTORE PUSH32 0x5265656E7472616E637947756172643A207265656E7472616E742063616C6C00 PUSH1 0x44 DUP3 ADD MSTORE PUSH1 0x64 SWAP1 REVERT JUMPDEST SWAP1 PUSH2 0x47 PUSH2 0x47 PUSH2 0x3F8 SWAP3 PUSH2 0x154 JUMP JUMPDEST SWAP1 SSTORE JUMP JUMPDEST PUSH2 0x56 PUSH2 0x409 PUSH1 0x0 PUSH2 0x388 JUMP JUMPDEST PUSH2 0x427 PUSH2 0x414 PUSH2 0x392 JUMP JUMPDEST SWAP2 DUP3 SWAP1 PUSH2 0x420 JUMP JUMPDEST SWAP2 SWAP1 JUMP JUMPDEST EQ ISZERO PUSH2 0x39C JUMP JUMPDEST PUSH1 0x0 PUSH2 0x3E8 JUMP JUMPDEST PUSH2 0x47 PUSH1 0x1 PUSH2 0x154 JUMP JUMPDEST PUSH2 0x56 PUSH2 0x427 PUSH2 0x42E JUMP JUMPDEST PUSH1 0x1 PUSH1 0x1 PUSH1 0xA0 SHL SUB SWAP2 DUP3 AND DUP2 MSTORE SWAP2 AND PUSH1 0x20 DUP3 ADD MSTORE PUSH1 0x60 DUP2 ADD SWAP3 SWAP2 PUSH2 0x56 SWAP2 PUSH1 0x40 ADD MSTORE JUMP JUMPDEST PUSH4 0x4E487B71 PUSH1 0xE0 SHL PUSH1 0x0 MSTORE PUSH1 0x41 PUSH1 0x4 MSTORE PUSH1 0x24 PUSH1 0x0 REVERT JUMPDEST SWAP1 PUSH1 0x1F ADD PUSH1 0x1F NOT AND DUP2 ADD SWAP1 DUP2 LT PUSH8 0xFFFFFFFFFFFFFFFF DUP3 GT OR PUSH2 0x49F JUMPI PUSH1 0x40 MSTORE JUMP JUMPDEST PUSH2 0x467 JUMP JUMPDEST SWAP1 PUSH2 0x56 PUSH2 0x4B1 PUSH1 0x40 MLOAD SWAP1 JUMP JUMPDEST SWAP3 DUP4 PUSH2 0x47D JUMP JUMPDEST PUSH8 0xFFFFFFFFFFFFFFFF DUP2 GT PUSH2 0x49F JUMPI PUSH1 0x20 SWAP1 PUSH1 0x1F ADD PUSH1 0x1F NOT AND ADD SWAP1 JUMP JUMPDEST SWAP1 PUSH2 0x4E7 PUSH2 0x4E2 DUP4 PUSH2 0x4B8 JUMP JUMPDEST PUSH2 0x4A4 JUMP JUMPDEST SWAP2 DUP3 MSTORE JUMP JUMPDEST RETURNDATASIZE ISZERO PUSH2 0x506 JUMPI PUSH2 0x4FB RETURNDATASIZE PUSH2 0x4D5 JUMP JUMPDEST SWAP1 RETURNDATASIZE PUSH1 0x0 PUSH1 0x20 DUP5 ADD RETURNDATACOPY JUMP JUMPDEST PUSH1 0x60 SWAP1 JUMP JUMPDEST DUP1 ISZERO ISZERO PUSH2 0x92 JUMP JUMPDEST SWAP1 POP MLOAD SWAP1 PUSH2 0x56 DUP3 PUSH2 0x50B JUMP JUMPDEST SWAP1 PUSH1 0x20 DUP3 DUP3 SUB SLT PUSH2 0x37 JUMPI PUSH2 0x47 SWAP2 PUSH2 0x513 JUMP JUMPDEST SWAP1 POP MLOAD SWAP1 PUSH2 0x56 DUP3 PUSH2 0x1AC JUMP JUMPDEST SWAP1 PUSH1 0x20 DUP3 DUP3 SUB SLT PUSH2 0x37 JUMPI PUSH2 0x47 SWAP2 PUSH2 0x534 JUMP JUMPDEST PUSH1 0x40 MLOAD RETURNDATASIZE PUSH1 0x0 DUP3 RETURNDATACOPY RETURNDATASIZE SWAP1 REVERT JUMPDEST SWAP2 SWAP1 SWAP4 SWAP3 PUSH2 0x56D PUSH1 0x0 SWAP1 JUMP JUMPDEST POP PUSH1 0x0 SWAP3 PUSH2 0x57A DUP5 PUSH2 0x154 JUMP JUMPDEST DUP3 EQ PUSH2 0x7C4 JUMPI PUSH20 0xEEEEEEEEEEEEEEEEEEEEEEEEEEEEEEEEEEEEEEEE PUSH1 0x1 PUSH1 0x1 PUSH1 0xA0 SHL SUB DUP3 AND SUB PUSH2 0x5C5 JUMPI POP DUP3 SWAP4 SWAP5 POP PUSH2 0x5B2 PUSH1 0x40 MLOAD SWAP1 JUMP JUMPDEST SWAP1 DUP2 DUP1 SUB SWAP3 GAS CALL PUSH2 0x5C1 PUSH2 0x4EC JUMP JUMPDEST POP SWAP1 JUMP JUMPDEST SWAP3 DUP1 PUSH1 0x4 PUSH2 0x604 DUP3 SWAP6 PUSH2 0x5F5 DUP7 PUSH4 0x23B872DD PUSH1 0xE0 SHL SWAP3 DUP13 PUSH2 0x5E5 PUSH1 0x40 MLOAD SWAP1 JUMP JUMPDEST SWAP7 DUP8 SWAP6 PUSH1 0x20 DUP8 ADD SWAP1 DUP2 MSTORE ADD PUSH2 0x443 JUMP JUMPDEST PUSH1 0x20 DUP3 ADD DUP2 SUB DUP3 MSTORE SUB DUP3 PUSH2 0x47D JUMP JUMPDEST DUP1 MLOAD SWAP1 PUSH1 0x20 ADD DUP3 DUP8 GAS CALL SWAP5 PUSH2 0x617 PUSH2 0x4EC JUMP JUMPDEST DUP7 ISZERO SWAP1 DUP2 ISZERO PUSH2 0x77B JUMPI JUMPDEST POP PUSH2 0x62D JUMPI JUMPDEST POP POP POP POP JUMP JUMPDEST SWAP1 SWAP2 SWAP3 SWAP5 POP PUSH2 0x644 PUSH2 0x63F DUP5 SWAP7 PUSH2 0x1D9 JUMP JUMPDEST PUSH2 0x1D9 JUMP JUMPDEST SWAP1 PUSH4 0x70A08231 PUSH2 0x65D PUSH2 0x656 PUSH1 0x40 MLOAD SWAP1 JUMP JUMPDEST SWAP2 PUSH1 0xE0 SHL SWAP1 JUMP JUMPDEST DUP2 MSTORE PUSH1 0x1 PUSH1 0x1 PUSH1 0xA0 SHL SUB DUP3 AND PUSH1 0x4 DUP3 ADD MSTORE PUSH1 0x20 DUP2 PUSH1 0x24 DUP2 DUP7 GAS STATICCALL SWAP1 DUP2 ISZERO PUSH2 0x746 JUMPI DUP6 SWAP2 PUSH2 0x75D JUMPI JUMPDEST POP DUP4 GT PUSH2 0x74B JUMPI PUSH1 0x20 SWAP1 PUSH4 0xDD62ED3E SWAP3 PUSH2 0x6BB PUSH2 0x6A1 ADDRESS PUSH2 0x1D9 JUMP JUMPDEST SWAP5 PUSH2 0x6DA PUSH2 0x6AE PUSH1 0x40 MLOAD SWAP1 JUMP JUMPDEST SWAP7 DUP8 SWAP6 DUP7 SWAP5 DUP6 SWAP5 PUSH1 0xE0 SHL SWAP1 JUMP JUMPDEST DUP5 MSTORE PUSH1 0x1 PUSH1 0x1 PUSH1 0xA0 SHL SUB SWAP1 DUP2 AND PUSH1 0x4 DUP6 ADD MSTORE AND PUSH1 0x24 DUP4 ADD MSTORE PUSH1 0x44 DUP3 ADD SWAP1 JUMP JUMPDEST SUB SWAP2 GAS STATICCALL SWAP3 DUP4 ISZERO PUSH2 0x746 JUMPI SWAP3 PUSH2 0x70E JUMPI JUMPDEST POP SWAP1 JUMPDEST LT PUSH2 0x6FC JUMPI CODESIZE DUP1 DUP1 DUP1 PUSH2 0x627 JUMP JUMPDEST PUSH1 0x40 MLOAD PUSH4 0x13BE252B PUSH1 0xE0 SHL DUP2 MSTORE PUSH1 0x4 SWAP1 REVERT JUMPDEST PUSH2 0x6EE SWAP2 SWAP3 POP PUSH2 0x737 PUSH2 0x41C SWAP2 PUSH1 0x20 RETURNDATASIZE DUP2 GT PUSH2 0x73F JUMPI JUMPDEST PUSH2 0x72F DUP2 DUP4 PUSH2 0x47D JUMP JUMPDEST DUP2 ADD SWAP1 PUSH2 0x541 JUMP JUMPDEST SWAP3 SWAP2 POP PUSH2 0x6EB JUMP JUMPDEST POP RETURNDATASIZE PUSH2 0x725 JUMP JUMPDEST PUSH2 0x555 JUMP JUMPDEST PUSH1 0x40 MLOAD PUSH4 0x1E9ACF17 PUSH1 0xE3 SHL DUP2 MSTORE PUSH1 0x4 SWAP1 REVERT JUMPDEST PUSH2 0x775 SWAP2 POP PUSH1 0x20 RETURNDATASIZE DUP2 GT PUSH2 0x73F JUMPI PUSH2 0x72F DUP2 DUP4 PUSH2 0x47D JUMP JUMPDEST CODESIZE PUSH2 0x685 JUMP JUMPDEST SWAP1 POP PUSH2 0x785 DUP2 MLOAD SWAP1 JUMP JUMPDEST PUSH2 0x791 PUSH2 0x41C DUP7 PUSH2 0x154 JUMP JUMPDEST GT SWAP1 DUP2 PUSH2 0x7A0 JUMPI JUMPDEST POP CODESIZE PUSH2 0x621 JUMP JUMPDEST PUSH2 0x7BE SWAP2 POP DUP1 PUSH1 0x20 PUSH2 0x7B3 PUSH2 0x290 SWAP4 MLOAD SWAP1 JUMP JUMPDEST DUP2 DUP4 ADD ADD SWAP2 ADD PUSH2 0x520 JUMP JUMPDEST CODESIZE PUSH2 0x799 JUMP JUMPDEST POP PUSH1 0x1 SWAP5 POP POP POP POP JUMP INVALID LOG2 PUSH5 0x6970667358 0x22 SLT KECCAK256 0xC2 PUSH9 0xBE60640235073D5A0B 0xB2 REVERT TIMESTAMP 0x4B SLT 0x4B 0xE1 0xDB 0xBF 0x4D PUSH15 0x885A9EC3B904EB635DAF64736F6C63 NUMBER STOP ADDMOD EQ STOP CALLER "},"gasEstimates":{"creation":{"codeDepositCost":"410400","executionCost":"infinite","totalCost":"infinite"},"external":{"NATIVE_TOKEN()":"186","airdrop(address,address,(address,uint256)[])":"infinite"},"internal":{"_safeTransferERC20(address,address,address,uint256)":"infinite","_transferCurrencyWithReturnVal(address,address,address,uint256)":"infinite"}},"methodIdentifiers":{"NATIVE_TOKEN()":"31f7d964","airdrop(address,address,(address,uint256)[])":"da26dbf1"}},"storageLayout":{"storage":[{"astId":231,"contract":"src/AirdropERC20.sol:AirdropERC20","label":"_status","offset":0,"slot":"0","type":"t_uint256"}],"types":{"t_uint256":{"encoding":"inplace","label":"uint256","numberOfBytes":"32"}}},"userdoc":{"kind":"user","methods":{"airdrop(address,address,(address,uint256)[])":{"notice":"Allows the user to distribute ERC20 tokens to a list of addresses."}},"version":1}}}}