{"src/AirdropERC20Claimable.sol":{"AirdropERC20Claimable":{"abi":[{"inputs":[{"internalType":"address","name":"_tokenOwner","type":"address"},{"internalType":"address","name":"_airdropTokenAddress","type":"address"},{"internalType":"uint256","name":"_airdropAmount","type":"uint256"},{"internalType":"uint256","name":"_expirationTimestamp","type":"uint256"},{"internalType":"uint256","name":"_maxWalletClaimCount","type":"uint256"},{"internalType":"bytes32","name":"_merkleRoot","type":"bytes32"}],"stateMutability":"nonpayable","type":"constructor"},{"inputs":[],"name":"AirdropExpired","type":"error"},{"inputs":[],"name":"AlreadyClaimedMax","type":"error"},{"inputs":[{"internalType":"address","name":"tokenOwner","type":"address"},{"internalType":"address","name":"airdropTokenAddress","type":"address"},{"internalType":"uint256","name":"airdropAmount","type":"uint256"}],"name":"InvalidAirdropParameters","type":"error"},{"inputs":[],"name":"InvalidTransferAmount","type":"error"},{"inputs":[],"name":"TransferFailed","type":"error"},{"anonymous":false,"inputs":[{"indexed":true,"internalType":"address","name":"claimer","type":"address"},{"indexed":false,"internalType":"uint256","name":"quantityClaimed","type":"uint256"}],"name":"TokensClaimed","type":"event"},{"inputs":[],"name":"airdropTokenAddress","outputs":[{"internalType":"address","name":"","type":"address"}],"stateMutability":"view","type":"function"},{"inputs":[],"name":"availableAmount","outputs":[{"internalType":"uint256","name":"","type":"uint256"}],"stateMutability":"view","type":"function"},{"inputs":[{"internalType":"uint256","name":"amount","type":"uint256"},{"internalType":"bytes32[]","name":"proofs","type":"bytes32[]"},{"internalType":"uint256","name":"proofMaxQuantityForWallet","type":"uint256"}],"name":"claim","outputs":[],"stateMutability":"nonpayable","type":"function"},{"inputs":[],"name":"expirationTimestamp","outputs":[{"internalType":"uint256","name":"","type":"uint256"}],"stateMutability":"view","type":"function"},{"inputs":[],"name":"maxWalletClaimCount","outputs":[{"internalType":"uint256","name":"","type":"uint256"}],"stateMutability":"view","type":"function"},{"inputs":[],"name":"merkleRoot","outputs":[{"internalType":"bytes32","name":"","type":"bytes32"}],"stateMutability":"view","type":"function"},{"inputs":[],"name":"tokenOwner","outputs":[{"internalType":"address","name":"","type":"address"}],"stateMutability":"view","type":"function"},{"inputs":[{"internalType":"address","name":"claimer","type":"address"}],"name":"totalClaimedByWallet","outputs":[{"internalType":"uint256","name":"amount","type":"uint256"}],"stateMutability":"view","type":"function"},{"inputs":[{"internalType":"address","name":"claimant","type":"address"},{"internalType":"uint256","name":"amount","type":"uint256"},{"internalType":"bytes32[]","name":"proofs","type":"bytes32[]"},{"internalType":"uint256","name":"proofMaxQuantityForWallet","type":"uint256"}],"name":"verifyClaim","outputs":[],"stateMutability":"view","type":"function"}],"devdoc":{"author":"@neuro_0x","details":"A contract for airdropping ERC20 tokens to specific recipients based on Merkle proofs.","events":{"TokensClaimed(address,uint256)":{"details":"Emitted when tokens are claimed"}},"kind":"dev","methods":{"claim(uint256,bytes32[],uint256)":{"details":"Claims tokens from the airdrop.","params":{"amount":"The quantity of tokens to claim.","proofMaxQuantityForWallet":"The maximum quantity of tokens that can be claimed by a wallet.","proofs":"Claims proofs."}},"constructor":{"details":"Initializes the contract.","params":{"_airdropAmount":"The quantity of tokens available for airdrop.","_airdropTokenAddress":"The address of the token to be airdropped.","_expirationTimestamp":"Expiration timestamp of the airdrop.","_maxWalletClaimCount":"Maximum number of tokens that can be claimed by a wallet if not in the whitelist.","_merkleRoot":"Merkle root of the whitelist.","_tokenOwner":"The owner of the token to be airdropped."}},"verifyClaim(address,uint256,bytes32[],uint256)":{"details":"Verifies the claim and reverts if the claim is invalid.","params":{"amount":"The quantity of tokens to claim.","claimant":"The address of the claimer.","proofMaxQuantityForWallet":"The maximum quantity of tokens that can be claimed by a wallet.","proofs":"Claims proofs."}}},"stateVariables":{"airdropTokenAddress":{"details":"The address of the token to be airdropped."},"availableAmount":{"details":"The quantity of tokens available for airdrop."},"expirationTimestamp":{"details":"Expiration timestamp of the airdrop."},"maxWalletClaimCount":{"details":"Maximum number of tokens that can be claimed by a wallet if not in the whitelist."},"merkleRoot":{"details":"Merkle root of the whitelist."},"tokenOwner":{"details":"The owner of the token to be airdropped."},"totalClaimedByWallet":{"details":"Mapping from address => total number of tokens a wallet has claimed."}},"title":"AirdropERC20Claimable","version":1},"evm":{"bytecode":{"linkReferences":{},"object":"6080604052346200003757620000256200001862000141565b9493909392919262000255565b604051610a57620003418239610a5790f35b600080fd5b634e487b7160e01b600052604160045260246000fd5b90601f01601f191681019081106001600160401b038211176200007457604052565b6200003c565b90620000916200008960405190565b928362000052565b565b6001600160a01b031690565b90565b6001600160a01b0381165b036200003757565b905051906200009182620000a2565b80620000ad565b905051906200009182620000c4565b909160c0828403126200003757620000f38383620000b5565b92620001038160208501620000b5565b92620001138260408301620000cb565b926200009f620001278460608501620000cb565b93620001378160808601620000cb565b9360a001620000cb565b6200016462000d988038038062000158816200007a565b928339810190620000da565b909192939495565b620000936200009f6200009f9290565b6200009f906200016c565b6200009f6200009f6200009f9290565b6001600160a01b03918216815291166020820152606081019291620000919160400152565b906001600160a01b03905b9181191691161790565b6200009f9062000093906001600160a01b031682565b6200009f90620001d1565b6200009f90620001e7565b90620002116200009f6200021992620001f2565b8254620001bc565b9055565b9060001990620001c7565b906200023c6200009f620002199262000187565b82546200021d565b906200023c6200009f620002199290565b959493929190956000906200026a826200017c565b6001600160a01b0381166001600160a01b0383161490811562000323575b5080156200030f575b620002e357620002d392620002c3620000919899620002db979694620002bd620002cb956001620001fd565b620001fd565b600262000228565b600362000228565b600462000228565b600562000244565b87906200030b84620002f460405190565b633d7c241d60e01b81529384936004850162000197565b0390fd5b506200031b8262000187565b831462000291565b6001600160a01b031690506001600160a01b03891614386200028856fe6080604052600436101561001257600080fd5b60003560e01c806305981769146100a2578063097b3cdb1461009d5780632eb4a7ab146100985780637dc680771461009357806391f7cfb91461008e5780639f43ddd214610089578063a3e6761014610084578063b73e0e8b1461007f5763f339f526036100a7576103ba565b61035b565b610329565b6102d1565b6102aa565b610283565b6101ff565b6101d2565b6100e2565b600080fd5b60009103126100a757565b6100c2916008021c81565b90565b906100c291546100b7565b6100c2600060046100c5565b9052565b565b346100a7576100f23660046100ac565b61010e6100fd6100d0565b6040515b9182918290815260200190565b0390f35b6001600160a01b031690565b61012781610112565b036100a757565b905035906100e08261011e565b80610127565b905035906100e08261013b565b909182601f830112156100a75781359167ffffffffffffffff83116100a75760200192602083028401116100a757565b9190916080818403126100a757610195838261012e565b926101a38160208401610141565b92604083013567ffffffffffffffff81116100a7576101c7836100c292860161014e565b939094606001610141565b346100a7576101ee6101e536600461017e565b93929092610573565b604051005b6100c2600060056100c5565b346100a75761020f3660046100ac565b61010e6100fd6101f3565b906020828203126100a7576100c29161012e565b6100c290610112906001600160a01b031682565b6100c29061022e565b6100c290610242565b9061025e9061024b565b600052602052604060002090565b6100c29061027e600691600092610254565b6100c5565b346100a75761010e6100fd61029936600461021a565b61026c565b6100c2600060026100c5565b346100a7576102ba3660046100ac565b61010e6100fd61029e565b6100c2600060036100c5565b346100a7576102e13660046100ac565b61010e6100fd6102c5565b6100c2916008021c610112565b906100c291546102ec565b6100c2600060016102f9565b6100dc90610112565b6020810192916100e09190610310565b346100a7576103393660046100ac565b61010e610344610304565b60405191829182610319565b6100c26000806102f9565b346100a75761036b3660046100ac565b61010e610344610350565b906060828203126100a75761038b8183610141565b92602083013567ffffffffffffffff81116100a7576103af836100c292860161014e565b939094604001610141565b346100a7576101ee6103cd366004610376565b33926103db92908585610573565b6103e582826108c1565b61041c6104127f896e034966eaaf1adc54acc0f257056febbd300c9e47182cf761982cf1f5e4309261024b565b9261010160405190565b0390a2565b6100c29081565b6100c29054610421565b6100c26100c26100c29290565b60601b90565b6100c29061043f565b61045a6100dc91610112565b610445565b601481610472610478936020969561044e565b01918252565b0190565b634e487b7160e01b600052604160045260246000fd5b90601f01601f1916810190811067ffffffffffffffff8211176104b457604052565b61047c565b906100e06104c660405190565b9283610492565b67ffffffffffffffff81116104b45760208091020190565b909291926104fa6104f5826104cd565b6104b9565b93818552602080860192028301928184116100a757915b83831061051e5750505050565b6020809161052c8486610141565b815201920191610511565b6100c29136916104e5565b634e487b7160e01b600052601160045260246000fd5b9190610563565b9290565b820180921161056e57565b610542565b909392906000926105846005610428565b9260009361059b6105976100c287610432565b9190565b03610678575b50506105b16105b6916006610254565b610428565b6105bf82610432565b85148015610663575b610651576105d66003610428565b6105df83610432565b8114159081610646575b5061063457610606936105979361055f9350156106235794610558565b1161060d57565b604051630ce2eab560e11b8152600490fd5b0390fd5b5061062e6004610428565b94610558565b604051635228cdbf60e01b8152600490fd5b9050421015386105e9565b604051630f16a02160e21b8152600490fd5b506106716100c26002610428565b85116105c8565b6105b69294506105b1916106dd916106d86106936005610428565b916106b36106bf8b8b6106a560405190565b93849260208401928361045f565b90810382520382610492565b6106d16106ca825190565b9160200190565b2093610537565b6106e4565b93916105a1565b61055f6106fe9293610597926106f8600090565b5061074a565b1490565b600019811461056e5760010190565b634e487b7160e01b600052603260045260246000fd5b90610730825190565b811015610741576020809102010190565b610711565b5190565b6107546000610432565b915b6107616100c2835190565b8310156107935761078761078d9161078161077c8686610727565b610746565b90610799565b92610702565b91610756565b91505090565b818110156107b457906100c291600052602052604060002090565b6100c291600052602052604060002090565b906100c26100c26107d692610432565b9055565b9190820391821161056e57565b6100c290610112565b6100c290546107e7565b801515610127565b905051906100e0826107fa565b906020828203126100a7576100c291610802565b9160206100e092949361083e60408201966000830190610310565b0152565b6040513d6000823e3d90fd5b60409061083e6100e0949695939661086e60608401986000850190610310565b6020830190610310565b6020808252600f908201526e151c985b9cd9995c8819985a5b1959608a1b604082015260600190565b156108a857565b60405162461bcd60e51b81528061061f60048201610878565b906108e86108d0336006610254565b6108e2836108dd83610428565b610558565b906107c6565b6109056108fe826108f96002610428565b6107da565b60026107c6565b61091a61091561091560006107f0565b61024b565b9063a9059cbb61093361092c60405190565b9160e01b90565b815260208180610947858860048401610823565b03816000875af180156109ee5761096491600091610a0557501590565b6109f35760209161099960006323b872dd6109a461098260016107f0565b9561098c60405190565b9889978896879560e01b90565b85526004850161084e565b03925af180156109ee576100e0916000916109c0575b506108a1565b6109e1915060203d81116109e7575b6109d98183610492565b81019061080f565b386109ba565b503d6109cf565b610842565b6040516312171d8360e31b8152600490fd5b610a1d915060203d81116109e7576109d98183610492565b159056fea26469706673582212207661dd8897b171d24341442e29fdf264e9fff91a08a7d421ce787dbf17ceaac064736f6c63430008140033","opcodes":"PUSH1 0x80 PUSH1 0x40 MSTORE CALLVALUE PUSH3 0x37 JUMPI PUSH3 0x25 PUSH3 0x18 PUSH3 0x141 JUMP JUMPDEST SWAP5 SWAP4 SWAP1 SWAP4 SWAP3 SWAP2 SWAP3 PUSH3 0x255 JUMP JUMPDEST PUSH1 0x40 MLOAD PUSH2 0xA57 PUSH3 0x341 DUP3 CODECOPY PUSH2 0xA57 SWAP1 RETURN JUMPDEST PUSH1 0x0 DUP1 REVERT JUMPDEST PUSH4 0x4E487B71 PUSH1 0xE0 SHL PUSH1 0x0 MSTORE PUSH1 0x41 PUSH1 0x4 MSTORE PUSH1 0x24 PUSH1 0x0 REVERT JUMPDEST SWAP1 PUSH1 0x1F ADD PUSH1 0x1F NOT AND DUP2 ADD SWAP1 DUP2 LT PUSH1 0x1 PUSH1 0x1 PUSH1 0x40 SHL SUB DUP3 GT OR PUSH3 0x74 JUMPI PUSH1 0x40 MSTORE JUMP JUMPDEST PUSH3 0x3C JUMP JUMPDEST SWAP1 PUSH3 0x91 PUSH3 0x89 PUSH1 0x40 MLOAD SWAP1 JUMP JUMPDEST SWAP3 DUP4 PUSH3 0x52 JUMP JUMPDEST JUMP JUMPDEST PUSH1 0x1 PUSH1 0x1 PUSH1 0xA0 SHL SUB AND SWAP1 JUMP JUMPDEST SWAP1 JUMP JUMPDEST PUSH1 0x1 PUSH1 0x1 PUSH1 0xA0 SHL SUB DUP2 AND JUMPDEST SUB PUSH3 0x37 JUMPI JUMP JUMPDEST SWAP1 POP MLOAD SWAP1 PUSH3 0x91 DUP3 PUSH3 0xA2 JUMP JUMPDEST DUP1 PUSH3 0xAD JUMP JUMPDEST SWAP1 POP MLOAD SWAP1 PUSH3 0x91 DUP3 PUSH3 0xC4 JUMP JUMPDEST SWAP1 SWAP2 PUSH1 0xC0 DUP3 DUP5 SUB SLT PUSH3 0x37 JUMPI PUSH3 0xF3 DUP4 DUP4 PUSH3 0xB5 JUMP JUMPDEST SWAP3 PUSH3 0x103 DUP2 PUSH1 0x20 DUP6 ADD PUSH3 0xB5 JUMP JUMPDEST SWAP3 PUSH3 0x113 DUP3 PUSH1 0x40 DUP4 ADD PUSH3 0xCB JUMP JUMPDEST SWAP3 PUSH3 0x9F PUSH3 0x127 DUP5 PUSH1 0x60 DUP6 ADD PUSH3 0xCB JUMP JUMPDEST SWAP4 PUSH3 0x137 DUP2 PUSH1 0x80 DUP7 ADD PUSH3 0xCB JUMP JUMPDEST SWAP4 PUSH1 0xA0 ADD PUSH3 0xCB JUMP JUMPDEST PUSH3 0x164 PUSH3 0xD98 DUP1 CODESIZE SUB DUP1 PUSH3 0x158 DUP2 PUSH3 0x7A JUMP JUMPDEST SWAP3 DUP4 CODECOPY DUP2 ADD SWAP1 PUSH3 0xDA JUMP JUMPDEST SWAP1 SWAP2 SWAP3 SWAP4 SWAP5 SWAP6 JUMP JUMPDEST PUSH3 0x93 PUSH3 0x9F PUSH3 0x9F SWAP3 SWAP1 JUMP JUMPDEST PUSH3 0x9F SWAP1 PUSH3 0x16C JUMP JUMPDEST PUSH3 0x9F PUSH3 0x9F PUSH3 0x9F SWAP3 SWAP1 JUMP JUMPDEST PUSH1 0x1 PUSH1 0x1 PUSH1 0xA0 SHL SUB SWAP2 DUP3 AND DUP2 MSTORE SWAP2 AND PUSH1 0x20 DUP3 ADD MSTORE PUSH1 0x60 DUP2 ADD SWAP3 SWAP2 PUSH3 0x91 SWAP2 PUSH1 0x40 ADD MSTORE JUMP JUMPDEST SWAP1 PUSH1 0x1 PUSH1 0x1 PUSH1 0xA0 SHL SUB SWAP1 JUMPDEST SWAP2 DUP2 NOT AND SWAP2 AND OR SWAP1 JUMP JUMPDEST PUSH3 0x9F SWAP1 PUSH3 0x93 SWAP1 PUSH1 0x1 PUSH1 0x1 PUSH1 0xA0 SHL SUB AND DUP3 JUMP JUMPDEST PUSH3 0x9F SWAP1 PUSH3 0x1D1 JUMP JUMPDEST PUSH3 0x9F SWAP1 PUSH3 0x1E7 JUMP JUMPDEST SWAP1 PUSH3 0x211 PUSH3 0x9F PUSH3 0x219 SWAP3 PUSH3 0x1F2 JUMP JUMPDEST DUP3 SLOAD PUSH3 0x1BC JUMP JUMPDEST SWAP1 SSTORE JUMP JUMPDEST SWAP1 PUSH1 0x0 NOT SWAP1 PUSH3 0x1C7 JUMP JUMPDEST SWAP1 PUSH3 0x23C PUSH3 0x9F PUSH3 0x219 SWAP3 PUSH3 0x187 JUMP JUMPDEST DUP3 SLOAD PUSH3 0x21D JUMP JUMPDEST SWAP1 PUSH3 0x23C PUSH3 0x9F PUSH3 0x219 SWAP3 SWAP1 JUMP JUMPDEST SWAP6 SWAP5 SWAP4 SWAP3 SWAP2 SWAP1 SWAP6 PUSH1 0x0 SWAP1 PUSH3 0x26A DUP3 PUSH3 0x17C JUMP JUMPDEST PUSH1 0x1 PUSH1 0x1 PUSH1 0xA0 SHL SUB DUP2 AND PUSH1 0x1 PUSH1 0x1 PUSH1 0xA0 SHL SUB DUP4 AND EQ SWAP1 DUP2 ISZERO PUSH3 0x323 JUMPI JUMPDEST POP DUP1 ISZERO PUSH3 0x30F JUMPI JUMPDEST PUSH3 0x2E3 JUMPI PUSH3 0x2D3 SWAP3 PUSH3 0x2C3 PUSH3 0x91 SWAP9 SWAP10 PUSH3 0x2DB SWAP8 SWAP7 SWAP5 PUSH3 0x2BD PUSH3 0x2CB SWAP6 PUSH1 0x1 PUSH3 0x1FD JUMP JUMPDEST PUSH3 0x1FD JUMP JUMPDEST PUSH1 0x2 PUSH3 0x228 JUMP JUMPDEST PUSH1 0x3 PUSH3 0x228 JUMP JUMPDEST PUSH1 0x4 PUSH3 0x228 JUMP JUMPDEST PUSH1 0x5 PUSH3 0x244 JUMP JUMPDEST DUP8 SWAP1 PUSH3 0x30B DUP5 PUSH3 0x2F4 PUSH1 0x40 MLOAD SWAP1 JUMP JUMPDEST PUSH4 0x3D7C241D PUSH1 0xE0 SHL DUP2 MSTORE SWAP4 DUP5 SWAP4 PUSH1 0x4 DUP6 ADD PUSH3 0x197 JUMP JUMPDEST SUB SWAP1 REVERT JUMPDEST POP PUSH3 0x31B DUP3 PUSH3 0x187 JUMP JUMPDEST DUP4 EQ PUSH3 0x291 JUMP JUMPDEST PUSH1 0x1 PUSH1 0x1 PUSH1 0xA0 SHL SUB AND SWAP1 POP PUSH1 0x1 PUSH1 0x1 PUSH1 0xA0 SHL SUB DUP10 AND EQ CODESIZE PUSH3 0x288 JUMP INVALID PUSH1 0x80 PUSH1 0x40 MSTORE PUSH1 0x4 CALLDATASIZE LT ISZERO PUSH2 0x12 JUMPI PUSH1 0x0 DUP1 REVERT JUMPDEST PUSH1 0x0 CALLDATALOAD PUSH1 0xE0 SHR DUP1 PUSH4 0x5981769 EQ PUSH2 0xA2 JUMPI DUP1 PUSH4 0x97B3CDB EQ PUSH2 0x9D JUMPI DUP1 PUSH4 0x2EB4A7AB EQ PUSH2 0x98 JUMPI DUP1 PUSH4 0x7DC68077 EQ PUSH2 0x93 JUMPI DUP1 PUSH4 0x91F7CFB9 EQ PUSH2 0x8E JUMPI DUP1 PUSH4 0x9F43DDD2 EQ PUSH2 0x89 JUMPI DUP1 PUSH4 0xA3E67610 EQ PUSH2 0x84 JUMPI DUP1 PUSH4 0xB73E0E8B EQ PUSH2 0x7F JUMPI PUSH4 0xF339F526 SUB PUSH2 0xA7 JUMPI PUSH2 0x3BA JUMP JUMPDEST PUSH2 0x35B JUMP JUMPDEST PUSH2 0x329 JUMP JUMPDEST PUSH2 0x2D1 JUMP JUMPDEST PUSH2 0x2AA JUMP JUMPDEST PUSH2 0x283 JUMP JUMPDEST PUSH2 0x1FF JUMP JUMPDEST PUSH2 0x1D2 JUMP JUMPDEST PUSH2 0xE2 JUMP JUMPDEST PUSH1 0x0 DUP1 REVERT JUMPDEST PUSH1 0x0 SWAP2 SUB SLT PUSH2 0xA7 JUMPI JUMP JUMPDEST PUSH2 0xC2 SWAP2 PUSH1 0x8 MUL SHR DUP2 JUMP JUMPDEST SWAP1 JUMP JUMPDEST SWAP1 PUSH2 0xC2 SWAP2 SLOAD PUSH2 0xB7 JUMP JUMPDEST PUSH2 0xC2 PUSH1 0x0 PUSH1 0x4 PUSH2 0xC5 JUMP JUMPDEST SWAP1 MSTORE JUMP JUMPDEST JUMP JUMPDEST CALLVALUE PUSH2 0xA7 JUMPI PUSH2 0xF2 CALLDATASIZE PUSH1 0x4 PUSH2 0xAC JUMP JUMPDEST PUSH2 0x10E PUSH2 0xFD PUSH2 0xD0 JUMP JUMPDEST PUSH1 0x40 MLOAD JUMPDEST SWAP2 DUP3 SWAP2 DUP3 SWAP1 DUP2 MSTORE PUSH1 0x20 ADD SWAP1 JUMP JUMPDEST SUB SWAP1 RETURN JUMPDEST PUSH1 0x1 PUSH1 0x1 PUSH1 0xA0 SHL SUB AND SWAP1 JUMP JUMPDEST PUSH2 0x127 DUP2 PUSH2 0x112 JUMP JUMPDEST SUB PUSH2 0xA7 JUMPI JUMP JUMPDEST SWAP1 POP CALLDATALOAD SWAP1 PUSH2 0xE0 DUP3 PUSH2 0x11E JUMP JUMPDEST DUP1 PUSH2 0x127 JUMP JUMPDEST SWAP1 POP CALLDATALOAD SWAP1 PUSH2 0xE0 DUP3 PUSH2 0x13B JUMP JUMPDEST SWAP1 SWAP2 DUP3 PUSH1 0x1F DUP4 ADD SLT ISZERO PUSH2 0xA7 JUMPI DUP2 CALLDATALOAD SWAP2 PUSH8 0xFFFFFFFFFFFFFFFF DUP4 GT PUSH2 0xA7 JUMPI PUSH1 0x20 ADD SWAP3 PUSH1 0x20 DUP4 MUL DUP5 ADD GT PUSH2 0xA7 JUMPI JUMP JUMPDEST SWAP2 SWAP1 SWAP2 PUSH1 0x80 DUP2 DUP5 SUB SLT PUSH2 0xA7 JUMPI PUSH2 0x195 DUP4 DUP3 PUSH2 0x12E JUMP JUMPDEST SWAP3 PUSH2 0x1A3 DUP2 PUSH1 0x20 DUP5 ADD PUSH2 0x141 JUMP JUMPDEST SWAP3 PUSH1 0x40 DUP4 ADD CALLDATALOAD PUSH8 0xFFFFFFFFFFFFFFFF DUP2 GT PUSH2 0xA7 JUMPI PUSH2 0x1C7 DUP4 PUSH2 0xC2 SWAP3 DUP7 ADD PUSH2 0x14E JUMP JUMPDEST SWAP4 SWAP1 SWAP5 PUSH1 0x60 ADD PUSH2 0x141 JUMP JUMPDEST CALLVALUE PUSH2 0xA7 JUMPI PUSH2 0x1EE PUSH2 0x1E5 CALLDATASIZE PUSH1 0x4 PUSH2 0x17E JUMP JUMPDEST SWAP4 SWAP3 SWAP1 SWAP3 PUSH2 0x573 JUMP JUMPDEST PUSH1 0x40 MLOAD STOP JUMPDEST PUSH2 0xC2 PUSH1 0x0 PUSH1 0x5 PUSH2 0xC5 JUMP JUMPDEST CALLVALUE PUSH2 0xA7 JUMPI PUSH2 0x20F CALLDATASIZE PUSH1 0x4 PUSH2 0xAC JUMP JUMPDEST PUSH2 0x10E PUSH2 0xFD PUSH2 0x1F3 JUMP JUMPDEST SWAP1 PUSH1 0x20 DUP3 DUP3 SUB SLT PUSH2 0xA7 JUMPI PUSH2 0xC2 SWAP2 PUSH2 0x12E JUMP JUMPDEST PUSH2 0xC2 SWAP1 PUSH2 0x112 SWAP1 PUSH1 0x1 PUSH1 0x1 PUSH1 0xA0 SHL SUB AND DUP3 JUMP JUMPDEST PUSH2 0xC2 SWAP1 PUSH2 0x22E JUMP JUMPDEST PUSH2 0xC2 SWAP1 PUSH2 0x242 JUMP JUMPDEST SWAP1 PUSH2 0x25E SWAP1 PUSH2 0x24B JUMP JUMPDEST PUSH1 0x0 MSTORE PUSH1 0x20 MSTORE PUSH1 0x40 PUSH1 0x0 KECCAK256 SWAP1 JUMP JUMPDEST PUSH2 0xC2 SWAP1 PUSH2 0x27E PUSH1 0x6 SWAP2 PUSH1 0x0 SWAP3 PUSH2 0x254 JUMP JUMPDEST PUSH2 0xC5 JUMP JUMPDEST CALLVALUE PUSH2 0xA7 JUMPI PUSH2 0x10E PUSH2 0xFD PUSH2 0x299 CALLDATASIZE PUSH1 0x4 PUSH2 0x21A JUMP JUMPDEST PUSH2 0x26C JUMP JUMPDEST PUSH2 0xC2 PUSH1 0x0 PUSH1 0x2 PUSH2 0xC5 JUMP JUMPDEST CALLVALUE PUSH2 0xA7 JUMPI PUSH2 0x2BA CALLDATASIZE PUSH1 0x4 PUSH2 0xAC JUMP JUMPDEST PUSH2 0x10E PUSH2 0xFD PUSH2 0x29E JUMP JUMPDEST PUSH2 0xC2 PUSH1 0x0 PUSH1 0x3 PUSH2 0xC5 JUMP JUMPDEST CALLVALUE PUSH2 0xA7 JUMPI PUSH2 0x2E1 CALLDATASIZE PUSH1 0x4 PUSH2 0xAC JUMP JUMPDEST PUSH2 0x10E PUSH2 0xFD PUSH2 0x2C5 JUMP JUMPDEST PUSH2 0xC2 SWAP2 PUSH1 0x8 MUL SHR PUSH2 0x112 JUMP JUMPDEST SWAP1 PUSH2 0xC2 SWAP2 SLOAD PUSH2 0x2EC JUMP JUMPDEST PUSH2 0xC2 PUSH1 0x0 PUSH1 0x1 PUSH2 0x2F9 JUMP JUMPDEST PUSH2 0xDC SWAP1 PUSH2 0x112 JUMP JUMPDEST PUSH1 0x20 DUP2 ADD SWAP3 SWAP2 PUSH2 0xE0 SWAP2 SWAP1 PUSH2 0x310 JUMP JUMPDEST CALLVALUE PUSH2 0xA7 JUMPI PUSH2 0x339 CALLDATASIZE PUSH1 0x4 PUSH2 0xAC JUMP JUMPDEST PUSH2 0x10E PUSH2 0x344 PUSH2 0x304 JUMP JUMPDEST PUSH1 0x40 MLOAD SWAP2 DUP3 SWAP2 DUP3 PUSH2 0x319 JUMP JUMPDEST PUSH2 0xC2 PUSH1 0x0 DUP1 PUSH2 0x2F9 JUMP JUMPDEST CALLVALUE PUSH2 0xA7 JUMPI PUSH2 0x36B CALLDATASIZE PUSH1 0x4 PUSH2 0xAC JUMP JUMPDEST PUSH2 0x10E PUSH2 0x344 PUSH2 0x350 JUMP JUMPDEST SWAP1 PUSH1 0x60 DUP3 DUP3 SUB SLT PUSH2 0xA7 JUMPI PUSH2 0x38B DUP2 DUP4 PUSH2 0x141 JUMP JUMPDEST SWAP3 PUSH1 0x20 DUP4 ADD CALLDATALOAD PUSH8 0xFFFFFFFFFFFFFFFF DUP2 GT PUSH2 0xA7 JUMPI PUSH2 0x3AF DUP4 PUSH2 0xC2 SWAP3 DUP7 ADD PUSH2 0x14E JUMP JUMPDEST SWAP4 SWAP1 SWAP5 PUSH1 0x40 ADD PUSH2 0x141 JUMP JUMPDEST CALLVALUE PUSH2 0xA7 JUMPI PUSH2 0x1EE PUSH2 0x3CD CALLDATASIZE PUSH1 0x4 PUSH2 0x376 JUMP JUMPDEST CALLER SWAP3 PUSH2 0x3DB SWAP3 SWAP1 DUP6 DUP6 PUSH2 0x573 JUMP JUMPDEST PUSH2 0x3E5 DUP3 DUP3 PUSH2 0x8C1 JUMP JUMPDEST PUSH2 0x41C PUSH2 0x412 PUSH32 0x896E034966EAAF1ADC54ACC0F257056FEBBD300C9E47182CF761982CF1F5E430 SWAP3 PUSH2 0x24B JUMP JUMPDEST SWAP3 PUSH2 0x101 PUSH1 0x40 MLOAD SWAP1 JUMP JUMPDEST SUB SWAP1 LOG2 JUMP JUMPDEST PUSH2 0xC2 SWAP1 DUP2 JUMP JUMPDEST PUSH2 0xC2 SWAP1 SLOAD PUSH2 0x421 JUMP JUMPDEST PUSH2 0xC2 PUSH2 0xC2 PUSH2 0xC2 SWAP3 SWAP1 JUMP JUMPDEST PUSH1 0x60 SHL SWAP1 JUMP JUMPDEST PUSH2 0xC2 SWAP1 PUSH2 0x43F JUMP JUMPDEST PUSH2 0x45A PUSH2 0xDC SWAP2 PUSH2 0x112 JUMP JUMPDEST PUSH2 0x445 JUMP JUMPDEST PUSH1 0x14 DUP2 PUSH2 0x472 PUSH2 0x478 SWAP4 PUSH1 0x20 SWAP7 SWAP6 PUSH2 0x44E JUMP JUMPDEST ADD SWAP2 DUP3 MSTORE JUMP JUMPDEST ADD SWAP1 JUMP JUMPDEST PUSH4 0x4E487B71 PUSH1 0xE0 SHL PUSH1 0x0 MSTORE PUSH1 0x41 PUSH1 0x4 MSTORE PUSH1 0x24 PUSH1 0x0 REVERT JUMPDEST SWAP1 PUSH1 0x1F ADD PUSH1 0x1F NOT AND DUP2 ADD SWAP1 DUP2 LT PUSH8 0xFFFFFFFFFFFFFFFF DUP3 GT OR PUSH2 0x4B4 JUMPI PUSH1 0x40 MSTORE JUMP JUMPDEST PUSH2 0x47C JUMP JUMPDEST SWAP1 PUSH2 0xE0 PUSH2 0x4C6 PUSH1 0x40 MLOAD SWAP1 JUMP JUMPDEST SWAP3 DUP4 PUSH2 0x492 JUMP JUMPDEST PUSH8 0xFFFFFFFFFFFFFFFF DUP2 GT PUSH2 0x4B4 JUMPI PUSH1 0x20 DUP1 SWAP2 MUL ADD SWAP1 JUMP JUMPDEST SWAP1 SWAP3 SWAP2 SWAP3 PUSH2 0x4FA PUSH2 0x4F5 DUP3 PUSH2 0x4CD JUMP JUMPDEST PUSH2 0x4B9 JUMP JUMPDEST SWAP4 DUP2 DUP6 MSTORE PUSH1 0x20 DUP1 DUP7 ADD SWAP3 MUL DUP4 ADD SWAP3 DUP2 DUP5 GT PUSH2 0xA7 JUMPI SWAP2 JUMPDEST DUP4 DUP4 LT PUSH2 0x51E JUMPI POP POP POP POP JUMP JUMPDEST PUSH1 0x20 DUP1 SWAP2 PUSH2 0x52C DUP5 DUP7 PUSH2 0x141 JUMP JUMPDEST DUP2 MSTORE ADD SWAP3 ADD SWAP2 PUSH2 0x511 JUMP JUMPDEST PUSH2 0xC2 SWAP2 CALLDATASIZE SWAP2 PUSH2 0x4E5 JUMP JUMPDEST PUSH4 0x4E487B71 PUSH1 0xE0 SHL PUSH1 0x0 MSTORE PUSH1 0x11 PUSH1 0x4 MSTORE PUSH1 0x24 PUSH1 0x0 REVERT JUMPDEST SWAP2 SWAP1 PUSH2 0x563 JUMP JUMPDEST SWAP3 SWAP1 JUMP JUMPDEST DUP3 ADD DUP1 SWAP3 GT PUSH2 0x56E JUMPI JUMP JUMPDEST PUSH2 0x542 JUMP JUMPDEST SWAP1 SWAP4 SWAP3 SWAP1 PUSH1 0x0 SWAP3 PUSH2 0x584 PUSH1 0x5 PUSH2 0x428 JUMP JUMPDEST SWAP3 PUSH1 0x0 SWAP4 PUSH2 0x59B PUSH2 0x597 PUSH2 0xC2 DUP8 PUSH2 0x432 JUMP JUMPDEST SWAP2 SWAP1 JUMP JUMPDEST SUB PUSH2 0x678 JUMPI JUMPDEST POP POP PUSH2 0x5B1 PUSH2 0x5B6 SWAP2 PUSH1 0x6 PUSH2 0x254 JUMP JUMPDEST PUSH2 0x428 JUMP JUMPDEST PUSH2 0x5BF DUP3 PUSH2 0x432 JUMP JUMPDEST DUP6 EQ DUP1 ISZERO PUSH2 0x663 JUMPI JUMPDEST PUSH2 0x651 JUMPI PUSH2 0x5D6 PUSH1 0x3 PUSH2 0x428 JUMP JUMPDEST PUSH2 0x5DF DUP4 PUSH2 0x432 JUMP JUMPDEST DUP2 EQ ISZERO SWAP1 DUP2 PUSH2 0x646 JUMPI JUMPDEST POP PUSH2 0x634 JUMPI PUSH2 0x606 SWAP4 PUSH2 0x597 SWAP4 PUSH2 0x55F SWAP4 POP ISZERO PUSH2 0x623 JUMPI SWAP5 PUSH2 0x558 JUMP JUMPDEST GT PUSH2 0x60D JUMPI JUMP JUMPDEST PUSH1 0x40 MLOAD PUSH4 0xCE2EAB5 PUSH1 0xE1 SHL DUP2 MSTORE PUSH1 0x4 SWAP1 REVERT JUMPDEST SUB SWAP1 REVERT JUMPDEST POP PUSH2 0x62E PUSH1 0x4 PUSH2 0x428 JUMP JUMPDEST SWAP5 PUSH2 0x558 JUMP JUMPDEST PUSH1 0x40 MLOAD PUSH4 0x5228CDBF PUSH1 0xE0 SHL DUP2 MSTORE PUSH1 0x4 SWAP1 REVERT JUMPDEST SWAP1 POP TIMESTAMP LT ISZERO CODESIZE PUSH2 0x5E9 JUMP JUMPDEST PUSH1 0x40 MLOAD PUSH4 0xF16A021 PUSH1 0xE2 SHL DUP2 MSTORE PUSH1 0x4 SWAP1 REVERT JUMPDEST POP PUSH2 0x671 PUSH2 0xC2 PUSH1 0x2 PUSH2 0x428 JUMP JUMPDEST DUP6 GT PUSH2 0x5C8 JUMP JUMPDEST PUSH2 0x5B6 SWAP3 SWAP5 POP PUSH2 0x5B1 SWAP2 PUSH2 0x6DD SWAP2 PUSH2 0x6D8 PUSH2 0x693 PUSH1 0x5 PUSH2 0x428 JUMP JUMPDEST SWAP2 PUSH2 0x6B3 PUSH2 0x6BF DUP12 DUP12 PUSH2 0x6A5 PUSH1 0x40 MLOAD SWAP1 JUMP JUMPDEST SWAP4 DUP5 SWAP3 PUSH1 0x20 DUP5 ADD SWAP3 DUP4 PUSH2 0x45F JUMP JUMPDEST SWAP1 DUP2 SUB DUP3 MSTORE SUB DUP3 PUSH2 0x492 JUMP JUMPDEST PUSH2 0x6D1 PUSH2 0x6CA DUP3 MLOAD SWAP1 JUMP JUMPDEST SWAP2 PUSH1 0x20 ADD SWAP1 JUMP JUMPDEST KECCAK256 SWAP4 PUSH2 0x537 JUMP JUMPDEST PUSH2 0x6E4 JUMP JUMPDEST SWAP4 SWAP2 PUSH2 0x5A1 JUMP JUMPDEST PUSH2 0x55F PUSH2 0x6FE SWAP3 SWAP4 PUSH2 0x597 SWAP3 PUSH2 0x6F8 PUSH1 0x0 SWAP1 JUMP JUMPDEST POP PUSH2 0x74A JUMP JUMPDEST EQ SWAP1 JUMP JUMPDEST PUSH1 0x0 NOT DUP2 EQ PUSH2 0x56E JUMPI PUSH1 0x1 ADD SWAP1 JUMP JUMPDEST PUSH4 0x4E487B71 PUSH1 0xE0 SHL PUSH1 0x0 MSTORE PUSH1 0x32 PUSH1 0x4 MSTORE PUSH1 0x24 PUSH1 0x0 REVERT JUMPDEST SWAP1 PUSH2 0x730 DUP3 MLOAD SWAP1 JUMP JUMPDEST DUP2 LT ISZERO PUSH2 0x741 JUMPI PUSH1 0x20 DUP1 SWAP2 MUL ADD ADD SWAP1 JUMP JUMPDEST PUSH2 0x711 JUMP JUMPDEST MLOAD SWAP1 JUMP JUMPDEST PUSH2 0x754 PUSH1 0x0 PUSH2 0x432 JUMP JUMPDEST SWAP2 JUMPDEST PUSH2 0x761 PUSH2 0xC2 DUP4 MLOAD SWAP1 JUMP JUMPDEST DUP4 LT ISZERO PUSH2 0x793 JUMPI PUSH2 0x787 PUSH2 0x78D SWAP2 PUSH2 0x781 PUSH2 0x77C DUP7 DUP7 PUSH2 0x727 JUMP JUMPDEST PUSH2 0x746 JUMP JUMPDEST SWAP1 PUSH2 0x799 JUMP JUMPDEST SWAP3 PUSH2 0x702 JUMP JUMPDEST SWAP2 PUSH2 0x756 JUMP JUMPDEST SWAP2 POP POP SWAP1 JUMP JUMPDEST DUP2 DUP2 LT ISZERO PUSH2 0x7B4 JUMPI SWAP1 PUSH2 0xC2 SWAP2 PUSH1 0x0 MSTORE PUSH1 0x20 MSTORE PUSH1 0x40 PUSH1 0x0 KECCAK256 SWAP1 JUMP JUMPDEST PUSH2 0xC2 SWAP2 PUSH1 0x0 MSTORE PUSH1 0x20 MSTORE PUSH1 0x40 PUSH1 0x0 KECCAK256 SWAP1 JUMP JUMPDEST SWAP1 PUSH2 0xC2 PUSH2 0xC2 PUSH2 0x7D6 SWAP3 PUSH2 0x432 JUMP JUMPDEST SWAP1 SSTORE JUMP JUMPDEST SWAP2 SWAP1 DUP3 SUB SWAP2 DUP3 GT PUSH2 0x56E JUMPI JUMP JUMPDEST PUSH2 0xC2 SWAP1 PUSH2 0x112 JUMP JUMPDEST PUSH2 0xC2 SWAP1 SLOAD PUSH2 0x7E7 JUMP JUMPDEST DUP1 ISZERO ISZERO PUSH2 0x127 JUMP JUMPDEST SWAP1 POP MLOAD SWAP1 PUSH2 0xE0 DUP3 PUSH2 0x7FA JUMP JUMPDEST SWAP1 PUSH1 0x20 DUP3 DUP3 SUB SLT PUSH2 0xA7 JUMPI PUSH2 0xC2 SWAP2 PUSH2 0x802 JUMP JUMPDEST SWAP2 PUSH1 0x20 PUSH2 0xE0 SWAP3 SWAP5 SWAP4 PUSH2 0x83E PUSH1 0x40 DUP3 ADD SWAP7 PUSH1 0x0 DUP4 ADD SWAP1 PUSH2 0x310 JUMP JUMPDEST ADD MSTORE JUMP JUMPDEST PUSH1 0x40 MLOAD RETURNDATASIZE PUSH1 0x0 DUP3 RETURNDATACOPY RETURNDATASIZE SWAP1 REVERT JUMPDEST PUSH1 0x40 SWAP1 PUSH2 0x83E PUSH2 0xE0 SWAP5 SWAP7 SWAP6 SWAP4 SWAP7 PUSH2 0x86E PUSH1 0x60 DUP5 ADD SWAP9 PUSH1 0x0 DUP6 ADD SWAP1 PUSH2 0x310 JUMP JUMPDEST PUSH1 0x20 DUP4 ADD SWAP1 PUSH2 0x310 JUMP JUMPDEST PUSH1 0x20 DUP1 DUP3 MSTORE PUSH1 0xF SWAP1 DUP3 ADD MSTORE PUSH15 0x151C985B9CD9995C8819985A5B1959 PUSH1 0x8A SHL PUSH1 0x40 DUP3 ADD MSTORE PUSH1 0x60 ADD SWAP1 JUMP JUMPDEST ISZERO PUSH2 0x8A8 JUMPI JUMP JUMPDEST PUSH1 0x40 MLOAD PUSH3 0x461BCD PUSH1 0xE5 SHL DUP2 MSTORE DUP1 PUSH2 0x61F PUSH1 0x4 DUP3 ADD PUSH2 0x878 JUMP JUMPDEST SWAP1 PUSH2 0x8E8 PUSH2 0x8D0 CALLER PUSH1 0x6 PUSH2 0x254 JUMP JUMPDEST PUSH2 0x8E2 DUP4 PUSH2 0x8DD DUP4 PUSH2 0x428 JUMP JUMPDEST PUSH2 0x558 JUMP JUMPDEST SWAP1 PUSH2 0x7C6 JUMP JUMPDEST PUSH2 0x905 PUSH2 0x8FE DUP3 PUSH2 0x8F9 PUSH1 0x2 PUSH2 0x428 JUMP JUMPDEST PUSH2 0x7DA JUMP JUMPDEST PUSH1 0x2 PUSH2 0x7C6 JUMP JUMPDEST PUSH2 0x91A PUSH2 0x915 PUSH2 0x915 PUSH1 0x0 PUSH2 0x7F0 JUMP JUMPDEST PUSH2 0x24B JUMP JUMPDEST SWAP1 PUSH4 0xA9059CBB PUSH2 0x933 PUSH2 0x92C PUSH1 0x40 MLOAD SWAP1 JUMP JUMPDEST SWAP2 PUSH1 0xE0 SHL SWAP1 JUMP JUMPDEST DUP2 MSTORE PUSH1 0x20 DUP2 DUP1 PUSH2 0x947 DUP6 DUP9 PUSH1 0x4 DUP5 ADD PUSH2 0x823 JUMP JUMPDEST SUB DUP2 PUSH1 0x0 DUP8 GAS CALL DUP1 ISZERO PUSH2 0x9EE JUMPI PUSH2 0x964 SWAP2 PUSH1 0x0 SWAP2 PUSH2 0xA05 JUMPI POP ISZERO SWAP1 JUMP JUMPDEST PUSH2 0x9F3 JUMPI PUSH1 0x20 SWAP2 PUSH2 0x999 PUSH1 0x0 PUSH4 0x23B872DD PUSH2 0x9A4 PUSH2 0x982 PUSH1 0x1 PUSH2 0x7F0 JUMP JUMPDEST SWAP6 PUSH2 0x98C PUSH1 0x40 MLOAD SWAP1 JUMP JUMPDEST SWAP9 DUP10 SWAP8 DUP9 SWAP7 DUP8 SWAP6 PUSH1 0xE0 SHL SWAP1 JUMP JUMPDEST DUP6 MSTORE PUSH1 0x4 DUP6 ADD PUSH2 0x84E JUMP JUMPDEST SUB SWAP3 GAS CALL DUP1 ISZERO PUSH2 0x9EE JUMPI PUSH2 0xE0 SWAP2 PUSH1 0x0 SWAP2 PUSH2 0x9C0 JUMPI JUMPDEST POP PUSH2 0x8A1 JUMP JUMPDEST PUSH2 0x9E1 SWAP2 POP PUSH1 0x20 RETURNDATASIZE DUP2 GT PUSH2 0x9E7 JUMPI JUMPDEST PUSH2 0x9D9 DUP2 DUP4 PUSH2 0x492 JUMP JUMPDEST DUP2 ADD SWAP1 PUSH2 0x80F JUMP JUMPDEST CODESIZE PUSH2 0x9BA JUMP JUMPDEST POP RETURNDATASIZE PUSH2 0x9CF JUMP JUMPDEST PUSH2 0x842 JUMP JUMPDEST PUSH1 0x40 MLOAD PUSH4 0x12171D83 PUSH1 0xE3 SHL DUP2 MSTORE PUSH1 0x4 SWAP1 REVERT JUMPDEST PUSH2 0xA1D SWAP2 POP PUSH1 0x20 RETURNDATASIZE DUP2 GT PUSH2 0x9E7 JUMPI PUSH2 0x9D9 DUP2 DUP4 PUSH2 0x492 JUMP JUMPDEST ISZERO SWAP1 JUMP INVALID LOG2 PUSH5 0x6970667358 0x22 SLT KECCAK256 PUSH23 0x61DD8897B171D24341442E29FDF264E9FFF91A08A7D421 0xCE PUSH25 0x7DBF17CEAAC064736F6C634300081400330000000000000000 "},"gasEstimates":{"creation":{"codeDepositCost":"529400","executionCost":"infinite","totalCost":"infinite"},"external":{"airdropTokenAddress()":"infinite","availableAmount()":"infinite","claim(uint256,bytes32[],uint256)":"infinite","expirationTimestamp()":"infinite","maxWalletClaimCount()":"infinite","merkleRoot()":"infinite","tokenOwner()":"infinite","totalClaimedByWallet(address)":"infinite","verifyClaim(address,uint256,bytes32[],uint256)":"infinite"},"internal":{"_transferClaimedTokens(address,uint256)":"infinite"}},"methodIdentifiers":{"airdropTokenAddress()":"b73e0e8b","availableAmount()":"91f7cfb9","claim(uint256,bytes32[],uint256)":"f339f526","expirationTimestamp()":"9f43ddd2","maxWalletClaimCount()":"05981769","merkleRoot()":"2eb4a7ab","tokenOwner()":"a3e67610","totalClaimedByWallet(address)":"7dc68077","verifyClaim(address,uint256,bytes32[],uint256)":"097b3cdb"}},"storageLayout":{"storage":[{"astId":3572,"contract":"src/AirdropERC20Claimable.sol:AirdropERC20Claimable","label":"airdropTokenAddress","offset":0,"slot":"0","type":"t_address"},{"astId":3575,"contract":"src/AirdropERC20Claimable.sol:AirdropERC20Claimable","label":"tokenOwner","offset":0,"slot":"1","type":"t_address"},{"astId":3578,"contract":"src/AirdropERC20Claimable.sol:AirdropERC20Claimable","label":"availableAmount","offset":0,"slot":"2","type":"t_uint256"},{"astId":3581,"contract":"src/AirdropERC20Claimable.sol:AirdropERC20Claimable","label":"expirationTimestamp","offset":0,"slot":"3","type":"t_uint256"},{"astId":3584,"contract":"src/AirdropERC20Claimable.sol:AirdropERC20Claimable","label":"maxWalletClaimCount","offset":0,"slot":"4","type":"t_uint256"},{"astId":3587,"contract":"src/AirdropERC20Claimable.sol:AirdropERC20Claimable","label":"merkleRoot","offset":0,"slot":"5","type":"t_bytes32"},{"astId":3592,"contract":"src/AirdropERC20Claimable.sol:AirdropERC20Claimable","label":"totalClaimedByWallet","offset":0,"slot":"6","type":"t_mapping(t_address,t_uint256)"}],"types":{"t_address":{"encoding":"inplace","label":"address","numberOfBytes":"20"},"t_bytes32":{"encoding":"inplace","label":"bytes32","numberOfBytes":"32"},"t_mapping(t_address,t_uint256)":{"encoding":"mapping","key":"t_address","label":"mapping(address => uint256)","numberOfBytes":"32","value":"t_uint256"},"t_uint256":{"encoding":"inplace","label":"uint256","numberOfBytes":"32"}}},"userdoc":{"kind":"user","methods":{},"version":1}}}}