{"src/LiquidityLocker.sol":{"LiquidityLocker":{"abi":[{"inputs":[],"name":"BeforeUnlockDate","type":"error"},{"inputs":[],"name":"InvalidAmount","type":"error"},{"inputs":[],"name":"InvalidLockDate","type":"error"},{"inputs":[],"name":"LockMismatch","type":"error"},{"inputs":[],"name":"MigratorNotSet","type":"error"},{"inputs":[{"internalType":"address","name":"lpToken","type":"address"}],"name":"NotUniPair","type":"error"},{"inputs":[],"name":"OwnerAlreadySet","type":"error"},{"inputs":[],"name":"TransferFailed","type":"error"},{"anonymous":false,"inputs":[{"indexed":false,"internalType":"address","name":"lpToken","type":"address"},{"indexed":false,"internalType":"address","name":"user","type":"address"},{"indexed":false,"internalType":"uint256","name":"amount","type":"uint256"},{"indexed":false,"internalType":"uint256","name":"lockDate","type":"uint256"},{"indexed":false,"internalType":"uint256","name":"unlockDate","type":"uint256"}],"name":"OnDeposit","type":"event"},{"anonymous":false,"inputs":[{"indexed":false,"internalType":"address","name":"lpToken","type":"address"},{"indexed":false,"internalType":"uint256","name":"amount","type":"uint256"}],"name":"OnWithdraw","type":"event"},{"anonymous":false,"inputs":[{"indexed":true,"internalType":"address","name":"previousOwner","type":"address"},{"indexed":true,"internalType":"address","name":"newOwner","type":"address"}],"name":"OwnershipTransferred","type":"event"},{"inputs":[{"internalType":"uint256","name":"_index","type":"uint256"}],"name":"getLockedTokenAtIndex","outputs":[{"internalType":"address","name":"","type":"address"}],"stateMutability":"view","type":"function"},{"inputs":[],"name":"getNumLockedTokens","outputs":[{"internalType":"uint256","name":"","type":"uint256"}],"stateMutability":"view","type":"function"},{"inputs":[{"internalType":"address","name":"_lpToken","type":"address"}],"name":"getNumLocksForToken","outputs":[{"internalType":"uint256","name":"","type":"uint256"}],"stateMutability":"view","type":"function"},{"inputs":[{"internalType":"address","name":"_user","type":"address"},{"internalType":"address","name":"_lpToken","type":"address"},{"internalType":"uint256","name":"_index","type":"uint256"}],"name":"getUserLockForTokenAtIndex","outputs":[{"internalType":"uint256","name":"","type":"uint256"},{"internalType":"uint256","name":"","type":"uint256"},{"internalType":"uint256","name":"","type":"uint256"},{"internalType":"uint256","name":"","type":"uint256"},{"internalType":"uint256","name":"","type":"uint256"},{"internalType":"address","name":"","type":"address"}],"stateMutability":"view","type":"function"},{"inputs":[{"internalType":"address","name":"_user","type":"address"},{"internalType":"uint256","name":"_index","type":"uint256"}],"name":"getUserLockedTokenAtIndex","outputs":[{"internalType":"address","name":"","type":"address"}],"stateMutability":"view","type":"function"},{"inputs":[{"internalType":"address","name":"_user","type":"address"}],"name":"getUserNumLockedTokens","outputs":[{"internalType":"uint256","name":"","type":"uint256"}],"stateMutability":"view","type":"function"},{"inputs":[{"internalType":"address","name":"_user","type":"address"},{"internalType":"address","name":"_lpToken","type":"address"}],"name":"getUserNumLocksForToken","outputs":[{"internalType":"uint256","name":"","type":"uint256"}],"stateMutability":"view","type":"function"},{"inputs":[{"internalType":"contract IERC20","name":"_lpToken","type":"address"},{"internalType":"uint256","name":"_index","type":"uint256"},{"internalType":"uint256","name":"_lockID","type":"uint256"},{"internalType":"uint256","name":"_amount","type":"uint256"}],"name":"incrementLock","outputs":[{"components":[{"internalType":"uint256","name":"lockDate","type":"uint256"},{"internalType":"uint256","name":"amount","type":"uint256"},{"internalType":"uint256","name":"initialAmount","type":"uint256"},{"internalType":"uint256","name":"unlockDate","type":"uint256"},{"internalType":"uint256","name":"lockID","type":"uint256"},{"internalType":"address","name":"owner","type":"address"}],"internalType":"struct LiquidityLocker.TokenLock","name":"_userLock","type":"tuple"}],"stateMutability":"nonpayable","type":"function"},{"inputs":[{"internalType":"contract IERC20","name":"lpToken","type":"address"},{"internalType":"uint256","name":"amountOfLPToLock","type":"uint256"},{"internalType":"uint256","name":"unlockDate","type":"uint256"},{"internalType":"address payable","name":"withdrawer","type":"address"}],"name":"lockLPToken","outputs":[{"components":[{"internalType":"uint256","name":"lockDate","type":"uint256"},{"internalType":"uint256","name":"amount","type":"uint256"},{"internalType":"uint256","name":"initialAmount","type":"uint256"},{"internalType":"uint256","name":"unlockDate","type":"uint256"},{"internalType":"uint256","name":"lockID","type":"uint256"},{"internalType":"address","name":"owner","type":"address"}],"internalType":"struct LiquidityLocker.TokenLock","name":"tokenLock","type":"tuple"}],"stateMutability":"payable","type":"function"},{"inputs":[{"internalType":"contract IERC20","name":"_lpToken","type":"address"},{"internalType":"uint256","name":"_index","type":"uint256"},{"internalType":"uint256","name":"_lockID","type":"uint256"},{"internalType":"uint256","name":"_amount","type":"uint256"}],"name":"migrate","outputs":[],"stateMutability":"nonpayable","type":"function"},{"inputs":[],"name":"migrator","outputs":[{"internalType":"contract IUniswapV2Migrator","name":"","type":"address"}],"stateMutability":"view","type":"function"},{"inputs":[],"name":"owner","outputs":[{"internalType":"address","name":"","type":"address"}],"stateMutability":"view","type":"function"},{"inputs":[{"internalType":"contract IERC20","name":"_lpToken","type":"address"},{"internalType":"uint256","name":"_index","type":"uint256"},{"internalType":"uint256","name":"_lockID","type":"uint256"},{"internalType":"uint256","name":"_unlockDate","type":"uint256"}],"name":"relock","outputs":[],"stateMutability":"nonpayable","type":"function"},{"inputs":[],"name":"renounceOwnership","outputs":[],"stateMutability":"nonpayable","type":"function"},{"inputs":[{"internalType":"contract IUniswapV2Migrator","name":"_migrator","type":"address"}],"name":"setMigrator","outputs":[],"stateMutability":"nonpayable","type":"function"},{"inputs":[{"internalType":"address","name":"pair","type":"address"},{"internalType":"uint256","name":"","type":"uint256"}],"name":"tokenLocks","outputs":[{"internalType":"uint256","name":"lockDate","type":"uint256"},{"internalType":"uint256","name":"amount","type":"uint256"},{"internalType":"uint256","name":"initialAmount","type":"uint256"},{"internalType":"uint256","name":"unlockDate","type":"uint256"},{"internalType":"uint256","name":"lockID","type":"uint256"},{"internalType":"address","name":"owner","type":"address"}],"stateMutability":"view","type":"function"},{"inputs":[{"internalType":"address","name":"_lpToken","type":"address"},{"internalType":"uint256","name":"_index","type":"uint256"},{"internalType":"uint256","name":"_lockID","type":"uint256"},{"internalType":"address payable","name":"_newOwner","type":"address"}],"name":"transferLockOwnership","outputs":[],"stateMutability":"nonpayable","type":"function"},{"inputs":[{"internalType":"address","name":"newOwner","type":"address"}],"name":"transferOwnership","outputs":[],"stateMutability":"nonpayable","type":"function"},{"inputs":[{"internalType":"contract IERC20","name":"_lpToken","type":"address"},{"internalType":"uint256","name":"_index","type":"uint256"},{"internalType":"uint256","name":"_lockID","type":"uint256"},{"internalType":"uint256","name":"_amount","type":"uint256"}],"name":"withdraw","outputs":[],"stateMutability":"nonpayable","type":"function"}],"devdoc":{"author":"@neuro_0x","details":"A contract for locking Uniswap V2 liquidity pool tokens for specified periods.","kind":"dev","methods":{"getLockedTokenAtIndex(uint256)":{"details":"Get the address of a locked token at an index.","params":{"_index":"The index of the token."}},"getNumLockedTokens()":{"details":"Get the total number of locked tokens"},"getNumLocksForToken(address)":{"details":"Get the number of locks for a specific token.","params":{"_lpToken":"The address of the LP token."}},"getUserLockForTokenAtIndex(address,address,uint256)":{"details":"Get the lock for a specific user and token at an index.","params":{"_index":"The index of the lock.","_lpToken":"The address of the LP token.","_user":"The address of the user."},"returns":{"_0":"The lock date.","_1":"Amount of tokens locked.","_2":"Initial amount of tokens locked.","_3":"Unlock date of the lock.","_4":"Lock ID of the lock.","_5":"Owner of the lock."}},"getUserLockedTokenAtIndex(address,uint256)":{"details":"Get the token address a user has locked at an index.","params":{"_index":"The index of the token.","_user":"The address of the user."}},"getUserNumLockedTokens(address)":{"details":"Get the number of tokens a user has locked.","params":{"_user":"The address of the user."}},"getUserNumLocksForToken(address,address)":{"details":"Get the number of locks for a specific user and token.","params":{"_lpToken":"The address of the LP token.","_user":"The address of the user."}},"incrementLock(address,uint256,uint256,uint256)":{"details":"increase the amount of tokens per a specific lock, this is preferable to creating a new lock, less fees, and faster loading on our live block explorer"},"lockLPToken(address,uint256,uint256,address)":{"details":"Creates a new lock","params":{"amountOfLPToLock":"amount of LP tokens to lock","lpToken":"the univ2 token address","unlockDate":"the unix timestamp (in seconds) until unlock","withdrawer":"the user who can withdraw liquidity once the lock expires"}},"migrate(address,uint256,uint256,uint256)":{"details":"migrates liquidity to uniswap v3"},"owner()":{"details":"Returns the address of the current owner."},"relock(address,uint256,uint256,uint256)":{"details":"extend a lock with a new unlock date, _index and _lockID ensure the correct lock is changed this prevents errors when a user performs multiple tx per block possibly with varying gas prices","params":{"_index":"the index of the lock for the token","_lockID":"the lockID of the lock for the token","_lpToken":"the univ2 token address","_unlockDate":"the new unix timestamp (in seconds) until unlock"}},"renounceOwnership()":{"details":"Leaves the contract without owner. It will not be possible to call `onlyOwner` functions. Can only be called by the current owner. NOTE: Renouncing ownership will leave the contract without an owner, thereby disabling any functionality that is only available to the owner."},"setMigrator(address)":{"details":"Set the migrator contract which allows locked lp tokens to be migrated to uniswap v3","params":{"_migrator":"The address of the migrator contract"}},"transferLockOwnership(address,uint256,uint256,address)":{"details":"transfer a lock to a new owner, e.g. presale project -> project owner"},"transferOwnership(address)":{"details":"Transfers ownership of the contract to a new account (`newOwner`). Can only be called by the current owner."},"withdraw(address,uint256,uint256,uint256)":{"details":"withdraw a specified amount from a lock. _index and _lockID ensure the correct lock is changed this prevents errors when a user performs multiple tx per block possibly with varying gas prices"}},"title":"LiquidityLocker","version":1},"evm":{"bytecode":{"linkReferences":{},"object":"6080604052346200002657620000146200002b565b604051611e7c6200018a8239611e7c90f35b600080fd5b6200003562000086565b565b6200004762000047620000479290565b90565b62000047600162000037565b90600019905b9181191691161790565b906200007a62000047620000829262000037565b825462000056565b9055565b62000090620000a6565b620000356200009e6200004a565b600162000066565b620000353362000127565b62000047905b6001600160a01b031690565b620000479054620000b1565b906001600160a01b03906200005c565b6200004790620000b7906001600160a01b031682565b6200004790620000df565b6200004790620000f5565b906200011f62000047620000829262000100565b8254620000cf565b620001336000620000c3565b90620001418160006200010b565b62000178620001717f8be0079c531659141344cd1fd0a4f28419497f9722a3daafe3b4186f6b6457e09362000100565b9162000100565b916200018360405190565b600090a356fe6080604052600436101561001257600080fd5b60003560e01c806314dd79a3146101425780631f2a1d2f1461013d57806323cf3118146101385780634532d7761461013357806360491d241461012e578063715018a614610129578063783451e8146101245780637cd07e471461011f5780638da5cb5b1461011a578063903df80614610115578063a396981514610110578063a69d9c4f1461010b578063a9b07cea14610106578063bef497fd14610101578063ccebfa3f146100fc578063d4ff493f146100f7578063df41bc5f146100f2578063ee424278146100ed5763f2fde38b0361014757610716565b6106fa565b6106e0565b6106c4565b61065f565b61050e565b6104a7565b610421565b6103e3565b6103c7565b61037f565b610358565b6102d3565b6102bb565b610294565b610278565b61021f565b6101f4565b61018b565b600080fd5b805b0361014757565b905035906101628261014c565b565b906020828203126101475761017891610155565b90565b6001600160a01b031690565b9052565b34610147576101c06101a66101a1366004610164565b611bcb565b604051918291826001600160a01b03909116815260200190565b0390f35b6001600160a01b03811661014e565b90503590610162826101c4565b9060208282031261014757610178916101d3565b34610147576101c061020f61020a3660046101e0565b611b84565b6040519182918290815260200190565b34610147576102376102323660046101e0565b610936565b604051005b6080818303126101475761025082826101d3565b926101786102618460208501610155565b9361026f8160408601610155565b93606001610155565b346101475761023761028b36600461023c565b9291909161143d565b34610147576102376102a736600461023c565b929190916111d5565b600091031261014757565b34610147576102cb3660046102b0565b610237610766565b34610147576102e33660046102b0565b6101c061020f611b9b565b610178916008021c6001600160a01b031690565b9061017891546102ee565b61017860006006610302565b6101789061017b906001600160a01b031682565b61017890610319565b6101789061032d565b61018790610336565b602081019291610162919061033f565b34610147576103683660046102b0565b6101c061037361030d565b60405191829182610348565b346101475761038f3660046102b0565b6101c06101a66000546001600160a01b031690565b919060408382031261014757610178906103be81856101d3565b93602001610155565b34610147576101c06101a66103dd3660046103a4565b90611c4b565b34610147576101c061020f6103f93660046101e0565b611c2c565b9190604083820312610147576101789061041881856101d3565b936020016101d3565b34610147576101c061020f6104373660046103fe565b90611c63565b80518252610162919060a090819061045a60208201516020860152565b61046960408201516040860152565b61047860608201516060860152565b61048760808201516080860152565b01516001600160a01b0316910152565b60c081019291610162919061043d565b34610147576101c06104c66104bd36600461023c565b9291909161172f565b60405191829182610497565b608081830312610147576104e682826101d3565b926101786104f78460208501610155565b936105058160408601610155565b936060016101d3565b34610147576102376105213660046104d2565b92919091611743565b9061053490610336565b600052602052604060002090565b634e487b7160e01b600052603260045260246000fd5b805482101561057b57610572600691600052602060002090565b91020190600090565b610542565b6101789081565b6101789054610580565b91906105a160059360009461052a565b8054821015610608576105b5929350610558565b50906105c082610587565b916105cd60018201610587565b916105da60028301610587565b916105e760038201610587565b9161017860056105f960048501610587565b9301546001600160a01b031690565b8380fd5b91946106496106509298979561064260a09661063b6101629a61063460c08a019e60008b0152565b6020890152565b6040870152565b6060850152565b6080830152565b01906001600160a01b03169052565b34610147576101c061067b6106753660046103a4565b90610591565b9261068b96949692919260405190565b9687968761060c565b9091606082840312610147576101786106ad84846101d3565b936106bb81602086016101d3565b93604001610155565b34610147576101c061067b6106da366004610694565b91611c7a565b6101c06104c66106f13660046104d2565b92919091610eff565b346101475761023761070d36600461023c565b92919091611b78565b34610147576102376107293660046101e0565b61088b565b6107366107c6565b610162610754565b61017b6101786101789290565b6101789061073e565b610162610761600061074b565b6108c4565b61016261072e565b0190565b1561077957565b60405162461bcd60e51b8152806107c2600482016020808252818101527f4f776e61626c653a2063616c6c6572206973206e6f7420746865206f776e6572604082015260600190565b0390fd5b6101626107db6000546001600160a01b031690565b6107f46107e73361017b565b916001600160a01b031690565b14610772565b610162906108066107c6565b610866565b1561081257565b60405162461bcd60e51b815260206004820152602660248201527f4f776e61626c653a206e6577206f776e657220697320746865207a65726f206160448201526564647265737360d01b6064820152608490fd5b6101629061076161087a61017b600061074b565b6001600160a01b038316141561080b565b610162906107fa565b906001600160a01b03905b9181191691161790565b906108b96101786108c092610336565b8254610894565b9055565b6000546001600160a01b0316906108dc8160006108a9565b61090f6109097f8be0079c531659141344cd1fd0a4f28419497f9722a3daafe3b4186f6b6457e093610336565b91610336565b9161091960405190565b600090a3565b6101629061092b6107c6565b6101629060066108a9565b6101629061091f565b634e487b7160e01b600052604160045260246000fd5b90601f01601f1916810190811067ffffffffffffffff82111761097757604052565b61093f565b9061016261098960405190565b9283610955565b61017860c061097c565b6109a2610990565b906000825260208080808080870160008152016000815201600081520160008152016000905250565b61017861099a565b906109e8949392916109e3610f69565b610c1b565b90610162610fa5565b6101786101786101789290565b610178735c69bee701ef814a2b6a3edd4b1652cb9cc5aa6f610336565b90505190610162826101c4565b906020828203126101475761017891610a1b565b6040513d6000823e3d90fd5b6001600160a01b03909116815260408101929161016291602090610650565b634e487b7160e01b600052600060045260246000fd5b906000199061089f565b90610a976101786108c0926109f1565b8254610a7d565b6101629190610b179060a090600590610abf81610ab9875190565b90610a87565b610ad160018201610ab9602088015190565b610ae360028201610ab9604088015190565b610af560038201610ab9606088015190565b610b0760048201610ab9608088015190565b019201516001600160a01b031690565b906108a9565b9190610b2c5761016291610a9e565b610a67565b90815491600160401b8310156109775782610b5491600161016295018155610558565b90610b1d565b805482101561057b57610572600191600052602060002090565b9160001960089290920291821b911b61089f565b9190610b996101786108c0936109f1565b908354610b74565b90815491600160401b8310156109775782610bc491600161016295018155610b5a565b90610b88565b9095949261016294610c10610c1792610c09608096610bf960a088019c60008901906001600160a01b03169052565b6001600160a01b03166020870152565b6040850152565b6060830152565b0152565b94939091948095600093610c2e856109f1565b8214610eed57610c426402540be4006109f1565b8611610edb57610c5190610336565b91610c5b83610336565b610c6b610c666109fe565b610336565b610c7963e6a4390592610336565b630dfe168191610c92610c8b60405190565b9360e01b90565b8352602083600481855afa918215610e9057610cc4938a93610eb9575b5060405193602091859163d21220a760e01b90565b825260049082905afa928315610e90578993610e95575b50610cfc60209394610d07610cef60405190565b9687958694859460e01b90565b845260048401610a48565b03915afa908115610e90578691610e62575b50610d2c6001600160a01b0385166107e7565b03610e315782339483610d3e30610336565b90610d4a918885611d7c565b5082870196610d57428952565b6020840194610d64818752565b604085015260608401988952600593610d7d848661052a565b54608082019081529484610d9085610336565b6001600160a01b031660a0840152610da79161052a565b90610db191610b31565b610dbc836003610fc2565b5082600292610dcb908461052a565b91820190610dd891610fc2565b500190610de49161052a565b9051610def91610ba1565b51925193517fb173d70d03f0b8aa29e0087d55b3549db8a6343c5208ce69af3c0de4c0836fe794610e1f60405190565b948594610e2c9486610bca565b0390a1565b6107c283610e3e60405190565b630a3f6ee160e21b8152918291600483016001600160a01b03909116815260200190565b610e83915060203d8111610e89575b610e7b8183610955565b810190610a28565b38610d19565b503d610e71565b610a3c565b60209350610eb2610cfc91853d8111610e8957610e7b8183610955565b9350610cdb565b6020919350610ed490823d8111610e8957610e7b8183610955565b9290610caf565b604051637b663c4960e01b8152600490fd5b60405163162908e360e11b8152600490fd5b90610178939291610f0e6109cb565b6109d3565b61017860026109f1565b15610f2457565b60405162461bcd60e51b815260206004820152601f60248201527f5265656e7472616e637947756172643a207265656e7472616e742063616c6c006044820152606490fd5b610162610f766001610587565b610f94610f81610f13565b918290610f8d565b9190565b1415610f1d565b6001610a87565b61017860016109f1565b610162610f94610f9b565b6101789081906001600160a01b031681565b90610fef610f89610fea610fe5600061017896610fdd600090565b50019461032d565b610fb0565b6109f1565b611032565b9190610b996101786108c09390565b90815491600160401b831015610977578261102691600161016295018155610b5a565b90610ff4565b90610534565b61104361103f838361107c565b1590565b15611075576110709161106b906001611064846110608482611003565b5490565b930161102c565b610a87565b600190565b5050600090565b61109a9160016110959261108e600090565b500161102c565b610587565b6110a7610f8960006109f1565b141590565b906110c09392916110bb610f69565b6110de565b610162610fa5565b610178916008021c81565b9061017891546110c8565b906110ed6402540be4006109f1565b8411610edb5761112d61112760029261112261111b6111093390565b95611114878261052a565b0196610336565b809661052a565b610b5a565b906110d3565b611153610f8961114f61114b846111466005988961052a565b610558565b5090565b9590565b14159182156111a3575b5050611191576003019061117082610587565b811061117f5761016291610a87565b60405163b9f317a560e01b8152600490fd5b60405163459808cf60e01b8152600490fd5b6111cc9192506111bf6107e7918501546001600160a01b031690565b926001600160a01b031690565b1415388061115d565b906101629392916110ac565b906110c09392916111f0610f69565b611284565b634e487b7160e01b600052601160045260246000fd5b9190820391821161121857565b6111f5565b634e487b7160e01b600052603160045260246000fd5b61016291600091610b88565b8054801561126257600019019061125f6112598383610b5a565b90611233565b55565b61121d565b6001600160a01b0390911681526040810192916101629160200152565b92919092600090611294826109f1565b8414610eed576111229460029033926112c8611127836112bf866112b8898261052a565b0194610336565b9a8b809561052a565b6112e5610f896112e161114b846111466005978861052a565b9890565b1415908115611415575b506111915761130060038601610587565b421061117f578286948892611330600161134c990161109561132a8a61132584610587565b61120b565b82610a87565b61133c610f89846109f1565b14611384575b5050509050611e10565b507fbace9fd79d5ea02ed8b43fa96af07e4e8f859a2f71ff878c748f5c22c578028491610e2c61137b60405190565b92839283611267565b6113de906113d56113a3610178878961139d898261052a565b0161052a565b91610bc46113ce6111276113c86113b8875490565b6113c260016109f1565b9061120b565b86610b5a565b9184610b5a565b6110608161123f565b6113ea610f89836109f1565b146113f6575b80611342565b61076e6114069261140b9561052a565b611449565b50388582826113f0565b8601546001600160a01b031690506114356001600160a01b0385166107e7565b1415386112ef565b906101629392916111e1565b90611464610f89610fea610fe5600061017896610fdd600090565b611495565b61016291600091610ff4565b8054801561126257600019019061125f61148f8383610b5a565b90611469565b906114a6611095826001850161102c565b6000926114b2846109f1565b82146114ff576101789261150594926115109261150a60019788936114df6114d9866109f1565b8261120b565b888501916114f76114ee845490565b6113c2896109f1565b828103611515575b50505090565b611475565b0161102c565b611233565b6110266115386115409461152f61112761106b9589610b5a565b92839188610b5a565b88880161102c565b3880806114ff565b906109e894939291611558610f69565b61160b565b9190820180921161121857565b906101626115f2600561157b610990565b9461158c61158882610587565b8752565b6115a261159b60018301610587565b6020880152565b6115b86115b160028301610587565b6040880152565b6115ce6115c760038301610587565b6060880152565b6115e46115dd60048301610587565b6080880152565b01546001600160a01b031690565b6001600160a01b031660a0840152565b6101789061156a565b5060009190611619836109f1565b8514610eed5761164e6111276002936111226116476116353390565b96611640888261052a565b0195610336565b809561052a565b60059061166c610f8961166861114b84611146888861052a565b9790565b1415908115611707575b50611191576116ff6116be6116b68761169c6101789961169530610336565b8888611d7c565b5061109561132a60018a01926116b184610587565b61155d565b948601610587565b6116ca60038701610587565b907fb173d70d03f0b8aa29e0087d55b3549db8a6343c5208ce69af3c0de4c0836fe7956116f660405190565b95869586610bca565b0390a1611602565b8501546001600160a01b031690506117276001600160a01b0384166107e7565b141538611676565b9061017893929161173e6109cb565b611548565b9061175961017b6000546001600160a01b031690565b61176285610336565b1461186a573393600261178161112784611122878561139d8c8261052a565b9360059461179c610f896112e161114b84611146878c61052a565b14158015611843575b6111915761016296611804611822956117ef6117dd61017886886117cc6101788c8361052a565b6117d68382610fc2565b500161052a565b6117e960048c01610587565b90610ba1565b6113d56113a3610178868861139d888261052a565b600090611813610f89836109f1565b14611829575b50505050610336565b91016108a9565b61076e611406926118399561052a565b5038808080611819565b50858501546001600160a01b03166118636001600160a01b0389166107e7565b14156117a5565b60405163cf04b1bb60e01b8152600490fd5b906110c093929161188b610f69565b6118ff565b80151561014e565b9050519061016282611890565b906020828203126101475761017891611898565b90959492610162946118ef610c1792610c096080966118e860a088019c60008901906001600160a01b03169052565b6020870152565b6001600160a01b03166060830152565b929192611917610c666006546001600160a01b031690565b9360009461192a6107e761017b8861074b565b14611b6657611938856109f1565b8414610eed5760023393611968611127826111226119618661195a8b8261052a565b0198610336565b809861052a565b600590611986610f8961198261114b846111468b8861052a565b9690565b1415908115611b3e575b5061119157848785926119b06001870161109561132a8c61132584610587565b6119bc610f89846109f1565b14611af3575b505050505063095ea7b360206119ff6119e6610c666006546001600160a01b031690565b92611a0a886119f460405190565b958694859460e01b90565b845260048401611267565b038189875af18015610e9057611ac7575b50611a31610c666006546001600160a01b031690565b90611a43600363b7df1d259201610587565b93611a5a42611a54620151806109f1565b9061155d565b91833b1561014757611a8f611a84938997938894611a7760405190565b9a8b998a98899760e01b90565b8752600487016118b9565b03925af18015610e9057611aa1575050565b8161016292903d10611ac0575b611ab88183610955565b8101906102b0565b503d611aae565b611ae79060203d8111611aec575b611adf8183610955565b8101906118a5565b611a1b565b503d611ad5565b611b0c906113d56113a3610178878961139d898261052a565b611b18610f89836109f1565b14611b24575b836119c2565b61076e61140692611b349561052a565b5038828487611b1e565b8401546001600160a01b03169050611b5e6001600160a01b0387166107e7565b141538611990565b604051632ed9bf5360e21b8152600490fd5b9061016293929161187c565b61106061017891611b93600090565b50600561052a565b61017860035b611bb7600061017892611bb2600090565b500190565b600061017891611bc5600090565b50015490565b610178906003611be4565b611be4565b610178906109f1565b611c09611c0461017893611bff6000611c0e95611bb2600090565b611c13565b611bdb565b61073e565b61032d565b61017891600061112792611c25600090565b5001610b5a565b611ba1600061076e61017861017894611c43600090565b50600261052a565b90611bd6600061076e61017861017895611c43600090565b610178916110609161139d6101786002928361052a565b61114b611ca461112761139d969561112286611cb096611c98600090565b5060029a8b918261052a565b6111466005948561052a565b611cb981610587565b611cd0611cc860018401610587565b958301610587565b93611cfc611ce060038501610587565b94611ced60048601610587565b9401546001600160a01b031690565b91959493929190565b6001600160a01b039182168152911660208201526060810192916101629160400152565b67ffffffffffffffff811161097757602090601f01601f19160190565b90611d58611d5383611d29565b61097c565b918252565b3d15611d7757611d6c3d611d46565b903d6000602084013e565b606090565b9091611dbe60009493611daf8695611d92600090565b506040516323b872dd60e01b602082015294859360248501611d05565b60208201810382520382610955565b82602082019151925af1611dd8611dd3611d5d565b911590565b611de25750600190565b8051611df1610f8960006109f1565b14611dfe57805190602001fd5b6040516312171d8360e31b8152600490fd5b600092611dbe8493611e20600090565b50611daf611e2d60405190565b63a9059cbb60e01b60208201529384926024840161126756fea2646970667358221220a05b6d50e56a1f9024f04f73e055d7b245965fa7546e58097cd7515870ab882664736f6c63430008140033","opcodes":"PUSH1 0x80 PUSH1 0x40 MSTORE CALLVALUE PUSH3 0x26 JUMPI PUSH3 0x14 PUSH3 0x2B JUMP JUMPDEST PUSH1 0x40 MLOAD PUSH2 0x1E7C PUSH3 0x18A DUP3 CODECOPY PUSH2 0x1E7C SWAP1 RETURN JUMPDEST PUSH1 0x0 DUP1 REVERT JUMPDEST PUSH3 0x35 PUSH3 0x86 JUMP JUMPDEST JUMP JUMPDEST PUSH3 0x47 PUSH3 0x47 PUSH3 0x47 SWAP3 SWAP1 JUMP JUMPDEST SWAP1 JUMP JUMPDEST PUSH3 0x47 PUSH1 0x1 PUSH3 0x37 JUMP JUMPDEST SWAP1 PUSH1 0x0 NOT SWAP1 JUMPDEST SWAP2 DUP2 NOT AND SWAP2 AND OR SWAP1 JUMP JUMPDEST SWAP1 PUSH3 0x7A PUSH3 0x47 PUSH3 0x82 SWAP3 PUSH3 0x37 JUMP JUMPDEST DUP3 SLOAD PUSH3 0x56 JUMP JUMPDEST SWAP1 SSTORE JUMP JUMPDEST PUSH3 0x90 PUSH3 0xA6 JUMP JUMPDEST PUSH3 0x35 PUSH3 0x9E PUSH3 0x4A JUMP JUMPDEST PUSH1 0x1 PUSH3 0x66 JUMP JUMPDEST PUSH3 0x35 CALLER PUSH3 0x127 JUMP JUMPDEST PUSH3 0x47 SWAP1 JUMPDEST PUSH1 0x1 PUSH1 0x1 PUSH1 0xA0 SHL SUB AND SWAP1 JUMP JUMPDEST PUSH3 0x47 SWAP1 SLOAD PUSH3 0xB1 JUMP JUMPDEST SWAP1 PUSH1 0x1 PUSH1 0x1 PUSH1 0xA0 SHL SUB SWAP1 PUSH3 0x5C JUMP JUMPDEST PUSH3 0x47 SWAP1 PUSH3 0xB7 SWAP1 PUSH1 0x1 PUSH1 0x1 PUSH1 0xA0 SHL SUB AND DUP3 JUMP JUMPDEST PUSH3 0x47 SWAP1 PUSH3 0xDF JUMP JUMPDEST PUSH3 0x47 SWAP1 PUSH3 0xF5 JUMP JUMPDEST SWAP1 PUSH3 0x11F PUSH3 0x47 PUSH3 0x82 SWAP3 PUSH3 0x100 JUMP JUMPDEST DUP3 SLOAD PUSH3 0xCF JUMP JUMPDEST PUSH3 0x133 PUSH1 0x0 PUSH3 0xC3 JUMP JUMPDEST SWAP1 PUSH3 0x141 DUP2 PUSH1 0x0 PUSH3 0x10B JUMP JUMPDEST PUSH3 0x178 PUSH3 0x171 PUSH32 0x8BE0079C531659141344CD1FD0A4F28419497F9722A3DAAFE3B4186F6B6457E0 SWAP4 PUSH3 0x100 JUMP JUMPDEST SWAP2 PUSH3 0x100 JUMP JUMPDEST SWAP2 PUSH3 0x183 PUSH1 0x40 MLOAD SWAP1 JUMP JUMPDEST PUSH1 0x0 SWAP1 LOG3 JUMP INVALID PUSH1 0x80 PUSH1 0x40 MSTORE PUSH1 0x4 CALLDATASIZE LT ISZERO PUSH2 0x12 JUMPI PUSH1 0x0 DUP1 REVERT JUMPDEST PUSH1 0x0 CALLDATALOAD PUSH1 0xE0 SHR DUP1 PUSH4 0x14DD79A3 EQ PUSH2 0x142 JUMPI DUP1 PUSH4 0x1F2A1D2F EQ PUSH2 0x13D JUMPI DUP1 PUSH4 0x23CF3118 EQ PUSH2 0x138 JUMPI DUP1 PUSH4 0x4532D776 EQ PUSH2 0x133 JUMPI DUP1 PUSH4 0x60491D24 EQ PUSH2 0x12E JUMPI DUP1 PUSH4 0x715018A6 EQ PUSH2 0x129 JUMPI DUP1 PUSH4 0x783451E8 EQ PUSH2 0x124 JUMPI DUP1 PUSH4 0x7CD07E47 EQ PUSH2 0x11F JUMPI DUP1 PUSH4 0x8DA5CB5B EQ PUSH2 0x11A JUMPI DUP1 PUSH4 0x903DF806 EQ PUSH2 0x115 JUMPI DUP1 PUSH4 0xA3969815 EQ PUSH2 0x110 JUMPI DUP1 PUSH4 0xA69D9C4F EQ PUSH2 0x10B JUMPI DUP1 PUSH4 0xA9B07CEA EQ PUSH2 0x106 JUMPI DUP1 PUSH4 0xBEF497FD EQ PUSH2 0x101 JUMPI DUP1 PUSH4 0xCCEBFA3F EQ PUSH2 0xFC JUMPI DUP1 PUSH4 0xD4FF493F EQ PUSH2 0xF7 JUMPI DUP1 PUSH4 0xDF41BC5F EQ PUSH2 0xF2 JUMPI DUP1 PUSH4 0xEE424278 EQ PUSH2 0xED JUMPI PUSH4 0xF2FDE38B SUB PUSH2 0x147 JUMPI PUSH2 0x716 JUMP JUMPDEST PUSH2 0x6FA JUMP JUMPDEST PUSH2 0x6E0 JUMP JUMPDEST PUSH2 0x6C4 JUMP JUMPDEST PUSH2 0x65F JUMP JUMPDEST PUSH2 0x50E JUMP JUMPDEST PUSH2 0x4A7 JUMP JUMPDEST PUSH2 0x421 JUMP JUMPDEST PUSH2 0x3E3 JUMP JUMPDEST PUSH2 0x3C7 JUMP JUMPDEST PUSH2 0x37F JUMP JUMPDEST PUSH2 0x358 JUMP JUMPDEST PUSH2 0x2D3 JUMP JUMPDEST PUSH2 0x2BB JUMP JUMPDEST PUSH2 0x294 JUMP JUMPDEST PUSH2 0x278 JUMP JUMPDEST PUSH2 0x21F JUMP JUMPDEST PUSH2 0x1F4 JUMP JUMPDEST PUSH2 0x18B JUMP JUMPDEST PUSH1 0x0 DUP1 REVERT JUMPDEST DUP1 JUMPDEST SUB PUSH2 0x147 JUMPI JUMP JUMPDEST SWAP1 POP CALLDATALOAD SWAP1 PUSH2 0x162 DUP3 PUSH2 0x14C JUMP JUMPDEST JUMP JUMPDEST SWAP1 PUSH1 0x20 DUP3 DUP3 SUB SLT PUSH2 0x147 JUMPI PUSH2 0x178 SWAP2 PUSH2 0x155 JUMP JUMPDEST SWAP1 JUMP JUMPDEST PUSH1 0x1 PUSH1 0x1 PUSH1 0xA0 SHL SUB AND SWAP1 JUMP JUMPDEST SWAP1 MSTORE JUMP JUMPDEST CALLVALUE PUSH2 0x147 JUMPI PUSH2 0x1C0 PUSH2 0x1A6 PUSH2 0x1A1 CALLDATASIZE PUSH1 0x4 PUSH2 0x164 JUMP JUMPDEST PUSH2 0x1BCB JUMP JUMPDEST PUSH1 0x40 MLOAD SWAP2 DUP3 SWAP2 DUP3 PUSH1 0x1 PUSH1 0x1 PUSH1 0xA0 SHL SUB SWAP1 SWAP2 AND DUP2 MSTORE PUSH1 0x20 ADD SWAP1 JUMP JUMPDEST SUB SWAP1 RETURN JUMPDEST PUSH1 0x1 PUSH1 0x1 PUSH1 0xA0 SHL SUB DUP2 AND PUSH2 0x14E JUMP JUMPDEST SWAP1 POP CALLDATALOAD SWAP1 PUSH2 0x162 DUP3 PUSH2 0x1C4 JUMP JUMPDEST SWAP1 PUSH1 0x20 DUP3 DUP3 SUB SLT PUSH2 0x147 JUMPI PUSH2 0x178 SWAP2 PUSH2 0x1D3 JUMP JUMPDEST CALLVALUE PUSH2 0x147 JUMPI PUSH2 0x1C0 PUSH2 0x20F PUSH2 0x20A CALLDATASIZE PUSH1 0x4 PUSH2 0x1E0 JUMP JUMPDEST PUSH2 0x1B84 JUMP JUMPDEST PUSH1 0x40 MLOAD SWAP2 DUP3 SWAP2 DUP3 SWAP1 DUP2 MSTORE PUSH1 0x20 ADD SWAP1 JUMP JUMPDEST CALLVALUE PUSH2 0x147 JUMPI PUSH2 0x237 PUSH2 0x232 CALLDATASIZE PUSH1 0x4 PUSH2 0x1E0 JUMP JUMPDEST PUSH2 0x936 JUMP JUMPDEST PUSH1 0x40 MLOAD STOP JUMPDEST PUSH1 0x80 DUP2 DUP4 SUB SLT PUSH2 0x147 JUMPI PUSH2 0x250 DUP3 DUP3 PUSH2 0x1D3 JUMP JUMPDEST SWAP3 PUSH2 0x178 PUSH2 0x261 DUP5 PUSH1 0x20 DUP6 ADD PUSH2 0x155 JUMP JUMPDEST SWAP4 PUSH2 0x26F DUP2 PUSH1 0x40 DUP7 ADD PUSH2 0x155 JUMP JUMPDEST SWAP4 PUSH1 0x60 ADD PUSH2 0x155 JUMP JUMPDEST CALLVALUE PUSH2 0x147 JUMPI PUSH2 0x237 PUSH2 0x28B CALLDATASIZE PUSH1 0x4 PUSH2 0x23C JUMP JUMPDEST SWAP3 SWAP2 SWAP1 SWAP2 PUSH2 0x143D JUMP JUMPDEST CALLVALUE PUSH2 0x147 JUMPI PUSH2 0x237 PUSH2 0x2A7 CALLDATASIZE PUSH1 0x4 PUSH2 0x23C JUMP JUMPDEST SWAP3 SWAP2 SWAP1 SWAP2 PUSH2 0x11D5 JUMP JUMPDEST PUSH1 0x0 SWAP2 SUB SLT PUSH2 0x147 JUMPI JUMP JUMPDEST CALLVALUE PUSH2 0x147 JUMPI PUSH2 0x2CB CALLDATASIZE PUSH1 0x4 PUSH2 0x2B0 JUMP JUMPDEST PUSH2 0x237 PUSH2 0x766 JUMP JUMPDEST CALLVALUE PUSH2 0x147 JUMPI PUSH2 0x2E3 CALLDATASIZE PUSH1 0x4 PUSH2 0x2B0 JUMP JUMPDEST PUSH2 0x1C0 PUSH2 0x20F PUSH2 0x1B9B JUMP JUMPDEST PUSH2 0x178 SWAP2 PUSH1 0x8 MUL SHR PUSH1 0x1 PUSH1 0x1 PUSH1 0xA0 SHL SUB AND SWAP1 JUMP JUMPDEST SWAP1 PUSH2 0x178 SWAP2 SLOAD PUSH2 0x2EE JUMP JUMPDEST PUSH2 0x178 PUSH1 0x0 PUSH1 0x6 PUSH2 0x302 JUMP JUMPDEST PUSH2 0x178 SWAP1 PUSH2 0x17B SWAP1 PUSH1 0x1 PUSH1 0x1 PUSH1 0xA0 SHL SUB AND DUP3 JUMP JUMPDEST PUSH2 0x178 SWAP1 PUSH2 0x319 JUMP JUMPDEST PUSH2 0x178 SWAP1 PUSH2 0x32D JUMP JUMPDEST PUSH2 0x187 SWAP1 PUSH2 0x336 JUMP JUMPDEST PUSH1 0x20 DUP2 ADD SWAP3 SWAP2 PUSH2 0x162 SWAP2 SWAP1 PUSH2 0x33F JUMP JUMPDEST CALLVALUE PUSH2 0x147 JUMPI PUSH2 0x368 CALLDATASIZE PUSH1 0x4 PUSH2 0x2B0 JUMP JUMPDEST PUSH2 0x1C0 PUSH2 0x373 PUSH2 0x30D JUMP JUMPDEST PUSH1 0x40 MLOAD SWAP2 DUP3 SWAP2 DUP3 PUSH2 0x348 JUMP JUMPDEST CALLVALUE PUSH2 0x147 JUMPI PUSH2 0x38F CALLDATASIZE PUSH1 0x4 PUSH2 0x2B0 JUMP JUMPDEST PUSH2 0x1C0 PUSH2 0x1A6 PUSH1 0x0 SLOAD PUSH1 0x1 PUSH1 0x1 PUSH1 0xA0 SHL SUB AND SWAP1 JUMP JUMPDEST SWAP2 SWAP1 PUSH1 0x40 DUP4 DUP3 SUB SLT PUSH2 0x147 JUMPI PUSH2 0x178 SWAP1 PUSH2 0x3BE DUP2 DUP6 PUSH2 0x1D3 JUMP JUMPDEST SWAP4 PUSH1 0x20 ADD PUSH2 0x155 JUMP JUMPDEST CALLVALUE PUSH2 0x147 JUMPI PUSH2 0x1C0 PUSH2 0x1A6 PUSH2 0x3DD CALLDATASIZE PUSH1 0x4 PUSH2 0x3A4 JUMP JUMPDEST SWAP1 PUSH2 0x1C4B JUMP JUMPDEST CALLVALUE PUSH2 0x147 JUMPI PUSH2 0x1C0 PUSH2 0x20F PUSH2 0x3F9 CALLDATASIZE PUSH1 0x4 PUSH2 0x1E0 JUMP JUMPDEST PUSH2 0x1C2C JUMP JUMPDEST SWAP2 SWAP1 PUSH1 0x40 DUP4 DUP3 SUB SLT PUSH2 0x147 JUMPI PUSH2 0x178 SWAP1 PUSH2 0x418 DUP2 DUP6 PUSH2 0x1D3 JUMP JUMPDEST SWAP4 PUSH1 0x20 ADD PUSH2 0x1D3 JUMP JUMPDEST CALLVALUE PUSH2 0x147 JUMPI PUSH2 0x1C0 PUSH2 0x20F PUSH2 0x437 CALLDATASIZE PUSH1 0x4 PUSH2 0x3FE JUMP JUMPDEST SWAP1 PUSH2 0x1C63 JUMP JUMPDEST DUP1 MLOAD DUP3 MSTORE PUSH2 0x162 SWAP2 SWAP1 PUSH1 0xA0 SWAP1 DUP2 SWAP1 PUSH2 0x45A PUSH1 0x20 DUP3 ADD MLOAD PUSH1 0x20 DUP7 ADD MSTORE JUMP JUMPDEST PUSH2 0x469 PUSH1 0x40 DUP3 ADD MLOAD PUSH1 0x40 DUP7 ADD MSTORE JUMP JUMPDEST PUSH2 0x478 PUSH1 0x60 DUP3 ADD MLOAD PUSH1 0x60 DUP7 ADD MSTORE JUMP JUMPDEST PUSH2 0x487 PUSH1 0x80 DUP3 ADD MLOAD PUSH1 0x80 DUP7 ADD MSTORE JUMP JUMPDEST ADD MLOAD PUSH1 0x1 PUSH1 0x1 PUSH1 0xA0 SHL SUB AND SWAP2 ADD MSTORE JUMP JUMPDEST PUSH1 0xC0 DUP2 ADD SWAP3 SWAP2 PUSH2 0x162 SWAP2 SWAP1 PUSH2 0x43D JUMP JUMPDEST CALLVALUE PUSH2 0x147 JUMPI PUSH2 0x1C0 PUSH2 0x4C6 PUSH2 0x4BD CALLDATASIZE PUSH1 0x4 PUSH2 0x23C JUMP JUMPDEST SWAP3 SWAP2 SWAP1 SWAP2 PUSH2 0x172F JUMP JUMPDEST PUSH1 0x40 MLOAD SWAP2 DUP3 SWAP2 DUP3 PUSH2 0x497 JUMP JUMPDEST PUSH1 0x80 DUP2 DUP4 SUB SLT PUSH2 0x147 JUMPI PUSH2 0x4E6 DUP3 DUP3 PUSH2 0x1D3 JUMP JUMPDEST SWAP3 PUSH2 0x178 PUSH2 0x4F7 DUP5 PUSH1 0x20 DUP6 ADD PUSH2 0x155 JUMP JUMPDEST SWAP4 PUSH2 0x505 DUP2 PUSH1 0x40 DUP7 ADD PUSH2 0x155 JUMP JUMPDEST SWAP4 PUSH1 0x60 ADD PUSH2 0x1D3 JUMP JUMPDEST CALLVALUE PUSH2 0x147 JUMPI PUSH2 0x237 PUSH2 0x521 CALLDATASIZE PUSH1 0x4 PUSH2 0x4D2 JUMP JUMPDEST SWAP3 SWAP2 SWAP1 SWAP2 PUSH2 0x1743 JUMP JUMPDEST SWAP1 PUSH2 0x534 SWAP1 PUSH2 0x336 JUMP JUMPDEST PUSH1 0x0 MSTORE PUSH1 0x20 MSTORE PUSH1 0x40 PUSH1 0x0 KECCAK256 SWAP1 JUMP JUMPDEST PUSH4 0x4E487B71 PUSH1 0xE0 SHL PUSH1 0x0 MSTORE PUSH1 0x32 PUSH1 0x4 MSTORE PUSH1 0x24 PUSH1 0x0 REVERT JUMPDEST DUP1 SLOAD DUP3 LT ISZERO PUSH2 0x57B JUMPI PUSH2 0x572 PUSH1 0x6 SWAP2 PUSH1 0x0 MSTORE PUSH1 0x20 PUSH1 0x0 KECCAK256 SWAP1 JUMP JUMPDEST SWAP2 MUL ADD SWAP1 PUSH1 0x0 SWAP1 JUMP JUMPDEST PUSH2 0x542 JUMP JUMPDEST PUSH2 0x178 SWAP1 DUP2 JUMP JUMPDEST PUSH2 0x178 SWAP1 SLOAD PUSH2 0x580 JUMP JUMPDEST SWAP2 SWAP1 PUSH2 0x5A1 PUSH1 0x5 SWAP4 PUSH1 0x0 SWAP5 PUSH2 0x52A JUMP JUMPDEST DUP1 SLOAD DUP3 LT ISZERO PUSH2 0x608 JUMPI PUSH2 0x5B5 SWAP3 SWAP4 POP PUSH2 0x558 JUMP JUMPDEST POP SWAP1 PUSH2 0x5C0 DUP3 PUSH2 0x587 JUMP JUMPDEST SWAP2 PUSH2 0x5CD PUSH1 0x1 DUP3 ADD PUSH2 0x587 JUMP JUMPDEST SWAP2 PUSH2 0x5DA PUSH1 0x2 DUP4 ADD PUSH2 0x587 JUMP JUMPDEST SWAP2 PUSH2 0x5E7 PUSH1 0x3 DUP3 ADD PUSH2 0x587 JUMP JUMPDEST SWAP2 PUSH2 0x178 PUSH1 0x5 PUSH2 0x5F9 PUSH1 0x4 DUP6 ADD PUSH2 0x587 JUMP JUMPDEST SWAP4 ADD SLOAD PUSH1 0x1 PUSH1 0x1 PUSH1 0xA0 SHL SUB AND SWAP1 JUMP JUMPDEST DUP4 DUP1 REVERT JUMPDEST SWAP2 SWAP5 PUSH2 0x649 PUSH2 0x650 SWAP3 SWAP9 SWAP8 SWAP6 PUSH2 0x642 PUSH1 0xA0 SWAP7 PUSH2 0x63B PUSH2 0x162 SWAP11 PUSH2 0x634 PUSH1 0xC0 DUP11 ADD SWAP15 PUSH1 0x0 DUP12 ADD MSTORE JUMP JUMPDEST PUSH1 0x20 DUP10 ADD MSTORE JUMP JUMPDEST PUSH1 0x40 DUP8 ADD MSTORE JUMP JUMPDEST PUSH1 0x60 DUP6 ADD MSTORE JUMP JUMPDEST PUSH1 0x80 DUP4 ADD MSTORE JUMP JUMPDEST ADD SWAP1 PUSH1 0x1 PUSH1 0x1 PUSH1 0xA0 SHL SUB AND SWAP1 MSTORE JUMP JUMPDEST CALLVALUE PUSH2 0x147 JUMPI PUSH2 0x1C0 PUSH2 0x67B PUSH2 0x675 CALLDATASIZE PUSH1 0x4 PUSH2 0x3A4 JUMP JUMPDEST SWAP1 PUSH2 0x591 JUMP JUMPDEST SWAP3 PUSH2 0x68B SWAP7 SWAP5 SWAP7 SWAP3 SWAP2 SWAP3 PUSH1 0x40 MLOAD SWAP1 JUMP JUMPDEST SWAP7 DUP8 SWAP7 DUP8 PUSH2 0x60C JUMP JUMPDEST SWAP1 SWAP2 PUSH1 0x60 DUP3 DUP5 SUB SLT PUSH2 0x147 JUMPI PUSH2 0x178 PUSH2 0x6AD DUP5 DUP5 PUSH2 0x1D3 JUMP JUMPDEST SWAP4 PUSH2 0x6BB DUP2 PUSH1 0x20 DUP7 ADD PUSH2 0x1D3 JUMP JUMPDEST SWAP4 PUSH1 0x40 ADD PUSH2 0x155 JUMP JUMPDEST CALLVALUE PUSH2 0x147 JUMPI PUSH2 0x1C0 PUSH2 0x67B PUSH2 0x6DA CALLDATASIZE PUSH1 0x4 PUSH2 0x694 JUMP JUMPDEST SWAP2 PUSH2 0x1C7A JUMP JUMPDEST PUSH2 0x1C0 PUSH2 0x4C6 PUSH2 0x6F1 CALLDATASIZE PUSH1 0x4 PUSH2 0x4D2 JUMP JUMPDEST SWAP3 SWAP2 SWAP1 SWAP2 PUSH2 0xEFF JUMP JUMPDEST CALLVALUE PUSH2 0x147 JUMPI PUSH2 0x237 PUSH2 0x70D CALLDATASIZE PUSH1 0x4 PUSH2 0x23C JUMP JUMPDEST SWAP3 SWAP2 SWAP1 SWAP2 PUSH2 0x1B78 JUMP JUMPDEST CALLVALUE PUSH2 0x147 JUMPI PUSH2 0x237 PUSH2 0x729 CALLDATASIZE PUSH1 0x4 PUSH2 0x1E0 JUMP JUMPDEST PUSH2 0x88B JUMP JUMPDEST PUSH2 0x736 PUSH2 0x7C6 JUMP JUMPDEST PUSH2 0x162 PUSH2 0x754 JUMP JUMPDEST PUSH2 0x17B PUSH2 0x178 PUSH2 0x178 SWAP3 SWAP1 JUMP JUMPDEST PUSH2 0x178 SWAP1 PUSH2 0x73E JUMP JUMPDEST PUSH2 0x162 PUSH2 0x761 PUSH1 0x0 PUSH2 0x74B JUMP JUMPDEST PUSH2 0x8C4 JUMP JUMPDEST PUSH2 0x162 PUSH2 0x72E JUMP JUMPDEST ADD SWAP1 JUMP JUMPDEST ISZERO PUSH2 0x779 JUMPI JUMP JUMPDEST PUSH1 0x40 MLOAD PUSH3 0x461BCD PUSH1 0xE5 SHL DUP2 MSTORE DUP1 PUSH2 0x7C2 PUSH1 0x4 DUP3 ADD PUSH1 0x20 DUP1 DUP3 MSTORE DUP2 DUP2 ADD MSTORE PUSH32 0x4F776E61626C653A2063616C6C6572206973206E6F7420746865206F776E6572 PUSH1 0x40 DUP3 ADD MSTORE PUSH1 0x60 ADD SWAP1 JUMP JUMPDEST SUB SWAP1 REVERT JUMPDEST PUSH2 0x162 PUSH2 0x7DB PUSH1 0x0 SLOAD PUSH1 0x1 PUSH1 0x1 PUSH1 0xA0 SHL SUB AND SWAP1 JUMP JUMPDEST PUSH2 0x7F4 PUSH2 0x7E7 CALLER PUSH2 0x17B JUMP JUMPDEST SWAP2 PUSH1 0x1 PUSH1 0x1 PUSH1 0xA0 SHL SUB AND SWAP1 JUMP JUMPDEST EQ PUSH2 0x772 JUMP JUMPDEST PUSH2 0x162 SWAP1 PUSH2 0x806 PUSH2 0x7C6 JUMP JUMPDEST PUSH2 0x866 JUMP JUMPDEST ISZERO PUSH2 0x812 JUMPI JUMP JUMPDEST PUSH1 0x40 MLOAD PUSH3 0x461BCD PUSH1 0xE5 SHL DUP2 MSTORE PUSH1 0x20 PUSH1 0x4 DUP3 ADD MSTORE PUSH1 0x26 PUSH1 0x24 DUP3 ADD MSTORE PUSH32 0x4F776E61626C653A206E6577206F776E657220697320746865207A65726F2061 PUSH1 0x44 DUP3 ADD MSTORE PUSH6 0x646472657373 PUSH1 0xD0 SHL PUSH1 0x64 DUP3 ADD MSTORE PUSH1 0x84 SWAP1 REVERT JUMPDEST PUSH2 0x162 SWAP1 PUSH2 0x761 PUSH2 0x87A PUSH2 0x17B PUSH1 0x0 PUSH2 0x74B JUMP JUMPDEST PUSH1 0x1 PUSH1 0x1 PUSH1 0xA0 SHL SUB DUP4 AND EQ ISZERO PUSH2 0x80B JUMP JUMPDEST PUSH2 0x162 SWAP1 PUSH2 0x7FA JUMP JUMPDEST SWAP1 PUSH1 0x1 PUSH1 0x1 PUSH1 0xA0 SHL SUB SWAP1 JUMPDEST SWAP2 DUP2 NOT AND SWAP2 AND OR SWAP1 JUMP JUMPDEST SWAP1 PUSH2 0x8B9 PUSH2 0x178 PUSH2 0x8C0 SWAP3 PUSH2 0x336 JUMP JUMPDEST DUP3 SLOAD PUSH2 0x894 JUMP JUMPDEST SWAP1 SSTORE JUMP JUMPDEST PUSH1 0x0 SLOAD PUSH1 0x1 PUSH1 0x1 PUSH1 0xA0 SHL SUB AND SWAP1 PUSH2 0x8DC DUP2 PUSH1 0x0 PUSH2 0x8A9 JUMP JUMPDEST PUSH2 0x90F PUSH2 0x909 PUSH32 0x8BE0079C531659141344CD1FD0A4F28419497F9722A3DAAFE3B4186F6B6457E0 SWAP4 PUSH2 0x336 JUMP JUMPDEST SWAP2 PUSH2 0x336 JUMP JUMPDEST SWAP2 PUSH2 0x919 PUSH1 0x40 MLOAD SWAP1 JUMP JUMPDEST PUSH1 0x0 SWAP1 LOG3 JUMP JUMPDEST PUSH2 0x162 SWAP1 PUSH2 0x92B PUSH2 0x7C6 JUMP JUMPDEST PUSH2 0x162 SWAP1 PUSH1 0x6 PUSH2 0x8A9 JUMP JUMPDEST PUSH2 0x162 SWAP1 PUSH2 0x91F JUMP JUMPDEST PUSH4 0x4E487B71 PUSH1 0xE0 SHL PUSH1 0x0 MSTORE PUSH1 0x41 PUSH1 0x4 MSTORE PUSH1 0x24 PUSH1 0x0 REVERT JUMPDEST SWAP1 PUSH1 0x1F ADD PUSH1 0x1F NOT AND DUP2 ADD SWAP1 DUP2 LT PUSH8 0xFFFFFFFFFFFFFFFF DUP3 GT OR PUSH2 0x977 JUMPI PUSH1 0x40 MSTORE JUMP JUMPDEST PUSH2 0x93F JUMP JUMPDEST SWAP1 PUSH2 0x162 PUSH2 0x989 PUSH1 0x40 MLOAD SWAP1 JUMP JUMPDEST SWAP3 DUP4 PUSH2 0x955 JUMP JUMPDEST PUSH2 0x178 PUSH1 0xC0 PUSH2 0x97C JUMP JUMPDEST PUSH2 0x9A2 PUSH2 0x990 JUMP JUMPDEST SWAP1 PUSH1 0x0 DUP3 MSTORE PUSH1 0x20 DUP1 DUP1 DUP1 DUP1 DUP1 DUP8 ADD PUSH1 0x0 DUP2 MSTORE ADD PUSH1 0x0 DUP2 MSTORE ADD PUSH1 0x0 DUP2 MSTORE ADD PUSH1 0x0 DUP2 MSTORE ADD PUSH1 0x0 SWAP1 MSTORE POP JUMP JUMPDEST PUSH2 0x178 PUSH2 0x99A JUMP JUMPDEST SWAP1 PUSH2 0x9E8 SWAP5 SWAP4 SWAP3 SWAP2 PUSH2 0x9E3 PUSH2 0xF69 JUMP JUMPDEST PUSH2 0xC1B JUMP JUMPDEST SWAP1 PUSH2 0x162 PUSH2 0xFA5 JUMP JUMPDEST PUSH2 0x178 PUSH2 0x178 PUSH2 0x178 SWAP3 SWAP1 JUMP JUMPDEST PUSH2 0x178 PUSH20 0x5C69BEE701EF814A2B6A3EDD4B1652CB9CC5AA6F PUSH2 0x336 JUMP JUMPDEST SWAP1 POP MLOAD SWAP1 PUSH2 0x162 DUP3 PUSH2 0x1C4 JUMP JUMPDEST SWAP1 PUSH1 0x20 DUP3 DUP3 SUB SLT PUSH2 0x147 JUMPI PUSH2 0x178 SWAP2 PUSH2 0xA1B JUMP JUMPDEST PUSH1 0x40 MLOAD RETURNDATASIZE PUSH1 0x0 DUP3 RETURNDATACOPY RETURNDATASIZE SWAP1 REVERT JUMPDEST PUSH1 0x1 PUSH1 0x1 PUSH1 0xA0 SHL SUB SWAP1 SWAP2 AND DUP2 MSTORE PUSH1 0x40 DUP2 ADD SWAP3 SWAP2 PUSH2 0x162 SWAP2 PUSH1 0x20 SWAP1 PUSH2 0x650 JUMP JUMPDEST PUSH4 0x4E487B71 PUSH1 0xE0 SHL PUSH1 0x0 MSTORE PUSH1 0x0 PUSH1 0x4 MSTORE PUSH1 0x24 PUSH1 0x0 REVERT JUMPDEST SWAP1 PUSH1 0x0 NOT SWAP1 PUSH2 0x89F JUMP JUMPDEST SWAP1 PUSH2 0xA97 PUSH2 0x178 PUSH2 0x8C0 SWAP3 PUSH2 0x9F1 JUMP JUMPDEST DUP3 SLOAD PUSH2 0xA7D JUMP JUMPDEST PUSH2 0x162 SWAP2 SWAP1 PUSH2 0xB17 SWAP1 PUSH1 0xA0 SWAP1 PUSH1 0x5 SWAP1 PUSH2 0xABF DUP2 PUSH2 0xAB9 DUP8 MLOAD SWAP1 JUMP JUMPDEST SWAP1 PUSH2 0xA87 JUMP JUMPDEST PUSH2 0xAD1 PUSH1 0x1 DUP3 ADD PUSH2 0xAB9 PUSH1 0x20 DUP9 ADD MLOAD SWAP1 JUMP JUMPDEST PUSH2 0xAE3 PUSH1 0x2 DUP3 ADD PUSH2 0xAB9 PUSH1 0x40 DUP9 ADD MLOAD SWAP1 JUMP JUMPDEST PUSH2 0xAF5 PUSH1 0x3 DUP3 ADD PUSH2 0xAB9 PUSH1 0x60 DUP9 ADD MLOAD SWAP1 JUMP JUMPDEST PUSH2 0xB07 PUSH1 0x4 DUP3 ADD PUSH2 0xAB9 PUSH1 0x80 DUP9 ADD MLOAD SWAP1 JUMP JUMPDEST ADD SWAP3 ADD MLOAD PUSH1 0x1 PUSH1 0x1 PUSH1 0xA0 SHL SUB AND SWAP1 JUMP JUMPDEST SWAP1 PUSH2 0x8A9 JUMP JUMPDEST SWAP2 SWAP1 PUSH2 0xB2C JUMPI PUSH2 0x162 SWAP2 PUSH2 0xA9E JUMP JUMPDEST PUSH2 0xA67 JUMP JUMPDEST SWAP1 DUP2 SLOAD SWAP2 PUSH1 0x1 PUSH1 0x40 SHL DUP4 LT ISZERO PUSH2 0x977 JUMPI DUP3 PUSH2 0xB54 SWAP2 PUSH1 0x1 PUSH2 0x162 SWAP6 ADD DUP2 SSTORE PUSH2 0x558 JUMP JUMPDEST SWAP1 PUSH2 0xB1D JUMP JUMPDEST DUP1 SLOAD DUP3 LT ISZERO PUSH2 0x57B JUMPI PUSH2 0x572 PUSH1 0x1 SWAP2 PUSH1 0x0 MSTORE PUSH1 0x20 PUSH1 0x0 KECCAK256 SWAP1 JUMP JUMPDEST SWAP2 PUSH1 0x0 NOT PUSH1 0x8 SWAP3 SWAP1 SWAP3 MUL SWAP2 DUP3 SHL SWAP2 SHL PUSH2 0x89F JUMP JUMPDEST SWAP2 SWAP1 PUSH2 0xB99 PUSH2 0x178 PUSH2 0x8C0 SWAP4 PUSH2 0x9F1 JUMP JUMPDEST SWAP1 DUP4 SLOAD PUSH2 0xB74 JUMP JUMPDEST SWAP1 DUP2 SLOAD SWAP2 PUSH1 0x1 PUSH1 0x40 SHL DUP4 LT ISZERO PUSH2 0x977 JUMPI DUP3 PUSH2 0xBC4 SWAP2 PUSH1 0x1 PUSH2 0x162 SWAP6 ADD DUP2 SSTORE PUSH2 0xB5A JUMP JUMPDEST SWAP1 PUSH2 0xB88 JUMP JUMPDEST SWAP1 SWAP6 SWAP5 SWAP3 PUSH2 0x162 SWAP5 PUSH2 0xC10 PUSH2 0xC17 SWAP3 PUSH2 0xC09 PUSH1 0x80 SWAP7 PUSH2 0xBF9 PUSH1 0xA0 DUP9 ADD SWAP13 PUSH1 0x0 DUP10 ADD SWAP1 PUSH1 0x1 PUSH1 0x1 PUSH1 0xA0 SHL SUB AND SWAP1 MSTORE JUMP JUMPDEST PUSH1 0x1 PUSH1 0x1 PUSH1 0xA0 SHL SUB AND PUSH1 0x20 DUP8 ADD MSTORE JUMP JUMPDEST PUSH1 0x40 DUP6 ADD MSTORE JUMP JUMPDEST PUSH1 0x60 DUP4 ADD MSTORE JUMP JUMPDEST ADD MSTORE JUMP JUMPDEST SWAP5 SWAP4 SWAP1 SWAP2 SWAP5 DUP1 SWAP6 PUSH1 0x0 SWAP4 PUSH2 0xC2E DUP6 PUSH2 0x9F1 JUMP JUMPDEST DUP3 EQ PUSH2 0xEED JUMPI PUSH2 0xC42 PUSH5 0x2540BE400 PUSH2 0x9F1 JUMP JUMPDEST DUP7 GT PUSH2 0xEDB JUMPI PUSH2 0xC51 SWAP1 PUSH2 0x336 JUMP JUMPDEST SWAP2 PUSH2 0xC5B DUP4 PUSH2 0x336 JUMP JUMPDEST PUSH2 0xC6B PUSH2 0xC66 PUSH2 0x9FE JUMP JUMPDEST PUSH2 0x336 JUMP JUMPDEST PUSH2 0xC79 PUSH4 0xE6A43905 SWAP3 PUSH2 0x336 JUMP JUMPDEST PUSH4 0xDFE1681 SWAP2 PUSH2 0xC92 PUSH2 0xC8B PUSH1 0x40 MLOAD SWAP1 JUMP JUMPDEST SWAP4 PUSH1 0xE0 SHL SWAP1 JUMP JUMPDEST DUP4 MSTORE PUSH1 0x20 DUP4 PUSH1 0x4 DUP2 DUP6 GAS STATICCALL SWAP2 DUP3 ISZERO PUSH2 0xE90 JUMPI PUSH2 0xCC4 SWAP4 DUP11 SWAP4 PUSH2 0xEB9 JUMPI JUMPDEST POP PUSH1 0x40 MLOAD SWAP4 PUSH1 0x20 SWAP2 DUP6 SWAP2 PUSH4 0xD21220A7 PUSH1 0xE0 SHL SWAP1 JUMP JUMPDEST DUP3 MSTORE PUSH1 0x4 SWAP1 DUP3 SWAP1 GAS STATICCALL SWAP3 DUP4 ISZERO PUSH2 0xE90 JUMPI DUP10 SWAP4 PUSH2 0xE95 JUMPI JUMPDEST POP PUSH2 0xCFC PUSH1 0x20 SWAP4 SWAP5 PUSH2 0xD07 PUSH2 0xCEF PUSH1 0x40 MLOAD SWAP1 JUMP JUMPDEST SWAP7 DUP8 SWAP6 DUP7 SWAP5 DUP6 SWAP5 PUSH1 0xE0 SHL SWAP1 JUMP JUMPDEST DUP5 MSTORE PUSH1 0x4 DUP5 ADD PUSH2 0xA48 JUMP JUMPDEST SUB SWAP2 GAS STATICCALL SWAP1 DUP2 ISZERO PUSH2 0xE90 JUMPI DUP7 SWAP2 PUSH2 0xE62 JUMPI JUMPDEST POP PUSH2 0xD2C PUSH1 0x1 PUSH1 0x1 PUSH1 0xA0 SHL SUB DUP6 AND PUSH2 0x7E7 JUMP JUMPDEST SUB PUSH2 0xE31 JUMPI DUP3 CALLER SWAP5 DUP4 PUSH2 0xD3E ADDRESS PUSH2 0x336 JUMP JUMPDEST SWAP1 PUSH2 0xD4A SWAP2 DUP9 DUP6 PUSH2 0x1D7C JUMP JUMPDEST POP DUP3 DUP8 ADD SWAP7 PUSH2 0xD57 TIMESTAMP DUP10 MSTORE JUMP JUMPDEST PUSH1 0x20 DUP5 ADD SWAP5 PUSH2 0xD64 DUP2 DUP8 MSTORE JUMP JUMPDEST PUSH1 0x40 DUP6 ADD MSTORE PUSH1 0x60 DUP5 ADD SWAP9 DUP10 MSTORE PUSH1 0x5 SWAP4 PUSH2 0xD7D DUP5 DUP7 PUSH2 0x52A JUMP JUMPDEST SLOAD PUSH1 0x80 DUP3 ADD SWAP1 DUP2 MSTORE SWAP5 DUP5 PUSH2 0xD90 DUP6 PUSH2 0x336 JUMP JUMPDEST PUSH1 0x1 PUSH1 0x1 PUSH1 0xA0 SHL SUB AND PUSH1 0xA0 DUP5 ADD MSTORE PUSH2 0xDA7 SWAP2 PUSH2 0x52A JUMP JUMPDEST SWAP1 PUSH2 0xDB1 SWAP2 PUSH2 0xB31 JUMP JUMPDEST PUSH2 0xDBC DUP4 PUSH1 0x3 PUSH2 0xFC2 JUMP JUMPDEST POP DUP3 PUSH1 0x2 SWAP3 PUSH2 0xDCB SWAP1 DUP5 PUSH2 0x52A JUMP JUMPDEST SWAP2 DUP3 ADD SWAP1 PUSH2 0xDD8 SWAP2 PUSH2 0xFC2 JUMP JUMPDEST POP ADD SWAP1 PUSH2 0xDE4 SWAP2 PUSH2 0x52A JUMP JUMPDEST SWAP1 MLOAD PUSH2 0xDEF SWAP2 PUSH2 0xBA1 JUMP JUMPDEST MLOAD SWAP3 MLOAD SWAP4 MLOAD PUSH32 0xB173D70D03F0B8AA29E0087D55B3549DB8A6343C5208CE69AF3C0DE4C0836FE7 SWAP5 PUSH2 0xE1F PUSH1 0x40 MLOAD SWAP1 JUMP JUMPDEST SWAP5 DUP6 SWAP5 PUSH2 0xE2C SWAP5 DUP7 PUSH2 0xBCA JUMP JUMPDEST SUB SWAP1 LOG1 JUMP JUMPDEST PUSH2 0x7C2 DUP4 PUSH2 0xE3E PUSH1 0x40 MLOAD SWAP1 JUMP JUMPDEST PUSH4 0xA3F6EE1 PUSH1 0xE2 SHL DUP2 MSTORE SWAP2 DUP3 SWAP2 PUSH1 0x4 DUP4 ADD PUSH1 0x1 PUSH1 0x1 PUSH1 0xA0 SHL SUB SWAP1 SWAP2 AND DUP2 MSTORE PUSH1 0x20 ADD SWAP1 JUMP JUMPDEST PUSH2 0xE83 SWAP2 POP PUSH1 0x20 RETURNDATASIZE DUP2 GT PUSH2 0xE89 JUMPI JUMPDEST PUSH2 0xE7B DUP2 DUP4 PUSH2 0x955 JUMP JUMPDEST DUP2 ADD SWAP1 PUSH2 0xA28 JUMP JUMPDEST CODESIZE PUSH2 0xD19 JUMP JUMPDEST POP RETURNDATASIZE PUSH2 0xE71 JUMP JUMPDEST PUSH2 0xA3C JUMP JUMPDEST PUSH1 0x20 SWAP4 POP PUSH2 0xEB2 PUSH2 0xCFC SWAP2 DUP6 RETURNDATASIZE DUP2 GT PUSH2 0xE89 JUMPI PUSH2 0xE7B DUP2 DUP4 PUSH2 0x955 JUMP JUMPDEST SWAP4 POP PUSH2 0xCDB JUMP JUMPDEST PUSH1 0x20 SWAP2 SWAP4 POP PUSH2 0xED4 SWAP1 DUP3 RETURNDATASIZE DUP2 GT PUSH2 0xE89 JUMPI PUSH2 0xE7B DUP2 DUP4 PUSH2 0x955 JUMP JUMPDEST SWAP3 SWAP1 PUSH2 0xCAF JUMP JUMPDEST PUSH1 0x40 MLOAD PUSH4 0x7B663C49 PUSH1 0xE0 SHL DUP2 MSTORE PUSH1 0x4 SWAP1 REVERT JUMPDEST PUSH1 0x40 MLOAD PUSH4 0x162908E3 PUSH1 0xE1 SHL DUP2 MSTORE PUSH1 0x4 SWAP1 REVERT JUMPDEST SWAP1 PUSH2 0x178 SWAP4 SWAP3 SWAP2 PUSH2 0xF0E PUSH2 0x9CB JUMP JUMPDEST PUSH2 0x9D3 JUMP JUMPDEST PUSH2 0x178 PUSH1 0x2 PUSH2 0x9F1 JUMP JUMPDEST ISZERO PUSH2 0xF24 JUMPI JUMP JUMPDEST PUSH1 0x40 MLOAD PUSH3 0x461BCD PUSH1 0xE5 SHL DUP2 MSTORE PUSH1 0x20 PUSH1 0x4 DUP3 ADD MSTORE PUSH1 0x1F PUSH1 0x24 DUP3 ADD MSTORE PUSH32 0x5265656E7472616E637947756172643A207265656E7472616E742063616C6C00 PUSH1 0x44 DUP3 ADD MSTORE PUSH1 0x64 SWAP1 REVERT JUMPDEST PUSH2 0x162 PUSH2 0xF76 PUSH1 0x1 PUSH2 0x587 JUMP JUMPDEST PUSH2 0xF94 PUSH2 0xF81 PUSH2 0xF13 JUMP JUMPDEST SWAP2 DUP3 SWAP1 PUSH2 0xF8D JUMP JUMPDEST SWAP2 SWAP1 JUMP JUMPDEST EQ ISZERO PUSH2 0xF1D JUMP JUMPDEST PUSH1 0x1 PUSH2 0xA87 JUMP JUMPDEST PUSH2 0x178 PUSH1 0x1 PUSH2 0x9F1 JUMP JUMPDEST PUSH2 0x162 PUSH2 0xF94 PUSH2 0xF9B JUMP JUMPDEST PUSH2 0x178 SWAP1 DUP2 SWAP1 PUSH1 0x1 PUSH1 0x1 PUSH1 0xA0 SHL SUB AND DUP2 JUMP JUMPDEST SWAP1 PUSH2 0xFEF PUSH2 0xF89 PUSH2 0xFEA PUSH2 0xFE5 PUSH1 0x0 PUSH2 0x178 SWAP7 PUSH2 0xFDD PUSH1 0x0 SWAP1 JUMP JUMPDEST POP ADD SWAP5 PUSH2 0x32D JUMP JUMPDEST PUSH2 0xFB0 JUMP JUMPDEST PUSH2 0x9F1 JUMP JUMPDEST PUSH2 0x1032 JUMP JUMPDEST SWAP2 SWAP1 PUSH2 0xB99 PUSH2 0x178 PUSH2 0x8C0 SWAP4 SWAP1 JUMP JUMPDEST SWAP1 DUP2 SLOAD SWAP2 PUSH1 0x1 PUSH1 0x40 SHL DUP4 LT ISZERO PUSH2 0x977 JUMPI DUP3 PUSH2 0x1026 SWAP2 PUSH1 0x1 PUSH2 0x162 SWAP6 ADD DUP2 SSTORE PUSH2 0xB5A JUMP JUMPDEST SWAP1 PUSH2 0xFF4 JUMP JUMPDEST SWAP1 PUSH2 0x534 JUMP JUMPDEST PUSH2 0x1043 PUSH2 0x103F DUP4 DUP4 PUSH2 0x107C JUMP JUMPDEST ISZERO SWAP1 JUMP JUMPDEST ISZERO PUSH2 0x1075 JUMPI PUSH2 0x1070 SWAP2 PUSH2 0x106B SWAP1 PUSH1 0x1 PUSH2 0x1064 DUP5 PUSH2 0x1060 DUP5 DUP3 PUSH2 0x1003 JUMP JUMPDEST SLOAD SWAP1 JUMP JUMPDEST SWAP4 ADD PUSH2 0x102C JUMP JUMPDEST PUSH2 0xA87 JUMP JUMPDEST PUSH1 0x1 SWAP1 JUMP JUMPDEST POP POP PUSH1 0x0 SWAP1 JUMP JUMPDEST PUSH2 0x109A SWAP2 PUSH1 0x1 PUSH2 0x1095 SWAP3 PUSH2 0x108E PUSH1 0x0 SWAP1 JUMP JUMPDEST POP ADD PUSH2 0x102C JUMP JUMPDEST PUSH2 0x587 JUMP JUMPDEST PUSH2 0x10A7 PUSH2 0xF89 PUSH1 0x0 PUSH2 0x9F1 JUMP JUMPDEST EQ ISZERO SWAP1 JUMP JUMPDEST SWAP1 PUSH2 0x10C0 SWAP4 SWAP3 SWAP2 PUSH2 0x10BB PUSH2 0xF69 JUMP JUMPDEST PUSH2 0x10DE JUMP JUMPDEST PUSH2 0x162 PUSH2 0xFA5 JUMP JUMPDEST PUSH2 0x178 SWAP2 PUSH1 0x8 MUL SHR DUP2 JUMP JUMPDEST SWAP1 PUSH2 0x178 SWAP2 SLOAD PUSH2 0x10C8 JUMP JUMPDEST SWAP1 PUSH2 0x10ED PUSH5 0x2540BE400 PUSH2 0x9F1 JUMP JUMPDEST DUP5 GT PUSH2 0xEDB JUMPI PUSH2 0x112D PUSH2 0x1127 PUSH1 0x2 SWAP3 PUSH2 0x1122 PUSH2 0x111B PUSH2 0x1109 CALLER SWAP1 JUMP JUMPDEST SWAP6 PUSH2 0x1114 DUP8 DUP3 PUSH2 0x52A JUMP JUMPDEST ADD SWAP7 PUSH2 0x336 JUMP JUMPDEST DUP1 SWAP7 PUSH2 0x52A JUMP JUMPDEST PUSH2 0xB5A JUMP JUMPDEST SWAP1 PUSH2 0x10D3 JUMP JUMPDEST PUSH2 0x1153 PUSH2 0xF89 PUSH2 0x114F PUSH2 0x114B DUP5 PUSH2 0x1146 PUSH1 0x5 SWAP9 DUP10 PUSH2 0x52A JUMP JUMPDEST PUSH2 0x558 JUMP JUMPDEST POP SWAP1 JUMP JUMPDEST SWAP6 SWAP1 JUMP JUMPDEST EQ ISZERO SWAP2 DUP3 ISZERO PUSH2 0x11A3 JUMPI JUMPDEST POP POP PUSH2 0x1191 JUMPI PUSH1 0x3 ADD SWAP1 PUSH2 0x1170 DUP3 PUSH2 0x587 JUMP JUMPDEST DUP2 LT PUSH2 0x117F JUMPI PUSH2 0x162 SWAP2 PUSH2 0xA87 JUMP JUMPDEST PUSH1 0x40 MLOAD PUSH4 0xB9F317A5 PUSH1 0xE0 SHL DUP2 MSTORE PUSH1 0x4 SWAP1 REVERT JUMPDEST PUSH1 0x40 MLOAD PUSH4 0x459808CF PUSH1 0xE0 SHL DUP2 MSTORE PUSH1 0x4 SWAP1 REVERT JUMPDEST PUSH2 0x11CC SWAP2 SWAP3 POP PUSH2 0x11BF PUSH2 0x7E7 SWAP2 DUP6 ADD SLOAD PUSH1 0x1 PUSH1 0x1 PUSH1 0xA0 SHL SUB AND SWAP1 JUMP JUMPDEST SWAP3 PUSH1 0x1 PUSH1 0x1 PUSH1 0xA0 SHL SUB AND SWAP1 JUMP JUMPDEST EQ ISZERO CODESIZE DUP1 PUSH2 0x115D JUMP JUMPDEST SWAP1 PUSH2 0x162 SWAP4 SWAP3 SWAP2 PUSH2 0x10AC JUMP JUMPDEST SWAP1 PUSH2 0x10C0 SWAP4 SWAP3 SWAP2 PUSH2 0x11F0 PUSH2 0xF69 JUMP JUMPDEST PUSH2 0x1284 JUMP JUMPDEST PUSH4 0x4E487B71 PUSH1 0xE0 SHL PUSH1 0x0 MSTORE PUSH1 0x11 PUSH1 0x4 MSTORE PUSH1 0x24 PUSH1 0x0 REVERT JUMPDEST SWAP2 SWAP1 DUP3 SUB SWAP2 DUP3 GT PUSH2 0x1218 JUMPI JUMP JUMPDEST PUSH2 0x11F5 JUMP JUMPDEST PUSH4 0x4E487B71 PUSH1 0xE0 SHL PUSH1 0x0 MSTORE PUSH1 0x31 PUSH1 0x4 MSTORE PUSH1 0x24 PUSH1 0x0 REVERT JUMPDEST PUSH2 0x162 SWAP2 PUSH1 0x0 SWAP2 PUSH2 0xB88 JUMP JUMPDEST DUP1 SLOAD DUP1 ISZERO PUSH2 0x1262 JUMPI PUSH1 0x0 NOT ADD SWAP1 PUSH2 0x125F PUSH2 0x1259 DUP4 DUP4 PUSH2 0xB5A JUMP JUMPDEST SWAP1 PUSH2 0x1233 JUMP JUMPDEST SSTORE JUMP JUMPDEST PUSH2 0x121D JUMP JUMPDEST PUSH1 0x1 PUSH1 0x1 PUSH1 0xA0 SHL SUB SWAP1 SWAP2 AND DUP2 MSTORE PUSH1 0x40 DUP2 ADD SWAP3 SWAP2 PUSH2 0x162 SWAP2 PUSH1 0x20 ADD MSTORE JUMP JUMPDEST SWAP3 SWAP2 SWAP1 SWAP3 PUSH1 0x0 SWAP1 PUSH2 0x1294 DUP3 PUSH2 0x9F1 JUMP JUMPDEST DUP5 EQ PUSH2 0xEED JUMPI PUSH2 0x1122 SWAP5 PUSH1 0x2 SWAP1 CALLER SWAP3 PUSH2 0x12C8 PUSH2 0x1127 DUP4 PUSH2 0x12BF DUP7 PUSH2 0x12B8 DUP10 DUP3 PUSH2 0x52A JUMP JUMPDEST ADD SWAP5 PUSH2 0x336 JUMP JUMPDEST SWAP11 DUP12 DUP1 SWAP6 PUSH2 0x52A JUMP JUMPDEST PUSH2 0x12E5 PUSH2 0xF89 PUSH2 0x12E1 PUSH2 0x114B DUP5 PUSH2 0x1146 PUSH1 0x5 SWAP8 DUP9 PUSH2 0x52A JUMP JUMPDEST SWAP9 SWAP1 JUMP JUMPDEST EQ ISZERO SWAP1 DUP2 ISZERO PUSH2 0x1415 JUMPI JUMPDEST POP PUSH2 0x1191 JUMPI PUSH2 0x1300 PUSH1 0x3 DUP7 ADD PUSH2 0x587 JUMP JUMPDEST TIMESTAMP LT PUSH2 0x117F JUMPI DUP3 DUP7 SWAP5 DUP9 SWAP3 PUSH2 0x1330 PUSH1 0x1 PUSH2 0x134C SWAP10 ADD PUSH2 0x1095 PUSH2 0x132A DUP11 PUSH2 0x1325 DUP5 PUSH2 0x587 JUMP JUMPDEST PUSH2 0x120B JUMP JUMPDEST DUP3 PUSH2 0xA87 JUMP JUMPDEST PUSH2 0x133C PUSH2 0xF89 DUP5 PUSH2 0x9F1 JUMP JUMPDEST EQ PUSH2 0x1384 JUMPI JUMPDEST POP POP POP SWAP1 POP PUSH2 0x1E10 JUMP JUMPDEST POP PUSH32 0xBACE9FD79D5EA02ED8B43FA96AF07E4E8F859A2F71FF878C748F5C22C5780284 SWAP2 PUSH2 0xE2C PUSH2 0x137B PUSH1 0x40 MLOAD SWAP1 JUMP JUMPDEST SWAP3 DUP4 SWAP3 DUP4 PUSH2 0x1267 JUMP JUMPDEST PUSH2 0x13DE SWAP1 PUSH2 0x13D5 PUSH2 0x13A3 PUSH2 0x178 DUP8 DUP10 PUSH2 0x139D DUP10 DUP3 PUSH2 0x52A JUMP JUMPDEST ADD PUSH2 0x52A JUMP JUMPDEST SWAP2 PUSH2 0xBC4 PUSH2 0x13CE PUSH2 0x1127 PUSH2 0x13C8 PUSH2 0x13B8 DUP8 SLOAD SWAP1 JUMP JUMPDEST PUSH2 0x13C2 PUSH1 0x1 PUSH2 0x9F1 JUMP JUMPDEST SWAP1 PUSH2 0x120B JUMP JUMPDEST DUP7 PUSH2 0xB5A JUMP JUMPDEST SWAP2 DUP5 PUSH2 0xB5A JUMP JUMPDEST PUSH2 0x1060 DUP2 PUSH2 0x123F JUMP JUMPDEST PUSH2 0x13EA PUSH2 0xF89 DUP4 PUSH2 0x9F1 JUMP JUMPDEST EQ PUSH2 0x13F6 JUMPI JUMPDEST DUP1 PUSH2 0x1342 JUMP JUMPDEST PUSH2 0x76E PUSH2 0x1406 SWAP3 PUSH2 0x140B SWAP6 PUSH2 0x52A JUMP JUMPDEST PUSH2 0x1449 JUMP JUMPDEST POP CODESIZE DUP6 DUP3 DUP3 PUSH2 0x13F0 JUMP JUMPDEST DUP7 ADD SLOAD PUSH1 0x1 PUSH1 0x1 PUSH1 0xA0 SHL SUB AND SWAP1 POP PUSH2 0x1435 PUSH1 0x1 PUSH1 0x1 PUSH1 0xA0 SHL SUB DUP6 AND PUSH2 0x7E7 JUMP JUMPDEST EQ ISZERO CODESIZE PUSH2 0x12EF JUMP JUMPDEST SWAP1 PUSH2 0x162 SWAP4 SWAP3 SWAP2 PUSH2 0x11E1 JUMP JUMPDEST SWAP1 PUSH2 0x1464 PUSH2 0xF89 PUSH2 0xFEA PUSH2 0xFE5 PUSH1 0x0 PUSH2 0x178 SWAP7 PUSH2 0xFDD PUSH1 0x0 SWAP1 JUMP JUMPDEST PUSH2 0x1495 JUMP JUMPDEST PUSH2 0x162 SWAP2 PUSH1 0x0 SWAP2 PUSH2 0xFF4 JUMP JUMPDEST DUP1 SLOAD DUP1 ISZERO PUSH2 0x1262 JUMPI PUSH1 0x0 NOT ADD SWAP1 PUSH2 0x125F PUSH2 0x148F DUP4 DUP4 PUSH2 0xB5A JUMP JUMPDEST SWAP1 PUSH2 0x1469 JUMP JUMPDEST SWAP1 PUSH2 0x14A6 PUSH2 0x1095 DUP3 PUSH1 0x1 DUP6 ADD PUSH2 0x102C JUMP JUMPDEST PUSH1 0x0 SWAP3 PUSH2 0x14B2 DUP5 PUSH2 0x9F1 JUMP JUMPDEST DUP3 EQ PUSH2 0x14FF JUMPI PUSH2 0x178 SWAP3 PUSH2 0x1505 SWAP5 SWAP3 PUSH2 0x1510 SWAP3 PUSH2 0x150A PUSH1 0x1 SWAP8 DUP9 SWAP4 PUSH2 0x14DF PUSH2 0x14D9 DUP7 PUSH2 0x9F1 JUMP JUMPDEST DUP3 PUSH2 0x120B JUMP JUMPDEST DUP9 DUP6 ADD SWAP2 PUSH2 0x14F7 PUSH2 0x14EE DUP5 SLOAD SWAP1 JUMP JUMPDEST PUSH2 0x13C2 DUP10 PUSH2 0x9F1 JUMP JUMPDEST DUP3 DUP2 SUB PUSH2 0x1515 JUMPI JUMPDEST POP POP POP SWAP1 JUMP JUMPDEST PUSH2 0x1475 JUMP JUMPDEST ADD PUSH2 0x102C JUMP JUMPDEST PUSH2 0x1233 JUMP JUMPDEST PUSH2 0x1026 PUSH2 0x1538 PUSH2 0x1540 SWAP5 PUSH2 0x152F PUSH2 0x1127 PUSH2 0x106B SWAP6 DUP10 PUSH2 0xB5A JUMP JUMPDEST SWAP3 DUP4 SWAP2 DUP9 PUSH2 0xB5A JUMP JUMPDEST DUP9 DUP9 ADD PUSH2 0x102C JUMP JUMPDEST CODESIZE DUP1 DUP1 PUSH2 0x14FF JUMP JUMPDEST SWAP1 PUSH2 0x9E8 SWAP5 SWAP4 SWAP3 SWAP2 PUSH2 0x1558 PUSH2 0xF69 JUMP JUMPDEST PUSH2 0x160B JUMP JUMPDEST SWAP2 SWAP1 DUP3 ADD DUP1 SWAP3 GT PUSH2 0x1218 JUMPI JUMP JUMPDEST SWAP1 PUSH2 0x162 PUSH2 0x15F2 PUSH1 0x5 PUSH2 0x157B PUSH2 0x990 JUMP JUMPDEST SWAP5 PUSH2 0x158C PUSH2 0x1588 DUP3 PUSH2 0x587 JUMP JUMPDEST DUP8 MSTORE JUMP JUMPDEST PUSH2 0x15A2 PUSH2 0x159B PUSH1 0x1 DUP4 ADD PUSH2 0x587 JUMP JUMPDEST PUSH1 0x20 DUP9 ADD MSTORE JUMP JUMPDEST PUSH2 0x15B8 PUSH2 0x15B1 PUSH1 0x2 DUP4 ADD PUSH2 0x587 JUMP JUMPDEST PUSH1 0x40 DUP9 ADD MSTORE JUMP JUMPDEST PUSH2 0x15CE PUSH2 0x15C7 PUSH1 0x3 DUP4 ADD PUSH2 0x587 JUMP JUMPDEST PUSH1 0x60 DUP9 ADD MSTORE JUMP JUMPDEST PUSH2 0x15E4 PUSH2 0x15DD PUSH1 0x4 DUP4 ADD PUSH2 0x587 JUMP JUMPDEST PUSH1 0x80 DUP9 ADD MSTORE JUMP JUMPDEST ADD SLOAD PUSH1 0x1 PUSH1 0x1 PUSH1 0xA0 SHL SUB AND SWAP1 JUMP JUMPDEST PUSH1 0x1 PUSH1 0x1 PUSH1 0xA0 SHL SUB AND PUSH1 0xA0 DUP5 ADD MSTORE JUMP JUMPDEST PUSH2 0x178 SWAP1 PUSH2 0x156A JUMP JUMPDEST POP PUSH1 0x0 SWAP2 SWAP1 PUSH2 0x1619 DUP4 PUSH2 0x9F1 JUMP JUMPDEST DUP6 EQ PUSH2 0xEED JUMPI PUSH2 0x164E PUSH2 0x1127 PUSH1 0x2 SWAP4 PUSH2 0x1122 PUSH2 0x1647 PUSH2 0x1635 CALLER SWAP1 JUMP JUMPDEST SWAP7 PUSH2 0x1640 DUP9 DUP3 PUSH2 0x52A JUMP JUMPDEST ADD SWAP6 PUSH2 0x336 JUMP JUMPDEST DUP1 SWAP6 PUSH2 0x52A JUMP JUMPDEST PUSH1 0x5 SWAP1 PUSH2 0x166C PUSH2 0xF89 PUSH2 0x1668 PUSH2 0x114B DUP5 PUSH2 0x1146 DUP9 DUP9 PUSH2 0x52A JUMP JUMPDEST SWAP8 SWAP1 JUMP JUMPDEST EQ ISZERO SWAP1 DUP2 ISZERO PUSH2 0x1707 JUMPI JUMPDEST POP PUSH2 0x1191 JUMPI PUSH2 0x16FF PUSH2 0x16BE PUSH2 0x16B6 DUP8 PUSH2 0x169C PUSH2 0x178 SWAP10 PUSH2 0x1695 ADDRESS PUSH2 0x336 JUMP JUMPDEST DUP9 DUP9 PUSH2 0x1D7C JUMP JUMPDEST POP PUSH2 0x1095 PUSH2 0x132A PUSH1 0x1 DUP11 ADD SWAP3 PUSH2 0x16B1 DUP5 PUSH2 0x587 JUMP JUMPDEST PUSH2 0x155D JUMP JUMPDEST SWAP5 DUP7 ADD PUSH2 0x587 JUMP JUMPDEST PUSH2 0x16CA PUSH1 0x3 DUP8 ADD PUSH2 0x587 JUMP JUMPDEST SWAP1 PUSH32 0xB173D70D03F0B8AA29E0087D55B3549DB8A6343C5208CE69AF3C0DE4C0836FE7 SWAP6 PUSH2 0x16F6 PUSH1 0x40 MLOAD SWAP1 JUMP JUMPDEST SWAP6 DUP7 SWAP6 DUP7 PUSH2 0xBCA JUMP JUMPDEST SUB SWAP1 LOG1 PUSH2 0x1602 JUMP JUMPDEST DUP6 ADD SLOAD PUSH1 0x1 PUSH1 0x1 PUSH1 0xA0 SHL SUB AND SWAP1 POP PUSH2 0x1727 PUSH1 0x1 PUSH1 0x1 PUSH1 0xA0 SHL SUB DUP5 AND PUSH2 0x7E7 JUMP JUMPDEST EQ ISZERO CODESIZE PUSH2 0x1676 JUMP JUMPDEST SWAP1 PUSH2 0x178 SWAP4 SWAP3 SWAP2 PUSH2 0x173E PUSH2 0x9CB JUMP JUMPDEST PUSH2 0x1548 JUMP JUMPDEST SWAP1 PUSH2 0x1759 PUSH2 0x17B PUSH1 0x0 SLOAD PUSH1 0x1 PUSH1 0x1 PUSH1 0xA0 SHL SUB AND SWAP1 JUMP JUMPDEST PUSH2 0x1762 DUP6 PUSH2 0x336 JUMP JUMPDEST EQ PUSH2 0x186A JUMPI CALLER SWAP4 PUSH1 0x2 PUSH2 0x1781 PUSH2 0x1127 DUP5 PUSH2 0x1122 DUP8 DUP6 PUSH2 0x139D DUP13 DUP3 PUSH2 0x52A JUMP JUMPDEST SWAP4 PUSH1 0x5 SWAP5 PUSH2 0x179C PUSH2 0xF89 PUSH2 0x12E1 PUSH2 0x114B DUP5 PUSH2 0x1146 DUP8 DUP13 PUSH2 0x52A JUMP JUMPDEST EQ ISZERO DUP1 ISZERO PUSH2 0x1843 JUMPI JUMPDEST PUSH2 0x1191 JUMPI PUSH2 0x162 SWAP7 PUSH2 0x1804 PUSH2 0x1822 SWAP6 PUSH2 0x17EF PUSH2 0x17DD PUSH2 0x178 DUP7 DUP9 PUSH2 0x17CC PUSH2 0x178 DUP13 DUP4 PUSH2 0x52A JUMP JUMPDEST PUSH2 0x17D6 DUP4 DUP3 PUSH2 0xFC2 JUMP JUMPDEST POP ADD PUSH2 0x52A JUMP JUMPDEST PUSH2 0x17E9 PUSH1 0x4 DUP13 ADD PUSH2 0x587 JUMP JUMPDEST SWAP1 PUSH2 0xBA1 JUMP JUMPDEST PUSH2 0x13D5 PUSH2 0x13A3 PUSH2 0x178 DUP7 DUP9 PUSH2 0x139D DUP9 DUP3 PUSH2 0x52A JUMP JUMPDEST PUSH1 0x0 SWAP1 PUSH2 0x1813 PUSH2 0xF89 DUP4 PUSH2 0x9F1 JUMP JUMPDEST EQ PUSH2 0x1829 JUMPI JUMPDEST POP POP POP POP PUSH2 0x336 JUMP JUMPDEST SWAP2 ADD PUSH2 0x8A9 JUMP JUMPDEST PUSH2 0x76E PUSH2 0x1406 SWAP3 PUSH2 0x1839 SWAP6 PUSH2 0x52A JUMP JUMPDEST POP CODESIZE DUP1 DUP1 DUP1 PUSH2 0x1819 JUMP JUMPDEST POP DUP6 DUP6 ADD SLOAD PUSH1 0x1 PUSH1 0x1 PUSH1 0xA0 SHL SUB AND PUSH2 0x1863 PUSH1 0x1 PUSH1 0x1 PUSH1 0xA0 SHL SUB DUP10 AND PUSH2 0x7E7 JUMP JUMPDEST EQ ISZERO PUSH2 0x17A5 JUMP JUMPDEST PUSH1 0x40 MLOAD PUSH4 0xCF04B1BB PUSH1 0xE0 SHL DUP2 MSTORE PUSH1 0x4 SWAP1 REVERT JUMPDEST SWAP1 PUSH2 0x10C0 SWAP4 SWAP3 SWAP2 PUSH2 0x188B PUSH2 0xF69 JUMP JUMPDEST PUSH2 0x18FF JUMP JUMPDEST DUP1 ISZERO ISZERO PUSH2 0x14E JUMP JUMPDEST SWAP1 POP MLOAD SWAP1 PUSH2 0x162 DUP3 PUSH2 0x1890 JUMP JUMPDEST SWAP1 PUSH1 0x20 DUP3 DUP3 SUB SLT PUSH2 0x147 JUMPI PUSH2 0x178 SWAP2 PUSH2 0x1898 JUMP JUMPDEST SWAP1 SWAP6 SWAP5 SWAP3 PUSH2 0x162 SWAP5 PUSH2 0x18EF PUSH2 0xC17 SWAP3 PUSH2 0xC09 PUSH1 0x80 SWAP7 PUSH2 0x18E8 PUSH1 0xA0 DUP9 ADD SWAP13 PUSH1 0x0 DUP10 ADD SWAP1 PUSH1 0x1 PUSH1 0x1 PUSH1 0xA0 SHL SUB AND SWAP1 MSTORE JUMP JUMPDEST PUSH1 0x20 DUP8 ADD MSTORE JUMP JUMPDEST PUSH1 0x1 PUSH1 0x1 PUSH1 0xA0 SHL SUB AND PUSH1 0x60 DUP4 ADD MSTORE JUMP JUMPDEST SWAP3 SWAP2 SWAP3 PUSH2 0x1917 PUSH2 0xC66 PUSH1 0x6 SLOAD PUSH1 0x1 PUSH1 0x1 PUSH1 0xA0 SHL SUB AND SWAP1 JUMP JUMPDEST SWAP4 PUSH1 0x0 SWAP5 PUSH2 0x192A PUSH2 0x7E7 PUSH2 0x17B DUP9 PUSH2 0x74B JUMP JUMPDEST EQ PUSH2 0x1B66 JUMPI PUSH2 0x1938 DUP6 PUSH2 0x9F1 JUMP JUMPDEST DUP5 EQ PUSH2 0xEED JUMPI PUSH1 0x2 CALLER SWAP4 PUSH2 0x1968 PUSH2 0x1127 DUP3 PUSH2 0x1122 PUSH2 0x1961 DUP7 PUSH2 0x195A DUP12 DUP3 PUSH2 0x52A JUMP JUMPDEST ADD SWAP9 PUSH2 0x336 JUMP JUMPDEST DUP1 SWAP9 PUSH2 0x52A JUMP JUMPDEST PUSH1 0x5 SWAP1 PUSH2 0x1986 PUSH2 0xF89 PUSH2 0x1982 PUSH2 0x114B DUP5 PUSH2 0x1146 DUP12 DUP9 PUSH2 0x52A JUMP JUMPDEST SWAP7 SWAP1 JUMP JUMPDEST EQ ISZERO SWAP1 DUP2 ISZERO PUSH2 0x1B3E JUMPI JUMPDEST POP PUSH2 0x1191 JUMPI DUP5 DUP8 DUP6 SWAP3 PUSH2 0x19B0 PUSH1 0x1 DUP8 ADD PUSH2 0x1095 PUSH2 0x132A DUP13 PUSH2 0x1325 DUP5 PUSH2 0x587 JUMP JUMPDEST PUSH2 0x19BC PUSH2 0xF89 DUP5 PUSH2 0x9F1 JUMP JUMPDEST EQ PUSH2 0x1AF3 JUMPI JUMPDEST POP POP POP POP POP PUSH4 0x95EA7B3 PUSH1 0x20 PUSH2 0x19FF PUSH2 0x19E6 PUSH2 0xC66 PUSH1 0x6 SLOAD PUSH1 0x1 PUSH1 0x1 PUSH1 0xA0 SHL SUB AND SWAP1 JUMP JUMPDEST SWAP3 PUSH2 0x1A0A DUP9 PUSH2 0x19F4 PUSH1 0x40 MLOAD SWAP1 JUMP JUMPDEST SWAP6 DUP7 SWAP5 DUP6 SWAP5 PUSH1 0xE0 SHL SWAP1 JUMP JUMPDEST DUP5 MSTORE PUSH1 0x4 DUP5 ADD PUSH2 0x1267 JUMP JUMPDEST SUB DUP2 DUP10 DUP8 GAS CALL DUP1 ISZERO PUSH2 0xE90 JUMPI PUSH2 0x1AC7 JUMPI JUMPDEST POP PUSH2 0x1A31 PUSH2 0xC66 PUSH1 0x6 SLOAD PUSH1 0x1 PUSH1 0x1 PUSH1 0xA0 SHL SUB AND SWAP1 JUMP JUMPDEST SWAP1 PUSH2 0x1A43 PUSH1 0x3 PUSH4 0xB7DF1D25 SWAP3 ADD PUSH2 0x587 JUMP JUMPDEST SWAP4 PUSH2 0x1A5A TIMESTAMP PUSH2 0x1A54 PUSH3 0x15180 PUSH2 0x9F1 JUMP JUMPDEST SWAP1 PUSH2 0x155D JUMP JUMPDEST SWAP2 DUP4 EXTCODESIZE ISZERO PUSH2 0x147 JUMPI PUSH2 0x1A8F PUSH2 0x1A84 SWAP4 DUP10 SWAP8 SWAP4 DUP9 SWAP5 PUSH2 0x1A77 PUSH1 0x40 MLOAD SWAP1 JUMP JUMPDEST SWAP11 DUP12 SWAP10 DUP11 SWAP9 DUP10 SWAP8 PUSH1 0xE0 SHL SWAP1 JUMP JUMPDEST DUP8 MSTORE PUSH1 0x4 DUP8 ADD PUSH2 0x18B9 JUMP JUMPDEST SUB SWAP3 GAS CALL DUP1 ISZERO PUSH2 0xE90 JUMPI PUSH2 0x1AA1 JUMPI POP POP JUMP JUMPDEST DUP2 PUSH2 0x162 SWAP3 SWAP1 RETURNDATASIZE LT PUSH2 0x1AC0 JUMPI JUMPDEST PUSH2 0x1AB8 DUP2 DUP4 PUSH2 0x955 JUMP JUMPDEST DUP2 ADD SWAP1 PUSH2 0x2B0 JUMP JUMPDEST POP RETURNDATASIZE PUSH2 0x1AAE JUMP JUMPDEST PUSH2 0x1AE7 SWAP1 PUSH1 0x20 RETURNDATASIZE DUP2 GT PUSH2 0x1AEC JUMPI JUMPDEST PUSH2 0x1ADF DUP2 DUP4 PUSH2 0x955 JUMP JUMPDEST DUP2 ADD SWAP1 PUSH2 0x18A5 JUMP JUMPDEST PUSH2 0x1A1B JUMP JUMPDEST POP RETURNDATASIZE PUSH2 0x1AD5 JUMP JUMPDEST PUSH2 0x1B0C SWAP1 PUSH2 0x13D5 PUSH2 0x13A3 PUSH2 0x178 DUP8 DUP10 PUSH2 0x139D DUP10 DUP3 PUSH2 0x52A JUMP JUMPDEST PUSH2 0x1B18 PUSH2 0xF89 DUP4 PUSH2 0x9F1 JUMP JUMPDEST EQ PUSH2 0x1B24 JUMPI JUMPDEST DUP4 PUSH2 0x19C2 JUMP JUMPDEST PUSH2 0x76E PUSH2 0x1406 SWAP3 PUSH2 0x1B34 SWAP6 PUSH2 0x52A JUMP JUMPDEST POP CODESIZE DUP3 DUP5 DUP8 PUSH2 0x1B1E JUMP JUMPDEST DUP5 ADD SLOAD PUSH1 0x1 PUSH1 0x1 PUSH1 0xA0 SHL SUB AND SWAP1 POP PUSH2 0x1B5E PUSH1 0x1 PUSH1 0x1 PUSH1 0xA0 SHL SUB DUP8 AND PUSH2 0x7E7 JUMP JUMPDEST EQ ISZERO CODESIZE PUSH2 0x1990 JUMP JUMPDEST PUSH1 0x40 MLOAD PUSH4 0x2ED9BF53 PUSH1 0xE2 SHL DUP2 MSTORE PUSH1 0x4 SWAP1 REVERT JUMPDEST SWAP1 PUSH2 0x162 SWAP4 SWAP3 SWAP2 PUSH2 0x187C JUMP JUMPDEST PUSH2 0x1060 PUSH2 0x178 SWAP2 PUSH2 0x1B93 PUSH1 0x0 SWAP1 JUMP JUMPDEST POP PUSH1 0x5 PUSH2 0x52A JUMP JUMPDEST PUSH2 0x178 PUSH1 0x3 JUMPDEST PUSH2 0x1BB7 PUSH1 0x0 PUSH2 0x178 SWAP3 PUSH2 0x1BB2 PUSH1 0x0 SWAP1 JUMP JUMPDEST POP ADD SWAP1 JUMP JUMPDEST PUSH1 0x0 PUSH2 0x178 SWAP2 PUSH2 0x1BC5 PUSH1 0x0 SWAP1 JUMP JUMPDEST POP ADD SLOAD SWAP1 JUMP JUMPDEST PUSH2 0x178 SWAP1 PUSH1 0x3 PUSH2 0x1BE4 JUMP JUMPDEST PUSH2 0x1BE4 JUMP JUMPDEST PUSH2 0x178 SWAP1 PUSH2 0x9F1 JUMP JUMPDEST PUSH2 0x1C09 PUSH2 0x1C04 PUSH2 0x178 SWAP4 PUSH2 0x1BFF PUSH1 0x0 PUSH2 0x1C0E SWAP6 PUSH2 0x1BB2 PUSH1 0x0 SWAP1 JUMP JUMPDEST PUSH2 0x1C13 JUMP JUMPDEST PUSH2 0x1BDB JUMP JUMPDEST PUSH2 0x73E JUMP JUMPDEST PUSH2 0x32D JUMP JUMPDEST PUSH2 0x178 SWAP2 PUSH1 0x0 PUSH2 0x1127 SWAP3 PUSH2 0x1C25 PUSH1 0x0 SWAP1 JUMP JUMPDEST POP ADD PUSH2 0xB5A JUMP JUMPDEST PUSH2 0x1BA1 PUSH1 0x0 PUSH2 0x76E PUSH2 0x178 PUSH2 0x178 SWAP5 PUSH2 0x1C43 PUSH1 0x0 SWAP1 JUMP JUMPDEST POP PUSH1 0x2 PUSH2 0x52A JUMP JUMPDEST SWAP1 PUSH2 0x1BD6 PUSH1 0x0 PUSH2 0x76E PUSH2 0x178 PUSH2 0x178 SWAP6 PUSH2 0x1C43 PUSH1 0x0 SWAP1 JUMP JUMPDEST PUSH2 0x178 SWAP2 PUSH2 0x1060 SWAP2 PUSH2 0x139D PUSH2 0x178 PUSH1 0x2 SWAP3 DUP4 PUSH2 0x52A JUMP JUMPDEST PUSH2 0x114B PUSH2 0x1CA4 PUSH2 0x1127 PUSH2 0x139D SWAP7 SWAP6 PUSH2 0x1122 DUP7 PUSH2 0x1CB0 SWAP7 PUSH2 0x1C98 PUSH1 0x0 SWAP1 JUMP JUMPDEST POP PUSH1 0x2 SWAP11 DUP12 SWAP2 DUP3 PUSH2 0x52A JUMP JUMPDEST PUSH2 0x1146 PUSH1 0x5 SWAP5 DUP6 PUSH2 0x52A JUMP JUMPDEST PUSH2 0x1CB9 DUP2 PUSH2 0x587 JUMP JUMPDEST PUSH2 0x1CD0 PUSH2 0x1CC8 PUSH1 0x1 DUP5 ADD PUSH2 0x587 JUMP JUMPDEST SWAP6 DUP4 ADD PUSH2 0x587 JUMP JUMPDEST SWAP4 PUSH2 0x1CFC PUSH2 0x1CE0 PUSH1 0x3 DUP6 ADD PUSH2 0x587 JUMP JUMPDEST SWAP5 PUSH2 0x1CED PUSH1 0x4 DUP7 ADD PUSH2 0x587 JUMP JUMPDEST SWAP5 ADD SLOAD PUSH1 0x1 PUSH1 0x1 PUSH1 0xA0 SHL SUB AND SWAP1 JUMP JUMPDEST SWAP2 SWAP6 SWAP5 SWAP4 SWAP3 SWAP2 SWAP1 JUMP JUMPDEST PUSH1 0x1 PUSH1 0x1 PUSH1 0xA0 SHL SUB SWAP2 DUP3 AND DUP2 MSTORE SWAP2 AND PUSH1 0x20 DUP3 ADD MSTORE PUSH1 0x60 DUP2 ADD SWAP3 SWAP2 PUSH2 0x162 SWAP2 PUSH1 0x40 ADD MSTORE JUMP JUMPDEST PUSH8 0xFFFFFFFFFFFFFFFF DUP2 GT PUSH2 0x977 JUMPI PUSH1 0x20 SWAP1 PUSH1 0x1F ADD PUSH1 0x1F NOT AND ADD SWAP1 JUMP JUMPDEST SWAP1 PUSH2 0x1D58 PUSH2 0x1D53 DUP4 PUSH2 0x1D29 JUMP JUMPDEST PUSH2 0x97C JUMP JUMPDEST SWAP2 DUP3 MSTORE JUMP JUMPDEST RETURNDATASIZE ISZERO PUSH2 0x1D77 JUMPI PUSH2 0x1D6C RETURNDATASIZE PUSH2 0x1D46 JUMP JUMPDEST SWAP1 RETURNDATASIZE PUSH1 0x0 PUSH1 0x20 DUP5 ADD RETURNDATACOPY JUMP JUMPDEST PUSH1 0x60 SWAP1 JUMP JUMPDEST SWAP1 SWAP2 PUSH2 0x1DBE PUSH1 0x0 SWAP5 SWAP4 PUSH2 0x1DAF DUP7 SWAP6 PUSH2 0x1D92 PUSH1 0x0 SWAP1 JUMP JUMPDEST POP PUSH1 0x40 MLOAD PUSH4 0x23B872DD PUSH1 0xE0 SHL PUSH1 0x20 DUP3 ADD MSTORE SWAP5 DUP6 SWAP4 PUSH1 0x24 DUP6 ADD PUSH2 0x1D05 JUMP JUMPDEST PUSH1 0x20 DUP3 ADD DUP2 SUB DUP3 MSTORE SUB DUP3 PUSH2 0x955 JUMP JUMPDEST DUP3 PUSH1 0x20 DUP3 ADD SWAP2 MLOAD SWAP3 GAS CALL PUSH2 0x1DD8 PUSH2 0x1DD3 PUSH2 0x1D5D JUMP JUMPDEST SWAP2 ISZERO SWAP1 JUMP JUMPDEST PUSH2 0x1DE2 JUMPI POP PUSH1 0x1 SWAP1 JUMP JUMPDEST DUP1 MLOAD PUSH2 0x1DF1 PUSH2 0xF89 PUSH1 0x0 PUSH2 0x9F1 JUMP JUMPDEST EQ PUSH2 0x1DFE JUMPI DUP1 MLOAD SWAP1 PUSH1 0x20 ADD REVERT JUMPDEST PUSH1 0x40 MLOAD PUSH4 0x12171D83 PUSH1 0xE3 SHL DUP2 MSTORE PUSH1 0x4 SWAP1 REVERT JUMPDEST PUSH1 0x0 SWAP3 PUSH2 0x1DBE DUP5 SWAP4 PUSH2 0x1E20 PUSH1 0x0 SWAP1 JUMP JUMPDEST POP PUSH2 0x1DAF PUSH2 0x1E2D PUSH1 0x40 MLOAD SWAP1 JUMP JUMPDEST PUSH4 0xA9059CBB PUSH1 0xE0 SHL PUSH1 0x20 DUP3 ADD MSTORE SWAP4 DUP5 SWAP3 PUSH1 0x24 DUP5 ADD PUSH2 0x1267 JUMP INVALID LOG2 PUSH5 0x6970667358 0x22 SLT KECCAK256 LOG0 JUMPDEST PUSH14 0x50E56A1F9024F04F73E055D7B245 SWAP7 PUSH0 0xA7 SLOAD PUSH15 0x58097CD7515870AB882664736F6C63 NUMBER STOP ADDMOD EQ STOP CALLER "},"gasEstimates":{"creation":{"codeDepositCost":"1560800","executionCost":"infinite","totalCost":"infinite"},"external":{"getLockedTokenAtIndex(uint256)":"infinite","getNumLockedTokens()":"infinite","getNumLocksForToken(address)":"infinite","getUserLockForTokenAtIndex(address,address,uint256)":"infinite","getUserLockedTokenAtIndex(address,uint256)":"infinite","getUserNumLockedTokens(address)":"infinite","getUserNumLocksForToken(address,address)":"infinite","incrementLock(address,uint256,uint256,uint256)":"infinite","lockLPToken(address,uint256,uint256,address)":"infinite","migrate(address,uint256,uint256,uint256)":"infinite","migrator()":"infinite","owner()":"2552","relock(address,uint256,uint256,uint256)":"infinite","renounceOwnership()":"infinite","setMigrator(address)":"infinite","tokenLocks(address,uint256)":"infinite","transferLockOwnership(address,uint256,uint256,address)":"infinite","transferOwnership(address)":"infinite","withdraw(address,uint256,uint256,uint256)":"infinite"}},"methodIdentifiers":{"getLockedTokenAtIndex(uint256)":"14dd79a3","getNumLockedTokens()":"783451e8","getNumLocksForToken(address)":"1f2a1d2f","getUserLockForTokenAtIndex(address,address,uint256)":"d4ff493f","getUserLockedTokenAtIndex(address,uint256)":"903df806","getUserNumLockedTokens(address)":"a3969815","getUserNumLocksForToken(address,address)":"a69d9c4f","incrementLock(address,uint256,uint256,uint256)":"a9b07cea","lockLPToken(address,uint256,uint256,address)":"df41bc5f","migrate(address,uint256,uint256,uint256)":"ee424278","migrator()":"7cd07e47","owner()":"8da5cb5b","relock(address,uint256,uint256,uint256)":"60491d24","renounceOwnership()":"715018a6","setMigrator(address)":"23cf3118","tokenLocks(address,uint256)":"ccebfa3f","transferLockOwnership(address,uint256,uint256,address)":"bef497fd","transferOwnership(address)":"f2fde38b","withdraw(address,uint256,uint256,uint256)":"4532d776"}},"storageLayout":{"storage":[{"astId":7,"contract":"src/LiquidityLocker.sol:LiquidityLocker","label":"_owner","offset":0,"slot":"0","type":"t_address"},{"astId":231,"contract":"src/LiquidityLocker.sol:LiquidityLocker","label":"_status","offset":0,"slot":"1","type":"t_uint256"},{"astId":6357,"contract":"src/LiquidityLocker.sol:LiquidityLocker","label":"_users","offset":0,"slot":"2","type":"t_mapping(t_address,t_struct(User)6339_storage)"},{"astId":6360,"contract":"src/LiquidityLocker.sol:LiquidityLocker","label":"_lockedTokens","offset":0,"slot":"3","type":"t_struct(AddressSet)2244_storage"},{"astId":6366,"contract":"src/LiquidityLocker.sol:LiquidityLocker","label":"tokenLocks","offset":0,"slot":"5","type":"t_mapping(t_address,t_array(t_struct(TokenLock)6352_storage)dyn_storage)"},{"astId":6369,"contract":"src/LiquidityLocker.sol:LiquidityLocker","label":"migrator","offset":0,"slot":"6","type":"t_contract(IUniswapV2Migrator)2852"}],"types":{"t_address":{"encoding":"inplace","label":"address","numberOfBytes":"20"},"t_array(t_bytes32)dyn_storage":{"base":"t_bytes32","encoding":"dynamic_array","label":"bytes32[]","numberOfBytes":"32"},"t_array(t_struct(TokenLock)6352_storage)dyn_storage":{"base":"t_struct(TokenLock)6352_storage","encoding":"dynamic_array","label":"struct LiquidityLocker.TokenLock[]","numberOfBytes":"32"},"t_array(t_uint256)dyn_storage":{"base":"t_uint256","encoding":"dynamic_array","label":"uint256[]","numberOfBytes":"32"},"t_bytes32":{"encoding":"inplace","label":"bytes32","numberOfBytes":"32"},"t_contract(IUniswapV2Migrator)2852":{"encoding":"inplace","label":"contract IUniswapV2Migrator","numberOfBytes":"20"},"t_mapping(t_address,t_array(t_struct(TokenLock)6352_storage)dyn_storage)":{"encoding":"mapping","key":"t_address","label":"mapping(address => struct LiquidityLocker.TokenLock[])","numberOfBytes":"32","value":"t_array(t_struct(TokenLock)6352_storage)dyn_storage"},"t_mapping(t_address,t_array(t_uint256)dyn_storage)":{"encoding":"mapping","key":"t_address","label":"mapping(address => uint256[])","numberOfBytes":"32","value":"t_array(t_uint256)dyn_storage"},"t_mapping(t_address,t_struct(User)6339_storage)":{"encoding":"mapping","key":"t_address","label":"mapping(address => struct LiquidityLocker.User)","numberOfBytes":"32","value":"t_struct(User)6339_storage"},"t_mapping(t_bytes32,t_uint256)":{"encoding":"mapping","key":"t_bytes32","label":"mapping(bytes32 => uint256)","numberOfBytes":"32","value":"t_uint256"},"t_struct(AddressSet)2244_storage":{"encoding":"inplace","label":"struct EnumerableSet.AddressSet","members":[{"astId":2243,"contract":"src/LiquidityLocker.sol:LiquidityLocker","label":"_inner","offset":0,"slot":"0","type":"t_struct(Set)1929_storage"}],"numberOfBytes":"64"},"t_struct(Set)1929_storage":{"encoding":"inplace","label":"struct EnumerableSet.Set","members":[{"astId":1924,"contract":"src/LiquidityLocker.sol:LiquidityLocker","label":"_values","offset":0,"slot":"0","type":"t_array(t_bytes32)dyn_storage"},{"astId":1928,"contract":"src/LiquidityLocker.sol:LiquidityLocker","label":"_indexes","offset":0,"slot":"1","type":"t_mapping(t_bytes32,t_uint256)"}],"numberOfBytes":"64"},"t_struct(TokenLock)6352_storage":{"encoding":"inplace","label":"struct LiquidityLocker.TokenLock","members":[{"astId":6341,"contract":"src/LiquidityLocker.sol:LiquidityLocker","label":"lockDate","offset":0,"slot":"0","type":"t_uint256"},{"astId":6343,"contract":"src/LiquidityLocker.sol:LiquidityLocker","label":"amount","offset":0,"slot":"1","type":"t_uint256"},{"astId":6345,"contract":"src/LiquidityLocker.sol:LiquidityLocker","label":"initialAmount","offset":0,"slot":"2","type":"t_uint256"},{"astId":6347,"contract":"src/LiquidityLocker.sol:LiquidityLocker","label":"unlockDate","offset":0,"slot":"3","type":"t_uint256"},{"astId":6349,"contract":"src/LiquidityLocker.sol:LiquidityLocker","label":"lockID","offset":0,"slot":"4","type":"t_uint256"},{"astId":6351,"contract":"src/LiquidityLocker.sol:LiquidityLocker","label":"owner","offset":0,"slot":"5","type":"t_address"}],"numberOfBytes":"192"},"t_struct(User)6339_storage":{"encoding":"inplace","label":"struct LiquidityLocker.User","members":[{"astId":6333,"contract":"src/LiquidityLocker.sol:LiquidityLocker","label":"lockedTokens","offset":0,"slot":"0","type":"t_struct(AddressSet)2244_storage"},{"astId":6338,"contract":"src/LiquidityLocker.sol:LiquidityLocker","label":"locksForToken","offset":0,"slot":"2","type":"t_mapping(t_address,t_array(t_uint256)dyn_storage)"}],"numberOfBytes":"96"},"t_uint256":{"encoding":"inplace","label":"uint256","numberOfBytes":"32"}}},"userdoc":{"kind":"user","methods":{},"version":1}}}}