{
  "_format": "hh-sol-artifact-1",
  "contractName": "ERC20Factory",
  "sourceName": "src/ERC20Factory.sol",
  "abi": [
    {
      "inputs": [],
      "name": "GenieAlreadySet",
      "type": "error"
    },
    {
      "anonymous": false,
      "inputs": [
        {
          "indexed": true,
          "internalType": "address",
          "name": "previousOwner",
          "type": "address"
        },
        {
          "indexed": true,
          "internalType": "address",
          "name": "newOwner",
          "type": "address"
        }
      ],
      "name": "OwnershipTransferred",
      "type": "event"
    },
    {
      "inputs": [
        {
          "internalType": "string",
          "name": "name",
          "type": "string"
        },
        {
          "internalType": "string",
          "name": "symbol",
          "type": "string"
        },
        {
          "internalType": "uint256",
          "name": "initialSupply",
          "type": "uint256"
        },
        {
          "internalType": "address",
          "name": "tokenOwner",
          "type": "address"
        },
        {
          "components": [
            {
              "internalType": "bool",
              "name": "isBurnable",
              "type": "bool"
            },
            {
              "internalType": "bool",
              "name": "isPausable",
              "type": "bool"
            },
            {
              "internalType": "bool",
              "name": "isDeflationary",
              "type": "bool"
            }
          ],
          "internalType": "struct Common.TokenConfigProperties",
          "name": "customConfigProps",
          "type": "tuple"
        },
        {
          "internalType": "uint256",
          "name": "maxPerWallet",
          "type": "uint256"
        },
        {
          "internalType": "uint256",
          "name": "autoWithdrawThreshold",
          "type": "uint256"
        },
        {
          "internalType": "uint256",
          "name": "maxTaxSwap",
          "type": "uint256"
        },
        {
          "internalType": "address",
          "name": "affiliateFeeRecipient",
          "type": "address"
        },
        {
          "internalType": "address",
          "name": "feeRecipient",
          "type": "address"
        },
        {
          "internalType": "uint256",
          "name": "feePercentage",
          "type": "uint256"
        },
        {
          "internalType": "uint256",
          "name": "burnPercentage",
          "type": "uint256"
        },
        {
          "internalType": "address",
          "name": "treasuryRecipient",
          "type": "address"
        }
      ],
      "name": "launchToken",
      "outputs": [
        {
          "internalType": "contract CoinGenieERC20",
          "name": "newToken",
          "type": "address"
        }
      ],
      "stateMutability": "nonpayable",
      "type": "function"
    },
    {
      "inputs": [],
      "name": "owner",
      "outputs": [
        {
          "internalType": "address",
          "name": "",
          "type": "address"
        }
      ],
      "stateMutability": "view",
      "type": "function"
    },
    {
      "inputs": [],
      "name": "renounceOwnership",
      "outputs": [],
      "stateMutability": "nonpayable",
      "type": "function"
    },
    {
      "inputs": [
        {
          "internalType": "uint256",
          "name": "amount",
          "type": "uint256"
        }
      ],
      "name": "setDiscountFeeRequiredAmount",
      "outputs": [],
      "stateMutability": "nonpayable",
      "type": "function"
    },
    {
      "inputs": [
        {
          "internalType": "address",
          "name": "genie",
          "type": "address"
        }
      ],
      "name": "setGenie",
      "outputs": [],
      "stateMutability": "nonpayable",
      "type": "function"
    },
    {
      "inputs": [
        {
          "internalType": "address",
          "name": "newOwner",
          "type": "address"
        }
      ],
      "name": "transferOwnership",
      "outputs": [],
      "stateMutability": "nonpayable",
      "type": "function"
    }
  ],
  "bytecode": "0x6080604052346200002657620000146200006e565b60405161423662000175823961423690f35b600080fd5b90600019905b9181191691161790565b6200004b6200004b6200004b9290565b90565b90620000626200004b6200006a926200003b565b82546200002b565b9055565b6200007862000091565b6200008f69d3c21bcecceda100000060026200004e565b565b6200008f3362000112565b6200004b905b6001600160a01b031690565b6200004b90546200009c565b906001600160a01b039062000031565b6200004b90620000a2906001600160a01b031682565b6200004b90620000ca565b6200004b90620000e0565b906200010a6200004b6200006a92620000eb565b8254620000ba565b6200011e6000620000ae565b906200012c816000620000f6565b620001636200015c7f8be0079c531659141344cd1fd0a4f28419497f9722a3daafe3b4186f6b6457e093620000eb565b91620000eb565b916200016e60405190565b600090a356fe608060405260043610156200001357600080fd5b60003560e01c80636e2759f3146200007e578063715018a614620000785780638da5cb5b1462000072578063d5e71353146200006c578063dcc79cc814620000665763f2fde38b0362000084576200047d565b62000460565b6200040b565b6200011d565b620000f0565b620000be565b600080fd5b805b036200008457565b90503590620000a28262000089565b565b906020828203126200008457620000bb9162000093565b90565b346200008457620000db620000d5366004620000a4565b62000b63565b604051005b0390f35b60009103126200008457565b34620000845762000103366004620000e4565b620000db62000502565b6001600160a01b031690565b9052565b34620000845762000130366004620000e4565b620000e06200013e620004b1565b604051918291826001600160a01b03909116815260200190565b634e487b7160e01b600052604160045260246000fd5b90601f01601f1916810190811067ffffffffffffffff8211176200019157604052565b62000158565b90620000a2620001a660405190565b92836200016e565b67ffffffffffffffff81116200019157602090601f01601f19160190565b0190565b90826000939282370152565b90929192620001f5620001ef82620001ae565b62000197565b938185526020850190828401116200008457620000a292620001d0565b9080601f830112156200008457816020620000bb93359101620001dc565b6001600160a01b0381166200008b565b90503590620000a28262000230565b8015156200008b565b90503590620000a2826200024f565b9190916060818403126200008457620002b762000285606062000197565b93600062000294828562000258565b908601526020620002a88282860162000258565b90860152604080930162000258565b90830152565b6101e0818303126200008457803567ffffffffffffffff8111620000845782620002e991830162000212565b92602082013567ffffffffffffffff81116200008457836200030d91840162000212565b926200031d816040850162000093565b926200032d826060830162000240565b926200033d836080840162000267565b926200034d8160e0850162000093565b926200035e82610100830162000093565b926200036f83610120840162000093565b926200038081610140850162000240565b926200039182610160830162000240565b92620000bb620003a684610180850162000093565b93620003b7816101a0860162000093565b936101c00162000240565b620000bb906200010d906001600160a01b031682565b620000bb90620003c2565b620000bb90620003d8565b6200011990620003e3565b602081019291620000a29190620003ee565b346200008457620000e06200043c62000426366004620002bd565b9b9a909a99919998929897939796949662000826565b60405191829182620003f9565b906020828203126200008457620000bb9162000240565b346200008457620000db6200047736600462000449565b62000bc2565b346200008457620000db6200049436600462000449565b6200062f565b620000bb906200010d565b620000bb90546200049a565b620000bb6000620004a5565b620004c762000562565b620000a2620004ec565b6200010d620000bb620000bb9290565b620000bb90620004d1565b620000a2620004fc6000620004e1565b6200066f565b620000a2620004bd565b156200051457565b60405162461bcd60e51b8152806200055e600482016020808252818101527f4f776e61626c653a2063616c6c6572206973206e6f7420746865206f776e6572604082015260600190565b0390fd5b620000a262000570620004b1565b6200058c6200057f336200010d565b916001600160a01b031690565b146200050c565b620000a290620005a262000562565b62000604565b15620005b057565b60405162461bcd60e51b815260206004820152602660248201527f4f776e61626c653a206e6577206f776e657220697320746865207a65726f206160448201526564647265737360d01b6064820152608490fd5b620000a290620004fc6200061d6200010d6000620004e1565b6001600160a01b0383161415620005a8565b620000a29062000593565b906001600160a01b03905b9181191691161790565b9062000663620000bb6200066b92620003e3565b82546200063a565b9055565b6200067b6000620004a5565b90620006898160006200064f565b620006c0620006b97f8be0079c531659141344cd1fd0a4f28419497f9722a3daafe3b4186f6b6457e093620003e3565b91620003e3565b91620006cb60405190565b600090a3565b60005b838110620006e55750506000910152565b8181015183820152602001620006d4565b6200071b62000725602093620001cc936200070f815190565b80835293849260200190565b95869101620006d1565b601f01601f191690565b9997959391909c9b9a989694929c6101c08b018b810360008d01526200075591620006f6565b8a810360208c01526200076891620006f6565b9b60408a0162000776919052565b6001600160a01b031660608901528051151560808901526020810151151560a089015260400151151560c088015260e08701526101008601526101208501526001600160a01b03166101408401526001600160a01b03166101608301526101808201526101a00152565b6040513d6000823e3d90fd5b620000bb9081565b620000bb9054620007ec565b90505190620000a28262000230565b906020828203126200008457620000bb9162000800565b97939a96919995929a989490986200083c600090565b506040519a6136338c01908c821067ffffffffffffffff83111762000191578c9b620008759b8f938e6136339062000bce90396200072f565b03906000f091821562000a28576200088d83620003e3565b90633381e7e2823b156200008457620008bb600091620008d2620008b060405190565b948593849360e01b90565b83526001600160a01b031660048301526024820190565b038183865af1801562000a285762000af0575b50636e2759f3620008f76002620007f4565b90823b1562000084576200091560009162000923620008b060405190565b835260048301526024820190565b038183865af1801562000a285762000ad6575b5063dcc79cc8620009486001620004a5565b90823b156200008457620008bb60009162000966620008b060405190565b038183865af1801562000a285762000abc575b506000916200098c6200010d84620004e1565b6001600160a01b03821614158062000a2e575b620009ab575b50505090565b63f2fde38b90823b156200008457620009dc92620008bb858094620009cf60405190565b9687958694859360e01b90565b03925af1801562000a2857620009f4575b80620009a5565b8162000a1892903d1062000a20575b62000a0f81836200016e565b810190620000e4565b3880620009ed565b503d62000a03565b620007e0565b50638da5cb5b62000a4962000a4260405190565b9160e01b90565b8152602081600481865afa801562000a285762000a7591859162000a87575b506001600160a01b031690565b6001600160a01b03821614156200099f565b62000aad915060203d811162000ab4575b62000aa481836200016e565b8101906200080f565b3862000a68565b503d62000a98565b62000acf90600062000a0f81836200016e565b3862000979565b62000ae990600062000a0f81836200016e565b3862000936565b62000b0390600062000a0f81836200016e565b38620008e5565b620000a29062000b1962000562565b62000b56565b906000199062000645565b620000bb620000bb620000bb9290565b9062000b4e620000bb6200066b9262000b2a565b825462000b1f565b620000a290600262000b3a565b620000a29062000b0a565b620000a29062000b7d62000562565b62000b896001620004a5565b62000b9d6200057f6200010d6000620004e1565b0362000bb057620000a29060016200064f565b60405163131d002d60e01b8152600490fd5b620000a29062000b6e56fe60e06040523462000062576200002e62000018620002fe565b9a99909998919897929796939695949562000504565b6040516129ae62000c8582396080518161056e015260a05181610619015260c051818181610a7601526126e501526129ae90f35b600080fd5b634e487b7160e01b600052604160045260246000fd5b90601f01601f191681019081106001600160401b038211176200009f57604052565b62000067565b90620000bc620000b460405190565b92836200007d565b565b6001600160401b0381116200009f57602090601f01601f19160190565b60005b838110620000ef5750506000910152565b8181015183820152602001620000de565b90929192620001196200011382620000be565b620000a5565b938185526020850190828401116200006257620000bc92620000db565b9080601f8301121562000062578151620001539260200162000100565b90565b805b036200006257565b90505190620000bc8262000156565b6001600160a01b031690565b6001600160a01b03811662000158565b90505190620000bc826200017b565b80151562000158565b90505190620000bc826200019a565b919091606081840312620000625762000202620001d06060620000a5565b936000620001df8285620001a3565b908601526020620001f382828601620001a3565b908601526040809301620001a3565b90830152565b90916101c082840312620000625781516001600160401b0381116200006257836200023591840162000136565b60208301519093906001600160401b0381116200006257816200025a91850162000136565b926200026a826040830162000160565b926200027a83606084016200018b565b926200028a8160808501620001b2565b926200029a8260e0830162000160565b92620002ab83610100840162000160565b92620002bc81610120850162000160565b92620002cd8261014083016200018b565b9262000153620002e28461016085016200018b565b93620002f381610180860162000160565b936101a00162000160565b6200032162003633803803806200031581620000a5565b92833981019062000208565b909192939495969798999a9b565b6200033f62000153620001539290565b60ff1690565b6200015362000153620001539290565b620001536107d062000345565b90600019905b9181191691161790565b9062000386620001536200038e9262000345565b825462000362565b9055565b9060ff9062000368565b90620003af620001536200038e92151590565b825462000392565b9061ff009060081b62000368565b90620003d8620001536200038e92151590565b8254620003b7565b9062ff00009060101b62000368565b9062000402620001536200038e92151590565b8254620003e0565b620000bc916200044d906040906200042d620004268251151590565b856200039c565b620004466200043f6020830151151590565b85620003c5565b0151151590565b90620003ef565b90620000bc916200040a565b906001600160a01b039062000368565b62000153906200016f906001600160a01b031682565b620001539062000470565b620001539062000486565b90620004b0620001536200038e9262000491565b825462000460565b90620004c49062000491565b600052602052604060002090565b62000153906200016f565b620001539054620004d2565b6200016f62000153620001539290565b6200015390620004e9565b9062000518919b939b9a9998929a62000743565b620005238a62000c6b565b8860a05260129062000535826200032f565b60805260c0526200054562000355565b8089116200070e5760408401516200069f575b5050509262000591620005b496959362000589620005999462000581620005ac98600e62000454565b600b62000372565b600c62000372565b600d62000372565b620005a48162000c6b565b600f6200049c565b601162000372565b600090620005c28262000345565b81036200068c575b506001906200060282620005f5600895620005fb83620005f5620005ee3062000491565b8a620004b8565b6200039c565b86620004b8565b6200061782620005f5620005fb600f620004dd565b6200062c82620005f5620005fb6010620004dd565b6200065f620006526200016f6200064b60c0516001600160a01b031690565b93620004f9565b916001600160a01b031690565b0362000669575050565b620005f5620000bc926200068560c0516001600160a01b031690565b90620004b8565b62000698908362000ae1565b38620005ca565b8211620006e1579362000589620005999462000581620005ac9895620006d06200059196620005b49d9c9a62000372565b959850509450819597985062000558565b6200070a82620006f060405190565b6305dba32960e51b81529182916004830190815260200190565b0390fd5b6200070a896200071d60405190565b6365a0074b60e11b81529182916004830190815260200190565b62000153600162000345565b906200074f9162000765565b620000bc6200075d62000737565b600662000372565b9062000771916200077c565b620000bc33620009f2565b620000bc916200078c916200079a565b620000bc600060056200039c565b90620000bc916200098e565b634e487b7160e01b600052602260045260246000fd5b9060016002830492168015620007df575b6020831014620007d957565b620007a6565b91607f1691620007cd565b9160001960089290920291821b911b62000368565b919062000814620001536200038e9362000345565b908354620007ea565b620000bc91600091620007ff565b81811062000837575050565b806200084760006001936200081d565b016200082b565b9190601f81116200085e57505050565b62000872620000bc93600052602060002090565b906020601f84018190048301931062000896575b6020601f9091010401906200082b565b909150819062000886565b90620008ab815190565b906001600160401b0382116200009f57620008d382620008cc8554620007bc565b856200084e565b602090601f831160011462000912576200038e92916000918362000906575b5050600019600883021c1916906002021790565b015190503880620008f2565b601f198316916200092885600052602060002090565b9260005b81811062000969575091600293918560019694106200094f575b50505002019055565b01516000196008601f8516021c1916905538808062000946565b919360206001819287870151815501950192016200092c565b90620000bc91620008a1565b90620009a0620000bc92600362000982565b600462000982565b620001539060081c6200016f565b620001539054620009a8565b90610100600160a81b039060081b62000368565b90620009ea620001536200038e9262000491565b8254620009c2565b620009fe6005620009b6565b9062000a0c816005620009d6565b62000a4362000a3c7f8be0079c531659141344cd1fd0a4f28419497f9722a3daafe3b4186f6b6457e09362000491565b9162000491565b9162000a4e60405190565b80805b0390a3565b1562000a5e57565b60405162461bcd60e51b815260206004820152601f60248201527f45524332303a206d696e7420746f20746865207a65726f2061646472657373006044820152606490fd5b620001539081565b62000153905462000aa3565b634e487b7160e01b600052601160045260246000fd5b9190820180921162000adb57565b62000ab7565b600062000b6962000b4e8362000af784620004f9565b9362000b186001600160a01b0386166001600160a01b038416141562000a56565b62000b2587838762000bbc565b62000b4862000b408862000b3a600262000aab565b62000acd565b600262000372565b620004b8565b62000b628562000b5e8362000aab565b0190565b9062000372565b62000a5162000ba462000b9d7fddf252ad1be2c89b69c2b068fc378daa952ba7f163c4a11628f55a4df523b3ef9362000491565b9362000491565b9362000baf60405190565b9182918290815260200190565b90620000bc929162000c29565b1562000bd157565b60405162461bcd60e51b815260206004820152602a60248201527f45524332305061757361626c653a20746f6b656e207472616e736665722077686044820152691a5b19481c185d5cd95960b21b6064820152608490fd5b505050620000bc62000c4262000c3e62000c5f565b1590565b62000bc9565b62000153906200033f565b62000153905462000c48565b62000153600562000c53565b60601b1562000c7657565b63d92e233d6000526004601cfdfe6080604052600436101561001b575b361561001957600080fd5b005b60003560e01c806302252c4d1461030b57806306fdde0314610306578063095ea7b31461030157806312d75f13146102fc57806318160ddd146102f757806323b872dd146102f2578063313ce567146102ed5780633381e7e2146102e8578063351a964d146102e3578063378dc3dc146102de57806339509351146102d95780633af32abf146102d45780633f4ba83a146102cf57806341d5b61d146102ca57806342966c68146102c557806346904840146102c057806349bd5a5e146102bb5780635c975abb146102b657806362997f8c146102b15780636e2759f3146102ac57806370a08231146102a7578063715018a6146102a257806379cc67901461029d5780638456cb591461029857806384c5dd0114610293578063883356d91461028e5780638da5cb5b146102895780638e8c10a21461028457806395d89b411461027f578063a001ecdd1461027a578063a09a160114610275578063a457c2d714610270578063a82ed9ec1461026b578063a9059cbb14610266578063b9d0f1af14610261578063ba9341c01461025c578063c68ff0fe14610257578063d48e412714610252578063d8f678511461024d578063dcc79cc814610248578063dd62ed3e14610243578063eb4eebc71461023e578063ec57459c14610239578063f01f20df14610234578063f19c4e3b1461022f578063f2fde38b1461022a5763f69cf7830361000e57610bd6565b610bbe565b610ba5565b610b8a565b610b63565b610b3c565b610b14565b610ad9565b610ac1565b610aa6565b610a61565b610a25565b6109ad565b610991565b610976565b610935565b61091a565b6108ff565b6108d8565b6108bd565b6108a2565b610887565b61086c565b610848565b61082f565b610817565b6107fc565b6107e4565b6107c9565b61078c565b610771565b61074a565b610726565b610703565b610674565b610659565b61063d565b610604565b6105e9565b6105ab565b610559565b61053d565b6104e1565b6104ab565b610452565b6103dc565b610344565b805b0361031957565b600080fd5b9050359061032b82610310565b565b90602082820312610319576103419161031e565b90565b346103195761035c61035736600461032d565b611406565b604051005b0390f35b600091031261031957565b60005b8381106103835750506000910152565b8181015183820152602001610373565b6103b46103bd6020936103c7936103a8815190565b80835293849260200190565b95869101610370565b601f01601f191690565b0190565b602080825261034192910190610393565b34610319576103ec366004610365565b6103616103f7610f34565b604051918291826103cb565b6001600160a01b031690565b6001600160a01b038116610312565b9050359061032b8261040f565b91906040838203126103195761034190610445818561041e565b9360200161031e565b9052565b346103195761036161046e61046836600461042b565b90610fb7565b60405191829182901515815260200190565b610341916008021c6001600160a01b031690565b906103419154610480565b61034160006009610494565b34610319576104bb366004610365565b6103616104c661049f565b6040515b918291826001600160a01b03909116815260200190565b34610319576104f1366004610365565b6103616104fc610f59565b6040515b9182918290815260200190565b909160608284031261031957610341610526848461041e565b93610534816020860161041e565b9360400161031e565b346103195761036161046e61055336600461050d565b9161192b565b3461031957610569366004610365565b6040517f000000000000000000000000000000000000000000000000000000000000000060ff168152602090f35b90602082820312610319576103419161041e565b346103195761035c6105be366004610597565b611273565b610341916008021c5b60ff1690565b9061034191546105c3565b610341601460136105d2565b34610319576105f9366004610365565b61036161046e6105dd565b3461031957610614366004610365565b6103617f00000000000000000000000000000000000000000000000000000000000000006104fc565b346103195761036161046e61065336600461042b565b90610fef565b346103195761036161046e61066f366004610597565b611214565b3461031957610684366004610365565b61035c611c4a565b801515610312565b9050359061032b8261068c565b919060408382031261031957610341906106bb818561031e565b93602001610694565b61034190610403906001600160a01b031682565b610341906106c4565b610341906106d8565b61044e906106e1565b60208101929161032b91906106ea565b61036161071a6107143660046106a1565b906124ac565b604051918291826106f3565b346103195761035c61073936600461032d565b611a10565b6103416000600f610494565b346103195761075a366004610365565b6103616104c661073e565b61034160006013610494565b3461031957610781366004610365565b6103616104c6610765565b346103195761079c366004610365565b61036161046e610df5565b610341916008021c81565b9061034191546107a7565b6103416000600c6107b2565b34610319576107d9366004610365565b6103616104fc6107bd565b346103195761035c6107f736600461032d565b6112e6565b34610319576103616104fc610812366004610597565b610f7b565b3461031957610827366004610365565b61035c610c46565b346103195761035c61084236600461042b565b90611b80565b3461031957610858366004610365565b61035c611bcd565b6103416000600d6107b2565b346103195761087c366004610365565b6103616104fc610860565b3461031957610897366004610365565b61036161046e61120a565b34610319576108b2366004610365565b6103616104c6610c04565b34610319576108cd366004610365565b61036161046e611230565b34610319576108e8366004610365565b6103616103f7610f3e565b610341600060116107b2565b346103195761090f366004610365565b6103616104fc6108f3565b346103195761092a366004610365565b61036161046e611200565b346103195761036161046e61094b36600461042b565b90611068565b610341737a250d5630b4cf539739df2c5dacb4c659f2488d6106e1565b610341610951565b3461031957610986366004610365565b61036161071a61096e565b346103195761036161046e6109a736600461042b565b906116c4565b346103195761035c6109c036600461032d565b611340565b610341906105cc565b61034190546109c5565b6103419060081c6105cc565b61034190546109d8565b6103419060101c6105cc565b61034190546109ee565b600e610a0f816109ce565b916103416000610a1e846109e4565b93016109fa565b3461031957610a35366004610365565b610361610a40610a04565b60408051931515845291151560208401521515908201529081906060820190565b3461031957610a71366004610365565b6103617f00000000000000000000000000000000000000000000000000000000000000006104c6565b6103416000600b6107b2565b3461031957610ab6366004610365565b6103616104fc610a9a565b346103195761035c610ad436600461032d565b611622565b346103195761035c610aec366004610597565b6125e4565b91906040838203126103195761034190610b0b818561041e565b9360200161041e565b34610319576103616104fc610b2a366004610af1565b90610f97565b61034160006010610494565b3461031957610b4c366004610365565b6103616104c6610b30565b6103416000600a6107b2565b3461031957610b73366004610365565b6103616104fc610b57565b610341600060126107b2565b3461031957610b9a366004610365565b6103616104fc610b7e565b346103195761035c610bb836600461042b565b90611572565b346103195761035c610bd1366004610597565b610d5d565b346103195761035c610be936600461032d565b61138a565b6103419060081c610403565b6103419054610bee565b6103416005610bfa565b610c16610ca2565b61032b610c34565b6104036103416103419290565b61034190610c1e565b61032b610c416000610c2b565b610d9a565b61032b610c0e565b15610c5557565b60405162461bcd60e51b815280610c9e600482016020808252818101527f4f776e61626c653a2063616c6c6572206973206e6f7420746865206f776e6572604082015260600190565b0390fd5b61032b610cad610c04565b610cc6610cb933610403565b916001600160a01b031690565b14610c4e565b61032b90610cd8610ca2565b610d38565b15610ce457565b60405162461bcd60e51b815260206004820152602660248201527f4f776e61626c653a206e6577206f776e657220697320746865207a65726f206160448201526564647265737360d01b6064820152608490fd5b61032b90610c41610d4c6104036000610c2b565b6001600160a01b0383161415610cdd565b61032b90610ccc565b90610100600160a81b039060081b5b9181191691161790565b90610d8f610341610d96926106e1565b8254610d66565b9055565b610da46005610bfa565b90610db0816005610d7f565b610de3610ddd7f8be0079c531659141344cd1fd0a4f28419497f9722a3daafe3b4186f6b6457e0936106e1565b916106e1565b91610ded60405190565b80805b0390a3565b61034160056109ce565b634e487b7160e01b600052602260045260246000fd5b9060016002830492168015610e35575b6020831014610e3057565b610dff565b91607f1691610e25565b80546000939291610e5c610e5283610e15565b8085529360200190565b9160018116908115610eae5750600114610e7557505050565b610e889192939450600052602060002090565b916000925b818410610e9a5750500190565b805484840152602090930192600101610e8d565b92949550505060ff1916825215156020020190565b9061034191610e3f565b634e487b7160e01b600052604160045260246000fd5b90601f01601f1916810190811067ffffffffffffffff821117610f0557604052565b610ecd565b9061032b610f2492610f1b60405190565b93848092610ec3565b0383610ee3565b61034190610f0a565b6103416003610f2b565b6103416004610f2b565b6103419081565b6103419054610f48565b6103416002610f4f565b90610f6d906106e1565b600052602052604060002090565b610f9261034191610f8a600090565b506000610f63565b610f4f565b61034191610fb2610f9292610faa600090565b506001610f63565b610f63565b610fc2919033611169565b600190565b634e487b7160e01b600052601160045260246000fd5b91908201809211610fea57565b610fc7565b610fc2919061100833926110038385610f97565b610fdd565b91611169565b1561101557565b60405162461bcd60e51b815260206004820152602560248201527f45524332303a2064656372656173656420616c6c6f77616e63652062656c6f77604482015264207a65726f60d81b6064820152608490fd5b610fc29190611008339261107c8385610f97565b6110888282101561100e565b0390565b1561109357565b60405162461bcd60e51b8152602060048201526024808201527f45524332303a20617070726f76652066726f6d20746865207a65726f206164646044820152637265737360e01b6064820152608490fd5b156110eb57565b60405162461bcd60e51b815260206004820152602260248201527f45524332303a20617070726f766520746f20746865207a65726f206164647265604482015261737360f01b6064820152608490fd5b9060001990610d75565b6103416103416103419290565b90611162610341610d9692611145565b825461113b565b6111a86111976111796000610c2b565b6104036001600160a01b0382166001600160a01b038616141561108c565b6001600160a01b03841614156110e4565b6111c0836111bb84610fb2856001610f63565b611152565b610df06111f66111f07f8c5be1e5ebec7d5bd14f71427d1e84f3dd0314c0f7b2291e5b200ac8c7c3b925936106e1565b936106e1565b9361050060405190565b610341600e6109e4565b610341600e6109ce565b61122b61034191611223600090565b506008610f63565b6109ce565b610341600e6109fa565b61034190610403565b610341905461123a565b906001600160a01b0390610d75565b9061126c610341610d96926106e1565b825461124d565b61127d6010611243565b61128d610cb96104036000610c2b565b0361129d5761032b90601061125c565b60405163131d002d60e01b8152600490fd5b61032b906112bb610ca2565b6112c5600a610f4f565b6112d66112d26000611145565b9190565b0361129d5761032b90600a611152565b61032b906112af565b61032b906112fb610ca2565b61130681600c611152565b6113307f972ff6760a5e788c8d82e651e014c348f16aca0185ee44e7cc6e3579ae9e604691611145565b9061133a60405190565b600090a2565b61032b906112ef565b61032b90611355610ca2565b61136081600d611152565b6113307fc14a0b6a18f5ad1749e06d253275f87f68074536255e53e6b0f4f66cc779cd1391611145565b61032b90611349565b61032b9061139f610ca2565b61032b906113ab61144e565b6113b8610341600b610f4f565b8111156113f4576113ca81600b611152565b6113307faab136b9dbe20468ab36dcd11abd26b3dcea2b259f018136905bf827f37f551491611145565b60405163521e96bb60e11b8152600490fd5b61032b90611393565b1561141657565b60405162461bcd60e51b815260206004820152601060248201526f14185d5cd8589b194e881c185d5cd95960821b6044820152606490fd5b61032b61146061145c610df5565b1590565b61140f565b9061032b91611472610ca2565b9061032b9161147f61144e565b6114af565b6103416107d0611145565b9060ff90610d75565b906114a8610341610d9692151590565b825461148f565b906114bb610341611484565b811161154b576114cc816011611152565b6114d582612960565b61151860086114f760006114f26114ec600f611243565b84610f63565b611498565b61150284600f61125c565b6114f2600191611512600f611243565b90610f63565b610de36115457fe42708d93b95810922305119a3271ca42233da9ebe1e1e503f0e887817a32c7a936106e1565b91611145565b610c9e9061155860405190565b6365a0074b60e11b81529182916004830190815260200190565b9061032b91611465565b61032b90611588610ca2565b61032b9061159461144e565b61159f61145c611230565b611610576115ae610341611484565b81116115e9576115bf816012611152565b6113307f8c3208fa4fab043d09d9517339346757a58804a46f954585ba2146567782081791611145565b610c9e906115f660405190565b6305dba32960e51b81529182916004830190815260200190565b6040516319b3ca5360e31b8152600490fd5b61032b9061157c565b90610341929161163961144e565b611654565b6103419060a01c6105cc565b610341905461163e565b503360088261166661122b8484610f63565b9182156116ae575b505061167a601361164a565b90816116a5575b50611691575090610341916116d0565b610341928261169f92612677565b906116d0565b15905038611681565b6116bd92509061122b91610f63565b823861166e565b6103419190600061162b565b610fc29190336117ed565b6117ed565b156116e757565b60405162461bcd60e51b815260206004820152602560248201527f45524332303a207472616e736665722066726f6d20746865207a65726f206164604482015264647265737360d81b6064820152608490fd5b1561174157565b60405162461bcd60e51b815260206004820152602360248201527f45524332303a207472616e7366657220746f20746865207a65726f206164647260448201526265737360e81b6064820152608490fd5b1561179957565b60405162461bcd60e51b815260206004820152602660248201527f45524332303a207472616e7366657220616d6f756e7420657863656564732062604482015265616c616e636560d01b6064820152608490fd5b61187c61186983600061183461182361180583610c2b565b6104036001600160a01b0382166001600160a01b038a1614156116e0565b6001600160a01b038416141561173a565b61183f8783876125ed565b610fb261185f88611853610f928986610f63565b61108882821015611792565b6111bb8784610f63565b611876856103c783610f4f565b90611152565b610df06111f66111f07fddf252ad1be2c89b69c2b068fc378daa952ba7f163c4a11628f55a4df523b3ef936106e1565b906103419392916118bb61144e565b5091906008816118ce61122b8684610f63565b918215611915575b50506118e2601361164a565b908161190c575b506118f75761034192611938565b61190683928261034195612677565b91611938565b159050386118e9565b61192492509061122b91610f63565b81386118d6565b61034192919060006118ac565b610fc29291906116db83335b83611996565b1561195157565b60405162461bcd60e51b815260206004820152601d60248201527f45524332303a20696e73756666696369656e7420616c6c6f77616e63650000006044820152606490fd5b906119a18183610f97565b60001981036119b1575b50505050565b6119c593611008916110888282101561194a565b388080806119ab565b61032b906119da610ca2565b61032b906119e661144e565b6119f161145c61120a565b6119fe5761032b90611a19565b604051636cb5913960e01b8152600490fd5b61032b906119ce565b61032b9033611ad5565b611ad5565b15611a2f57565b60405162461bcd60e51b815260206004820152602160248201527f45524332303a206275726e2066726f6d20746865207a65726f206164647265736044820152607360f81b6064820152608490fd5b15611a8557565b60405162461bcd60e51b815260206004820152602260248201527f45524332303a206275726e20616d6f756e7420657863656564732062616c616e604482015261636560f01b6064820152608490fd5b600090611b35611ae483610c2b565b92611b036001600160a01b0385166001600160a01b0385161415611a28565b611b0e8585856125ed565b6111bb83611b2f87611b23610f928487610f63565b61108882821015611a7e565b92610f63565b61187c611b46846110886002610f4f565b6002611152565b9061032b91611b5a610ca2565b9061032b91611b6761144e565b90611b7361145c61120a565b6119fe5761032b91611b8a565b9061032b91611b4d565b61032b9190611a238233611944565b611ba1610ca2565b61032b611baf61145c611200565b611bbb5761032b611c20565b60405163f00085b960e01b8152600490fd5b61032b611b99565b611bdd61144e565b61032b611bec60016005611498565b33611c1b7f62e78cea01bee320cd4e420270b5ea74000d11b0c9f74754ebdbfc544b05a258916104ca60405190565b0390a1565b61032b611bd5565b611c30610ca2565b61032b611c3e61145c611200565b611bbb5761032b611c98565b61032b611c28565b611c5a611ce3565b61032b611c6960006005611498565b33611c1b7f5db9ee0a495bf2e6ff9c91a7834c1ba4fdd244a5e8aa4e537bd38aeae4b073aa916104ca60405190565b61032b611c52565b15611ca757565b60405162461bcd60e51b815260206004820152601460248201527314185d5cd8589b194e881b9bdd081c185d5cd95960621b6044820152606490fd5b61032b611cee610df5565b611ca0565b906103419291611d01610ca2565b90611d149291611d0f61250e565b611ed8565b9061032b612540565b610341670de0b6b3a7640000611145565b90815260408101929161032b9160200152565b0152565b6103416706f05b59d3b20000611145565b9050519061032b82610310565b906020828203126103195761034191611d56565b6040513d6000823e3d90fd5b6103416032611145565b610341612710611145565b9050519061032b8261068c565b906020828203126103195761034191611d98565b6001600160a01b03909116815260408101929161032b9160200152565b6001600160a01b0391821681529116602082015260608101929161032b9160400152565b9050519061032b8261040f565b906020828203126103195761034191611dfa565b909160608284031261031957610341611e348484611d56565b93611e428160208601611d56565b93604001611d56565b61044e90611145565b9194611ea2611d4192989795611e9860a096611e8e61032b9a611e8760c08a019e60008b01906001600160a01b03169052565b6020890152565b6040870190611e4b565b6060850190611e4b565b6001600160a01b03166080830152565b9060ff60a01b9060a01b610d75565b90611ed1610341610d9692151590565b8254611eb2565b50903490611ee6601361164a565b61249a57611ef2611d1d565b8084108015612487575b6124645750611f09611d45565b808310612442575090611f5991611f29611f22306106e1565b94856116c4565b506020611f41611f3c611f3c6009611243565b6106e1565b6370a0823190611f5060405190565b95869260e01b90565b82526001600160a01b038716600483015260249082905afa9283156121f057600093612412575b50611fa3611f95611f8f611d83565b84612575565b611f9d611d8d565b906125a4565b908193816123f8575b506122ca575b5081611fbd91612558565b611fc8611f3c610951565b92611fdb611fd4610f59565b8583611169565b63c45a0155611ff3611fec60405190565b9160e01b90565b8152602081600481885afa9081156121f05761201b91611f3c916000916122ac575b506106e1565b9063c9c653969163ad5c46489061203b61203460405190565b9260e01b90565b82526020826004818a5afa9081156121f05761209894602093600093612286575b5060006120799161206c60405190565b9788958694859360e01b90565b83526001600160a01b03808a1660048501521660248301526044820190565b03925af19182156121f0576120f0926120bb91600091612258575b50601361125c565b60206120cd611f3c611f3c6013611243565b63095ea7b3906120e4600080199361206c60405190565b83528c60048401611db9565b03925af19182156121f05760609261222c575b5063f305d7199461213f61211683610f7b565b9460009761214a612125610c04565b42908b8061213260405190565b9b8c9a8b998a9860e01b90565b885260048801611e54565b03925af180156121f0576121fe575b5061216660016013611ec1565b61216f82611145565b81116121c7575b50506121826013611243565b6121ac7f57a9f98b233034883786b9c47f1f6fabcf1655e39d3213b7287b926ca387136e916106e1565b906121b660405190565b600090a2610341611f3c6013611243565b818080926121db611f3c611f3c6010611243565b8282156121f5575bf1156121f0573880612176565b611d77565b506108fc6121e3565b61221e9060603d8111612225575b6122168183610ee3565b810190611e1b565b5050612159565b503d61220c565b61224c9060203d8111612251575b6122448183610ee3565b810190611da5565b612103565b503d61223a565b612279915060203d811161227f575b6122718183610ee3565b810190611e07565b386120b3565b503d612267565b6120799193506122a4600091863d811161227f576122718183610ee3565b93915061205c565b6122c4915060203d811161227f576122718183610ee3565b38612015565b6122e09192506122da6002611145565b90612575565b6122ef600491611f9d83611145565b9161233c6020612305611f3c611f3c6009611243565b63095ea7b390612331600061231a600a610f4f565b9361232460405190565b9687958694859360e01b90565b83528c8b8401611db9565b03925af180156121f0576123dc575b50602061235e611f3c611f3c6009611243565b33939061239960006323b872dd6123a26123786010611243565b612382600a610f4f565b9061238c60405190565b9a8b988997889660e01b90565b86528501611dd6565b03925af19081156121f057611fbd9284926123c0575b509150611fb2565b6123d79060203d8111612251576122448183610ee3565b6123b8565b6123f39060203d8111612251576122448183610ee3565b61234b565b905061240a6112d2610341600a610f4f565b101538611fac565b61243491935060203d811161243b575b61242c8183610ee3565b810190611d63565b9138611f80565b503d612422565b82610c9e61244f60405190565b62fdf57560e51b815292839260048401611d2e565b83610c9e61247160405190565b63c7bcc1b960e01b815292839260048401611d2e565b50612493610812610c04565b8411611efc565b60405163250856ab60e21b8152600490fd5b61034191906000611cf3565b6103416002611145565b156124c957565b60405162461bcd60e51b815260206004820152601f60248201527f5265656e7472616e637947756172643a207265656e7472616e742063616c6c006044820152606490fd5b61032b61251b6006610f4f565b61252f6125266124b8565b918214156124c2565b6006611152565b6103416001611145565b61032b61252f612536565b91908203918211610fea57565b610341919061254b565b81810292918115918404141715610fea57565b6103419190612562565b634e487b7160e01b600052601260045260246000fd5b811561259f570490565b61257f565b6103419190612595565b61032b906125ba610ca2565b6125c46009611243565b6125d4610cb96104036000610c2b565b0361129d5761032b90600961125c565b61032b906125ae565b9061032b9291612657565b156125ff57565b60405162461bcd60e51b815260206004820152602a60248201527f45524332305061757361626c653a20746f6b656e207472616e736665722077686044820152691a5b19481c185d5cd95960b21b6064820152608490fd5b50505061032b61266861145c610df5565b6125f8565b6103416019611145565b9092919060008092818261268b6010611243565b9060009361269885610c2b565b926126ab6001600160a01b038516610cb9565b141580612944575b612928575b87906126c4600f611243565b6126d66001600160a01b038616610cb9565b14158061290a575b6128ec575b7f0000000000000000000000000000000000000000000000000000000000000000936001600160a01b03166001600160a01b0385161415806128d0575b6128ba575b61272d611230565b612886575b612748836127488761274861274d968c96612558565b612558565b9661275b6104036013611243565b6001600160a01b0388161480612866575b80612842575b612811576127b895969798995061278885611145565b81036127f7575b5061279984611145565b81036127e6575b50506127ab82611145565b81036127cc575b50611145565b81036127c357505090565b61034191611ad5565b6127e0906127da600f611243565b866117ed565b386127b2565b6127f091876117ed565b38806127a0565b61280b906128056010611243565b896117ed565b3861278f565b610c9e8a61281e60405190565b63f6202a8f60e01b8152918291600483016001600160a01b03909116815260200190565b50612850886110038c610f7b565b6128606112d2610341600b610f4f565b11612772565b50612875610403611f3c610951565b6001600160a01b038b16141561276c565b61274d91965061274883612748876127486128ad611f956128a76012610f4f565b88612575565b9b96505050505050612732565b91506128ca611f95611f8f61266d565b91612725565b506128d961266d565b6128e56112d288611145565b1415612720565b9350612904611f956128fe6011610f4f565b86612575565b936126e3565b506129156011610f4f565b6129216112d288611145565b14156126de565b965061293e611f95612938611d83565b89612575565b966126b8565b5061294d611d83565b6129596112d287611145565b14156126b3565b60601b1561296a57565b63d92e233d6000526004601cfdfea2646970667358221220a14d57f1c55333dbb28d22efad177ac0a6cafbdc7cf88df0ec259b9ff690ce2564736f6c63430008140033a264697066735822122095e539196d4ae4860779c030faa218aa1e76a768375196640ef9ca55c834e1aa64736f6c63430008140033",
  "linkReferences": {},
  "deployedLinkReferences": {}
}