{
  "_format": "hh-sol-artifact-1",
  "contractName": "ERC20Factory",
  "sourceName": "src/ERC20Factory.sol",
  "abi": [
    {
      "inputs": [],
      "name": "GenieAlreadySet",
      "type": "error"
    },
    {
      "anonymous": false,
      "inputs": [
        {
          "indexed": true,
          "internalType": "address",
          "name": "previousOwner",
          "type": "address"
        },
        {
          "indexed": true,
          "internalType": "address",
          "name": "newOwner",
          "type": "address"
        }
      ],
      "name": "OwnershipTransferred",
      "type": "event"
    },
    {
      "inputs": [
        {
          "internalType": "string",
          "name": "name",
          "type": "string"
        },
        {
          "internalType": "string",
          "name": "symbol",
          "type": "string"
        },
        {
          "internalType": "uint256",
          "name": "initialSupply",
          "type": "uint256"
        },
        {
          "internalType": "address",
          "name": "tokenOwner",
          "type": "address"
        },
        {
          "components": [
            {
              "internalType": "bool",
              "name": "isBurnable",
              "type": "bool"
            },
            {
              "internalType": "bool",
              "name": "isPausable",
              "type": "bool"
            },
            {
              "internalType": "bool",
              "name": "isDeflationary",
              "type": "bool"
            }
          ],
          "internalType": "struct Common.TokenConfigProperties",
          "name": "customConfigProps",
          "type": "tuple"
        },
        {
          "internalType": "uint256",
          "name": "maxPerWallet",
          "type": "uint256"
        },
        {
          "internalType": "uint256",
          "name": "autoWithdrawThreshold",
          "type": "uint256"
        },
        {
          "internalType": "uint256",
          "name": "maxTaxSwap",
          "type": "uint256"
        },
        {
          "internalType": "address",
          "name": "affilateFeeRecipient",
          "type": "address"
        },
        {
          "internalType": "address",
          "name": "feeRecipient",
          "type": "address"
        },
        {
          "internalType": "uint256",
          "name": "feePercentage",
          "type": "uint256"
        },
        {
          "internalType": "uint256",
          "name": "burnPercentage",
          "type": "uint256"
        },
        {
          "internalType": "address",
          "name": "treasuryRecipient",
          "type": "address"
        }
      ],
      "name": "launchToken",
      "outputs": [
        {
          "internalType": "contract CoinGenieERC20",
          "name": "newToken",
          "type": "address"
        }
      ],
      "stateMutability": "nonpayable",
      "type": "function"
    },
    {
      "inputs": [],
      "name": "owner",
      "outputs": [
        {
          "internalType": "address",
          "name": "",
          "type": "address"
        }
      ],
      "stateMutability": "view",
      "type": "function"
    },
    {
      "inputs": [],
      "name": "renounceOwnership",
      "outputs": [],
      "stateMutability": "nonpayable",
      "type": "function"
    },
    {
      "inputs": [
        {
          "internalType": "address",
          "name": "genie",
          "type": "address"
        }
      ],
      "name": "setGenie",
      "outputs": [],
      "stateMutability": "nonpayable",
      "type": "function"
    },
    {
      "inputs": [
        {
          "internalType": "address",
          "name": "newOwner",
          "type": "address"
        }
      ],
      "name": "transferOwnership",
      "outputs": [],
      "stateMutability": "nonpayable",
      "type": "function"
    }
  ],
  "bytecode": "0x6080604052346200002657620000146200002b565b60405161427962000126823961427990f35b600080fd5b6200003562000037565b565b6200003533620000c3565b62000054905b6001600160a01b031690565b90565b62000054905462000042565b620000549062000048906001600160a01b031682565b620000549062000063565b620000549062000079565b90620000a362000054620000bf9262000084565b82546001600160a01b0319166001600160a01b03919091161790565b9055565b620000cf600062000057565b90620000dd8160006200008f565b620001146200010d7f8be0079c531659141344cd1fd0a4f28419497f9722a3daafe3b4186f6b6457e09362000084565b9162000084565b916200011f60405190565b600090a356fe608060405260043610156200001357600080fd5b60003560e01c8063715018a6146200006c5780638da5cb5b1462000066578063d5e713531462000060578063dcc79cc8146200005a5763f2fde38b03620000725762000437565b6200041a565b620003c5565b620000be565b62000083565b600080fd5b60009103126200007257565b3462000072576200009636600462000077565b620000a0620004bc565b604051005b0390f35b6001600160a01b031690565b90565b9052565b565b346200007257620000d136600462000077565b620000a5620000df6200046b565b604051918291826001600160a01b03909116815260200190565b634e487b7160e01b600052604160045260246000fd5b90601f01601f1916810190811067ffffffffffffffff8211176200013257604052565b620000f9565b90620000bc6200014760405190565b92836200010f565b67ffffffffffffffff81116200013257602090601f01601f19160190565b0190565b90826000939282370152565b909291926200019662000190826200014f565b62000138565b938185526020850190828401116200007257620000bc9262000171565b9080601f830112156200007257816020620000b5933591016200017d565b805b036200007257565b90503590620000bc82620001d1565b6001600160a01b038116620001d3565b90503590620000bc82620001ea565b801515620001d3565b90503590620000bc8262000209565b9190916060818403126200007257620002716200023f606062000138565b9360006200024e828562000212565b908601526020620002628282860162000212565b90860152604080930162000212565b90830152565b6101e0818303126200007257803567ffffffffffffffff8111620000725782620002a3918301620001b3565b92602082013567ffffffffffffffff8111620000725783620002c7918401620001b3565b92620002d78160408501620001db565b92620002e78260608301620001fa565b92620002f7836080840162000221565b92620003078160e08501620001db565b9262000318826101008301620001db565b9262000329836101208401620001db565b926200033a816101408501620001fa565b926200034b826101608301620001fa565b92620000b562000360846101808501620001db565b9362000371816101a08601620001db565b936101c001620001fa565b620000b590620000a9906001600160a01b031682565b620000b5906200037c565b620000b59062000392565b620000b8906200039d565b602081019291620000bc9190620003a8565b346200007257620000a5620003f6620003e036600462000277565b9b9a909a999199989298979397969496620007cb565b60405191829182620003b3565b906020828203126200007257620000b591620001fa565b346200007257620000a06200043136600462000403565b62000a98565b346200007257620000a06200044e36600462000403565b620005e9565b620000b590620000a9565b620000b5905462000454565b620000b560006200045f565b620004816200051c565b620000bc620004a6565b620000a9620000b5620000b59290565b620000b5906200048b565b620000bc620004b660006200049b565b62000628565b620000bc62000477565b15620004ce57565b60405162461bcd60e51b81528062000518600482016020808252818101527f4f776e61626c653a2063616c6c6572206973206e6f7420746865206f776e6572604082015260600190565b0390fd5b620000bc6200052a6200046b565b620005466200053933620000a9565b916001600160a01b031690565b14620004c6565b620000bc906200055c6200051c565b620005be565b156200056a57565b60405162461bcd60e51b815260206004820152602660248201527f4f776e61626c653a206e6577206f776e657220697320746865207a65726f206160448201526564647265737360d01b6064820152608490fd5b620000bc90620004b6620005d7620000a960006200049b565b6001600160a01b038316141562000562565b620000bc906200054d565b9062000608620000b562000624926200039d565b82546001600160a01b0319166001600160a01b03919091161790565b9055565b6200063460006200045f565b9062000642816000620005f4565b62000679620006727f8be0079c531659141344cd1fd0a4f28419497f9722a3daafe3b4186f6b6457e0936200039d565b916200039d565b916200068460405190565b600090a3565b60005b8381106200069e5750506000910152565b81810151838201526020016200068d565b620006d4620006de6020936200016d93620006c8815190565b80835293849260200190565b958691016200068a565b601f01601f191690565b9997959391909c9b9a989694929c6101c08b018b810360008d01526200070e91620006af565b8a810360208c01526200072191620006af565b9b60408a016200072f919052565b6001600160a01b031660608901528051151560808901526020810151151560a089015260400151151560c088015260e08701526101008601526101208501526001600160a01b03166101408401526001600160a01b03166101608301526101808201526101a00152565b6040513d6000823e3d90fd5b90505190620000bc82620001ea565b906020828203126200007257620000b591620007a5565b97939a96919995929a98949098620007e1600090565b506040519a6137a08c01908c821067ffffffffffffffff83111762000132578c9b6200081a9b8f938e6137a09062000aa49039620006e8565b03906000f09182156200097c5762000832836200039d565b90633381e7e2823b15620000725762000860600091620008776200085560405190565b948593849360e01b90565b83526001600160a01b031660048301526024820190565b038183865af180156200097c5762000a2a575b5063dcc79cc86200089c60016200045f565b90823b15620000725762000860600091620008ba6200085560405190565b038183865af180156200097c5762000a10575b50600091620008e0620000a9846200049b565b6001600160a01b03821614158062000982575b620008ff575b50505090565b63f2fde38b90823b1562000072576200093092620008608580946200092360405190565b9687958694859360e01b90565b03925af180156200097c5762000948575b80620008f9565b816200096c92903d1062000974575b6200096381836200010f565b81019062000077565b388062000941565b503d62000957565b62000799565b50638da5cb5b6200099d6200099660405190565b9160e01b90565b8152602081600481865afa80156200097c57620009c9918591620009db575b506001600160a01b031690565b6001600160a01b0382161415620008f3565b62000a01915060203d811162000a08575b620009f881836200010f565b810190620007b4565b38620009bc565b503d620009ec565b62000a239060006200096381836200010f565b38620008cd565b62000a3d9060006200096381836200010f565b386200088a565b620000bc9062000a536200051c565b62000a5f60016200045f565b62000a7362000539620000a960006200049b565b0362000a8657620000bc906001620005f4565b60405163131d002d60e01b8152600490fd5b620000bc9062000a4456fe610100604052346200006c576200002f6200001962000308565b9a9990999891989792979693969594956200050e565b604051612af662000caa82396080518161056e015260a051816125a5015260c05181610619015260e051818181610a2701526128270152612af690f35b600080fd5b634e487b7160e01b600052604160045260246000fd5b90601f01601f191681019081106001600160401b03821117620000a957604052565b62000071565b90620000c6620000be60405190565b928362000087565b565b6001600160401b038111620000a957602090601f01601f19160190565b60005b838110620000f95750506000910152565b8181015183820152602001620000e8565b90929192620001236200011d82620000c8565b620000af565b938185526020850190828401116200006c57620000c692620000e5565b9080601f830112156200006c5781516200015d926020016200010a565b90565b805b036200006c57565b90505190620000c68262000160565b6001600160a01b031690565b6001600160a01b03811662000162565b90505190620000c68262000185565b80151562000162565b90505190620000c682620001a4565b9190916060818403126200006c576200020c620001da6060620000af565b936000620001e98285620001ad565b908601526020620001fd82828601620001ad565b908601526040809301620001ad565b90830152565b90916101c0828403126200006c5781516001600160401b0381116200006c57836200023f91840162000140565b60208301519093906001600160401b0381116200006c57816200026491850162000140565b926200027482604083016200016a565b9262000284836060840162000195565b92620002948160808501620001bc565b92620002a48260e083016200016a565b92620002b58361010084016200016a565b92620002c68161012085016200016a565b92620002d782610140830162000195565b926200015d620002ec84610160850162000195565b93620002fd8161018086016200016a565b936101a0016200016a565b6200032b620037a0803803806200031f81620000af565b92833981019062000212565b909192939495969798999a9b565b90600019905b9181191691161790565b6200015d6200015d6200015d9290565b906200036d6200015d620003759262000349565b825462000339565b9055565b620003896200015d6200015d9290565b60ff1690565b6200015d6107d062000349565b9060ff906200033f565b90620003b96200015d6200037592151590565b82546200039c565b9061ff009060081b6200033f565b90620003e26200015d6200037592151590565b8254620003c1565b9062ff00009060101b6200033f565b906200040c6200015d6200037592151590565b8254620003ea565b620000c691620004579060409062000437620004308251151590565b85620003a6565b62000450620004496020830151151590565b85620003cf565b0151151590565b90620003f9565b90620000c69162000414565b906001600160a01b03906200033f565b6200015d9062000179906001600160a01b031682565b6200015d906200047a565b6200015d9062000490565b90620004ba6200015d62000375926200049b565b82546200046a565b90620004ce906200049b565b600052602052604060002090565b6200015d9062000179565b6200015d9054620004dc565b620001796200015d6200015d9290565b6200015d90620004f3565b9062000522919b939b9a9998929a62000768565b6200053969d3c21bcecceda1000000600962000359565b620005448a62000c90565b8860c052601290620005568262000379565b60805260e052620005666200038f565b80891162000733576040840151620006c4575b50505092620005b2620005d9969593620005aa620005ba94620005a2620005d198600e6200045e565b600b62000359565b600c62000359565b600d62000359565b8560a052620005c98162000c90565b600f620004a6565b601162000359565b600090620005e78262000349565b8103620006b1575b5060019062000627826200061a60089562000620836200061a62000613306200049b565b8a620004c2565b620003a6565b86620004c2565b6200063c826200061a62000620600f620004e7565b62000651826200061a620006206010620004e7565b6200068462000677620001796200067060e0516001600160a01b031690565b9362000503565b916001600160a01b031690565b036200068e575050565b6200061a620000c692620006aa60e0516001600160a01b031690565b90620004c2565b620006bd908362000b06565b38620005ef565b8211620007065793620005aa620005ba94620005a2620005d19895620006f5620005b296620005d99d9c9a62000359565b959850509450819597985062000579565b6200072f826200071560405190565b6305dba32960e51b81529182916004830190815260200190565b0390fd5b6200072f896200074260405190565b6365a0074b60e11b81529182916004830190815260200190565b6200015d600162000349565b9062000774916200078a565b620000c6620007826200075c565b600662000359565b906200079691620007a1565b620000c63362000a17565b620000c691620007b191620007bf565b620000c660006005620003a6565b90620000c691620009b3565b634e487b7160e01b600052602260045260246000fd5b906001600283049216801562000804575b6020831014620007fe57565b620007cb565b91607f1691620007f2565b9160001960089290920291821b911b6200033f565b9190620008396200015d620003759362000349565b9083546200080f565b620000c69160009162000824565b8181106200085c575050565b806200086c600060019362000842565b0162000850565b9190601f81116200088357505050565b62000897620000c693600052602060002090565b906020601f840181900483019310620008bb575b6020601f90910104019062000850565b9091508190620008ab565b90620008d0815190565b906001600160401b038211620000a957620008f882620008f18554620007e1565b8562000873565b602090601f83116001146200093757620003759291600091836200092b575b5050600019600883021c1916906002021790565b01519050388062000917565b601f198316916200094d85600052602060002090565b9260005b8181106200098e5750916002939185600196941062000974575b50505002019055565b01516000196008601f8516021c191690553880806200096b565b9193602060018192878701518155019501920162000951565b90620000c691620008c6565b90620009c5620000c6926003620009a7565b6004620009a7565b6200015d9060081c62000179565b6200015d9054620009cd565b90610100600160a81b039060081b6200033f565b9062000a0f6200015d62000375926200049b565b8254620009e7565b62000a236005620009db565b9062000a31816005620009fb565b62000a6862000a617f8be0079c531659141344cd1fd0a4f28419497f9722a3daafe3b4186f6b6457e0936200049b565b916200049b565b9162000a7360405190565b80805b0390a3565b1562000a8357565b60405162461bcd60e51b815260206004820152601f60248201527f45524332303a206d696e7420746f20746865207a65726f2061646472657373006044820152606490fd5b6200015d9081565b6200015d905462000ac8565b634e487b7160e01b600052601160045260246000fd5b9190820180921162000b0057565b62000adc565b600062000b8e62000b738362000b1c8462000503565b9362000b3d6001600160a01b0386166001600160a01b038416141562000a7b565b62000b4a87838762000be1565b62000b6d62000b658862000b5f600262000ad0565b62000af2565b600262000359565b620004c2565b62000b878562000b838362000ad0565b0190565b9062000359565b62000a7662000bc962000bc27fddf252ad1be2c89b69c2b068fc378daa952ba7f163c4a11628f55a4df523b3ef936200049b565b936200049b565b9362000bd460405190565b9182918290815260200190565b90620000c6929162000c4e565b1562000bf657565b60405162461bcd60e51b815260206004820152602a60248201527f45524332305061757361626c653a20746f6b656e207472616e736665722077686044820152691a5b19481c185d5cd95960b21b6064820152608490fd5b505050620000c662000c6762000c6362000c84565b1590565b62000bee565b6200015d9062000389565b6200015d905462000c6d565b6200015d600562000c78565b60601b1562000c9b57565b63d92e233d6000526004601cfdfe6080604052600436101561001b575b361561001957600080fd5b005b60003560e01c806302252c4d1461030b57806306fdde0314610306578063095ea7b31461030157806312d75f13146102fc57806318160ddd146102f757806323b872dd146102f2578063313ce567146102ed5780633381e7e2146102e8578063351a964d146102e3578063378dc3dc146102de57806339509351146102d95780633af32abf146102d45780633f4ba83a146102cf57806342966c68146102ca57806346904840146102c557806349bd5a5e146102c057806351bc3c85146102bb5780635c975abb146102b657806362997f8c146102b157806370a08231146102ac578063715018a6146102a757806379cc6790146102a25780638456cb591461029d57806384c5dd0114610298578063883356d9146102935780638da5cb5b1461028e5780638e8c10a21461028957806395d89b4114610284578063a001ecdd1461027f578063a09a16011461027a578063a457c2d714610275578063a82ed9ec14610270578063a9059cbb1461026b578063b9d0f1af14610266578063ba9341c014610261578063c68ff0fe1461025c578063d163364914610257578063d48e412714610252578063d8f678511461024d578063dcc79cc814610248578063dd62ed3e14610243578063eb4eebc71461023e578063ec57459c14610239578063f01f20df14610234578063f19c4e3b1461022f578063f2fde38b1461022a5763f69cf7830361000e57610b9d565b610b85565b610b6c565b610b51565b610b2a565b610b03565b610adb565b610aa0565b610a88565b610a6d565b610a4b565b610a12565b6109d6565b61095e565b610942565b61091b565b61089b565b610880565b610865565b61083e565b610823565b610808565b6107ed565b6107d2565b6107ae565b610795565b61077d565b610762565b610747565b61070a565b6106f2565b6106d7565b6106b0565b61068c565b610674565b610659565b61063d565b610604565b6105e9565b6105ab565b610559565b61053d565b6104e1565b6104ab565b610452565b6103dc565b610344565b805b0361031957565b600080fd5b9050359061032b82610310565b565b90602082820312610319576103419161031e565b90565b346103195761035c61035736600461032d565b61138d565b604051005b0390f35b600091031261031957565b60005b8381106103835750506000910152565b8181015183820152602001610373565b6103b46103bd6020936103c7936103a8815190565b80835293849260200190565b95869101610370565b601f01601f191690565b0190565b602080825261034192910190610393565b34610319576103ec366004610365565b6103616103f7610efb565b604051918291826103cb565b6001600160a01b031690565b6001600160a01b038116610312565b9050359061032b8261040f565b91906040838203126103195761034190610445818561041e565b9360200161031e565b9052565b346103195761036161046e61046836600461042b565b90610f7e565b60405191829182901515815260200190565b610341916008021c6001600160a01b031690565b906103419154610480565b6103416000600a610494565b34610319576104bb366004610365565b6103616104c661049f565b6040515b918291826001600160a01b03909116815260200190565b34610319576104f1366004610365565b6103616104fc610f20565b6040515b9182918290815260200190565b909160608284031261031957610341610526848461041e565b93610534816020860161041e565b9360400161031e565b346103195761036161046e61055336600461050d565b916118b2565b3461031957610569366004610365565b6040517f000000000000000000000000000000000000000000000000000000000000000060ff168152602090f35b90602082820312610319576103419161041e565b346103195761035c6105be366004610597565b61123a565b610341916008021c5b60ff1690565b9061034191546105c3565b610341601460136105d2565b34610319576105f9366004610365565b61036161046e6105dd565b3461031957610614366004610365565b6103617f00000000000000000000000000000000000000000000000000000000000000006104fc565b346103195761036161046e61065336600461042b565b90610fb6565b346103195761036161046e61066f366004610597565b6111db565b3461031957610684366004610365565b61035c611bd1565b346103195761035c61069f36600461032d565b611997565b6103416000600f610494565b34610319576106c0366004610365565b6103616104c66106a4565b61034160006013610494565b34610319576106e7366004610365565b6103616104c66106cb565b3461031957610702366004610365565b61035c612727565b346103195761071a366004610365565b61036161046e610dbc565b610341916008021c81565b906103419154610725565b6103416000600c610730565b3461031957610757366004610365565b6103616104fc61073b565b34610319576103616104fc610778366004610597565b610f42565b346103195761078d366004610365565b61035c610c0d565b346103195761035c6107a836600461042b565b90611b07565b34610319576107be366004610365565b61035c611b54565b6103416000600d610730565b34610319576107e2366004610365565b6103616104fc6107c6565b34610319576107fd366004610365565b61036161046e6111d1565b3461031957610818366004610365565b6103616104c6610bcb565b3461031957610833366004610365565b61036161046e6111f7565b346103195761084e366004610365565b6103616103f7610f05565b61034160006011610730565b3461031957610875366004610365565b6103616104fc610859565b3461031957610890366004610365565b61036161046e6111c7565b346103195761036161046e6108b136600461042b565b9061102f565b61034190610403906001600160a01b031682565b610341906108b7565b610341906108cb565b610341737a250d5630b4cf539739df2c5dacb4c659f2488d6108d4565b6103416108dd565b61044e906108d4565b60208101929161032b9190610902565b346103195761092b366004610365565b6103616109366108fa565b6040519182918261090b565b346103195761036161046e61095836600461042b565b9061164b565b346103195761035c61097136600461032d565b6112c7565b610341906105cc565b6103419054610976565b6103419060081c6105cc565b6103419054610989565b6103419060101c6105cc565b610341905461099f565b600e6109c08161097f565b9161034160006109cf84610995565b93016109ab565b34610319576109e6366004610365565b6103616109f16109b5565b60408051931515845291151560208401521515908201529081906060820190565b3461031957610a22366004610365565b6103617f00000000000000000000000000000000000000000000000000000000000000006104c6565b610361610936610a5c36600461032d565b6122ec565b6103416000600b610730565b3461031957610a7d366004610365565b6103616104fc610a61565b346103195761035c610a9b36600461032d565b6115a9565b346103195761035c610ab3366004610597565b612423565b91906040838203126103195761034190610ad2818561041e565b9360200161041e565b34610319576103616104fc610af1366004610ab8565b90610f5e565b61034160006010610494565b3461031957610b13366004610365565b6103616104c6610af7565b61034160006009610730565b3461031957610b3a366004610365565b6103616104fc610b1e565b61034160006012610730565b3461031957610b61366004610365565b6103616104fc610b45565b346103195761035c610b7f36600461042b565b906114f9565b346103195761035c610b98366004610597565b610d24565b346103195761035c610bb036600461032d565b611311565b6103419060081c610403565b6103419054610bb5565b6103416005610bc1565b610bdd610c69565b61032b610bfb565b6104036103416103419290565b61034190610be5565b61032b610c086000610bf2565b610d61565b61032b610bd5565b15610c1c57565b60405162461bcd60e51b815280610c65600482016020808252818101527f4f776e61626c653a2063616c6c6572206973206e6f7420746865206f776e6572604082015260600190565b0390fd5b61032b610c74610bcb565b610c8d610c8033610403565b916001600160a01b031690565b14610c15565b61032b90610c9f610c69565b610cff565b15610cab57565b60405162461bcd60e51b815260206004820152602660248201527f4f776e61626c653a206e6577206f776e657220697320746865207a65726f206160448201526564647265737360d01b6064820152608490fd5b61032b90610c08610d136104036000610bf2565b6001600160a01b0383161415610ca4565b61032b90610c93565b90610100600160a81b039060081b5b9181191691161790565b90610d56610341610d5d926108d4565b8254610d2d565b9055565b610d6b6005610bc1565b90610d77816005610d46565b610daa610da47f8be0079c531659141344cd1fd0a4f28419497f9722a3daafe3b4186f6b6457e0936108d4565b916108d4565b91610db460405190565b80805b0390a3565b610341600561097f565b634e487b7160e01b600052602260045260246000fd5b9060016002830492168015610dfc575b6020831014610df757565b610dc6565b91607f1691610dec565b80546000939291610e23610e1983610ddc565b8085529360200190565b9160018116908115610e755750600114610e3c57505050565b610e4f9192939450600052602060002090565b916000925b818410610e615750500190565b805484840152602090930192600101610e54565b92949550505060ff1916825215156020020190565b9061034191610e06565b634e487b7160e01b600052604160045260246000fd5b90601f01601f1916810190811067ffffffffffffffff821117610ecc57604052565b610e94565b9061032b610eeb92610ee260405190565b93848092610e8a565b0383610eaa565b61034190610ed1565b6103416003610ef2565b6103416004610ef2565b6103419081565b6103419054610f0f565b6103416002610f16565b90610f34906108d4565b600052602052604060002090565b610f5961034191610f51600090565b506000610f2a565b610f16565b61034191610f79610f5992610f71600090565b506001610f2a565b610f2a565b610f89919033611130565b600190565b634e487b7160e01b600052601160045260246000fd5b91908201809211610fb157565b610f8e565b610f899190610fcf3392610fca8385610f5e565b610fa4565b91611130565b15610fdc57565b60405162461bcd60e51b815260206004820152602560248201527f45524332303a2064656372656173656420616c6c6f77616e63652062656c6f77604482015264207a65726f60d81b6064820152608490fd5b610f899190610fcf33926110438385610f5e565b61104f82821015610fd5565b0390565b1561105a57565b60405162461bcd60e51b8152602060048201526024808201527f45524332303a20617070726f76652066726f6d20746865207a65726f206164646044820152637265737360e01b6064820152608490fd5b156110b257565b60405162461bcd60e51b815260206004820152602260248201527f45524332303a20617070726f766520746f20746865207a65726f206164647265604482015261737360f01b6064820152608490fd5b9060001990610d3c565b6103416103416103419290565b90611129610341610d5d9261110c565b8254611102565b61116f61115e6111406000610bf2565b6104036001600160a01b0382166001600160a01b0386161415611053565b6001600160a01b03841614156110ab565b6111878361118284610f79856001610f2a565b611119565b610db76111bd6111b77f8c5be1e5ebec7d5bd14f71427d1e84f3dd0314c0f7b2291e5b200ac8c7c3b925936108d4565b936108d4565b9361050060405190565b610341600e610995565b610341600e61097f565b6111f2610341916111ea600090565b506008610f2a565b61097f565b610341600e6109ab565b61034190610403565b6103419054611201565b906001600160a01b0390610d3c565b90611233610341610d5d926108d4565b8254611214565b611244601061120a565b611254610c806104036000610bf2565b036112645761032b906010611223565b60405163131d002d60e01b8152600490fd5b61032b90611282610c69565b61128d81600c611119565b6112b77f972ff6760a5e788c8d82e651e014c348f16aca0185ee44e7cc6e3579ae9e60469161110c565b906112c160405190565b600090a2565b61032b90611276565b61032b906112dc610c69565b6112e781600d611119565b6112b77fc14a0b6a18f5ad1749e06d253275f87f68074536255e53e6b0f4f66cc779cd139161110c565b61032b906112d0565b61032b90611326610c69565b61032b906113326113d5565b61133f610341600b610f16565b81111561137b5761135181600b611119565b6112b77faab136b9dbe20468ab36dcd11abd26b3dcea2b259f018136905bf827f37f55149161110c565b60405163521e96bb60e11b8152600490fd5b61032b9061131a565b1561139d57565b60405162461bcd60e51b815260206004820152601060248201526f14185d5cd8589b194e881c185d5cd95960821b6044820152606490fd5b61032b6113e76113e3610dbc565b1590565b611396565b9061032b916113f9610c69565b9061032b916114066113d5565b611436565b6103416107d061110c565b9060ff90610d3c565b9061142f610341610d5d92151590565b8254611416565b9061144261034161140b565b81116114d257611453816011611119565b61145c82612aa8565b61149f600861147e6000611479611473600f61120a565b84610f2a565b61141f565b61148984600f611223565b611479600191611499600f61120a565b90610f2a565b610daa6114cc7fe42708d93b95810922305119a3271ca42233da9ebe1e1e503f0e887817a32c7a936108d4565b9161110c565b610c65906114df60405190565b6365a0074b60e11b81529182916004830190815260200190565b9061032b916113ec565b61032b9061150f610c69565b61032b9061151b6113d5565b6115266113e36111f7565b6115975761153561034161140b565b811161157057611546816012611119565b6112b77f8c3208fa4fab043d09d9517339346757a58804a46f954585ba214656778208179161110c565b610c659061157d60405190565b6305dba32960e51b81529182916004830190815260200190565b6040516319b3ca5360e31b8152600490fd5b61032b90611503565b9061034192916115c06113d5565b6115db565b6103419060a01c6105cc565b61034190546115c5565b50336008826115ed6111f28484610f2a565b918215611635575b505061160160136115d1565b908161162c575b5061161857509061034191611657565b6103419282611626926127b9565b90611657565b15905038611608565b6116449250906111f291610f2a565b82386115f5565b610341919060006115b2565b610f89919033611774565b611774565b1561166e57565b60405162461bcd60e51b815260206004820152602560248201527f45524332303a207472616e736665722066726f6d20746865207a65726f206164604482015264647265737360d81b6064820152608490fd5b156116c857565b60405162461bcd60e51b815260206004820152602360248201527f45524332303a207472616e7366657220746f20746865207a65726f206164647260448201526265737360e81b6064820152608490fd5b1561172057565b60405162461bcd60e51b815260206004820152602660248201527f45524332303a207472616e7366657220616d6f756e7420657863656564732062604482015265616c616e636560d01b6064820152608490fd5b6118036117f08360006117bb6117aa61178c83610bf2565b6104036001600160a01b0382166001600160a01b038a161415611667565b6001600160a01b03841614156116c1565b6117c687838761272f565b610f796117e6886117da610f598986610f2a565b61104f82821015611719565b6111828784610f2a565b6117fd856103c783610f16565b90611119565b610db76111bd6111b77fddf252ad1be2c89b69c2b068fc378daa952ba7f163c4a11628f55a4df523b3ef936108d4565b906103419392916118426113d5565b5091906008816118556111f28684610f2a565b91821561189c575b505061186960136115d1565b9081611893575b5061187e57610341926118bf565b61188d839282610341956127b9565b916118bf565b15905038611870565b6118ab9250906111f291610f2a565b813861185d565b6103419291906000611833565b610f8992919061166283335b8361191d565b156118d857565b60405162461bcd60e51b815260206004820152601d60248201527f45524332303a20696e73756666696369656e7420616c6c6f77616e63650000006044820152606490fd5b906119288183610f5e565b6000198103611938575b50505050565b61194c93610fcf9161104f828210156118d1565b38808080611932565b61032b90611961610c69565b61032b9061196d6113d5565b6119786113e36111d1565b6119855761032b906119a0565b604051636cb5913960e01b8152600490fd5b61032b90611955565b61032b9033611a5c565b611a5c565b156119b657565b60405162461bcd60e51b815260206004820152602160248201527f45524332303a206275726e2066726f6d20746865207a65726f206164647265736044820152607360f81b6064820152608490fd5b15611a0c57565b60405162461bcd60e51b815260206004820152602260248201527f45524332303a206275726e20616d6f756e7420657863656564732062616c616e604482015261636560f01b6064820152608490fd5b600090611abc611a6b83610bf2565b92611a8a6001600160a01b0385166001600160a01b03851614156119af565b611a9585858561272f565b61118283611ab687611aaa610f598487610f2a565b61104f82821015611a05565b92610f2a565b611803611acd8461104f6002610f16565b6002611119565b9061032b91611ae1610c69565b9061032b91611aee6113d5565b90611afa6113e36111d1565b6119855761032b91611b11565b9061032b91611ad4565b61032b91906119aa82336118cb565b611b28610c69565b61032b611b366113e36111c7565b611b425761032b611ba7565b60405163f00085b960e01b8152600490fd5b61032b611b20565b611b646113d5565b61032b611b736001600561141f565b33611ba27f62e78cea01bee320cd4e420270b5ea74000d11b0c9f74754ebdbfc544b05a258916104ca60405190565b0390a1565b61032b611b5c565b611bb7610c69565b61032b611bc56113e36111c7565b611b425761032b611c1f565b61032b611baf565b611be1611c6a565b61032b611bf06000600561141f565b33611ba27f5db9ee0a495bf2e6ff9c91a7834c1ba4fdd244a5e8aa4e537bd38aeae4b073aa916104ca60405190565b61032b611bd9565b15611c2e57565b60405162461bcd60e51b815260206004820152601460248201527314185d5cd8589b194e881b9bdd081c185d5cd95960621b6044820152606490fd5b61032b611c75610dbc565b611c27565b9061034191611c87610c69565b90611c9991611c9461234d565b611e41565b9061032b61237f565b610341670de0b6b3a764000061110c565b90815260408101929161032b9160200152565b0152565b6103416706f05b59d3b2000061110c565b9050519061032b82610310565b906020828203126103195761034191611cdb565b6040513d6000823e3d90fd5b610341603261110c565b61034161271061110c565b9050519061032b8261040f565b906020828203126103195761034191611d1d565b801515610312565b9050519061032b82611d3e565b906020828203126103195761034191611d46565b6001600160a01b03909116815260408101929161032b9160200152565b909160608284031261031957610341611d9d8484611cdb565b93611dab8160208601611cdb565b93604001611cdb565b61044e9061110c565b9194611e0b611cc692989795611e0160a096611df761032b9a611df060c08a019e60008b01906001600160a01b03169052565b6020890152565b6040870190611db4565b6060850190611db4565b6001600160a01b03166080830152565b9060ff60a01b9060a01b610d3c565b90611e3a610341610d5d92151590565b8254611e1b565b5034611e4d60136115d1565b6122da57611e59611ca2565b80831080156122c7575b6122a45750611e70611cca565b8082106122825750611ebf90611e8f611e88306108d4565b938461164b565b506020611ea7611ea2611ea2600a61120a565b6108d4565b6370a0823190611eb660405190565b94859260e01b90565b82526001600160a01b038616600483015260249082905afa91821561216157600092612252575b50611f09611efb611ef5611d08565b836123b4565b611f03611d12565b906123e3565b91611f1e611f1a6103416009610f16565b9190565b1161223b575b81611f2e91612397565b611f39611ea26108dd565b92611f4c611f45610f20565b8583611130565b63c45a0155611f64611f5d60405190565b9160e01b90565b8152602081600481885afa90811561216157611f8c91611ea29160009161221d575b506108d4565b9063c9c653969163ad5c464890611fac611fa560405190565b9260e01b90565b82526020826004818a5afa90811561216157612009946020936000936121f7575b506000611fea91611fdd60405190565b9788958694859360e01b90565b83526001600160a01b03808a1660048501521660248301526044820190565b03925af1918215612161576120619261202c916000916121c9575b506013611223565b602061203e611ea2611ea2601361120a565b63095ea7b3906120556000801993611fdd60405190565b83528c60048401611d67565b03925af19182156121615760609261219d575b5063f305d719946120b061208783610f42565b946000976120bb612096610bcb565b42908b806120a360405190565b9b8c9a8b998a9860e01b90565b885260048801611dbd565b03925af180156121615761216f575b506120d760016013611e2a565b6120e08261110c565b8111612138575b50506120f3601361120a565b61211d7f57a9f98b233034883786b9c47f1f6fabcf1655e39d3213b7287b926ca387136e916108d4565b9061212760405190565b600090a2610341611ea2601361120a565b8180809261214c611ea2611ea2601061120a565b828215612166575bf1156121615738806120e7565b611cfc565b506108fc612154565b61218f9060603d8111612196575b6121878183610eaa565b810190611d84565b50506120ca565b503d61217d565b6121bd9060203d81116121c2575b6121b58183610eaa565b810190611d53565b612074565b503d6121ab565b6121ea915060203d81116121f0575b6121e28183610eaa565b810190611d2a565b38612024565b503d6121d8565b611fea919350612215600091863d81116121f0576121e28183610eaa565b939150611fcd565b612235915060203d81116121f0576121e28183610eaa565b38611f86565b9050611f2e61224a600061110c565b919050611f24565b61227491925060203d811161227b575b61226c8183610eaa565b810190611ce8565b9038611ee6565b503d612262565b90610c6561228f60405190565b62fdf57560e51b815292839260048401611cb3565b82610c656122b160405190565b63c7bcc1b960e01b815292839260048401611cb3565b506122d3610778610bcb565b8311611e63565b60405163250856ab60e21b8152600490fd5b610341906000611c7a565b610341600261110c565b1561230857565b60405162461bcd60e51b815260206004820152601f60248201527f5265656e7472616e637947756172643a207265656e7472616e742063616c6c006044820152606490fd5b61032b61235a6006610f16565b61236e6123656122f7565b91821415612301565b6006611119565b610341600161110c565b61032b61236e612375565b91908203918211610fb157565b610341919061238a565b81810292918115918404141715610fb157565b61034191906123a1565b634e487b7160e01b600052601260045260246000fd5b81156123de570490565b6123be565b61034191906123d4565b61032b906123f9610c69565b612403600a61120a565b612413610c806104036000610bf2565b036112645761032b90600a611223565b61032b906123ed565b61243461234d565b61243c612590565b61032b61237f565b9061032b61245160405190565b9283610eaa565b67ffffffffffffffff8111610ecc5760208091020190565b9061248261247d83612458565b612444565b918252565b369037565b9061032b6124a261249c84612470565b93612458565b601f190160208401612487565b634e487b7160e01b600052603260045260246000fd5b906124ce825190565b8110156124df576020809102010190565b6124af565b906125046124fd6124f3845190565b8084529260200190565b9260200190565b9060005b8181106125155750505090565b90919261253b61253460019286516001600160a01b0316815260200190565b9460200190565b929101612508565b9061257e611cc69161032b9698979561257160809661256760a08801946000890152565b6020870190611db4565b84820360408601526124e4565b6001600160a01b039097166060830152565b3361259a81610f42565b906001600160a01b037f0000000000000000000000000000000000000000000000000000000000000000166001600160a01b03821603612715576000916125e08361110c565b81116125eb57505050565b6125fd6125f8600261110c565b61248c565b9061262a61260a306108d4565b61261c6126168761110c565b856124c5565b906001600160a01b03169052565b612635611ea26108dd565b63ad5c4648612646611f5d60405190565b8152602081600481855afa8015612161576126769187916126f7575b5061261c612670600161110c565b866124c5565b612681828286611130565b63791ac947934290823b156103195786956126bf6126b49388979388946126a760405190565b9a8b998a98899760e01b90565b875260048701612543565b03925af18015612161576126d1575050565b8161032b92903d106126f0575b6126e88183610eaa565b810190610365565b503d6126de565b61270f915060203d81116121f0576121e28183610eaa565b38612662565b6040516318db08a760e21b8152600490fd5b61032b61242c565b9061032b9291612799565b1561274157565b60405162461bcd60e51b815260206004820152602a60248201527f45524332305061757361626c653a20746f6b656e207472616e736665722077686044820152691a5b19481c185d5cd95960b21b6064820152608490fd5b50505061032b6127aa6113e3610dbc565b61273a565b610341601961110c565b909291906000809281826127cd601061120a565b906000936127da85610bf2565b926127ed6001600160a01b038516610c80565b141580612a8c575b612a70575b8790612806600f61120a565b6128186001600160a01b038616610c80565b141580612a52575b612a34575b7f0000000000000000000000000000000000000000000000000000000000000000936001600160a01b03166001600160a01b038516141580612a18575b6129fc575b61286f6111f7565b6129c8575b61288a8361288a8761288a61288f968c96612397565b612397565b9661289d610403601361120a565b6001600160a01b03881614806129a8575b80612984575b612953576128fa9596979899506128ca8561110c565b8103612939575b506128db8461110c565b8103612928575b50506128ed8261110c565b810361290e575b5061110c565b810361290557505090565b61034191611a5c565b6129229061291c600f61120a565b86611774565b386128f4565b6129329187611774565b38806128e2565b61294d90612947601061120a565b89611774565b386128d1565b610c658a61296060405190565b63f6202a8f60e01b8152918291600483016001600160a01b03909116815260200190565b5061299288610fca8c610f42565b6129a2611f1a610341600b610f16565b116128b4565b506129b7610403611ea26108dd565b6001600160a01b038b1614156128ae565b61288f91965061288a8361288a8761288a6129ef611efb6129e96012610f16565b886123b4565b9b96505050505050612874565b9150612a12611efb612a0c6127af565b846123b4565b91612867565b50612a216127af565b612a2d611f1a8861110c565b1415612862565b9350612a4c611efb612a466011610f16565b866123b4565b93612825565b50612a5d6011610f16565b612a69611f1a8861110c565b1415612820565b9650612a86611efb612a80611d08565b896123b4565b966127fa565b50612a95611d08565b612aa1611f1a8761110c565b14156127f5565b60601b15612ab257565b63d92e233d6000526004601cfdfea264697066735822122031c6d187bcbba96b8937f4d87005d3b45939ed34865bdb20f42ae541eb381e4164736f6c63430008140033a264697066735822122046986852d32278ea78a1ef1653473c143ecfd3fb98a36f2933bd36a20337fedf64736f6c63430008140033",
  "linkReferences": {},
  "deployedLinkReferences": {}
}