{
  "_format": "hh-sol-artifact-1",
  "contractName": "ERC20Factory",
  "sourceName": "src/ERC20Factory.sol",
  "abi": [
    {
      "inputs": [],
      "name": "GenieAlreadySet",
      "type": "error"
    },
    {
      "anonymous": false,
      "inputs": [
        {
          "indexed": true,
          "internalType": "address",
          "name": "previousOwner",
          "type": "address"
        },
        {
          "indexed": true,
          "internalType": "address",
          "name": "newOwner",
          "type": "address"
        }
      ],
      "name": "OwnershipTransferred",
      "type": "event"
    },
    {
      "inputs": [
        {
          "internalType": "string",
          "name": "name",
          "type": "string"
        },
        {
          "internalType": "string",
          "name": "symbol",
          "type": "string"
        },
        {
          "internalType": "uint256",
          "name": "initialSupply",
          "type": "uint256"
        },
        {
          "internalType": "address",
          "name": "tokenOwner",
          "type": "address"
        },
        {
          "components": [
            {
              "internalType": "bool",
              "name": "isBurnable",
              "type": "bool"
            },
            {
              "internalType": "bool",
              "name": "isPausable",
              "type": "bool"
            },
            {
              "internalType": "bool",
              "name": "isDeflationary",
              "type": "bool"
            }
          ],
          "internalType": "struct Common.TokenConfigProperties",
          "name": "customConfigProps",
          "type": "tuple"
        },
        {
          "internalType": "uint256",
          "name": "maxPerWallet",
          "type": "uint256"
        },
        {
          "internalType": "uint256",
          "name": "autoWithdrawThreshold",
          "type": "uint256"
        },
        {
          "internalType": "uint256",
          "name": "maxTaxSwap",
          "type": "uint256"
        },
        {
          "internalType": "address",
          "name": "affiliateFeeRecipient",
          "type": "address"
        },
        {
          "internalType": "address",
          "name": "feeRecipient",
          "type": "address"
        },
        {
          "internalType": "uint256",
          "name": "feePercentage",
          "type": "uint256"
        },
        {
          "internalType": "uint256",
          "name": "burnPercentage",
          "type": "uint256"
        },
        {
          "internalType": "address",
          "name": "treasuryRecipient",
          "type": "address"
        }
      ],
      "name": "launchToken",
      "outputs": [
        {
          "internalType": "contract CoinGenieERC20",
          "name": "newToken",
          "type": "address"
        }
      ],
      "stateMutability": "nonpayable",
      "type": "function"
    },
    {
      "inputs": [],
      "name": "owner",
      "outputs": [
        {
          "internalType": "address",
          "name": "",
          "type": "address"
        }
      ],
      "stateMutability": "view",
      "type": "function"
    },
    {
      "inputs": [],
      "name": "renounceOwnership",
      "outputs": [],
      "stateMutability": "nonpayable",
      "type": "function"
    },
    {
      "inputs": [
        {
          "internalType": "uint256",
          "name": "amount",
          "type": "uint256"
        }
      ],
      "name": "setDiscountFeeRequiredAmount",
      "outputs": [],
      "stateMutability": "nonpayable",
      "type": "function"
    },
    {
      "inputs": [
        {
          "internalType": "address",
          "name": "genie",
          "type": "address"
        }
      ],
      "name": "setGenie",
      "outputs": [],
      "stateMutability": "nonpayable",
      "type": "function"
    },
    {
      "inputs": [
        {
          "internalType": "address",
          "name": "newOwner",
          "type": "address"
        }
      ],
      "name": "transferOwnership",
      "outputs": [],
      "stateMutability": "nonpayable",
      "type": "function"
    }
  ],
  "bytecode": "0x6080604052346200002657620000146200006e565b6040516145ef6200017582396145ef90f35b600080fd5b90600019905b9181191691161790565b6200004b6200004b6200004b9290565b90565b90620000626200004b6200006a926200003b565b82546200002b565b9055565b6200007862000091565b6200008f69d3c21bcecceda100000060026200004e565b565b6200008f3362000112565b6200004b905b6001600160a01b031690565b6200004b90546200009c565b906001600160a01b039062000031565b6200004b90620000a2906001600160a01b031682565b6200004b90620000ca565b6200004b90620000e0565b906200010a6200004b6200006a92620000eb565b8254620000ba565b6200011e6000620000ae565b906200012c816000620000f6565b620001636200015c7f8be0079c531659141344cd1fd0a4f28419497f9722a3daafe3b4186f6b6457e093620000eb565b91620000eb565b916200016e60405190565b600090a356fe608060405260043610156200001357600080fd5b60003560e01c80636e2759f3146200007e578063715018a614620000785780638da5cb5b1462000072578063d5e71353146200006c578063dcc79cc814620000665763f2fde38b0362000084576200047d565b62000460565b6200040b565b6200011d565b620000f0565b620000be565b600080fd5b805b036200008457565b90503590620000a28262000089565b565b906020828203126200008457620000bb9162000093565b90565b346200008457620000db620000d5366004620000a4565b62000b63565b604051005b0390f35b60009103126200008457565b34620000845762000103366004620000e4565b620000db62000502565b6001600160a01b031690565b9052565b34620000845762000130366004620000e4565b620000e06200013e620004b1565b604051918291826001600160a01b03909116815260200190565b634e487b7160e01b600052604160045260246000fd5b90601f01601f1916810190811067ffffffffffffffff8211176200019157604052565b62000158565b90620000a2620001a660405190565b92836200016e565b67ffffffffffffffff81116200019157602090601f01601f19160190565b0190565b90826000939282370152565b90929192620001f5620001ef82620001ae565b62000197565b938185526020850190828401116200008457620000a292620001d0565b9080601f830112156200008457816020620000bb93359101620001dc565b6001600160a01b0381166200008b565b90503590620000a28262000230565b8015156200008b565b90503590620000a2826200024f565b9190916060818403126200008457620002b762000285606062000197565b93600062000294828562000258565b908601526020620002a88282860162000258565b90860152604080930162000258565b90830152565b6101e0818303126200008457803567ffffffffffffffff8111620000845782620002e991830162000212565b92602082013567ffffffffffffffff81116200008457836200030d91840162000212565b926200031d816040850162000093565b926200032d826060830162000240565b926200033d836080840162000267565b926200034d8160e0850162000093565b926200035e82610100830162000093565b926200036f83610120840162000093565b926200038081610140850162000240565b926200039182610160830162000240565b92620000bb620003a684610180850162000093565b93620003b7816101a0860162000093565b936101c00162000240565b620000bb906200010d906001600160a01b031682565b620000bb90620003c2565b620000bb90620003d8565b6200011990620003e3565b602081019291620000a29190620003ee565b346200008457620000e06200043c62000426366004620002bd565b9b9a909a99919998929897939796949662000826565b60405191829182620003f9565b906020828203126200008457620000bb9162000240565b346200008457620000db6200047736600462000449565b62000bc2565b346200008457620000db6200049436600462000449565b6200062f565b620000bb906200010d565b620000bb90546200049a565b620000bb6000620004a5565b620004c762000562565b620000a2620004ec565b6200010d620000bb620000bb9290565b620000bb90620004d1565b620000a2620004fc6000620004e1565b6200066f565b620000a2620004bd565b156200051457565b60405162461bcd60e51b8152806200055e600482016020808252818101527f4f776e61626c653a2063616c6c6572206973206e6f7420746865206f776e6572604082015260600190565b0390fd5b620000a262000570620004b1565b6200058c6200057f336200010d565b916001600160a01b031690565b146200050c565b620000a290620005a262000562565b62000604565b15620005b057565b60405162461bcd60e51b815260206004820152602660248201527f4f776e61626c653a206e6577206f776e657220697320746865207a65726f206160448201526564647265737360d01b6064820152608490fd5b620000a290620004fc6200061d6200010d6000620004e1565b6001600160a01b0383161415620005a8565b620000a29062000593565b906001600160a01b03905b9181191691161790565b9062000663620000bb6200066b92620003e3565b82546200063a565b9055565b6200067b6000620004a5565b90620006898160006200064f565b620006c0620006b97f8be0079c531659141344cd1fd0a4f28419497f9722a3daafe3b4186f6b6457e093620003e3565b91620003e3565b91620006cb60405190565b600090a3565b60005b838110620006e55750506000910152565b8181015183820152602001620006d4565b6200071b62000725602093620001cc936200070f815190565b80835293849260200190565b95869101620006d1565b601f01601f191690565b9997959391909c9b9a989694929c6101c08b018b810360008d01526200075591620006f6565b8a810360208c01526200076891620006f6565b9b60408a0162000776919052565b6001600160a01b031660608901528051151560808901526020810151151560a089015260400151151560c088015260e08701526101008601526101208501526001600160a01b03166101408401526001600160a01b03166101608301526101808201526101a00152565b6040513d6000823e3d90fd5b620000bb9081565b620000bb9054620007ec565b90505190620000a28262000230565b906020828203126200008457620000bb9162000800565b97939a96919995929a989490986200083c600090565b506040519a6139ec8c01908c821067ffffffffffffffff83111762000191578c9b620008759b8f938e6139ec9062000bce90396200072f565b03906000f091821562000a28576200088d83620003e3565b90633381e7e2823b156200008457620008bb600091620008d2620008b060405190565b948593849360e01b90565b83526001600160a01b031660048301526024820190565b038183865af1801562000a285762000af0575b50636e2759f3620008f76002620007f4565b90823b1562000084576200091560009162000923620008b060405190565b835260048301526024820190565b038183865af1801562000a285762000ad6575b5063dcc79cc8620009486001620004a5565b90823b156200008457620008bb60009162000966620008b060405190565b038183865af1801562000a285762000abc575b506000916200098c6200010d84620004e1565b6001600160a01b03821614158062000a2e575b620009ab575b50505090565b63f2fde38b90823b156200008457620009dc92620008bb858094620009cf60405190565b9687958694859360e01b90565b03925af1801562000a2857620009f4575b80620009a5565b8162000a1892903d1062000a20575b62000a0f81836200016e565b810190620000e4565b3880620009ed565b503d62000a03565b620007e0565b50638da5cb5b62000a4962000a4260405190565b9160e01b90565b8152602081600481865afa801562000a285762000a7591859162000a87575b506001600160a01b031690565b6001600160a01b03821614156200099f565b62000aad915060203d811162000ab4575b62000aa481836200016e565b8101906200080f565b3862000a68565b503d62000a98565b62000acf90600062000a0f81836200016e565b3862000979565b62000ae990600062000a0f81836200016e565b3862000936565b62000b0390600062000a0f81836200016e565b38620008e5565b620000a29062000b1962000562565b62000b56565b906000199062000645565b620000bb620000bb620000bb9290565b9062000b4e620000bb6200066b9262000b2a565b825462000b1f565b620000a290600262000b3a565b620000a29062000b0a565b620000a29062000b7d62000562565b62000b896001620004a5565b62000b9d6200057f6200010d6000620004e1565b0362000bb057620000a29060016200064f565b60405163131d002d60e01b8152600490fd5b620000a29062000b6e56fe60e06040523462000062576200002e62000018620002fe565b9a99909998919897929796939695949562000504565b604051612d7c62000c7082396080518161058e015260a05181610639015260c051818181610ac20152612ab30152612d7c90f35b600080fd5b634e487b7160e01b600052604160045260246000fd5b90601f01601f191681019081106001600160401b038211176200009f57604052565b62000067565b90620000bc620000b460405190565b92836200007d565b565b6001600160401b0381116200009f57602090601f01601f19160190565b60005b838110620000ef5750506000910152565b8181015183820152602001620000de565b90929192620001196200011382620000be565b620000a5565b938185526020850190828401116200006257620000bc92620000db565b9080601f8301121562000062578151620001539260200162000100565b90565b805b036200006257565b90505190620000bc8262000156565b6001600160a01b031690565b6001600160a01b03811662000158565b90505190620000bc826200017b565b80151562000158565b90505190620000bc826200019a565b919091606081840312620000625762000202620001d06060620000a5565b936000620001df8285620001a3565b908601526020620001f382828601620001a3565b908601526040809301620001a3565b90830152565b90916101c082840312620000625781516001600160401b0381116200006257836200023591840162000136565b60208301519093906001600160401b0381116200006257816200025a91850162000136565b926200026a826040830162000160565b926200027a83606084016200018b565b926200028a8160808501620001b2565b926200029a8260e0830162000160565b92620002ab83610100840162000160565b92620002bc81610120850162000160565b92620002cd8261014083016200018b565b9262000153620002e28461016085016200018b565b93620002f381610180860162000160565b936101a00162000160565b62000321620039ec803803806200031581620000a5565b92833981019062000208565b909192939495969798999a9b565b6200033f62000153620001539290565b60ff1690565b6200015362000153620001539290565b620001536107d062000345565b90600019905b9181191691161790565b9062000386620001536200038e9262000345565b825462000362565b9055565b9060ff9062000368565b90620003af620001536200038e92151590565b825462000392565b9061ff009060081b62000368565b90620003d8620001536200038e92151590565b8254620003b7565b9062ff00009060101b62000368565b9062000402620001536200038e92151590565b8254620003e0565b620000bc916200044d906040906200042d620004268251151590565b856200039c565b620004466200043f6020830151151590565b85620003c5565b0151151590565b90620003ef565b90620000bc916200040a565b906001600160a01b039062000368565b62000153906200016f906001600160a01b031682565b620001539062000470565b620001539062000486565b90620004b0620001536200038e9262000491565b825462000460565b90620004c49062000491565b600052602052604060002090565b62000153906200016f565b620001539054620004d2565b6200016f62000153620001539290565b6200015390620004e9565b9062000518919b939b9a9998929a6200072e565b620005238a62000c56565b8860a05260129062000535826200032f565b60805260c0526200054562000355565b808911620006f95760408401516200068a575b5050509262000591620005b496959362000589620005999462000581620005ac98600e62000454565b600b62000372565b600c62000372565b600d62000372565b620005a48162000c56565b600f6200049c565b601162000372565b600090620005c28262000345565b810362000677575b506001906200060282620005f5600895620005fb83620005f5620005ee3062000491565b8a620004b8565b6200039c565b86620004b8565b6200061782620005f5620005fb600f620004dd565b6200064a6200063d6200016f6200063660c0516001600160a01b031690565b93620004f9565b916001600160a01b031690565b0362000654575050565b620005f5620000bc926200067060c0516001600160a01b031690565b90620004b8565b62000683908362000acc565b38620005ca565b8211620006cc579362000589620005999462000581620005ac9895620006bb6200059196620005b49d9c9a62000372565b959850509450819597985062000558565b620006f582620006db60405190565b6305dba32960e51b81529182916004830190815260200190565b0390fd5b620006f5896200070860405190565b6365a0074b60e11b81529182916004830190815260200190565b62000153600162000345565b906200073a9162000750565b620000bc6200074862000722565b600662000372565b906200075c9162000767565b620000bc33620009dd565b620000bc91620007779162000785565b620000bc600060056200039c565b90620000bc9162000979565b634e487b7160e01b600052602260045260246000fd5b9060016002830492168015620007ca575b6020831014620007c457565b62000791565b91607f1691620007b8565b9160001960089290920291821b911b62000368565b9190620007ff620001536200038e9362000345565b908354620007d5565b620000bc91600091620007ea565b81811062000822575050565b8062000832600060019362000808565b0162000816565b9190601f81116200084957505050565b6200085d620000bc93600052602060002090565b906020601f84018190048301931062000881575b6020601f90910104019062000816565b909150819062000871565b9062000896815190565b906001600160401b0382116200009f57620008be82620008b78554620007a7565b8562000839565b602090601f8311600114620008fd576200038e929160009183620008f1575b5050600019600883021c1916906002021790565b015190503880620008dd565b601f198316916200091385600052602060002090565b9260005b81811062000954575091600293918560019694106200093a575b50505002019055565b01516000196008601f8516021c1916905538808062000931565b9193602060018192878701518155019501920162000917565b90620000bc916200088c565b906200098b620000bc9260036200096d565b60046200096d565b620001539060081c6200016f565b62000153905462000993565b90610100600160a81b039060081b62000368565b90620009d5620001536200038e9262000491565b8254620009ad565b620009e96005620009a1565b90620009f7816005620009c1565b62000a2e62000a277f8be0079c531659141344cd1fd0a4f28419497f9722a3daafe3b4186f6b6457e09362000491565b9162000491565b9162000a3960405190565b80805b0390a3565b1562000a4957565b60405162461bcd60e51b815260206004820152601f60248201527f45524332303a206d696e7420746f20746865207a65726f2061646472657373006044820152606490fd5b620001539081565b62000153905462000a8e565b634e487b7160e01b600052601160045260246000fd5b9190820180921162000ac657565b62000aa2565b600062000b5462000b398362000ae284620004f9565b9362000b036001600160a01b0386166001600160a01b038416141562000a41565b62000b1087838762000ba7565b62000b3362000b2b8862000b25600262000a96565b62000ab8565b600262000372565b620004b8565b62000b4d8562000b498362000a96565b0190565b9062000372565b62000a3c62000b8f62000b887fddf252ad1be2c89b69c2b068fc378daa952ba7f163c4a11628f55a4df523b3ef9362000491565b9362000491565b9362000b9a60405190565b9182918290815260200190565b90620000bc929162000c14565b1562000bbc57565b60405162461bcd60e51b815260206004820152602a60248201527f45524332305061757361626c653a20746f6b656e207472616e736665722077686044820152691a5b19481c185d5cd95960b21b6064820152608490fd5b505050620000bc62000c2d62000c2962000c4a565b1590565b62000bb4565b62000153906200033f565b62000153905462000c33565b62000153600562000c3e565b60601b1562000c6157565b63d92e233d6000526004601cfdfe6080604052600436101561001b575b361561001957600080fd5b005b60003560e01c806302252c4d1461032b57806306fdde0314610326578063095ea7b31461032157806312d75f131461031c57806318160ddd1461031757806323b872dd14610312578063313ce5671461030d5780633381e7e214610308578063351a964d14610303578063378dc3dc146102fe57806339509351146102f95780633af32abf146102f45780633f4ba83a146102ef57806341d5b61d146102ea57806342966c68146102e557806346904840146102e057806349bd5a5e146102db5780635c975abb146102d657806362997f8c146102d15780636e2759f3146102cc57806370a08231146102c7578063715018a6146102c257806379cc6790146102bd5780638456cb59146102b857806384c5dd01146102b3578063883356d9146102ae5780638a3aacb3146102a95780638da5cb5b146102a45780638e8c10a21461029f57806395d89b411461029a5780639c8f9f2314610295578063a001ecdd14610290578063a09a16011461028b578063a457c2d714610286578063a82ed9ec14610281578063a9059cbb1461027c578063b9d0f1af14610277578063ba9341c014610272578063c68ff0fe1461026d578063d48e412714610268578063d8f6785114610263578063dcc79cc81461025e578063dd62ed3e14610259578063eb4eebc714610254578063ec57459c1461024f578063f01f20df1461024a578063f19c4e3b14610245578063f2fde38b146102405763f69cf7830361000e57610c22565b610c0a565b610bf1565b610bd6565b610baf565b610b88565b610b60565b610b25565b610b0d565b610af2565b610aad565b610a71565b6109f9565b6109dd565b6109c2565b610981565b610966565b61094b565b610927565b61090c565b6108f1565b6108d6565b6108c2565b6108a7565b61088c565b610868565b61084f565b610837565b61081c565b610804565b6107e9565b6107ac565b610791565b61076a565b610746565b610723565b610694565b610679565b61065d565b610624565b610609565b6105cb565b610579565b61055d565b610501565b6104cb565b610472565b6103fc565b610364565b805b0361033957565b600080fd5b9050359061034b82610330565b565b90602082820312610339576103619161033e565b90565b346103395761037c61037736600461034d565b6114a2565b604051005b0390f35b600091031261033957565b60005b8381106103a35750506000910152565b8181015183820152602001610393565b6103d46103dd6020936103e7936103c8815190565b80835293849260200190565b95869101610390565b601f01601f191690565b0190565b6020808252610361929101906103b3565b346103395761040c366004610385565b610381610417610f80565b604051918291826103eb565b6001600160a01b031690565b6001600160a01b038116610332565b9050359061034b8261042f565b91906040838203126103395761036190610465818561043e565b9360200161033e565b9052565b346103395761038161048e61048836600461044b565b90611003565b60405191829182901515815260200190565b610361916008021c6001600160a01b031690565b9061036191546104a0565b610361600060096104b4565b34610339576104db366004610385565b6103816104e66104bf565b6040515b918291826001600160a01b03909116815260200190565b3461033957610511366004610385565b61038161051c610fa5565b6040515b9182918290815260200190565b909160608284031261033957610361610546848461043e565b93610554816020860161043e565b9360400161033e565b346103395761038161048e61057336600461052d565b9161199c565b3461033957610589366004610385565b6040517f000000000000000000000000000000000000000000000000000000000000000060ff168152602090f35b90602082820312610339576103619161043e565b346103395761037c6105de3660046105b7565b6112df565b610361916008021c5b60ff1690565b9061036191546105e3565b610361601460136105f2565b3461033957610619366004610385565b61038161048e6105fd565b3461033957610634366004610385565b6103817f000000000000000000000000000000000000000000000000000000000000000061051c565b346103395761038161048e61067336600461044b565b9061103b565b346103395761038161048e61068f3660046105b7565b611260565b34610339576106a4366004610385565b61037c611cbb565b801515610332565b9050359061034b826106ac565b919060408382031261033957610361906106db818561033e565b936020016106b4565b61036190610423906001600160a01b031682565b610361906106e4565b610361906106f8565b61046e90610701565b60208101929161034b919061070a565b61038161073a6107343660046106c1565b906124c0565b60405191829182610713565b346103395761037c61075936600461034d565b611a81565b6103616000600f6104b4565b346103395761077a366004610385565b6103816104e661075e565b610361600060136104b4565b34610339576107a1366004610385565b6103816104e6610785565b34610339576107bc366004610385565b61038161048e610e41565b610361916008021c81565b9061036191546107c7565b6103616000600c6107d2565b34610339576107f9366004610385565b61038161051c6107dd565b346103395761037c61081736600461034d565b611382565b346103395761038161051c6108323660046105b7565b610fc7565b3461033957610847366004610385565b61037c610c92565b346103395761037c61086236600461044b565b90611bf1565b3461033957610878366004610385565b61037c611c3e565b6103616000600d6107d2565b346103395761089c366004610385565b61038161051c610880565b34610339576108b7366004610385565b61038161048e611256565b61037c6108d03660046106c1565b90612858565b34610339576108e6366004610385565b6103816104e6610c50565b3461033957610901366004610385565b61038161048e61127c565b346103395761091c366004610385565b610381610417610f8a565b346103395761037c61093a36600461034d565b612969565b610361600060116107d2565b346103395761095b366004610385565b61038161051c61093f565b3461033957610976366004610385565b61038161048e61124c565b346103395761038161048e61099736600461044b565b906110b4565b610361737a250d5630b4cf539739df2c5dacb4c659f2488d610701565b61036161099d565b34610339576109d2366004610385565b61038161073a6109ba565b346103395761038161048e6109f336600461044b565b90611735565b346103395761037c610a0c36600461034d565b6113dc565b610361906105ec565b6103619054610a11565b6103619060081c6105ec565b6103619054610a24565b6103619060101c6105ec565b6103619054610a3a565b600e610a5b81610a1a565b916103616000610a6a84610a30565b9301610a46565b3461033957610a81366004610385565b610381610a8c610a50565b60408051931515845291151560208401521515908201529081906060820190565b3461033957610abd366004610385565b6103817f00000000000000000000000000000000000000000000000000000000000000006104e6565b6103616000600b6107d2565b3461033957610b02366004610385565b61038161051c610ae6565b346103395761037c610b2036600461034d565b611693565b346103395761037c610b383660046105b7565b6129a8565b91906040838203126103395761036190610b57818561043e565b9360200161043e565b346103395761038161051c610b76366004610b3d565b90610fe3565b610361600060106104b4565b3461033957610b98366004610385565b6103816104e6610b7c565b6103616000600a6107d2565b3461033957610bbf366004610385565b61038161051c610ba3565b610361600060126107d2565b3461033957610be6366004610385565b61038161051c610bca565b346103395761037c610c0436600461044b565b906115e3565b346103395761037c610c1d3660046105b7565b610da9565b346103395761037c610c3536600461034d565b611426565b6103619060081c610423565b6103619054610c3a565b6103616005610c46565b610c62610cee565b61034b610c80565b6104236103616103619290565b61036190610c6a565b61034b610c8d6000610c77565b610de6565b61034b610c5a565b15610ca157565b60405162461bcd60e51b815280610cea600482016020808252818101527f4f776e61626c653a2063616c6c6572206973206e6f7420746865206f776e6572604082015260600190565b0390fd5b61034b610cf9610c50565b610d12610d0533610423565b916001600160a01b031690565b14610c9a565b61034b90610d24610cee565b610d84565b15610d3057565b60405162461bcd60e51b815260206004820152602660248201527f4f776e61626c653a206e6577206f776e657220697320746865207a65726f206160448201526564647265737360d01b6064820152608490fd5b61034b90610c8d610d986104236000610c77565b6001600160a01b0383161415610d29565b61034b90610d18565b90610100600160a81b039060081b5b9181191691161790565b90610ddb610361610de292610701565b8254610db2565b9055565b610df06005610c46565b90610dfc816005610dcb565b610e2f610e297f8be0079c531659141344cd1fd0a4f28419497f9722a3daafe3b4186f6b6457e093610701565b91610701565b91610e3960405190565b80805b0390a3565b6103616005610a1a565b634e487b7160e01b600052602260045260246000fd5b9060016002830492168015610e81575b6020831014610e7c57565b610e4b565b91607f1691610e71565b80546000939291610ea8610e9e83610e61565b8085529360200190565b9160018116908115610efa5750600114610ec157505050565b610ed49192939450600052602060002090565b916000925b818410610ee65750500190565b805484840152602090930192600101610ed9565b92949550505060ff1916825215156020020190565b9061036191610e8b565b634e487b7160e01b600052604160045260246000fd5b90601f01601f1916810190811067ffffffffffffffff821117610f5157604052565b610f19565b9061034b610f7092610f6760405190565b93848092610f0f565b0383610f2f565b61036190610f56565b6103616003610f77565b6103616004610f77565b6103619081565b6103619054610f94565b6103616002610f9b565b90610fb990610701565b600052602052604060002090565b610fde61036191610fd6600090565b506000610faf565b610f9b565b61036191610ffe610fde92610ff6600090565b506001610faf565b610faf565b61100e9190336111b5565b600190565b634e487b7160e01b600052601160045260246000fd5b9190820180921161103657565b611013565b61100e9190611054339261104f8385610fe3565b611029565b916111b5565b1561106157565b60405162461bcd60e51b815260206004820152602560248201527f45524332303a2064656372656173656420616c6c6f77616e63652062656c6f77604482015264207a65726f60d81b6064820152608490fd5b61100e919061105433926110c88385610fe3565b6110d48282101561105a565b0390565b156110df57565b60405162461bcd60e51b8152602060048201526024808201527f45524332303a20617070726f76652066726f6d20746865207a65726f206164646044820152637265737360e01b6064820152608490fd5b1561113757565b60405162461bcd60e51b815260206004820152602260248201527f45524332303a20617070726f766520746f20746865207a65726f206164647265604482015261737360f01b6064820152608490fd5b9060001990610dc1565b6103616103616103619290565b906111ae610361610de292611191565b8254611187565b6111f46111e36111c56000610c77565b6104236001600160a01b0382166001600160a01b03861614156110d8565b6001600160a01b0384161415611130565b61120c8361120784610ffe856001610faf565b61119e565b610e3c61124261123c7f8c5be1e5ebec7d5bd14f71427d1e84f3dd0314c0f7b2291e5b200ac8c7c3b92593610701565b93610701565b9361052060405190565b610361600e610a30565b610361600e610a1a565b6112776103619161126f600090565b506008610faf565b610a1a565b610361600e610a46565b61036190610423565b6103619054611286565b9060ff90610dc1565b906112b2610361610de292151590565b8254611299565b906001600160a01b0390610dc1565b906112d8610361610de292610701565b82546112b9565b6112e9601061128f565b906000916112fc610d0561042385610c77565b036113395761133261034b9261132660089161132161131b601061128f565b84610faf565b6112a2565b61132183600192610faf565b60106112c8565b60405163131d002d60e01b8152600490fd5b61034b90611357610cee565b611361600a610f9b565b61137261136e6000611191565b9190565b036113395761034b90600a61119e565b61034b9061134b565b61034b90611397610cee565b6113a281600c61119e565b6113cc7f972ff6760a5e788c8d82e651e014c348f16aca0185ee44e7cc6e3579ae9e604691611191565b906113d660405190565b600090a2565b61034b9061138b565b61034b906113f1610cee565b6113fc81600d61119e565b6113cc7fc14a0b6a18f5ad1749e06d253275f87f68074536255e53e6b0f4f66cc779cd1391611191565b61034b906113e5565b61034b9061143b610cee565b61034b906114476114ea565b611454610361600b610f9b565b8111156114905761146681600b61119e565b6113cc7faab136b9dbe20468ab36dcd11abd26b3dcea2b259f018136905bf827f37f551491611191565b60405163521e96bb60e11b8152600490fd5b61034b9061142f565b156114b257565b60405162461bcd60e51b815260206004820152601060248201526f14185d5cd8589b194e881c185d5cd95960821b6044820152606490fd5b61034b6114fc6114f8610e41565b1590565b6114ab565b9061034b9161150e610cee565b9061034b9161151b6114ea565b61152b565b6103616107d0611191565b90611537610361611520565b81116115bc5761154881601161119e565b61155182612d2e565b6115896008611568600061132161131b600f61128f565b61157384600f6112c8565b611321600191611583600f61128f565b90610faf565b610e2f6115b67fe42708d93b95810922305119a3271ca42233da9ebe1e1e503f0e887817a32c7a93610701565b91611191565b610cea906115c960405190565b6365a0074b60e11b81529182916004830190815260200190565b9061034b91611501565b61034b906115f9610cee565b61034b906116056114ea565b6116106114f861127c565b6116815761161f610361611520565b811161165a5761163081601261119e565b6113cc7f8c3208fa4fab043d09d9517339346757a58804a46f954585ba2146567782081791611191565b610cea9061166760405190565b6305dba32960e51b81529182916004830190815260200190565b6040516319b3ca5360e31b8152600490fd5b61034b906115ed565b9061036192916116aa6114ea565b6116c5565b6103619060a01c6105ec565b61036190546116af565b50336008826116d76112778484610faf565b91821561171f575b50506116eb60136116bb565b9081611716575b5061170257509061036191611741565b610361928261171092612a45565b90611741565b159050386116f2565b61172e92509061127791610faf565b82386116df565b6103619190600061169c565b61100e91903361185e565b61185e565b1561175857565b60405162461bcd60e51b815260206004820152602560248201527f45524332303a207472616e736665722066726f6d20746865207a65726f206164604482015264647265737360d81b6064820152608490fd5b156117b257565b60405162461bcd60e51b815260206004820152602360248201527f45524332303a207472616e7366657220746f20746865207a65726f206164647260448201526265737360e81b6064820152608490fd5b1561180a57565b60405162461bcd60e51b815260206004820152602660248201527f45524332303a207472616e7366657220616d6f756e7420657863656564732062604482015265616c616e636560d01b6064820152608490fd5b6118ed6118da8360006118a561189461187683610c77565b6104236001600160a01b0382166001600160a01b038a161415611751565b6001600160a01b03841614156117ab565b6118b08783876129b1565b610ffe6118d0886118c4610fde8986610faf565b6110d482821015611803565b6112078784610faf565b6118e7856103e783610f9b565b9061119e565b610e3c61124261123c7fddf252ad1be2c89b69c2b068fc378daa952ba7f163c4a11628f55a4df523b3ef93610701565b9061036193929161192c6114ea565b50919060088161193f6112778684610faf565b918215611986575b505061195360136116bb565b908161197d575b5061196857610361926119a9565b61197783928261036195612a45565b916119a9565b1590503861195a565b61199592509061127791610faf565b8138611947565b610361929190600061191d565b61100e92919061174c83335b83611a07565b156119c257565b60405162461bcd60e51b815260206004820152601d60248201527f45524332303a20696e73756666696369656e7420616c6c6f77616e63650000006044820152606490fd5b90611a128183610fe3565b6000198103611a22575b50505050565b611a3693611054916110d4828210156119bb565b38808080611a1c565b61034b90611a4b610cee565b61034b90611a576114ea565b611a626114f8611256565b611a6f5761034b90611a8a565b604051636cb5913960e01b8152600490fd5b61034b90611a3f565b61034b9033611b46565b611b46565b15611aa057565b60405162461bcd60e51b815260206004820152602160248201527f45524332303a206275726e2066726f6d20746865207a65726f206164647265736044820152607360f81b6064820152608490fd5b15611af657565b60405162461bcd60e51b815260206004820152602260248201527f45524332303a206275726e20616d6f756e7420657863656564732062616c616e604482015261636560f01b6064820152608490fd5b600090611ba6611b5583610c77565b92611b746001600160a01b0385166001600160a01b0385161415611a99565b611b7f8585856129b1565b61120783611ba087611b94610fde8487610faf565b6110d482821015611aef565b92610faf565b6118ed611bb7846110d46002610f9b565b600261119e565b9061034b91611bcb610cee565b9061034b91611bd86114ea565b90611be46114f8611256565b611a6f5761034b91611bfb565b9061034b91611bbe565b61034b9190611a9482336119b5565b611c12610cee565b61034b611c206114f861124c565b611c2c5761034b611c91565b60405163f00085b960e01b8152600490fd5b61034b611c0a565b611c4e6114ea565b61034b611c5d600160056112a2565b33611c8c7f62e78cea01bee320cd4e420270b5ea74000d11b0c9f74754ebdbfc544b05a258916104ea60405190565b0390a1565b61034b611c46565b611ca1610cee565b61034b611caf6114f861124c565b611c2c5761034b611d09565b61034b611c99565b611ccb611d54565b61034b611cda600060056112a2565b33611c8c7f5db9ee0a495bf2e6ff9c91a7834c1ba4fdd244a5e8aa4e537bd38aeae4b073aa916104ea60405190565b61034b611cc3565b15611d1857565b60405162461bcd60e51b815260206004820152601460248201527314185d5cd8589b194e881b9bdd081c185d5cd95960621b6044820152606490fd5b61034b611d5f610e41565b611d11565b906103619291611d72610cee565b90611d859291611d80612522565b611d8e565b9061034b612554565b906103619291611d9c6114ea565b611f5c565b610361670de0b6b3a7640000611191565b90815260408101929161034b9160200152565b0152565b6103616706f05b59d3b20000611191565b9050519061034b82610330565b906020828203126103395761036191611dda565b6040513d6000823e3d90fd5b6103616064611191565b610361612710611191565b9050519061034b826106ac565b906020828203126103395761036191611e1c565b6001600160a01b0391821681529116602082015260608101929161034b9160400152565b9050519061034b8261042f565b906020828203126103395761036191611e61565b6001600160a01b03909116815260408101929161034b9160200152565b909160608284031261033957610361611eb88484611dda565b93611ec68160208601611dda565b93604001611dda565b61046e90611191565b9194611f26611dc592989795611f1c60a096611f1261034b9a611f0b60c08a019e60008b01906001600160a01b03169052565b6020890152565b6040870190611ecf565b6060850190611ecf565b6001600160a01b03166080830152565b9060ff60a01b9060a01b610dc1565b90611f55610361610de292151590565b8254611f36565b50903490611f6a60136116bb565b6124ae57611f76611da1565b808410801561249b575b6124785750611f8d611dc9565b808310612456575090611fdd91611fad611fa630610701565b9485611735565b506020611fc5611fc0611fc0600961128f565b610701565b6370a0823190611fd460405190565b95869260e01b90565b82526001600160a01b038716600483015260249082905afa92831561227457600093612426575b50612027612019612013611e07565b84612589565b612021611e11565b906125b8565b9081938161240c575b5061234e575b50816120419161256c565b61204c611fc061099d565b9261205f612058610fa5565b85836111b5565b63c45a015561207761207060405190565b9160e01b90565b8152602081600481885afa9081156122745761209f91611fc091600091612330575b50610701565b9063c9c653969163ad5c4648906120bf6120b860405190565b9260e01b90565b82526020826004818a5afa9081156122745761211c9460209360009361230a575b5060006120fd916120f060405190565b9788958694859360e01b90565b83526001600160a01b03808a1660048501521660248301526044820190565b03925af1918215612274576121749261213f916000916122dc575b5060136112c8565b6020612151611fc0611fc0601361128f565b63095ea7b39061216860008019936120f060405190565b83528c60048401611e82565b03925af1918215612274576060926122b0575b5063f305d719946121c361219a83610fc7565b946000976121ce6121a9610c50565b42908b806121b660405190565b9b8c9a8b998a9860e01b90565b885260048801611ed8565b03925af1801561227457612282575b506121ea60016013611f45565b6121f382611191565b811161224b575b5050612206601361128f565b6122307f57a9f98b233034883786b9c47f1f6fabcf1655e39d3213b7287b926ca387136e91610701565b9061223a60405190565b600090a2610361611fc0601361128f565b8180809261225f611fc0611fc0601061128f565b828215612279575bf1156122745738806121fa565b611dfb565b506108fc612267565b6122a29060603d81116122a9575b61229a8183610f2f565b810190611e9f565b50506121dd565b503d612290565b6122d09060203d81116122d5575b6122c88183610f2f565b810190611e29565b612187565b503d6122be565b6122fd915060203d8111612303575b6122f58183610f2f565b810190611e6e565b38612137565b503d6122eb565b6120fd919350612328600091863d8111612303576122f58183610f2f565b9391506120e0565b612348915060203d8111612303576122f58183610f2f565b38612099565b61236491925061235e6002611191565b90612589565b61237360049161202183611191565b916020612386611fc0611fc0600961128f565b926323b872dd936123c9600061239a610c50565b966123d26123a8601061128f565b6123b2600a610f9b565b906123bc60405190565b9a8b988997889660e01b90565b86528501611e3d565b03925af1908115612274576120419284926123f0575b509150612036565b6124079060203d81116122d5576122c88183610f2f565b6123e8565b905061241e61136e610361600a610f9b565b101538612030565b61244891935060203d811161244f575b6124408183610f2f565b810190611de7565b9138612004565b503d612436565b82610cea61246360405190565b62fdf57560e51b815292839260048401611db2565b83610cea61248560405190565b63c7bcc1b960e01b815292839260048401611db2565b506124a7610832610c50565b8411611f80565b60405163250856ab60e21b8152600490fd5b61036191906000611d64565b6103616002611191565b156124dd57565b60405162461bcd60e51b815260206004820152601f60248201527f5265656e7472616e637947756172643a207265656e7472616e742063616c6c006044820152606490fd5b61034b61252f6006610f9b565b61254361253a6124cc565b918214156124d6565b600661119e565b6103616001611191565b61034b61254361254a565b9190820391821161103657565b610361919061255f565b8181029291811591840414171561103657565b6103619190612576565b634e487b7160e01b600052601260045260246000fd5b81156125b3570490565b612593565b61036191906125a9565b906125d4916125cf612522565b6125dc565b61034b612554565b9061034b916125e96114ea565b9061034b916125f6610cee565b61262f903461260b611fc0611fc0600961128f565b9360206370a0823161261c30610701565b9661262660405190565b96879260e01b90565b82526001600160a01b038816600483015260249082905afa93841561227457600094612838575b50612665612019612013611e07565b9081948161281e575b5061276a575b50612682836126899261256c565b9184611735565b506126ab612698611fc061099d565b9361213f6126a4610fa5565b86836111b5565b03925af19182156122745760609261274e575b5063f305d719946121c36126d183610fc7565b946000976126e06121a9610c50565b03925af1801561227457612730575b506126f982611191565b8111612703575050565b81808092612717611fc0611fc0601061128f565b828215612727575bf11561227457565b506108fc61271f565b6127479060603d81116122a95761229a8183610f2f565b50506126ef565b6127659060203d81116122d5576122c88183610f2f565b6126be565b61277a91935061235e6002611191565b9161278a60049361202185611191565b92602061279d611fc0611fc0600961128f565b916323b872dd926123c960006127b1610c50565b956127e06127bf601061128f565b6127c9600a610f9b565b906127d360405190565b998a988997889660e01b90565b03925af180156122745761268992612682928692612802575b50925050612674565b6128199060203d81116122d5576122c88183610f2f565b6127f9565b905061283061136e610361600a610f9b565b10153861266e565b61285191945060203d811161244f576124408183610f2f565b9238612656565b9061034b916125c2565b61034b9061286e6114ea565b61034b9061287a610cee565b600061288c611fc0611fc0601361128f565b60206323b872dd9161289c610c50565b906128c66128a930610701565b9586956128d1896128b960405190565b9889978896879560e01b90565b855260048501611e3d565b03925af180156122745761294d575b5060206128ee611fc061099d565b600092906121c38463af2979eb612920612906610c50565b4290848061291360405190565b9c8d9a8b998a9860e01b90565b03925af190811561227457506129335750565b61294a9060203d811161244f576124408183610f2f565b50565b6129649060203d81116122d5576122c88183610f2f565b6128e0565b61034b90612862565b61034b9061297e610cee565b612988600961128f565b612998610d056104236000610c77565b036113395761034b9060096112c8565b61034b90612972565b9061034b9291612a1b565b156129c357565b60405162461bcd60e51b815260206004820152602a60248201527f45524332305061757361626c653a20746f6b656e207472616e736665722077686044820152691a5b19481c185d5cd95960b21b6064820152608490fd5b50505061034b612a2c6114f8610e41565b6129bc565b6103616032611191565b6103616019611191565b90929190600080928182612a59601061128f565b90600093612a6685610c77565b92612a796001600160a01b038516610d05565b141580612d12575b612cf6575b8790612a92600f61128f565b612aa46001600160a01b038616610d05565b141580612cd8575b612cba575b7f0000000000000000000000000000000000000000000000000000000000000000936001600160a01b03166001600160a01b038516141580612c9e575b612c88575b612afb61127c565b612c54575b612b1683612b1687612b16612b1b968c9661256c565b61256c565b96612b29610423601361128f565b6001600160a01b0388161480612c34575b80612c10575b612bdf57612b86959697989950612b5685611191565b8103612bc5575b50612b6784611191565b8103612bb4575b5050612b7982611191565b8103612b9a575b50611191565b8103612b9157505090565b61036191611b46565b612bae90612ba8600f61128f565b8661185e565b38612b80565b612bbe918761185e565b3880612b6e565b612bd990612bd3601061128f565b8961185e565b38612b5d565b610cea8a612bec60405190565b63f6202a8f60e01b8152918291600483016001600160a01b03909116815260200190565b50612c1e8861104f8c610fc7565b612c2e61136e610361600b610f9b565b11612b40565b50612c43610423611fc061099d565b6001600160a01b038b161415612b3a565b612b1b919650612b1683612b1687612b16612c7b612019612c756012610f9b565b88612589565b9b96505050505050612b00565b9150612c98612019612013612a3b565b91612af3565b50612ca7612a3b565b612cb361136e88611191565b1415612aee565b9350612cd2612019612ccc6011610f9b565b86612589565b93612ab1565b50612ce36011610f9b565b612cef61136e88611191565b1415612aac565b9650612d0c612019612d06612a31565b89612589565b96612a86565b50612d1b612a31565b612d2761136e87611191565b1415612a81565b60601b15612d3857565b63d92e233d6000526004601cfdfea2646970667358221220e74bc147943e34a280f97657f4db4cfb90434b946580fc95ac6221e98f828a0464736f6c63430008140033a2646970667358221220925efa5db10a46a9ca460792720b3cc674f5308c774084a7b1a8e576530b49f164736f6c63430008140033",
  "linkReferences": {},
  "deployedLinkReferences": {}
}