{
  "_format": "hh-sol-artifact-1",
  "contractName": "AirdropERC20Claimable",
  "sourceName": "src/AirdropERC20Claimable.sol",
  "abi": [
    {
      "inputs": [
        {
          "internalType": "address",
          "name": "_tokenOwner",
          "type": "address"
        },
        {
          "internalType": "address",
          "name": "_airdropTokenAddress",
          "type": "address"
        },
        {
          "internalType": "uint256",
          "name": "_airdropAmount",
          "type": "uint256"
        },
        {
          "internalType": "uint256",
          "name": "_expirationTimestamp",
          "type": "uint256"
        },
        {
          "internalType": "uint256",
          "name": "_maxWalletClaimCount",
          "type": "uint256"
        },
        {
          "internalType": "bytes32",
          "name": "_merkleRoot",
          "type": "bytes32"
        }
      ],
      "stateMutability": "nonpayable",
      "type": "constructor"
    },
    {
      "inputs": [],
      "name": "AirdropExpired",
      "type": "error"
    },
    {
      "inputs": [],
      "name": "AlreadyClaimedMax",
      "type": "error"
    },
    {
      "inputs": [
        {
          "internalType": "address",
          "name": "tokenOwner",
          "type": "address"
        },
        {
          "internalType": "address",
          "name": "airdropTokenAddress",
          "type": "address"
        },
        {
          "internalType": "uint256",
          "name": "airdropAmount",
          "type": "uint256"
        }
      ],
      "name": "InvalidAirdropParameters",
      "type": "error"
    },
    {
      "inputs": [],
      "name": "InvalidTransferAmount",
      "type": "error"
    },
    {
      "inputs": [],
      "name": "TransferFailed",
      "type": "error"
    },
    {
      "anonymous": false,
      "inputs": [
        {
          "indexed": true,
          "internalType": "address",
          "name": "claimer",
          "type": "address"
        },
        {
          "indexed": false,
          "internalType": "uint256",
          "name": "quantityClaimed",
          "type": "uint256"
        }
      ],
      "name": "TokensClaimed",
      "type": "event"
    },
    {
      "inputs": [],
      "name": "airdropTokenAddress",
      "outputs": [
        {
          "internalType": "address",
          "name": "",
          "type": "address"
        }
      ],
      "stateMutability": "view",
      "type": "function"
    },
    {
      "inputs": [],
      "name": "availableAmount",
      "outputs": [
        {
          "internalType": "uint256",
          "name": "",
          "type": "uint256"
        }
      ],
      "stateMutability": "view",
      "type": "function"
    },
    {
      "inputs": [
        {
          "internalType": "uint256",
          "name": "amount",
          "type": "uint256"
        },
        {
          "internalType": "bytes32[]",
          "name": "proofs",
          "type": "bytes32[]"
        },
        {
          "internalType": "uint256",
          "name": "proofMaxQuantityForWallet",
          "type": "uint256"
        }
      ],
      "name": "claim",
      "outputs": [],
      "stateMutability": "nonpayable",
      "type": "function"
    },
    {
      "inputs": [],
      "name": "expirationTimestamp",
      "outputs": [
        {
          "internalType": "uint256",
          "name": "",
          "type": "uint256"
        }
      ],
      "stateMutability": "view",
      "type": "function"
    },
    {
      "inputs": [],
      "name": "maxWalletClaimCount",
      "outputs": [
        {
          "internalType": "uint256",
          "name": "",
          "type": "uint256"
        }
      ],
      "stateMutability": "view",
      "type": "function"
    },
    {
      "inputs": [],
      "name": "merkleRoot",
      "outputs": [
        {
          "internalType": "bytes32",
          "name": "",
          "type": "bytes32"
        }
      ],
      "stateMutability": "view",
      "type": "function"
    },
    {
      "inputs": [],
      "name": "tokenOwner",
      "outputs": [
        {
          "internalType": "address",
          "name": "",
          "type": "address"
        }
      ],
      "stateMutability": "view",
      "type": "function"
    },
    {
      "inputs": [
        {
          "internalType": "address",
          "name": "claimer",
          "type": "address"
        }
      ],
      "name": "totalClaimedByWallet",
      "outputs": [
        {
          "internalType": "uint256",
          "name": "amount",
          "type": "uint256"
        }
      ],
      "stateMutability": "view",
      "type": "function"
    },
    {
      "inputs": [
        {
          "internalType": "address",
          "name": "claimant",
          "type": "address"
        },
        {
          "internalType": "uint256",
          "name": "amount",
          "type": "uint256"
        },
        {
          "internalType": "bytes32[]",
          "name": "proofs",
          "type": "bytes32[]"
        },
        {
          "internalType": "uint256",
          "name": "proofMaxQuantityForWallet",
          "type": "uint256"
        }
      ],
      "name": "verifyClaim",
      "outputs": [],
      "stateMutability": "view",
      "type": "function"
    }
  ],
  "bytecode": "0x6080604052346200003757620000256200001862000141565b9493909392919262000255565b604051610a57620003418239610a5790f35b600080fd5b634e487b7160e01b600052604160045260246000fd5b90601f01601f191681019081106001600160401b038211176200007457604052565b6200003c565b90620000916200008960405190565b928362000052565b565b6001600160a01b031690565b90565b6001600160a01b0381165b036200003757565b905051906200009182620000a2565b80620000ad565b905051906200009182620000c4565b909160c0828403126200003757620000f38383620000b5565b92620001038160208501620000b5565b92620001138260408301620000cb565b926200009f620001278460608501620000cb565b93620001378160808601620000cb565b9360a001620000cb565b6200016462000d988038038062000158816200007a565b928339810190620000da565b909192939495565b620000936200009f6200009f9290565b6200009f906200016c565b6200009f6200009f6200009f9290565b6001600160a01b03918216815291166020820152606081019291620000919160400152565b906001600160a01b03905b9181191691161790565b6200009f9062000093906001600160a01b031682565b6200009f90620001d1565b6200009f90620001e7565b90620002116200009f6200021992620001f2565b8254620001bc565b9055565b9060001990620001c7565b906200023c6200009f620002199262000187565b82546200021d565b906200023c6200009f620002199290565b959493929190956000906200026a826200017c565b6001600160a01b0381166001600160a01b0383161490811562000323575b5080156200030f575b620002e357620002d392620002c3620000919899620002db979694620002bd620002cb956001620001fd565b620001fd565b600262000228565b600362000228565b600462000228565b600562000244565b87906200030b84620002f460405190565b633d7c241d60e01b81529384936004850162000197565b0390fd5b506200031b8262000187565b831462000291565b6001600160a01b031690506001600160a01b03891614386200028856fe6080604052600436101561001257600080fd5b60003560e01c806305981769146100a2578063097b3cdb1461009d5780632eb4a7ab146100985780637dc680771461009357806391f7cfb91461008e5780639f43ddd214610089578063a3e6761014610084578063b73e0e8b1461007f5763f339f526036100a7576103ba565b61035b565b610329565b6102d1565b6102aa565b610283565b6101ff565b6101d2565b6100e2565b600080fd5b60009103126100a757565b6100c2916008021c81565b90565b906100c291546100b7565b6100c2600060046100c5565b9052565b565b346100a7576100f23660046100ac565b61010e6100fd6100d0565b6040515b9182918290815260200190565b0390f35b6001600160a01b031690565b61012781610112565b036100a757565b905035906100e08261011e565b80610127565b905035906100e08261013b565b909182601f830112156100a75781359167ffffffffffffffff83116100a75760200192602083028401116100a757565b9190916080818403126100a757610195838261012e565b926101a38160208401610141565b92604083013567ffffffffffffffff81116100a7576101c7836100c292860161014e565b939094606001610141565b346100a7576101ee6101e536600461017e565b93929092610573565b604051005b6100c2600060056100c5565b346100a75761020f3660046100ac565b61010e6100fd6101f3565b906020828203126100a7576100c29161012e565b6100c290610112906001600160a01b031682565b6100c29061022e565b6100c290610242565b9061025e9061024b565b600052602052604060002090565b6100c29061027e600691600092610254565b6100c5565b346100a75761010e6100fd61029936600461021a565b61026c565b6100c2600060026100c5565b346100a7576102ba3660046100ac565b61010e6100fd61029e565b6100c2600060036100c5565b346100a7576102e13660046100ac565b61010e6100fd6102c5565b6100c2916008021c610112565b906100c291546102ec565b6100c2600060016102f9565b6100dc90610112565b6020810192916100e09190610310565b346100a7576103393660046100ac565b61010e610344610304565b60405191829182610319565b6100c26000806102f9565b346100a75761036b3660046100ac565b61010e610344610350565b906060828203126100a75761038b8183610141565b92602083013567ffffffffffffffff81116100a7576103af836100c292860161014e565b939094604001610141565b346100a7576101ee6103cd366004610376565b33926103db92908585610573565b6103e582826108c1565b61041c6104127f896e034966eaaf1adc54acc0f257056febbd300c9e47182cf761982cf1f5e4309261024b565b9261010160405190565b0390a2565b6100c29081565b6100c29054610421565b6100c26100c26100c29290565b60601b90565b6100c29061043f565b61045a6100dc91610112565b610445565b601481610472610478936020969561044e565b01918252565b0190565b634e487b7160e01b600052604160045260246000fd5b90601f01601f1916810190811067ffffffffffffffff8211176104b457604052565b61047c565b906100e06104c660405190565b9283610492565b67ffffffffffffffff81116104b45760208091020190565b909291926104fa6104f5826104cd565b6104b9565b93818552602080860192028301928184116100a757915b83831061051e5750505050565b6020809161052c8486610141565b815201920191610511565b6100c29136916104e5565b634e487b7160e01b600052601160045260246000fd5b9190610563565b9290565b820180921161056e57565b610542565b909392906000926105846005610428565b9260009361059b6105976100c287610432565b9190565b03610678575b50506105b16105b6916006610254565b610428565b6105bf82610432565b85148015610663575b610651576105d66003610428565b6105df83610432565b8114159081610646575b5061063457610606936105979361055f9350156106235794610558565b1161060d57565b604051630ce2eab560e11b8152600490fd5b0390fd5b5061062e6004610428565b94610558565b604051635228cdbf60e01b8152600490fd5b9050421015386105e9565b604051630f16a02160e21b8152600490fd5b506106716100c26002610428565b85116105c8565b6105b69294506105b1916106dd916106d86106936005610428565b916106b36106bf8b8b6106a560405190565b93849260208401928361045f565b90810382520382610492565b6106d16106ca825190565b9160200190565b2093610537565b6106e4565b93916105a1565b61055f6106fe9293610597926106f8600090565b5061074a565b1490565b600019811461056e5760010190565b634e487b7160e01b600052603260045260246000fd5b90610730825190565b811015610741576020809102010190565b610711565b5190565b6107546000610432565b915b6107616100c2835190565b8310156107935761078761078d9161078161077c8686610727565b610746565b90610799565b92610702565b91610756565b91505090565b818110156107b457906100c291600052602052604060002090565b6100c291600052602052604060002090565b906100c26100c26107d692610432565b9055565b9190820391821161056e57565b6100c290610112565b6100c290546107e7565b801515610127565b905051906100e0826107fa565b906020828203126100a7576100c291610802565b9160206100e092949361083e60408201966000830190610310565b0152565b6040513d6000823e3d90fd5b60409061083e6100e0949695939661086e60608401986000850190610310565b6020830190610310565b6020808252600f908201526e151c985b9cd9995c8819985a5b1959608a1b604082015260600190565b156108a857565b60405162461bcd60e51b81528061061f60048201610878565b906108e86108d0336006610254565b6108e2836108dd83610428565b610558565b906107c6565b6109056108fe826108f96002610428565b6107da565b60026107c6565b61091a61091561091560006107f0565b61024b565b9063a9059cbb61093361092c60405190565b9160e01b90565b815260208180610947858860048401610823565b03816000875af180156109ee5761096491600091610a0557501590565b6109f35760209161099960006323b872dd6109a461098260016107f0565b9561098c60405190565b9889978896879560e01b90565b85526004850161084e565b03925af180156109ee576100e0916000916109c0575b506108a1565b6109e1915060203d81116109e7575b6109d98183610492565b81019061080f565b386109ba565b503d6109cf565b610842565b6040516312171d8360e31b8152600490fd5b610a1d915060203d81116109e7576109d98183610492565b159056fea2646970667358221220daaac37c1b0357e26210a639312487ef6497e780e4836cf541e871604c0b3f5464736f6c63430008140033",
  "linkReferences": {},
  "deployedLinkReferences": {}
}