{
  "address": "0x96E303b6D807c0824E83f954784e2d6f3614f167",
  "abi": [
    {
      "inputs": [],
      "name": "InsufficientAllowance",
      "type": "error"
    },
    {
      "inputs": [],
      "name": "InsufficientBalance",
      "type": "error"
    },
    {
      "inputs": [],
      "name": "NoRecipients",
      "type": "error"
    },
    {
      "inputs": [],
      "name": "NotERC20",
      "type": "error"
    },
    {
      "inputs": [],
      "name": "TokenAddressZero",
      "type": "error"
    },
    {
      "anonymous": false,
      "inputs": [
        {
          "indexed": true,
          "internalType": "address",
          "name": "tokenAddress",
          "type": "address"
        },
        {
          "indexed": true,
          "internalType": "address",
          "name": "tokenOwner",
          "type": "address"
        },
        {
          "indexed": true,
          "internalType": "address",
          "name": "recipient",
          "type": "address"
        },
        {
          "indexed": false,
          "internalType": "uint256",
          "name": "amount",
          "type": "uint256"
        }
      ],
      "name": "AirdropFailed",
      "type": "event"
    },
    {
      "inputs": [],
      "name": "NATIVE_TOKEN",
      "outputs": [
        {
          "internalType": "address",
          "name": "",
          "type": "address"
        }
      ],
      "stateMutability": "view",
      "type": "function"
    },
    {
      "inputs": [
        {
          "internalType": "address",
          "name": "tokenAddress",
          "type": "address"
        },
        {
          "internalType": "address",
          "name": "tokenOwner",
          "type": "address"
        },
        {
          "components": [
            {
              "internalType": "address",
              "name": "recipient",
              "type": "address"
            },
            {
              "internalType": "uint256",
              "name": "amount",
              "type": "uint256"
            }
          ],
          "internalType": "struct AirdropERC20.AirdropContent[]",
          "name": "contents",
          "type": "tuple[]"
        }
      ],
      "name": "airdrop",
      "outputs": [],
      "stateMutability": "payable",
      "type": "function"
    }
  ],
  "transactionHash": "0xfd9428d56b5fd799a79c1d776838990fd37195a571130a7bb63e132322720f87",
  "args": [],
  "numDeployments": 2,
  "solcInputHash": "7fe85e3476b006785ecba9d1f536544c",
  "bytecode": "0x60806040523461002257610011610027565b604051610804610072823961080490f35b600080fd5b61002f61005f565b565b61003e61003e61003e9290565b90565b61003e6001610031565b9061003e61003e61005b92610031565b9055565b61002f61006a610041565b600061004b56fe6080604052600436101561001257600080fd5b60003560e01c806331f7d964146100325763da26dbf1036100375761011c565b610058565b600080fd5b600091031261003757565b90565b6001600160a01b031690565b565b346100375761006836600461003c565b60405173eeeeeeeeeeeeeeeeeeeeeeeeeeeeeeeeeeeeeeee8152602090f35b6001600160a01b0381165b0361003757565b9050359061005682610087565b909182601f830112156100375781359167ffffffffffffffff831161003757602001926040830284011161003757565b91606083830312610037576100eb8284610099565b926100f98360208301610099565b92604082013567ffffffffffffffff81116100375761011892016100a6565b9091565b61013361012a3660046100d6565b92919091610375565b604051005b9061014c9392916101476103fc565b6101e2565b610056610438565b6100476100476100479290565b61004a6100476100479290565b61004790610161565b634e487b7160e01b600052603260045260246000fd5b919081101561019d576040020190565b610177565b3561004781610087565b80610092565b35610047816101ac565b6100479061004a906001600160a01b031682565b610047906101bc565b610047906101d0565b929392919084936000906101f582610154565b86146103635761020761004a8361016e565b6001600160a01b038616146103515773eeeeeeeeeeeeeeeeeeeeeeeeeeeeeeeeeeeeeeee6001600160a01b0386161461033f5761024382610154565b865b811015610335576102ab81898188876102946102908d6102738461026d6102459c8a8961018d565b016101a2565b8d61028a60206102848a8c8b61018d565b016101b2565b92610561565b1590565b6102b2575b505050506102a76001610154565b0190565b9050610243565b826102ca6102849261026d6102d1968860209761018d565b948c61018d565b907f35be58330abb60221820bfd214bb857a6ea979dbf24009982022925a7fc137ff6102fc8b6101d9565b9061032961031261030c8c6101d9565b946101d9565b9461031c60405190565b9182918290815260200190565b0390a489818887610299565b5095505050505050565b604051635e81097b60e01b8152600490fd5b6040516381c609f760e01b8152600490fd5b6040516348e0555160e11b8152600490fd5b90610056939291610138565b6100479081565b6100479054610381565b6100476002610154565b156103a357565b60405162461bcd60e51b815260206004820152601f60248201527f5265656e7472616e637947756172643a207265656e7472616e742063616c6c006044820152606490fd5b906100476100476103f892610154565b9055565b6100566104096000610388565b610427610414610392565b918290610420565b9190565b141561039c565b60006103e8565b6100476001610154565b61005661042761042e565b6001600160a01b039182168152911660208201526060810192916100569160400152565b634e487b7160e01b600052604160045260246000fd5b90601f01601f1916810190811067ffffffffffffffff82111761049f57604052565b610467565b906100566104b160405190565b928361047d565b67ffffffffffffffff811161049f57602090601f01601f19160190565b906104e76104e2836104b8565b6104a4565b918252565b3d15610506576104fb3d6104d5565b903d6000602084013e565b606090565b801515610092565b905051906100568261050b565b906020828203126100375761004791610513565b90505190610056826101ac565b906020828203126100375761004791610534565b6040513d6000823e3d90fd5b9190939261056d600090565b5060009261057a84610154565b82146107c45773eeeeeeeeeeeeeeeeeeeeeeeeeeeeeeeeeeeeeeee6001600160a01b038216036105c55750829394506105b260405190565b90818003925af16105c16104ec565b5090565b9280600461060482956105f5866323b872dd60e01b928c6105e560405190565b9687956020870190815201610443565b6020820181038252038261047d565b80519060200182875af1946106176104ec565b861590811561077b575b5061062d575b50505050565b909192945061064461063f84966101d9565b6101d9565b906370a0823161065d61065660405190565b9160e01b90565b81526001600160a01b0382166004820152602081602481865afa90811561074657859161075d575b50831161074b5760209063dd62ed3e926106bb6106a1306101d9565b946106da6106ae60405190565b9687958694859460e01b90565b84526001600160a01b0390811660048501521660248301526044820190565b03915afa928315610746579261070e575b50905b106106fc5738808080610627565b6040516313be252b60e01b8152600490fd5b6106ee91925061073761041c9160203d811161073f575b61072f818361047d565b810190610541565b9291506106eb565b503d610725565b610555565b604051631e9acf1760e31b8152600490fd5b610775915060203d811161073f5761072f818361047d565b38610685565b9050610785815190565b61079161041c86610154565b1190816107a0575b5038610621565b6107be91508060206107b3610290935190565b818301019101610520565b38610799565b506001945050505056fea2646970667358221220d137113f1673f1296765f642e986625d3909de985da3f7793908fd10c5a3b20964736f6c63430008140033",
  "devdoc": {
    "author": "@neuro_0x",
    "details": "A contract for distributing ERC20 tokens to a list of recipients.",
    "events": {
      "AirdropFailed(address,address,address,uint256)": {
        "details": "Emitted when an failed airdrop occurs."
      }
    },
    "kind": "dev",
    "methods": {
      "airdrop(address,address,(address,uint256)[])": {
        "details": "needs Approval",
        "params": {
          "contents": "A list of recipients and amounts for the airdrop.",
          "tokenAddress": "The address of the token to be airdropped.",
          "tokenOwner": "The address of the token owner initiating the airdrop."
        }
      }
    },
    "stateVariables": {
      "NATIVE_TOKEN": {
        "details": "The address of the native token (ETH)."
      }
    },
    "title": "AirdropERC20",
    "version": 1
  },
  "userdoc": {
    "kind": "user",
    "methods": {
      "airdrop(address,address,(address,uint256)[])": {
        "notice": "Allows the user to distribute ERC20 tokens to a list of addresses."
      }
    },
    "version": 1
  },
  "storageLayout": {
    "storage": [
      {
        "astId": 231,
        "contract": "src/AirdropERC20.sol:AirdropERC20",
        "label": "_status",
        "offset": 0,
        "slot": "0",
        "type": "t_uint256"
      }
    ],
    "types": {
      "t_uint256": {
        "encoding": "inplace",
        "label": "uint256",
        "numberOfBytes": "32"
      }
    }
  }
}