{
  "address": "0x9CC8B5379C40E24F374cd55973c138fff83ed214",
  "abi": [
    {
      "inputs": [
        {
          "internalType": "address",
          "name": "erc20FactoryAddress",
          "type": "address"
        },
        {
          "internalType": "address",
          "name": "airdropClaimableERC20FactoryAddress",
          "type": "address"
        }
      ],
      "stateMutability": "nonpayable",
      "type": "constructor"
    },
    {
      "inputs": [
        {
          "internalType": "enum CoinGenie.PayoutCategory",
          "name": "category",
          "type": "uint8"
        }
      ],
      "name": "InvalidPayoutCategory",
      "type": "error"
    },
    {
      "inputs": [
        {
          "internalType": "uint256",
          "name": "share",
          "type": "uint256"
        },
        {
          "internalType": "uint256",
          "name": "maxShare",
          "type": "uint256"
        }
      ],
      "name": "ShareToHigh",
      "type": "error"
    },
    {
      "anonymous": false,
      "inputs": [
        {
          "indexed": true,
          "internalType": "address",
          "name": "airdropAddress",
          "type": "address"
        },
        {
          "indexed": false,
          "internalType": "address",
          "name": "tokenOwner",
          "type": "address"
        },
        {
          "indexed": true,
          "internalType": "address",
          "name": "airdropTokenAddress",
          "type": "address"
        },
        {
          "indexed": true,
          "internalType": "uint256",
          "name": "airdropAmount",
          "type": "uint256"
        },
        {
          "indexed": false,
          "internalType": "uint256",
          "name": "expirationTimestamp",
          "type": "uint256"
        },
        {
          "indexed": false,
          "internalType": "uint256",
          "name": "maxWalletClaimCount",
          "type": "uint256"
        },
        {
          "indexed": false,
          "internalType": "bytes32",
          "name": "merkleRoot",
          "type": "bytes32"
        }
      ],
      "name": "ClaimableAirdropCreated",
      "type": "event"
    },
    {
      "anonymous": false,
      "inputs": [
        {
          "indexed": true,
          "internalType": "address",
          "name": "newTokenAddress",
          "type": "address"
        }
      ],
      "name": "ERC20Launched",
      "type": "event"
    },
    {
      "anonymous": false,
      "inputs": [
        {
          "indexed": true,
          "internalType": "address",
          "name": "previousOwner",
          "type": "address"
        },
        {
          "indexed": true,
          "internalType": "address",
          "name": "newOwner",
          "type": "address"
        }
      ],
      "name": "OwnershipTransferred",
      "type": "event"
    },
    {
      "inputs": [],
      "name": "UNISWAP_V2_ROUTER",
      "outputs": [
        {
          "internalType": "contract IUniswapV2Router02",
          "name": "",
          "type": "address"
        }
      ],
      "stateMutability": "view",
      "type": "function"
    },
    {
      "inputs": [
        {
          "internalType": "address",
          "name": "user",
          "type": "address"
        },
        {
          "internalType": "uint256",
          "name": "",
          "type": "uint256"
        }
      ],
      "name": "claimableAirdropCreatedBy",
      "outputs": [
        {
          "internalType": "address",
          "name": "airdropAddress",
          "type": "address"
        },
        {
          "internalType": "address",
          "name": "tokenOwner",
          "type": "address"
        },
        {
          "internalType": "address",
          "name": "airdropTokenAddress",
          "type": "address"
        },
        {
          "internalType": "uint256",
          "name": "airdropAmount",
          "type": "uint256"
        },
        {
          "internalType": "uint256",
          "name": "expirationTimestamp",
          "type": "uint256"
        },
        {
          "internalType": "uint256",
          "name": "maxWalletClaimCount",
          "type": "uint256"
        },
        {
          "internalType": "bytes32",
          "name": "merkleRoot",
          "type": "bytes32"
        }
      ],
      "stateMutability": "view",
      "type": "function"
    },
    {
      "inputs": [
        {
          "internalType": "address",
          "name": "tokenOwner",
          "type": "address"
        },
        {
          "internalType": "address",
          "name": "airdropTokenAddress",
          "type": "address"
        },
        {
          "internalType": "uint256",
          "name": "airdropAmount",
          "type": "uint256"
        },
        {
          "internalType": "uint256",
          "name": "expirationTimestamp",
          "type": "uint256"
        },
        {
          "internalType": "uint256",
          "name": "maxWalletClaimCount",
          "type": "uint256"
        },
        {
          "internalType": "bytes32",
          "name": "merkleRoot",
          "type": "bytes32"
        }
      ],
      "name": "createClaimableAirdrop",
      "outputs": [
        {
          "internalType": "address",
          "name": "dropAddress",
          "type": "address"
        }
      ],
      "stateMutability": "nonpayable",
      "type": "function"
    },
    {
      "inputs": [
        {
          "internalType": "uint256",
          "name": "",
          "type": "uint256"
        }
      ],
      "name": "createdClaimableAirdrops",
      "outputs": [
        {
          "internalType": "address",
          "name": "",
          "type": "address"
        }
      ],
      "stateMutability": "view",
      "type": "function"
    },
    {
      "inputs": [
        {
          "internalType": "address",
          "name": "_address",
          "type": "address"
        }
      ],
      "name": "getClaimableAirdropsForAddress",
      "outputs": [
        {
          "components": [
            {
              "internalType": "address",
              "name": "airdropAddress",
              "type": "address"
            },
            {
              "internalType": "address",
              "name": "tokenOwner",
              "type": "address"
            },
            {
              "internalType": "address",
              "name": "airdropTokenAddress",
              "type": "address"
            },
            {
              "internalType": "uint256",
              "name": "airdropAmount",
              "type": "uint256"
            },
            {
              "internalType": "uint256",
              "name": "expirationTimestamp",
              "type": "uint256"
            },
            {
              "internalType": "uint256",
              "name": "maxWalletClaimCount",
              "type": "uint256"
            },
            {
              "internalType": "bytes32",
              "name": "merkleRoot",
              "type": "bytes32"
            }
          ],
          "internalType": "struct CoinGenie.ClaimableAirdrop[]",
          "name": "airdrops",
          "type": "tuple[]"
        }
      ],
      "stateMutability": "view",
      "type": "function"
    },
    {
      "inputs": [
        {
          "internalType": "address",
          "name": "_address",
          "type": "address"
        }
      ],
      "name": "getLaunchedTokensForAddress",
      "outputs": [
        {
          "components": [
            {
              "internalType": "address",
              "name": "tokenAddress",
              "type": "address"
            },
            {
              "internalType": "string",
              "name": "name",
              "type": "string"
            },
            {
              "internalType": "string",
              "name": "symbol",
              "type": "string"
            },
            {
              "internalType": "uint256",
              "name": "initialSupply",
              "type": "uint256"
            },
            {
              "internalType": "bool",
              "name": "isBurnable",
              "type": "bool"
            },
            {
              "internalType": "bool",
              "name": "isDeflationary",
              "type": "bool"
            },
            {
              "internalType": "uint256",
              "name": "maxPerWallet",
              "type": "uint256"
            },
            {
              "internalType": "uint256",
              "name": "autoWithdrawThreshold",
              "type": "uint256"
            },
            {
              "internalType": "uint256",
              "name": "maxTaxSwap",
              "type": "uint256"
            },
            {
              "internalType": "address",
              "name": "affiliateFeeRecipient",
              "type": "address"
            },
            {
              "internalType": "address",
              "name": "feeRecipient",
              "type": "address"
            },
            {
              "internalType": "uint256",
              "name": "feePercentage",
              "type": "uint256"
            },
            {
              "internalType": "uint256",
              "name": "burnPercentage",
              "type": "uint256"
            }
          ],
          "internalType": "struct CoinGenie.LaunchedToken[]",
          "name": "tokens",
          "type": "tuple[]"
        }
      ],
      "stateMutability": "view",
      "type": "function"
    },
    {
      "inputs": [
        {
          "internalType": "enum CoinGenie.PayoutCategory",
          "name": "category",
          "type": "uint8"
        }
      ],
      "name": "getPayoutAddress",
      "outputs": [
        {
          "internalType": "address payable",
          "name": "",
          "type": "address"
        }
      ],
      "stateMutability": "view",
      "type": "function"
    },
    {
      "inputs": [
        {
          "internalType": "enum CoinGenie.PayoutCategory",
          "name": "category",
          "type": "uint8"
        }
      ],
      "name": "getPayoutShare",
      "outputs": [
        {
          "internalType": "uint256",
          "name": "",
          "type": "uint256"
        }
      ],
      "stateMutability": "view",
      "type": "function"
    },
    {
      "inputs": [
        {
          "internalType": "string",
          "name": "name",
          "type": "string"
        },
        {
          "internalType": "string",
          "name": "symbol",
          "type": "string"
        },
        {
          "internalType": "uint256",
          "name": "initialSupply",
          "type": "uint256"
        },
        {
          "internalType": "address",
          "name": "tokenOwner",
          "type": "address"
        },
        {
          "components": [
            {
              "internalType": "bool",
              "name": "isBurnable",
              "type": "bool"
            },
            {
              "internalType": "bool",
              "name": "isPausable",
              "type": "bool"
            },
            {
              "internalType": "bool",
              "name": "isDeflationary",
              "type": "bool"
            }
          ],
          "internalType": "struct Common.TokenConfigProperties",
          "name": "customConfigProps",
          "type": "tuple"
        },
        {
          "internalType": "uint256",
          "name": "maxPerWallet",
          "type": "uint256"
        },
        {
          "internalType": "uint256",
          "name": "autoWithdrawThreshold",
          "type": "uint256"
        },
        {
          "internalType": "uint256",
          "name": "maxTaxSwap",
          "type": "uint256"
        },
        {
          "internalType": "address",
          "name": "affiliateFeeRecipient",
          "type": "address"
        },
        {
          "internalType": "address",
          "name": "feeRecipient",
          "type": "address"
        },
        {
          "internalType": "uint256",
          "name": "feePercentage",
          "type": "uint256"
        },
        {
          "internalType": "uint256",
          "name": "burnPercentage",
          "type": "uint256"
        }
      ],
      "name": "launchToken",
      "outputs": [
        {
          "internalType": "address",
          "name": "",
          "type": "address"
        }
      ],
      "stateMutability": "nonpayable",
      "type": "function"
    },
    {
      "inputs": [
        {
          "internalType": "uint256",
          "name": "",
          "type": "uint256"
        }
      ],
      "name": "launchedTokens",
      "outputs": [
        {
          "internalType": "address",
          "name": "",
          "type": "address"
        }
      ],
      "stateMutability": "view",
      "type": "function"
    },
    {
      "inputs": [],
      "name": "owner",
      "outputs": [
        {
          "internalType": "address",
          "name": "",
          "type": "address"
        }
      ],
      "stateMutability": "view",
      "type": "function"
    },
    {
      "inputs": [],
      "name": "quoteThreshold",
      "outputs": [
        {
          "internalType": "uint256",
          "name": "",
          "type": "uint256"
        }
      ],
      "stateMutability": "view",
      "type": "function"
    },
    {
      "inputs": [],
      "name": "renounceOwnership",
      "outputs": [],
      "stateMutability": "nonpayable",
      "type": "function"
    },
    {
      "inputs": [
        {
          "internalType": "uint256",
          "name": "_quoteThreshold",
          "type": "uint256"
        }
      ],
      "name": "setQuoteThreshold",
      "outputs": [],
      "stateMutability": "nonpayable",
      "type": "function"
    },
    {
      "inputs": [
        {
          "internalType": "address",
          "name": "tokenAddress",
          "type": "address"
        },
        {
          "internalType": "uint256",
          "name": "amount",
          "type": "uint256"
        }
      ],
      "name": "swapERC20s",
      "outputs": [],
      "stateMutability": "nonpayable",
      "type": "function"
    },
    {
      "inputs": [
        {
          "internalType": "address",
          "name": "user",
          "type": "address"
        },
        {
          "internalType": "uint256",
          "name": "",
          "type": "uint256"
        }
      ],
      "name": "tokensLaunchedBy",
      "outputs": [
        {
          "internalType": "address",
          "name": "tokenAddress",
          "type": "address"
        },
        {
          "internalType": "string",
          "name": "name",
          "type": "string"
        },
        {
          "internalType": "string",
          "name": "symbol",
          "type": "string"
        },
        {
          "internalType": "uint256",
          "name": "initialSupply",
          "type": "uint256"
        },
        {
          "internalType": "bool",
          "name": "isBurnable",
          "type": "bool"
        },
        {
          "internalType": "bool",
          "name": "isDeflationary",
          "type": "bool"
        },
        {
          "internalType": "uint256",
          "name": "maxPerWallet",
          "type": "uint256"
        },
        {
          "internalType": "uint256",
          "name": "autoWithdrawThreshold",
          "type": "uint256"
        },
        {
          "internalType": "uint256",
          "name": "maxTaxSwap",
          "type": "uint256"
        },
        {
          "internalType": "address",
          "name": "affiliateFeeRecipient",
          "type": "address"
        },
        {
          "internalType": "address",
          "name": "feeRecipient",
          "type": "address"
        },
        {
          "internalType": "uint256",
          "name": "feePercentage",
          "type": "uint256"
        },
        {
          "internalType": "uint256",
          "name": "burnPercentage",
          "type": "uint256"
        }
      ],
      "stateMutability": "view",
      "type": "function"
    },
    {
      "inputs": [
        {
          "internalType": "address",
          "name": "newOwner",
          "type": "address"
        }
      ],
      "name": "transferOwnership",
      "outputs": [],
      "stateMutability": "nonpayable",
      "type": "function"
    },
    {
      "inputs": [
        {
          "internalType": "enum CoinGenie.PayoutCategory",
          "name": "category",
          "type": "uint8"
        },
        {
          "internalType": "address payable",
          "name": "receiver",
          "type": "address"
        },
        {
          "internalType": "uint256",
          "name": "share",
          "type": "uint256"
        }
      ],
      "name": "updatePayout",
      "outputs": [],
      "stateMutability": "nonpayable",
      "type": "function"
    },
    {
      "inputs": [],
      "name": "withdraw",
      "outputs": [],
      "stateMutability": "nonpayable",
      "type": "function"
    },
    {
      "stateMutability": "payable",
      "type": "receive"
    }
  ],
  "transactionHash": "0xe2a5a4477ae9cf5ff8d90c2850b00aad58c2d2d539dd5e64f5ce8a2fd555a6ec",
  "args": [
    "0x87c470437282174b3f8368c7CF1Ac03bcAe57954",
    "0x746a48E39dC57Ff14B872B8979E20efE5E5100B1"
  ],
  "numDeployments": 1,
  "solcInputHash": "6837d1337d79c82c6889fdd69153b277",
  "bytecode": "0x60806040523462000031576200001f62000018620000e5565b9062000251565b60405161239d620004bc823961239d90f35b600080fd5b634e487b7160e01b600052604160045260246000fd5b90601f01601f191681019081106001600160401b038211176200006e57604052565b62000036565b906200008b6200008360405190565b92836200004c565b565b6001600160a01b031690565b90565b6001600160a01b038116036200003157565b905051906200008b826200009c565b919060408382031262000031576200009990620000db8185620000ae565b93602001620000ae565b620001086200285980380380620000fc8162000074565b928339810190620000bd565b9091565b90600019905b9181191691161790565b6200009962000099620000999290565b90620001406200009962000148926200011c565b82546200010c565b9055565b62000099906200008d906001600160a01b031682565b62000099906200014c565b620000999062000162565b906001600160a01b039062000112565b906200019c6200009962000148926200016d565b825462000178565b62000099604062000074565b634e487b7160e01b600052602160045260246000fd5b60041115620001d157565b620001b0565b906200008b82620001c6565b6200009990620001d7565b90620001fa90620001e3565b600052602052604060002090565b6200008b91906200023e9060209060019062000237816200023087516001600160a01b031690565b9062000188565b0192015190565b906200012c565b906200008b9162000208565b6200029891620002826200028862000290936200026d62000417565b6200028267016345785d8a000060026200012c565b6200016d565b600462000188565b600562000188565b6200008b620002bb73be79b43b1505290dfe04294a433963dbeea736bb6200016d565b620002f0620002e96107d0620002e3620002d4620001a4565b6001600160a01b039095168552565b6200011c565b6020830152565b6200030960036200030f600093620003098584620001ee565b62000245565b620003696200033273633bf832dc39c0025a7aeaa165ec91acf02063d56200016d565b6200035c620002e9611388620002e36200034b620001a4565b6001600160a01b0390951689860152565b62000309600184620001ee565b620004046200038c73bb6712a513c2d7f3e17a40d095a773c5d98574b26200016d565b620003bf620003a56105dc620002e36200034b620001a4565b91620003b2836020830152565b62000309600286620001ee565b620003fd620003e273f14a30c09897d2c7481c5907d01ec58ec09555af6200016d565b620003ec620001a4565b968701906001600160a01b03169052565b6020850152565b80620001ee565b6200009960016200011c565b6200042162000437565b6200008b6200042f6200040b565b60016200012c565b6200008b3362000459565b62000099906200008d565b62000099905462000442565b6200046560006200044d565b906200047381600062000188565b620004aa620004a37f8be0079c531659141344cd1fd0a4f28419497f9722a3daafe3b4186f6b6457e0936200016d565b916200016d565b91620004b560405190565b600090a356fe6080604052600436101561001b575b361561001957600080fd5b005b60003560e01c806310f2b1411461014b5780633ccfd60b146101465780633d9cce421461014157806343584bca1461013c57806344ea3a66146101375780634d9429e714610132578063646eedab1461012d578063715018a6146101285780638da5cb5b146101235780639b1de1ff1461011e578063a7bc6a1714610119578063a82ed9ec14610114578063b56111071461010f578063d0b516c71461010a578063dc8ed63614610105578063f14aade114610100578063f2fde38b146100fb578063f4517987146100f65763fca928b20361000e57610e89565b610e40565b610e28565b610e01565b610c85565b610c6a565b610c01565b6108f5565b610890565b610777565b610702565b6106ea565b6106bf565b61049f565b61045e565b6102c9565b61029e565b61025f565b610229565b805b0361015957565b600080fd5b9050359061016b82610150565b565b90602082820312610159576101819161015e565b90565b634e487b7160e01b600052603260045260246000fd5b80548210156101bd576101b4600191600052602060002090565b91020190600090565b610184565b610181916008021c5b6001600160a01b031690565b9061018191546101c2565b600860006101ee825490565b8310156102095750610181916102039161019a565b906101d7565b80fd5b610215906101cb565b9052565b60208101929161016b919061020c565b346101595761025061024461023f36600461016d565b6101e2565b60405191829182610219565b0390f35b600091031261015957565b346101595761026f366004610254565b610277611b44565b604051005b610181916008021c81565b90610181915461027c565b61018160006002610287565b34610159576102ae366004610254565b6102506102b9610292565b6040519182918290815260200190565b34610159576102776102dc36600461016d565b612080565b610152816101cb565b9050359061016b826102e1565b9190604083820312610159576101819061031181856102ea565b9360200161015e565b610181906101cb906001600160a01b031682565b6101819061031a565b6101819061032e565b9061034a90610337565b600052602052604060002090565b80548210156101bd576101b4600791600052602060002090565b610181906101cb565b6101819054610372565b6101819081565b6101819054610385565b91906103a6600793600094610340565b8054821015610411576103ba929350610358565b506103c48161037b565b916103d16001830161037b565b916103de6002820161037b565b916103eb6003830161038c565b916103f86004820161038c565b91610181600661040a6005850161038c565b930161038c565b8380fd5b949290979695939160e08601986000870161042f9161020c565b6020860161043c9161020c565b604085016104499161020c565b6060840152608083015260a082015260c00152565b346101595761025061047a6104743660046102f7565b90610396565b9361048a97959793919360405190565b97889788610415565b600660006101ee825490565b34610159576102506102446104b536600461016d565b610493565b634e487b7160e01b600052604160045260246000fd5b90601f01601f1916810190811067ffffffffffffffff8211176104f257604052565b6104ba565b9061016b61050460405190565b92836104d0565b67ffffffffffffffff81116104f257602090601f01601f19160190565b0190565b90826000939282370152565b9092919261054d6105488261050b565b6104f7565b938185526020850190828401116101595761016b9261052c565b9080601f830112156101595781602061018193359101610538565b801515610152565b9050359061016b82610582565b919091606081840312610159576105de6105b160606104f7565b9360006105be828561058a565b9086015260206105d08282860161058a565b90860152604080930161058a565b90830152565b90916101c08284031261015957813567ffffffffffffffff8111610159578361060e918401610567565b92602083013567ffffffffffffffff8111610159578161062f918501610567565b9261063d826040830161015e565b9261064b83606084016102ea565b926106598160808501610597565b926106678260e0830161015e565b9261067683610100840161015e565b9261068581610120850161015e565b926106948261014083016102ea565b926101816106a68461016085016102ea565b936106b581610180860161015e565b936101a00161015e565b34610159576102506102446106d53660046105e4565b9a99909998919897929796939695949561153f565b34610159576106fa366004610254565b610277610ee4565b3461015957610712366004610254565b610250610244610ea2565b909160c0828403126101595761073383836102ea565b9261074181602085016102ea565b9261074f826040830161015e565b92610181610760846060850161015e565b9361076e816080860161015e565b9360a00161015e565b346101595761025061024461078d36600461071d565b9493909392919261182e565b9060208282031261015957610181916102ea565b9060c08061016b936107c76000820151600086019061020c565b6107d96020820151602086019061020c565b6107eb6040820151604086019061020c565b6107fa60608201516060860152565b61080960808201516080860152565b61081860a082015160a0860152565b0151910152565b906105288160e0936107ad565b9061084c61084561083b845190565b8084529260200190565b9260200190565b9060005b81811061085d5750505090565b909192610877610870600192865161081f565b9460200190565b929101610850565b60208082526101819291019061082c565b34610159576102506108ab6108a6366004610799565b61232d565b6040519182918261087f565b610181737a250d5630b4cf539739df2c5dacb4c659f2488d610337565b6101816108b7565b61021590610337565b60208101929161016b91906108dc565b3461015957610905366004610254565b6102506109106108d4565b604051918291826108e5565b80548210156101bd576101b4600c91600052602060002090565b634e487b7160e01b600052602260045260246000fd5b906001600283049216801561096c575b602083101461096757565b610936565b91607f169161095c565b805460009392916109936109898361094c565b8085529360200190565b91600181169081156109e557506001146109ac57505050565b6109bf9192939450600052602060002090565b916000925b8184106109d15750500190565b8054848401526020909301926001016109c4565b92949550505060ff1916825215156020020190565b9061018191610976565b9061016b610a1e92610a1560405190565b938480926109fa565b03836104d0565b610181905b60ff1690565b6101819054610a25565b6101819060081c610a2a565b6101819054610a3a565b9190610a60600993600094610340565b805482101561041157610a7492935061091c565b50610a7e8161037b565b91610a8b60018301610a04565b91610a9860028201610a04565b91610aa56003830161038c565b91610ab260048201610a30565b91610abf60048301610a46565b91610acc6005820161038c565b91610ad96006830161038c565b91610ae66007820161038c565b91610af36008830161037b565b91610b006009820161037b565b91610181600b61040a600a850161038c565b60005b838110610b255750506000910152565b8181015183820152602001610b15565b610b56610b5f60209361052893610b4a815190565b80835293849260200190565b95869101610b12565b601f01601f191690565b9a9896949291909d9c9b999795939d6101a08c019060008d01610b8b9161020c565b8b810360208d0152610b9c91610b35565b8a810360408c0152610bad91610b35565b9b60608a01610bba919052565b15156080890152151560a088015260c087015260e08601526101008501526101208401610be69161020c565b6101408301610bf49161020c565b6101608201526101800152565b3461015957610250610c1d610c173660046102f7565b90610a50565b99610c369d9b9d99919998929897939796949660405190565b9d8e9d8e610b69565b6004111561015957565b9050359061016b82610c3f565b906020828203126101595761018191610c49565b34610159576102506102b9610c80366004610c56565b6119ef565b3461015957610250610244610c9b366004610c56565b6119d0565b906101819061018080610cea610cd86101a08501610cc66000890151600088019061020c565b60208801518682036020880152610b35565b60408701518582036040870152610b35565b94610cfa60608201516060860152565b60808181015115159085015260a081810151151590850152610d2160c082015160c0860152565b610d3060e082015160e0860152565b610d41610100820151610100860152565b610d5561012082015161012086019061020c565b610d6961014082015161014086019061020c565b610818610160820151610160860152565b9061018191610ca0565b90610d9a610d90835190565b8083529160200190565b9081610dac6020830284019460200190565b926000915b838310610dc057505050505090565b90919293946020610de3610ddc83856001950387528951610d7a565b9760200190565b9301930191939290610db1565b602080825261018192910190610d84565b3461015957610250610e1c610e17366004610799565b61221a565b60405191829182610df0565b3461015957610277610e3b366004610799565b610ff8565b3461015957610277610e533660046102f7565b90611eb1565b909160608284031261015957610181610e728484610c49565b93610e8081602086016102ea565b9360400161015e565b3461015957610277610e9c366004610e59565b91611b2e565b610181600061037b565b610eb4610f40565b61016b610ed2565b6101cb6101816101819290565b61018190610ebc565b61016b610edf6000610ec9565b611031565b61016b610eac565b15610ef357565b60405162461bcd60e51b815280610f3c600482016020808252818101527f4f776e61626c653a2063616c6c6572206973206e6f7420746865206f776e6572604082015260600190565b0390fd5b61016b610f4b610ea2565b610f62610f5c336101cb565b6101cb565b916101cb565b14610eec565b61016b90610f74610f40565b610fd4565b15610f8057565b60405162461bcd60e51b815260206004820152602660248201527f4f776e61626c653a206e6577206f776e657220697320746865207a65726f206160448201526564647265737360d01b6064820152608490fd5b61016b90610edf610fe8610f576000610ec9565b610ff1836101cb565b1415610f79565b61016b90610f68565b906001600160a01b03905b9181191691161790565b9061102661018161102d92610337565b8254611001565b9055565b61103b600061037b565b90611047816000611016565b61107a6110747f8be0079c531659141344cd1fd0a4f28419497f9722a3daafe3b4186f6b6457e093610337565b91610337565b9161108460405190565b600090a3565b61015281610372565b9050519061016b8261108a565b906020828203126101595761018191611093565b9a989694929d9c9b9997959391906101e08c018c80820390600001526110d991610b35565b8b810360208d01526110ea91610b35565b9c60408b016110f7919052565b60608a016111049161020c565b8051151560808a01526020810151151560a08a015260400151151560c089015260e088015261010087015261012086015261014085016111439161020c565b61016084016111519161020c565b6101808301526101a08201526101c00161016b9161020c565b6040513d6000823e3d90fd5b916001600160a01b0360089290920291821b911b61100c565b91906111a061018161102d93610337565b908354611176565b90815491600160401b8310156104f257826111cb91600161016b9501815561019a565b9061118f565b6101816101a06104f7565b90610215906101cb565b634e487b7160e01b600052600060045260246000fd5b61018190516101cb565b9160001960089290920291821b911b61100c565b6101816101816101819290565b919061123861018161102d9361121a565b908354611206565b61016b91600091611227565b818110611257575050565b806112656000600193611240565b0161124c565b9190601f811161127a57505050565b61128c61016b93600052602060002090565b906020601f8401819004830193106112ae575b6020601f90910104019061124c565b909150819061129f565b906112c1815190565b9067ffffffffffffffff82116104f2576112e5826112df855461094c565b8561126b565b602090601f83116001146113205761102d929160009183611315575b5050600019600883021c1916906002021790565b015190503880611301565b601f1983169161133585600052602060002090565b9260005b8181106113735750916002939185600196941061135a575b50505002019055565b01516000196008601f8516021c19169055388080611351565b91936020600181928787015181550195019201611339565b9061016b916112b8565b906000199061100c565b906113af61018161102d9261121a565b8254611395565b9060ff9061100c565b906113cf61018161102d92151590565b82546113b6565b9061ff009060081b61100c565b906113f361018161102d92151590565b82546113d6565b61016b91906114599061018090600b9061141d81611417876111fc565b90611016565b6114356001820161142f602088015190565b9061138b565b6114476002820161142f604088015190565b61145f60038201611459606088015190565b9061139f565b6114896004820161147c6114766080890151151590565b826113bf565b60a08701511515906113e3565b61149b6005820161145960c088015190565b6114ad6006820161145960e088015190565b6114c06007820161145961010088015190565b6114d46008820161141761012088016111fc565b6114e86009820161141761014088016111fc565b6114fb600a820161145961016088015190565b0192015190565b91906115115761016b916113fa565b6111e6565b90815491600160401b8310156104f2578261153991600161016b9501815561091c565b90611502565b9099969382878c888c99969f9c889e9b988e8e8e8a948e61155e600090565b50611569600461037b565b61157290610337565b9963d5e71353988d61158330610337565b9861158d60405190565b9e8f9d8e61159c819f60e01b90565b81526004019c6115ab9d6110b4565b03815a602094600091f180156116dd576115cd916000916116af575b50610337565b6115d690610337565b9b8c9a6115e48c60086111a8565b6115ef906009610340565b9b6115fa8351151590565b60409093015115159361160b6111d1565b9c611616908e6111dc565b60208d015260408c015260608b0152151560808a0152151560a089015260c088015260e08701526101008601526116519061012086016111dc565b61165f9061014085016111dc565b61016083015261018082015261167491611516565b7fda509e6642e963726d34ff4d505f1232025d5a4c3937d868bcad7e3e5950d6e661169e82610337565b906116a860405190565b600090a290565b6116d0915060203d81116116d6575b6116c881836104d0565b8101906110a0565b386115c7565b503d6116be565b61116a565b919461172561172c9298979561171e60a09661171761016b9a61170d60c08a019e60008b019061020c565b602089019061020c565b6040870152565b6060850152565b6080830152565b0152565b61018160e06104f7565b906113af61018161102d9290565b61016b91906117c09060c09060069061176481611417876111fc565b61177760018201611417602088016111fc565b61178a60028201611417604088016111fc565b61179c60038201611459606088015190565b6117ae60048201611459608088015190565b6114fb6005820161145960a088015190565b9061173a565b91906115115761016b91611748565b90815491600160401b8310156104f257826117f891600161016b95018155610358565b906117c6565b61172c61016b94611827606094989795611820608086019a600087019061020c565b6020850152565b6040830152565b9490919261183a600090565b50611845600561037b565b61184e90610337565b95639b1de1ff9661185e60405190565b9760e01b88528780611878868a878b8b89600488016116e2565b03815a602094600091f19687156116dd5760009761196e575b506118a76118a0600698610337565b80986111a8565b6119156118b2611730565b6118bc89826111dc565b6118c983602083016111dc565b6118d686604083016111dc565b6118e1876060830152565b6118ec846080830152565b6118f78860a0830152565b6119028560c0830152565b611910610181336007610340565b6117d5565b6119687fe4a84f0f254e5960c762412e401bbc3ea5b577c07be930ce4ea38862ddc5f6529361195561194f6119498b610337565b97610337565b9761121a565b9761195f60405190565b948594856117fe565b0390a490565b61198791975060203d81116116d6576116c881836104d0565b9538611891565b634e487b7160e01b600052602160045260246000fd5b600411156119ae57565b61198e565b9061016b826119a4565b610181906119b3565b9061034a906119bd565b60006119e9610181926119e1600090565b5060036119c6565b0161037b565b6001611a00610181926119e1600090565b0161038c565b9061016b9291611a14610f40565b611a75565b90815260408101929161016b9160200152565b610215906119bd565b60208101929161016b9190611a2c565b61018160406104f7565b61016b9190611459906020906001906114fb81611417876111fc565b9061016b91611a4f565b9291600390611a8c6101816001611a0088866119c6565b8111611afc57611a9b826119b3565b611aa4866119b3565b11611ad95793611ad491611acf61016b9596611ac8611ac1611a45565b96876111dc565b6020860152565b6119c6565b611a6b565b610f3c85611ae660405190565b63699273b360e01b815291829160048301611a35565b611b0b6001611a0087856119c6565b90610f3c611b1860405190565b63dcaf71db60e01b815292839260048401611a19565b9061016b9291611a06565b61018161271061121a565b611b4d30610337565b3160006003611b5c82826119c6565b600101611b689061038c565b82600180611b7681866119c6565b01611b809061038c565b958260029280611b9085896119c6565b01611b9a9061038c565b9281611ba689806119c6565b01611bb09061038c565b96611bbb9082611cda565b90611bc4611b39565b80611bd0818095611d09565b9c611bdb9084611cda565b90611be591611d09565b95611bf09083611cda565b90611bfa91611d09565b97611c0491611cda565b90611c0e91611d09565b9882611c1a818a6119c6565b01611c249061037b565b611c2d90610337565b90611c3791612349565b611c4190876119c6565b01611c4b9061037b565b611c5490610337565b90611c5e91612349565b611c6890846119c6565b01611c729061037b565b611c7b90610337565b90611c8591612349565b80611c8f916119c6565b01611c999061037b565b611ca290610337565b9061016b91612349565b634e487b7160e01b600052601160045260246000fd5b81810292918115918404141715611cd557565b611cac565b6101819190611cc2565b634e487b7160e01b600052601260045260246000fd5b8115611d04570490565b611ce4565b6101819190611cfa565b9050519061016b82610582565b906020828203126101595761018191611d13565b91602061016b92949361172c6040820196600083019061020c565b15611d5657565b60405162461bcd60e51b815260206004820152600f60248201526e105c1c1c9bdd985b0819985a5b1959608a1b6044820152606490fd5b67ffffffffffffffff81116104f25760208091020190565b90611db261054883611d8d565b918252565b369037565b9061016b611dd2611dcc84611da5565b93611d8d565b601f190160208401611db7565b90611de8825190565b8110156101bd576020809102010190565b9050519061016b826102e1565b906020828203126101595761018191611df9565b6102159061121a565b906105288160209361020c565b90611e3f61084561083b845190565b9060005b818110611e505750505090565b909192611e636108706001928651611e23565b929101611e43565b90611ea661172c9161016b96989795611e99608096611e8f60a08801946000890152565b6020870190611e1a565b8482036040860152611e30565b96606083019061020c565b90611ec3611ebe83610337565b610337565b90611eec602063095ea7b3611ed9611ebe6108b7565b94611ee360405190565b93849260e01b90565b825281600081611f00888a60048401611d34565b03925af180156116dd57611f1c9160009161203b575b50611d4f565b611f2e611f29600261121a565b611dbc565b90611f4c600094611f47611f418761121a565b85611ddf565b6111dc565b63ad5c4648611f64611f5d60405190565b9160e01b90565b8152602081600481875afa80156116dd57611f8e91869161200d575b50611f47611f41600161121a565b635c11d79592611f9d30610337565b4290823b15610159578695611fd5611fca938897938894611fbd60405190565b9a8b998a98899760e01b90565b875260048701611e6b565b03925af180156116dd57611fe7575050565b8161016b92903d10612006575b611ffe81836104d0565b810190610254565b503d611ff4565b61202e915060203d8111612034575b61202681836104d0565b810190611e06565b38611f80565b503d61201c565b61205c915060203d8111612062575b61205481836104d0565b810190611d20565b38611f16565b503d61204a565b61016b90612075610f40565b61016b90600261139f565b61016b90612069565b9061016b6121ab600b61209a6111d1565b946120ad6120a78261037b565b876111dc565b6120c36120bc60018301610a04565b6020880152565b6120d96120d260028301610a04565b6040880152565b6120ef6120e86003830161038c565b6060880152565b6121076120fe60048301610a30565b15156080880152565b61211f61211660048301610a46565b151560a0880152565b61213561212e6005830161038c565b60c0880152565b61214b6121446006830161038c565b60e0880152565b61216261215a6007830161038c565b610100880152565b61217b6121716008830161037b565b61012088016111dc565b61219461218a6009830161037b565b61014088016111dc565b611a006121a3600a830161038c565b610160880152565b610180840152565b61018190612089565b906121c5825490565b6121ce81611da5565b926121e26020850191600052602060002090565b6000915b8383106121f35750505050565b600c6020600192612203856121b3565b8152019201920191906121e6565b610181906121bc565b61223161018191612229606090565b506009610340565b612211565b9061016b6122bf6006612247611730565b946122546120a78261037b565b61226c6122636001830161037b565b602088016111dc565b61228461227b6002830161037b565b604088016111dc565b6122936120e86003830161038c565b6122a96122a26004830161038c565b6080880152565b611a006122b86005830161038c565b60a0880152565b60c0840152565b61018190612236565b906122d8825490565b6122e181611da5565b926122f56020850191600052602060002090565b6000915b8383106123065750505050565b60076020600192612316856122c6565b8152019201920191906122f9565b610181906122cf565b6123446101819161233c606090565b506007610340565b612324565b600080809381935af11561235957565b63b12d13eb6000526004601cfdfea2646970667358221220f8c0e4cfe220477f29e8f64c7ae3c9b2f5b4fd823ea05dbe5128a0cb6f2abcd964736f6c63430008140033",
  "libraries": {
    "SafeTransfer": "0x88D1aF96098a928eE278f162c1a84f339652f95b",
    "Common": "0x7Ce73F8f636C6bD3357A0A8a59e0ab6462C955B0"
  },
  "devdoc": {
    "author": "@neuro_0x",
    "details": "The orchestrator contract for the CoinGenie ecosystem.",
    "kind": "dev",
    "methods": {
      "constructor": {
        "params": {
          "airdropClaimableERC20FactoryAddress": "The address of the AirdropERC20ClaimableFactory contract",
          "erc20FactoryAddress": "The address of the ERC20Factory contract"
        }
      },
      "createClaimableAirdrop(address,address,uint256,uint256,uint256,bytes32)": {
        "params": {
          "airdropAmount": "The amount of tokens available for airdrop",
          "airdropTokenAddress": "The address of the airdrop token",
          "expirationTimestamp": "The expiration timestamp of the airdrop",
          "maxWalletClaimCount": "The maximum number of tokens that can be claimed by a wallet if not in the whitelist",
          "merkleRoot": "The merkle root of the whitelist",
          "tokenOwner": "The address of the token owner"
        },
        "returns": {
          "dropAddress": "The address of the newly deployed airdrop contract"
        }
      },
      "getClaimableAirdropsForAddress(address)": {
        "params": {
          "_address": "The address to get the airdrops for"
        }
      },
      "getLaunchedTokensForAddress(address)": {
        "params": {
          "_address": "The address to get the tokens for"
        },
        "returns": {
          "tokens": "The array of launched tokens"
        }
      },
      "getPayoutAddress(uint8)": {
        "params": {
          "category": "The category to get the payout address for"
        },
        "returns": {
          "_0": "receiver The address to receive the payout"
        }
      },
      "getPayoutShare(uint8)": {
        "params": {
          "category": "The category to get the payout share for"
        },
        "returns": {
          "_0": "share The share of the payout"
        }
      },
      "launchToken(string,string,uint256,address,(bool,bool,bool),uint256,uint256,uint256,address,address,uint256,uint256)": {
        "details": "This function deploys a new token contract and initializes it with provided parameters.",
        "params": {
          "affiliateFeeRecipient": "The address to receive the affiliate fee",
          "autoWithdrawThreshold": "The threshold for the amount of tokens to swap for ETH",
          "burnPercentage": "The percent in basis points to burn on every tx if this token is deflationary",
          "customConfigProps": "A struct of configuration booleans for the token",
          "feePercentage": "The percent in basis points to use as a tax",
          "feeRecipient": "The address to receive the tax fees",
          "initialSupply": "The initial supply of the token",
          "maxPerWallet": "The maximum amount of tokens allowed to be held by one wallet",
          "maxTaxSwap": "The maximum amount of tokens allowed to be swapped at once by manual or autoswap",
          "name": "The name of the token",
          "symbol": "The symbol of the token",
          "tokenOwner": "The address that will be the owner of the token"
        },
        "returns": {
          "_0": "_tokenAddress The address of the newly deployed token contract"
        }
      },
      "owner()": {
        "details": "Returns the address of the current owner."
      },
      "renounceOwnership()": {
        "details": "Leaves the contract without owner. It will not be possible to call `onlyOwner` functions. Can only be called by the current owner. NOTE: Renouncing ownership will leave the contract without an owner, thereby disabling any functionality that is only available to the owner."
      },
      "setQuoteThreshold(uint256)": {
        "params": {
          "_quoteThreshold": "The threshold for the amount of tokens to swap for ETH"
        }
      },
      "swapERC20s(address,uint256)": {
        "params": {
          "amount": "The amount of tokens to swap",
          "tokenAddress": "The address of the token to swap"
        }
      },
      "transferOwnership(address)": {
        "details": "Transfers ownership of the contract to a new account (`newOwner`). Can only be called by the current owner."
      },
      "updatePayout(uint8,address,uint256)": {
        "params": {
          "category": "The category to set the payout address for",
          "receiver": "The address to receive the payout",
          "share": "The share of the payout"
        }
      }
    },
    "stateVariables": {
      "UNISWAP_V2_ROUTER": {
        "details": "The address of the Uniswap V2 Router. The contract uses the router for liquidity provision and token swaps"
      },
      "_airdropClaimableERC20Factory": {
        "details": "Stores the address of the AirdropERC20Claimable contract."
      },
      "_erc20Factory": {
        "details": "Stores the address of the ERC20Factory contract."
      },
      "_payouts": {
        "details": "A mapping of payout categories to payouts."
      },
      "claimableAirdropCreatedBy": {
        "details": "A mapping of airdrops launched by a specific owner."
      },
      "createdClaimableAirdrops": {
        "details": "Stores the addresses of all airdrops launched by the contract."
      },
      "launchedTokens": {
        "details": "Stores the addresses of all tokens launched by the contract."
      },
      "quoteThreshold": {
        "details": "The threshold for the amount of tokens to swap for ETH"
      },
      "tokensLaunchedBy": {
        "details": "A mapping of tokens launched by a specific owner."
      }
    },
    "title": "CoinGenie",
    "version": 1
  },
  "userdoc": {
    "kind": "user",
    "methods": {
      "constructor": {
        "notice": "Construct the CoinGenie contract."
      },
      "createClaimableAirdrop(address,address,uint256,uint256,uint256,bytes32)": {
        "notice": "Launch a new instance of the CoinGenieAirdropClaimable Contract."
      },
      "getClaimableAirdropsForAddress(address)": {
        "notice": "Get the airdrops created by a specific address."
      },
      "getLaunchedTokensForAddress(address)": {
        "notice": "Get the launched tokens."
      },
      "getPayoutAddress(uint8)": {
        "notice": "Get the payout address for a specific category."
      },
      "getPayoutShare(uint8)": {
        "notice": "Get the payout share for a specific category."
      },
      "launchToken(string,string,uint256,address,(bool,bool,bool),uint256,uint256,uint256,address,address,uint256,uint256)": {
        "notice": "Launch a new instance of the ERC20."
      },
      "setQuoteThreshold(uint256)": {
        "notice": "Set the threshold for the amount of tokens to swap for ETH."
      },
      "swapERC20s(address,uint256)": {
        "notice": "Swap ERC20 tokens for ETH."
      },
      "updatePayout(uint8,address,uint256)": {
        "notice": "Set the payout address for a specific category."
      },
      "withdraw()": {
        "notice": "Withdraw the contract balance to the payout addresses."
      }
    },
    "version": 1
  },
  "storageLayout": {
    "storage": [
      {
        "astId": 7,
        "contract": "src/CoinGenie.sol:CoinGenie",
        "label": "_owner",
        "offset": 0,
        "slot": "0",
        "type": "t_address"
      },
      {
        "astId": 231,
        "contract": "src/CoinGenie.sol:CoinGenie",
        "label": "_status",
        "offset": 0,
        "slot": "1",
        "type": "t_uint256"
      },
      {
        "astId": 4011,
        "contract": "src/CoinGenie.sol:CoinGenie",
        "label": "quoteThreshold",
        "offset": 0,
        "slot": "2",
        "type": "t_uint256"
      },
      {
        "astId": 4018,
        "contract": "src/CoinGenie.sol:CoinGenie",
        "label": "_payouts",
        "offset": 0,
        "slot": "3",
        "type": "t_mapping(t_enum(PayoutCategory)3982,t_struct(Payout)3987_storage)"
      },
      {
        "astId": 4022,
        "contract": "src/CoinGenie.sol:CoinGenie",
        "label": "_erc20Factory",
        "offset": 0,
        "slot": "4",
        "type": "t_contract(ERC20Factory)6276"
      },
      {
        "astId": 4026,
        "contract": "src/CoinGenie.sol:CoinGenie",
        "label": "_airdropClaimableERC20Factory",
        "offset": 0,
        "slot": "5",
        "type": "t_contract(AirdropERC20ClaimableFactory)3880"
      },
      {
        "astId": 4030,
        "contract": "src/CoinGenie.sol:CoinGenie",
        "label": "createdClaimableAirdrops",
        "offset": 0,
        "slot": "6",
        "type": "t_array(t_address)dyn_storage"
      },
      {
        "astId": 4037,
        "contract": "src/CoinGenie.sol:CoinGenie",
        "label": "claimableAirdropCreatedBy",
        "offset": 0,
        "slot": "7",
        "type": "t_mapping(t_address,t_array(t_struct(ClaimableAirdrop)3977_storage)dyn_storage)"
      },
      {
        "astId": 4041,
        "contract": "src/CoinGenie.sol:CoinGenie",
        "label": "launchedTokens",
        "offset": 0,
        "slot": "8",
        "type": "t_array(t_address)dyn_storage"
      },
      {
        "astId": 4048,
        "contract": "src/CoinGenie.sol:CoinGenie",
        "label": "tokensLaunchedBy",
        "offset": 0,
        "slot": "9",
        "type": "t_mapping(t_address,t_array(t_struct(LaunchedToken)3962_storage)dyn_storage)"
      }
    ],
    "types": {
      "t_address": {
        "encoding": "inplace",
        "label": "address",
        "numberOfBytes": "20"
      },
      "t_address_payable": {
        "encoding": "inplace",
        "label": "address payable",
        "numberOfBytes": "20"
      },
      "t_array(t_address)dyn_storage": {
        "base": "t_address",
        "encoding": "dynamic_array",
        "label": "address[]",
        "numberOfBytes": "32"
      },
      "t_array(t_struct(ClaimableAirdrop)3977_storage)dyn_storage": {
        "base": "t_struct(ClaimableAirdrop)3977_storage",
        "encoding": "dynamic_array",
        "label": "struct CoinGenie.ClaimableAirdrop[]",
        "numberOfBytes": "32"
      },
      "t_array(t_struct(LaunchedToken)3962_storage)dyn_storage": {
        "base": "t_struct(LaunchedToken)3962_storage",
        "encoding": "dynamic_array",
        "label": "struct CoinGenie.LaunchedToken[]",
        "numberOfBytes": "32"
      },
      "t_bool": {
        "encoding": "inplace",
        "label": "bool",
        "numberOfBytes": "1"
      },
      "t_bytes32": {
        "encoding": "inplace",
        "label": "bytes32",
        "numberOfBytes": "32"
      },
      "t_contract(AirdropERC20ClaimableFactory)3880": {
        "encoding": "inplace",
        "label": "contract AirdropERC20ClaimableFactory",
        "numberOfBytes": "20"
      },
      "t_contract(ERC20Factory)6276": {
        "encoding": "inplace",
        "label": "contract ERC20Factory",
        "numberOfBytes": "20"
      },
      "t_enum(PayoutCategory)3982": {
        "encoding": "inplace",
        "label": "enum CoinGenie.PayoutCategory",
        "numberOfBytes": "1"
      },
      "t_mapping(t_address,t_array(t_struct(ClaimableAirdrop)3977_storage)dyn_storage)": {
        "encoding": "mapping",
        "key": "t_address",
        "label": "mapping(address => struct CoinGenie.ClaimableAirdrop[])",
        "numberOfBytes": "32",
        "value": "t_array(t_struct(ClaimableAirdrop)3977_storage)dyn_storage"
      },
      "t_mapping(t_address,t_array(t_struct(LaunchedToken)3962_storage)dyn_storage)": {
        "encoding": "mapping",
        "key": "t_address",
        "label": "mapping(address => struct CoinGenie.LaunchedToken[])",
        "numberOfBytes": "32",
        "value": "t_array(t_struct(LaunchedToken)3962_storage)dyn_storage"
      },
      "t_mapping(t_enum(PayoutCategory)3982,t_struct(Payout)3987_storage)": {
        "encoding": "mapping",
        "key": "t_enum(PayoutCategory)3982",
        "label": "mapping(enum CoinGenie.PayoutCategory => struct CoinGenie.Payout)",
        "numberOfBytes": "32",
        "value": "t_struct(Payout)3987_storage"
      },
      "t_string_storage": {
        "encoding": "bytes",
        "label": "string",
        "numberOfBytes": "32"
      },
      "t_struct(ClaimableAirdrop)3977_storage": {
        "encoding": "inplace",
        "label": "struct CoinGenie.ClaimableAirdrop",
        "members": [
          {
            "astId": 3964,
            "contract": "src/CoinGenie.sol:CoinGenie",
            "label": "airdropAddress",
            "offset": 0,
            "slot": "0",
            "type": "t_address"
          },
          {
            "astId": 3966,
            "contract": "src/CoinGenie.sol:CoinGenie",
            "label": "tokenOwner",
            "offset": 0,
            "slot": "1",
            "type": "t_address"
          },
          {
            "astId": 3968,
            "contract": "src/CoinGenie.sol:CoinGenie",
            "label": "airdropTokenAddress",
            "offset": 0,
            "slot": "2",
            "type": "t_address"
          },
          {
            "astId": 3970,
            "contract": "src/CoinGenie.sol:CoinGenie",
            "label": "airdropAmount",
            "offset": 0,
            "slot": "3",
            "type": "t_uint256"
          },
          {
            "astId": 3972,
            "contract": "src/CoinGenie.sol:CoinGenie",
            "label": "expirationTimestamp",
            "offset": 0,
            "slot": "4",
            "type": "t_uint256"
          },
          {
            "astId": 3974,
            "contract": "src/CoinGenie.sol:CoinGenie",
            "label": "maxWalletClaimCount",
            "offset": 0,
            "slot": "5",
            "type": "t_uint256"
          },
          {
            "astId": 3976,
            "contract": "src/CoinGenie.sol:CoinGenie",
            "label": "merkleRoot",
            "offset": 0,
            "slot": "6",
            "type": "t_bytes32"
          }
        ],
        "numberOfBytes": "224"
      },
      "t_struct(LaunchedToken)3962_storage": {
        "encoding": "inplace",
        "label": "struct CoinGenie.LaunchedToken",
        "members": [
          {
            "astId": 3937,
            "contract": "src/CoinGenie.sol:CoinGenie",
            "label": "tokenAddress",
            "offset": 0,
            "slot": "0",
            "type": "t_address"
          },
          {
            "astId": 3939,
            "contract": "src/CoinGenie.sol:CoinGenie",
            "label": "name",
            "offset": 0,
            "slot": "1",
            "type": "t_string_storage"
          },
          {
            "astId": 3941,
            "contract": "src/CoinGenie.sol:CoinGenie",
            "label": "symbol",
            "offset": 0,
            "slot": "2",
            "type": "t_string_storage"
          },
          {
            "astId": 3943,
            "contract": "src/CoinGenie.sol:CoinGenie",
            "label": "initialSupply",
            "offset": 0,
            "slot": "3",
            "type": "t_uint256"
          },
          {
            "astId": 3945,
            "contract": "src/CoinGenie.sol:CoinGenie",
            "label": "isBurnable",
            "offset": 0,
            "slot": "4",
            "type": "t_bool"
          },
          {
            "astId": 3947,
            "contract": "src/CoinGenie.sol:CoinGenie",
            "label": "isDeflationary",
            "offset": 1,
            "slot": "4",
            "type": "t_bool"
          },
          {
            "astId": 3949,
            "contract": "src/CoinGenie.sol:CoinGenie",
            "label": "maxPerWallet",
            "offset": 0,
            "slot": "5",
            "type": "t_uint256"
          },
          {
            "astId": 3951,
            "contract": "src/CoinGenie.sol:CoinGenie",
            "label": "autoWithdrawThreshold",
            "offset": 0,
            "slot": "6",
            "type": "t_uint256"
          },
          {
            "astId": 3953,
            "contract": "src/CoinGenie.sol:CoinGenie",
            "label": "maxTaxSwap",
            "offset": 0,
            "slot": "7",
            "type": "t_uint256"
          },
          {
            "astId": 3955,
            "contract": "src/CoinGenie.sol:CoinGenie",
            "label": "affiliateFeeRecipient",
            "offset": 0,
            "slot": "8",
            "type": "t_address"
          },
          {
            "astId": 3957,
            "contract": "src/CoinGenie.sol:CoinGenie",
            "label": "feeRecipient",
            "offset": 0,
            "slot": "9",
            "type": "t_address"
          },
          {
            "astId": 3959,
            "contract": "src/CoinGenie.sol:CoinGenie",
            "label": "feePercentage",
            "offset": 0,
            "slot": "10",
            "type": "t_uint256"
          },
          {
            "astId": 3961,
            "contract": "src/CoinGenie.sol:CoinGenie",
            "label": "burnPercentage",
            "offset": 0,
            "slot": "11",
            "type": "t_uint256"
          }
        ],
        "numberOfBytes": "384"
      },
      "t_struct(Payout)3987_storage": {
        "encoding": "inplace",
        "label": "struct CoinGenie.Payout",
        "members": [
          {
            "astId": 3984,
            "contract": "src/CoinGenie.sol:CoinGenie",
            "label": "receiver",
            "offset": 0,
            "slot": "0",
            "type": "t_address_payable"
          },
          {
            "astId": 3986,
            "contract": "src/CoinGenie.sol:CoinGenie",
            "label": "share",
            "offset": 0,
            "slot": "1",
            "type": "t_uint256"
          }
        ],
        "numberOfBytes": "64"
      },
      "t_uint256": {
        "encoding": "inplace",
        "label": "uint256",
        "numberOfBytes": "32"
      }
    }
  }
}