{
  "_format": "hh-sol-artifact-1",
  "contractName": "CoinGenieERC20",
  "sourceName": "src/CoinGenieERC20.sol",
  "abi": [
    {
      "inputs": [
        {
          "internalType": "string",
          "name": "name_",
          "type": "string"
        },
        {
          "internalType": "string",
          "name": "symbol_",
          "type": "string"
        },
        {
          "internalType": "uint256",
          "name": "initialSupplyToSet",
          "type": "uint256"
        },
        {
          "internalType": "address",
          "name": "tokenOwner",
          "type": "address"
        },
        {
          "components": [
            {
              "internalType": "bool",
              "name": "isBurnable",
              "type": "bool"
            },
            {
              "internalType": "bool",
              "name": "isPausable",
              "type": "bool"
            },
            {
              "internalType": "bool",
              "name": "isDeflationary",
              "type": "bool"
            }
          ],
          "internalType": "struct Common.TokenConfigProperties",
          "name": "customConfigProps",
          "type": "tuple"
        },
        {
          "internalType": "uint256",
          "name": "maxPerWallet",
          "type": "uint256"
        },
        {
          "internalType": "uint256",
          "name": "maxToSwapForTax",
          "type": "uint256"
        },
        {
          "internalType": "uint256",
          "name": "_autoWithdrawThreshold",
          "type": "uint256"
        },
        {
          "internalType": "address",
          "name": "_affilateFeeRecipient",
          "type": "address"
        },
        {
          "internalType": "address",
          "name": "_feeRecipient",
          "type": "address"
        },
        {
          "internalType": "uint256",
          "name": "_feePercentage",
          "type": "uint256"
        },
        {
          "internalType": "uint256",
          "name": "_burnPercentage",
          "type": "uint256"
        }
      ],
      "stateMutability": "nonpayable",
      "type": "constructor"
    },
    {
      "inputs": [],
      "name": "BurningNotEnabled",
      "type": "error"
    },
    {
      "inputs": [
        {
          "internalType": "address",
          "name": "addr",
          "type": "address"
        }
      ],
      "name": "DestBalanceExceedsMaxAllowed",
      "type": "error"
    },
    {
      "inputs": [],
      "name": "GenieAlreadySet",
      "type": "error"
    },
    {
      "inputs": [
        {
          "internalType": "uint256",
          "name": "amount",
          "type": "uint256"
        },
        {
          "internalType": "uint256",
          "name": "minAmount",
          "type": "uint256"
        }
      ],
      "name": "InsufficientETH",
      "type": "error"
    },
    {
      "inputs": [
        {
          "internalType": "uint256",
          "name": "amount",
          "type": "uint256"
        },
        {
          "internalType": "uint256",
          "name": "minAmount",
          "type": "uint256"
        }
      ],
      "name": "InsufficientTokens",
      "type": "error"
    },
    {
      "inputs": [
        {
          "internalType": "uint256",
          "name": "bps",
          "type": "uint256"
        }
      ],
      "name": "InvalidDeflationBPS",
      "type": "error"
    },
    {
      "inputs": [
        {
          "internalType": "uint256",
          "name": "maxPerWallet",
          "type": "uint256"
        }
      ],
      "name": "InvalidMaxTokenAmount",
      "type": "error"
    },
    {
      "inputs": [
        {
          "internalType": "uint256",
          "name": "bps",
          "type": "uint256"
        }
      ],
      "name": "InvalidTaxBPS",
      "type": "error"
    },
    {
      "inputs": [],
      "name": "MaxTokenAmountPerAddrLtPrevious",
      "type": "error"
    },
    {
      "inputs": [],
      "name": "PausingNotEnabled",
      "type": "error"
    },
    {
      "inputs": [],
      "name": "TokenIsNotDeflationary",
      "type": "error"
    },
    {
      "inputs": [],
      "name": "TradingAlreadyOpen",
      "type": "error"
    },
    {
      "anonymous": false,
      "inputs": [
        {
          "indexed": true,
          "internalType": "address",
          "name": "owner",
          "type": "address"
        },
        {
          "indexed": true,
          "internalType": "address",
          "name": "spender",
          "type": "address"
        },
        {
          "indexed": false,
          "internalType": "uint256",
          "name": "value",
          "type": "uint256"
        }
      ],
      "name": "Approval",
      "type": "event"
    },
    {
      "anonymous": false,
      "inputs": [
        {
          "indexed": true,
          "internalType": "uint256",
          "name": "threshold",
          "type": "uint256"
        }
      ],
      "name": "AutoWithdrawThresholdUpdated",
      "type": "event"
    },
    {
      "anonymous": false,
      "inputs": [
        {
          "indexed": true,
          "internalType": "uint256",
          "name": "_burnPercentage",
          "type": "uint256"
        }
      ],
      "name": "BurnConfigUpdated",
      "type": "event"
    },
    {
      "anonymous": false,
      "inputs": [
        {
          "indexed": true,
          "internalType": "address",
          "name": "_feeRecipient",
          "type": "address"
        },
        {
          "indexed": true,
          "internalType": "uint256",
          "name": "_feePercentage",
          "type": "uint256"
        }
      ],
      "name": "FeeConfigUpdated",
      "type": "event"
    },
    {
      "anonymous": false,
      "inputs": [
        {
          "indexed": true,
          "internalType": "uint256",
          "name": "maxTaxSwap",
          "type": "uint256"
        }
      ],
      "name": "MaxTaxSwapUpdated",
      "type": "event"
    },
    {
      "anonymous": false,
      "inputs": [
        {
          "indexed": true,
          "internalType": "uint256",
          "name": "newMaxTokenAmount",
          "type": "uint256"
        }
      ],
      "name": "MaxTokensPerWalletSet",
      "type": "event"
    },
    {
      "anonymous": false,
      "inputs": [
        {
          "indexed": true,
          "internalType": "address",
          "name": "previousOwner",
          "type": "address"
        },
        {
          "indexed": true,
          "internalType": "address",
          "name": "newOwner",
          "type": "address"
        }
      ],
      "name": "OwnershipTransferred",
      "type": "event"
    },
    {
      "anonymous": false,
      "inputs": [
        {
          "indexed": false,
          "internalType": "address",
          "name": "account",
          "type": "address"
        }
      ],
      "name": "Paused",
      "type": "event"
    },
    {
      "anonymous": false,
      "inputs": [
        {
          "indexed": true,
          "internalType": "address",
          "name": "pair",
          "type": "address"
        }
      ],
      "name": "TradingOpened",
      "type": "event"
    },
    {
      "anonymous": false,
      "inputs": [
        {
          "indexed": true,
          "internalType": "address",
          "name": "from",
          "type": "address"
        },
        {
          "indexed": true,
          "internalType": "address",
          "name": "to",
          "type": "address"
        },
        {
          "indexed": false,
          "internalType": "uint256",
          "name": "value",
          "type": "uint256"
        }
      ],
      "name": "Transfer",
      "type": "event"
    },
    {
      "anonymous": false,
      "inputs": [
        {
          "indexed": false,
          "internalType": "address",
          "name": "account",
          "type": "address"
        }
      ],
      "name": "Unpaused",
      "type": "event"
    },
    {
      "inputs": [],
      "name": "UNISWAP_V2_ROUTER",
      "outputs": [
        {
          "internalType": "contract IUniswapV2Router02",
          "name": "",
          "type": "address"
        }
      ],
      "stateMutability": "view",
      "type": "function"
    },
    {
      "inputs": [],
      "name": "affiliateFeeRecipient",
      "outputs": [
        {
          "internalType": "address",
          "name": "",
          "type": "address"
        }
      ],
      "stateMutability": "view",
      "type": "function"
    },
    {
      "inputs": [
        {
          "internalType": "address",
          "name": "owner",
          "type": "address"
        },
        {
          "internalType": "address",
          "name": "spender",
          "type": "address"
        }
      ],
      "name": "allowance",
      "outputs": [
        {
          "internalType": "uint256",
          "name": "",
          "type": "uint256"
        }
      ],
      "stateMutability": "view",
      "type": "function"
    },
    {
      "inputs": [
        {
          "internalType": "address",
          "name": "spender",
          "type": "address"
        },
        {
          "internalType": "uint256",
          "name": "amount",
          "type": "uint256"
        }
      ],
      "name": "approve",
      "outputs": [
        {
          "internalType": "bool",
          "name": "",
          "type": "bool"
        }
      ],
      "stateMutability": "nonpayable",
      "type": "function"
    },
    {
      "inputs": [],
      "name": "autoWithdrawThreshold",
      "outputs": [
        {
          "internalType": "uint256",
          "name": "",
          "type": "uint256"
        }
      ],
      "stateMutability": "view",
      "type": "function"
    },
    {
      "inputs": [
        {
          "internalType": "address",
          "name": "account",
          "type": "address"
        }
      ],
      "name": "balanceOf",
      "outputs": [
        {
          "internalType": "uint256",
          "name": "",
          "type": "uint256"
        }
      ],
      "stateMutability": "view",
      "type": "function"
    },
    {
      "inputs": [
        {
          "internalType": "uint256",
          "name": "amount",
          "type": "uint256"
        }
      ],
      "name": "burn",
      "outputs": [],
      "stateMutability": "nonpayable",
      "type": "function"
    },
    {
      "inputs": [
        {
          "internalType": "address",
          "name": "from",
          "type": "address"
        },
        {
          "internalType": "uint256",
          "name": "amount",
          "type": "uint256"
        }
      ],
      "name": "burnFrom",
      "outputs": [],
      "stateMutability": "nonpayable",
      "type": "function"
    },
    {
      "inputs": [],
      "name": "burnPercentage",
      "outputs": [
        {
          "internalType": "uint256",
          "name": "",
          "type": "uint256"
        }
      ],
      "stateMutability": "view",
      "type": "function"
    },
    {
      "inputs": [],
      "name": "decimals",
      "outputs": [
        {
          "internalType": "uint8",
          "name": "",
          "type": "uint8"
        }
      ],
      "stateMutability": "view",
      "type": "function"
    },
    {
      "inputs": [
        {
          "internalType": "address",
          "name": "spender",
          "type": "address"
        },
        {
          "internalType": "uint256",
          "name": "subtractedValue",
          "type": "uint256"
        }
      ],
      "name": "decreaseAllowance",
      "outputs": [
        {
          "internalType": "bool",
          "name": "",
          "type": "bool"
        }
      ],
      "stateMutability": "nonpayable",
      "type": "function"
    },
    {
      "inputs": [],
      "name": "discountFeeRequiredAmount",
      "outputs": [
        {
          "internalType": "uint256",
          "name": "",
          "type": "uint256"
        }
      ],
      "stateMutability": "view",
      "type": "function"
    },
    {
      "inputs": [],
      "name": "feePercentage",
      "outputs": [
        {
          "internalType": "uint256",
          "name": "",
          "type": "uint256"
        }
      ],
      "stateMutability": "view",
      "type": "function"
    },
    {
      "inputs": [],
      "name": "feeRecipient",
      "outputs": [
        {
          "internalType": "address",
          "name": "",
          "type": "address"
        }
      ],
      "stateMutability": "view",
      "type": "function"
    },
    {
      "inputs": [],
      "name": "genieToken",
      "outputs": [
        {
          "internalType": "address",
          "name": "",
          "type": "address"
        }
      ],
      "stateMutability": "view",
      "type": "function"
    },
    {
      "inputs": [
        {
          "internalType": "address",
          "name": "spender",
          "type": "address"
        },
        {
          "internalType": "uint256",
          "name": "addedValue",
          "type": "uint256"
        }
      ],
      "name": "increaseAllowance",
      "outputs": [
        {
          "internalType": "bool",
          "name": "",
          "type": "bool"
        }
      ],
      "stateMutability": "nonpayable",
      "type": "function"
    },
    {
      "inputs": [],
      "name": "initialSupply",
      "outputs": [
        {
          "internalType": "uint256",
          "name": "",
          "type": "uint256"
        }
      ],
      "stateMutability": "view",
      "type": "function"
    },
    {
      "inputs": [],
      "name": "isBurnable",
      "outputs": [
        {
          "internalType": "bool",
          "name": "",
          "type": "bool"
        }
      ],
      "stateMutability": "view",
      "type": "function"
    },
    {
      "inputs": [],
      "name": "isDeflationary",
      "outputs": [
        {
          "internalType": "bool",
          "name": "",
          "type": "bool"
        }
      ],
      "stateMutability": "view",
      "type": "function"
    },
    {
      "inputs": [],
      "name": "isPausable",
      "outputs": [
        {
          "internalType": "bool",
          "name": "",
          "type": "bool"
        }
      ],
      "stateMutability": "view",
      "type": "function"
    },
    {
      "inputs": [],
      "name": "isSwapEnabled",
      "outputs": [
        {
          "internalType": "bool",
          "name": "",
          "type": "bool"
        }
      ],
      "stateMutability": "view",
      "type": "function"
    },
    {
      "inputs": [
        {
          "internalType": "address",
          "name": "feePayer",
          "type": "address"
        }
      ],
      "name": "isWhitelisted",
      "outputs": [
        {
          "internalType": "bool",
          "name": "",
          "type": "bool"
        }
      ],
      "stateMutability": "view",
      "type": "function"
    },
    {
      "inputs": [],
      "name": "manualSwap",
      "outputs": [],
      "stateMutability": "nonpayable",
      "type": "function"
    },
    {
      "inputs": [],
      "name": "maxTaxSwap",
      "outputs": [
        {
          "internalType": "uint256",
          "name": "",
          "type": "uint256"
        }
      ],
      "stateMutability": "view",
      "type": "function"
    },
    {
      "inputs": [],
      "name": "maxTokenAmountPerAddress",
      "outputs": [
        {
          "internalType": "uint256",
          "name": "",
          "type": "uint256"
        }
      ],
      "stateMutability": "view",
      "type": "function"
    },
    {
      "inputs": [],
      "name": "name",
      "outputs": [
        {
          "internalType": "string",
          "name": "",
          "type": "string"
        }
      ],
      "stateMutability": "view",
      "type": "function"
    },
    {
      "inputs": [
        {
          "internalType": "uint256",
          "name": "amountToLP",
          "type": "uint256"
        }
      ],
      "name": "openTrading",
      "outputs": [
        {
          "internalType": "contract IUniswapV2Pair",
          "name": "",
          "type": "address"
        }
      ],
      "stateMutability": "payable",
      "type": "function"
    },
    {
      "inputs": [],
      "name": "owner",
      "outputs": [
        {
          "internalType": "address",
          "name": "",
          "type": "address"
        }
      ],
      "stateMutability": "view",
      "type": "function"
    },
    {
      "inputs": [],
      "name": "pause",
      "outputs": [],
      "stateMutability": "nonpayable",
      "type": "function"
    },
    {
      "inputs": [],
      "name": "paused",
      "outputs": [
        {
          "internalType": "bool",
          "name": "",
          "type": "bool"
        }
      ],
      "stateMutability": "view",
      "type": "function"
    },
    {
      "inputs": [],
      "name": "renounceOwnership",
      "outputs": [],
      "stateMutability": "nonpayable",
      "type": "function"
    },
    {
      "inputs": [
        {
          "internalType": "uint256",
          "name": "threshold",
          "type": "uint256"
        }
      ],
      "name": "setAutoWithdrawThreshold",
      "outputs": [],
      "stateMutability": "nonpayable",
      "type": "function"
    },
    {
      "inputs": [
        {
          "internalType": "address",
          "name": "coinGenieAddress",
          "type": "address"
        }
      ],
      "name": "setCoinGenieTreasury",
      "outputs": [],
      "stateMutability": "nonpayable",
      "type": "function"
    },
    {
      "inputs": [
        {
          "internalType": "uint256",
          "name": "_burnPercentage",
          "type": "uint256"
        }
      ],
      "name": "setDeflationConfig",
      "outputs": [],
      "stateMutability": "nonpayable",
      "type": "function"
    },
    {
      "inputs": [
        {
          "internalType": "address",
          "name": "genie",
          "type": "address"
        }
      ],
      "name": "setGenie",
      "outputs": [],
      "stateMutability": "nonpayable",
      "type": "function"
    },
    {
      "inputs": [
        {
          "internalType": "uint256",
          "name": "maxTax",
          "type": "uint256"
        }
      ],
      "name": "setMaxTaxSwap",
      "outputs": [],
      "stateMutability": "nonpayable",
      "type": "function"
    },
    {
      "inputs": [
        {
          "internalType": "uint256",
          "name": "newMaxTokenAmount",
          "type": "uint256"
        }
      ],
      "name": "setMaxTokenAmountPerAddress",
      "outputs": [],
      "stateMutability": "nonpayable",
      "type": "function"
    },
    {
      "inputs": [
        {
          "internalType": "address",
          "name": "_feeRecipient",
          "type": "address"
        },
        {
          "internalType": "uint256",
          "name": "_feePercentage",
          "type": "uint256"
        }
      ],
      "name": "setTaxConfig",
      "outputs": [],
      "stateMutability": "nonpayable",
      "type": "function"
    },
    {
      "inputs": [],
      "name": "symbol",
      "outputs": [
        {
          "internalType": "string",
          "name": "",
          "type": "string"
        }
      ],
      "stateMutability": "view",
      "type": "function"
    },
    {
      "inputs": [],
      "name": "tokenConfig",
      "outputs": [
        {
          "internalType": "bool",
          "name": "isBurnable",
          "type": "bool"
        },
        {
          "internalType": "bool",
          "name": "isPausable",
          "type": "bool"
        },
        {
          "internalType": "bool",
          "name": "isDeflationary",
          "type": "bool"
        }
      ],
      "stateMutability": "view",
      "type": "function"
    },
    {
      "inputs": [],
      "name": "totalSupply",
      "outputs": [
        {
          "internalType": "uint256",
          "name": "",
          "type": "uint256"
        }
      ],
      "stateMutability": "view",
      "type": "function"
    },
    {
      "inputs": [
        {
          "internalType": "address",
          "name": "to",
          "type": "address"
        },
        {
          "internalType": "uint256",
          "name": "amount",
          "type": "uint256"
        }
      ],
      "name": "transfer",
      "outputs": [
        {
          "internalType": "bool",
          "name": "",
          "type": "bool"
        }
      ],
      "stateMutability": "nonpayable",
      "type": "function"
    },
    {
      "inputs": [
        {
          "internalType": "address",
          "name": "from",
          "type": "address"
        },
        {
          "internalType": "address",
          "name": "to",
          "type": "address"
        },
        {
          "internalType": "uint256",
          "name": "amount",
          "type": "uint256"
        }
      ],
      "name": "transferFrom",
      "outputs": [
        {
          "internalType": "bool",
          "name": "",
          "type": "bool"
        }
      ],
      "stateMutability": "nonpayable",
      "type": "function"
    },
    {
      "inputs": [
        {
          "internalType": "address",
          "name": "newOwner",
          "type": "address"
        }
      ],
      "name": "transferOwnership",
      "outputs": [],
      "stateMutability": "nonpayable",
      "type": "function"
    },
    {
      "inputs": [],
      "name": "treasuryRecipient",
      "outputs": [
        {
          "internalType": "address",
          "name": "",
          "type": "address"
        }
      ],
      "stateMutability": "view",
      "type": "function"
    },
    {
      "inputs": [],
      "name": "uniswapV2Pair",
      "outputs": [
        {
          "internalType": "address",
          "name": "",
          "type": "address"
        }
      ],
      "stateMutability": "view",
      "type": "function"
    },
    {
      "inputs": [],
      "name": "unpause",
      "outputs": [],
      "stateMutability": "nonpayable",
      "type": "function"
    },
    {
      "stateMutability": "payable",
      "type": "receive"
    }
  ],
  "bytecode": "0x60e06040523462000062576200002e62000018620002fe565b9a99909998919897929796939695949562000504565b604051612b6162000c9c82396080518161056e015260a05181610619015260c051818181610a2701526125d00152612b6190f35b600080fd5b634e487b7160e01b600052604160045260246000fd5b90601f01601f191681019081106001600160401b038211176200009f57604052565b62000067565b90620000bc620000b460405190565b92836200007d565b565b6001600160401b0381116200009f57602090601f01601f19160190565b60005b838110620000ef5750506000910152565b8181015183820152602001620000de565b90929192620001196200011382620000be565b620000a5565b938185526020850190828401116200006257620000bc92620000db565b9080601f8301121562000062578151620001539260200162000100565b90565b805b036200006257565b90505190620000bc8262000156565b6001600160a01b031690565b6001600160a01b03811662000158565b90505190620000bc826200017b565b80151562000158565b90505190620000bc826200019a565b919091606081840312620000625762000202620001d06060620000a5565b936000620001df8285620001a3565b908601526020620001f382828601620001a3565b908601526040809301620001a3565b90830152565b90916101c082840312620000625781516001600160401b0381116200006257836200023591840162000136565b60208301519093906001600160401b0381116200006257816200025a91850162000136565b926200026a826040830162000160565b926200027a83606084016200018b565b926200028a8160808501620001b2565b926200029a8260e0830162000160565b92620002ab83610100840162000160565b92620002bc81610120850162000160565b92620002cd8261014083016200018b565b9262000153620002e28461016085016200018b565b93620002f381610180860162000160565b936101a00162000160565b62000321620037fd803803806200031581620000a5565b92833981019062000208565b909192939495969798999a9b565b90600019905b9181191691161790565b6200015362000153620001539290565b9062000363620001536200036b926200033f565b82546200032f565b9055565b6200037f62000153620001539290565b60ff1690565b620001536107d06200033f565b9060ff9062000335565b90620003af620001536200036b92151590565b825462000392565b9061ff009060081b62000335565b90620003d8620001536200036b92151590565b8254620003b7565b9062ff00009060101b62000335565b9062000402620001536200036b92151590565b8254620003e0565b620000bc916200044d906040906200042d620004268251151590565b856200039c565b620004466200043f6020830151151590565b85620003c5565b0151151590565b90620003ef565b90620000bc916200040a565b906001600160a01b039062000335565b62000153906200016f906001600160a01b031682565b620001539062000470565b620001539062000486565b90620004b0620001536200036b9262000491565b825462000460565b90620004c49062000491565b600052602052604060002090565b62000153906200016f565b620001539054620004d2565b6200016f62000153620001539290565b6200015390620004e9565b9062000518919b939b9a9998929a6200075a565b6200052f69d3c21bcecceda100000060096200034f565b6200053a8a62000c82565b8860a0526012906200054c826200036f565b60805260c0526200055c62000385565b80891162000725576040840151620006b6575b50505092620005a8620005cb969593620005a0620005b09462000598620005c398600e62000454565b600b6200034f565b600c6200034f565b600d6200034f565b620005bb8162000c82565b600f6200049c565b60116200034f565b600090620005d9826200033f565b8103620006a3575b5060019062000619826200060c60089562000612836200060c620006053062000491565b8a620004b8565b6200039c565b86620004b8565b6200062e826200060c62000612600f620004dd565b62000643826200060c620006126010620004dd565b62000676620006696200016f6200066260c0516001600160a01b031690565b93620004f9565b916001600160a01b031690565b0362000680575050565b6200060c620000bc926200069c60c0516001600160a01b031690565b90620004b8565b620006af908362000af8565b38620005e1565b8211620006f85793620005a0620005b09462000598620005c39895620006e7620005a896620005cb9d9c9a6200034f565b95985050945081959798506200056f565b62000721826200070760405190565b6305dba32960e51b81529182916004830190815260200190565b0390fd5b62000721896200073460405190565b6365a0074b60e11b81529182916004830190815260200190565b6200015360016200033f565b9062000766916200077c565b620000bc620007746200074e565b60066200034f565b90620007889162000793565b620000bc3362000a09565b620000bc91620007a391620007b1565b620000bc600060056200039c565b90620000bc91620009a5565b634e487b7160e01b600052602260045260246000fd5b9060016002830492168015620007f6575b6020831014620007f057565b620007bd565b91607f1691620007e4565b9160001960089290920291821b911b62000335565b91906200082b620001536200036b936200033f565b90835462000801565b620000bc9160009162000816565b8181106200084e575050565b806200085e600060019362000834565b0162000842565b9190601f81116200087557505050565b62000889620000bc93600052602060002090565b906020601f840181900483019310620008ad575b6020601f90910104019062000842565b90915081906200089d565b90620008c2815190565b906001600160401b0382116200009f57620008ea82620008e38554620007d3565b8562000865565b602090601f831160011462000929576200036b9291600091836200091d575b5050600019600883021c1916906002021790565b01519050388062000909565b601f198316916200093f85600052602060002090565b9260005b818110620009805750916002939185600196941062000966575b50505002019055565b01516000196008601f8516021c191690553880806200095d565b9193602060018192878701518155019501920162000943565b90620000bc91620008b8565b90620009b7620000bc92600362000999565b600462000999565b620001539060081c6200016f565b620001539054620009bf565b90610100600160a81b039060081b62000335565b9062000a01620001536200036b9262000491565b8254620009d9565b62000a156005620009cd565b9062000a23816005620009ed565b62000a5a62000a537f8be0079c531659141344cd1fd0a4f28419497f9722a3daafe3b4186f6b6457e09362000491565b9162000491565b9162000a6560405190565b80805b0390a3565b1562000a7557565b60405162461bcd60e51b815260206004820152601f60248201527f45524332303a206d696e7420746f20746865207a65726f2061646472657373006044820152606490fd5b620001539081565b62000153905462000aba565b634e487b7160e01b600052601160045260246000fd5b9190820180921162000af257565b62000ace565b600062000b8062000b658362000b0e84620004f9565b9362000b2f6001600160a01b0386166001600160a01b038416141562000a6d565b62000b3c87838762000bd3565b62000b5f62000b578862000b51600262000ac2565b62000ae4565b60026200034f565b620004b8565b62000b798562000b758362000ac2565b0190565b906200034f565b62000a6862000bbb62000bb47fddf252ad1be2c89b69c2b068fc378daa952ba7f163c4a11628f55a4df523b3ef9362000491565b9362000491565b9362000bc660405190565b9182918290815260200190565b90620000bc929162000c40565b1562000be857565b60405162461bcd60e51b815260206004820152602a60248201527f45524332305061757361626c653a20746f6b656e207472616e736665722077686044820152691a5b19481c185d5cd95960b21b6064820152608490fd5b505050620000bc62000c5962000c5562000c76565b1590565b62000be0565b62000153906200037f565b62000153905462000c5f565b62000153600562000c6a565b60601b1562000c8d57565b63d92e233d6000526004601cfdfe6080604052600436101561001b575b361561001957600080fd5b005b60003560e01c806302252c4d1461030b57806306fdde0314610306578063095ea7b31461030157806312d75f13146102fc57806318160ddd146102f757806323b872dd146102f2578063313ce567146102ed5780633381e7e2146102e8578063351a964d146102e3578063378dc3dc146102de57806339509351146102d95780633af32abf146102d45780633f4ba83a146102cf57806342966c68146102ca57806346904840146102c557806349bd5a5e146102c057806351bc3c85146102bb5780635c975abb146102b657806362997f8c146102b157806370a08231146102ac578063715018a6146102a757806379cc6790146102a25780638456cb591461029d57806384c5dd0114610298578063883356d9146102935780638da5cb5b1461028e5780638e8c10a21461028957806395d89b4114610284578063a001ecdd1461027f578063a09a16011461027a578063a457c2d714610275578063a82ed9ec14610270578063a9059cbb1461026b578063b9d0f1af14610266578063ba9341c014610261578063c68ff0fe1461025c578063d163364914610257578063d48e412714610252578063d8f678511461024d578063dcc79cc814610248578063dd62ed3e14610243578063eb4eebc71461023e578063ec57459c14610239578063f01f20df14610234578063f19c4e3b1461022f578063f2fde38b1461022a5763f69cf7830361000e57610b9d565b610b85565b610b6c565b610b51565b610b2a565b610b03565b610adb565b610aa0565b610a88565b610a6d565b610a4b565b610a12565b6109d6565b61095e565b610942565b61091b565b61089b565b610880565b610865565b61083e565b610823565b610808565b6107ed565b6107d2565b6107ae565b610795565b61077d565b610762565b610747565b61070a565b6106f2565b6106d7565b6106b0565b61068c565b610674565b610659565b61063d565b610604565b6105e9565b6105ab565b610559565b61053d565b6104e1565b6104ab565b610452565b6103dc565b610344565b805b0361031957565b600080fd5b9050359061032b82610310565b565b90602082820312610319576103419161031e565b90565b346103195761035c61035736600461032d565b61138d565b604051005b0390f35b600091031261031957565b60005b8381106103835750506000910152565b8181015183820152602001610373565b6103b46103bd6020936103c7936103a8815190565b80835293849260200190565b95869101610370565b601f01601f191690565b0190565b602080825261034192910190610393565b34610319576103ec366004610365565b6103616103f7610efb565b604051918291826103cb565b6001600160a01b031690565b6001600160a01b038116610312565b9050359061032b8261040f565b91906040838203126103195761034190610445818561041e565b9360200161031e565b9052565b346103195761036161046e61046836600461042b565b90610f7e565b60405191829182901515815260200190565b610341916008021c6001600160a01b031690565b906103419154610480565b6103416000600a610494565b34610319576104bb366004610365565b6103616104c661049f565b6040515b918291826001600160a01b03909116815260200190565b34610319576104f1366004610365565b6103616104fc610f20565b6040515b9182918290815260200190565b909160608284031261031957610341610526848461041e565b93610534816020860161041e565b9360400161031e565b346103195761036161046e61055336600461050d565b916118b2565b3461031957610569366004610365565b6040517f000000000000000000000000000000000000000000000000000000000000000060ff168152602090f35b90602082820312610319576103419161041e565b346103195761035c6105be366004610597565b61123a565b610341916008021c5b60ff1690565b9061034191546105c3565b610341601460136105d2565b34610319576105f9366004610365565b61036161046e6105dd565b3461031957610614366004610365565b6103617f00000000000000000000000000000000000000000000000000000000000000006104fc565b346103195761036161046e61065336600461042b565b90610fb6565b346103195761036161046e61066f366004610597565b6111db565b3461031957610684366004610365565b61035c611bd1565b346103195761035c61069f36600461032d565b611997565b6103416000600f610494565b34610319576106c0366004610365565b6103616104c66106a4565b61034160006013610494565b34610319576106e7366004610365565b6103616104c66106cb565b3461031957610702366004610365565b61035c6124d0565b346103195761071a366004610365565b61036161046e610dbc565b610341916008021c81565b906103419154610725565b6103416000600c610730565b3461031957610757366004610365565b6103616104fc61073b565b34610319576103616104fc610778366004610597565b610f42565b346103195761078d366004610365565b61035c610c0d565b346103195761035c6107a836600461042b565b90611b07565b34610319576107be366004610365565b61035c611b54565b6103416000600d610730565b34610319576107e2366004610365565b6103616104fc6107c6565b34610319576107fd366004610365565b61036161046e6111d1565b3461031957610818366004610365565b6103616104c6610bcb565b3461031957610833366004610365565b61036161046e6111f7565b346103195761084e366004610365565b6103616103f7610f05565b61034160006011610730565b3461031957610875366004610365565b6103616104fc610859565b3461031957610890366004610365565b61036161046e6111c7565b346103195761036161046e6108b136600461042b565b9061102f565b61034190610403906001600160a01b031682565b610341906108b7565b610341906108cb565b610341737a250d5630b4cf539739df2c5dacb4c659f2488d6108d4565b6103416108dd565b61044e906108d4565b60208101929161032b9190610902565b346103195761092b366004610365565b6103616109366108fa565b6040519182918261090b565b346103195761036161046e61095836600461042b565b9061164b565b346103195761035c61097136600461032d565b6112c7565b610341906105cc565b6103419054610976565b6103419060081c6105cc565b6103419054610989565b6103419060101c6105cc565b610341905461099f565b600e6109c08161097f565b9161034160006109cf84610995565b93016109ab565b34610319576109e6366004610365565b6103616109f16109b5565b60408051931515845291151560208401521515908201529081906060820190565b3461031957610a22366004610365565b6103617f00000000000000000000000000000000000000000000000000000000000000006104c6565b610361610936610a5c36600461032d565b6122ec565b6103416000600b610730565b3461031957610a7d366004610365565b6103616104fc610a61565b346103195761035c610a9b36600461032d565b6115a9565b346103195761035c610ab3366004610597565b612423565b91906040838203126103195761034190610ad2818561041e565b9360200161041e565b34610319576103616104fc610af1366004610ab8565b90610f5e565b61034160006010610494565b3461031957610b13366004610365565b6103616104c6610af7565b61034160006009610730565b3461031957610b3a366004610365565b6103616104fc610b1e565b61034160006012610730565b3461031957610b61366004610365565b6103616104fc610b45565b346103195761035c610b7f36600461042b565b906114f9565b346103195761035c610b98366004610597565b610d24565b346103195761035c610bb036600461032d565b611311565b6103419060081c610403565b6103419054610bb5565b6103416005610bc1565b610bdd610c69565b61032b610bfb565b6104036103416103419290565b61034190610be5565b61032b610c086000610bf2565b610d61565b61032b610bd5565b15610c1c57565b60405162461bcd60e51b815280610c65600482016020808252818101527f4f776e61626c653a2063616c6c6572206973206e6f7420746865206f776e6572604082015260600190565b0390fd5b61032b610c74610bcb565b610c8d610c8033610403565b916001600160a01b031690565b14610c15565b61032b90610c9f610c69565b610cff565b15610cab57565b60405162461bcd60e51b815260206004820152602660248201527f4f776e61626c653a206e6577206f776e657220697320746865207a65726f206160448201526564647265737360d01b6064820152608490fd5b61032b90610c08610d136104036000610bf2565b6001600160a01b0383161415610ca4565b61032b90610c93565b90610100600160a81b039060081b5b9181191691161790565b90610d56610341610d5d926108d4565b8254610d2d565b9055565b610d6b6005610bc1565b90610d77816005610d46565b610daa610da47f8be0079c531659141344cd1fd0a4f28419497f9722a3daafe3b4186f6b6457e0936108d4565b916108d4565b91610db460405190565b80805b0390a3565b610341600561097f565b634e487b7160e01b600052602260045260246000fd5b9060016002830492168015610dfc575b6020831014610df757565b610dc6565b91607f1691610dec565b80546000939291610e23610e1983610ddc565b8085529360200190565b9160018116908115610e755750600114610e3c57505050565b610e4f9192939450600052602060002090565b916000925b818410610e615750500190565b805484840152602090930192600101610e54565b92949550505060ff1916825215156020020190565b9061034191610e06565b634e487b7160e01b600052604160045260246000fd5b90601f01601f1916810190811067ffffffffffffffff821117610ecc57604052565b610e94565b9061032b610eeb92610ee260405190565b93848092610e8a565b0383610eaa565b61034190610ed1565b6103416003610ef2565b6103416004610ef2565b6103419081565b6103419054610f0f565b6103416002610f16565b90610f34906108d4565b600052602052604060002090565b610f5961034191610f51600090565b506000610f2a565b610f16565b61034191610f79610f5992610f71600090565b506001610f2a565b610f2a565b610f89919033611130565b600190565b634e487b7160e01b600052601160045260246000fd5b91908201809211610fb157565b610f8e565b610f899190610fcf3392610fca8385610f5e565b610fa4565b91611130565b15610fdc57565b60405162461bcd60e51b815260206004820152602560248201527f45524332303a2064656372656173656420616c6c6f77616e63652062656c6f77604482015264207a65726f60d81b6064820152608490fd5b610f899190610fcf33926110438385610f5e565b61104f82821015610fd5565b0390565b1561105a57565b60405162461bcd60e51b8152602060048201526024808201527f45524332303a20617070726f76652066726f6d20746865207a65726f206164646044820152637265737360e01b6064820152608490fd5b156110b257565b60405162461bcd60e51b815260206004820152602260248201527f45524332303a20617070726f766520746f20746865207a65726f206164647265604482015261737360f01b6064820152608490fd5b9060001990610d3c565b6103416103416103419290565b90611129610341610d5d9261110c565b8254611102565b61116f61115e6111406000610bf2565b6104036001600160a01b0382166001600160a01b0386161415611053565b6001600160a01b03841614156110ab565b6111878361118284610f79856001610f2a565b611119565b610db76111bd6111b77f8c5be1e5ebec7d5bd14f71427d1e84f3dd0314c0f7b2291e5b200ac8c7c3b925936108d4565b936108d4565b9361050060405190565b610341600e610995565b610341600e61097f565b6111f2610341916111ea600090565b506008610f2a565b61097f565b610341600e6109ab565b61034190610403565b6103419054611201565b906001600160a01b0390610d3c565b90611233610341610d5d926108d4565b8254611214565b611244601061120a565b611254610c806104036000610bf2565b036112645761032b906010611223565b60405163131d002d60e01b8152600490fd5b61032b90611282610c69565b61128d81600c611119565b6112b77f972ff6760a5e788c8d82e651e014c348f16aca0185ee44e7cc6e3579ae9e60469161110c565b906112c160405190565b600090a2565b61032b90611276565b61032b906112dc610c69565b6112e781600d611119565b6112b77fc14a0b6a18f5ad1749e06d253275f87f68074536255e53e6b0f4f66cc779cd139161110c565b61032b906112d0565b61032b90611326610c69565b61032b906113326113d5565b61133f610341600b610f16565b81111561137b5761135181600b611119565b6112b77faab136b9dbe20468ab36dcd11abd26b3dcea2b259f018136905bf827f37f55149161110c565b60405163521e96bb60e11b8152600490fd5b61032b9061131a565b1561139d57565b60405162461bcd60e51b815260206004820152601060248201526f14185d5cd8589b194e881c185d5cd95960821b6044820152606490fd5b61032b6113e76113e3610dbc565b1590565b611396565b9061032b916113f9610c69565b9061032b916114066113d5565b611436565b6103416107d061110c565b9060ff90610d3c565b9061142f610341610d5d92151590565b8254611416565b9061144261034161140b565b81116114d257611453816011611119565b61145c82612b13565b61149f600861147e6000611479611473600f61120a565b84610f2a565b61141f565b61148984600f611223565b611479600191611499600f61120a565b90610f2a565b610daa6114cc7fe42708d93b95810922305119a3271ca42233da9ebe1e1e503f0e887817a32c7a936108d4565b9161110c565b610c65906114df60405190565b6365a0074b60e11b81529182916004830190815260200190565b9061032b916113ec565b61032b9061150f610c69565b61032b9061151b6113d5565b6115266113e36111f7565b6115975761153561034161140b565b811161157057611546816012611119565b6112b77f8c3208fa4fab043d09d9517339346757a58804a46f954585ba214656778208179161110c565b610c659061157d60405190565b6305dba32960e51b81529182916004830190815260200190565b6040516319b3ca5360e31b8152600490fd5b61032b90611503565b9061034192916115c06113d5565b6115db565b6103419060a01c6105cc565b61034190546115c5565b50336008826115ed6111f28484610f2a565b918215611635575b505061160160136115d1565b908161162c575b5061161857509061034191611657565b610341928261162692612562565b90611657565b15905038611608565b6116449250906111f291610f2a565b82386115f5565b610341919060006115b2565b610f89919033611774565b611774565b1561166e57565b60405162461bcd60e51b815260206004820152602560248201527f45524332303a207472616e736665722066726f6d20746865207a65726f206164604482015264647265737360d81b6064820152608490fd5b156116c857565b60405162461bcd60e51b815260206004820152602360248201527f45524332303a207472616e7366657220746f20746865207a65726f206164647260448201526265737360e81b6064820152608490fd5b1561172057565b60405162461bcd60e51b815260206004820152602660248201527f45524332303a207472616e7366657220616d6f756e7420657863656564732062604482015265616c616e636560d01b6064820152608490fd5b6118036117f08360006117bb6117aa61178c83610bf2565b6104036001600160a01b0382166001600160a01b038a161415611667565b6001600160a01b03841614156116c1565b6117c68783876124d8565b610f796117e6886117da610f598986610f2a565b61104f82821015611719565b6111828784610f2a565b6117fd856103c783610f16565b90611119565b610db76111bd6111b77fddf252ad1be2c89b69c2b068fc378daa952ba7f163c4a11628f55a4df523b3ef936108d4565b906103419392916118426113d5565b5091906008816118556111f28684610f2a565b91821561189c575b505061186960136115d1565b9081611893575b5061187e57610341926118bf565b61188d83928261034195612562565b916118bf565b15905038611870565b6118ab9250906111f291610f2a565b813861185d565b6103419291906000611833565b610f8992919061166283335b8361191d565b156118d857565b60405162461bcd60e51b815260206004820152601d60248201527f45524332303a20696e73756666696369656e7420616c6c6f77616e63650000006044820152606490fd5b906119288183610f5e565b6000198103611938575b50505050565b61194c93610fcf9161104f828210156118d1565b38808080611932565b61032b90611961610c69565b61032b9061196d6113d5565b6119786113e36111d1565b6119855761032b906119a0565b604051636cb5913960e01b8152600490fd5b61032b90611955565b61032b9033611a5c565b611a5c565b156119b657565b60405162461bcd60e51b815260206004820152602160248201527f45524332303a206275726e2066726f6d20746865207a65726f206164647265736044820152607360f81b6064820152608490fd5b15611a0c57565b60405162461bcd60e51b815260206004820152602260248201527f45524332303a206275726e20616d6f756e7420657863656564732062616c616e604482015261636560f01b6064820152608490fd5b600090611abc611a6b83610bf2565b92611a8a6001600160a01b0385166001600160a01b03851614156119af565b611a958585856124d8565b61118283611ab687611aaa610f598487610f2a565b61104f82821015611a05565b92610f2a565b611803611acd8461104f6002610f16565b6002611119565b9061032b91611ae1610c69565b9061032b91611aee6113d5565b90611afa6113e36111d1565b6119855761032b91611b11565b9061032b91611ad4565b61032b91906119aa82336118cb565b611b28610c69565b61032b611b366113e36111c7565b611b425761032b611ba7565b60405163f00085b960e01b8152600490fd5b61032b611b20565b611b646113d5565b61032b611b736001600561141f565b33611ba27f62e78cea01bee320cd4e420270b5ea74000d11b0c9f74754ebdbfc544b05a258916104ca60405190565b0390a1565b61032b611b5c565b611bb7610c69565b61032b611bc56113e36111c7565b611b425761032b611c1f565b61032b611baf565b611be1611c6a565b61032b611bf06000600561141f565b33611ba27f5db9ee0a495bf2e6ff9c91a7834c1ba4fdd244a5e8aa4e537bd38aeae4b073aa916104ca60405190565b61032b611bd9565b15611c2e57565b60405162461bcd60e51b815260206004820152601460248201527314185d5cd8589b194e881b9bdd081c185d5cd95960621b6044820152606490fd5b61032b611c75610dbc565b611c27565b9061034191611c87610c69565b90611c9991611c9461234d565b611e41565b9061032b61237f565b610341670de0b6b3a764000061110c565b90815260408101929161032b9160200152565b0152565b6103416706f05b59d3b2000061110c565b9050519061032b82610310565b906020828203126103195761034191611cdb565b6040513d6000823e3d90fd5b610341603261110c565b61034161271061110c565b9050519061032b8261040f565b906020828203126103195761034191611d1d565b801515610312565b9050519061032b82611d3e565b906020828203126103195761034191611d46565b6001600160a01b03909116815260408101929161032b9160200152565b909160608284031261031957610341611d9d8484611cdb565b93611dab8160208601611cdb565b93604001611cdb565b61044e9061110c565b9194611e0b611cc692989795611e0160a096611df761032b9a611df060c08a019e60008b01906001600160a01b03169052565b6020890152565b6040870190611db4565b6060850190611db4565b6001600160a01b03166080830152565b9060ff60a01b9060a01b610d3c565b90611e3a610341610d5d92151590565b8254611e1b565b5034611e4d60136115d1565b6122da57611e59611ca2565b80831080156122c7575b6122a45750611e70611cca565b8082106122825750611ebf90611e8f611e88306108d4565b938461164b565b506020611ea7611ea2611ea2600a61120a565b6108d4565b6370a0823190611eb660405190565b94859260e01b90565b82526001600160a01b038616600483015260249082905afa91821561216157600092612252575b50611f09611efb611ef5611d08565b836123b4565b611f03611d12565b906123e3565b91611f1e611f1a6103416009610f16565b9190565b1161223b575b81611f2e91612397565b611f39611ea26108dd565b92611f4c611f45610f20565b8583611130565b63c45a0155611f64611f5d60405190565b9160e01b90565b8152602081600481885afa90811561216157611f8c91611ea29160009161221d575b506108d4565b9063c9c653969163ad5c464890611fac611fa560405190565b9260e01b90565b82526020826004818a5afa90811561216157612009946020936000936121f7575b506000611fea91611fdd60405190565b9788958694859360e01b90565b83526001600160a01b03808a1660048501521660248301526044820190565b03925af1918215612161576120619261202c916000916121c9575b506013611223565b602061203e611ea2611ea2601361120a565b63095ea7b3906120556000801993611fdd60405190565b83528c60048401611d67565b03925af19182156121615760609261219d575b5063f305d719946120b061208783610f42565b946000976120bb612096610bcb565b42908b806120a360405190565b9b8c9a8b998a9860e01b90565b885260048801611dbd565b03925af180156121615761216f575b506120d760016013611e2a565b6120e08261110c565b8111612138575b50506120f3601361120a565b61211d7f57a9f98b233034883786b9c47f1f6fabcf1655e39d3213b7287b926ca387136e916108d4565b9061212760405190565b600090a2610341611ea2601361120a565b8180809261214c611ea2611ea2601061120a565b828215612166575bf1156121615738806120e7565b611cfc565b506108fc612154565b61218f9060603d8111612196575b6121878183610eaa565b810190611d84565b50506120ca565b503d61217d565b6121bd9060203d81116121c2575b6121b58183610eaa565b810190611d53565b612074565b503d6121ab565b6121ea915060203d81116121f0575b6121e28183610eaa565b810190611d2a565b38612024565b503d6121d8565b611fea919350612215600091863d81116121f0576121e28183610eaa565b939150611fcd565b612235915060203d81116121f0576121e28183610eaa565b38611f86565b9050611f2e61224a600061110c565b919050611f24565b61227491925060203d811161227b575b61226c8183610eaa565b810190611ce8565b9038611ee6565b503d612262565b90610c6561228f60405190565b62fdf57560e51b815292839260048401611cb3565b82610c656122b160405190565b63c7bcc1b960e01b815292839260048401611cb3565b506122d3610778610bcb565b8311611e63565b60405163250856ab60e21b8152600490fd5b610341906000611c7a565b610341600261110c565b1561230857565b60405162461bcd60e51b815260206004820152601f60248201527f5265656e7472616e637947756172643a207265656e7472616e742063616c6c006044820152606490fd5b61032b61235a6006610f16565b61236e6123656122f7565b91821415612301565b6006611119565b610341600161110c565b61032b61236e612375565b91908203918211610fb157565b610341919061238a565b81810292918115918404141715610fb157565b61034191906123a1565b634e487b7160e01b600052601260045260246000fd5b81156123de570490565b6123be565b61034191906123d4565b61032b906123f9610c69565b612403600a61120a565b612413610c806104036000610bf2565b036112645761032b90600a611223565b61032b906123ed565b61243461234d565b61243c612444565b61032b61237f565b61244d306108d4565b61245681610f42565b906000916124638361110c565b81116124ae575b5031612479610341600d610f16565b8111612483575050565b81808092612495611ea2611ea2610bcb565b8282156124a5575bf11561216157565b506108fc61249d565b6124c56124ca916124bf600c610f16565b90612b01565b612af8565b3861246a565b61032b61242c565b9061032b9291612542565b156124ea57565b60405162461bcd60e51b815260206004820152602a60248201527f45524332305061757361626c653a20746f6b656e207472616e736665722077686044820152691a5b19481c185d5cd95960b21b6064820152608490fd5b50505061032b6125536113e3610dbc565b6124e3565b610341601961110c565b90929190600080928182612576601061120a565b9060009361258385610bf2565b926125966001600160a01b038516610c80565b141580612835575b612819575b87906125af600f61120a565b6125c16001600160a01b038616610c80565b1415806127fb575b6127dd575b7f0000000000000000000000000000000000000000000000000000000000000000936001600160a01b03166001600160a01b0385161415806127c1575b6127a5575b6126186111f7565b612771575b6126338361263387612633612638968c96612397565b612397565b96612646610403601361120a565b6001600160a01b0388161480612751575b8061272d575b6126fc576126a39596979899506126738561110c565b81036126e2575b506126848461110c565b81036126d1575b50506126968261110c565b81036126b7575b5061110c565b81036126ae57505090565b61034191611a5c565b6126cb906126c5600f61120a565b86611774565b3861269d565b6126db9187611774565b388061268b565b6126f6906126f0601061120a565b89611774565b3861267a565b610c658a61270960405190565b63f6202a8f60e01b8152918291600483016001600160a01b03909116815260200190565b5061273b88610fca8c610f42565b61274b611f1a610341600b610f16565b1161265d565b50612760610403611ea26108dd565b6001600160a01b038b161415612657565b6126389196506126338361263387612633612798611efb6127926012610f16565b886123b4565b9b9650505050505061261d565b91506127bb611efb6127b5612558565b846123b4565b91612610565b506127ca612558565b6127d6611f1a8861110c565b141561260b565b93506127f5611efb6127ef6011610f16565b866123b4565b936125ce565b506128066011610f16565b612812611f1a8861110c565b14156125c9565b965061282f611efb612829611d08565b896123b4565b966125a3565b5061283e611d08565b61284a611f1a8761110c565b141561259e565b61243c9061285d61234d565b6128729061286d6001600761141f565b6129ca565b61032b6000600761141f565b9061032b61288b60405190565b9283610eaa565b67ffffffffffffffff8111610ecc5760208091020190565b906128bc6128b783612892565b61287e565b918252565b369037565b9061032b6128dc6128d6846128aa565b93612892565b601f1901602084016128c1565b634e487b7160e01b600052603260045260246000fd5b90612908825190565b811015612919576020809102010190565b6128e9565b9061293e61293761292d845190565b8084529260200190565b9260200190565b9060005b81811061294f5750505090565b90919261297561296e60019286516001600160a01b0316815260200190565b9460200190565b929101612942565b906129b8611cc69161032b969897956129ab6080966129a160a08801946000890152565b6020870190611db4565b848203604086015261291e565b6001600160a01b039097166060830152565b6129dc6129d7600261110c565b6128c6565b6129e5306108d4565b90600092612a0d836129ff6129f98761110c565b856128ff565b906001600160a01b03169052565b612a18611ea26108dd565b63ad5c4648612a29611f5d60405190565b8152602081600481855afa801561216157612a59918791612ada575b506129ff612a53600161110c565b866128ff565b612a64828286611130565b63791ac947934290823b15610319578695612aa2612a97938897938894612a8a60405190565b9a8b998a98899760e01b90565b87526004870161297d565b03925af1801561216157612ab4575050565b8161032b92903d10612ad3575b612acb8183610eaa565b810190610365565b503d612ac1565b612af2915060203d81116121f0576121e28183610eaa565b38612a45565b61032b90612851565b9080821015612b0e575090565b905090565b60601b15612b1d57565b63d92e233d6000526004601cfdfea26469706673582212209c6bfd6019d64a978567cf94f3d037693b12314147369bbf2b09408cf6a92cf964736f6c63430008140033",
  "linkReferences": {},
  "deployedLinkReferences": {}
}