{
  "_format": "hh-sol-artifact-1",
  "contractName": "LiquidityLocker",
  "sourceName": "src/LiquidityLocker.sol",
  "abi": [
    {
      "inputs": [
        {
          "internalType": "uint256",
          "name": "_fee",
          "type": "uint256"
        },
        {
          "internalType": "address",
          "name": "_feeRecipient",
          "type": "address"
        }
      ],
      "stateMutability": "nonpayable",
      "type": "constructor"
    },
    {
      "inputs": [],
      "name": "BeforeUnlockDate",
      "type": "error"
    },
    {
      "inputs": [],
      "name": "InvalidAmount",
      "type": "error"
    },
    {
      "inputs": [],
      "name": "InvalidLockDate",
      "type": "error"
    },
    {
      "inputs": [],
      "name": "InvalidRecipient",
      "type": "error"
    },
    {
      "inputs": [],
      "name": "LockMismatch",
      "type": "error"
    },
    {
      "inputs": [],
      "name": "MigratorNotSet",
      "type": "error"
    },
    {
      "inputs": [
        {
          "internalType": "address",
          "name": "lpToken",
          "type": "address"
        }
      ],
      "name": "NotUniPair",
      "type": "error"
    },
    {
      "inputs": [],
      "name": "OwnerAlreadySet",
      "type": "error"
    },
    {
      "inputs": [],
      "name": "TransferFailed",
      "type": "error"
    },
    {
      "anonymous": false,
      "inputs": [
        {
          "indexed": false,
          "internalType": "address",
          "name": "lpToken",
          "type": "address"
        },
        {
          "indexed": false,
          "internalType": "address",
          "name": "user",
          "type": "address"
        },
        {
          "indexed": false,
          "internalType": "uint256",
          "name": "amount",
          "type": "uint256"
        },
        {
          "indexed": false,
          "internalType": "uint256",
          "name": "lockDate",
          "type": "uint256"
        },
        {
          "indexed": false,
          "internalType": "uint256",
          "name": "unlockDate",
          "type": "uint256"
        }
      ],
      "name": "OnDeposit",
      "type": "event"
    },
    {
      "anonymous": false,
      "inputs": [
        {
          "indexed": false,
          "internalType": "address",
          "name": "lpToken",
          "type": "address"
        },
        {
          "indexed": false,
          "internalType": "uint256",
          "name": "amount",
          "type": "uint256"
        }
      ],
      "name": "OnWithdraw",
      "type": "event"
    },
    {
      "anonymous": false,
      "inputs": [
        {
          "indexed": true,
          "internalType": "address",
          "name": "previousOwner",
          "type": "address"
        },
        {
          "indexed": true,
          "internalType": "address",
          "name": "newOwner",
          "type": "address"
        }
      ],
      "name": "OwnershipTransferred",
      "type": "event"
    },
    {
      "inputs": [],
      "name": "fee",
      "outputs": [
        {
          "internalType": "uint256",
          "name": "",
          "type": "uint256"
        }
      ],
      "stateMutability": "view",
      "type": "function"
    },
    {
      "inputs": [],
      "name": "feeRecipient",
      "outputs": [
        {
          "internalType": "address",
          "name": "",
          "type": "address"
        }
      ],
      "stateMutability": "view",
      "type": "function"
    },
    {
      "inputs": [
        {
          "internalType": "uint256",
          "name": "_index",
          "type": "uint256"
        }
      ],
      "name": "getLockedTokenAtIndex",
      "outputs": [
        {
          "internalType": "address",
          "name": "",
          "type": "address"
        }
      ],
      "stateMutability": "view",
      "type": "function"
    },
    {
      "inputs": [],
      "name": "getNumLockedTokens",
      "outputs": [
        {
          "internalType": "uint256",
          "name": "",
          "type": "uint256"
        }
      ],
      "stateMutability": "view",
      "type": "function"
    },
    {
      "inputs": [
        {
          "internalType": "address",
          "name": "_lpToken",
          "type": "address"
        }
      ],
      "name": "getNumLocksForToken",
      "outputs": [
        {
          "internalType": "uint256",
          "name": "",
          "type": "uint256"
        }
      ],
      "stateMutability": "view",
      "type": "function"
    },
    {
      "inputs": [
        {
          "internalType": "address",
          "name": "_user",
          "type": "address"
        },
        {
          "internalType": "address",
          "name": "_lpToken",
          "type": "address"
        },
        {
          "internalType": "uint256",
          "name": "_index",
          "type": "uint256"
        }
      ],
      "name": "getUserLockForTokenAtIndex",
      "outputs": [
        {
          "internalType": "uint256",
          "name": "",
          "type": "uint256"
        },
        {
          "internalType": "uint256",
          "name": "",
          "type": "uint256"
        },
        {
          "internalType": "uint256",
          "name": "",
          "type": "uint256"
        },
        {
          "internalType": "uint256",
          "name": "",
          "type": "uint256"
        },
        {
          "internalType": "uint256",
          "name": "",
          "type": "uint256"
        },
        {
          "internalType": "address",
          "name": "",
          "type": "address"
        }
      ],
      "stateMutability": "view",
      "type": "function"
    },
    {
      "inputs": [
        {
          "internalType": "address",
          "name": "_user",
          "type": "address"
        },
        {
          "internalType": "uint256",
          "name": "_index",
          "type": "uint256"
        }
      ],
      "name": "getUserLockedTokenAtIndex",
      "outputs": [
        {
          "internalType": "address",
          "name": "",
          "type": "address"
        }
      ],
      "stateMutability": "view",
      "type": "function"
    },
    {
      "inputs": [
        {
          "internalType": "address",
          "name": "_user",
          "type": "address"
        }
      ],
      "name": "getUserNumLockedTokens",
      "outputs": [
        {
          "internalType": "uint256",
          "name": "",
          "type": "uint256"
        }
      ],
      "stateMutability": "view",
      "type": "function"
    },
    {
      "inputs": [
        {
          "internalType": "address",
          "name": "_user",
          "type": "address"
        },
        {
          "internalType": "address",
          "name": "_lpToken",
          "type": "address"
        }
      ],
      "name": "getUserNumLocksForToken",
      "outputs": [
        {
          "internalType": "uint256",
          "name": "",
          "type": "uint256"
        }
      ],
      "stateMutability": "view",
      "type": "function"
    },
    {
      "inputs": [
        {
          "internalType": "contract IERC20",
          "name": "_lpToken",
          "type": "address"
        },
        {
          "internalType": "uint256",
          "name": "_index",
          "type": "uint256"
        },
        {
          "internalType": "uint256",
          "name": "_lockID",
          "type": "uint256"
        },
        {
          "internalType": "uint256",
          "name": "_amount",
          "type": "uint256"
        }
      ],
      "name": "incrementLock",
      "outputs": [
        {
          "components": [
            {
              "internalType": "uint256",
              "name": "lockDate",
              "type": "uint256"
            },
            {
              "internalType": "uint256",
              "name": "amount",
              "type": "uint256"
            },
            {
              "internalType": "uint256",
              "name": "initialAmount",
              "type": "uint256"
            },
            {
              "internalType": "uint256",
              "name": "unlockDate",
              "type": "uint256"
            },
            {
              "internalType": "uint256",
              "name": "lockID",
              "type": "uint256"
            },
            {
              "internalType": "address",
              "name": "owner",
              "type": "address"
            }
          ],
          "internalType": "struct LiquidityLocker.TokenLock",
          "name": "_userLock",
          "type": "tuple"
        }
      ],
      "stateMutability": "nonpayable",
      "type": "function"
    },
    {
      "inputs": [
        {
          "internalType": "contract IERC20",
          "name": "lpToken",
          "type": "address"
        },
        {
          "internalType": "uint256",
          "name": "amountOfLPToLock",
          "type": "uint256"
        },
        {
          "internalType": "uint256",
          "name": "unlockDate",
          "type": "uint256"
        },
        {
          "internalType": "address payable",
          "name": "withdrawer",
          "type": "address"
        }
      ],
      "name": "lockLPToken",
      "outputs": [
        {
          "components": [
            {
              "internalType": "uint256",
              "name": "lockDate",
              "type": "uint256"
            },
            {
              "internalType": "uint256",
              "name": "amount",
              "type": "uint256"
            },
            {
              "internalType": "uint256",
              "name": "initialAmount",
              "type": "uint256"
            },
            {
              "internalType": "uint256",
              "name": "unlockDate",
              "type": "uint256"
            },
            {
              "internalType": "uint256",
              "name": "lockID",
              "type": "uint256"
            },
            {
              "internalType": "address",
              "name": "owner",
              "type": "address"
            }
          ],
          "internalType": "struct LiquidityLocker.TokenLock",
          "name": "tokenLock",
          "type": "tuple"
        }
      ],
      "stateMutability": "payable",
      "type": "function"
    },
    {
      "inputs": [
        {
          "internalType": "contract IERC20",
          "name": "_lpToken",
          "type": "address"
        },
        {
          "internalType": "uint256",
          "name": "_index",
          "type": "uint256"
        },
        {
          "internalType": "uint256",
          "name": "_lockID",
          "type": "uint256"
        },
        {
          "internalType": "uint256",
          "name": "_amount",
          "type": "uint256"
        }
      ],
      "name": "migrate",
      "outputs": [],
      "stateMutability": "nonpayable",
      "type": "function"
    },
    {
      "inputs": [],
      "name": "migrator",
      "outputs": [
        {
          "internalType": "contract IUniswapV2Migrator",
          "name": "",
          "type": "address"
        }
      ],
      "stateMutability": "view",
      "type": "function"
    },
    {
      "inputs": [],
      "name": "owner",
      "outputs": [
        {
          "internalType": "address",
          "name": "",
          "type": "address"
        }
      ],
      "stateMutability": "view",
      "type": "function"
    },
    {
      "inputs": [
        {
          "internalType": "contract IERC20",
          "name": "_lpToken",
          "type": "address"
        },
        {
          "internalType": "uint256",
          "name": "_index",
          "type": "uint256"
        },
        {
          "internalType": "uint256",
          "name": "_lockID",
          "type": "uint256"
        },
        {
          "internalType": "uint256",
          "name": "_unlockDate",
          "type": "uint256"
        }
      ],
      "name": "relock",
      "outputs": [],
      "stateMutability": "nonpayable",
      "type": "function"
    },
    {
      "inputs": [],
      "name": "renounceOwnership",
      "outputs": [],
      "stateMutability": "nonpayable",
      "type": "function"
    },
    {
      "inputs": [
        {
          "internalType": "uint256",
          "name": "amount",
          "type": "uint256"
        }
      ],
      "name": "setFee",
      "outputs": [],
      "stateMutability": "nonpayable",
      "type": "function"
    },
    {
      "inputs": [
        {
          "internalType": "address",
          "name": "feeRecipient_",
          "type": "address"
        }
      ],
      "name": "setFeeRecipient",
      "outputs": [],
      "stateMutability": "nonpayable",
      "type": "function"
    },
    {
      "inputs": [
        {
          "internalType": "contract IUniswapV2Migrator",
          "name": "_migrator",
          "type": "address"
        }
      ],
      "name": "setMigrator",
      "outputs": [],
      "stateMutability": "nonpayable",
      "type": "function"
    },
    {
      "inputs": [
        {
          "internalType": "address",
          "name": "pair",
          "type": "address"
        },
        {
          "internalType": "uint256",
          "name": "",
          "type": "uint256"
        }
      ],
      "name": "tokenLocks",
      "outputs": [
        {
          "internalType": "uint256",
          "name": "lockDate",
          "type": "uint256"
        },
        {
          "internalType": "uint256",
          "name": "amount",
          "type": "uint256"
        },
        {
          "internalType": "uint256",
          "name": "initialAmount",
          "type": "uint256"
        },
        {
          "internalType": "uint256",
          "name": "unlockDate",
          "type": "uint256"
        },
        {
          "internalType": "uint256",
          "name": "lockID",
          "type": "uint256"
        },
        {
          "internalType": "address",
          "name": "owner",
          "type": "address"
        }
      ],
      "stateMutability": "view",
      "type": "function"
    },
    {
      "inputs": [
        {
          "internalType": "address",
          "name": "_lpToken",
          "type": "address"
        },
        {
          "internalType": "uint256",
          "name": "_index",
          "type": "uint256"
        },
        {
          "internalType": "uint256",
          "name": "_lockID",
          "type": "uint256"
        },
        {
          "internalType": "address payable",
          "name": "_newOwner",
          "type": "address"
        }
      ],
      "name": "transferLockOwnership",
      "outputs": [],
      "stateMutability": "nonpayable",
      "type": "function"
    },
    {
      "inputs": [
        {
          "internalType": "address",
          "name": "newOwner",
          "type": "address"
        }
      ],
      "name": "transferOwnership",
      "outputs": [],
      "stateMutability": "nonpayable",
      "type": "function"
    },
    {
      "inputs": [
        {
          "internalType": "contract IERC20",
          "name": "_lpToken",
          "type": "address"
        },
        {
          "internalType": "uint256",
          "name": "_index",
          "type": "uint256"
        },
        {
          "internalType": "uint256",
          "name": "_lockID",
          "type": "uint256"
        },
        {
          "internalType": "uint256",
          "name": "_amount",
          "type": "uint256"
        }
      ],
      "name": "withdraw",
      "outputs": [],
      "stateMutability": "nonpayable",
      "type": "function"
    }
  ],
  "bytecode": "0x60806040523462000031576200001f62000018620000fc565b90620001bb565b604051611fe9620002908239611fe990f35b600080fd5b634e487b7160e01b600052604160045260246000fd5b90601f01601f191681019081106001600160401b038211176200006e57604052565b62000036565b906200008b6200008360405190565b92836200004c565b565b805b036200003157565b905051906200008b826200008d565b6001600160a01b031690565b90565b6001600160a01b0381166200008f565b905051906200008b82620000b5565b91906040838203126200003157620000b290620000f2818562000097565b93602001620000c5565b6200011f6200227980380380620001138162000074565b928339810190620000d4565b9091565b90600019905b9181191691161790565b620000b2620000b2620000b29290565b9062000157620000b26200015f9262000133565b825462000123565b9055565b906001600160a01b039062000129565b620000b290620000a6906001600160a01b031682565b620000b29062000173565b620000b29062000189565b90620001b3620000b26200015f9262000194565b825462000163565b90620001d76200008b92620001cf620001eb565b600262000143565b60036200019f565b620000b2600162000133565b620001f56200020b565b6200008b62000203620001df565b600162000143565b6200008b336200022d565b620000b290620000a6565b620000b2905462000216565b62000239600062000221565b90620002478160006200019f565b6200027e620002777f8be0079c531659141344cd1fd0a4f28419497f9722a3daafe3b4186f6b6457e09362000194565b9162000194565b916200028960405190565b600090a356fe6080604052600436101561001257600080fd5b60003560e01c806314dd79a3146101825780631f2a1d2f1461017d57806323cf3118146101785780634532d77614610173578063469048401461016e57806360491d241461016957806369fe0e2d14610164578063715018a61461015f578063783451e81461015a5780637cd07e47146101555780638da5cb5b14610150578063903df8061461014b578063a396981514610146578063a69d9c4f14610141578063a9b07cea1461013c578063bef497fd14610137578063ccebfa3f14610132578063d4ff493f1461012d578063ddca3f4314610128578063df41bc5f14610123578063e74b981b1461011e578063ee424278146101195763f2fde38b03610187576107ea565b6107ce565b6107b6565b61079c565b610781565b610743565b6106de565b61058d565b610526565b6104a0565b610462565b610446565b6103fe565b6103d7565b610371565b610359565b610341565b610325565b61030a565b6102b8565b61025f565b610234565b6101cb565b600080fd5b805b0361018757565b905035906101a28261018c565b565b90602082820312610187576101b891610195565b90565b6001600160a01b031690565b9052565b34610187576102006101e66101e13660046101a4565b611d33565b604051918291826001600160a01b03909116815260200190565b0390f35b6001600160a01b03811661018e565b905035906101a282610204565b90602082820312610187576101b891610213565b346101875761020061024f61024a366004610220565b611cec565b6040519182918290815260200190565b3461018757610277610272366004610220565b610a7d565b604051005b608081830312610187576102908282610213565b926101b86102a18460208501610195565b936102af8160408601610195565b93606001610195565b34610187576102776102cb36600461027c565b929190916115c2565b600091031261018757565b6101b8916008021c6001600160a01b031690565b906101b891546102df565b6101b8600060036102f3565b346101875761031a3660046102d4565b6102006101e66102fe565b346101875761027761033836600461027c565b9291909161135e565b34610187576102776103543660046101a4565b610a3d565b34610187576103693660046102d4565b61027761083a565b34610187576103813660046102d4565b61020061024f611d03565b6101b8600060086102f3565b6101b8906101bb906001600160a01b031682565b6101b890610398565b6101b8906103ac565b6101c7906103b5565b6020810192916101a291906103be565b34610187576103e73660046102d4565b6102006103f261038c565b604051918291826103c7565b346101875761040e3660046102d4565b6102006101e66000546001600160a01b031690565b9190604083820312610187576101b89061043d8185610213565b93602001610195565b34610187576102006101e661045c366004610423565b90611db3565b346101875761020061024f610478366004610220565b611d94565b9190604083820312610187576101b8906104978185610213565b93602001610213565b346101875761020061024f6104b636600461047d565b90611dcb565b805182526101a2919060a09081906104d960208201516020860152565b6104e860408201516040860152565b6104f760608201516060860152565b61050660808201516080860152565b01516001600160a01b0316910152565b60c0810192916101a291906104bc565b346101875761020061054561053c36600461027c565b92919091611888565b60405191829182610516565b608081830312610187576105658282610213565b926101b86105768460208501610195565b936105848160408601610195565b93606001610213565b34610187576102776105a0366004610551565b9291909161189c565b906105b3906103b5565b600052602052604060002090565b634e487b7160e01b600052603260045260246000fd5b80548210156105fa576105f1600691600052602060002090565b91020190600090565b6105c1565b6101b89081565b6101b890546105ff565b91906106206007936000946105a9565b8054821015610687576106349293506105d7565b509061063f82610606565b9161064c60018201610606565b9161065960028301610606565b9161066660038201610606565b916101b8600561067860048501610606565b9301546001600160a01b031690565b8380fd5b91946106c86106cf929897956106c160a0966106ba6101a29a6106b360c08a019e60008b0152565b6020890152565b6040870152565b6060850152565b6080830152565b01906001600160a01b03169052565b34610187576102006106fa6106f4366004610423565b90610610565b9261070a96949692919260405190565b9687968761068b565b9091606082840312610187576101b861072c8484610213565b9361073a8160208601610213565b93604001610195565b34610187576102006106fa610759366004610713565b91611de3565b6101b8916008021c81565b906101b8915461075f565b6101b86000600261076a565b34610187576107913660046102d4565b61020061024f610775565b6102006105456107ad366004610551565b9291909161107e565b34610187576102776107c9366004610220565b610a5d565b34610187576102776107e136600461027c565b92919091611ce0565b34610187576102776107fd366004610220565b61095f565b61080a61089a565b6101a2610828565b6101bb6101b86101b89290565b6101b890610812565b6101a2610835600061081f565b610998565b6101a2610802565b0190565b1561084d57565b60405162461bcd60e51b815280610896600482016020808252818101527f4f776e61626c653a2063616c6c6572206973206e6f7420746865206f776e6572604082015260600190565b0390fd5b6101a26108af6000546001600160a01b031690565b6108c86108bb336101bb565b916001600160a01b031690565b14610846565b6101a2906108da61089a565b61093a565b156108e657565b60405162461bcd60e51b815260206004820152602660248201527f4f776e61626c653a206e6577206f776e657220697320746865207a65726f206160448201526564647265737360d01b6064820152608490fd5b6101a29061083561094e6101bb600061081f565b6001600160a01b03831614156108df565b6101a2906108ce565b906001600160a01b03905b9181191691161790565b9061098d6101b8610994926103b5565b8254610968565b9055565b6000546001600160a01b0316906109b081600061097d565b6109e36109dd7f8be0079c531659141344cd1fd0a4f28419497f9722a3daafe3b4186f6b6457e0936103b5565b916103b5565b916109ed60405190565b600090a3565b6101a2906109ff61089a565b610a32565b9060001990610973565b6101b86101b86101b89290565b90610a2b6101b861099492610a0e565b8254610a04565b6101a2906002610a1b565b6101a2906109f3565b6101a290610a5261089a565b6101a290600361097d565b6101a290610a46565b6101a290610a7261089a565b6101a290600861097d565b6101a290610a66565b634e487b7160e01b600052604160045260246000fd5b90601f01601f1916810190811067ffffffffffffffff821117610abe57604052565b610a86565b906101a2610ad060405190565b9283610a9c565b6101b860c0610ac3565b610ae9610ad7565b906000825260208080808080870160008152016000815201600081520160008152016000905250565b6101b8610ae1565b90610b2f94939291610b2a6110e8565b610d34565b906101a2611124565b6101b8735c69bee701ef814a2b6a3edd4b1652cb9cc5aa6f6103b5565b905051906101a282610204565b90602082820312610187576101b891610b55565b6040513d6000823e3d90fd5b6001600160a01b0390911681526040810192916101a2916020906106cf565b634e487b7160e01b600052600060045260246000fd5b6101a29190610c309060a090600590610bd881610bd2875190565b90610a1b565b610bea60018201610bd2602088015190565b610bfc60028201610bd2604088015190565b610c0e60038201610bd2606088015190565b610c2060048201610bd2608088015190565b019201516001600160a01b031690565b9061097d565b9190610c45576101a291610bb7565b610ba1565b90815491600160401b831015610abe5782610c6d9160016101a2950181556105d7565b90610c36565b80548210156105fa576105f1600191600052602060002090565b9160001960089290920291821b911b610973565b9190610cb26101b861099493610a0e565b908354610c8d565b90815491600160401b831015610abe5782610cdd9160016101a295018155610c73565b90610ca1565b909594926101a294610d29610d3092610d22608096610d1260a088019c60008901906001600160a01b03169052565b6001600160a01b03166020870152565b6040850152565b6060830152565b0152565b919493929482953492610d4a6101b86002610606565b841061106c57600090610d5c82610a0e565b841461106c57610d706402540be400610a0e565b831161105a57610d7f906103b5565b93610d89856103b5565b610d99610d94610b38565b6103b5565b610da763e6a43905926103b5565b630dfe168191610dc0610db960405190565b9360e01b90565b8352602083600481855afa918215610fa757610df2938793611038575b5060405193602091859163d21220a760e01b90565b825260049082905afa928315610fa7578693611014575b50610e2a60209394610e35610e1d60405190565b9687958694859460e01b90565b845260048401610b82565b03915afa908115610fa7578391610fe6575b50610e5a6001600160a01b0387166108bb565b03610fb55781808092610e6a3390565b9887610e75306103b5565b90610e81918c8c611ee9565b508083019a8990610e90428e52565b6020830199610e9d818c52565b604084015260608301988952600792610eb683856105a9565b54608082019081529383610ec9846103b5565b6001600160a01b031660a0840152610ee0916105a9565b90610eea91610c4a565b610ef5826005611141565b50610f019060046105a9565b610f0d82828701611141565b5060020190610f1b916105a9565b9051610f2691610cba565b6003546001600160a01b0316610f3b906103b5565b610f44906103b5565b828215610fac575bf115610fa757610f6d610f68610f63610fa2945190565b965190565b915190565b907fb173d70d03f0b8aa29e0087d55b3549db8a6343c5208ce69af3c0de4c0836fe795610f9960405190565b95869586610ce3565b0390a1565b610b76565b506108fc610f4c565b61089685610fc260405190565b630a3f6ee160e21b8152918291600483016001600160a01b03909116815260200190565b611007915060203d811161100d575b610fff8183610a9c565b810190610b62565b38610e47565b503d610ff5565b60209350611031610e2a91853d811161100d57610fff8183610a9c565b9350610e09565b602091935061105390823d811161100d57610fff8183610a9c565b9290610ddd565b604051637b663c4960e01b8152600490fd5b60405163162908e360e11b8152600490fd5b906101b893929161108d610b12565b610b1a565b6101b86002610a0e565b156110a357565b60405162461bcd60e51b815260206004820152601f60248201527f5265656e7472616e637947756172643a207265656e7472616e742063616c6c006044820152606490fd5b6101a26110f56001610606565b611113611100611092565b91829061110c565b9190565b141561109c565b6001610a1b565b6101b86001610a0e565b6101a261111361111a565b6101b89081906001600160a01b031681565b9061116e61110861116961116460006101b89661115c600090565b5001946103ac565b61112f565b610a0e565b6111b1565b9190610cb26101b86109949390565b90815491600160401b831015610abe57826111a59160016101a295018155610c73565b90611173565b906105b3565b6111c26111be83836111fb565b1590565b156111f4576111ef916111ea9060016111e3846111df8482611182565b5490565b93016111ab565b610a1b565b600190565b5050600090565b6112199160016112149261120d600090565b50016111ab565b610606565b6112266111086000610a0e565b141590565b9061123f93929161123a6110e8565b611247565b6101a2611124565b939291906112596402540be400610a0e565b831161105a576112b66112c36111086112bf6112bb6112a6996112ac60049b8c986112a161129a600261129361128c3390565b809e6105a9565b01956103b5565b80956105a9565b610c73565b9061076a565b95869160076105a9565b6105d7565b5090565b9490565b141590811561132d575b5061130e576003016112de81610606565b82106112ef576101a2929350610a1b565b610896846112fc60405190565b63b9f317a560e01b8152918291820190565b6108968461131b60405190565b63459808cf60e01b8152918291820190565b90506113566108bb61134960058501546001600160a01b031690565b926001600160a01b031690565b1415386112cd565b906101a293929161122b565b9061123f9392916113796110e8565b61140d565b634e487b7160e01b600052601160045260246000fd5b919082039182116113a157565b61137e565b634e487b7160e01b600052603160045260246000fd5b6101a291600091610ca1565b805480156113eb5760001901906113e86113e28383610c73565b906113bc565b55565b6113a6565b6001600160a01b0390911681526040810192916101a29160200152565b929190600061141b81610a0e565b841461106c57600491339361144d6112a6836112a1611446600261143f8b8b6105a9565b019b6103b5565b809b6105a9565b6114696111086114656112bb846112b68d60076105a9565b9390565b1415801561159a575b61130e5761148260038201610606565b42106112ef57846114d095938795936114b460018b95016112146114ae8a6114a984610606565b611394565b82610a1b565b6114c061110884610a0e565b14611508575b5050509050611f7d565b507fbace9fd79d5ea02ed8b43fa96af07e4e8f859a2f71ff878c748f5c22c578028491610fa26114ff60405190565b928392836113f0565b6115639061155a6115286101b8876002611522898c6105a9565b016105a9565b91610cdd6115536112a661154d61153d875490565b6115476001610a0e565b90611394565b86610c73565b9184610c73565b6111df816113c8565b61156f61110883610a0e565b1461157b575b806114c6565b61084261158b92611590956105a9565b6115ce565b5038858282611575565b5060058101546001600160a01b03166115bb6001600160a01b0387166108bb565b1415611472565b906101a293929161136a565b906115e961110861116961116460006101b89661115c600090565b61161a565b6101a291600091611173565b805480156113eb5760001901906113e86116148383610c73565b906115ee565b9061162b61121482600185016111ab565b60009261163784610a0e565b8214611684576101b89261168a94926116959261168f600197889361166461165e86610a0e565b82611394565b8885019161167c611673845490565b61154789610a0e565b82810361169a575b50505090565b6115fa565b016111ab565b6113bc565b6111a56116bd6116c5946116b46112a66111ea9589610c73565b92839188610c73565b8888016111ab565b388080611684565b90610b2f949392916116dd6110e8565b611790565b919082018092116113a157565b906101a26117776005611700610ad7565b9461171161170d82610606565b8752565b61172761172060018301610606565b6020880152565b61173d61173660028301610606565b6040880152565b61175361174c60038301610606565b6060880152565b61176961176260048301610606565b6080880152565b01546001600160a01b031690565b6001600160a01b031660a0840152565b6101b8906116ef565b50929392600091906117a183610a0e565b861461106c5760046117d16112a633946112a16117ca60026117c389886105a9565b01966103b5565b80966105a9565b6117ed6111086117e96112bb846112b68860076105a9565b9790565b14158015611860575b611853575061184b61183f6118378861181d6101b8999a611816306103b5565b8888611ee9565b506112146114ae60018a019261183284610606565b6116e2565b948601610606565b610f6d60038701610606565b0390a1611787565b6108969061131b60405190565b5060058501546001600160a01b03166118816001600160a01b0385166108bb565b14156117f6565b906101b8939291611897610b12565b6116cd565b939290936118b56101bb6000546001600160a01b031690565b6118be836103b5565b146119e0576004856118e56112a683986112a18660026115226118de3390565b80996105a9565b6118fd6111086117e96112bb846112b68960076105a9565b141580156119b8575b6119ab579582849261196c6101a298996119566119456101b861198a9960026119346101b860059e8c6105a9565b61193e8382611141565b50016105a9565b611950878c01610606565b90610cba565b61155a6115286101b8866002611522888b6105a9565b60009061197b61110883610a0e565b14611991575b505050506103b5565b910161097d565b61084261158b926119a1956105a9565b5038808080611981565b6108968761131b60405190565b5060058501546001600160a01b03166119d96001600160a01b0384166108bb565b1415611906565b60405163cf04b1bb60e01b8152600490fd5b9061123f939291611a016110e8565b611a75565b80151561018e565b905051906101a282611a06565b90602082820312610187576101b891611a0e565b909594926101a294611a65610d3092610d22608096611a5e60a088019c60008901906001600160a01b03169052565b6020870152565b6001600160a01b03166060830152565b919290611a8d610d946008546001600160a01b031690565b93600094611aa06108bb6101bb8861081f565b14611cce57611aae85610a0e565b831461106c576004913390611ae06112a6826112a1611ad96002611ad2888b6105a9565b019a6103b5565b809a6105a9565b611afc611108611af86112bb846112b68c60076105a9565b9590565b14158015611ca6575b61130e57611b20600184016112146114ae886114a984610606565b611b2c61110889610a0e565b14611c5c575b5063095ea7b36020611b6b611b52610d946008546001600160a01b031690565b92611b7588611b6060405190565b958694859460e01b90565b84528984016113f0565b03818a8a5af18015610fa757611c30575b50611b9c610d946008546001600160a01b031690565b91611bae600363b7df1d259201610606565b90611bc542611bbf62015180610a0e565b906116e2565b95843b15610187578896611bef948894611bf893611be260405190565b9b8c9a8b998a9860e01b90565b88528701611a2f565b03925af18015610fa757611c0a575050565b816101a292903d10611c29575b611c218183610a9c565b8101906102d4565b503d611c17565b611c509060203d8111611c55575b611c488183610a9c565b810190611a1b565b611b86565b503d611c3e565b611c769061155a6115286101b8896002611522888b6105a9565b611c8261110888610a0e565b14611c8e575b38611b32565b611ca08561158b8861084285886105a9565b50611c88565b5060058301546001600160a01b0316611cc76001600160a01b0384166108bb565b1415611b05565b604051632ed9bf5360e21b8152600490fd5b906101a29392916119f2565b6111df6101b891611cfb600090565b5060076105a9565b6101b860055b611d1f60006101b892611d1a600090565b500190565b60006101b891611d2d600090565b50015490565b6101b8906005611d4c565b611d4c565b6101b890610a0e565b611d71611d6c6101b893611d676000611d7695611d1a600090565b611d7b565b611d43565b610812565b6103ac565b6101b89160006112a692611d8d600090565b5001610c73565b611d0960006108426101b86101b894611dab600090565b5060046105a9565b90611d3e60006108426101b86101b895611dab600090565b6101b89160026115226101b86111df94611dab600090565b9291611e19916112b6611e116112a66112bb94611dfe600090565b506112a185600261152260049c8d6105a9565b9160076105a9565b91611e2383610606565b92611e3060018201610606565b93611e3d60028301610606565b93611e696005611e5a611e5260038701610606565b968601610606565b9401546001600160a01b031690565b91959493929190565b6001600160a01b039182168152911660208201526060810192916101a29160400152565b67ffffffffffffffff8111610abe57602090601f01601f19160190565b90611ec5611ec083611e96565b610ac3565b918252565b3d15611ee457611ed93d611eb3565b903d6000602084013e565b606090565b9091611f2b60009493611f1c8695611eff600090565b506040516323b872dd60e01b602082015294859360248501611e72565b60208201810382520382610a9c565b82602082019151925af1611f45611f40611eca565b911590565b611f4f5750600190565b8051611f5e6111086000610a0e565b14611f6b57805190602001fd5b6040516312171d8360e31b8152600490fd5b600092611f2b8493611f8d600090565b50611f1c611f9a60405190565b63a9059cbb60e01b6020820152938492602484016113f056fea26469706673582212209e535a12121118009ec3ce04b62ca09c7e5dd7992785bca52dfb2b489d496f8664736f6c63430008140033",
  "linkReferences": {},
  "deployedLinkReferences": {}
}