{
  "address": "0x5b7c4C6B128Da35dB2b81668c7a84Ad589d4E61f",
  "abi": [
    {
      "inputs": [],
      "name": "GenieAlreadySet",
      "type": "error"
    },
    {
      "anonymous": false,
      "inputs": [
        {
          "indexed": true,
          "internalType": "address",
          "name": "previousOwner",
          "type": "address"
        },
        {
          "indexed": true,
          "internalType": "address",
          "name": "newOwner",
          "type": "address"
        }
      ],
      "name": "OwnershipTransferred",
      "type": "event"
    },
    {
      "inputs": [
        {
          "internalType": "string",
          "name": "name",
          "type": "string"
        },
        {
          "internalType": "string",
          "name": "symbol",
          "type": "string"
        },
        {
          "internalType": "uint256",
          "name": "initialSupply",
          "type": "uint256"
        },
        {
          "internalType": "address",
          "name": "tokenOwner",
          "type": "address"
        },
        {
          "components": [
            {
              "internalType": "bool",
              "name": "isBurnable",
              "type": "bool"
            },
            {
              "internalType": "bool",
              "name": "isPausable",
              "type": "bool"
            },
            {
              "internalType": "bool",
              "name": "isDeflationary",
              "type": "bool"
            }
          ],
          "internalType": "struct Common.TokenConfigProperties",
          "name": "customConfigProps",
          "type": "tuple"
        },
        {
          "internalType": "uint256",
          "name": "maxPerWallet",
          "type": "uint256"
        },
        {
          "internalType": "uint256",
          "name": "autoWithdrawThreshold",
          "type": "uint256"
        },
        {
          "internalType": "uint256",
          "name": "maxTaxSwap",
          "type": "uint256"
        },
        {
          "internalType": "address",
          "name": "affilateFeeRecipient",
          "type": "address"
        },
        {
          "internalType": "address",
          "name": "feeRecipient",
          "type": "address"
        },
        {
          "internalType": "uint256",
          "name": "feePercentage",
          "type": "uint256"
        },
        {
          "internalType": "uint256",
          "name": "burnPercentage",
          "type": "uint256"
        },
        {
          "internalType": "address",
          "name": "coinGenieTreasury",
          "type": "address"
        }
      ],
      "name": "launchToken",
      "outputs": [
        {
          "internalType": "contract CoinGenieERC20",
          "name": "newToken",
          "type": "address"
        }
      ],
      "stateMutability": "nonpayable",
      "type": "function"
    },
    {
      "inputs": [],
      "name": "owner",
      "outputs": [
        {
          "internalType": "address",
          "name": "",
          "type": "address"
        }
      ],
      "stateMutability": "view",
      "type": "function"
    },
    {
      "inputs": [],
      "name": "renounceOwnership",
      "outputs": [],
      "stateMutability": "nonpayable",
      "type": "function"
    },
    {
      "inputs": [
        {
          "internalType": "address",
          "name": "genie",
          "type": "address"
        }
      ],
      "name": "setGenie",
      "outputs": [],
      "stateMutability": "nonpayable",
      "type": "function"
    },
    {
      "inputs": [
        {
          "internalType": "address",
          "name": "newOwner",
          "type": "address"
        }
      ],
      "name": "transferOwnership",
      "outputs": [],
      "stateMutability": "nonpayable",
      "type": "function"
    }
  ],
  "transactionHash": "0x1ed0a7c078e610f1ce479e8adcbf852725ccb99932beb6150b902325d80345ab",
  "args": [],
  "numDeployments": 2,
  "solcInputHash": "56ba1097ecb6ec9d2bcc0628ed0ad16d",
  "bytecode": "0x6080604052346200002657620000146200002b565b6040516142bf6200012682396142bf90f35b600080fd5b6200003562000037565b565b6200003533620000c3565b62000054905b6001600160a01b031690565b90565b62000054905462000042565b620000549062000048906001600160a01b031682565b620000549062000063565b620000549062000079565b90620000a362000054620000bf9262000084565b82546001600160a01b0319166001600160a01b03919091161790565b9055565b620000cf600062000057565b90620000dd8160006200008f565b620001146200010d7f8be0079c531659141344cd1fd0a4f28419497f9722a3daafe3b4186f6b6457e09362000084565b9162000084565b916200011f60405190565b600090a356fe608060405260043610156200001357600080fd5b60003560e01c8063715018a6146200006c5780638da5cb5b1462000066578063d5e713531462000060578063dcc79cc8146200005a5763f2fde38b03620000725762000437565b6200041a565b620003c5565b620000be565b62000083565b600080fd5b60009103126200007257565b3462000072576200009636600462000077565b620000a0620004bc565b604051005b0390f35b6001600160a01b031690565b90565b9052565b565b346200007257620000d136600462000077565b620000a5620000df6200046b565b604051918291826001600160a01b03909116815260200190565b634e487b7160e01b600052604160045260246000fd5b90601f01601f1916810190811067ffffffffffffffff8211176200013257604052565b620000f9565b90620000bc6200014760405190565b92836200010f565b67ffffffffffffffff81116200013257602090601f01601f19160190565b0190565b90826000939282370152565b909291926200019662000190826200014f565b62000138565b938185526020850190828401116200007257620000bc9262000171565b9080601f830112156200007257816020620000b5933591016200017d565b805b036200007257565b90503590620000bc82620001d1565b6001600160a01b038116620001d3565b90503590620000bc82620001ea565b801515620001d3565b90503590620000bc8262000209565b9190916060818403126200007257620002716200023f606062000138565b9360006200024e828562000212565b908601526020620002628282860162000212565b90860152604080930162000212565b90830152565b6101e0818303126200007257803567ffffffffffffffff8111620000725782620002a3918301620001b3565b92602082013567ffffffffffffffff8111620000725783620002c7918401620001b3565b92620002d78160408501620001db565b92620002e78260608301620001fa565b92620002f7836080840162000221565b92620003078160e08501620001db565b9262000318826101008301620001db565b9262000329836101208401620001db565b926200033a816101408501620001fa565b926200034b826101608301620001fa565b92620000b562000360846101808501620001db565b9362000371816101a08601620001db565b936101c001620001fa565b620000b590620000a9906001600160a01b031682565b620000b5906200037c565b620000b59062000392565b620000b8906200039d565b602081019291620000bc9190620003a8565b346200007257620000a5620003f6620003e036600462000277565b9b9a909a999199989298979397969496620007cb565b60405191829182620003b3565b906020828203126200007257620000b591620001fa565b346200007257620000a06200043136600462000403565b62000a98565b346200007257620000a06200044e36600462000403565b620005e9565b620000b590620000a9565b620000b5905462000454565b620000b560006200045f565b620004816200051c565b620000bc620004a6565b620000a9620000b5620000b59290565b620000b5906200048b565b620000bc620004b660006200049b565b62000628565b620000bc62000477565b15620004ce57565b60405162461bcd60e51b81528062000518600482016020808252818101527f4f776e61626c653a2063616c6c6572206973206e6f7420746865206f776e6572604082015260600190565b0390fd5b620000bc6200052a6200046b565b620005466200053933620000a9565b916001600160a01b031690565b14620004c6565b620000bc906200055c6200051c565b620005be565b156200056a57565b60405162461bcd60e51b815260206004820152602660248201527f4f776e61626c653a206e6577206f776e657220697320746865207a65726f206160448201526564647265737360d01b6064820152608490fd5b620000bc90620004b6620005d7620000a960006200049b565b6001600160a01b038316141562000562565b620000bc906200054d565b9062000608620000b562000624926200039d565b82546001600160a01b0319166001600160a01b03919091161790565b9055565b6200063460006200045f565b9062000642816000620005f4565b62000679620006727f8be0079c531659141344cd1fd0a4f28419497f9722a3daafe3b4186f6b6457e0936200039d565b916200039d565b916200068460405190565b600090a3565b60005b8381106200069e5750506000910152565b81810151838201526020016200068d565b620006d4620006de6020936200016d93620006c8815190565b80835293849260200190565b958691016200068a565b601f01601f191690565b9997959391909c9b9a989694929c6101c08b018b810360008d01526200070e91620006af565b8a810360208c01526200072191620006af565b9b60408a016200072f919052565b6001600160a01b031660608901528051151560808901526020810151151560a089015260400151151560c088015260e08701526101008601526101208501526001600160a01b03166101408401526001600160a01b03166101608301526101808201526101a00152565b6040513d6000823e3d90fd5b90505190620000bc82620001ea565b906020828203126200007257620000b591620007a5565b97939a96919995929a98949098620007e1600090565b506040519a6137e68c01908c821067ffffffffffffffff83111762000132578c9b6200081a9b8f938e6137e69062000aa49039620006e8565b03906000f09182156200097c5762000832836200039d565b90633381e7e2823b15620000725762000860600091620008776200085560405190565b948593849360e01b90565b83526001600160a01b031660048301526024820190565b038183865af180156200097c5762000a2a575b5063dcc79cc86200089c60016200045f565b90823b15620000725762000860600091620008ba6200085560405190565b038183865af180156200097c5762000a10575b50600091620008e0620000a9846200049b565b6001600160a01b03821614158062000982575b620008ff575b50505090565b63f2fde38b90823b1562000072576200093092620008608580946200092360405190565b9687958694859360e01b90565b03925af180156200097c5762000948575b80620008f9565b816200096c92903d1062000974575b6200096381836200010f565b81019062000077565b388062000941565b503d62000957565b62000799565b50638da5cb5b6200099d6200099660405190565b9160e01b90565b8152602081600481865afa80156200097c57620009c9918591620009db575b506001600160a01b031690565b6001600160a01b0382161415620008f3565b62000a01915060203d811162000a08575b620009f881836200010f565b810190620007b4565b38620009bc565b503d620009ec565b62000a239060006200096381836200010f565b38620008cd565b62000a3d9060006200096381836200010f565b386200088a565b620000bc9062000a536200051c565b62000a5f60016200045f565b62000a7362000539620000a960006200049b565b0362000a8657620000bc906001620005f4565b60405163131d002d60e01b8152600490fd5b620000bc9062000a4456fe60e06040523462000062576200002e62000018620002fe565b9a999099989198979297969396959495620004e9565b604051612b8b62000c5b823960805181610595015260a0518161063f015260c051818181610a9b015261270d0152612b8b90f35b600080fd5b634e487b7160e01b600052604160045260246000fd5b90601f01601f191681019081106001600160401b038211176200009f57604052565b62000067565b90620000bc620000b460405190565b92836200007d565b565b6001600160401b0381116200009f57602090601f01601f19160190565b60005b838110620000ef5750506000910152565b8181015183820152602001620000de565b90929192620001196200011382620000be565b620000a5565b938185526020850190828401116200006257620000bc92620000db565b9080601f8301121562000062578151620001539260200162000100565b90565b805b036200006257565b90505190620000bc8262000156565b6001600160a01b031690565b6001600160a01b03811662000158565b90505190620000bc826200017b565b80151562000158565b90505190620000bc826200019a565b919091606081840312620000625762000202620001d06060620000a5565b936000620001df8285620001a3565b908601526020620001f382828601620001a3565b908601526040809301620001a3565b90830152565b90916101c082840312620000625781516001600160401b0381116200006257836200023591840162000136565b60208301519093906001600160401b0381116200006257816200025a91850162000136565b926200026a826040830162000160565b926200027a83606084016200018b565b926200028a8160808501620001b2565b926200029a8260e0830162000160565b92620002ab83610100840162000160565b92620002bc81610120850162000160565b92620002cd8261014083016200018b565b9262000153620002e28461016085016200018b565b93620002f381610180860162000160565b936101a00162000160565b62000321620037e6803803806200031581620000a5565b92833981019062000208565b909192939495969798999a9b565b90600019905b9181191691161790565b6200015362000153620001539290565b9062000363620001536200036b926200033f565b82546200032f565b9055565b6200037f62000153620001539290565b60ff1690565b620001536107d06200033f565b9060ff9062000335565b90620003af620001536200036b92151590565b825462000392565b9061ff009060081b62000335565b90620003d8620001536200036b92151590565b8254620003b7565b9062ff00009060101b62000335565b9062000402620001536200036b92151590565b8254620003e0565b620000bc916200044d906040906200042d620004268251151590565b856200039c565b620004466200043f6020830151151590565b85620003c5565b0151151590565b90620003ef565b90620000bc916200040a565b906001600160a01b039062000335565b62000153906200016f906001600160a01b031682565b620001539062000470565b620001539062000486565b90620004b0620001536200036b9262000491565b825462000460565b90620004c49062000491565b600052602052604060002090565b62000153906200016f565b620001539054620004d2565b90620004fd919c9b939a9892999c620006fe565b6200051469d3c21bcecceda100000060076200034f565b62000522601960106200034f565b6200053d6032620005358160126200034f565b60136200034f565b620005488962000c41565b8760a0526200055860126200036f565b60805260c0526200056862000385565b808711620006c957604083015162000651575b5050620005db9493620005b8620005d394620005b0620000bc9b9c95620005a8620005c096600c62000454565b60096200034f565b600a6200034f565b600b6200034f565b620005cb8162000c41565b600d6200049c565b600f6200034f565b620005e760006200033f565b81036200063e575b506200061e6001916200062b836200061e60159362000624836200061e620006173062000491565b88620004b8565b6200039c565b84620004b8565b62000637600d620004dd565b90620004b8565b6200064a908262000ab7565b38620005ef565b81116200069c5793620005b8620005d394620005b0620000bc9b9c95620005a8620005c09662000688620005db9c9b60116200034f565b965050959c9b50509450819596506200057b565b620006c590620006ab60405190565b6305dba32960e51b81529182916004830190815260200190565b0390fd5b620006c587620006d860405190565b6365a0074b60e11b81529182916004830190815260200190565b6200015360016200033f565b906200070a9162000720565b620000bc62000718620006f2565b60066200034f565b906200072c9162000737565b620000bc33620009ad565b620000bc91620007479162000755565b620000bc600060056200039c565b90620000bc9162000949565b634e487b7160e01b600052602260045260246000fd5b90600160028304921680156200079a575b60208310146200079457565b62000761565b91607f169162000788565b9160001960089290920291821b911b62000335565b9190620007cf620001536200036b936200033f565b908354620007a5565b620000bc91600091620007ba565b818110620007f2575050565b80620008026000600193620007d8565b01620007e6565b9190601f81116200081957505050565b6200082d620000bc93600052602060002090565b906020601f84018190048301931062000851575b6020601f909101040190620007e6565b909150819062000841565b9062000866815190565b906001600160401b0382116200009f576200088e8262000887855462000777565b8562000809565b602090601f8311600114620008cd576200036b929160009183620008c1575b5050600019600883021c1916906002021790565b015190503880620008ad565b601f19831691620008e385600052602060002090565b9260005b81811062000924575091600293918560019694106200090a575b50505002019055565b01516000196008601f8516021c1916905538808062000901565b91936020600181928787015181550195019201620008e7565b90620000bc916200085c565b906200095b620000bc9260036200093d565b60046200093d565b620001539060081c6200016f565b62000153905462000963565b90610100600160a81b039060081b62000335565b90620009a5620001536200036b9262000491565b82546200097d565b620009b9600562000971565b90620009c781600562000991565b620009fe620009f77f8be0079c531659141344cd1fd0a4f28419497f9722a3daafe3b4186f6b6457e09362000491565b9162000491565b9162000a0960405190565b80805b0390a3565b6200016f62000153620001539290565b620001539062000a11565b1562000a3457565b60405162461bcd60e51b815260206004820152601f60248201527f45524332303a206d696e7420746f20746865207a65726f2061646472657373006044820152606490fd5b620001539081565b62000153905462000a79565b634e487b7160e01b600052601160045260246000fd5b9190820180921162000ab157565b62000a8d565b600062000b3f62000b248362000acd8462000a21565b9362000aee6001600160a01b0386166001600160a01b038416141562000a2c565b62000afb87838762000b92565b62000b1e62000b168862000b10600262000a81565b62000aa3565b60026200034f565b620004b8565b62000b388562000b348362000a81565b0190565b906200034f565b62000a0c62000b7a62000b737fddf252ad1be2c89b69c2b068fc378daa952ba7f163c4a11628f55a4df523b3ef9362000491565b9362000491565b9362000b8560405190565b9182918290815260200190565b90620000bc929162000bff565b1562000ba757565b60405162461bcd60e51b815260206004820152602a60248201527f45524332305061757361626c653a20746f6b656e207472616e736665722077686044820152691a5b19481c185d5cd95960b21b6064820152608490fd5b505050620000bc62000c1862000c1462000c35565b1590565b62000b9f565b62000153906200037f565b62000153905462000c1e565b62000153600562000c29565b60601b1562000c4c57565b63d92e233d6000526004601cfdfe6080604052600436101561001257600080fd5b60003560e01c806302252c4d1461033257806306fdde031461032d578063095ea7b31461032857806312d75f131461032357806318160ddd1461031e57806323b872dd14610319578063313ce567146103145780633381e7e21461030f578063351a964d1461030a578063378dc3dc1461030557806339509351146103005780633af32abf146102fb5780633f4ba83a146102f657806342966c68146102f157806346904840146102ec57806349bd5a5e146102e75780634c09f37c146102e257806351bc3c85146102dd5780635c975abb146102d857806362997f8c146102d357806370a08231146102ce578063715018a6146102c957806379cc6790146102c45780638456cb59146102bf57806384c5dd01146102ba578063883356d9146102b55780638da5cb5b146102b05780638e8c10a2146102ab57806395d89b41146102a657806399735fd8146102a1578063a001ecdd1461029c578063a09a160114610297578063a457c2d714610292578063a82ed9ec1461028d578063a9059cbb14610288578063b9d0f1af14610283578063ba9341c01461027e578063c68ff0fe14610279578063d163364914610274578063d1ed0a0f1461026f578063d48e41271461026a578063d8f6785114610265578063dcc79cc814610260578063dd62ed3e1461025b578063e08973ce14610256578063ec57459c14610251578063f01f20df1461024c578063f19c4e3b14610247578063f2fde38b146102425763f69cf7830361033757610c38565b610c20565b610c07565b610bec565b610bc5565b610b9e565b610b76565b610b3b565b610b23565b610b08565b610ae1565b610abf565b610a86565b610a4a565b6109d2565b6109b6565b61098f565b61090f565b6108f4565b6108d9565b6108b2565b61088b565b610870565b610855565b61083a565b61081f565b6107fb565b6107e2565b6107ca565b6107af565b610794565b61076d565b610755565b61073a565b6106fd565b6106d6565b6106b2565b61069a565b61067f565b610663565b61062a565b61060f565b6105d2565b610580565b610564565b610508565b6104d2565b610479565b610403565b61036b565b600080fd5b805b0361033757565b905035906103528261033c565b565b906020828203126103375761036891610345565b90565b346103375761038361037e366004610354565b6113d4565b604051005b0390f35b600091031261033757565b60005b8381106103aa5750506000910152565b818101518382015260200161039a565b6103db6103e46020936103ee936103cf815190565b80835293849260200190565b95869101610397565b601f01601f191690565b0190565b6020808252610368929101906103ba565b346103375761041336600461038c565b61038861041e610f96565b604051918291826103f2565b6001600160a01b031690565b6001600160a01b03811661033e565b9050359061035282610436565b9190604083820312610337576103689061046c8185610445565b93602001610345565b9052565b346103375761038861049561048f366004610452565b90611019565b60405191829182901515815260200190565b610368916008021c6001600160a01b031690565b9061036891546104a7565b610368600060086104bb565b34610337576104e236600461038c565b6103886104ed6104c6565b6040515b918291826001600160a01b03909116815260200190565b346103375761051836600461038c565b610388610523610fbb565b6040515b9182918290815260200190565b90916060828403126103375761036861054d8484610445565b9361055b8160208601610445565b93604001610345565b346103375761038861049561057a366004610534565b91611913565b346103375761059036600461038c565b6040517f000000000000000000000000000000000000000000000000000000000000000060ff168152602090f35b906020828203126103375761036891610445565b34610337576103836105e53660046105be565b6112d5565b610368916008021c5b60ff1690565b9061036891546105ea565b6103686014806105f9565b346103375761061f36600461038c565b610388610495610604565b346103375761063a36600461038c565b6103887f0000000000000000000000000000000000000000000000000000000000000000610523565b3461033757610388610495610679366004610452565b90611051565b34610337576103886104956106953660046105be565b611276565b34610337576106aa36600461038c565b610383611c57565b34610337576103836106c5366004610354565b6119f8565b6103686000600d6104bb565b34610337576106e636600461038c565b6103886104ed6106ca565b610368600060146104bb565b346103375761070d36600461038c565b6103886104ed6106f1565b610368916008021c81565b906103689154610718565b61036860006012610723565b346103375761074a36600461038c565b61038861052361072e565b346103375761076536600461038c565b61038361254e565b346103375761077d36600461038c565b610388610495610e57565b6103686000600a610723565b34610337576107a436600461038c565b610388610523610788565b34610337576103886105236107c53660046105be565b610fdd565b34610337576107da36600461038c565b610383610ca8565b34610337576103836107f5366004610452565b90611b68565b346103375761080b36600461038c565b610383611bb5565b6103686000600b610723565b346103375761082f36600461038c565b610388610523610813565b346103375761084a36600461038c565b61038861049561126c565b346103375761086536600461038c565b6103886104ed610c66565b346103375761088036600461038c565b610388610495611292565b346103375761089b36600461038c565b61038861041e610fa0565b6103686000600e6104bb565b34610337576108c236600461038c565b6103886104ed6108a6565b6103686000600f610723565b34610337576108e936600461038c565b6103886105236108cd565b346103375761090436600461038c565b610388610495611262565b3461033757610388610495610925366004610452565b906110ca565b6103689061042a906001600160a01b031682565b6103689061092b565b6103689061093f565b610368737a250d5630b4cf539739df2c5dacb4c659f2488d610948565b610368610951565b61047590610948565b6020810192916103529190610976565b346103375761099f36600461038c565b6103886109aa61096e565b6040519182918261097f565b34610337576103886104956109cc366004610452565b90611633565b34610337576103836109e5366004610354565b611328565b610368906105f3565b61036890546109ea565b6103689060081c6105f3565b61036890546109fd565b6103689060101c6105f3565b6103689054610a13565b600c610a34816109f3565b916103686000610a4384610a09565b9301610a1f565b3461033757610a5a36600461038c565b610388610a65610a29565b60408051931515845291151560208401521515908201529081906060820190565b3461033757610a9636600461038c565b6103887f00000000000000000000000000000000000000000000000000000000000000006104ed565b6103886109aa610ad0366004610354565b61236a565b61036860006010610723565b3461033757610af136600461038c565b610388610523610ad5565b61036860006009610723565b3461033757610b1836600461038c565b610388610523610afc565b3461033757610383610b36366004610354565b611598565b3461033757610383610b4e3660046105be565b6124a1565b91906040838203126103375761036890610b6d8185610445565b93602001610445565b3461033757610388610523610b8c366004610b53565b90610ff9565b61036860006013610723565b3461033757610bae36600461038c565b610388610523610b92565b61036860006007610723565b3461033757610bd536600461038c565b610388610523610bb9565b61036860006011610723565b3461033757610bfc36600461038c565b610388610523610be0565b3461033757610383610c1a366004610452565b906114e8565b3461033757610383610c333660046105be565b610dbf565b3461033757610383610c4b366004610354565b611348565b6103689060081c61042a565b6103689054610c50565b6103686005610c5c565b610c78610d04565b610352610c96565b61042a6103686103689290565b61036890610c80565b610352610ca36000610c8d565b610dfc565b610352610c70565b15610cb757565b60405162461bcd60e51b815280610d00600482016020808252818101527f4f776e61626c653a2063616c6c6572206973206e6f7420746865206f776e6572604082015260600190565b0390fd5b610352610d0f610c66565b610d28610d1b3361042a565b916001600160a01b031690565b14610cb0565b61035290610d3a610d04565b610d9a565b15610d4657565b60405162461bcd60e51b815260206004820152602660248201527f4f776e61626c653a206e6577206f776e657220697320746865207a65726f206160448201526564647265737360d01b6064820152608490fd5b61035290610ca3610dae61042a6000610c8d565b6001600160a01b0383161415610d3f565b61035290610d2e565b90610100600160a81b039060081b5b9181191691161790565b90610df1610368610df892610948565b8254610dc8565b9055565b610e066005610c5c565b90610e12816005610de1565b610e45610e3f7f8be0079c531659141344cd1fd0a4f28419497f9722a3daafe3b4186f6b6457e093610948565b91610948565b91610e4f60405190565b80805b0390a3565b61036860056109f3565b634e487b7160e01b600052602260045260246000fd5b9060016002830492168015610e97575b6020831014610e9257565b610e61565b91607f1691610e87565b80546000939291610ebe610eb483610e77565b8085529360200190565b9160018116908115610f105750600114610ed757505050565b610eea9192939450600052602060002090565b916000925b818410610efc5750500190565b805484840152602090930192600101610eef565b92949550505060ff1916825215156020020190565b9061036891610ea1565b634e487b7160e01b600052604160045260246000fd5b90601f01601f1916810190811067ffffffffffffffff821117610f6757604052565b610f2f565b90610352610f8692610f7d60405190565b93848092610f25565b0383610f45565b61036890610f6c565b6103686003610f8d565b6103686004610f8d565b6103689081565b6103689054610faa565b6103686002610fb1565b90610fcf90610948565b600052602052604060002090565b610ff461036891610fec600090565b506000610fc5565b610fb1565b61036891611014610ff49261100c600090565b506001610fc5565b610fc5565b6110249190336111cb565b600190565b634e487b7160e01b600052601160045260246000fd5b9190820180921161104c57565b611029565b611024919061106a33926110658385610ff9565b61103f565b916111cb565b1561107757565b60405162461bcd60e51b815260206004820152602560248201527f45524332303a2064656372656173656420616c6c6f77616e63652062656c6f77604482015264207a65726f60d81b6064820152608490fd5b611024919061106a33926110de8385610ff9565b6110ea82821015611070565b0390565b156110f557565b60405162461bcd60e51b8152602060048201526024808201527f45524332303a20617070726f76652066726f6d20746865207a65726f206164646044820152637265737360e01b6064820152608490fd5b1561114d57565b60405162461bcd60e51b815260206004820152602260248201527f45524332303a20617070726f766520746f20746865207a65726f206164647265604482015261737360f01b6064820152608490fd5b9060001990610dd7565b6103686103686103689290565b906111c4610368610df8926111a7565b825461119d565b61120a6111f96111db6000610c8d565b61042a6001600160a01b0382166001600160a01b03861614156110ee565b6001600160a01b0384161415611146565b6112228361121d84611014856001610fc5565b6111b4565b610e526112586112527f8c5be1e5ebec7d5bd14f71427d1e84f3dd0314c0f7b2291e5b200ac8c7c3b92593610948565b93610948565b9361052760405190565b610368600c610a09565b610368600c6109f3565b61128d61036891611285600090565b506015610fc5565b6109f3565b610368600c610a1f565b6103689061042a565b610368905461129c565b906001600160a01b0390610dd7565b906112ce610368610df892610948565b82546112af565b6112df600e6112a5565b6112ef610d1b61042a6000610c8d565b036112ff5761035290600e6112be565b60405163131d002d60e01b8152600490fd5b6103529061131d610d04565b61035290600a6111b4565b61035290611311565b6103529061133d610d04565b61035290600b6111b4565b61035290611331565b6103529061135d610d04565b6103529061136961141c565b6113766103686009610fb1565b8111156113c2576113888160096111b4565b6113b27faab136b9dbe20468ab36dcd11abd26b3dcea2b259f018136905bf827f37f5514916111a7565b906113bc60405190565b600090a2565b60405163521e96bb60e11b8152600490fd5b61035290611351565b156113e457565b60405162461bcd60e51b815260206004820152601060248201526f14185d5cd8589b194e881c185d5cd95960821b6044820152606490fd5b61035261142e61142a610e57565b1590565b6113dd565b9061035291611440610d04565b906103529161144d61141c565b61145d565b6103686107d06111a7565b90611469610368611452565b81116114c15761147882612b3d565b61148382600d6112be565b61148e81600f6111b4565b610e456114bb7fe42708d93b95810922305119a3271ca42233da9ebe1e1e503f0e887817a32c7a93610948565b916111a7565b610d00906114ce60405190565b6365a0074b60e11b81529182916004830190815260200190565b9061035291611433565b610352906114fe610d04565b6103529061150a61141c565b61151561142a611292565b61158657611524610368611452565b811161155f576115358160116111b4565b6113b27f8c3208fa4fab043d09d9517339346757a58804a46f954585ba21465677820817916111a7565b610d009061156c60405190565b6305dba32960e51b81529182916004830190815260200190565b6040516319b3ca5360e31b8152600490fd5b610352906114f2565b9061036892916115af61141c565b6115ca565b6103689060a01c6105f3565b61036890546115b4565b50336115d660146115c0565b8061161c575b80611605575b6115f15750906103689161163f565b61036892826115ff9261256c565b9061163f565b5061161761142a61128d846015610fc5565b6115e2565b5061162e61142a61128d836015610fc5565b6115dc565b610368919060006115a1565b61102491903361175c565b61175c565b1561165657565b60405162461bcd60e51b815260206004820152602560248201527f45524332303a207472616e736665722066726f6d20746865207a65726f206164604482015264647265737360d81b6064820152608490fd5b156116b057565b60405162461bcd60e51b815260206004820152602360248201527f45524332303a207472616e7366657220746f20746865207a65726f206164647260448201526265737360e81b6064820152608490fd5b1561170857565b60405162461bcd60e51b815260206004820152602660248201527f45524332303a207472616e7366657220616d6f756e7420657863656564732062604482015265616c616e636560d01b6064820152608490fd5b6117eb6117d88360006117a361179261177483610c8d565b61042a6001600160a01b0382166001600160a01b038a16141561164f565b6001600160a01b03841614156116a9565b6117ae87838761181b565b6110146117ce886117c2610ff48986610fc5565b6110ea82821015611701565b61121d8784610fc5565b6117e5856103ee83610fb1565b906111b4565b610e526112586112527fddf252ad1be2c89b69c2b068fc378daa952ba7f163c4a11628f55a4df523b3ef93610948565b906103529291611885565b1561182d57565b60405162461bcd60e51b815260206004820152602a60248201527f45524332305061757361626c653a20746f6b656e207472616e736665722077686044820152691a5b19481c185d5cd95960b21b6064820152608490fd5b50505061035261189661142a610e57565b611826565b906103689392916118aa61141c565b5091906118b760146115c0565b806118fc575b806118e5575b6118d05761036892611920565b6118df8392826103689561256c565b91611920565b506118f761142a61128d836015610fc5565b6118c3565b5061190e61142a61128d856015610fc5565b6118bd565b610368929190600061189b565b61102492919061164a83335b8361197e565b1561193957565b60405162461bcd60e51b815260206004820152601d60248201527f45524332303a20696e73756666696369656e7420616c6c6f77616e63650000006044820152606490fd5b906119898183610ff9565b6000198103611999575b50505050565b6119ad9361106a916110ea82821015611932565b38808080611993565b610352906119c2610d04565b610352906119ce61141c565b6119d961142a61126c565b6119e65761035290611a01565b604051636cb5913960e01b8152600490fd5b610352906119b6565b6103529033611abd565b611abd565b15611a1757565b60405162461bcd60e51b815260206004820152602160248201527f45524332303a206275726e2066726f6d20746865207a65726f206164647265736044820152607360f81b6064820152608490fd5b15611a6d57565b60405162461bcd60e51b815260206004820152602260248201527f45524332303a206275726e20616d6f756e7420657863656564732062616c616e604482015261636560f01b6064820152608490fd5b600090611b1d611acc83610c8d565b92611aeb6001600160a01b0385166001600160a01b0385161415611a10565b611af685858561181b565b61121d83611b1787611b0b610ff48487610fc5565b6110ea82821015611a66565b92610fc5565b6117eb611b2e846110ea6002610fb1565b60026111b4565b9061035291611b42610d04565b9061035291611b4f61141c565b90611b5b61142a61126c565b6119e65761035291611b72565b9061035291611b35565b6103529190611a0b823361192c565b611b89610d04565b610352611b9761142a611262565b611ba357610352611c2d565b60405163f00085b960e01b8152600490fd5b610352611b81565b611bc561141c565b610352611bed565b9060ff90610dd7565b90611be6610368610df892151590565b8254611bcd565b611bf960016005611bd6565b33611c287f62e78cea01bee320cd4e420270b5ea74000d11b0c9f74754ebdbfc544b05a258916104f160405190565b0390a1565b610352611bbd565b611c3d610d04565b610352611c4b61142a611262565b611ba357610352611ca5565b610352611c35565b611c67611cf0565b610352611c7660006005611bd6565b33611c287f5db9ee0a495bf2e6ff9c91a7834c1ba4fdd244a5e8aa4e537bd38aeae4b073aa916104f160405190565b610352611c5f565b15611cb457565b60405162461bcd60e51b815260206004820152601460248201527314185d5cd8589b194e881b9bdd081c185d5cd95960621b6044820152606490fd5b610352611cfb610e57565b611cad565b9061036891611d0d610d04565b90611d1f91611d1a6123cb565b611ebd565b906103526123fd565b610368670de0b6b3a76400006111a7565b9081526040810192916103529160200152565b0152565b6103686706f05b59d3b200006111a7565b905051906103528261033c565b906020828203126103375761036891611d61565b6040513d6000823e3d90fd5b6103686127106111a7565b9050519061035282610436565b906020828203126103375761036891611d99565b80151561033e565b9050519061035282611dba565b906020828203126103375761036891611dc2565b6001600160a01b0390911681526040810192916103529160200152565b909160608284031261033757610368611e198484611d61565b93611e278160208601611d61565b93604001611d61565b610475906111a7565b9194611e87611d4c92989795611e7d60a096611e736103529a611e6c60c08a019e60008b01906001600160a01b03169052565b6020890152565b6040870190611e30565b6060850190611e30565b6001600160a01b03166080830152565b9060ff60a01b9060a01b610dd7565b90611eb6610368610df892151590565b8254611e97565b5034611ec960146115c0565b61235857611ed5611d28565b8083108015612345575b6123225750611eec611d50565b8082106123005750611f3b90611f0b611f0430610948565b9384611633565b506020611f23611f1e611f1e60086112a5565b610948565b6370a0823190611f3260405190565b94859260e01b90565b82526001600160a01b038616600483015260249082905afa9182156121df576000926122d0575b50611f87611f79611f736013610fb1565b83612432565b611f81611d8e565b90612461565b91611f9c611f986103686007610fb1565b9190565b116122b9575b81611fac91612415565b611fb7611f1e610951565b92611fca611fc3610fbb565b85836111cb565b63c45a0155611fe2611fdb60405190565b9160e01b90565b8152602081600481885afa9081156121df5761200a91611f1e9160009161229b575b50610948565b9063c9c653969163ad5c46489061202a61202360405190565b9260e01b90565b82526020826004818a5afa9081156121df5761208794602093600093612275575b5060006120689161205b60405190565b9788958694859360e01b90565b83526001600160a01b03808a1660048501521660248301526044820190565b03925af19182156121df576120df926120aa91600091612247575b5060146112be565b60206120bc611f1e611f1e60146112a5565b63095ea7b3906120d3600080199361205b60405190565b83528c60048401611de3565b03925af19182156121df5760609261221b575b5063f305d7199461212e61210583610fdd565b94600097612139612114610c66565b42908b8061212160405190565b9b8c9a8b998a9860e01b90565b885260048801611e39565b03925af180156121df576121ed575b5061215560016014611ea6565b61215e826111a7565b81116121b6575b505061217160146112a5565b61219b7f57a9f98b233034883786b9c47f1f6fabcf1655e39d3213b7287b926ca387136e91610948565b906121a560405190565b600090a2610368611f1e60146112a5565b818080926121ca611f1e611f1e600e6112a5565b8282156121e4575bf1156121df573880612165565b611d82565b506108fc6121d2565b61220d9060603d8111612214575b6122058183610f45565b810190611e00565b5050612148565b503d6121fb565b61223b9060203d8111612240575b6122338183610f45565b810190611dcf565b6120f2565b503d612229565b612268915060203d811161226e575b6122608183610f45565b810190611da6565b386120a2565b503d612256565b612068919350612293600091863d811161226e576122608183610f45565b93915061204b565b6122b3915060203d811161226e576122608183610f45565b38612004565b9050611fac6122c860006111a7565b919050611fa2565b6122f291925060203d81116122f9575b6122ea8183610f45565b810190611d6e565b9038611f62565b503d6122e0565b90610d0061230d60405190565b62fdf57560e51b815292839260048401611d39565b82610d0061232f60405190565b63c7bcc1b960e01b815292839260048401611d39565b506123516107c5610c66565b8311611edf565b60405163250856ab60e21b8152600490fd5b610368906000611d00565b61036860026111a7565b1561238657565b60405162461bcd60e51b815260206004820152601f60248201527f5265656e7472616e637947756172643a207265656e7472616e742063616c6c006044820152606490fd5b6103526123d86006610fb1565b6123ec6123e3612375565b9182141561237f565b60066111b4565b61036860016111a7565b6103526123ec6123f3565b9190820391821161104c57565b6103689190612408565b8181029291811591840414171561104c57565b610368919061241f565b634e487b7160e01b600052601260045260246000fd5b811561245c570490565b61243c565b6103689190612452565b61035290612477610d04565b61248160086112a5565b612491610d1b61042a6000610c8d565b036112ff576103529060086112be565b6103529061246b565b6124b26123cb565b6124ba6124c2565b6103526123fd565b6124cb30610948565b6124d481610fdd565b906000916124e1836111a7565b811161252c575b50316124f7610368600b610fb1565b8111612501575050565b81808092612513611f1e611f1e610c66565b828215612523575bf1156121df57565b506108fc61251b565b6125436125489161253d600a610fb1565b90612b2b565b612b22565b386124e8565b6103526124aa565b6103689060a81c6105f3565b6103689054612556565b6125929392918491612592612597612583866127c7565b9482829c8588969b959c612408565b612408565b9485976125a761042a60146112a5565b6001600160a01b03851614806127a7575b80612783575b612752576000956125ce876111a7565b8103612738575b506125df866111a7565b8103612707575b506125f0856111a7565b81036126ed575b50612601846111a7565b81036126dd575b505061261330610948565b9061261d82610fdd565b9061262b61142a6014612562565b90816126c4575b50806126af575b6126435750505050565b6126689192939495506126626125439161265d600a610fb1565b612b2b565b85612b2b565b31612676610368600b610fb1565b811161268157505090565b81808092612695611f1e611f1e600d6112a5565b8282156126a6575bf1156121df5790565b506108fc61269d565b506126bd610368600a610fb1565b8111612639565b90506126d6610d1b61042a60146112a5565b1438612632565b6126e691611abd565b3880612608565b612701906126fb600d6112a5565b8461175c565b386125f7565b612732907f00000000000000000000000000000000000000000000000000000000000000008561175c565b386125e6565b61274c90612746600e6112a5565b8661175c565b386125d5565b610d008561275f60405190565b63f6202a8f60e01b8152918291600483016001600160a01b03909116815260200190565b506127918761106587610fdd565b6127a1611f986103686009610fb1565b116125be565b506127b661042a611f1e610951565b6001600160a01b03861614156125b8565b6000906127dd6127d76012610fb1565b8261241f565b916127f06127e9611d8e565b8094612452565b9361280d84612808612802600f610fb1565b8661241f565b612452565b936128258161280861281f6010610fb1565b8761241f565b9361282e611292565b612836575050565b6103689293506128089061284a6011610fb1565b9061241f565b6124ba9061285c6123cb565b612887565b9060ff60a81b9060a81b610dd7565b90612880610368610df892151590565b8254612861565b61289c9061289760016014612870565b6129f4565b61035260006014612870565b906103526128b560405190565b9283610f45565b67ffffffffffffffff8111610f675760208091020190565b906128e66128e1836128bc565b6128a8565b918252565b369037565b90610352612906612900846128d4565b936128bc565b601f1901602084016128eb565b634e487b7160e01b600052603260045260246000fd5b90612932825190565b811015612943576020809102010190565b612913565b90612968612961612957845190565b8084529260200190565b9260200190565b9060005b8181106129795750505090565b90919261299f61299860019286516001600160a01b0316815260200190565b9460200190565b92910161296c565b906129e2611d4c91610352969897956129d56080966129cb60a08801946000890152565b6020870190611e30565b8482036040860152612948565b6001600160a01b039097166060830152565b612a06612a0160026111a7565b6128f0565b612a0f30610948565b90600092612a3783612a29612a23876111a7565b85612929565b906001600160a01b03169052565b612a42611f1e610951565b63ad5c4648612a53611fdb60405190565b8152602081600481855afa80156121df57612a83918791612b04575b50612a29612a7d60016111a7565b86612929565b612a8e8282866111cb565b63791ac947934290823b15610337578695612acc612ac1938897938894612ab460405190565b9a8b998a98899760e01b90565b8752600487016129a7565b03925af180156121df57612ade575050565b8161035292903d10612afd575b612af58183610f45565b81019061038c565b503d612aeb565b612b1c915060203d811161226e576122608183610f45565b38612a6f565b61035290612850565b9080821015612b38575090565b905090565b60601b15612b4757565b63d92e233d6000526004601cfdfea26469706673582212200bf6e74f6811bbe050c93573e05590decb597d093d5f0d3d2f4aded0442bcb3364736f6c63430008140033a2646970667358221220c202b1f2dd22ce89350bfd7bed68632e7da4a40168498b2ce72f5b17a09eb61d64736f6c63430008140033",
  "devdoc": {
    "author": "@neuro_0x",
    "details": "A factory library to deploy instances of the CoinGenieERC20 contract.",
    "kind": "dev",
    "methods": {
      "launchToken(string,string,uint256,address,(bool,bool,bool),uint256,uint256,uint256,address,address,uint256,uint256,address)": {
        "details": "Creates a new instance of the CoinGenieERC20 contract",
        "params": {
          "affilateFeeRecipient": "- the address to receive the affiliate fee",
          "autoWithdrawThreshold": "- the threshold at which the contract will automatically withdraw the tax fees",
          "burnPercentage": "- the percent in basis points to burn on every tx if this token is deflationary",
          "coinGenieTreasury": "- the address to receive the royalty fee",
          "customConfigProps": "- a struct of configuration booleans for the token",
          "feePercentage": "- the percent in basis points to use as a tax",
          "feeRecipient": "- the address to receive the tax fees",
          "initialSupply": "- the initial supply of the token",
          "maxPerWallet": "- the maximum amount of tokens allowed to be held by one wallet",
          "maxTaxSwap": "- the maximum amount of tokens allowed to be swapped at once by manual or autoswap",
          "name": "- the name of the token",
          "symbol": "- the ticker symbol of the token",
          "tokenOwner": "- the address that will be the owner of the token"
        },
        "returns": {
          "newToken": "- the CoinGenieERC20 token that was created"
        }
      },
      "owner()": {
        "details": "Returns the address of the current owner."
      },
      "renounceOwnership()": {
        "details": "Leaves the contract without owner. It will not be possible to call `onlyOwner` functions. Can only be called by the current owner. NOTE: Renouncing ownership will leave the contract without an owner, thereby disabling any functionality that is only available to the owner."
      },
      "setGenie(address)": {
        "details": "Sets the address of the genie token",
        "params": {
          "genie": "- the address of the genie token"
        }
      },
      "transferOwnership(address)": {
        "details": "Transfers ownership of the contract to a new account (`newOwner`). Can only be called by the current owner."
      }
    },
    "stateVariables": {
      "_genie": {
        "details": "The address of the genie token"
      }
    },
    "title": "ERC20Factory",
    "version": 1
  },
  "userdoc": {
    "errors": {
      "GenieAlreadySet()": [
        {
          "notice": "Error thrown when the genie is already set."
        }
      ]
    },
    "kind": "user",
    "methods": {},
    "version": 1
  },
  "storageLayout": {
    "storage": [
      {
        "astId": 7,
        "contract": "src/ERC20Factory.sol:ERC20Factory",
        "label": "_owner",
        "offset": 0,
        "slot": "0",
        "type": "t_address"
      },
      {
        "astId": 5994,
        "contract": "src/ERC20Factory.sol:ERC20Factory",
        "label": "_genie",
        "offset": 0,
        "slot": "1",
        "type": "t_address"
      }
    ],
    "types": {
      "t_address": {
        "encoding": "inplace",
        "label": "address",
        "numberOfBytes": "20"
      }
    }
  }
}