{
  "address": "0x77DFc19C70e11c7c25923050cbdC1c214045283f",
  "abi": [
    {
      "inputs": [],
      "name": "BeforeUnlockDate",
      "type": "error"
    },
    {
      "inputs": [],
      "name": "InvalidAmount",
      "type": "error"
    },
    {
      "inputs": [],
      "name": "InvalidLockDate",
      "type": "error"
    },
    {
      "inputs": [],
      "name": "LockMismatch",
      "type": "error"
    },
    {
      "inputs": [],
      "name": "MigratorNotSet",
      "type": "error"
    },
    {
      "inputs": [
        {
          "internalType": "address",
          "name": "lpToken",
          "type": "address"
        }
      ],
      "name": "NotUniPair",
      "type": "error"
    },
    {
      "inputs": [],
      "name": "OwnerAlreadySet",
      "type": "error"
    },
    {
      "inputs": [],
      "name": "TransferFailed",
      "type": "error"
    },
    {
      "anonymous": false,
      "inputs": [
        {
          "indexed": false,
          "internalType": "address",
          "name": "lpToken",
          "type": "address"
        },
        {
          "indexed": false,
          "internalType": "address",
          "name": "user",
          "type": "address"
        },
        {
          "indexed": false,
          "internalType": "uint256",
          "name": "amount",
          "type": "uint256"
        },
        {
          "indexed": false,
          "internalType": "uint256",
          "name": "lockDate",
          "type": "uint256"
        },
        {
          "indexed": false,
          "internalType": "uint256",
          "name": "unlockDate",
          "type": "uint256"
        }
      ],
      "name": "OnDeposit",
      "type": "event"
    },
    {
      "anonymous": false,
      "inputs": [
        {
          "indexed": false,
          "internalType": "address",
          "name": "lpToken",
          "type": "address"
        },
        {
          "indexed": false,
          "internalType": "uint256",
          "name": "amount",
          "type": "uint256"
        }
      ],
      "name": "OnWithdraw",
      "type": "event"
    },
    {
      "anonymous": false,
      "inputs": [
        {
          "indexed": true,
          "internalType": "address",
          "name": "previousOwner",
          "type": "address"
        },
        {
          "indexed": true,
          "internalType": "address",
          "name": "newOwner",
          "type": "address"
        }
      ],
      "name": "OwnershipTransferred",
      "type": "event"
    },
    {
      "inputs": [
        {
          "internalType": "uint256",
          "name": "_index",
          "type": "uint256"
        }
      ],
      "name": "getLockedTokenAtIndex",
      "outputs": [
        {
          "internalType": "address",
          "name": "",
          "type": "address"
        }
      ],
      "stateMutability": "view",
      "type": "function"
    },
    {
      "inputs": [],
      "name": "getNumLockedTokens",
      "outputs": [
        {
          "internalType": "uint256",
          "name": "",
          "type": "uint256"
        }
      ],
      "stateMutability": "view",
      "type": "function"
    },
    {
      "inputs": [
        {
          "internalType": "address",
          "name": "_lpToken",
          "type": "address"
        }
      ],
      "name": "getNumLocksForToken",
      "outputs": [
        {
          "internalType": "uint256",
          "name": "",
          "type": "uint256"
        }
      ],
      "stateMutability": "view",
      "type": "function"
    },
    {
      "inputs": [
        {
          "internalType": "address",
          "name": "_user",
          "type": "address"
        },
        {
          "internalType": "address",
          "name": "_lpToken",
          "type": "address"
        },
        {
          "internalType": "uint256",
          "name": "_index",
          "type": "uint256"
        }
      ],
      "name": "getUserLockForTokenAtIndex",
      "outputs": [
        {
          "internalType": "uint256",
          "name": "",
          "type": "uint256"
        },
        {
          "internalType": "uint256",
          "name": "",
          "type": "uint256"
        },
        {
          "internalType": "uint256",
          "name": "",
          "type": "uint256"
        },
        {
          "internalType": "uint256",
          "name": "",
          "type": "uint256"
        },
        {
          "internalType": "uint256",
          "name": "",
          "type": "uint256"
        },
        {
          "internalType": "address",
          "name": "",
          "type": "address"
        }
      ],
      "stateMutability": "view",
      "type": "function"
    },
    {
      "inputs": [
        {
          "internalType": "address",
          "name": "_user",
          "type": "address"
        },
        {
          "internalType": "uint256",
          "name": "_index",
          "type": "uint256"
        }
      ],
      "name": "getUserLockedTokenAtIndex",
      "outputs": [
        {
          "internalType": "address",
          "name": "",
          "type": "address"
        }
      ],
      "stateMutability": "view",
      "type": "function"
    },
    {
      "inputs": [
        {
          "internalType": "address",
          "name": "_user",
          "type": "address"
        }
      ],
      "name": "getUserNumLockedTokens",
      "outputs": [
        {
          "internalType": "uint256",
          "name": "",
          "type": "uint256"
        }
      ],
      "stateMutability": "view",
      "type": "function"
    },
    {
      "inputs": [
        {
          "internalType": "address",
          "name": "_user",
          "type": "address"
        },
        {
          "internalType": "address",
          "name": "_lpToken",
          "type": "address"
        }
      ],
      "name": "getUserNumLocksForToken",
      "outputs": [
        {
          "internalType": "uint256",
          "name": "",
          "type": "uint256"
        }
      ],
      "stateMutability": "view",
      "type": "function"
    },
    {
      "inputs": [
        {
          "internalType": "contract IERC20",
          "name": "_lpToken",
          "type": "address"
        },
        {
          "internalType": "uint256",
          "name": "_index",
          "type": "uint256"
        },
        {
          "internalType": "uint256",
          "name": "_lockID",
          "type": "uint256"
        },
        {
          "internalType": "uint256",
          "name": "_amount",
          "type": "uint256"
        }
      ],
      "name": "incrementLock",
      "outputs": [
        {
          "components": [
            {
              "internalType": "uint256",
              "name": "lockDate",
              "type": "uint256"
            },
            {
              "internalType": "uint256",
              "name": "amount",
              "type": "uint256"
            },
            {
              "internalType": "uint256",
              "name": "initialAmount",
              "type": "uint256"
            },
            {
              "internalType": "uint256",
              "name": "unlockDate",
              "type": "uint256"
            },
            {
              "internalType": "uint256",
              "name": "lockID",
              "type": "uint256"
            },
            {
              "internalType": "address",
              "name": "owner",
              "type": "address"
            }
          ],
          "internalType": "struct LiquidityLocker.TokenLock",
          "name": "_userLock",
          "type": "tuple"
        }
      ],
      "stateMutability": "nonpayable",
      "type": "function"
    },
    {
      "inputs": [
        {
          "internalType": "contract IERC20",
          "name": "lpToken",
          "type": "address"
        },
        {
          "internalType": "uint256",
          "name": "amountOfLPToLock",
          "type": "uint256"
        },
        {
          "internalType": "uint256",
          "name": "unlockDate",
          "type": "uint256"
        },
        {
          "internalType": "address payable",
          "name": "withdrawer",
          "type": "address"
        }
      ],
      "name": "lockLPToken",
      "outputs": [
        {
          "components": [
            {
              "internalType": "uint256",
              "name": "lockDate",
              "type": "uint256"
            },
            {
              "internalType": "uint256",
              "name": "amount",
              "type": "uint256"
            },
            {
              "internalType": "uint256",
              "name": "initialAmount",
              "type": "uint256"
            },
            {
              "internalType": "uint256",
              "name": "unlockDate",
              "type": "uint256"
            },
            {
              "internalType": "uint256",
              "name": "lockID",
              "type": "uint256"
            },
            {
              "internalType": "address",
              "name": "owner",
              "type": "address"
            }
          ],
          "internalType": "struct LiquidityLocker.TokenLock",
          "name": "tokenLock",
          "type": "tuple"
        }
      ],
      "stateMutability": "payable",
      "type": "function"
    },
    {
      "inputs": [
        {
          "internalType": "contract IERC20",
          "name": "_lpToken",
          "type": "address"
        },
        {
          "internalType": "uint256",
          "name": "_index",
          "type": "uint256"
        },
        {
          "internalType": "uint256",
          "name": "_lockID",
          "type": "uint256"
        },
        {
          "internalType": "uint256",
          "name": "_amount",
          "type": "uint256"
        }
      ],
      "name": "migrate",
      "outputs": [],
      "stateMutability": "nonpayable",
      "type": "function"
    },
    {
      "inputs": [],
      "name": "migrator",
      "outputs": [
        {
          "internalType": "contract IUniswapV2Migrator",
          "name": "",
          "type": "address"
        }
      ],
      "stateMutability": "view",
      "type": "function"
    },
    {
      "inputs": [],
      "name": "owner",
      "outputs": [
        {
          "internalType": "address",
          "name": "",
          "type": "address"
        }
      ],
      "stateMutability": "view",
      "type": "function"
    },
    {
      "inputs": [
        {
          "internalType": "contract IERC20",
          "name": "_lpToken",
          "type": "address"
        },
        {
          "internalType": "uint256",
          "name": "_index",
          "type": "uint256"
        },
        {
          "internalType": "uint256",
          "name": "_lockID",
          "type": "uint256"
        },
        {
          "internalType": "uint256",
          "name": "_unlockDate",
          "type": "uint256"
        }
      ],
      "name": "relock",
      "outputs": [],
      "stateMutability": "nonpayable",
      "type": "function"
    },
    {
      "inputs": [],
      "name": "renounceOwnership",
      "outputs": [],
      "stateMutability": "nonpayable",
      "type": "function"
    },
    {
      "inputs": [
        {
          "internalType": "contract IUniswapV2Migrator",
          "name": "_migrator",
          "type": "address"
        }
      ],
      "name": "setMigrator",
      "outputs": [],
      "stateMutability": "nonpayable",
      "type": "function"
    },
    {
      "inputs": [
        {
          "internalType": "address",
          "name": "pair",
          "type": "address"
        },
        {
          "internalType": "uint256",
          "name": "",
          "type": "uint256"
        }
      ],
      "name": "tokenLocks",
      "outputs": [
        {
          "internalType": "uint256",
          "name": "lockDate",
          "type": "uint256"
        },
        {
          "internalType": "uint256",
          "name": "amount",
          "type": "uint256"
        },
        {
          "internalType": "uint256",
          "name": "initialAmount",
          "type": "uint256"
        },
        {
          "internalType": "uint256",
          "name": "unlockDate",
          "type": "uint256"
        },
        {
          "internalType": "uint256",
          "name": "lockID",
          "type": "uint256"
        },
        {
          "internalType": "address",
          "name": "owner",
          "type": "address"
        }
      ],
      "stateMutability": "view",
      "type": "function"
    },
    {
      "inputs": [
        {
          "internalType": "address",
          "name": "_lpToken",
          "type": "address"
        },
        {
          "internalType": "uint256",
          "name": "_index",
          "type": "uint256"
        },
        {
          "internalType": "uint256",
          "name": "_lockID",
          "type": "uint256"
        },
        {
          "internalType": "address payable",
          "name": "_newOwner",
          "type": "address"
        }
      ],
      "name": "transferLockOwnership",
      "outputs": [],
      "stateMutability": "nonpayable",
      "type": "function"
    },
    {
      "inputs": [
        {
          "internalType": "address",
          "name": "newOwner",
          "type": "address"
        }
      ],
      "name": "transferOwnership",
      "outputs": [],
      "stateMutability": "nonpayable",
      "type": "function"
    },
    {
      "inputs": [
        {
          "internalType": "contract IERC20",
          "name": "_lpToken",
          "type": "address"
        },
        {
          "internalType": "uint256",
          "name": "_index",
          "type": "uint256"
        },
        {
          "internalType": "uint256",
          "name": "_lockID",
          "type": "uint256"
        },
        {
          "internalType": "uint256",
          "name": "_amount",
          "type": "uint256"
        }
      ],
      "name": "withdraw",
      "outputs": [],
      "stateMutability": "nonpayable",
      "type": "function"
    }
  ],
  "transactionHash": "0xf1b396a16c894e0a798e6920f27f27d5b34558d747d0e7f6aa6af2b69c631201",
  "args": [],
  "numDeployments": 6,
  "solcInputHash": "112cf09d4728cad53612e2395299940e",
  "bytecode": "0x6080604052346200002657620000146200002b565b604051611e7c6200018a8239611e7c90f35b600080fd5b6200003562000086565b565b6200004762000047620000479290565b90565b62000047600162000037565b90600019905b9181191691161790565b906200007a62000047620000829262000037565b825462000056565b9055565b62000090620000a6565b620000356200009e6200004a565b600162000066565b620000353362000127565b62000047905b6001600160a01b031690565b620000479054620000b1565b906001600160a01b03906200005c565b6200004790620000b7906001600160a01b031682565b6200004790620000df565b6200004790620000f5565b906200011f62000047620000829262000100565b8254620000cf565b620001336000620000c3565b90620001418160006200010b565b62000178620001717f8be0079c531659141344cd1fd0a4f28419497f9722a3daafe3b4186f6b6457e09362000100565b9162000100565b916200018360405190565b600090a356fe6080604052600436101561001257600080fd5b60003560e01c806314dd79a3146101425780631f2a1d2f1461013d57806323cf3118146101385780634532d7761461013357806360491d241461012e578063715018a614610129578063783451e8146101245780637cd07e471461011f5780638da5cb5b1461011a578063903df80614610115578063a396981514610110578063a69d9c4f1461010b578063a9b07cea14610106578063bef497fd14610101578063ccebfa3f146100fc578063d4ff493f146100f7578063df41bc5f146100f2578063ee424278146100ed5763f2fde38b0361014757610716565b6106fa565b6106e0565b6106c4565b61065f565b61050e565b6104a7565b610421565b6103e3565b6103c7565b61037f565b610358565b6102d3565b6102bb565b610294565b610278565b61021f565b6101f4565b61018b565b600080fd5b805b0361014757565b905035906101628261014c565b565b906020828203126101475761017891610155565b90565b6001600160a01b031690565b9052565b34610147576101c06101a66101a1366004610164565b611bcb565b604051918291826001600160a01b03909116815260200190565b0390f35b6001600160a01b03811661014e565b90503590610162826101c4565b9060208282031261014757610178916101d3565b34610147576101c061020f61020a3660046101e0565b611b84565b6040519182918290815260200190565b34610147576102376102323660046101e0565b610936565b604051005b6080818303126101475761025082826101d3565b926101786102618460208501610155565b9361026f8160408601610155565b93606001610155565b346101475761023761028b36600461023c565b9291909161143d565b34610147576102376102a736600461023c565b929190916111d5565b600091031261014757565b34610147576102cb3660046102b0565b610237610766565b34610147576102e33660046102b0565b6101c061020f611b9b565b610178916008021c6001600160a01b031690565b9061017891546102ee565b61017860006006610302565b6101789061017b906001600160a01b031682565b61017890610319565b6101789061032d565b61018790610336565b602081019291610162919061033f565b34610147576103683660046102b0565b6101c061037361030d565b60405191829182610348565b346101475761038f3660046102b0565b6101c06101a66000546001600160a01b031690565b919060408382031261014757610178906103be81856101d3565b93602001610155565b34610147576101c06101a66103dd3660046103a4565b90611c4b565b34610147576101c061020f6103f93660046101e0565b611c2c565b9190604083820312610147576101789061041881856101d3565b936020016101d3565b34610147576101c061020f6104373660046103fe565b90611c63565b80518252610162919060a090819061045a60208201516020860152565b61046960408201516040860152565b61047860608201516060860152565b61048760808201516080860152565b01516001600160a01b0316910152565b60c081019291610162919061043d565b34610147576101c06104c66104bd36600461023c565b9291909161172f565b60405191829182610497565b608081830312610147576104e682826101d3565b926101786104f78460208501610155565b936105058160408601610155565b936060016101d3565b34610147576102376105213660046104d2565b92919091611743565b9061053490610336565b600052602052604060002090565b634e487b7160e01b600052603260045260246000fd5b805482101561057b57610572600691600052602060002090565b91020190600090565b610542565b6101789081565b6101789054610580565b91906105a160059360009461052a565b8054821015610608576105b5929350610558565b50906105c082610587565b916105cd60018201610587565b916105da60028301610587565b916105e760038201610587565b9161017860056105f960048501610587565b9301546001600160a01b031690565b8380fd5b91946106496106509298979561064260a09661063b6101629a61063460c08a019e60008b0152565b6020890152565b6040870152565b6060850152565b6080830152565b01906001600160a01b03169052565b34610147576101c061067b6106753660046103a4565b90610591565b9261068b96949692919260405190565b9687968761060c565b9091606082840312610147576101786106ad84846101d3565b936106bb81602086016101d3565b93604001610155565b34610147576101c061067b6106da366004610694565b91611c7a565b6101c06104c66106f13660046104d2565b92919091610eff565b346101475761023761070d36600461023c565b92919091611b78565b34610147576102376107293660046101e0565b61088b565b6107366107c6565b610162610754565b61017b6101786101789290565b6101789061073e565b610162610761600061074b565b6108c4565b61016261072e565b0190565b1561077957565b60405162461bcd60e51b8152806107c2600482016020808252818101527f4f776e61626c653a2063616c6c6572206973206e6f7420746865206f776e6572604082015260600190565b0390fd5b6101626107db6000546001600160a01b031690565b6107f46107e73361017b565b916001600160a01b031690565b14610772565b610162906108066107c6565b610866565b1561081257565b60405162461bcd60e51b815260206004820152602660248201527f4f776e61626c653a206e6577206f776e657220697320746865207a65726f206160448201526564647265737360d01b6064820152608490fd5b6101629061076161087a61017b600061074b565b6001600160a01b038316141561080b565b610162906107fa565b906001600160a01b03905b9181191691161790565b906108b96101786108c092610336565b8254610894565b9055565b6000546001600160a01b0316906108dc8160006108a9565b61090f6109097f8be0079c531659141344cd1fd0a4f28419497f9722a3daafe3b4186f6b6457e093610336565b91610336565b9161091960405190565b600090a3565b6101629061092b6107c6565b6101629060066108a9565b6101629061091f565b634e487b7160e01b600052604160045260246000fd5b90601f01601f1916810190811067ffffffffffffffff82111761097757604052565b61093f565b9061016261098960405190565b9283610955565b61017860c061097c565b6109a2610990565b906000825260208080808080870160008152016000815201600081520160008152016000905250565b61017861099a565b906109e8949392916109e3610f69565b610c1b565b90610162610fa5565b6101786101786101789290565b610178735c69bee701ef814a2b6a3edd4b1652cb9cc5aa6f610336565b90505190610162826101c4565b906020828203126101475761017891610a1b565b6040513d6000823e3d90fd5b6001600160a01b03909116815260408101929161016291602090610650565b634e487b7160e01b600052600060045260246000fd5b906000199061089f565b90610a976101786108c0926109f1565b8254610a7d565b6101629190610b179060a090600590610abf81610ab9875190565b90610a87565b610ad160018201610ab9602088015190565b610ae360028201610ab9604088015190565b610af560038201610ab9606088015190565b610b0760048201610ab9608088015190565b019201516001600160a01b031690565b906108a9565b9190610b2c5761016291610a9e565b610a67565b90815491600160401b8310156109775782610b5491600161016295018155610558565b90610b1d565b805482101561057b57610572600191600052602060002090565b9160001960089290920291821b911b61089f565b9190610b996101786108c0936109f1565b908354610b74565b90815491600160401b8310156109775782610bc491600161016295018155610b5a565b90610b88565b9095949261016294610c10610c1792610c09608096610bf960a088019c60008901906001600160a01b03169052565b6001600160a01b03166020870152565b6040850152565b6060830152565b0152565b94939091948095600093610c2e856109f1565b8214610eed57610c426402540be4006109f1565b8611610edb57610c5190610336565b91610c5b83610336565b610c6b610c666109fe565b610336565b610c7963e6a4390592610336565b630dfe168191610c92610c8b60405190565b9360e01b90565b8352602083600481855afa918215610e9057610cc4938a93610eb9575b5060405193602091859163d21220a760e01b90565b825260049082905afa928315610e90578993610e95575b50610cfc60209394610d07610cef60405190565b9687958694859460e01b90565b845260048401610a48565b03915afa908115610e90578691610e62575b50610d2c6001600160a01b0385166107e7565b03610e315782339483610d3e30610336565b90610d4a918885611d7c565b5082870196610d57428952565b6020840194610d64818752565b604085015260608401988952600593610d7d848661052a565b54608082019081529484610d9085610336565b6001600160a01b031660a0840152610da79161052a565b90610db191610b31565b610dbc836003610fc2565b5082600292610dcb908461052a565b91820190610dd891610fc2565b500190610de49161052a565b9051610def91610ba1565b51925193517fb173d70d03f0b8aa29e0087d55b3549db8a6343c5208ce69af3c0de4c0836fe794610e1f60405190565b948594610e2c9486610bca565b0390a1565b6107c283610e3e60405190565b630a3f6ee160e21b8152918291600483016001600160a01b03909116815260200190565b610e83915060203d8111610e89575b610e7b8183610955565b810190610a28565b38610d19565b503d610e71565b610a3c565b60209350610eb2610cfc91853d8111610e8957610e7b8183610955565b9350610cdb565b6020919350610ed490823d8111610e8957610e7b8183610955565b9290610caf565b604051637b663c4960e01b8152600490fd5b60405163162908e360e11b8152600490fd5b90610178939291610f0e6109cb565b6109d3565b61017860026109f1565b15610f2457565b60405162461bcd60e51b815260206004820152601f60248201527f5265656e7472616e637947756172643a207265656e7472616e742063616c6c006044820152606490fd5b610162610f766001610587565b610f94610f81610f13565b918290610f8d565b9190565b1415610f1d565b6001610a87565b61017860016109f1565b610162610f94610f9b565b6101789081906001600160a01b031681565b90610fef610f89610fea610fe5600061017896610fdd600090565b50019461032d565b610fb0565b6109f1565b611032565b9190610b996101786108c09390565b90815491600160401b831015610977578261102691600161016295018155610b5a565b90610ff4565b90610534565b61104361103f838361107c565b1590565b15611075576110709161106b906001611064846110608482611003565b5490565b930161102c565b610a87565b600190565b5050600090565b61109a9160016110959261108e600090565b500161102c565b610587565b6110a7610f8960006109f1565b141590565b906110c09392916110bb610f69565b6110de565b610162610fa5565b610178916008021c81565b9061017891546110c8565b906110ed6402540be4006109f1565b8411610edb5761112d61112760029261112261111b6111093390565b95611114878261052a565b0196610336565b809661052a565b610b5a565b906110d3565b611153610f8961114f61114b846111466005988961052a565b610558565b5090565b9590565b14159182156111a3575b5050611191576003019061117082610587565b811061117f5761016291610a87565b60405163b9f317a560e01b8152600490fd5b60405163459808cf60e01b8152600490fd5b6111cc9192506111bf6107e7918501546001600160a01b031690565b926001600160a01b031690565b1415388061115d565b906101629392916110ac565b906110c09392916111f0610f69565b611284565b634e487b7160e01b600052601160045260246000fd5b9190820391821161121857565b6111f5565b634e487b7160e01b600052603160045260246000fd5b61016291600091610b88565b8054801561126257600019019061125f6112598383610b5a565b90611233565b55565b61121d565b6001600160a01b0390911681526040810192916101629160200152565b92919092600090611294826109f1565b8414610eed576111229460029033926112c8611127836112bf866112b8898261052a565b0194610336565b9a8b809561052a565b6112e5610f896112e161114b846111466005978861052a565b9890565b1415908115611415575b506111915761130060038601610587565b421061117f578286948892611330600161134c990161109561132a8a61132584610587565b61120b565b82610a87565b61133c610f89846109f1565b14611384575b5050509050611e10565b507fbace9fd79d5ea02ed8b43fa96af07e4e8f859a2f71ff878c748f5c22c578028491610e2c61137b60405190565b92839283611267565b6113de906113d56113a3610178878961139d898261052a565b0161052a565b91610bc46113ce6111276113c86113b8875490565b6113c260016109f1565b9061120b565b86610b5a565b9184610b5a565b6110608161123f565b6113ea610f89836109f1565b146113f6575b80611342565b61076e6114069261140b9561052a565b611449565b50388582826113f0565b8601546001600160a01b031690506114356001600160a01b0385166107e7565b1415386112ef565b906101629392916111e1565b90611464610f89610fea610fe5600061017896610fdd600090565b611495565b61016291600091610ff4565b8054801561126257600019019061125f61148f8383610b5a565b90611469565b906114a6611095826001850161102c565b6000926114b2846109f1565b82146114ff576101789261150594926115109261150a60019788936114df6114d9866109f1565b8261120b565b888501916114f76114ee845490565b6113c2896109f1565b828103611515575b50505090565b611475565b0161102c565b611233565b6110266115386115409461152f61112761106b9589610b5a565b92839188610b5a565b88880161102c565b3880806114ff565b906109e894939291611558610f69565b61160b565b9190820180921161121857565b906101626115f2600561157b610990565b9461158c61158882610587565b8752565b6115a261159b60018301610587565b6020880152565b6115b86115b160028301610587565b6040880152565b6115ce6115c760038301610587565b6060880152565b6115e46115dd60048301610587565b6080880152565b01546001600160a01b031690565b6001600160a01b031660a0840152565b6101789061156a565b5060009190611619836109f1565b8514610eed5761164e6111276002936111226116476116353390565b96611640888261052a565b0195610336565b809561052a565b60059061166c610f8961166861114b84611146888861052a565b9790565b1415908115611707575b50611191576116ff6116be6116b68761169c6101789961169530610336565b8888611d7c565b5061109561132a60018a01926116b184610587565b61155d565b948601610587565b6116ca60038701610587565b907fb173d70d03f0b8aa29e0087d55b3549db8a6343c5208ce69af3c0de4c0836fe7956116f660405190565b95869586610bca565b0390a1611602565b8501546001600160a01b031690506117276001600160a01b0384166107e7565b141538611676565b9061017893929161173e6109cb565b611548565b9061175961017b6000546001600160a01b031690565b61176285610336565b1461186a573393600261178161112784611122878561139d8c8261052a565b9360059461179c610f896112e161114b84611146878c61052a565b14158015611843575b6111915761016296611804611822956117ef6117dd61017886886117cc6101788c8361052a565b6117d68382610fc2565b500161052a565b6117e960048c01610587565b90610ba1565b6113d56113a3610178868861139d888261052a565b600090611813610f89836109f1565b14611829575b50505050610336565b91016108a9565b61076e611406926118399561052a565b5038808080611819565b50858501546001600160a01b03166118636001600160a01b0389166107e7565b14156117a5565b60405163cf04b1bb60e01b8152600490fd5b906110c093929161188b610f69565b6118ff565b80151561014e565b9050519061016282611890565b906020828203126101475761017891611898565b90959492610162946118ef610c1792610c096080966118e860a088019c60008901906001600160a01b03169052565b6020870152565b6001600160a01b03166060830152565b929192611917610c666006546001600160a01b031690565b9360009461192a6107e761017b8861074b565b14611b6657611938856109f1565b8414610eed5760023393611968611127826111226119618661195a8b8261052a565b0198610336565b809861052a565b600590611986610f8961198261114b846111468b8861052a565b9690565b1415908115611b3e575b5061119157848785926119b06001870161109561132a8c61132584610587565b6119bc610f89846109f1565b14611af3575b505050505063095ea7b360206119ff6119e6610c666006546001600160a01b031690565b92611a0a886119f460405190565b958694859460e01b90565b845260048401611267565b038189875af18015610e9057611ac7575b50611a31610c666006546001600160a01b031690565b90611a43600363b7df1d259201610587565b93611a5a42611a54620151806109f1565b9061155d565b91833b1561014757611a8f611a84938997938894611a7760405190565b9a8b998a98899760e01b90565b8752600487016118b9565b03925af18015610e9057611aa1575050565b8161016292903d10611ac0575b611ab88183610955565b8101906102b0565b503d611aae565b611ae79060203d8111611aec575b611adf8183610955565b8101906118a5565b611a1b565b503d611ad5565b611b0c906113d56113a3610178878961139d898261052a565b611b18610f89836109f1565b14611b24575b836119c2565b61076e61140692611b349561052a565b5038828487611b1e565b8401546001600160a01b03169050611b5e6001600160a01b0387166107e7565b141538611990565b604051632ed9bf5360e21b8152600490fd5b9061016293929161187c565b61106061017891611b93600090565b50600561052a565b61017860035b611bb7600061017892611bb2600090565b500190565b600061017891611bc5600090565b50015490565b610178906003611be4565b611be4565b610178906109f1565b611c09611c0461017893611bff6000611c0e95611bb2600090565b611c13565b611bdb565b61073e565b61032d565b61017891600061112792611c25600090565b5001610b5a565b611ba1600061076e61017861017894611c43600090565b50600261052a565b90611bd6600061076e61017861017895611c43600090565b610178916110609161139d6101786002928361052a565b61114b611ca461112761139d969561112286611cb096611c98600090565b5060029a8b918261052a565b6111466005948561052a565b611cb981610587565b611cd0611cc860018401610587565b958301610587565b93611cfc611ce060038501610587565b94611ced60048601610587565b9401546001600160a01b031690565b91959493929190565b6001600160a01b039182168152911660208201526060810192916101629160400152565b67ffffffffffffffff811161097757602090601f01601f19160190565b90611d58611d5383611d29565b61097c565b918252565b3d15611d7757611d6c3d611d46565b903d6000602084013e565b606090565b9091611dbe60009493611daf8695611d92600090565b506040516323b872dd60e01b602082015294859360248501611d05565b60208201810382520382610955565b82602082019151925af1611dd8611dd3611d5d565b911590565b611de25750600190565b8051611df1610f8960006109f1565b14611dfe57805190602001fd5b6040516312171d8360e31b8152600490fd5b600092611dbe8493611e20600090565b50611daf611e2d60405190565b63a9059cbb60e01b60208201529384926024840161126756fea26469706673582212204cdd8d87e2d10a057c2bcadfaec3db76fd3940700e25607e95eb8785290b104664736f6c63430008140033",
  "devdoc": {
    "author": "@neuro_0x",
    "details": "A contract for locking Uniswap V2 liquidity pool tokens for specified periods.",
    "kind": "dev",
    "methods": {
      "getLockedTokenAtIndex(uint256)": {
        "details": "Get the address of a locked token at an index.",
        "params": {
          "_index": "The index of the token."
        }
      },
      "getNumLockedTokens()": {
        "details": "Get the total number of locked tokens"
      },
      "getNumLocksForToken(address)": {
        "details": "Get the number of locks for a specific token.",
        "params": {
          "_lpToken": "The address of the LP token."
        }
      },
      "getUserLockForTokenAtIndex(address,address,uint256)": {
        "details": "Get the lock for a specific user and token at an index.",
        "params": {
          "_index": "The index of the lock.",
          "_lpToken": "The address of the LP token.",
          "_user": "The address of the user."
        },
        "returns": {
          "_0": "The lock date.",
          "_1": "Amount of tokens locked.",
          "_2": "Initial amount of tokens locked.",
          "_3": "Unlock date of the lock.",
          "_4": "Lock ID of the lock.",
          "_5": "Owner of the lock."
        }
      },
      "getUserLockedTokenAtIndex(address,uint256)": {
        "details": "Get the token address a user has locked at an index.",
        "params": {
          "_index": "The index of the token.",
          "_user": "The address of the user."
        }
      },
      "getUserNumLockedTokens(address)": {
        "details": "Get the number of tokens a user has locked.",
        "params": {
          "_user": "The address of the user."
        }
      },
      "getUserNumLocksForToken(address,address)": {
        "details": "Get the number of locks for a specific user and token.",
        "params": {
          "_lpToken": "The address of the LP token.",
          "_user": "The address of the user."
        }
      },
      "incrementLock(address,uint256,uint256,uint256)": {
        "details": "increase the amount of tokens per a specific lock, this is preferable to creating a new lock, less fees, and faster loading on our live block explorer"
      },
      "lockLPToken(address,uint256,uint256,address)": {
        "details": "Creates a new lock",
        "params": {
          "amountOfLPToLock": "amount of LP tokens to lock",
          "lpToken": "the univ2 token address",
          "unlockDate": "the unix timestamp (in seconds) until unlock",
          "withdrawer": "the user who can withdraw liquidity once the lock expires"
        }
      },
      "migrate(address,uint256,uint256,uint256)": {
        "details": "migrates liquidity to uniswap v3"
      },
      "owner()": {
        "details": "Returns the address of the current owner."
      },
      "relock(address,uint256,uint256,uint256)": {
        "details": "extend a lock with a new unlock date, _index and _lockID ensure the correct lock is changed this prevents errors when a user performs multiple tx per block possibly with varying gas prices",
        "params": {
          "_index": "the index of the lock for the token",
          "_lockID": "the lockID of the lock for the token",
          "_lpToken": "the univ2 token address",
          "_unlockDate": "the new unix timestamp (in seconds) until unlock"
        }
      },
      "renounceOwnership()": {
        "details": "Leaves the contract without owner. It will not be possible to call `onlyOwner` functions. Can only be called by the current owner. NOTE: Renouncing ownership will leave the contract without an owner, thereby disabling any functionality that is only available to the owner."
      },
      "setMigrator(address)": {
        "details": "Set the migrator contract which allows locked lp tokens to be migrated to uniswap v3",
        "params": {
          "_migrator": "The address of the migrator contract"
        }
      },
      "transferLockOwnership(address,uint256,uint256,address)": {
        "details": "transfer a lock to a new owner, e.g. presale project -> project owner"
      },
      "transferOwnership(address)": {
        "details": "Transfers ownership of the contract to a new account (`newOwner`). Can only be called by the current owner."
      },
      "withdraw(address,uint256,uint256,uint256)": {
        "details": "withdraw a specified amount from a lock. _index and _lockID ensure the correct lock is changed this prevents errors when a user performs multiple tx per block possibly with varying gas prices"
      }
    },
    "title": "LiquidityLocker",
    "version": 1
  },
  "userdoc": {
    "kind": "user",
    "methods": {},
    "version": 1
  },
  "storageLayout": {
    "storage": [
      {
        "astId": 7,
        "contract": "src/LiquidityLocker.sol:LiquidityLocker",
        "label": "_owner",
        "offset": 0,
        "slot": "0",
        "type": "t_address"
      },
      {
        "astId": 231,
        "contract": "src/LiquidityLocker.sol:LiquidityLocker",
        "label": "_status",
        "offset": 0,
        "slot": "1",
        "type": "t_uint256"
      },
      {
        "astId": 6205,
        "contract": "src/LiquidityLocker.sol:LiquidityLocker",
        "label": "_users",
        "offset": 0,
        "slot": "2",
        "type": "t_mapping(t_address,t_struct(User)6187_storage)"
      },
      {
        "astId": 6208,
        "contract": "src/LiquidityLocker.sol:LiquidityLocker",
        "label": "_lockedTokens",
        "offset": 0,
        "slot": "3",
        "type": "t_struct(AddressSet)2244_storage"
      },
      {
        "astId": 6214,
        "contract": "src/LiquidityLocker.sol:LiquidityLocker",
        "label": "tokenLocks",
        "offset": 0,
        "slot": "5",
        "type": "t_mapping(t_address,t_array(t_struct(TokenLock)6200_storage)dyn_storage)"
      },
      {
        "astId": 6217,
        "contract": "src/LiquidityLocker.sol:LiquidityLocker",
        "label": "migrator",
        "offset": 0,
        "slot": "6",
        "type": "t_contract(IUniswapV2Migrator)2852"
      }
    ],
    "types": {
      "t_address": {
        "encoding": "inplace",
        "label": "address",
        "numberOfBytes": "20"
      },
      "t_array(t_bytes32)dyn_storage": {
        "base": "t_bytes32",
        "encoding": "dynamic_array",
        "label": "bytes32[]",
        "numberOfBytes": "32"
      },
      "t_array(t_struct(TokenLock)6200_storage)dyn_storage": {
        "base": "t_struct(TokenLock)6200_storage",
        "encoding": "dynamic_array",
        "label": "struct LiquidityLocker.TokenLock[]",
        "numberOfBytes": "32"
      },
      "t_array(t_uint256)dyn_storage": {
        "base": "t_uint256",
        "encoding": "dynamic_array",
        "label": "uint256[]",
        "numberOfBytes": "32"
      },
      "t_bytes32": {
        "encoding": "inplace",
        "label": "bytes32",
        "numberOfBytes": "32"
      },
      "t_contract(IUniswapV2Migrator)2852": {
        "encoding": "inplace",
        "label": "contract IUniswapV2Migrator",
        "numberOfBytes": "20"
      },
      "t_mapping(t_address,t_array(t_struct(TokenLock)6200_storage)dyn_storage)": {
        "encoding": "mapping",
        "key": "t_address",
        "label": "mapping(address => struct LiquidityLocker.TokenLock[])",
        "numberOfBytes": "32",
        "value": "t_array(t_struct(TokenLock)6200_storage)dyn_storage"
      },
      "t_mapping(t_address,t_array(t_uint256)dyn_storage)": {
        "encoding": "mapping",
        "key": "t_address",
        "label": "mapping(address => uint256[])",
        "numberOfBytes": "32",
        "value": "t_array(t_uint256)dyn_storage"
      },
      "t_mapping(t_address,t_struct(User)6187_storage)": {
        "encoding": "mapping",
        "key": "t_address",
        "label": "mapping(address => struct LiquidityLocker.User)",
        "numberOfBytes": "32",
        "value": "t_struct(User)6187_storage"
      },
      "t_mapping(t_bytes32,t_uint256)": {
        "encoding": "mapping",
        "key": "t_bytes32",
        "label": "mapping(bytes32 => uint256)",
        "numberOfBytes": "32",
        "value": "t_uint256"
      },
      "t_struct(AddressSet)2244_storage": {
        "encoding": "inplace",
        "label": "struct EnumerableSet.AddressSet",
        "members": [
          {
            "astId": 2243,
            "contract": "src/LiquidityLocker.sol:LiquidityLocker",
            "label": "_inner",
            "offset": 0,
            "slot": "0",
            "type": "t_struct(Set)1929_storage"
          }
        ],
        "numberOfBytes": "64"
      },
      "t_struct(Set)1929_storage": {
        "encoding": "inplace",
        "label": "struct EnumerableSet.Set",
        "members": [
          {
            "astId": 1924,
            "contract": "src/LiquidityLocker.sol:LiquidityLocker",
            "label": "_values",
            "offset": 0,
            "slot": "0",
            "type": "t_array(t_bytes32)dyn_storage"
          },
          {
            "astId": 1928,
            "contract": "src/LiquidityLocker.sol:LiquidityLocker",
            "label": "_indexes",
            "offset": 0,
            "slot": "1",
            "type": "t_mapping(t_bytes32,t_uint256)"
          }
        ],
        "numberOfBytes": "64"
      },
      "t_struct(TokenLock)6200_storage": {
        "encoding": "inplace",
        "label": "struct LiquidityLocker.TokenLock",
        "members": [
          {
            "astId": 6189,
            "contract": "src/LiquidityLocker.sol:LiquidityLocker",
            "label": "lockDate",
            "offset": 0,
            "slot": "0",
            "type": "t_uint256"
          },
          {
            "astId": 6191,
            "contract": "src/LiquidityLocker.sol:LiquidityLocker",
            "label": "amount",
            "offset": 0,
            "slot": "1",
            "type": "t_uint256"
          },
          {
            "astId": 6193,
            "contract": "src/LiquidityLocker.sol:LiquidityLocker",
            "label": "initialAmount",
            "offset": 0,
            "slot": "2",
            "type": "t_uint256"
          },
          {
            "astId": 6195,
            "contract": "src/LiquidityLocker.sol:LiquidityLocker",
            "label": "unlockDate",
            "offset": 0,
            "slot": "3",
            "type": "t_uint256"
          },
          {
            "astId": 6197,
            "contract": "src/LiquidityLocker.sol:LiquidityLocker",
            "label": "lockID",
            "offset": 0,
            "slot": "4",
            "type": "t_uint256"
          },
          {
            "astId": 6199,
            "contract": "src/LiquidityLocker.sol:LiquidityLocker",
            "label": "owner",
            "offset": 0,
            "slot": "5",
            "type": "t_address"
          }
        ],
        "numberOfBytes": "192"
      },
      "t_struct(User)6187_storage": {
        "encoding": "inplace",
        "label": "struct LiquidityLocker.User",
        "members": [
          {
            "astId": 6181,
            "contract": "src/LiquidityLocker.sol:LiquidityLocker",
            "label": "lockedTokens",
            "offset": 0,
            "slot": "0",
            "type": "t_struct(AddressSet)2244_storage"
          },
          {
            "astId": 6186,
            "contract": "src/LiquidityLocker.sol:LiquidityLocker",
            "label": "locksForToken",
            "offset": 0,
            "slot": "2",
            "type": "t_mapping(t_address,t_array(t_uint256)dyn_storage)"
          }
        ],
        "numberOfBytes": "96"
      },
      "t_uint256": {
        "encoding": "inplace",
        "label": "uint256",
        "numberOfBytes": "32"
      }
    }
  }
}